{
	"launchpad/contracts/testVerify.sol": {
		"verifySignature": {
			"abi": [
				{
					"anonymous": false,
					"inputs": [
						{
							"indexed": false,
							"internalType": "address",
							"name": "account",
							"type": "address"
						}
					],
					"name": "Paused",
					"type": "event"
				},
				{
					"anonymous": false,
					"inputs": [
						{
							"indexed": false,
							"internalType": "address",
							"name": "account",
							"type": "address"
						}
					],
					"name": "Unpaused",
					"type": "event"
				},
				{
					"inputs": [],
					"name": "paused",
					"outputs": [
						{
							"internalType": "bool",
							"name": "",
							"type": "bool"
						}
					],
					"stateMutability": "view",
					"type": "function"
				},
				{
					"inputs": [
						{
							"internalType": "bytes",
							"name": "signature",
							"type": "bytes"
						},
						{
							"internalType": "address",
							"name": "_target",
							"type": "address"
						},
						{
							"internalType": "uint256",
							"name": "_saleId",
							"type": "uint256"
						},
						{
							"internalType": "uint256",
							"name": "_chainId",
							"type": "uint256"
						}
					],
					"name": "sign",
					"outputs": [
						{
							"internalType": "bytes32",
							"name": "",
							"type": "bytes32"
						}
					],
					"stateMutability": "pure",
					"type": "function"
				},
				{
					"inputs": [
						{
							"internalType": "bytes",
							"name": "sig",
							"type": "bytes"
						}
					],
					"name": "splitSignature",
					"outputs": [
						{
							"internalType": "uint8",
							"name": "",
							"type": "uint8"
						},
						{
							"internalType": "bytes32",
							"name": "",
							"type": "bytes32"
						},
						{
							"internalType": "bytes32",
							"name": "",
							"type": "bytes32"
						}
					],
					"stateMutability": "pure",
					"type": "function"
				}
			],
			"devdoc": {
				"kind": "dev",
				"methods": {
					"paused()": {
						"details": "Returns true if the contract is paused, and false otherwise."
					}
				},
				"version": 1
			},
			"evm": {
				"assembly": "    /* \"launchpad/contracts/testVerify.sol\":314:1227  contract verifySignature is ReentrancyGuard, Pausable {... */\n  mstore(0x40, 0x80)\n  callvalue\n  dup1\n  iszero\n  tag_1\n  jumpi\n  0x00\n  dup1\n  revert\ntag_1:\n  pop\n    /* \"@openzeppelin/contracts/security/ReentrancyGuard.sol\":1701:1702  1 */\n  0x01\n    /* \"@openzeppelin/contracts/security/ReentrancyGuard.sol\":1806:1813  _status */\n  0x00\n    /* \"@openzeppelin/contracts/security/ReentrancyGuard.sol\":1806:1828  _status = _NOT_ENTERED */\n  dup2\n  swap1\n  sstore\n    /* \"@openzeppelin/contracts/security/Pausable.sol\":981:996  _paused = false */\n  dup1\n  sload\n  not(0xff)\n  and\n  swap1\n  sstore\n    /* \"launchpad/contracts/testVerify.sol\":314:1227  contract verifySignature is ReentrancyGuard, Pausable {... */\n  dataSize(sub_0)\n  dup1\n  dataOffset(sub_0)\n  0x00\n  codecopy\n  0x00\n  return\nstop\n\nsub_0: assembly {\n        /* \"launchpad/contracts/testVerify.sol\":314:1227  contract verifySignature is ReentrancyGuard, Pausable {... */\n      mstore(0x40, 0x80)\n      callvalue\n      dup1\n      iszero\n      tag_1\n      jumpi\n      0x00\n      dup1\n      revert\n    tag_1:\n      pop\n      jumpi(tag_2, lt(calldatasize, 0x04))\n      shr(0xe0, calldataload(0x00))\n      dup1\n      0x42c88b39\n      eq\n      tag_3\n      jumpi\n      dup1\n      0x5c975abb\n      eq\n      tag_4\n      jumpi\n      dup1\n      0xa7bb5803\n      eq\n      tag_5\n      jumpi\n    tag_2:\n      0x00\n      dup1\n      revert\n        /* \"launchpad/contracts/testVerify.sol\":376:739  function sign(... */\n    tag_3:\n      tag_6\n      tag_7\n      calldatasize\n      0x04\n      tag_8\n      jump\t// in\n    tag_7:\n        /* \"launchpad/contracts/testVerify.sol\":561:599  abi.encode(_target, _saleId, _chainId) */\n      0x40\n      dup1\n      mload\n      sub(shl(0xa0, 0x01), 0x01)\n        /* \"#utility.yul\":2778:2833   */\n      swap5\n      swap1\n      swap5\n      and\n        /* \"launchpad/contracts/testVerify.sol\":561:599  abi.encode(_target, _saleId, _chainId) */\n      0x20\n      dup1\n      dup7\n      add\n        /* \"#utility.yul\":2760:2834   */\n      swap2\n      swap1\n      swap2\n      mstore\n        /* \"#utility.yul\":2850:2868   */\n      dup5\n      dup3\n      add\n        /* \"#utility.yul\":2843:2877   */\n      swap4\n      swap1\n      swap4\n      mstore\n        /* \"#utility.yul\":2893:2911   */\n      0x60\n      dup1\n      dup6\n      add\n        /* \"#utility.yul\":2886:2920   */\n      swap3\n      swap1\n      swap3\n      mstore\n        /* \"launchpad/contracts/testVerify.sol\":561:599  abi.encode(_target, _saleId, _chainId) */\n      dup1\n      mload\n      dup1\n      dup6\n      sub\n      swap1\n      swap3\n      add\n      dup3\n      mstore\n        /* \"#utility.yul\":2733:2751   */\n      0x80\n      dup5\n      add\n        /* \"launchpad/contracts/testVerify.sol\":561:599  abi.encode(_target, _saleId, _chainId) */\n      dup2\n      mstore\n        /* \"launchpad/contracts/testVerify.sol\":544:605  keccak256(... */\n      dup2\n      mload\n      swap2\n      dup4\n      add\n      swap2\n      swap1\n      swap2\n      keccak256\n        /* \"#utility.yul\":3173:3239   */\n      0x19457468657265756d205369676e6564204d6573736167653a0a333200000000\n        /* \"launchpad/contracts/testVerify.sol\":644:709  abi.encodePacked(\"\\x19Ethereum Signed Message:\\n32\", payloadHash) */\n      0xa0\n      dup6\n      add\n        /* \"#utility.yul\":3161:3240   */\n      mstore\n        /* \"#utility.yul\":3256:3268   */\n      0xbc\n      dup1\n      dup6\n      add\n        /* \"#utility.yul\":3249:3277   */\n      swap2\n      swap1\n      swap2\n      mstore\n        /* \"launchpad/contracts/testVerify.sol\":644:709  abi.encodePacked(\"\\x19Ethereum Signed Message:\\n32\", payloadHash) */\n      dup2\n      mload\n      dup1\n      dup6\n      sub\n      swap1\n      swap2\n      add\n      dup2\n      mstore\n        /* \"#utility.yul\":3293:3305   */\n      0xdc\n      swap1\n      swap4\n      add\n        /* \"launchpad/contracts/testVerify.sol\":644:709  abi.encodePacked(\"\\x19Ethereum Signed Message:\\n32\", payloadHash) */\n      swap1\n      mstore\n        /* \"launchpad/contracts/testVerify.sol\":634:710  keccak256(abi.encodePacked(\"\\x19Ethereum Signed Message:\\n32\", payloadHash)) */\n      dup2\n      mload\n      swap2\n      add\n      keccak256\n      swap2\n      swap1\n      pop\n        /* \"launchpad/contracts/testVerify.sol\":376:739  function sign(... */\n      jump\n    tag_6:\n      mload(0x40)\n        /* \"#utility.yul\":1674:1699   */\n      swap1\n      dup2\n      mstore\n        /* \"#utility.yul\":1662:1664   */\n      0x20\n        /* \"#utility.yul\":1647:1665   */\n      add\n        /* \"launchpad/contracts/testVerify.sol\":376:739  function sign(... */\n    tag_10:\n      mload(0x40)\n      dup1\n      swap2\n      sub\n      swap1\n      return\n        /* \"@openzeppelin/contracts/security/Pausable.sol\":1098:1182  function paused() public view virtual returns (bool) {... */\n    tag_4:\n        /* \"@openzeppelin/contracts/security/Pausable.sol\":1168:1175  _paused */\n      and(0xff, sload(0x01))\n        /* \"@openzeppelin/contracts/security/Pausable.sol\":1098:1182  function paused() public view virtual returns (bool) {... */\n      mload(0x40)\n        /* \"#utility.yul\":1875:1889   */\n      swap1\n      iszero\n        /* \"#utility.yul\":1868:1890   */\n      iszero\n        /* \"#utility.yul\":1850:1891   */\n      dup2\n      mstore\n        /* \"#utility.yul\":1838:1840   */\n      0x20\n        /* \"#utility.yul\":1823:1841   */\n      add\n        /* \"@openzeppelin/contracts/security/Pausable.sol\":1098:1182  function paused() public view virtual returns (bool) {... */\n      tag_10\n        /* \"#utility.yul\":1710:1897   */\n      jump\n        /* \"launchpad/contracts/testVerify.sol\":743:1224  function splitSignature(bytes memory sig)... */\n    tag_5:\n      tag_16\n      tag_17\n      calldatasize\n      0x04\n      tag_18\n      jump\t// in\n    tag_17:\n      tag_19\n      jump\t// in\n    tag_16:\n      0x40\n      dup1\n      mload\n        /* \"#utility.yul\":2455:2459   */\n      0xff\n        /* \"#utility.yul\":2443:2460   */\n      swap1\n      swap5\n      and\n        /* \"#utility.yul\":2425:2461   */\n      dup5\n      mstore\n        /* \"#utility.yul\":2492:2494   */\n      0x20\n        /* \"#utility.yul\":2477:2495   */\n      dup5\n      add\n        /* \"#utility.yul\":2470:2504   */\n      swap3\n      swap1\n      swap3\n      mstore\n        /* \"#utility.yul\":2520:2538   */\n      swap1\n      dup3\n      add\n        /* \"#utility.yul\":2513:2547   */\n      mstore\n        /* \"#utility.yul\":2413:2415   */\n      0x60\n        /* \"#utility.yul\":2398:2416   */\n      add\n        /* \"launchpad/contracts/testVerify.sol\":743:1224  function splitSignature(bytes memory sig)... */\n      tag_10\n        /* \"#utility.yul\":2227:2553   */\n      jump\n        /* \"launchpad/contracts/testVerify.sol\":743:1224  function splitSignature(bytes memory sig)... */\n    tag_19:\n        /* \"launchpad/contracts/testVerify.sol\":825:830  uint8 */\n      0x00\n        /* \"launchpad/contracts/testVerify.sol\":838:845  bytes32 */\n      dup1\n        /* \"launchpad/contracts/testVerify.sol\":853:860  bytes32 */\n      0x00\n        /* \"launchpad/contracts/testVerify.sol\":883:886  sig */\n      dup4\n        /* \"launchpad/contracts/testVerify.sol\":883:893  sig.length */\n      mload\n        /* \"launchpad/contracts/testVerify.sol\":897:899  65 */\n      0x41\n        /* \"launchpad/contracts/testVerify.sol\":883:899  sig.length == 65 */\n      eq\n        /* \"launchpad/contracts/testVerify.sol\":875:900  require(sig.length == 65) */\n      tag_29\n      jumpi\n      0x00\n      dup1\n      revert\n    tag_29:\n      pop\n      pop\n      pop\n        /* \"launchpad/contracts/testVerify.sol\":1037:1039  32 */\n      0x20\n        /* \"launchpad/contracts/testVerify.sol\":1028:1040  add(sig, 32) */\n      dup2\n      add\n        /* \"launchpad/contracts/testVerify.sol\":1022:1041  mload(add(sig, 32)) */\n      mload\n        /* \"launchpad/contracts/testVerify.sol\":1093:1095  64 */\n      0x40\n        /* \"launchpad/contracts/testVerify.sol\":1084:1096  add(sig, 64) */\n      dup3\n      add\n        /* \"launchpad/contracts/testVerify.sol\":1078:1097  mload(add(sig, 64)) */\n      mload\n        /* \"launchpad/contracts/testVerify.sol\":1186:1188  96 */\n      0x60\n        /* \"launchpad/contracts/testVerify.sol\":1177:1189  add(sig, 96) */\n      swap1\n      swap3\n      add\n        /* \"launchpad/contracts/testVerify.sol\":1171:1190  mload(add(sig, 96)) */\n      mload\n        /* \"launchpad/contracts/testVerify.sol\":907:916  bytes32 r */\n      0x00\n        /* \"launchpad/contracts/testVerify.sol\":1163:1191  byte(0, mload(add(sig, 96))) */\n      byte\n      swap3\n        /* \"launchpad/contracts/testVerify.sol\":1022:1041  mload(add(sig, 32)) */\n      swap1\n      swap2\n        /* \"launchpad/contracts/testVerify.sol\":1078:1097  mload(add(sig, 64)) */\n      swap1\n        /* \"launchpad/contracts/testVerify.sol\":743:1224  function splitSignature(bytes memory sig)... */\n      jump\t// out\n        /* \"#utility.yul\":14:141   */\n    tag_30:\n        /* \"#utility.yul\":75:85   */\n      0x4e487b71\n        /* \"#utility.yul\":70:73   */\n      0xe0\n        /* \"#utility.yul\":66:86   */\n      shl\n        /* \"#utility.yul\":63:64   */\n      0x00\n        /* \"#utility.yul\":56:87   */\n      mstore\n        /* \"#utility.yul\":106:110   */\n      0x41\n        /* \"#utility.yul\":103:104   */\n      0x04\n        /* \"#utility.yul\":96:111   */\n      mstore\n        /* \"#utility.yul\":130:134   */\n      0x24\n        /* \"#utility.yul\":127:128   */\n      0x00\n        /* \"#utility.yul\":120:135   */\n      revert\n        /* \"#utility.yul\":146:864   */\n    tag_31:\n        /* \"#utility.yul\":188:193   */\n      0x00\n        /* \"#utility.yul\":241:244   */\n      dup3\n        /* \"#utility.yul\":234:238   */\n      0x1f\n        /* \"#utility.yul\":226:232   */\n      dup4\n        /* \"#utility.yul\":222:239   */\n      add\n        /* \"#utility.yul\":218:245   */\n      slt\n        /* \"#utility.yul\":208:263   */\n      tag_35\n      jumpi\n        /* \"#utility.yul\":259:260   */\n      0x00\n        /* \"#utility.yul\":256:257   */\n      dup1\n        /* \"#utility.yul\":249:261   */\n      revert\n        /* \"#utility.yul\":208:263   */\n    tag_35:\n        /* \"#utility.yul\":295:301   */\n      dup2\n        /* \"#utility.yul\":282:302   */\n      calldataload\n        /* \"#utility.yul\":321:339   */\n      0xffffffffffffffff\n        /* \"#utility.yul\":358:360   */\n      dup1\n        /* \"#utility.yul\":354:356   */\n      dup3\n        /* \"#utility.yul\":351:361   */\n      gt\n        /* \"#utility.yul\":348:384   */\n      iszero\n      tag_37\n      jumpi\n        /* \"#utility.yul\":364:382   */\n      tag_37\n      tag_30\n      jump\t// in\n    tag_37:\n        /* \"#utility.yul\":439:441   */\n      0x40\n        /* \"#utility.yul\":433:442   */\n      mload\n        /* \"#utility.yul\":407:409   */\n      0x1f\n        /* \"#utility.yul\":493:506   */\n      dup4\n      add\n      not(0x1f)\n        /* \"#utility.yul\":489:511   */\n      swap1\n      dup2\n      and\n        /* \"#utility.yul\":513:515   */\n      0x3f\n        /* \"#utility.yul\":485:516   */\n      add\n        /* \"#utility.yul\":481:521   */\n      and\n        /* \"#utility.yul\":469:522   */\n      dup2\n      add\n      swap1\n        /* \"#utility.yul\":537:555   */\n      dup3\n      dup3\n      gt\n        /* \"#utility.yul\":557:579   */\n      dup2\n      dup4\n      lt\n        /* \"#utility.yul\":534:580   */\n      or\n        /* \"#utility.yul\":531:603   */\n      iszero\n      tag_39\n      jumpi\n        /* \"#utility.yul\":583:601   */\n      tag_39\n      tag_30\n      jump\t// in\n    tag_39:\n        /* \"#utility.yul\":623:633   */\n      dup2\n        /* \"#utility.yul\":619:621   */\n      0x40\n        /* \"#utility.yul\":612:634   */\n      mstore\n        /* \"#utility.yul\":658:660   */\n      dup4\n        /* \"#utility.yul\":650:656   */\n      dup2\n        /* \"#utility.yul\":643:661   */\n      mstore\n        /* \"#utility.yul\":704:707   */\n      dup7\n        /* \"#utility.yul\":697:701   */\n      0x20\n        /* \"#utility.yul\":692:694   */\n      dup6\n        /* \"#utility.yul\":684:690   */\n      dup9\n        /* \"#utility.yul\":680:695   */\n      add\n        /* \"#utility.yul\":676:702   */\n      add\n        /* \"#utility.yul\":673:708   */\n      gt\n        /* \"#utility.yul\":670:725   */\n      iszero\n      tag_40\n      jumpi\n        /* \"#utility.yul\":721:722   */\n      0x00\n        /* \"#utility.yul\":718:719   */\n      dup1\n        /* \"#utility.yul\":711:723   */\n      revert\n        /* \"#utility.yul\":670:725   */\n    tag_40:\n        /* \"#utility.yul\":785:787   */\n      dup4\n        /* \"#utility.yul\":778:782   */\n      0x20\n        /* \"#utility.yul\":770:776   */\n      dup8\n        /* \"#utility.yul\":766:783   */\n      add\n        /* \"#utility.yul\":759:763   */\n      0x20\n        /* \"#utility.yul\":751:757   */\n      dup4\n        /* \"#utility.yul\":747:764   */\n      add\n        /* \"#utility.yul\":734:788   */\n      calldatacopy\n        /* \"#utility.yul\":832:833   */\n      0x00\n        /* \"#utility.yul\":825:829   */\n      0x20\n        /* \"#utility.yul\":820:822   */\n      dup6\n        /* \"#utility.yul\":812:818   */\n      dup4\n        /* \"#utility.yul\":808:823   */\n      add\n        /* \"#utility.yul\":804:830   */\n      add\n        /* \"#utility.yul\":797:834   */\n      mstore\n        /* \"#utility.yul\":852:858   */\n      dup1\n        /* \"#utility.yul\":843:858   */\n      swap5\n      pop\n      pop\n      pop\n      pop\n      pop\n        /* \"#utility.yul\":146:864   */\n      swap3\n      swap2\n      pop\n      pop\n      jump\t// out\n        /* \"#utility.yul\":869:1523   */\n    tag_8:\n        /* \"#utility.yul\":964:970   */\n      0x00\n        /* \"#utility.yul\":972:978   */\n      dup1\n        /* \"#utility.yul\":980:986   */\n      0x00\n        /* \"#utility.yul\":988:994   */\n      dup1\n        /* \"#utility.yul\":1041:1044   */\n      0x80\n        /* \"#utility.yul\":1029:1038   */\n      dup6\n        /* \"#utility.yul\":1020:1027   */\n      dup8\n        /* \"#utility.yul\":1016:1039   */\n      sub\n        /* \"#utility.yul\":1012:1045   */\n      slt\n        /* \"#utility.yul\":1009:1062   */\n      iszero\n      tag_42\n      jumpi\n        /* \"#utility.yul\":1058:1059   */\n      0x00\n        /* \"#utility.yul\":1055:1056   */\n      dup1\n        /* \"#utility.yul\":1048:1060   */\n      revert\n        /* \"#utility.yul\":1009:1062   */\n    tag_42:\n        /* \"#utility.yul\":1098:1107   */\n      dup5\n        /* \"#utility.yul\":1085:1108   */\n      calldataload\n        /* \"#utility.yul\":1131:1149   */\n      0xffffffffffffffff\n        /* \"#utility.yul\":1123:1129   */\n      dup2\n        /* \"#utility.yul\":1120:1150   */\n      gt\n        /* \"#utility.yul\":1117:1167   */\n      iszero\n      tag_43\n      jumpi\n        /* \"#utility.yul\":1163:1164   */\n      0x00\n        /* \"#utility.yul\":1160:1161   */\n      dup1\n        /* \"#utility.yul\":1153:1165   */\n      revert\n        /* \"#utility.yul\":1117:1167   */\n    tag_43:\n        /* \"#utility.yul\":1186:1235   */\n      tag_44\n        /* \"#utility.yul\":1227:1234   */\n      dup8\n        /* \"#utility.yul\":1218:1224   */\n      dup3\n        /* \"#utility.yul\":1207:1216   */\n      dup9\n        /* \"#utility.yul\":1203:1225   */\n      add\n        /* \"#utility.yul\":1186:1235   */\n      tag_31\n      jump\t// in\n    tag_44:\n        /* \"#utility.yul\":1176:1235   */\n      swap5\n      pop\n      pop\n        /* \"#utility.yul\":1285:1287   */\n      0x20\n        /* \"#utility.yul\":1274:1283   */\n      dup6\n        /* \"#utility.yul\":1270:1288   */\n      add\n        /* \"#utility.yul\":1257:1289   */\n      calldataload\n      sub(shl(0xa0, 0x01), 0x01)\n        /* \"#utility.yul\":1322:1327   */\n      dup2\n        /* \"#utility.yul\":1318:1372   */\n      and\n        /* \"#utility.yul\":1311:1316   */\n      dup2\n        /* \"#utility.yul\":1308:1373   */\n      eq\n        /* \"#utility.yul\":1298:1391   */\n      tag_45\n      jumpi\n        /* \"#utility.yul\":1387:1388   */\n      0x00\n        /* \"#utility.yul\":1384:1385   */\n      dup1\n        /* \"#utility.yul\":1377:1389   */\n      revert\n        /* \"#utility.yul\":1298:1391   */\n    tag_45:\n        /* \"#utility.yul\":869:1523   */\n      swap4\n      swap7\n        /* \"#utility.yul\":1410:1415   */\n      swap4\n      swap6\n      pop\n      pop\n      pop\n      pop\n        /* \"#utility.yul\":1462:1464   */\n      0x40\n        /* \"#utility.yul\":1447:1465   */\n      dup3\n      add\n        /* \"#utility.yul\":1434:1466   */\n      calldataload\n      swap2\n        /* \"#utility.yul\":1513:1515   */\n      0x60\n        /* \"#utility.yul\":1498:1516   */\n      add\n        /* \"#utility.yul\":1485:1517   */\n      calldataload\n      swap1\n        /* \"#utility.yul\":869:1523   */\n      jump\t// out\n        /* \"#utility.yul\":1902:2222   */\n    tag_18:\n        /* \"#utility.yul\":1970:1976   */\n      0x00\n        /* \"#utility.yul\":2023:2025   */\n      0x20\n        /* \"#utility.yul\":2011:2020   */\n      dup3\n        /* \"#utility.yul\":2002:2009   */\n      dup5\n        /* \"#utility.yul\":1998:2021   */\n      sub\n        /* \"#utility.yul\":1994:2026   */\n      slt\n        /* \"#utility.yul\":1991:2043   */\n      iszero\n      tag_49\n      jumpi\n        /* \"#utility.yul\":2039:2040   */\n      0x00\n        /* \"#utility.yul\":2036:2037   */\n      dup1\n        /* \"#utility.yul\":2029:2041   */\n      revert\n        /* \"#utility.yul\":1991:2043   */\n    tag_49:\n        /* \"#utility.yul\":2079:2088   */\n      dup2\n        /* \"#utility.yul\":2066:2089   */\n      calldataload\n        /* \"#utility.yul\":2112:2130   */\n      0xffffffffffffffff\n        /* \"#utility.yul\":2104:2110   */\n      dup2\n        /* \"#utility.yul\":2101:2131   */\n      gt\n        /* \"#utility.yul\":2098:2148   */\n      iszero\n      tag_50\n      jumpi\n        /* \"#utility.yul\":2144:2145   */\n      0x00\n        /* \"#utility.yul\":2141:2142   */\n      dup1\n        /* \"#utility.yul\":2134:2146   */\n      revert\n        /* \"#utility.yul\":2098:2148   */\n    tag_50:\n        /* \"#utility.yul\":2167:2216   */\n      tag_51\n        /* \"#utility.yul\":2208:2215   */\n      dup5\n        /* \"#utility.yul\":2199:2205   */\n      dup3\n        /* \"#utility.yul\":2188:2197   */\n      dup6\n        /* \"#utility.yul\":2184:2206   */\n      add\n        /* \"#utility.yul\":2167:2216   */\n      tag_31\n      jump\t// in\n    tag_51:\n        /* \"#utility.yul\":2157:2216   */\n      swap5\n        /* \"#utility.yul\":1902:2222   */\n      swap4\n      pop\n      pop\n      pop\n      pop\n      jump\t// out\n\n    auxdata: 0xa26469706673582212207db424523efd5cb0cb20f107bf390341f1420ad53eea33104dfb6a244c5f23b064736f6c634300080d0033\n}\n",
				"bytecode": {
					"linkReferences": {},
					"object": "608060405234801561001057600080fd5b5060016000819055805460ff191690556102eb8061002f6000396000f3fe608060405234801561001057600080fd5b50600436106100415760003560e01c806342c88b39146100465780635c975abb146100f3578063a7bb580314610109575b600080fd5b6100e061005436600461020d565b604080516001600160a01b039490941660208086019190915284820193909352606080850192909252805180850390920182526080840181528151918301919091207f19457468657265756d205369676e6564204d6573736167653a0a33320000000060a085015260bc808501919091528151808503909101815260dc90930190528151910120919050565b6040519081526020015b60405180910390f35b60015460ff1660405190151581526020016100ea565b61011c610117366004610278565b61013b565b6040805160ff90941684526020840192909252908201526060016100ea565b6000806000835160411461014e57600080fd5b5050506020810151604082015160609092015160001a92909190565b634e487b7160e01b600052604160045260246000fd5b600082601f83011261019157600080fd5b813567ffffffffffffffff808211156101ac576101ac61016a565b604051601f8301601f19908116603f011681019082821181831017156101d4576101d461016a565b816040528381528660208588010111156101ed57600080fd5b836020870160208301376000602085830101528094505050505092915050565b6000806000806080858703121561022357600080fd5b843567ffffffffffffffff81111561023a57600080fd5b61024687828801610180565b94505060208501356001600160a01b038116811461026357600080fd5b93969395505050506040820135916060013590565b60006020828403121561028a57600080fd5b813567ffffffffffffffff8111156102a157600080fd5b6102ad84828501610180565b94935050505056fea26469706673582212207db424523efd5cb0cb20f107bf390341f1420ad53eea33104dfb6a244c5f23b064736f6c634300080d0033",
					"opcodes": "PUSH1 0x80 PUSH1 0x40 MSTORE CALLVALUE DUP1 ISZERO PUSH2 0x10 JUMPI PUSH1 0x0 DUP1 REVERT JUMPDEST POP PUSH1 0x1 PUSH1 0x0 DUP2 SWAP1 SSTORE DUP1 SLOAD PUSH1 0xFF NOT AND SWAP1 SSTORE PUSH2 0x2EB DUP1 PUSH2 0x2F PUSH1 0x0 CODECOPY PUSH1 0x0 RETURN INVALID PUSH1 0x80 PUSH1 0x40 MSTORE CALLVALUE DUP1 ISZERO PUSH2 0x10 JUMPI PUSH1 0x0 DUP1 REVERT JUMPDEST POP PUSH1 0x4 CALLDATASIZE LT PUSH2 0x41 JUMPI PUSH1 0x0 CALLDATALOAD PUSH1 0xE0 SHR DUP1 PUSH4 0x42C88B39 EQ PUSH2 0x46 JUMPI DUP1 PUSH4 0x5C975ABB EQ PUSH2 0xF3 JUMPI DUP1 PUSH4 0xA7BB5803 EQ PUSH2 0x109 JUMPI JUMPDEST PUSH1 0x0 DUP1 REVERT JUMPDEST PUSH2 0xE0 PUSH2 0x54 CALLDATASIZE PUSH1 0x4 PUSH2 0x20D JUMP JUMPDEST PUSH1 0x40 DUP1 MLOAD PUSH1 0x1 PUSH1 0x1 PUSH1 0xA0 SHL SUB SWAP5 SWAP1 SWAP5 AND PUSH1 0x20 DUP1 DUP7 ADD SWAP2 SWAP1 SWAP2 MSTORE DUP5 DUP3 ADD SWAP4 SWAP1 SWAP4 MSTORE PUSH1 0x60 DUP1 DUP6 ADD SWAP3 SWAP1 SWAP3 MSTORE DUP1 MLOAD DUP1 DUP6 SUB SWAP1 SWAP3 ADD DUP3 MSTORE PUSH1 0x80 DUP5 ADD DUP2 MSTORE DUP2 MLOAD SWAP2 DUP4 ADD SWAP2 SWAP1 SWAP2 KECCAK256 PUSH32 0x19457468657265756D205369676E6564204D6573736167653A0A333200000000 PUSH1 0xA0 DUP6 ADD MSTORE PUSH1 0xBC DUP1 DUP6 ADD SWAP2 SWAP1 SWAP2 MSTORE DUP2 MLOAD DUP1 DUP6 SUB SWAP1 SWAP2 ADD DUP2 MSTORE PUSH1 0xDC SWAP1 SWAP4 ADD SWAP1 MSTORE DUP2 MLOAD SWAP2 ADD KECCAK256 SWAP2 SWAP1 POP JUMP JUMPDEST PUSH1 0x40 MLOAD SWAP1 DUP2 MSTORE PUSH1 0x20 ADD JUMPDEST PUSH1 0x40 MLOAD DUP1 SWAP2 SUB SWAP1 RETURN JUMPDEST PUSH1 0x1 SLOAD PUSH1 0xFF AND PUSH1 0x40 MLOAD SWAP1 ISZERO ISZERO DUP2 MSTORE PUSH1 0x20 ADD PUSH2 0xEA JUMP JUMPDEST PUSH2 0x11C PUSH2 0x117 CALLDATASIZE PUSH1 0x4 PUSH2 0x278 JUMP JUMPDEST PUSH2 0x13B JUMP JUMPDEST PUSH1 0x40 DUP1 MLOAD PUSH1 0xFF SWAP1 SWAP5 AND DUP5 MSTORE PUSH1 0x20 DUP5 ADD SWAP3 SWAP1 SWAP3 MSTORE SWAP1 DUP3 ADD MSTORE PUSH1 0x60 ADD PUSH2 0xEA JUMP JUMPDEST PUSH1 0x0 DUP1 PUSH1 0x0 DUP4 MLOAD PUSH1 0x41 EQ PUSH2 0x14E JUMPI PUSH1 0x0 DUP1 REVERT JUMPDEST POP POP POP PUSH1 0x20 DUP2 ADD MLOAD PUSH1 0x40 DUP3 ADD MLOAD PUSH1 0x60 SWAP1 SWAP3 ADD MLOAD PUSH1 0x0 BYTE SWAP3 SWAP1 SWAP2 SWAP1 JUMP JUMPDEST PUSH4 0x4E487B71 PUSH1 0xE0 SHL PUSH1 0x0 MSTORE PUSH1 0x41 PUSH1 0x4 MSTORE PUSH1 0x24 PUSH1 0x0 REVERT JUMPDEST PUSH1 0x0 DUP3 PUSH1 0x1F DUP4 ADD SLT PUSH2 0x191 JUMPI PUSH1 0x0 DUP1 REVERT JUMPDEST DUP2 CALLDATALOAD PUSH8 0xFFFFFFFFFFFFFFFF DUP1 DUP3 GT ISZERO PUSH2 0x1AC JUMPI PUSH2 0x1AC PUSH2 0x16A JUMP JUMPDEST PUSH1 0x40 MLOAD PUSH1 0x1F DUP4 ADD PUSH1 0x1F NOT SWAP1 DUP2 AND PUSH1 0x3F ADD AND DUP2 ADD SWAP1 DUP3 DUP3 GT DUP2 DUP4 LT OR ISZERO PUSH2 0x1D4 JUMPI PUSH2 0x1D4 PUSH2 0x16A JUMP JUMPDEST DUP2 PUSH1 0x40 MSTORE DUP4 DUP2 MSTORE DUP7 PUSH1 0x20 DUP6 DUP9 ADD ADD GT ISZERO PUSH2 0x1ED JUMPI PUSH1 0x0 DUP1 REVERT JUMPDEST DUP4 PUSH1 0x20 DUP8 ADD PUSH1 0x20 DUP4 ADD CALLDATACOPY PUSH1 0x0 PUSH1 0x20 DUP6 DUP4 ADD ADD MSTORE DUP1 SWAP5 POP POP POP POP POP SWAP3 SWAP2 POP POP JUMP JUMPDEST PUSH1 0x0 DUP1 PUSH1 0x0 DUP1 PUSH1 0x80 DUP6 DUP8 SUB SLT ISZERO PUSH2 0x223 JUMPI PUSH1 0x0 DUP1 REVERT JUMPDEST DUP5 CALLDATALOAD PUSH8 0xFFFFFFFFFFFFFFFF DUP2 GT ISZERO PUSH2 0x23A JUMPI PUSH1 0x0 DUP1 REVERT JUMPDEST PUSH2 0x246 DUP8 DUP3 DUP9 ADD PUSH2 0x180 JUMP JUMPDEST SWAP5 POP POP PUSH1 0x20 DUP6 ADD CALLDATALOAD PUSH1 0x1 PUSH1 0x1 PUSH1 0xA0 SHL SUB DUP2 AND DUP2 EQ PUSH2 0x263 JUMPI PUSH1 0x0 DUP1 REVERT JUMPDEST SWAP4 SWAP7 SWAP4 SWAP6 POP POP POP POP PUSH1 0x40 DUP3 ADD CALLDATALOAD SWAP2 PUSH1 0x60 ADD CALLDATALOAD SWAP1 JUMP JUMPDEST PUSH1 0x0 PUSH1 0x20 DUP3 DUP5 SUB SLT ISZERO PUSH2 0x28A JUMPI PUSH1 0x0 DUP1 REVERT JUMPDEST DUP2 CALLDATALOAD PUSH8 0xFFFFFFFFFFFFFFFF DUP2 GT ISZERO PUSH2 0x2A1 JUMPI PUSH1 0x0 DUP1 REVERT JUMPDEST PUSH2 0x2AD DUP5 DUP3 DUP6 ADD PUSH2 0x180 JUMP JUMPDEST SWAP5 SWAP4 POP POP POP POP JUMP INVALID LOG2 PUSH5 0x6970667358 0x22 SLT KECCAK256 PUSH30 0xB424523EFD5CB0CB20F107BF390341F1420AD53EEA33104DFB6A244C5F23 0xB0 PUSH5 0x736F6C6343 STOP ADDMOD 0xD STOP CALLER "
				},
				"gasEstimates": {
					"creation": {
						"codeDepositCost": "149400",
						"executionCost": "46523",
						"totalCost": "195923"
					},
					"external": {
						"paused()": "2292",
						"sign(bytes,address,uint256,uint256)": "infinite",
						"splitSignature(bytes)": "infinite"
					}
				},
				"methodIdentifiers": {
					"paused()": "5c975abb",
					"sign(bytes,address,uint256,uint256)": "42c88b39",
					"splitSignature(bytes)": "a7bb5803"
				}
			},
			"userdoc": {
				"kind": "user",
				"methods": {},
				"version": 1
			}
		}
	}
}