{
	"launchpad/contracts/testVerify.sol": {
		"verifySignature": {
			"abi": [
				{
					"anonymous": false,
					"inputs": [
						{
							"indexed": false,
							"internalType": "address",
							"name": "account",
							"type": "address"
						}
					],
					"name": "Paused",
					"type": "event"
				},
				{
					"anonymous": false,
					"inputs": [
						{
							"indexed": false,
							"internalType": "address",
							"name": "account",
							"type": "address"
						}
					],
					"name": "Unpaused",
					"type": "event"
				},
				{
					"inputs": [],
					"name": "paused",
					"outputs": [
						{
							"internalType": "bool",
							"name": "",
							"type": "bool"
						}
					],
					"stateMutability": "view",
					"type": "function"
				},
				{
					"inputs": [
						{
							"internalType": "bytes",
							"name": "sig",
							"type": "bytes"
						}
					],
					"name": "splitSignature",
					"outputs": [
						{
							"internalType": "uint8",
							"name": "",
							"type": "uint8"
						},
						{
							"internalType": "bytes32",
							"name": "",
							"type": "bytes32"
						},
						{
							"internalType": "bytes32",
							"name": "",
							"type": "bytes32"
						}
					],
					"stateMutability": "pure",
					"type": "function"
				},
				{
					"inputs": [
						{
							"internalType": "bytes",
							"name": "signature",
							"type": "bytes"
						},
						{
							"internalType": "address",
							"name": "_target",
							"type": "address"
						},
						{
							"internalType": "uint256",
							"name": "_saleId",
							"type": "uint256"
						},
						{
							"internalType": "uint256",
							"name": "_chainId",
							"type": "uint256"
						}
					],
					"name": "verify",
					"outputs": [
						{
							"internalType": "bytes32",
							"name": "",
							"type": "bytes32"
						}
					],
					"stateMutability": "view",
					"type": "function"
				}
			],
			"devdoc": {
				"kind": "dev",
				"methods": {
					"paused()": {
						"details": "Returns true if the contract is paused, and false otherwise."
					}
				},
				"version": 1
			},
			"evm": {
				"assembly": "    /* \"launchpad/contracts/testVerify.sol\":314:1317  contract verifySignature is ReentrancyGuard, Pausable {... */\n  mstore(0x40, 0x80)\n  callvalue\n  dup1\n  iszero\n  tag_1\n  jumpi\n  0x00\n  dup1\n  revert\ntag_1:\n  pop\n    /* \"@openzeppelin/contracts/security/ReentrancyGuard.sol\":1701:1702  1 */\n  0x01\n    /* \"@openzeppelin/contracts/security/ReentrancyGuard.sol\":1806:1813  _status */\n  0x00\n    /* \"@openzeppelin/contracts/security/ReentrancyGuard.sol\":1806:1828  _status = _NOT_ENTERED */\n  dup2\n  swap1\n  sstore\n    /* \"@openzeppelin/contracts/security/Pausable.sol\":981:996  _paused = false */\n  dup1\n  sload\n  not(0xff)\n  and\n  swap1\n  sstore\n    /* \"launchpad/contracts/testVerify.sol\":314:1317  contract verifySignature is ReentrancyGuard, Pausable {... */\n  dataSize(sub_0)\n  dup1\n  dataOffset(sub_0)\n  0x00\n  codecopy\n  0x00\n  return\nstop\n\nsub_0: assembly {\n        /* \"launchpad/contracts/testVerify.sol\":314:1317  contract verifySignature is ReentrancyGuard, Pausable {... */\n      mstore(0x40, 0x80)\n      callvalue\n      dup1\n      iszero\n      tag_1\n      jumpi\n      0x00\n      dup1\n      revert\n    tag_1:\n      pop\n      jumpi(tag_2, lt(calldatasize, 0x04))\n      shr(0xe0, calldataload(0x00))\n      dup1\n      0x5c975abb\n      eq\n      tag_3\n      jumpi\n      dup1\n      0xa7bb5803\n      eq\n      tag_4\n      jumpi\n      dup1\n      0xe49dce66\n      eq\n      tag_5\n      jumpi\n    tag_2:\n      0x00\n      dup1\n      revert\n        /* \"@openzeppelin/contracts/security/Pausable.sol\":1098:1182  function paused() public view virtual returns (bool) {... */\n    tag_3:\n        /* \"@openzeppelin/contracts/security/Pausable.sol\":1168:1175  _paused */\n      and(0xff, sload(0x01))\n        /* \"@openzeppelin/contracts/security/Pausable.sol\":1098:1182  function paused() public view virtual returns (bool) {... */\n      mload(0x40)\n        /* \"#utility.yul\":179:193   */\n      swap1\n      iszero\n        /* \"#utility.yul\":172:194   */\n      iszero\n        /* \"#utility.yul\":154:195   */\n      dup2\n      mstore\n        /* \"#utility.yul\":142:144   */\n      0x20\n        /* \"#utility.yul\":127:145   */\n      add\n        /* \"@openzeppelin/contracts/security/Pausable.sol\":1098:1182  function paused() public view virtual returns (bool) {... */\n    tag_8:\n      mload(0x40)\n      dup1\n      swap2\n      sub\n      swap1\n      return\n        /* \"launchpad/contracts/testVerify.sol\":833:1314  function splitSignature(bytes memory sig)... */\n    tag_4:\n      tag_10\n      tag_11\n      calldatasize\n      0x04\n      tag_12\n      jump\t// in\n    tag_11:\n      tag_13\n      jump\t// in\n    tag_10:\n      0x40\n      dup1\n      mload\n        /* \"#utility.yul\":1614:1618   */\n      0xff\n        /* \"#utility.yul\":1602:1619   */\n      swap1\n      swap5\n      and\n        /* \"#utility.yul\":1584:1620   */\n      dup5\n      mstore\n        /* \"#utility.yul\":1651:1653   */\n      0x20\n        /* \"#utility.yul\":1636:1654   */\n      dup5\n      add\n        /* \"#utility.yul\":1629:1663   */\n      swap3\n      swap1\n      swap3\n      mstore\n        /* \"#utility.yul\":1679:1697   */\n      swap1\n      dup3\n      add\n        /* \"#utility.yul\":1672:1706   */\n      mstore\n        /* \"#utility.yul\":1572:1574   */\n      0x60\n        /* \"#utility.yul\":1557:1575   */\n      add\n        /* \"launchpad/contracts/testVerify.sol\":833:1314  function splitSignature(bytes memory sig)... */\n      tag_8\n        /* \"#utility.yul\":1386:1712   */\n      jump\n        /* \"launchpad/contracts/testVerify.sol\":376:829  function verify(... */\n    tag_5:\n      tag_16\n      tag_17\n      calldatasize\n      0x04\n      tag_18\n      jump\t// in\n    tag_17:\n      tag_19\n      jump\t// in\n    tag_16:\n      mload(0x40)\n        /* \"#utility.yul\":2522:2547   */\n      swap1\n      dup2\n      mstore\n        /* \"#utility.yul\":2510:2512   */\n      0x20\n        /* \"#utility.yul\":2495:2513   */\n      add\n        /* \"launchpad/contracts/testVerify.sol\":376:829  function verify(... */\n      tag_8\n        /* \"#utility.yul\":2376:2553   */\n      jump\n        /* \"launchpad/contracts/testVerify.sol\":833:1314  function splitSignature(bytes memory sig)... */\n    tag_13:\n        /* \"launchpad/contracts/testVerify.sol\":915:920  uint8 */\n      0x00\n        /* \"launchpad/contracts/testVerify.sol\":928:935  bytes32 */\n      dup1\n        /* \"launchpad/contracts/testVerify.sol\":943:950  bytes32 */\n      0x00\n        /* \"launchpad/contracts/testVerify.sol\":973:976  sig */\n      dup4\n        /* \"launchpad/contracts/testVerify.sol\":973:983  sig.length */\n      mload\n        /* \"launchpad/contracts/testVerify.sol\":987:989  65 */\n      0x41\n        /* \"launchpad/contracts/testVerify.sol\":973:989  sig.length == 65 */\n      eq\n        /* \"launchpad/contracts/testVerify.sol\":965:990  require(sig.length == 65) */\n      tag_24\n      jumpi\n      0x00\n      dup1\n      revert\n    tag_24:\n      pop\n      pop\n      pop\n        /* \"launchpad/contracts/testVerify.sol\":1127:1129  32 */\n      0x20\n        /* \"launchpad/contracts/testVerify.sol\":1118:1130  add(sig, 32) */\n      dup2\n      add\n        /* \"launchpad/contracts/testVerify.sol\":1112:1131  mload(add(sig, 32)) */\n      mload\n        /* \"launchpad/contracts/testVerify.sol\":1183:1185  64 */\n      0x40\n        /* \"launchpad/contracts/testVerify.sol\":1174:1186  add(sig, 64) */\n      dup3\n      add\n        /* \"launchpad/contracts/testVerify.sol\":1168:1187  mload(add(sig, 64)) */\n      mload\n        /* \"launchpad/contracts/testVerify.sol\":1276:1278  96 */\n      0x60\n        /* \"launchpad/contracts/testVerify.sol\":1267:1279  add(sig, 96) */\n      swap1\n      swap3\n      add\n        /* \"launchpad/contracts/testVerify.sol\":1261:1280  mload(add(sig, 96)) */\n      mload\n        /* \"launchpad/contracts/testVerify.sol\":997:1006  bytes32 r */\n      0x00\n        /* \"launchpad/contracts/testVerify.sol\":1253:1281  byte(0, mload(add(sig, 96))) */\n      byte\n      swap3\n        /* \"launchpad/contracts/testVerify.sol\":1112:1131  mload(add(sig, 32)) */\n      swap1\n      swap2\n        /* \"launchpad/contracts/testVerify.sol\":1168:1187  mload(add(sig, 64)) */\n      swap1\n        /* \"launchpad/contracts/testVerify.sol\":833:1314  function splitSignature(bytes memory sig)... */\n      jump\t// out\n        /* \"launchpad/contracts/testVerify.sol\":376:829  function verify(... */\n    tag_19:\n        /* \"launchpad/contracts/testVerify.sol\":509:516  bytes32 */\n      0x00\n        /* \"launchpad/contracts/testVerify.sol\":524:531  uint8 v */\n      dup1\n        /* \"launchpad/contracts/testVerify.sol\":537:546  bytes32 r */\n      0x00\n        /* \"launchpad/contracts/testVerify.sol\":552:561  bytes32 s */\n      dup1\n        /* \"launchpad/contracts/testVerify.sol\":580:605  splitSignature(signature) */\n      tag_26\n        /* \"launchpad/contracts/testVerify.sol\":595:604  signature */\n      dup9\n        /* \"launchpad/contracts/testVerify.sol\":580:594  splitSignature */\n      tag_13\n        /* \"launchpad/contracts/testVerify.sol\":580:605  splitSignature(signature) */\n      jump\t// in\n    tag_26:\n      pop\n      pop\n        /* \"launchpad/contracts/testVerify.sol\":651:689  abi.encode(_target, _saleId, _chainId) */\n      0x40\n      dup1\n      mload\n      sub(shl(0xa0, 0x01), 0x01)\n        /* \"#utility.yul\":2778:2833   */\n      swap10\n      swap1\n      swap10\n      and\n        /* \"launchpad/contracts/testVerify.sol\":651:689  abi.encode(_target, _saleId, _chainId) */\n      0x20\n      dup1\n      dup12\n      add\n        /* \"#utility.yul\":2760:2834   */\n      swap2\n      swap1\n      swap2\n      mstore\n        /* \"#utility.yul\":2850:2868   */\n      dup10\n      dup3\n      add\n        /* \"#utility.yul\":2843:2877   */\n      swap9\n      swap1\n      swap9\n      mstore\n        /* \"#utility.yul\":2893:2911   */\n      0x60\n      dup1\n      dup11\n      add\n        /* \"#utility.yul\":2886:2920   */\n      swap8\n      swap1\n      swap8\n      mstore\n        /* \"launchpad/contracts/testVerify.sol\":651:689  abi.encode(_target, _saleId, _chainId) */\n      dup1\n      mload\n      dup1\n      dup11\n      sub\n      swap1\n      swap8\n      add\n      dup8\n      mstore\n        /* \"#utility.yul\":2733:2751   */\n      0x80\n      dup10\n      add\n        /* \"launchpad/contracts/testVerify.sol\":651:689  abi.encode(_target, _saleId, _chainId) */\n      dup2\n      mstore\n        /* \"launchpad/contracts/testVerify.sol\":634:695  keccak256(... */\n      dup7\n      mload\n      swap7\n      dup9\n      add\n      swap7\n      swap1\n      swap7\n      keccak256\n        /* \"#utility.yul\":3173:3239   */\n      0x19457468657265756d205369676e6564204d6573736167653a0a333200000000\n        /* \"launchpad/contracts/testVerify.sol\":734:799  abi.encodePacked(\"\\x19Ethereum Signed Message:\\n32\", payloadHash) */\n      0xa0\n      dup11\n      add\n        /* \"#utility.yul\":3161:3240   */\n      mstore\n        /* \"#utility.yul\":3256:3268   */\n      0xbc\n      dup1\n      dup11\n      add\n        /* \"#utility.yul\":3249:3277   */\n      swap2\n      swap1\n      swap2\n      mstore\n        /* \"launchpad/contracts/testVerify.sol\":734:799  abi.encodePacked(\"\\x19Ethereum Signed Message:\\n32\", payloadHash) */\n      dup7\n      mload\n      dup1\n      dup11\n      sub\n      swap1\n      swap2\n      add\n      dup2\n      mstore\n        /* \"#utility.yul\":3293:3305   */\n      0xdc\n      swap1\n      swap9\n      add\n        /* \"launchpad/contracts/testVerify.sol\":734:799  abi.encodePacked(\"\\x19Ethereum Signed Message:\\n32\", payloadHash) */\n      swap1\n      swap6\n      mstore\n      pop\n      pop\n        /* \"launchpad/contracts/testVerify.sol\":724:800  keccak256(abi.encodePacked(\"\\x19Ethereum Signed Message:\\n32\", payloadHash)) */\n      dup5\n      mload\n      swap5\n      swap1\n      swap4\n      add\n      swap4\n      swap1\n      swap4\n      keccak256\n      swap5\n      swap4\n      pop\n      pop\n      pop\n      pop\n        /* \"launchpad/contracts/testVerify.sol\":376:829  function verify(... */\n      jump\t// out\n        /* \"#utility.yul\":206:333   */\n    tag_31:\n        /* \"#utility.yul\":267:277   */\n      0x4e487b71\n        /* \"#utility.yul\":262:265   */\n      0xe0\n        /* \"#utility.yul\":258:278   */\n      shl\n        /* \"#utility.yul\":255:256   */\n      0x00\n        /* \"#utility.yul\":248:279   */\n      mstore\n        /* \"#utility.yul\":298:302   */\n      0x41\n        /* \"#utility.yul\":295:296   */\n      0x04\n        /* \"#utility.yul\":288:303   */\n      mstore\n        /* \"#utility.yul\":322:326   */\n      0x24\n        /* \"#utility.yul\":319:320   */\n      0x00\n        /* \"#utility.yul\":312:327   */\n      revert\n        /* \"#utility.yul\":338:1056   */\n    tag_32:\n        /* \"#utility.yul\":380:385   */\n      0x00\n        /* \"#utility.yul\":433:436   */\n      dup3\n        /* \"#utility.yul\":426:430   */\n      0x1f\n        /* \"#utility.yul\":418:424   */\n      dup4\n        /* \"#utility.yul\":414:431   */\n      add\n        /* \"#utility.yul\":410:437   */\n      slt\n        /* \"#utility.yul\":400:455   */\n      tag_37\n      jumpi\n        /* \"#utility.yul\":451:452   */\n      0x00\n        /* \"#utility.yul\":448:449   */\n      dup1\n        /* \"#utility.yul\":441:453   */\n      revert\n        /* \"#utility.yul\":400:455   */\n    tag_37:\n        /* \"#utility.yul\":487:493   */\n      dup2\n        /* \"#utility.yul\":474:494   */\n      calldataload\n        /* \"#utility.yul\":513:531   */\n      0xffffffffffffffff\n        /* \"#utility.yul\":550:552   */\n      dup1\n        /* \"#utility.yul\":546:548   */\n      dup3\n        /* \"#utility.yul\":543:553   */\n      gt\n        /* \"#utility.yul\":540:576   */\n      iszero\n      tag_39\n      jumpi\n        /* \"#utility.yul\":556:574   */\n      tag_39\n      tag_31\n      jump\t// in\n    tag_39:\n        /* \"#utility.yul\":631:633   */\n      0x40\n        /* \"#utility.yul\":625:634   */\n      mload\n        /* \"#utility.yul\":599:601   */\n      0x1f\n        /* \"#utility.yul\":685:698   */\n      dup4\n      add\n      not(0x1f)\n        /* \"#utility.yul\":681:703   */\n      swap1\n      dup2\n      and\n        /* \"#utility.yul\":705:707   */\n      0x3f\n        /* \"#utility.yul\":677:708   */\n      add\n        /* \"#utility.yul\":673:713   */\n      and\n        /* \"#utility.yul\":661:714   */\n      dup2\n      add\n      swap1\n        /* \"#utility.yul\":729:747   */\n      dup3\n      dup3\n      gt\n        /* \"#utility.yul\":749:771   */\n      dup2\n      dup4\n      lt\n        /* \"#utility.yul\":726:772   */\n      or\n        /* \"#utility.yul\":723:795   */\n      iszero\n      tag_41\n      jumpi\n        /* \"#utility.yul\":775:793   */\n      tag_41\n      tag_31\n      jump\t// in\n    tag_41:\n        /* \"#utility.yul\":815:825   */\n      dup2\n        /* \"#utility.yul\":811:813   */\n      0x40\n        /* \"#utility.yul\":804:826   */\n      mstore\n        /* \"#utility.yul\":850:852   */\n      dup4\n        /* \"#utility.yul\":842:848   */\n      dup2\n        /* \"#utility.yul\":835:853   */\n      mstore\n        /* \"#utility.yul\":896:899   */\n      dup7\n        /* \"#utility.yul\":889:893   */\n      0x20\n        /* \"#utility.yul\":884:886   */\n      dup6\n        /* \"#utility.yul\":876:882   */\n      dup9\n        /* \"#utility.yul\":872:887   */\n      add\n        /* \"#utility.yul\":868:894   */\n      add\n        /* \"#utility.yul\":865:900   */\n      gt\n        /* \"#utility.yul\":862:917   */\n      iszero\n      tag_42\n      jumpi\n        /* \"#utility.yul\":913:914   */\n      0x00\n        /* \"#utility.yul\":910:911   */\n      dup1\n        /* \"#utility.yul\":903:915   */\n      revert\n        /* \"#utility.yul\":862:917   */\n    tag_42:\n        /* \"#utility.yul\":977:979   */\n      dup4\n        /* \"#utility.yul\":970:974   */\n      0x20\n        /* \"#utility.yul\":962:968   */\n      dup8\n        /* \"#utility.yul\":958:975   */\n      add\n        /* \"#utility.yul\":951:955   */\n      0x20\n        /* \"#utility.yul\":943:949   */\n      dup4\n        /* \"#utility.yul\":939:956   */\n      add\n        /* \"#utility.yul\":926:980   */\n      calldatacopy\n        /* \"#utility.yul\":1024:1025   */\n      0x00\n        /* \"#utility.yul\":1017:1021   */\n      0x20\n        /* \"#utility.yul\":1012:1014   */\n      dup6\n        /* \"#utility.yul\":1004:1010   */\n      dup4\n        /* \"#utility.yul\":1000:1015   */\n      add\n        /* \"#utility.yul\":996:1022   */\n      add\n        /* \"#utility.yul\":989:1026   */\n      mstore\n        /* \"#utility.yul\":1044:1050   */\n      dup1\n        /* \"#utility.yul\":1035:1050   */\n      swap5\n      pop\n      pop\n      pop\n      pop\n      pop\n        /* \"#utility.yul\":338:1056   */\n      swap3\n      swap2\n      pop\n      pop\n      jump\t// out\n        /* \"#utility.yul\":1061:1381   */\n    tag_12:\n        /* \"#utility.yul\":1129:1135   */\n      0x00\n        /* \"#utility.yul\":1182:1184   */\n      0x20\n        /* \"#utility.yul\":1170:1179   */\n      dup3\n        /* \"#utility.yul\":1161:1168   */\n      dup5\n        /* \"#utility.yul\":1157:1180   */\n      sub\n        /* \"#utility.yul\":1153:1185   */\n      slt\n        /* \"#utility.yul\":1150:1202   */\n      iszero\n      tag_44\n      jumpi\n        /* \"#utility.yul\":1198:1199   */\n      0x00\n        /* \"#utility.yul\":1195:1196   */\n      dup1\n        /* \"#utility.yul\":1188:1200   */\n      revert\n        /* \"#utility.yul\":1150:1202   */\n    tag_44:\n        /* \"#utility.yul\":1238:1247   */\n      dup2\n        /* \"#utility.yul\":1225:1248   */\n      calldataload\n        /* \"#utility.yul\":1271:1289   */\n      0xffffffffffffffff\n        /* \"#utility.yul\":1263:1269   */\n      dup2\n        /* \"#utility.yul\":1260:1290   */\n      gt\n        /* \"#utility.yul\":1257:1307   */\n      iszero\n      tag_45\n      jumpi\n        /* \"#utility.yul\":1303:1304   */\n      0x00\n        /* \"#utility.yul\":1300:1301   */\n      dup1\n        /* \"#utility.yul\":1293:1305   */\n      revert\n        /* \"#utility.yul\":1257:1307   */\n    tag_45:\n        /* \"#utility.yul\":1326:1375   */\n      tag_46\n        /* \"#utility.yul\":1367:1374   */\n      dup5\n        /* \"#utility.yul\":1358:1364   */\n      dup3\n        /* \"#utility.yul\":1347:1356   */\n      dup6\n        /* \"#utility.yul\":1343:1365   */\n      add\n        /* \"#utility.yul\":1326:1375   */\n      tag_32\n      jump\t// in\n    tag_46:\n        /* \"#utility.yul\":1316:1375   */\n      swap5\n        /* \"#utility.yul\":1061:1381   */\n      swap4\n      pop\n      pop\n      pop\n      pop\n      jump\t// out\n        /* \"#utility.yul\":1717:2371   */\n    tag_18:\n        /* \"#utility.yul\":1812:1818   */\n      0x00\n        /* \"#utility.yul\":1820:1826   */\n      dup1\n        /* \"#utility.yul\":1828:1834   */\n      0x00\n        /* \"#utility.yul\":1836:1842   */\n      dup1\n        /* \"#utility.yul\":1889:1892   */\n      0x80\n        /* \"#utility.yul\":1877:1886   */\n      dup6\n        /* \"#utility.yul\":1868:1875   */\n      dup8\n        /* \"#utility.yul\":1864:1887   */\n      sub\n        /* \"#utility.yul\":1860:1893   */\n      slt\n        /* \"#utility.yul\":1857:1910   */\n      iszero\n      tag_49\n      jumpi\n        /* \"#utility.yul\":1906:1907   */\n      0x00\n        /* \"#utility.yul\":1903:1904   */\n      dup1\n        /* \"#utility.yul\":1896:1908   */\n      revert\n        /* \"#utility.yul\":1857:1910   */\n    tag_49:\n        /* \"#utility.yul\":1946:1955   */\n      dup5\n        /* \"#utility.yul\":1933:1956   */\n      calldataload\n        /* \"#utility.yul\":1979:1997   */\n      0xffffffffffffffff\n        /* \"#utility.yul\":1971:1977   */\n      dup2\n        /* \"#utility.yul\":1968:1998   */\n      gt\n        /* \"#utility.yul\":1965:2015   */\n      iszero\n      tag_50\n      jumpi\n        /* \"#utility.yul\":2011:2012   */\n      0x00\n        /* \"#utility.yul\":2008:2009   */\n      dup1\n        /* \"#utility.yul\":2001:2013   */\n      revert\n        /* \"#utility.yul\":1965:2015   */\n    tag_50:\n        /* \"#utility.yul\":2034:2083   */\n      tag_51\n        /* \"#utility.yul\":2075:2082   */\n      dup8\n        /* \"#utility.yul\":2066:2072   */\n      dup3\n        /* \"#utility.yul\":2055:2064   */\n      dup9\n        /* \"#utility.yul\":2051:2073   */\n      add\n        /* \"#utility.yul\":2034:2083   */\n      tag_32\n      jump\t// in\n    tag_51:\n        /* \"#utility.yul\":2024:2083   */\n      swap5\n      pop\n      pop\n        /* \"#utility.yul\":2133:2135   */\n      0x20\n        /* \"#utility.yul\":2122:2131   */\n      dup6\n        /* \"#utility.yul\":2118:2136   */\n      add\n        /* \"#utility.yul\":2105:2137   */\n      calldataload\n      sub(shl(0xa0, 0x01), 0x01)\n        /* \"#utility.yul\":2170:2175   */\n      dup2\n        /* \"#utility.yul\":2166:2220   */\n      and\n        /* \"#utility.yul\":2159:2164   */\n      dup2\n        /* \"#utility.yul\":2156:2221   */\n      eq\n        /* \"#utility.yul\":2146:2239   */\n      tag_52\n      jumpi\n        /* \"#utility.yul\":2235:2236   */\n      0x00\n        /* \"#utility.yul\":2232:2233   */\n      dup1\n        /* \"#utility.yul\":2225:2237   */\n      revert\n        /* \"#utility.yul\":2146:2239   */\n    tag_52:\n        /* \"#utility.yul\":1717:2371   */\n      swap4\n      swap7\n        /* \"#utility.yul\":2258:2263   */\n      swap4\n      swap6\n      pop\n      pop\n      pop\n      pop\n        /* \"#utility.yul\":2310:2312   */\n      0x40\n        /* \"#utility.yul\":2295:2313   */\n      dup3\n      add\n        /* \"#utility.yul\":2282:2314   */\n      calldataload\n      swap2\n        /* \"#utility.yul\":2361:2363   */\n      0x60\n        /* \"#utility.yul\":2346:2364   */\n      add\n        /* \"#utility.yul\":2333:2365   */\n      calldataload\n      swap1\n        /* \"#utility.yul\":1717:2371   */\n      jump\t// out\n\n    auxdata: 0xa264697066735822122047ed2bc36628aa08406d529afa920b9606e956629513357c393828d6b100f50f64736f6c634300080d0033\n}\n",
				"bytecode": {
					"linkReferences": {},
					"object": "608060405234801561001057600080fd5b5060016000819055805460ff1916905561030c8061002f6000396000f3fe608060405234801561001057600080fd5b50600436106100415760003560e01c80635c975abb14610046578063a7bb580314610061578063e49dce6614610093575b600080fd5b60015460ff1660405190151581526020015b60405180910390f35b61007461006f36600461022e565b6100b4565b6040805160ff9094168452602084019290925290820152606001610058565b6100a66100a136600461026b565b6100e3565b604051908152602001610058565b600080600083516041146100c757600080fd5b5050506020810151604082015160609092015160001a92909190565b6000806000806100f2886100b4565b5050604080516001600160a01b03999099166020808b0191909152898201989098526060808a01979097528051808a0390970187526080890181528651968801969096207f19457468657265756d205369676e6564204d6573736167653a0a33320000000060a08a015260bc808a01919091528651808a03909101815260dc909801909552505084519490930193909320949350505050565b634e487b7160e01b600052604160045260246000fd5b600082601f8301126101b257600080fd5b813567ffffffffffffffff808211156101cd576101cd61018b565b604051601f8301601f19908116603f011681019082821181831017156101f5576101f561018b565b8160405283815286602085880101111561020e57600080fd5b836020870160208301376000602085830101528094505050505092915050565b60006020828403121561024057600080fd5b813567ffffffffffffffff81111561025757600080fd5b610263848285016101a1565b949350505050565b6000806000806080858703121561028157600080fd5b843567ffffffffffffffff81111561029857600080fd5b6102a4878288016101a1565b94505060208501356001600160a01b03811681146102c157600080fd5b9396939550505050604082013591606001359056fea264697066735822122047ed2bc36628aa08406d529afa920b9606e956629513357c393828d6b100f50f64736f6c634300080d0033",
					"opcodes": "PUSH1 0x80 PUSH1 0x40 MSTORE CALLVALUE DUP1 ISZERO PUSH2 0x10 JUMPI PUSH1 0x0 DUP1 REVERT JUMPDEST POP PUSH1 0x1 PUSH1 0x0 DUP2 SWAP1 SSTORE DUP1 SLOAD PUSH1 0xFF NOT AND SWAP1 SSTORE PUSH2 0x30C DUP1 PUSH2 0x2F PUSH1 0x0 CODECOPY PUSH1 0x0 RETURN INVALID PUSH1 0x80 PUSH1 0x40 MSTORE CALLVALUE DUP1 ISZERO PUSH2 0x10 JUMPI PUSH1 0x0 DUP1 REVERT JUMPDEST POP PUSH1 0x4 CALLDATASIZE LT PUSH2 0x41 JUMPI PUSH1 0x0 CALLDATALOAD PUSH1 0xE0 SHR DUP1 PUSH4 0x5C975ABB EQ PUSH2 0x46 JUMPI DUP1 PUSH4 0xA7BB5803 EQ PUSH2 0x61 JUMPI DUP1 PUSH4 0xE49DCE66 EQ PUSH2 0x93 JUMPI JUMPDEST PUSH1 0x0 DUP1 REVERT JUMPDEST PUSH1 0x1 SLOAD PUSH1 0xFF AND PUSH1 0x40 MLOAD SWAP1 ISZERO ISZERO DUP2 MSTORE PUSH1 0x20 ADD JUMPDEST PUSH1 0x40 MLOAD DUP1 SWAP2 SUB SWAP1 RETURN JUMPDEST PUSH2 0x74 PUSH2 0x6F CALLDATASIZE PUSH1 0x4 PUSH2 0x22E JUMP JUMPDEST PUSH2 0xB4 JUMP JUMPDEST PUSH1 0x40 DUP1 MLOAD PUSH1 0xFF SWAP1 SWAP5 AND DUP5 MSTORE PUSH1 0x20 DUP5 ADD SWAP3 SWAP1 SWAP3 MSTORE SWAP1 DUP3 ADD MSTORE PUSH1 0x60 ADD PUSH2 0x58 JUMP JUMPDEST PUSH2 0xA6 PUSH2 0xA1 CALLDATASIZE PUSH1 0x4 PUSH2 0x26B JUMP JUMPDEST PUSH2 0xE3 JUMP JUMPDEST PUSH1 0x40 MLOAD SWAP1 DUP2 MSTORE PUSH1 0x20 ADD PUSH2 0x58 JUMP JUMPDEST PUSH1 0x0 DUP1 PUSH1 0x0 DUP4 MLOAD PUSH1 0x41 EQ PUSH2 0xC7 JUMPI PUSH1 0x0 DUP1 REVERT JUMPDEST POP POP POP PUSH1 0x20 DUP2 ADD MLOAD PUSH1 0x40 DUP3 ADD MLOAD PUSH1 0x60 SWAP1 SWAP3 ADD MLOAD PUSH1 0x0 BYTE SWAP3 SWAP1 SWAP2 SWAP1 JUMP JUMPDEST PUSH1 0x0 DUP1 PUSH1 0x0 DUP1 PUSH2 0xF2 DUP9 PUSH2 0xB4 JUMP JUMPDEST POP POP PUSH1 0x40 DUP1 MLOAD PUSH1 0x1 PUSH1 0x1 PUSH1 0xA0 SHL SUB SWAP10 SWAP1 SWAP10 AND PUSH1 0x20 DUP1 DUP12 ADD SWAP2 SWAP1 SWAP2 MSTORE DUP10 DUP3 ADD SWAP9 SWAP1 SWAP9 MSTORE PUSH1 0x60 DUP1 DUP11 ADD SWAP8 SWAP1 SWAP8 MSTORE DUP1 MLOAD DUP1 DUP11 SUB SWAP1 SWAP8 ADD DUP8 MSTORE PUSH1 0x80 DUP10 ADD DUP2 MSTORE DUP7 MLOAD SWAP7 DUP9 ADD SWAP7 SWAP1 SWAP7 KECCAK256 PUSH32 0x19457468657265756D205369676E6564204D6573736167653A0A333200000000 PUSH1 0xA0 DUP11 ADD MSTORE PUSH1 0xBC DUP1 DUP11 ADD SWAP2 SWAP1 SWAP2 MSTORE DUP7 MLOAD DUP1 DUP11 SUB SWAP1 SWAP2 ADD DUP2 MSTORE PUSH1 0xDC SWAP1 SWAP9 ADD SWAP1 SWAP6 MSTORE POP POP DUP5 MLOAD SWAP5 SWAP1 SWAP4 ADD SWAP4 SWAP1 SWAP4 KECCAK256 SWAP5 SWAP4 POP POP POP POP JUMP JUMPDEST PUSH4 0x4E487B71 PUSH1 0xE0 SHL PUSH1 0x0 MSTORE PUSH1 0x41 PUSH1 0x4 MSTORE PUSH1 0x24 PUSH1 0x0 REVERT JUMPDEST PUSH1 0x0 DUP3 PUSH1 0x1F DUP4 ADD SLT PUSH2 0x1B2 JUMPI PUSH1 0x0 DUP1 REVERT JUMPDEST DUP2 CALLDATALOAD PUSH8 0xFFFFFFFFFFFFFFFF DUP1 DUP3 GT ISZERO PUSH2 0x1CD JUMPI PUSH2 0x1CD PUSH2 0x18B JUMP JUMPDEST PUSH1 0x40 MLOAD PUSH1 0x1F DUP4 ADD PUSH1 0x1F NOT SWAP1 DUP2 AND PUSH1 0x3F ADD AND DUP2 ADD SWAP1 DUP3 DUP3 GT DUP2 DUP4 LT OR ISZERO PUSH2 0x1F5 JUMPI PUSH2 0x1F5 PUSH2 0x18B JUMP JUMPDEST DUP2 PUSH1 0x40 MSTORE DUP4 DUP2 MSTORE DUP7 PUSH1 0x20 DUP6 DUP9 ADD ADD GT ISZERO PUSH2 0x20E JUMPI PUSH1 0x0 DUP1 REVERT JUMPDEST DUP4 PUSH1 0x20 DUP8 ADD PUSH1 0x20 DUP4 ADD CALLDATACOPY PUSH1 0x0 PUSH1 0x20 DUP6 DUP4 ADD ADD MSTORE DUP1 SWAP5 POP POP POP POP POP SWAP3 SWAP2 POP POP JUMP JUMPDEST PUSH1 0x0 PUSH1 0x20 DUP3 DUP5 SUB SLT ISZERO PUSH2 0x240 JUMPI PUSH1 0x0 DUP1 REVERT JUMPDEST DUP2 CALLDATALOAD PUSH8 0xFFFFFFFFFFFFFFFF DUP2 GT ISZERO PUSH2 0x257 JUMPI PUSH1 0x0 DUP1 REVERT JUMPDEST PUSH2 0x263 DUP5 DUP3 DUP6 ADD PUSH2 0x1A1 JUMP JUMPDEST SWAP5 SWAP4 POP POP POP POP JUMP JUMPDEST PUSH1 0x0 DUP1 PUSH1 0x0 DUP1 PUSH1 0x80 DUP6 DUP8 SUB SLT ISZERO PUSH2 0x281 JUMPI PUSH1 0x0 DUP1 REVERT JUMPDEST DUP5 CALLDATALOAD PUSH8 0xFFFFFFFFFFFFFFFF DUP2 GT ISZERO PUSH2 0x298 JUMPI PUSH1 0x0 DUP1 REVERT JUMPDEST PUSH2 0x2A4 DUP8 DUP3 DUP9 ADD PUSH2 0x1A1 JUMP JUMPDEST SWAP5 POP POP PUSH1 0x20 DUP6 ADD CALLDATALOAD PUSH1 0x1 PUSH1 0x1 PUSH1 0xA0 SHL SUB DUP2 AND DUP2 EQ PUSH2 0x2C1 JUMPI PUSH1 0x0 DUP1 REVERT JUMPDEST SWAP4 SWAP7 SWAP4 SWAP6 POP POP POP POP PUSH1 0x40 DUP3 ADD CALLDATALOAD SWAP2 PUSH1 0x60 ADD CALLDATALOAD SWAP1 JUMP INVALID LOG2 PUSH5 0x6970667358 0x22 SLT KECCAK256 SELFBALANCE 0xED 0x2B 0xC3 PUSH7 0x28AA08406D529A STATICCALL SWAP3 SIGNEXTEND SWAP7 MOD 0xE9 JUMP PUSH3 0x951335 PUSH29 0x393828D6B100F50F64736F6C634300080D003300000000000000000000 "
				},
				"gasEstimates": {
					"creation": {
						"codeDepositCost": "156000",
						"executionCost": "46529",
						"totalCost": "202529"
					},
					"external": {
						"paused()": "2259",
						"splitSignature(bytes)": "infinite",
						"verify(bytes,address,uint256,uint256)": "infinite"
					}
				},
				"methodIdentifiers": {
					"paused()": "5c975abb",
					"splitSignature(bytes)": "a7bb5803",
					"verify(bytes,address,uint256,uint256)": "e49dce66"
				}
			},
			"userdoc": {
				"kind": "user",
				"methods": {},
				"version": 1
			}
		}
	}
}