{
	"launchpad/contracts/launchpadChild.sol": {
		"LaunchpadChild": {
			"abi": [
				{
					"inputs": [
						{
							"internalType": "address",
							"name": "_token",
							"type": "address"
						},
						{
							"internalType": "string",
							"name": "_description",
							"type": "string"
						},
						{
							"internalType": "string",
							"name": "_imageUrl",
							"type": "string"
						},
						{
							"internalType": "uint256[8]",
							"name": "_saleInputs",
							"type": "uint256[8]"
						},
						{
							"internalType": "bool",
							"name": "_whitelistEnabled",
							"type": "bool"
						},
						{
							"internalType": "uint256",
							"name": "_wlStartTime",
							"type": "uint256"
						},
						{
							"internalType": "uint256",
							"name": "_liquidityLockDuration",
							"type": "uint256"
						},
						{
							"internalType": "address",
							"name": "_router",
							"type": "address"
						},
						{
							"internalType": "address",
							"name": "_saleInitiator",
							"type": "address"
						}
					],
					"stateMutability": "nonpayable",
					"type": "constructor"
				},
				{
					"anonymous": false,
					"inputs": [
						{
							"indexed": false,
							"internalType": "uint256",
							"name": "amount",
							"type": "uint256"
						}
					],
					"name": "Debug",
					"type": "event"
				},
				{
					"anonymous": false,
					"inputs": [
						{
							"indexed": false,
							"internalType": "address",
							"name": "account",
							"type": "address"
						}
					],
					"name": "Paused",
					"type": "event"
				},
				{
					"anonymous": false,
					"inputs": [
						{
							"indexed": false,
							"internalType": "address",
							"name": "account",
							"type": "address"
						}
					],
					"name": "Unpaused",
					"type": "event"
				},
				{
					"inputs": [],
					"name": "abortSale",
					"outputs": [],
					"stateMutability": "nonpayable",
					"type": "function"
				},
				{
					"inputs": [],
					"name": "buyTokensPublic",
					"outputs": [],
					"stateMutability": "payable",
					"type": "function"
				},
				{
					"inputs": [
						{
							"internalType": "bytes",
							"name": "signature",
							"type": "bytes"
						}
					],
					"name": "buyTokensWhitelist",
					"outputs": [],
					"stateMutability": "payable",
					"type": "function"
				},
				{
					"inputs": [],
					"name": "claimStaleEth",
					"outputs": [],
					"stateMutability": "nonpayable",
					"type": "function"
				},
				{
					"inputs": [],
					"name": "claimTokens",
					"outputs": [],
					"stateMutability": "nonpayable",
					"type": "function"
				},
				{
					"inputs": [],
					"name": "deadAddress",
					"outputs": [
						{
							"internalType": "address",
							"name": "",
							"type": "address"
						}
					],
					"stateMutability": "view",
					"type": "function"
				},
				{
					"inputs": [],
					"name": "description",
					"outputs": [
						{
							"internalType": "string",
							"name": "",
							"type": "string"
						}
					],
					"stateMutability": "view",
					"type": "function"
				},
				{
					"inputs": [],
					"name": "endSaleAllowClaim",
					"outputs": [],
					"stateMutability": "nonpayable",
					"type": "function"
				},
				{
					"inputs": [],
					"name": "endTime",
					"outputs": [
						{
							"internalType": "uint256",
							"name": "",
							"type": "uint256"
						}
					],
					"stateMutability": "view",
					"type": "function"
				},
				{
					"inputs": [],
					"name": "factory",
					"outputs": [
						{
							"internalType": "contract IUniswapV2Factory",
							"name": "",
							"type": "address"
						}
					],
					"stateMutability": "view",
					"type": "function"
				},
				{
					"inputs": [],
					"name": "feeBP",
					"outputs": [
						{
							"internalType": "uint256",
							"name": "",
							"type": "uint256"
						}
					],
					"stateMutability": "view",
					"type": "function"
				},
				{
					"inputs": [],
					"name": "finalizeSale",
					"outputs": [],
					"stateMutability": "nonpayable",
					"type": "function"
				},
				{
					"inputs": [],
					"name": "hardcap",
					"outputs": [
						{
							"internalType": "uint256",
							"name": "",
							"type": "uint256"
						}
					],
					"stateMutability": "view",
					"type": "function"
				},
				{
					"inputs": [],
					"name": "imageUrl",
					"outputs": [
						{
							"internalType": "string",
							"name": "",
							"type": "string"
						}
					],
					"stateMutability": "view",
					"type": "function"
				},
				{
					"inputs": [],
					"name": "liquidityLockDuration",
					"outputs": [
						{
							"internalType": "uint256",
							"name": "",
							"type": "uint256"
						}
					],
					"stateMutability": "view",
					"type": "function"
				},
				{
					"inputs": [],
					"name": "liquidityShareBP",
					"outputs": [
						{
							"internalType": "uint256",
							"name": "",
							"type": "uint256"
						}
					],
					"stateMutability": "view",
					"type": "function"
				},
				{
					"inputs": [],
					"name": "listingTokensPerOneEth",
					"outputs": [
						{
							"internalType": "uint256",
							"name": "",
							"type": "uint256"
						}
					],
					"stateMutability": "view",
					"type": "function"
				},
				{
					"inputs": [],
					"name": "master",
					"outputs": [
						{
							"internalType": "contract ILaunchpadMaster",
							"name": "",
							"type": "address"
						}
					],
					"stateMutability": "view",
					"type": "function"
				},
				{
					"inputs": [],
					"name": "maxBuyPerUser",
					"outputs": [
						{
							"internalType": "uint256",
							"name": "",
							"type": "uint256"
						}
					],
					"stateMutability": "view",
					"type": "function"
				},
				{
					"inputs": [],
					"name": "minBuyPerUser",
					"outputs": [
						{
							"internalType": "uint256",
							"name": "",
							"type": "uint256"
						}
					],
					"stateMutability": "view",
					"type": "function"
				},
				{
					"inputs": [],
					"name": "paused",
					"outputs": [
						{
							"internalType": "bool",
							"name": "",
							"type": "bool"
						}
					],
					"stateMutability": "view",
					"type": "function"
				},
				{
					"inputs": [],
					"name": "recipient",
					"outputs": [
						{
							"internalType": "address payable",
							"name": "",
							"type": "address"
						}
					],
					"stateMutability": "view",
					"type": "function"
				},
				{
					"inputs": [],
					"name": "router",
					"outputs": [
						{
							"internalType": "contract IUniswapV2Router02",
							"name": "",
							"type": "address"
						}
					],
					"stateMutability": "view",
					"type": "function"
				},
				{
					"inputs": [],
					"name": "saleAborted",
					"outputs": [
						{
							"internalType": "bool",
							"name": "",
							"type": "bool"
						}
					],
					"stateMutability": "view",
					"type": "function"
				},
				{
					"inputs": [],
					"name": "saleEnded",
					"outputs": [
						{
							"internalType": "bool",
							"name": "",
							"type": "bool"
						}
					],
					"stateMutability": "view",
					"type": "function"
				},
				{
					"inputs": [],
					"name": "saleFinalized",
					"outputs": [
						{
							"internalType": "bool",
							"name": "",
							"type": "bool"
						}
					],
					"stateMutability": "view",
					"type": "function"
				},
				{
					"inputs": [],
					"name": "saleId",
					"outputs": [
						{
							"internalType": "uint256",
							"name": "",
							"type": "uint256"
						}
					],
					"stateMutability": "view",
					"type": "function"
				},
				{
					"inputs": [],
					"name": "saleInitiator",
					"outputs": [
						{
							"internalType": "address payable",
							"name": "",
							"type": "address"
						}
					],
					"stateMutability": "view",
					"type": "function"
				},
				{
					"inputs": [],
					"name": "saleTokensPerOneEth",
					"outputs": [
						{
							"internalType": "uint256",
							"name": "",
							"type": "uint256"
						}
					],
					"stateMutability": "view",
					"type": "function"
				},
				{
					"inputs": [],
					"name": "signer",
					"outputs": [
						{
							"internalType": "address",
							"name": "",
							"type": "address"
						}
					],
					"stateMutability": "view",
					"type": "function"
				},
				{
					"inputs": [],
					"name": "softcap",
					"outputs": [
						{
							"internalType": "uint256",
							"name": "",
							"type": "uint256"
						}
					],
					"stateMutability": "view",
					"type": "function"
				},
				{
					"inputs": [
						{
							"internalType": "bytes",
							"name": "sig",
							"type": "bytes"
						}
					],
					"name": "splitSignature",
					"outputs": [
						{
							"internalType": "uint8",
							"name": "",
							"type": "uint8"
						},
						{
							"internalType": "bytes32",
							"name": "",
							"type": "bytes32"
						},
						{
							"internalType": "bytes32",
							"name": "",
							"type": "bytes32"
						}
					],
					"stateMutability": "pure",
					"type": "function"
				},
				{
					"inputs": [],
					"name": "startTime",
					"outputs": [
						{
							"internalType": "uint256",
							"name": "",
							"type": "uint256"
						}
					],
					"stateMutability": "view",
					"type": "function"
				},
				{
					"inputs": [],
					"name": "teamVestDuration",
					"outputs": [
						{
							"internalType": "uint256",
							"name": "",
							"type": "uint256"
						}
					],
					"stateMutability": "view",
					"type": "function"
				},
				{
					"inputs": [],
					"name": "teamVestEnabled",
					"outputs": [
						{
							"internalType": "bool",
							"name": "",
							"type": "bool"
						}
					],
					"stateMutability": "view",
					"type": "function"
				},
				{
					"inputs": [],
					"name": "token",
					"outputs": [
						{
							"internalType": "contract IERC20",
							"name": "",
							"type": "address"
						}
					],
					"stateMutability": "view",
					"type": "function"
				},
				{
					"inputs": [],
					"name": "tokenAmountForLiquidity",
					"outputs": [
						{
							"internalType": "uint256",
							"name": "",
							"type": "uint256"
						}
					],
					"stateMutability": "view",
					"type": "function"
				},
				{
					"inputs": [],
					"name": "tokenAmountForSale",
					"outputs": [
						{
							"internalType": "uint256",
							"name": "",
							"type": "uint256"
						}
					],
					"stateMutability": "view",
					"type": "function"
				},
				{
					"inputs": [],
					"name": "tokenTotalAmount",
					"outputs": [
						{
							"internalType": "uint256",
							"name": "",
							"type": "uint256"
						}
					],
					"stateMutability": "view",
					"type": "function"
				},
				{
					"inputs": [],
					"name": "totalBuyEth",
					"outputs": [
						{
							"internalType": "uint256",
							"name": "",
							"type": "uint256"
						}
					],
					"stateMutability": "view",
					"type": "function"
				},
				{
					"inputs": [],
					"name": "totalBuyTokens",
					"outputs": [
						{
							"internalType": "uint256",
							"name": "",
							"type": "uint256"
						}
					],
					"stateMutability": "view",
					"type": "function"
				},
				{
					"inputs": [
						{
							"internalType": "address",
							"name": "",
							"type": "address"
						}
					],
					"name": "userBuyAmount",
					"outputs": [
						{
							"internalType": "uint256",
							"name": "",
							"type": "uint256"
						}
					],
					"stateMutability": "view",
					"type": "function"
				},
				{
					"inputs": [],
					"name": "userVestDuration",
					"outputs": [
						{
							"internalType": "uint256",
							"name": "",
							"type": "uint256"
						}
					],
					"stateMutability": "view",
					"type": "function"
				},
				{
					"inputs": [],
					"name": "userVestEnabled",
					"outputs": [
						{
							"internalType": "bool",
							"name": "",
							"type": "bool"
						}
					],
					"stateMutability": "view",
					"type": "function"
				},
				{
					"inputs": [
						{
							"internalType": "address",
							"name": "",
							"type": "address"
						}
					],
					"name": "usersVestingWallets",
					"outputs": [
						{
							"internalType": "address",
							"name": "",
							"type": "address"
						}
					],
					"stateMutability": "view",
					"type": "function"
				},
				{
					"inputs": [
						{
							"internalType": "bytes",
							"name": "signature",
							"type": "bytes"
						},
						{
							"internalType": "address",
							"name": "_target",
							"type": "address"
						},
						{
							"internalType": "uint256",
							"name": "_saleId",
							"type": "uint256"
						},
						{
							"internalType": "uint256",
							"name": "_chainId",
							"type": "uint256"
						}
					],
					"name": "verify",
					"outputs": [
						{
							"internalType": "bool",
							"name": "",
							"type": "bool"
						}
					],
					"stateMutability": "view",
					"type": "function"
				},
				{
					"inputs": [],
					"name": "whitelistEnabled",
					"outputs": [
						{
							"internalType": "bool",
							"name": "",
							"type": "bool"
						}
					],
					"stateMutability": "view",
					"type": "function"
				},
				{
					"inputs": [],
					"name": "wlStartTime",
					"outputs": [
						{
							"internalType": "uint256",
							"name": "",
							"type": "uint256"
						}
					],
					"stateMutability": "view",
					"type": "function"
				}
			],
			"devdoc": {
				"kind": "dev",
				"methods": {
					"paused()": {
						"details": "Returns true if the contract is paused, and false otherwise."
					}
				},
				"version": 1
			},
			"evm": {
				"assembly": "    /* \"launchpad/contracts/launchpadChild.sol\":422:12433  contract LaunchpadChild is ReentrancyGuard, Pausable {... */\n  mstore(0x40, 0x80)\n    /* \"launchpad/contracts/launchpadChild.sol\":2021:2092  address public deadAddress = 0x000000000000000000000000000000000000dEaD */\n  0x13\n  dup1\n  sload\n  not(sub(shl(0xb8, 0x01), 0x01000000))\n  and\n  0xdead000000\n  or\n  swap1\n  sstore\n    /* \"launchpad/contracts/launchpadChild.sol\":3427:5963  constructor(... */\n  callvalue\n  dup1\n  iszero\n  tag_1\n  jumpi\n  0x00\n  dup1\n  revert\ntag_1:\n  pop\n  mload(0x40)\n  sub(codesize, bytecodeSize)\n  dup1\n  bytecodeSize\n  dup4\n  codecopy\n  dup2\n  add\n  0x40\n  dup2\n  swap1\n  mstore\n  tag_2\n  swap2\n  tag_3\n  jump\t// in\ntag_2:\n    /* \"@openzeppelin/contracts/security/ReentrancyGuard.sol\":1701:1702  1 */\n  0x01\n    /* \"@openzeppelin/contracts/security/ReentrancyGuard.sol\":1806:1813  _status */\n  0x00\n    /* \"@openzeppelin/contracts/security/ReentrancyGuard.sol\":1806:1828  _status = _NOT_ENTERED */\n  dup2\n  swap1\n  sstore\n    /* \"@openzeppelin/contracts/security/Pausable.sol\":981:996  _paused = false */\n  dup1\n  sload\n  not(0xff)\n  and\n  swap1\n  sstore\n    /* \"launchpad/contracts/launchpadChild.sol\":4065:4070  token */\n  0x18\n    /* \"launchpad/contracts/launchpadChild.sol\":4065:4087  token = IERC20(_token) */\n  dup1\n  sload\n  not(sub(shl(0xa0, 0x01), 0x01))\n  and\n  sub(shl(0xa0, 0x01), 0x01)\n  dup12\n  and\n  or\n  swap1\n  sstore\n    /* \"launchpad/contracts/launchpadChild.sol\":4093:4119  description = _description */\n  dup8\n  mload\n  tag_10\n  swap1\n    /* \"launchpad/contracts/launchpadChild.sol\":4093:4104  description */\n  0x1a\n  swap1\n    /* \"launchpad/contracts/launchpadChild.sol\":4093:4119  description = _description */\n  0x20\n  dup12\n  add\n  swap1\n  tag_11\n  jump\t// in\ntag_10:\n  pop\n    /* \"launchpad/contracts/launchpadChild.sol\":4125:4145  imageUrl = _imageUrl */\n  dup7\n  mload\n  tag_12\n  swap1\n    /* \"launchpad/contracts/launchpadChild.sol\":4125:4133  imageUrl */\n  0x1b\n  swap1\n    /* \"launchpad/contracts/launchpadChild.sol\":4125:4145  imageUrl = _imageUrl */\n  0x20\n  dup11\n  add\n  swap1\n  tag_11\n  jump\t// in\ntag_12:\n  pop\n    /* \"launchpad/contracts/launchpadChild.sol\":4194:4208  _saleInputs[0] */\n  dup6\n  mload\n    /* \"launchpad/contracts/launchpadChild.sol\":4175:4191  tokenTotalAmount */\n  0x02\n    /* \"launchpad/contracts/launchpadChild.sol\":4175:4208  tokenTotalAmount = _saleInputs[0] */\n  sstore\n    /* \"launchpad/contracts/launchpadChild.sol\":4194:4208  _saleInputs[0] */\n  0x20\n    /* \"launchpad/contracts/launchpadChild.sol\":4239:4253  _saleInputs[1] */\n  dup7\n  add\n  mload\n    /* \"launchpad/contracts/launchpadChild.sol\":4214:4236  listingTokensPerOneEth */\n  0x03\n    /* \"launchpad/contracts/launchpadChild.sol\":4214:4253  listingTokensPerOneEth = _saleInputs[1] */\n  sstore\n    /* \"launchpad/contracts/launchpadChild.sol\":4278:4292  _saleInputs[2] */\n  0x40\n  dup7\n  add\n  mload\n    /* \"launchpad/contracts/launchpadChild.sol\":4259:4275  liquidityShareBP */\n  0x04\n    /* \"launchpad/contracts/launchpadChild.sol\":4259:4292  liquidityShareBP = _saleInputs[2] */\n  sstore\n    /* \"launchpad/contracts/launchpadChild.sol\":4308:4322  _saleInputs[3] */\n  0x60\n  dup7\n  add\n  mload\n    /* \"launchpad/contracts/launchpadChild.sol\":4298:4305  hardcap */\n  0x05\n    /* \"launchpad/contracts/launchpadChild.sol\":4298:4322  hardcap = _saleInputs[3] */\n  dup2\n  swap1\n  sstore\n    /* \"launchpad/contracts/launchpadChild.sol\":4340:4354  _saleInputs[4] */\n  0x80\n  dup8\n  add\n  mload\n    /* \"launchpad/contracts/launchpadChild.sol\":4328:4337  startTime */\n  0x08\n    /* \"launchpad/contracts/launchpadChild.sol\":4328:4354  startTime = _saleInputs[4] */\n  sstore\n    /* \"launchpad/contracts/launchpadChild.sol\":4370:4384  _saleInputs[5] */\n  0xa0\n  dup8\n  add\n  mload\n    /* \"launchpad/contracts/launchpadChild.sol\":4360:4367  endTime */\n  0x09\n    /* \"launchpad/contracts/launchpadChild.sol\":4360:4384  endTime = _saleInputs[5] */\n  sstore\n    /* \"launchpad/contracts/launchpadChild.sol\":4406:4420  _saleInputs[6] */\n  0xc0\n  dup8\n  add\n  mload\n    /* \"launchpad/contracts/launchpadChild.sol\":4390:4403  maxBuyPerUser */\n  0x0f\n    /* \"launchpad/contracts/launchpadChild.sol\":4390:4420  maxBuyPerUser = _saleInputs[6] */\n  sstore\n    /* \"launchpad/contracts/launchpadChild.sol\":4442:4456  _saleInputs[7] */\n  0xe0\n  dup8\n  add\n  mload\n    /* \"launchpad/contracts/launchpadChild.sol\":4426:4439  minBuyPerUser */\n  0x10\n    /* \"launchpad/contracts/launchpadChild.sol\":4426:4456  minBuyPerUser = _saleInputs[7] */\n  dup2\n  swap1\n  sstore\n  lt\n    /* \"launchpad/contracts/launchpadChild.sol\":4462:4537  require(minBuyPerUser < hardcap, \"min buy per user is higher than hardcap\") */\n  tag_30\n  jumpi\n  mload(0x40)\n  shl(0xe5, 0x461bcd)\n  dup2\n  mstore\n    /* \"#utility.yul\":3208:3210   */\n  0x20\n    /* \"launchpad/contracts/launchpadChild.sol\":4462:4537  require(minBuyPerUser < hardcap, \"min buy per user is higher than hardcap\") */\n  0x04\n  dup3\n  add\n    /* \"#utility.yul\":3190:3211   */\n  mstore\n    /* \"#utility.yul\":3247:3249   */\n  0x27\n    /* \"#utility.yul\":3227:3245   */\n  0x24\n  dup3\n  add\n    /* \"#utility.yul\":3220:3250   */\n  mstore\n    /* \"#utility.yul\":3286:3320   */\n  0x6d696e2062757920706572207573657220697320686967686572207468616e20\n    /* \"#utility.yul\":3266:3284   */\n  0x44\n  dup3\n  add\n    /* \"#utility.yul\":3259:3321   */\n  mstore\n  shl(0xcc, 0x06861726463617)\n    /* \"#utility.yul\":3337:3355   */\n  0x64\n  dup3\n  add\n    /* \"#utility.yul\":3330:3367   */\n  mstore\n    /* \"#utility.yul\":3384:3403   */\n  0x84\n  add\n    /* \"launchpad/contracts/launchpadChild.sol\":4462:4537  require(minBuyPerUser < hardcap, \"min buy per user is higher than hardcap\") */\ntag_31:\n  mload(0x40)\n  dup1\n  swap2\n  sub\n  swap1\n  revert\ntag_30:\n    /* \"launchpad/contracts/launchpadChild.sol\":4544:4550  master */\n  0x15\n    /* \"launchpad/contracts/launchpadChild.sol\":4544:4581  master = ILaunchpadMaster(msg.sender) */\n  dup1\n  sload\n  not(sub(shl(0xa0, 0x01), 0x01))\n  and\n    /* \"launchpad/contracts/launchpadChild.sol\":4570:4580  msg.sender */\n  caller\n    /* \"launchpad/contracts/launchpadChild.sol\":4544:4581  master = ILaunchpadMaster(msg.sender) */\n  swap1\n  dup2\n  or\n  swap1\n  swap2\n  sstore\n    /* \"launchpad/contracts/launchpadChild.sol\":4595:4610  master.feesBP() */\n  0x40\n  dup1\n  mload\n  shl(0xe0, 0x73dc1349)\n  dup2\n  mstore\n  swap1\n  mload\n    /* \"launchpad/contracts/launchpadChild.sol\":4595:4608  master.feesBP */\n  0x73dc1349\n  swap2\n    /* \"launchpad/contracts/launchpadChild.sol\":4595:4610  master.feesBP() */\n  0x04\n  dup1\n  dup3\n  add\n  swap3\n  0x20\n  swap3\n  swap1\n  swap2\n  swap1\n  dup3\n  swap1\n  sub\n  add\n  dup2\n    /* \"launchpad/contracts/launchpadChild.sol\":4570:4580  msg.sender */\n  dup7\n    /* \"launchpad/contracts/launchpadChild.sol\":4595:4610  master.feesBP() */\n  dup1\n  extcodesize\n  iszero\n  dup1\n  iszero\n  tag_33\n  jumpi\n  0x00\n  dup1\n  revert\ntag_33:\n  pop\n  gas\n  staticcall\n  iszero\n  dup1\n  iszero\n  tag_35\n  jumpi\n  returndatasize\n  0x00\n  dup1\n  returndatacopy\n  revert(0x00, returndatasize)\ntag_35:\n  pop\n  pop\n  pop\n  pop\n  mload(0x40)\n  returndatasize\n  not(0x1f)\n  0x1f\n  dup3\n  add\n  and\n  dup3\n  add\n  dup1\n  0x40\n  mstore\n  pop\n  dup2\n  add\n  swap1\n  tag_36\n  swap2\n  swap1\n  tag_37\n  jump\t// in\ntag_36:\n    /* \"launchpad/contracts/launchpadChild.sol\":4587:4592  feeBP */\n  0x07\n    /* \"launchpad/contracts/launchpadChild.sol\":4587:4610  feeBP = master.feesBP() */\n  sstore\n    /* \"launchpad/contracts/launchpadChild.sol\":4713:4720  hardcap */\n  sload(0x05)\n    /* \"launchpad/contracts/launchpadChild.sol\":4676:4692  liquidityShareBP */\n  sload(0x04)\n    /* \"launchpad/contracts/launchpadChild.sol\":4697:4703  10_000 */\n  0x2710\n  swap1\n    /* \"launchpad/contracts/launchpadChild.sol\":4667:4692  10_000 - liquidityShareBP */\n  tag_38\n  swap1\n    /* \"launchpad/contracts/launchpadChild.sol\":4697:4703  10_000 */\n  dup3\n    /* \"launchpad/contracts/launchpadChild.sol\":4667:4692  10_000 - liquidityShareBP */\n  tag_39\n  jump\t// in\ntag_38:\n    /* \"launchpad/contracts/launchpadChild.sol\":4647:4663  tokenTotalAmount */\n  sload(0x02)\n    /* \"launchpad/contracts/launchpadChild.sol\":4647:4693  tokenTotalAmount * (10_000 - liquidityShareBP) */\n  tag_40\n  swap2\n  swap1\n  tag_41\n  jump\t// in\ntag_40:\n    /* \"launchpad/contracts/launchpadChild.sol\":4646:4703  (tokenTotalAmount * (10_000 - liquidityShareBP)) / 10_000 */\n  tag_42\n  swap2\n  swap1\n  tag_43\n  jump\t// in\ntag_42:\n    /* \"launchpad/contracts/launchpadChild.sol\":4645:4720  ((tokenTotalAmount * (10_000 - liquidityShareBP)) / 10_000) /... */\n  tag_44\n  swap2\n  swap1\n  tag_43\n  jump\t// in\ntag_44:\n    /* \"launchpad/contracts/launchpadChild.sol\":4617:4636  saleTokensPerOneEth */\n  0x0b\n    /* \"launchpad/contracts/launchpadChild.sol\":4617:4720  saleTokensPerOneEth =... */\n  sstore\n    /* \"launchpad/contracts/launchpadChild.sol\":4737:4744  hardcap */\n  sload(0x05)\n    /* \"launchpad/contracts/launchpadChild.sol\":4737:4748  hardcap / 2 */\n  tag_45\n  swap1\n    /* \"launchpad/contracts/launchpadChild.sol\":4747:4748  2 */\n  0x02\n  swap1\n    /* \"launchpad/contracts/launchpadChild.sol\":4737:4748  hardcap / 2 */\n  tag_43\n  jump\t// in\ntag_45:\n    /* \"launchpad/contracts/launchpadChild.sol\":4727:4734  softcap */\n  0x06\n    /* \"launchpad/contracts/launchpadChild.sol\":4727:4748  softcap = hardcap / 2 */\n  sstore\n    /* \"launchpad/contracts/launchpadChild.sol\":4800:4816  liquidityShareBP */\n  sload(0x04)\n    /* \"launchpad/contracts/launchpadChild.sol\":4781:4797  tokenTotalAmount */\n  sload(0x02)\n    /* \"launchpad/contracts/launchpadChild.sol\":4820:4826  10_000 */\n  0x2710\n  swap2\n    /* \"launchpad/contracts/launchpadChild.sol\":4781:4816  tokenTotalAmount * liquidityShareBP */\n  tag_46\n  swap2\n  tag_41\n  jump\t// in\ntag_46:\n    /* \"launchpad/contracts/launchpadChild.sol\":4780:4826  (tokenTotalAmount * liquidityShareBP) / 10_000 */\n  tag_47\n  swap2\n  swap1\n  tag_43\n  jump\t// in\ntag_47:\n    /* \"launchpad/contracts/launchpadChild.sol\":4754:4777  tokenAmountForLiquidity */\n  0x12\n    /* \"launchpad/contracts/launchpadChild.sol\":4754:4826  tokenAmountForLiquidity = (tokenTotalAmount * liquidityShareBP) / 10_000 */\n  dup2\n  swap1\n  sstore\n    /* \"launchpad/contracts/launchpadChild.sol\":4853:4869  tokenTotalAmount */\n  sload(0x02)\n    /* \"launchpad/contracts/launchpadChild.sol\":4853:4895  tokenTotalAmount - tokenAmountForLiquidity */\n  tag_48\n  swap2\n    /* \"launchpad/contracts/launchpadChild.sol\":4754:4826  tokenAmountForLiquidity = (tokenTotalAmount * liquidityShareBP) / 10_000 */\n  swap1\n    /* \"launchpad/contracts/launchpadChild.sol\":4853:4895  tokenTotalAmount - tokenAmountForLiquidity */\n  tag_39\n  jump\t// in\ntag_48:\n    /* \"launchpad/contracts/launchpadChild.sol\":4832:4850  tokenAmountForSale */\n  0x11\n    /* \"launchpad/contracts/launchpadChild.sol\":4832:4895  tokenAmountForSale = tokenTotalAmount - tokenAmountForLiquidity */\n  sstore\n    /* \"launchpad/contracts/launchpadChild.sol\":5147:5152  feeBP */\n  sload(0x07)\n    /* \"launchpad/contracts/launchpadChild.sol\":5157:5163  10_000 */\n  0x2710\n  swap1\n    /* \"launchpad/contracts/launchpadChild.sol\":5138:5152  10_000 - feeBP */\n  tag_49\n  swap1\n    /* \"launchpad/contracts/launchpadChild.sol\":5157:5163  10_000 */\n  dup3\n    /* \"launchpad/contracts/launchpadChild.sol\":5138:5152  10_000 - feeBP */\n  tag_39\n  jump\t// in\ntag_49:\n    /* \"launchpad/contracts/launchpadChild.sol\":5127:5134  hardcap */\n  sload(0x05)\n    /* \"launchpad/contracts/launchpadChild.sol\":5127:5153  hardcap * (10_000 - feeBP) */\n  tag_50\n  swap2\n  swap1\n  tag_41\n  jump\t// in\ntag_50:\n    /* \"launchpad/contracts/launchpadChild.sol\":5126:5163  (hardcap * (10_000 - feeBP)) / 10_000 */\n  tag_51\n  swap2\n  swap1\n  tag_43\n  jump\t// in\ntag_51:\n    /* \"launchpad/contracts/launchpadChild.sol\":5092:5114  listingTokensPerOneEth */\n  sload(0x03)\n    /* \"launchpad/contracts/launchpadChild.sol\":5066:5089  tokenAmountForLiquidity */\n  sload(0x12)\n    /* \"launchpad/contracts/launchpadChild.sol\":5066:5114  tokenAmountForLiquidity / listingTokensPerOneEth */\n  tag_52\n  swap2\n  swap1\n  tag_43\n  jump\t// in\ntag_52:\n    /* \"launchpad/contracts/launchpadChild.sol\":5066:5164  tokenAmountForLiquidity / listingTokensPerOneEth <... */\n  lt\n    /* \"launchpad/contracts/launchpadChild.sol\":5051:5260  require(... */\n  tag_53\n  jumpi\n  mload(0x40)\n  shl(0xe5, 0x461bcd)\n  dup2\n  mstore\n    /* \"#utility.yul\":3616:3618   */\n  0x20\n    /* \"launchpad/contracts/launchpadChild.sol\":5051:5260  require(... */\n  0x04\n  dup3\n  add\n    /* \"#utility.yul\":3598:3619   */\n  mstore\n    /* \"#utility.yul\":3655:3657   */\n  0x50\n    /* \"#utility.yul\":3635:3653   */\n  0x24\n  dup3\n  add\n    /* \"#utility.yul\":3628:3658   */\n  mstore\n    /* \"#utility.yul\":3694:3728   */\n  0x6e6f7420656e6f7567682045544820666f72206c69717569646974792c20696e\n    /* \"#utility.yul\":3674:3692   */\n  0x44\n  dup3\n  add\n    /* \"#utility.yul\":3667:3729   */\n  mstore\n    /* \"#utility.yul\":3765:3799   */\n  0x637265617365206c697374696e67207072696365206f72206465637265617365\n    /* \"#utility.yul\":3745:3763   */\n  0x64\n  dup3\n  add\n    /* \"#utility.yul\":3738:3800   */\n  mstore\n  shl(0x80, 0x206c6971756964697479207368617265)\n    /* \"#utility.yul\":3816:3835   */\n  0x84\n  dup3\n  add\n    /* \"#utility.yul\":3809:3856   */\n  mstore\n    /* \"#utility.yul\":3873:3892   */\n  0xa4\n  add\n    /* \"launchpad/contracts/launchpadChild.sol\":5051:5260  require(... */\n  tag_31\n    /* \"#utility.yul\":3414:3898   */\n  jump\n    /* \"launchpad/contracts/launchpadChild.sol\":5051:5260  require(... */\ntag_53:\n    /* \"launchpad/contracts/launchpadChild.sol\":5267:5288  liquidityLockDuration */\n  0x0c\n    /* \"launchpad/contracts/launchpadChild.sol\":5267:5313  liquidityLockDuration = _liquidityLockDuration */\n  dup4\n  swap1\n  sstore\n    /* \"launchpad/contracts/launchpadChild.sol\":5534:5550  whitelistEnabled */\n  0x13\n    /* \"launchpad/contracts/launchpadChild.sol\":5534:5570  whitelistEnabled = _whitelistEnabled */\n  dup1\n  sload\n  not(0xff0000)\n  and\n  0x010000\n  dup8\n  iszero\n  iszero\n  mul\n  or\n  swap1\n  sstore\n    /* \"launchpad/contracts/launchpadChild.sol\":5576:5587  wlStartTime */\n  0x0a\n    /* \"launchpad/contracts/launchpadChild.sol\":5576:5602  wlStartTime = _wlStartTime */\n  dup5\n  swap1\n  sstore\n    /* \"launchpad/contracts/launchpadChild.sol\":5630:5639  startTime */\n  sload(0x08)\n    /* \"launchpad/contracts/launchpadChild.sol\":5616:5639  wlStartTime < startTime */\n  dup5\n  lt\n    /* \"launchpad/contracts/launchpadChild.sol\":5608:5640  require(wlStartTime < startTime) */\n  tag_56\n  jumpi\n  0x00\n  dup1\n  revert\ntag_56:\n    /* \"launchpad/contracts/launchpadChild.sol\":5656:5662  master */\n  0x15\n  0x00\n  swap1\n  sload\n  swap1\n  0x0100\n  exp\n  swap1\n  div\n  sub(shl(0xa0, 0x01), 0x01)\n  and\n  sub(shl(0xa0, 0x01), 0x01)\n    /* \"launchpad/contracts/launchpadChild.sol\":5656:5676  master.currentSaleId */\n  and\n  0x2e849894\n    /* \"launchpad/contracts/launchpadChild.sol\":5656:5678  master.currentSaleId() */\n  mload(0x40)\n  dup2\n  0xffffffff\n  and\n  0xe0\n  shl\n  dup2\n  mstore\n  0x04\n  add\n  0x20\n  mload(0x40)\n  dup1\n  dup4\n  sub\n  dup2\n  dup7\n  dup1\n  extcodesize\n  iszero\n  dup1\n  iszero\n  tag_57\n  jumpi\n  0x00\n  dup1\n  revert\ntag_57:\n  pop\n  gas\n  staticcall\n  iszero\n  dup1\n  iszero\n  tag_59\n  jumpi\n  returndatasize\n  0x00\n  dup1\n  returndatacopy\n  revert(0x00, returndatasize)\ntag_59:\n  pop\n  pop\n  pop\n  pop\n  mload(0x40)\n  returndatasize\n  not(0x1f)\n  0x1f\n  dup3\n  add\n  and\n  dup3\n  add\n  dup1\n  0x40\n  mstore\n  pop\n  dup2\n  add\n  swap1\n  tag_60\n  swap2\n  swap1\n  tag_37\n  jump\t// in\ntag_60:\n    /* \"launchpad/contracts/launchpadChild.sol\":5647:5653  saleId */\n  0x19\n    /* \"launchpad/contracts/launchpadChild.sol\":5647:5678  saleId = master.currentSaleId() */\n  sstore\n    /* \"launchpad/contracts/launchpadChild.sol\":5689:5705  whitelistEnabled */\n  sload(0x13)\n  0x010000\n  swap1\n  div\n  0xff\n  and\n    /* \"launchpad/contracts/launchpadChild.sol\":5685:5758  if (whitelistEnabled) {... */\n  iszero\n  tag_61\n  jumpi\n    /* \"launchpad/contracts/launchpadChild.sol\":5724:5730  master */\n  sload(0x15)\n    /* \"launchpad/contracts/launchpadChild.sol\":5744:5750  saleId */\n  sload(0x19)\n    /* \"launchpad/contracts/launchpadChild.sol\":5724:5751  master.saleToSigner(saleId) */\n  mload(0x40)\n  shl(0xe4, 0x0b1d2ef9)\n  dup2\n  mstore\n  sub(shl(0xa0, 0x01), 0x01)\n    /* \"launchpad/contracts/launchpadChild.sol\":5724:5730  master */\n  swap1\n  swap3\n  and\n  swap2\n    /* \"launchpad/contracts/launchpadChild.sol\":5724:5743  master.saleToSigner */\n  0xb1d2ef90\n  swap2\n    /* \"launchpad/contracts/launchpadChild.sol\":5724:5751  master.saleToSigner(saleId) */\n  tag_62\n  swap2\n  0x04\n  add\n    /* \"#utility.yul\":4049:4074   */\n  swap1\n  dup2\n  mstore\n    /* \"#utility.yul\":4037:4039   */\n  0x20\n    /* \"#utility.yul\":4022:4040   */\n  add\n  swap1\n    /* \"#utility.yul\":3903:4080   */\n  jump\n    /* \"launchpad/contracts/launchpadChild.sol\":5724:5751  master.saleToSigner(saleId) */\ntag_62:\n  0x20\n  mload(0x40)\n  dup1\n  dup4\n  sub\n  dup2\n  dup7\n  dup1\n  extcodesize\n  iszero\n  dup1\n  iszero\n  tag_64\n  jumpi\n  0x00\n  dup1\n  revert\ntag_64:\n  pop\n  gas\n  staticcall\n  iszero\n  dup1\n  iszero\n  tag_66\n  jumpi\n  returndatasize\n  0x00\n  dup1\n  returndatacopy\n  revert(0x00, returndatasize)\ntag_66:\n  pop\n  pop\n  pop\n  pop\n  mload(0x40)\n  returndatasize\n  not(0x1f)\n  0x1f\n  dup3\n  add\n  and\n  dup3\n  add\n  dup1\n  0x40\n  mstore\n  pop\n  dup2\n  add\n  swap1\n  tag_67\n  swap2\n  swap1\n  tag_68\n  jump\t// in\ntag_67:\n    /* \"launchpad/contracts/launchpadChild.sol\":5715:5721  signer */\n  0x14\n    /* \"launchpad/contracts/launchpadChild.sol\":5715:5751  signer = master.saleToSigner(saleId) */\n  dup1\n  sload\n  not(sub(shl(0xa0, 0x01), 0x01))\n  and\n  sub(shl(0xa0, 0x01), 0x01)\n  swap3\n  swap1\n  swap3\n  and\n  swap2\n  swap1\n  swap2\n  or\n  swap1\n  sstore\n    /* \"launchpad/contracts/launchpadChild.sol\":5685:5758  if (whitelistEnabled) {... */\ntag_61:\n    /* \"launchpad/contracts/launchpadChild.sol\":5784:5790  master */\n  0x15\n  0x00\n  swap1\n  sload\n  swap1\n  0x0100\n  exp\n  swap1\n  div\n  sub(shl(0xa0, 0x01), 0x01)\n  and\n  sub(shl(0xa0, 0x01), 0x01)\n    /* \"launchpad/contracts/launchpadChild.sol\":5784:5801  master.feesWallet */\n  and\n  0x7e44d2cc\n    /* \"launchpad/contracts/launchpadChild.sol\":5784:5803  master.feesWallet() */\n  mload(0x40)\n  dup2\n  0xffffffff\n  and\n  0xe0\n  shl\n  dup2\n  mstore\n  0x04\n  add\n  0x20\n  mload(0x40)\n  dup1\n  dup4\n  sub\n  dup2\n  dup7\n  dup1\n  extcodesize\n  iszero\n  dup1\n  iszero\n  tag_69\n  jumpi\n  0x00\n  dup1\n  revert\ntag_69:\n  pop\n  gas\n  staticcall\n  iszero\n  dup1\n  iszero\n  tag_71\n  jumpi\n  returndatasize\n  0x00\n  dup1\n  returndatacopy\n  revert(0x00, returndatasize)\ntag_71:\n  pop\n  pop\n  pop\n  pop\n  mload(0x40)\n  returndatasize\n  not(0x1f)\n  0x1f\n  dup3\n  add\n  and\n  dup3\n  add\n  dup1\n  0x40\n  mstore\n  pop\n  dup2\n  add\n  swap1\n  tag_72\n  swap2\n  swap1\n  tag_68\n  jump\t// in\ntag_72:\n    /* \"launchpad/contracts/launchpadChild.sol\":5764:5773  recipient */\n  0x1c\n    /* \"launchpad/contracts/launchpadChild.sol\":5764:5804  recipient = payable(master.feesWallet()) */\n  dup1\n  sload\n  not(sub(shl(0xa0, 0x01), 0x01))\n  swap1\n  dup2\n  and\n  sub(shl(0xa0, 0x01), 0x01)\n  swap4\n  dup5\n  and\n  or\n  swap1\n  swap2\n  sstore\n    /* \"launchpad/contracts/launchpadChild.sol\":5810:5823  saleInitiator */\n  0x1d\n    /* \"launchpad/contracts/launchpadChild.sol\":5810:5849  saleInitiator = payable(_saleInitiator) */\n  dup1\n  sload\n  dup3\n  and\n  swap4\n  dup4\n  and\n  swap4\n  swap1\n  swap4\n  or\n  swap1\n  swap3\n  sstore\n    /* \"launchpad/contracts/launchpadChild.sol\":5856:5862  router */\n  0x16\n    /* \"launchpad/contracts/launchpadChild.sol\":5856:5892  router = IUniswapV2Router02(_router) */\n  dup1\n  sload\n  swap1\n  swap3\n  and\n  swap3\n  and\n  swap2\n  swap1\n  swap2\n  or\n  swap1\n  sstore\n  pop\n    /* \"launchpad/contracts/launchpadChild.sol\":422:12433  contract LaunchpadChild is ReentrancyGuard, Pausable {... */\n  tag_85\n  swap6\n  pop\n  pop\n  pop\n  pop\n  pop\n  pop\n  jump\ntag_11:\n  dup3\n  dup1\n  sload\n  tag_74\n  swap1\n  tag_75\n  jump\t// in\ntag_74:\n  swap1\n  0x00\n  mstore\n  keccak256(0x00, 0x20)\n  swap1\n  0x1f\n  add\n  0x20\n  swap1\n  div\n  dup2\n  add\n  swap3\n  dup3\n  tag_77\n  jumpi\n  0x00\n  dup6\n  sstore\n  jump(tag_80)\ntag_77:\n  dup3\n  0x1f\n  lt\n  tag_78\n  jumpi\n  dup1\n  mload\n  not(0xff)\n  and\n  dup4\n  dup1\n  add\n  or\n  dup6\n  sstore\n  jump(tag_80)\ntag_78:\n  dup3\n  dup1\n  add\n  0x01\n  add\n  dup6\n  sstore\n  dup3\n  iszero\n  tag_80\n  jumpi\n  swap2\n  dup3\n  add\ntag_79:\n  dup3\n  dup2\n  gt\n  iszero\n  tag_80\n  jumpi\n  dup3\n  mload\n  dup3\n  sstore\n  swap2\n  0x20\n  add\n  swap2\n  swap1\n  0x01\n  add\n  swap1\n  jump(tag_79)\ntag_80:\n  pop\n  tag_81\n  swap3\n  swap2\n  pop\n  tag_82\n  jump\t// in\ntag_81:\n  pop\n  swap1\n  jump\t// out\ntag_82:\ntag_83:\n  dup1\n  dup3\n  gt\n  iszero\n  tag_81\n  jumpi\n  0x00\n  dup2\n  sstore\n  0x01\n  add\n  jump(tag_83)\n    /* \"#utility.yul\":14:191   */\ntag_86:\n    /* \"#utility.yul\":93:106   */\n  dup1\n  mload\n  sub(shl(0xa0, 0x01), 0x01)\n    /* \"#utility.yul\":135:166   */\n  dup2\n  and\n    /* \"#utility.yul\":125:167   */\n  dup2\n  eq\n    /* \"#utility.yul\":115:185   */\n  tag_88\n  jumpi\n    /* \"#utility.yul\":181:182   */\n  0x00\n    /* \"#utility.yul\":178:179   */\n  dup1\n    /* \"#utility.yul\":171:183   */\n  revert\n    /* \"#utility.yul\":115:185   */\ntag_88:\n    /* \"#utility.yul\":14:191   */\n  swap2\n  swap1\n  pop\n  jump\t// out\n    /* \"#utility.yul\":196:360   */\ntag_89:\n    /* \"#utility.yul\":272:285   */\n  dup1\n  mload\n    /* \"#utility.yul\":321:334   */\n  dup1\n  iszero\n    /* \"#utility.yul\":314:335   */\n  iszero\n    /* \"#utility.yul\":304:336   */\n  dup2\n  eq\n    /* \"#utility.yul\":294:354   */\n  tag_88\n  jumpi\n    /* \"#utility.yul\":350:351   */\n  0x00\n    /* \"#utility.yul\":347:348   */\n  dup1\n    /* \"#utility.yul\":340:352   */\n  revert\n    /* \"#utility.yul\":365:1060   */\ntag_92:\n    /* \"#utility.yul\":419:424   */\n  0x00\n    /* \"#utility.yul\":472:475   */\n  dup3\n    /* \"#utility.yul\":465:469   */\n  0x1f\n    /* \"#utility.yul\":457:463   */\n  dup4\n    /* \"#utility.yul\":453:470   */\n  add\n    /* \"#utility.yul\":449:476   */\n  slt\n    /* \"#utility.yul\":439:494   */\n  tag_94\n  jumpi\n    /* \"#utility.yul\":490:491   */\n  0x00\n    /* \"#utility.yul\":487:488   */\n  dup1\n    /* \"#utility.yul\":480:492   */\n  revert\n    /* \"#utility.yul\":439:494   */\ntag_94:\n    /* \"#utility.yul\":513:526   */\n  dup2\n  mload\n  sub(shl(0x40, 0x01), 0x01)\n    /* \"#utility.yul\":538:564   */\n  dup2\n  gt\n    /* \"#utility.yul\":535:587   */\n  iszero\n  tag_96\n  jumpi\n    /* \"#utility.yul\":567:585   */\n  tag_96\n  tag_97\n  jump\t// in\ntag_96:\n    /* \"#utility.yul\":606:610   */\n  0x20\n    /* \"#utility.yul\":634:687   */\n  tag_98\n    /* \"#utility.yul\":677:679   */\n  0x1f\n    /* \"#utility.yul\":658:671   */\n  dup4\n  add\n  not(0x1f)\n    /* \"#utility.yul\":654:681   */\n  and\n    /* \"#utility.yul\":650:686   */\n  dup3\n  add\n    /* \"#utility.yul\":634:687   */\n  tag_99\n  jump\t// in\ntag_98:\n    /* \"#utility.yul\":712:714   */\n  dup3\n    /* \"#utility.yul\":703:710   */\n  dup2\n    /* \"#utility.yul\":696:715   */\n  mstore\n    /* \"#utility.yul\":756:759   */\n  dup6\n    /* \"#utility.yul\":751:753   */\n  dup3\n    /* \"#utility.yul\":746:748   */\n  dup5\n    /* \"#utility.yul\":738:744   */\n  dup8\n    /* \"#utility.yul\":734:749   */\n  add\n    /* \"#utility.yul\":730:754   */\n  add\n    /* \"#utility.yul\":727:760   */\n  gt\n    /* \"#utility.yul\":724:777   */\n  iszero\n  tag_100\n  jumpi\n    /* \"#utility.yul\":773:774   */\n  0x00\n    /* \"#utility.yul\":770:771   */\n  dup1\n    /* \"#utility.yul\":763:775   */\n  revert\n    /* \"#utility.yul\":724:777   */\ntag_100:\n    /* \"#utility.yul\":795:796   */\n  0x00\n    /* \"#utility.yul\":805:939   */\ntag_101:\n    /* \"#utility.yul\":819:821   */\n  dup4\n    /* \"#utility.yul\":816:817   */\n  dup2\n    /* \"#utility.yul\":813:822   */\n  lt\n    /* \"#utility.yul\":805:939   */\n  iszero\n  tag_103\n  jumpi\n    /* \"#utility.yul\":908:922   */\n  dup6\n  dup2\n  add\n    /* \"#utility.yul\":904:927   */\n  dup4\n  add\n    /* \"#utility.yul\":898:928   */\n  mload\n    /* \"#utility.yul\":876:891   */\n  dup3\n  dup3\n  add\n    /* \"#utility.yul\":872:896   */\n  dup5\n  add\n    /* \"#utility.yul\":865:929   */\n  mstore\n    /* \"#utility.yul\":830:840   */\n  dup3\n  add\n    /* \"#utility.yul\":805:939   */\n  jump(tag_101)\ntag_103:\n    /* \"#utility.yul\":957:959   */\n  dup4\n    /* \"#utility.yul\":954:955   */\n  dup2\n    /* \"#utility.yul\":951:960   */\n  gt\n    /* \"#utility.yul\":948:1029   */\n  iszero\n  tag_104\n  jumpi\n    /* \"#utility.yul\":1017:1018   */\n  0x00\n    /* \"#utility.yul\":1012:1014   */\n  dup4\n    /* \"#utility.yul\":1007:1009   */\n  dup6\n    /* \"#utility.yul\":998:1005   */\n  dup5\n    /* \"#utility.yul\":994:1010   */\n  add\n    /* \"#utility.yul\":990:1015   */\n  add\n    /* \"#utility.yul\":983:1019   */\n  mstore\n    /* \"#utility.yul\":948:1029   */\ntag_104:\n  pop\n    /* \"#utility.yul\":1047:1054   */\n  swap6\n    /* \"#utility.yul\":365:1060   */\n  swap5\n  pop\n  pop\n  pop\n  pop\n  pop\n  jump\t// out\n    /* \"#utility.yul\":1065:1273   */\ntag_68:\n    /* \"#utility.yul\":1135:1141   */\n  0x00\n    /* \"#utility.yul\":1188:1190   */\n  0x20\n    /* \"#utility.yul\":1176:1185   */\n  dup3\n    /* \"#utility.yul\":1167:1174   */\n  dup5\n    /* \"#utility.yul\":1163:1186   */\n  sub\n    /* \"#utility.yul\":1159:1191   */\n  slt\n    /* \"#utility.yul\":1156:1208   */\n  iszero\n  tag_106\n  jumpi\n    /* \"#utility.yul\":1204:1205   */\n  0x00\n    /* \"#utility.yul\":1201:1202   */\n  dup1\n    /* \"#utility.yul\":1194:1206   */\n  revert\n    /* \"#utility.yul\":1156:1208   */\ntag_106:\n    /* \"#utility.yul\":1227:1267   */\n  tag_107\n    /* \"#utility.yul\":1257:1266   */\n  dup3\n    /* \"#utility.yul\":1227:1267   */\n  tag_86\n  jump\t// in\ntag_107:\n    /* \"#utility.yul\":1217:1267   */\n  swap4\n    /* \"#utility.yul\":1065:1273   */\n  swap3\n  pop\n  pop\n  pop\n  jump\t// out\n    /* \"#utility.yul\":1278:2812   */\ntag_3:\n    /* \"#utility.yul\":1460:1466   */\n  0x00\n    /* \"#utility.yul\":1468:1474   */\n  dup1\n    /* \"#utility.yul\":1476:1482   */\n  0x00\n    /* \"#utility.yul\":1484:1490   */\n  dup1\n    /* \"#utility.yul\":1492:1498   */\n  0x00\n    /* \"#utility.yul\":1500:1506   */\n  dup1\n    /* \"#utility.yul\":1508:1514   */\n  0x00\n    /* \"#utility.yul\":1516:1522   */\n  dup1\n    /* \"#utility.yul\":1524:1530   */\n  0x00\n    /* \"#utility.yul\":1577:1580   */\n  0x0200\n    /* \"#utility.yul\":1565:1574   */\n  dup11\n    /* \"#utility.yul\":1556:1563   */\n  dup13\n    /* \"#utility.yul\":1552:1575   */\n  sub\n    /* \"#utility.yul\":1548:1581   */\n  slt\n    /* \"#utility.yul\":1545:1598   */\n  iszero\n  tag_109\n  jumpi\n    /* \"#utility.yul\":1594:1595   */\n  0x00\n    /* \"#utility.yul\":1591:1592   */\n  dup1\n    /* \"#utility.yul\":1584:1596   */\n  revert\n    /* \"#utility.yul\":1545:1598   */\ntag_109:\n    /* \"#utility.yul\":1617:1657   */\n  tag_110\n    /* \"#utility.yul\":1647:1656   */\n  dup11\n    /* \"#utility.yul\":1617:1657   */\n  tag_86\n  jump\t// in\ntag_110:\n    /* \"#utility.yul\":1676:1678   */\n  0x20\n    /* \"#utility.yul\":1707:1725   */\n  dup12\n  dup2\n  add\n    /* \"#utility.yul\":1701:1726   */\n  mload\n    /* \"#utility.yul\":1607:1657   */\n  swap2\n  swap11\n  pop\n    /* \"#utility.yul\":1676:1678   */\n  swap1\n  sub(shl(0x40, 0x01), 0x01)\n    /* \"#utility.yul\":1775:1789   */\n  dup1\n  dup3\n  gt\n    /* \"#utility.yul\":1772:1806   */\n  iszero\n  tag_111\n  jumpi\n    /* \"#utility.yul\":1802:1803   */\n  0x00\n    /* \"#utility.yul\":1799:1800   */\n  dup1\n    /* \"#utility.yul\":1792:1804   */\n  revert\n    /* \"#utility.yul\":1772:1806   */\ntag_111:\n    /* \"#utility.yul\":1825:1886   */\n  tag_112\n    /* \"#utility.yul\":1878:1885   */\n  dup15\n    /* \"#utility.yul\":1869:1875   */\n  dup4\n    /* \"#utility.yul\":1858:1867   */\n  dup16\n    /* \"#utility.yul\":1854:1876   */\n  add\n    /* \"#utility.yul\":1825:1886   */\n  tag_92\n  jump\t// in\ntag_112:\n    /* \"#utility.yul\":1815:1886   */\n  swap11\n  pop\n    /* \"#utility.yul\":1932:1934   */\n  0x40\n    /* \"#utility.yul\":1921:1930   */\n  dup14\n    /* \"#utility.yul\":1917:1935   */\n  add\n    /* \"#utility.yul\":1911:1936   */\n  mload\n    /* \"#utility.yul\":1895:1936   */\n  swap2\n  pop\n    /* \"#utility.yul\":1961:1963   */\n  dup1\n    /* \"#utility.yul\":1951:1959   */\n  dup3\n    /* \"#utility.yul\":1948:1964   */\n  gt\n    /* \"#utility.yul\":1945:1981   */\n  iszero\n  tag_113\n  jumpi\n    /* \"#utility.yul\":1977:1978   */\n  0x00\n    /* \"#utility.yul\":1974:1975   */\n  dup1\n    /* \"#utility.yul\":1967:1979   */\n  revert\n    /* \"#utility.yul\":1945:1981   */\ntag_113:\n  pop\n    /* \"#utility.yul\":2000:2063   */\n  tag_114\n    /* \"#utility.yul\":2055:2062   */\n  dup14\n    /* \"#utility.yul\":2044:2052   */\n  dup3\n    /* \"#utility.yul\":2033:2042   */\n  dup15\n    /* \"#utility.yul\":2029:2053   */\n  add\n    /* \"#utility.yul\":2000:2063   */\n  tag_92\n  jump\t// in\ntag_114:\n    /* \"#utility.yul\":1990:2063   */\n  swap9\n  pop\n  pop\n    /* \"#utility.yul\":2107:2114   */\n  dup12\n    /* \"#utility.yul\":2101:2104   */\n  0x7f\n    /* \"#utility.yul\":2090:2099   */\n  dup13\n    /* \"#utility.yul\":2086:2105   */\n  add\n    /* \"#utility.yul\":2082:2115   */\n  slt\n    /* \"#utility.yul\":2072:2133   */\n  tag_115\n  jumpi\n    /* \"#utility.yul\":2129:2130   */\n  0x00\n    /* \"#utility.yul\":2126:2127   */\n  dup1\n    /* \"#utility.yul\":2119:2131   */\n  revert\n    /* \"#utility.yul\":2072:2133   */\ntag_115:\n    /* \"#utility.yul\":2153:2174   */\n  tag_116\n  tag_117\n  jump\t// in\ntag_116:\n    /* \"#utility.yul\":2196:2199   */\n  dup1\n    /* \"#utility.yul\":2234:2236   */\n  0x60\n    /* \"#utility.yul\":2223:2232   */\n  dup14\n    /* \"#utility.yul\":2219:2237   */\n  add\n    /* \"#utility.yul\":2271:2274   */\n  0x0160\n    /* \"#utility.yul\":2260:2269   */\n  dup15\n    /* \"#utility.yul\":2256:2275   */\n  add\n    /* \"#utility.yul\":2294:2301   */\n  dup16\n    /* \"#utility.yul\":2290:2292   */\n  dup2\n    /* \"#utility.yul\":2287:2302   */\n  gt\n    /* \"#utility.yul\":2284:2319   */\n  iszero\n  tag_118\n  jumpi\n    /* \"#utility.yul\":2315:2316   */\n  0x00\n    /* \"#utility.yul\":2312:2313   */\n  dup1\n    /* \"#utility.yul\":2305:2317   */\n  revert\n    /* \"#utility.yul\":2284:2319   */\ntag_118:\n    /* \"#utility.yul\":2337:2338   */\n  0x00\n    /* \"#utility.yul\":2347:2505   */\ntag_119:\n    /* \"#utility.yul\":2361:2365   */\n  0x08\n    /* \"#utility.yul\":2358:2359   */\n  dup2\n    /* \"#utility.yul\":2355:2366   */\n  lt\n    /* \"#utility.yul\":2347:2505   */\n  iszero\n  tag_121\n  jumpi\n    /* \"#utility.yul\":2420:2430   */\n  dup3\n  mload\n    /* \"#utility.yul\":2408:2431   */\n  dup6\n  mstore\n    /* \"#utility.yul\":2451:2463   */\n  swap4\n  dup6\n  add\n  swap4\n    /* \"#utility.yul\":2483:2495   */\n  swap2\n  dup6\n  add\n  swap2\n    /* \"#utility.yul\":2381:2382   */\n  0x01\n    /* \"#utility.yul\":2374:2383   */\n  add\n    /* \"#utility.yul\":2347:2505   */\n  jump(tag_119)\ntag_121:\n    /* \"#utility.yul\":2351:2354   */\n  pop\n    /* \"#utility.yul\":2524:2529   */\n  dup3\n    /* \"#utility.yul\":2514:2529   */\n  swap11\n  pop\n    /* \"#utility.yul\":2548:2578   */\n  tag_122\n    /* \"#utility.yul\":2575:2577   */\n  dup2\n    /* \"#utility.yul\":2548:2578   */\n  tag_89\n  jump\t// in\ntag_122:\n    /* \"#utility.yul\":2538:2578   */\n  swap10\n  pop\n  pop\n  pop\n  pop\n  pop\n  pop\n    /* \"#utility.yul\":2618:2621   */\n  0x0180\n    /* \"#utility.yul\":2607:2616   */\n  dup11\n    /* \"#utility.yul\":2603:2622   */\n  add\n    /* \"#utility.yul\":2597:2623   */\n  mload\n    /* \"#utility.yul\":2587:2623   */\n  swap4\n  pop\n    /* \"#utility.yul\":2663:2666   */\n  0x01a0\n    /* \"#utility.yul\":2652:2661   */\n  dup11\n    /* \"#utility.yul\":2648:2667   */\n  add\n    /* \"#utility.yul\":2642:2668   */\n  mload\n    /* \"#utility.yul\":2632:2668   */\n  swap3\n  pop\n    /* \"#utility.yul\":2687:2737   */\n  tag_123\n    /* \"#utility.yul\":2732:2735   */\n  0x01c0\n    /* \"#utility.yul\":2721:2730   */\n  dup12\n    /* \"#utility.yul\":2717:2736   */\n  add\n    /* \"#utility.yul\":2687:2737   */\n  tag_86\n  jump\t// in\ntag_123:\n    /* \"#utility.yul\":2677:2737   */\n  swap2\n  pop\n    /* \"#utility.yul\":2756:2806   */\n  tag_124\n    /* \"#utility.yul\":2801:2804   */\n  0x01e0\n    /* \"#utility.yul\":2790:2799   */\n  dup12\n    /* \"#utility.yul\":2786:2805   */\n  add\n    /* \"#utility.yul\":2756:2806   */\n  tag_86\n  jump\t// in\ntag_124:\n    /* \"#utility.yul\":2746:2806   */\n  swap1\n  pop\n    /* \"#utility.yul\":1278:2812   */\n  swap3\n  swap6\n  swap9\n  pop\n  swap3\n  swap6\n  swap9\n  pop\n  swap3\n  swap6\n  swap9\n  jump\t// out\n    /* \"#utility.yul\":2817:3001   */\ntag_37:\n    /* \"#utility.yul\":2887:2893   */\n  0x00\n    /* \"#utility.yul\":2940:2942   */\n  0x20\n    /* \"#utility.yul\":2928:2937   */\n  dup3\n    /* \"#utility.yul\":2919:2926   */\n  dup5\n    /* \"#utility.yul\":2915:2938   */\n  sub\n    /* \"#utility.yul\":2911:2943   */\n  slt\n    /* \"#utility.yul\":2908:2960   */\n  iszero\n  tag_126\n  jumpi\n    /* \"#utility.yul\":2956:2957   */\n  0x00\n    /* \"#utility.yul\":2953:2954   */\n  dup1\n    /* \"#utility.yul\":2946:2958   */\n  revert\n    /* \"#utility.yul\":2908:2960   */\ntag_126:\n  pop\n    /* \"#utility.yul\":2979:2995   */\n  mload\n  swap2\n    /* \"#utility.yul\":2817:3001   */\n  swap1\n  pop\n  jump\t// out\n    /* \"#utility.yul\":4085:4336   */\ntag_117:\n    /* \"#utility.yul\":4156:4158   */\n  0x40\n    /* \"#utility.yul\":4150:4159   */\n  mload\n    /* \"#utility.yul\":4198:4201   */\n  0x0100\n    /* \"#utility.yul\":4186:4202   */\n  dup2\n  add\n  sub(shl(0x40, 0x01), 0x01)\n    /* \"#utility.yul\":4217:4251   */\n  dup2\n  gt\n    /* \"#utility.yul\":4253:4275   */\n  dup3\n  dup3\n  lt\n    /* \"#utility.yul\":4214:4276   */\n  or\n    /* \"#utility.yul\":4211:4299   */\n  iszero\n  tag_132\n  jumpi\n    /* \"#utility.yul\":4279:4297   */\n  tag_132\n  tag_97\n  jump\t// in\ntag_132:\n    /* \"#utility.yul\":4315:4317   */\n  0x40\n    /* \"#utility.yul\":4308:4330   */\n  mstore\n    /* \"#utility.yul\":4085:4336   */\n  swap1\n  jump\t// out\n    /* \"#utility.yul\":4341:4616   */\ntag_99:\n    /* \"#utility.yul\":4412:4414   */\n  0x40\n    /* \"#utility.yul\":4406:4415   */\n  mload\n    /* \"#utility.yul\":4477:4479   */\n  0x1f\n    /* \"#utility.yul\":4458:4471   */\n  dup3\n  add\n  not(0x1f)\n    /* \"#utility.yul\":4454:4481   */\n  and\n    /* \"#utility.yul\":4442:4482   */\n  dup2\n  add\n  sub(shl(0x40, 0x01), 0x01)\n    /* \"#utility.yul\":4497:4531   */\n  dup2\n  gt\n    /* \"#utility.yul\":4533:4555   */\n  dup3\n  dup3\n  lt\n    /* \"#utility.yul\":4494:4556   */\n  or\n    /* \"#utility.yul\":4491:4579   */\n  iszero\n  tag_135\n  jumpi\n    /* \"#utility.yul\":4559:4577   */\n  tag_135\n  tag_97\n  jump\t// in\ntag_135:\n    /* \"#utility.yul\":4595:4597   */\n  0x40\n    /* \"#utility.yul\":4588:4610   */\n  mstore\n    /* \"#utility.yul\":4341:4616   */\n  swap2\n  swap1\n  pop\n  jump\t// out\n    /* \"#utility.yul\":4621:4838   */\ntag_43:\n    /* \"#utility.yul\":4661:4662   */\n  0x00\n    /* \"#utility.yul\":4687:4688   */\n  dup3\n    /* \"#utility.yul\":4677:4809   */\n  tag_137\n  jumpi\n    /* \"#utility.yul\":4731:4741   */\n  0x4e487b71\n    /* \"#utility.yul\":4726:4729   */\n  0xe0\n    /* \"#utility.yul\":4722:4742   */\n  shl\n    /* \"#utility.yul\":4719:4720   */\n  0x00\n    /* \"#utility.yul\":4712:4743   */\n  mstore\n    /* \"#utility.yul\":4766:4770   */\n  0x12\n    /* \"#utility.yul\":4763:4764   */\n  0x04\n    /* \"#utility.yul\":4756:4771   */\n  mstore\n    /* \"#utility.yul\":4794:4798   */\n  0x24\n    /* \"#utility.yul\":4791:4792   */\n  0x00\n    /* \"#utility.yul\":4784:4799   */\n  revert\n    /* \"#utility.yul\":4677:4809   */\ntag_137:\n  pop\n    /* \"#utility.yul\":4823:4832   */\n  div\n  swap1\n    /* \"#utility.yul\":4621:4838   */\n  jump\t// out\n    /* \"#utility.yul\":4843:5011   */\ntag_41:\n    /* \"#utility.yul\":4883:4890   */\n  0x00\n    /* \"#utility.yul\":4949:4950   */\n  dup2\n    /* \"#utility.yul\":4945:4946   */\n  0x00\n    /* \"#utility.yul\":4941:4947   */\n  not\n    /* \"#utility.yul\":4937:4951   */\n  div\n    /* \"#utility.yul\":4934:4935   */\n  dup4\n    /* \"#utility.yul\":4931:4952   */\n  gt\n    /* \"#utility.yul\":4926:4927   */\n  dup3\n    /* \"#utility.yul\":4919:4928   */\n  iszero\n    /* \"#utility.yul\":4912:4929   */\n  iszero\n    /* \"#utility.yul\":4908:4953   */\n  and\n    /* \"#utility.yul\":4905:4976   */\n  iszero\n  tag_140\n  jumpi\n    /* \"#utility.yul\":4956:4974   */\n  tag_140\n  tag_141\n  jump\t// in\ntag_140:\n  pop\n    /* \"#utility.yul\":4996:5005   */\n  mul\n  swap1\n    /* \"#utility.yul\":4843:5011   */\n  jump\t// out\n    /* \"#utility.yul\":5016:5141   */\ntag_39:\n    /* \"#utility.yul\":5056:5060   */\n  0x00\n    /* \"#utility.yul\":5084:5085   */\n  dup3\n    /* \"#utility.yul\":5081:5082   */\n  dup3\n    /* \"#utility.yul\":5078:5086   */\n  lt\n    /* \"#utility.yul\":5075:5109   */\n  iszero\n  tag_144\n  jumpi\n    /* \"#utility.yul\":5089:5107   */\n  tag_144\n  tag_141\n  jump\t// in\ntag_144:\n  pop\n    /* \"#utility.yul\":5126:5135   */\n  sub\n  swap1\n    /* \"#utility.yul\":5016:5141   */\n  jump\t// out\n    /* \"#utility.yul\":5146:5526   */\ntag_75:\n    /* \"#utility.yul\":5225:5226   */\n  0x01\n    /* \"#utility.yul\":5221:5233   */\n  dup2\n  dup2\n  shr\n  swap1\n    /* \"#utility.yul\":5268:5280   */\n  dup3\n  and\n  dup1\n    /* \"#utility.yul\":5289:5350   */\n  tag_146\n  jumpi\n    /* \"#utility.yul\":5343:5347   */\n  0x7f\n    /* \"#utility.yul\":5335:5341   */\n  dup3\n    /* \"#utility.yul\":5331:5348   */\n  and\n    /* \"#utility.yul\":5321:5348   */\n  swap2\n  pop\n    /* \"#utility.yul\":5289:5350   */\ntag_146:\n    /* \"#utility.yul\":5396:5398   */\n  0x20\n    /* \"#utility.yul\":5388:5394   */\n  dup3\n    /* \"#utility.yul\":5385:5399   */\n  lt\n    /* \"#utility.yul\":5365:5383   */\n  dup2\n    /* \"#utility.yul\":5362:5400   */\n  eq\n    /* \"#utility.yul\":5359:5520   */\n  iszero\n  tag_147\n  jumpi\n    /* \"#utility.yul\":5442:5452   */\n  0x4e487b71\n    /* \"#utility.yul\":5437:5440   */\n  0xe0\n    /* \"#utility.yul\":5433:5453   */\n  shl\n    /* \"#utility.yul\":5430:5431   */\n  0x00\n    /* \"#utility.yul\":5423:5454   */\n  mstore\n    /* \"#utility.yul\":5477:5481   */\n  0x22\n    /* \"#utility.yul\":5474:5475   */\n  0x04\n    /* \"#utility.yul\":5467:5482   */\n  mstore\n    /* \"#utility.yul\":5505:5509   */\n  0x24\n    /* \"#utility.yul\":5502:5503   */\n  0x00\n    /* \"#utility.yul\":5495:5510   */\n  revert\n    /* \"#utility.yul\":5359:5520   */\ntag_147:\n  pop\n    /* \"#utility.yul\":5146:5526   */\n  swap2\n  swap1\n  pop\n  jump\t// out\n    /* \"#utility.yul\":5531:5658   */\ntag_141:\n    /* \"#utility.yul\":5592:5602   */\n  0x4e487b71\n    /* \"#utility.yul\":5587:5590   */\n  0xe0\n    /* \"#utility.yul\":5583:5603   */\n  shl\n    /* \"#utility.yul\":5580:5581   */\n  0x00\n    /* \"#utility.yul\":5573:5604   */\n  mstore\n    /* \"#utility.yul\":5623:5627   */\n  0x11\n    /* \"#utility.yul\":5620:5621   */\n  0x04\n    /* \"#utility.yul\":5613:5628   */\n  mstore\n    /* \"#utility.yul\":5647:5651   */\n  0x24\n    /* \"#utility.yul\":5644:5645   */\n  0x00\n    /* \"#utility.yul\":5637:5652   */\n  revert\n    /* \"#utility.yul\":5795:5922   */\ntag_97:\n    /* \"#utility.yul\":5856:5866   */\n  0x4e487b71\n    /* \"#utility.yul\":5851:5854   */\n  0xe0\n    /* \"#utility.yul\":5847:5867   */\n  shl\n    /* \"#utility.yul\":5844:5845   */\n  0x00\n    /* \"#utility.yul\":5837:5868   */\n  mstore\n    /* \"#utility.yul\":5887:5891   */\n  0x41\n    /* \"#utility.yul\":5884:5885   */\n  0x04\n    /* \"#utility.yul\":5877:5892   */\n  mstore\n    /* \"#utility.yul\":5911:5915   */\n  0x24\n    /* \"#utility.yul\":5908:5909   */\n  0x00\n    /* \"#utility.yul\":5901:5916   */\n  revert\n    /* \"#utility.yul\":5795:5922   */\ntag_85:\n    /* \"launchpad/contracts/launchpadChild.sol\":422:12433  contract LaunchpadChild is ReentrancyGuard, Pausable {... */\n  dataSize(sub_0)\n  dup1\n  dataOffset(sub_0)\n  0x00\n  codecopy\n  0x00\n  return\nstop\n\nsub_0: assembly {\n        /* \"launchpad/contracts/launchpadChild.sol\":422:12433  contract LaunchpadChild is ReentrancyGuard, Pausable {... */\n      mstore(0x40, 0x80)\n      jumpi(tag_1, lt(calldatasize, 0x04))\n      shr(0xe0, calldataload(0x00))\n      dup1\n      0x8f5d036b\n      gt\n      tag_50\n      jumpi\n      dup1\n      0xc7bf5166\n      gt\n      tag_51\n      jumpi\n      dup1\n      0xe49dce66\n      gt\n      tag_52\n      jumpi\n      dup1\n      0xf887ea40\n      gt\n      tag_53\n      jumpi\n      dup1\n      0xf887ea40\n      eq\n      tag_47\n      jumpi\n      dup1\n      0xf89be593\n      eq\n      tag_48\n      jumpi\n      dup1\n      0xfc0c546a\n      eq\n      tag_49\n      jumpi\n      0x00\n      dup1\n      revert\n    tag_53:\n      dup1\n      0xe49dce66\n      eq\n      tag_44\n      jumpi\n      dup1\n      0xea44c1bc\n      eq\n      tag_45\n      jumpi\n      dup1\n      0xee97f7f3\n      eq\n      tag_46\n      jumpi\n      0x00\n      dup1\n      revert\n    tag_52:\n      dup1\n      0xd4b9de51\n      gt\n      tag_54\n      jumpi\n      dup1\n      0xd4b9de51\n      eq\n      tag_41\n      jumpi\n      dup1\n      0xda2cbd50\n      eq\n      tag_42\n      jumpi\n      dup1\n      0xde284b3a\n      eq\n      tag_43\n      jumpi\n      0x00\n      dup1\n      revert\n    tag_54:\n      dup1\n      0xc7bf5166\n      eq\n      tag_38\n      jumpi\n      dup1\n      0xc84c0387\n      eq\n      tag_39\n      jumpi\n      dup1\n      0xd132a8f4\n      eq\n      tag_40\n      jumpi\n      0x00\n      dup1\n      revert\n    tag_51:\n      dup1\n      0xa7bb5803\n      gt\n      tag_55\n      jumpi\n      dup1\n      0xbca1da85\n      gt\n      tag_56\n      jumpi\n      dup1\n      0xbca1da85\n      eq\n      tag_35\n      jumpi\n      dup1\n      0xbe9feb30\n      eq\n      tag_36\n      jumpi\n      dup1\n      0xc45a0155\n      eq\n      tag_37\n      jumpi\n      0x00\n      dup1\n      revert\n    tag_56:\n      dup1\n      0xa7bb5803\n      eq\n      tag_32\n      jumpi\n      dup1\n      0xaba83150\n      eq\n      tag_33\n      jumpi\n      dup1\n      0xb071cbe6\n      eq\n      tag_34\n      jumpi\n      0x00\n      dup1\n      revert\n    tag_55:\n      dup1\n      0xa0f7ab35\n      gt\n      tag_57\n      jumpi\n      dup1\n      0xa0f7ab35\n      eq\n      tag_29\n      jumpi\n      dup1\n      0xa5f0dea2\n      eq\n      tag_30\n      jumpi\n      dup1\n      0xa611dc37\n      eq\n      tag_31\n      jumpi\n      0x00\n      dup1\n      revert\n    tag_57:\n      dup1\n      0x8f5d036b\n      eq\n      tag_26\n      jumpi\n      dup1\n      0x957f1474\n      eq\n      tag_27\n      jumpi\n      dup1\n      0x9b8906ae\n      eq\n      tag_28\n      jumpi\n      0x00\n      dup1\n      revert\n    tag_50:\n      dup1\n      0x51fb012d\n      gt\n      tag_58\n      jumpi\n      dup1\n      0x6b7f3df3\n      gt\n      tag_59\n      jumpi\n      dup1\n      0x78e97925\n      gt\n      tag_60\n      jumpi\n      dup1\n      0x78e97925\n      eq\n      tag_23\n      jumpi\n      dup1\n      0x83b17fdd\n      eq\n      tag_24\n      jumpi\n      dup1\n      0x85bf4946\n      eq\n      tag_25\n      jumpi\n      0x00\n      dup1\n      revert\n    tag_60:\n      dup1\n      0x6b7f3df3\n      eq\n      tag_20\n      jumpi\n      dup1\n      0x6ef2e4d3\n      eq\n      tag_21\n      jumpi\n      dup1\n      0x7284e416\n      eq\n      tag_22\n      jumpi\n      0x00\n      dup1\n      revert\n    tag_59:\n      dup1\n      0x5c975abb\n      gt\n      tag_61\n      jumpi\n      dup1\n      0x5c975abb\n      eq\n      tag_17\n      jumpi\n      dup1\n      0x64db812e\n      eq\n      tag_18\n      jumpi\n      dup1\n      0x66d003ac\n      eq\n      tag_19\n      jumpi\n      0x00\n      dup1\n      revert\n    tag_61:\n      dup1\n      0x51fb012d\n      eq\n      tag_14\n      jumpi\n      dup1\n      0x58a687ec\n      eq\n      tag_15\n      jumpi\n      dup1\n      0x59663174\n      eq\n      tag_16\n      jumpi\n      0x00\n      dup1\n      revert\n    tag_58:\n      dup1\n      0x27a72c96\n      gt\n      tag_62\n      jumpi\n      dup1\n      0x3c876081\n      gt\n      tag_63\n      jumpi\n      dup1\n      0x3c876081\n      eq\n      tag_11\n      jumpi\n      dup1\n      0x48c54b9d\n      eq\n      tag_12\n      jumpi\n      dup1\n      0x4ae01d52\n      eq\n      tag_13\n      jumpi\n      0x00\n      dup1\n      revert\n    tag_63:\n      dup1\n      0x27a72c96\n      eq\n      tag_8\n      jumpi\n      dup1\n      0x27c8f835\n      eq\n      tag_9\n      jumpi\n      dup1\n      0x3197cbb6\n      eq\n      tag_10\n      jumpi\n      0x00\n      dup1\n      revert\n    tag_62:\n      dup1\n      0x12e409c5\n      gt\n      tag_64\n      jumpi\n      dup1\n      0x12e409c5\n      eq\n      tag_5\n      jumpi\n      dup1\n      0x201a3419\n      eq\n      tag_6\n      jumpi\n      dup1\n      0x238ac933\n      eq\n      tag_7\n      jumpi\n      0x00\n      dup1\n      revert\n    tag_64:\n      dup1\n      0x017f6fae\n      eq\n      tag_2\n      jumpi\n      dup1\n      0x039ce157\n      eq\n      tag_3\n      jumpi\n      dup1\n      0x03bcf11d\n      eq\n      tag_4\n      jumpi\n    tag_1:\n      0x00\n      dup1\n      revert\n        /* \"launchpad/contracts/launchpadChild.sol\":858:878  uint256 public feeBP */\n    tag_2:\n      callvalue\n      dup1\n      iszero\n      tag_65\n      jumpi\n      0x00\n      dup1\n      revert\n    tag_65:\n      pop\n      tag_66\n      sload(0x07)\n      dup2\n      jump\n    tag_66:\n      mload(0x40)\n        /* \"#utility.yul\":15508:15533   */\n      swap1\n      dup2\n      mstore\n        /* \"#utility.yul\":15496:15498   */\n      0x20\n        /* \"#utility.yul\":15481:15499   */\n      add\n        /* \"launchpad/contracts/launchpadChild.sol\":858:878  uint256 public feeBP */\n    tag_68:\n      mload(0x40)\n      dup1\n      swap2\n      sub\n      swap1\n      return\n        /* \"launchpad/contracts/launchpadChild.sol\":1653:1686  uint256 public tokenAmountForSale */\n    tag_3:\n      callvalue\n      dup1\n      iszero\n      tag_70\n      jumpi\n      0x00\n      dup1\n      revert\n    tag_70:\n      pop\n      tag_66\n      sload(0x11)\n      dup2\n      jump\n        /* \"launchpad/contracts/launchpadChild.sol\":6402:6583  function abortSale() external onlyInitiator {... */\n    tag_4:\n      callvalue\n      dup1\n      iszero\n      tag_74\n      jumpi\n      0x00\n      dup1\n      revert\n    tag_74:\n      pop\n      tag_75\n      tag_76\n      jump\t// in\n    tag_75:\n      stop\n        /* \"launchpad/contracts/launchpadChild.sol\":1585:1613  uint256 public minBuyPerUser */\n    tag_5:\n      callvalue\n      dup1\n      iszero\n      tag_77\n      jumpi\n      0x00\n      dup1\n      revert\n    tag_77:\n      pop\n      tag_66\n      sload(0x10)\n      dup2\n      jump\n        /* \"launchpad/contracts/launchpadChild.sol\":11462:12431  function endSaleAllowClaim() external onlyInitiator nonReentrant {... */\n    tag_6:\n      callvalue\n      dup1\n      iszero\n      tag_81\n      jumpi\n      0x00\n      dup1\n      revert\n    tag_81:\n      pop\n      tag_75\n      tag_83\n      jump\t// in\n        /* \"launchpad/contracts/launchpadChild.sol\":2097:2118  address public signer */\n    tag_7:\n      callvalue\n      dup1\n      iszero\n      tag_84\n      jumpi\n      0x00\n      dup1\n      revert\n    tag_84:\n      pop\n      sload(0x14)\n      tag_85\n      swap1\n      sub(shl(0xa0, 0x01), 0x01)\n      and\n      dup2\n      jump\n    tag_85:\n      mload(0x40)\n      sub(shl(0xa0, 0x01), 0x01)\n        /* \"#utility.yul\":3708:3763   */\n      swap1\n      swap2\n      and\n        /* \"#utility.yul\":3690:3764   */\n      dup2\n      mstore\n        /* \"#utility.yul\":3678:3680   */\n      0x20\n        /* \"#utility.yul\":3663:3681   */\n      add\n        /* \"launchpad/contracts/launchpadChild.sol\":2097:2118  address public signer */\n      tag_68\n        /* \"#utility.yul\":3544:3770   */\n      jump\n        /* \"launchpad/contracts/launchpadChild.sol\":1422:1453  uint256 public teamVestDuration */\n    tag_8:\n      callvalue\n      dup1\n      iszero\n      tag_89\n      jumpi\n      0x00\n      dup1\n      revert\n    tag_89:\n      pop\n      tag_66\n      sload(0x0e)\n      dup2\n      jump\n        /* \"launchpad/contracts/launchpadChild.sol\":2021:2092  address public deadAddress = 0x000000000000000000000000000000000000dEaD */\n    tag_9:\n      callvalue\n      dup1\n      iszero\n      tag_93\n      jumpi\n      0x00\n      dup1\n      revert\n    tag_93:\n      pop\n      sload(0x13)\n      tag_85\n      swap1\n      0x01000000\n      swap1\n      div\n      sub(shl(0xa0, 0x01), 0x01)\n      and\n      dup2\n      jump\n        /* \"launchpad/contracts/launchpadChild.sol\":990:1012  uint256 public endTime */\n    tag_10:\n      callvalue\n      dup1\n      iszero\n      tag_97\n      jumpi\n      0x00\n      dup1\n      revert\n    tag_97:\n      pop\n      tag_66\n      sload(0x09)\n      dup2\n      jump\n        /* \"launchpad/contracts/launchpadChild.sol\":3207:3261  mapping(address => address) public usersVestingWallets */\n    tag_11:\n      callvalue\n      dup1\n      iszero\n      tag_101\n      jumpi\n      0x00\n      dup1\n      revert\n    tag_101:\n      pop\n      tag_85\n      tag_103\n      calldatasize\n      0x04\n      tag_104\n      jump\t// in\n    tag_103:\n      0x20\n      dup1\n      mstore\n      0x00\n      swap1\n      dup2\n      mstore\n      0x40\n      swap1\n      keccak256\n      sload\n      sub(shl(0xa0, 0x01), 0x01)\n      and\n      dup2\n      jump\n        /* \"launchpad/contracts/launchpadChild.sol\":9800:10285  function claimTokens() external nonReentrant {... */\n    tag_12:\n      callvalue\n      dup1\n      iszero\n      tag_107\n      jumpi\n      0x00\n      dup1\n      revert\n    tag_107:\n      pop\n      tag_75\n      tag_109\n      jump\t// in\n        /* \"launchpad/contracts/launchpadChild.sol\":1227:1263  uint256 public liquidityLockDuration */\n    tag_13:\n      callvalue\n      dup1\n      iszero\n      tag_110\n      jumpi\n      0x00\n      dup1\n      revert\n    tag_110:\n      pop\n      tag_66\n      sload(0x0c)\n      dup2\n      jump\n        /* \"launchpad/contracts/launchpadChild.sol\":1961:1989  bool public whitelistEnabled */\n    tag_14:\n      callvalue\n      dup1\n      iszero\n      tag_114\n      jumpi\n      0x00\n      dup1\n      revert\n    tag_114:\n      pop\n      sload(0x13)\n      tag_115\n      swap1\n      0x010000\n      swap1\n      div\n      0xff\n      and\n      dup2\n      jump\n    tag_115:\n      mload(0x40)\n        /* \"#utility.yul\":5497:5511   */\n      swap1\n      iszero\n        /* \"#utility.yul\":5490:5512   */\n      iszero\n        /* \"#utility.yul\":5472:5513   */\n      dup2\n      mstore\n        /* \"#utility.yul\":5460:5462   */\n      0x20\n        /* \"#utility.yul\":5445:5463   */\n      add\n        /* \"launchpad/contracts/launchpadChild.sol\":1961:1989  bool public whitelistEnabled */\n      tag_68\n        /* \"#utility.yul\":5332:5519   */\n      jump\n        /* \"launchpad/contracts/launchpadChild.sol\":6617:6920  function finalizeSale() external onlyInitiator {... */\n    tag_15:\n      callvalue\n      dup1\n      iszero\n      tag_119\n      jumpi\n      0x00\n      dup1\n      revert\n    tag_119:\n      pop\n      tag_75\n      tag_121\n      jump\t// in\n        /* \"launchpad/contracts/launchpadChild.sol\":7821:8826  function buyTokensWhitelist(bytes memory signature)... */\n    tag_16:\n      tag_75\n      tag_123\n      calldatasize\n      0x04\n      tag_124\n      jump\t// in\n    tag_123:\n      tag_125\n      jump\t// in\n        /* \"@openzeppelin/contracts/security/Pausable.sol\":1098:1182  function paused() public view virtual returns (bool) {... */\n    tag_17:\n      callvalue\n      dup1\n      iszero\n      tag_126\n      jumpi\n      0x00\n      dup1\n      revert\n    tag_126:\n      pop\n        /* \"@openzeppelin/contracts/security/Pausable.sol\":1168:1175  _paused */\n      and(0xff, sload(0x01))\n        /* \"@openzeppelin/contracts/security/Pausable.sol\":1098:1182  function paused() public view virtual returns (bool) {... */\n      jump(tag_115)\n        /* \"launchpad/contracts/launchpadChild.sol\":3107:3130  bool public saleAborted */\n    tag_18:\n      callvalue\n      dup1\n      iszero\n      tag_130\n      jumpi\n      0x00\n      dup1\n      revert\n    tag_130:\n      pop\n      sload(0x1f)\n      tag_115\n      swap1\n      0x010000\n      swap1\n      div\n      0xff\n      and\n      dup2\n      jump\n        /* \"launchpad/contracts/launchpadChild.sol\":2766:2798  address payable public recipient */\n    tag_19:\n      callvalue\n      dup1\n      iszero\n      tag_134\n      jumpi\n      0x00\n      dup1\n      revert\n    tag_134:\n      pop\n      sload(0x1c)\n      tag_85\n      swap1\n      sub(shl(0xa0, 0x01), 0x01)\n      and\n      dup2\n      jump\n        /* \"launchpad/contracts/launchpadChild.sol\":3314:3362  mapping(address => uint256) public userBuyAmount */\n    tag_20:\n      callvalue\n      dup1\n      iszero\n      tag_139\n      jumpi\n      0x00\n      dup1\n      revert\n    tag_139:\n      pop\n      tag_66\n      tag_141\n      calldatasize\n      0x04\n      tag_104\n      jump\t// in\n    tag_141:\n      mstore(0x20, 0x21)\n      0x00\n      swap1\n      dup2\n      mstore\n      0x40\n      swap1\n      keccak256\n      sload\n      dup2\n      jump\n        /* \"launchpad/contracts/launchpadChild.sol\":1731:1769  uint256 public tokenAmountForLiquidity */\n    tag_21:\n      callvalue\n      dup1\n      iszero\n      tag_144\n      jumpi\n      0x00\n      dup1\n      revert\n    tag_144:\n      pop\n      tag_66\n      sload(0x12)\n      dup2\n      jump\n        /* \"launchpad/contracts/launchpadChild.sol\":2646:2671  string public description */\n    tag_22:\n      callvalue\n      dup1\n      iszero\n      tag_148\n      jumpi\n      0x00\n      dup1\n      revert\n    tag_148:\n      pop\n      tag_149\n      tag_150\n      jump\t// in\n    tag_149:\n      mload(0x40)\n      tag_68\n      swap2\n      swap1\n      tag_152\n      jump\t// in\n        /* \"launchpad/contracts/launchpadChild.sol\":917:941  uint256 public startTime */\n    tag_23:\n      callvalue\n      dup1\n      iszero\n      tag_153\n      jumpi\n      0x00\n      dup1\n      revert\n    tag_153:\n      pop\n      tag_66\n      sload(0x08)\n      dup2\n      jump\n        /* \"launchpad/contracts/launchpadChild.sol\":491:522  uint256 public tokenTotalAmount */\n    tag_24:\n      callvalue\n      dup1\n      iszero\n      tag_157\n      jumpi\n      0x00\n      dup1\n      revert\n    tag_157:\n      pop\n      tag_66\n      sload(0x02)\n      dup2\n      jump\n        /* \"launchpad/contracts/launchpadChild.sol\":1891:1918  bool public teamVestEnabled */\n    tag_25:\n      callvalue\n      dup1\n      iszero\n      tag_161\n      jumpi\n      0x00\n      dup1\n      revert\n    tag_161:\n      pop\n      sload(0x13)\n      tag_115\n      swap1\n      0x0100\n      swap1\n      div\n      0xff\n      and\n      dup2\n      jump\n        /* \"launchpad/contracts/launchpadChild.sol\":10397:10981  function claimStaleEth() external nonReentrant {... */\n    tag_26:\n      callvalue\n      dup1\n      iszero\n      tag_165\n      jumpi\n      0x00\n      dup1\n      revert\n    tag_165:\n      pop\n      tag_75\n      tag_167\n      jump\t// in\n        /* \"launchpad/contracts/launchpadChild.sol\":6924:7817  function buyTokensPublic() external payable nonReentrant whenNotPaused {... */\n    tag_27:\n      tag_75\n      tag_169\n      jump\t// in\n        /* \"launchpad/contracts/launchpadChild.sol\":3025:3046  bool public saleEnded */\n    tag_28:\n      callvalue\n      dup1\n      iszero\n      tag_170\n      jumpi\n      0x00\n      dup1\n      revert\n    tag_170:\n      pop\n      sload(0x1f)\n      tag_115\n      swap1\n      0x0100\n      swap1\n      div\n      0xff\n      and\n      dup2\n      jump\n        /* \"launchpad/contracts/launchpadChild.sol\":576:613  uint256 public listingTokensPerOneEth */\n    tag_29:\n      callvalue\n      dup1\n      iszero\n      tag_174\n      jumpi\n      0x00\n      dup1\n      revert\n    tag_174:\n      pop\n      tag_66\n      sload(0x03)\n      dup2\n      jump\n        /* \"launchpad/contracts/launchpadChild.sol\":2963:2988  bool public saleFinalized */\n    tag_30:\n      callvalue\n      dup1\n      iszero\n      tag_178\n      jumpi\n      0x00\n      dup1\n      revert\n    tag_178:\n      pop\n      sload(0x1f)\n      tag_115\n      swap1\n      0xff\n      and\n      dup2\n      jump\n        /* \"launchpad/contracts/launchpadChild.sol\":664:695  uint256 public liquidityShareBP */\n    tag_31:\n      callvalue\n      dup1\n      iszero\n      tag_182\n      jumpi\n      0x00\n      dup1\n      revert\n    tag_182:\n      pop\n      tag_66\n      sload(0x04)\n      dup2\n      jump\n        /* \"launchpad/contracts/launchpadChild.sol\":9315:9796  function splitSignature(bytes memory sig)... */\n    tag_32:\n      callvalue\n      dup1\n      iszero\n      tag_186\n      jumpi\n      0x00\n      dup1\n      revert\n    tag_186:\n      pop\n      tag_187\n      tag_188\n      calldatasize\n      0x04\n      tag_124\n      jump\t// in\n    tag_188:\n      tag_189\n      jump\t// in\n    tag_187:\n      0x40\n      dup1\n      mload\n        /* \"#utility.yul\":15772:15776   */\n      0xff\n        /* \"#utility.yul\":15760:15777   */\n      swap1\n      swap5\n      and\n        /* \"#utility.yul\":15742:15778   */\n      dup5\n      mstore\n        /* \"#utility.yul\":15809:15811   */\n      0x20\n        /* \"#utility.yul\":15794:15812   */\n      dup5\n      add\n        /* \"#utility.yul\":15787:15821   */\n      swap3\n      swap1\n      swap3\n      mstore\n        /* \"#utility.yul\":15837:15855   */\n      swap1\n      dup3\n      add\n        /* \"#utility.yul\":15830:15864   */\n      mstore\n        /* \"#utility.yul\":15730:15732   */\n      0x60\n        /* \"#utility.yul\":15715:15733   */\n      add\n        /* \"launchpad/contracts/launchpadChild.sol\":9315:9796  function splitSignature(bytes memory sig)... */\n      tag_68\n        /* \"#utility.yul\":15544:15870   */\n      jump\n        /* \"launchpad/contracts/launchpadChild.sol\":2708:2730  string public imageUrl */\n    tag_33:\n      callvalue\n      dup1\n      iszero\n      tag_192\n      jumpi\n      0x00\n      dup1\n      revert\n    tag_192:\n      pop\n      tag_149\n      tag_194\n      jump\t// in\n        /* \"launchpad/contracts/launchpadChild.sol\":758:780  uint256 public hardcap */\n    tag_34:\n      callvalue\n      dup1\n      iszero\n      tag_196\n      jumpi\n      0x00\n      dup1\n      revert\n    tag_196:\n      pop\n      tag_66\n      sload(0x05)\n      dup2\n      jump\n        /* \"launchpad/contracts/launchpadChild.sol\":2824:2860  address payable public saleInitiator */\n    tag_35:\n      callvalue\n      dup1\n      iszero\n      tag_200\n      jumpi\n      0x00\n      dup1\n      revert\n    tag_200:\n      pop\n      sload(0x1d)\n      tag_85\n      swap1\n      sub(shl(0xa0, 0x01), 0x01)\n      and\n      dup2\n      jump\n        /* \"launchpad/contracts/launchpadChild.sol\":1059:1085  uint256 public wlStartTime */\n    tag_36:\n      callvalue\n      dup1\n      iszero\n      tag_204\n      jumpi\n      0x00\n      dup1\n      revert\n    tag_204:\n      pop\n      tag_66\n      sload(0x0a)\n      dup2\n      jump\n        /* \"launchpad/contracts/launchpadChild.sol\":2429:2461  IUniswapV2Factory public factory */\n    tag_37:\n      callvalue\n      dup1\n      iszero\n      tag_208\n      jumpi\n      0x00\n      dup1\n      revert\n    tag_208:\n      pop\n      sload(0x17)\n      tag_85\n      swap1\n      sub(shl(0xa0, 0x01), 0x01)\n      and\n      dup2\n      jump\n        /* \"launchpad/contracts/launchpadChild.sol\":1144:1178  uint256 public saleTokensPerOneEth */\n    tag_38:\n      callvalue\n      dup1\n      iszero\n      tag_213\n      jumpi\n      0x00\n      dup1\n      revert\n    tag_213:\n      pop\n      tag_66\n      sload(0x0b)\n      dup2\n      jump\n        /* \"launchpad/contracts/launchpadChild.sol\":2589:2610  uint256 public saleId */\n    tag_39:\n      callvalue\n      dup1\n      iszero\n      tag_217\n      jumpi\n      0x00\n      dup1\n      revert\n    tag_217:\n      pop\n      tag_66\n      sload(0x19)\n      dup2\n      jump\n        /* \"launchpad/contracts/launchpadChild.sol\":6127:6236  function totalBuyTokens() public view returns (uint256) {... */\n    tag_40:\n      callvalue\n      dup1\n      iszero\n      tag_221\n      jumpi\n      0x00\n      dup1\n      revert\n    tag_221:\n      pop\n      tag_66\n      tag_223\n      jump\t// in\n        /* \"launchpad/contracts/launchpadChild.sol\":1820:1847  bool public userVestEnabled */\n    tag_41:\n      callvalue\n      dup1\n      iszero\n      tag_225\n      jumpi\n      0x00\n      dup1\n      revert\n    tag_225:\n      pop\n      sload(0x13)\n      tag_115\n      swap1\n      0xff\n      and\n      dup2\n      jump\n        /* \"launchpad/contracts/launchpadChild.sol\":2893:2919  uint256 public totalBuyEth */\n    tag_42:\n      callvalue\n      dup1\n      iszero\n      tag_229\n      jumpi\n      0x00\n      dup1\n      revert\n    tag_229:\n      pop\n      tag_66\n      sload(0x1e)\n      dup2\n      jump\n        /* \"launchpad/contracts/launchpadChild.sol\":1517:1545  uint256 public maxBuyPerUser */\n    tag_43:\n      callvalue\n      dup1\n      iszero\n      tag_233\n      jumpi\n      0x00\n      dup1\n      revert\n    tag_233:\n      pop\n      tag_66\n      sload(0x0f)\n      dup2\n      jump\n        /* \"launchpad/contracts/launchpadChild.sol\":8830:9311  function verify(... */\n    tag_44:\n      callvalue\n      dup1\n      iszero\n      tag_237\n      jumpi\n      0x00\n      dup1\n      revert\n    tag_237:\n      pop\n      tag_115\n      tag_239\n      calldatasize\n      0x04\n      tag_240\n      jump\t// in\n    tag_239:\n      tag_241\n      jump\t// in\n        /* \"launchpad/contracts/launchpadChild.sol\":1328:1359  uint256 public userVestDuration */\n    tag_45:\n      callvalue\n      dup1\n      iszero\n      tag_243\n      jumpi\n      0x00\n      dup1\n      revert\n    tag_243:\n      pop\n      tag_66\n      sload(0x0d)\n      dup2\n      jump\n        /* \"launchpad/contracts/launchpadChild.sol\":2172:2202  ILaunchpadMaster public master */\n    tag_46:\n      callvalue\n      dup1\n      iszero\n      tag_247\n      jumpi\n      0x00\n      dup1\n      revert\n    tag_247:\n      pop\n      sload(0x15)\n      tag_85\n      swap1\n      sub(shl(0xa0, 0x01), 0x01)\n      and\n      dup2\n      jump\n        /* \"launchpad/contracts/launchpadChild.sol\":2346:2378  IUniswapV2Router02 public router */\n    tag_47:\n      callvalue\n      dup1\n      iszero\n      tag_252\n      jumpi\n      0x00\n      dup1\n      revert\n    tag_252:\n      pop\n      sload(0x16)\n      tag_85\n      swap1\n      sub(shl(0xa0, 0x01), 0x01)\n      and\n      dup2\n      jump\n        /* \"launchpad/contracts/launchpadChild.sol\":808:830  uint256 public softcap */\n    tag_48:\n      callvalue\n      dup1\n      iszero\n      tag_257\n      jumpi\n      0x00\n      dup1\n      revert\n    tag_257:\n      pop\n      tag_66\n      sload(0x06)\n      dup2\n      jump\n        /* \"launchpad/contracts/launchpadChild.sol\":2525:2544  IERC20 public token */\n    tag_49:\n      callvalue\n      dup1\n      iszero\n      tag_261\n      jumpi\n      0x00\n      dup1\n      revert\n    tag_261:\n      pop\n      sload(0x18)\n      tag_85\n      swap1\n      sub(shl(0xa0, 0x01), 0x01)\n      and\n      dup2\n      jump\n        /* \"launchpad/contracts/launchpadChild.sol\":6402:6583  function abortSale() external onlyInitiator {... */\n    tag_76:\n        /* \"launchpad/contracts/launchpadChild.sol\":6052:6065  saleInitiator */\n      and(sub(shl(0xa0, 0x01), 0x01), sload(0x1d))\n        /* \"launchpad/contracts/launchpadChild.sol\":6069:6079  msg.sender */\n      caller\n        /* \"launchpad/contracts/launchpadChild.sol\":6052:6079  saleInitiator == msg.sender */\n      eq\n        /* \"launchpad/contracts/launchpadChild.sol\":6044:6111  require(saleInitiator == msg.sender, \"caller is not the initiator\") */\n      tag_267\n      jumpi\n      mload(0x40)\n      shl(0xe5, 0x461bcd)\n      dup2\n      mstore\n        /* \"#utility.yul\":11803:11805   */\n      0x20\n        /* \"launchpad/contracts/launchpadChild.sol\":6044:6111  require(saleInitiator == msg.sender, \"caller is not the initiator\") */\n      0x04\n      dup3\n      add\n        /* \"#utility.yul\":11785:11806   */\n      mstore\n        /* \"#utility.yul\":11842:11844   */\n      0x1b\n        /* \"#utility.yul\":11822:11840   */\n      0x24\n      dup3\n      add\n        /* \"#utility.yul\":11815:11845   */\n      mstore\n        /* \"#utility.yul\":11881:11910   */\n      0x63616c6c6572206973206e6f742074686520696e69746961746f720000000000\n        /* \"#utility.yul\":11861:11879   */\n      0x44\n      dup3\n      add\n        /* \"#utility.yul\":11854:11911   */\n      mstore\n        /* \"#utility.yul\":11928:11946   */\n      0x64\n      add\n        /* \"launchpad/contracts/launchpadChild.sol\":6044:6111  require(saleInitiator == msg.sender, \"caller is not the initiator\") */\n    tag_268:\n      mload(0x40)\n      dup1\n      swap2\n      sub\n      swap1\n      revert\n    tag_267:\n        /* \"launchpad/contracts/launchpadChild.sol\":6461:6470  saleEnded */\n      sload(0x1f)\n      0x0100\n      swap1\n      div\n      0xff\n      and\n        /* \"launchpad/contracts/launchpadChild.sol\":6460:6470  !saleEnded */\n      iszero\n        /* \"launchpad/contracts/launchpadChild.sol\":6452:6503  require(!saleEnded, \"claiming has already started\") */\n      tag_271\n      jumpi\n      mload(0x40)\n      shl(0xe5, 0x461bcd)\n      dup2\n      mstore\n        /* \"#utility.yul\":12913:12915   */\n      0x20\n        /* \"launchpad/contracts/launchpadChild.sol\":6452:6503  require(!saleEnded, \"claiming has already started\") */\n      0x04\n      dup3\n      add\n        /* \"#utility.yul\":12895:12916   */\n      mstore\n        /* \"#utility.yul\":12952:12954   */\n      0x1c\n        /* \"#utility.yul\":12932:12950   */\n      0x24\n      dup3\n      add\n        /* \"#utility.yul\":12925:12955   */\n      mstore\n        /* \"#utility.yul\":12991:13021   */\n      0x636c61696d696e672068617320616c7265616479207374617274656400000000\n        /* \"#utility.yul\":12971:12989   */\n      0x44\n      dup3\n      add\n        /* \"#utility.yul\":12964:13022   */\n      mstore\n        /* \"#utility.yul\":13039:13057   */\n      0x64\n      add\n        /* \"launchpad/contracts/launchpadChild.sol\":6452:6503  require(!saleEnded, \"claiming has already started\") */\n      tag_268\n        /* \"#utility.yul\":12711:13063   */\n      jump\n        /* \"launchpad/contracts/launchpadChild.sol\":6452:6503  require(!saleEnded, \"claiming has already started\") */\n    tag_271:\n        /* \"launchpad/contracts/launchpadChild.sol\":6518:6529  saleAborted */\n      sload(0x1f)\n      0x010000\n      swap1\n      div\n      0xff\n      and\n        /* \"launchpad/contracts/launchpadChild.sol\":6517:6529  !saleAborted */\n      iszero\n        /* \"launchpad/contracts/launchpadChild.sol\":6509:6554  require(!saleAborted, \"sale already aborted\") */\n      tag_274\n      jumpi\n      mload(0x40)\n      shl(0xe5, 0x461bcd)\n      dup2\n      mstore\n        /* \"#utility.yul\":8107:8109   */\n      0x20\n        /* \"launchpad/contracts/launchpadChild.sol\":6509:6554  require(!saleAborted, \"sale already aborted\") */\n      0x04\n      dup3\n      add\n        /* \"#utility.yul\":8089:8110   */\n      mstore\n        /* \"#utility.yul\":8146:8148   */\n      0x14\n        /* \"#utility.yul\":8126:8144   */\n      0x24\n      dup3\n      add\n        /* \"#utility.yul\":8119:8149   */\n      mstore\n        /* \"#utility.yul\":8185:8207   */\n      0x73616c6520616c72656164792061626f72746564000000000000000000000000\n        /* \"#utility.yul\":8165:8183   */\n      0x44\n      dup3\n      add\n        /* \"#utility.yul\":8158:8208   */\n      mstore\n        /* \"#utility.yul\":8225:8243   */\n      0x64\n      add\n        /* \"launchpad/contracts/launchpadChild.sol\":6509:6554  require(!saleAborted, \"sale already aborted\") */\n      tag_268\n        /* \"#utility.yul\":7905:8249   */\n      jump\n        /* \"launchpad/contracts/launchpadChild.sol\":6509:6554  require(!saleAborted, \"sale already aborted\") */\n    tag_274:\n        /* \"launchpad/contracts/launchpadChild.sol\":6560:6571  saleAborted */\n      0x1f\n        /* \"launchpad/contracts/launchpadChild.sol\":6560:6578  saleAborted = true */\n      dup1\n      sload\n      not(0xff0000)\n      and\n      0x010000\n      or\n      swap1\n      sstore\n        /* \"launchpad/contracts/launchpadChild.sol\":6402:6583  function abortSale() external onlyInitiator {... */\n      jump\t// out\n        /* \"launchpad/contracts/launchpadChild.sol\":11462:12431  function endSaleAllowClaim() external onlyInitiator nonReentrant {... */\n    tag_83:\n        /* \"launchpad/contracts/launchpadChild.sol\":6052:6065  saleInitiator */\n      and(sub(shl(0xa0, 0x01), 0x01), sload(0x1d))\n        /* \"launchpad/contracts/launchpadChild.sol\":6069:6079  msg.sender */\n      caller\n        /* \"launchpad/contracts/launchpadChild.sol\":6052:6079  saleInitiator == msg.sender */\n      eq\n        /* \"launchpad/contracts/launchpadChild.sol\":6044:6111  require(saleInitiator == msg.sender, \"caller is not the initiator\") */\n      tag_278\n      jumpi\n      mload(0x40)\n      shl(0xe5, 0x461bcd)\n      dup2\n      mstore\n        /* \"#utility.yul\":11803:11805   */\n      0x20\n        /* \"launchpad/contracts/launchpadChild.sol\":6044:6111  require(saleInitiator == msg.sender, \"caller is not the initiator\") */\n      0x04\n      dup3\n      add\n        /* \"#utility.yul\":11785:11806   */\n      mstore\n        /* \"#utility.yul\":11842:11844   */\n      0x1b\n        /* \"#utility.yul\":11822:11840   */\n      0x24\n      dup3\n      add\n        /* \"#utility.yul\":11815:11845   */\n      mstore\n        /* \"#utility.yul\":11881:11910   */\n      0x63616c6c6572206973206e6f742074686520696e69746961746f720000000000\n        /* \"#utility.yul\":11861:11879   */\n      0x44\n      dup3\n      add\n        /* \"#utility.yul\":11854:11911   */\n      mstore\n        /* \"#utility.yul\":11928:11946   */\n      0x64\n      add\n        /* \"launchpad/contracts/launchpadChild.sol\":6044:6111  require(saleInitiator == msg.sender, \"caller is not the initiator\") */\n      tag_268\n        /* \"#utility.yul\":11601:11952   */\n      jump\n        /* \"launchpad/contracts/launchpadChild.sol\":6044:6111  require(saleInitiator == msg.sender, \"caller is not the initiator\") */\n    tag_278:\n        /* \"@openzeppelin/contracts/security/ReentrancyGuard.sol\":1744:1745  2 */\n      0x02\n        /* \"@openzeppelin/contracts/security/ReentrancyGuard.sol\":2325:2332  _status */\n      sload(0x00)\n        /* \"@openzeppelin/contracts/security/ReentrancyGuard.sol\":2325:2344  _status != _ENTERED */\n      eq\n      iszero\n        /* \"@openzeppelin/contracts/security/ReentrancyGuard.sol\":2317:2380  require(_status != _ENTERED, \"ReentrancyGuard: reentrant call\") */\n      tag_281\n      jumpi\n      mload(0x40)\n      shl(0xe5, 0x461bcd)\n      dup2\n      mstore\n        /* \"#utility.yul\":15204:15206   */\n      0x20\n        /* \"@openzeppelin/contracts/security/ReentrancyGuard.sol\":2317:2380  require(_status != _ENTERED, \"ReentrancyGuard: reentrant call\") */\n      0x04\n      dup3\n      add\n        /* \"#utility.yul\":15186:15207   */\n      mstore\n        /* \"#utility.yul\":15243:15245   */\n      0x1f\n        /* \"#utility.yul\":15223:15241   */\n      0x24\n      dup3\n      add\n        /* \"#utility.yul\":15216:15246   */\n      mstore\n        /* \"#utility.yul\":15282:15315   */\n      0x5265656e7472616e637947756172643a207265656e7472616e742063616c6c00\n        /* \"#utility.yul\":15262:15280   */\n      0x44\n      dup3\n      add\n        /* \"#utility.yul\":15255:15316   */\n      mstore\n        /* \"#utility.yul\":15333:15351   */\n      0x64\n      add\n        /* \"@openzeppelin/contracts/security/ReentrancyGuard.sol\":2317:2380  require(_status != _ENTERED, \"ReentrancyGuard: reentrant call\") */\n      tag_268\n        /* \"#utility.yul\":15002:15357   */\n      jump\n        /* \"@openzeppelin/contracts/security/ReentrancyGuard.sol\":2317:2380  require(_status != _ENTERED, \"ReentrancyGuard: reentrant call\") */\n    tag_281:\n        /* \"@openzeppelin/contracts/security/ReentrancyGuard.sol\":1744:1745  2 */\n      0x02\n        /* \"@openzeppelin/contracts/security/ReentrancyGuard.sol\":2455:2462  _status */\n      0x00\n        /* \"@openzeppelin/contracts/security/ReentrancyGuard.sol\":2455:2473  _status = _ENTERED */\n      sstore\n        /* \"launchpad/contracts/launchpadChild.sol\":11542:11553  saleAborted */\n      sload(0x1f)\n      0x010000\n      swap1\n      div\n      0xff\n      and\n        /* \"launchpad/contracts/launchpadChild.sol\":11541:11553  !saleAborted */\n      iszero\n        /* \"launchpad/contracts/launchpadChild.sol\":11533:11574  require(!saleAborted, \"sale was aborted\") */\n      tag_285\n      jumpi\n      mload(0x40)\n      shl(0xe5, 0x461bcd)\n      dup2\n      mstore\n        /* \"#utility.yul\":14099:14101   */\n      0x20\n        /* \"launchpad/contracts/launchpadChild.sol\":11533:11574  require(!saleAborted, \"sale was aborted\") */\n      0x04\n      dup3\n      add\n        /* \"#utility.yul\":14081:14102   */\n      mstore\n        /* \"#utility.yul\":14138:14140   */\n      0x10\n        /* \"#utility.yul\":14118:14136   */\n      0x24\n      dup3\n      add\n        /* \"#utility.yul\":14111:14141   */\n      mstore\n      shl(0x82, 0x1cd85b19481dd85cc818589bdc9d1959)\n        /* \"#utility.yul\":14157:14175   */\n      0x44\n      dup3\n      add\n        /* \"#utility.yul\":14150:14196   */\n      mstore\n        /* \"#utility.yul\":14213:14231   */\n      0x64\n      add\n        /* \"launchpad/contracts/launchpadChild.sol\":11533:11574  require(!saleAborted, \"sale was aborted\") */\n      tag_268\n        /* \"#utility.yul\":13897:14237   */\n      jump\n        /* \"launchpad/contracts/launchpadChild.sol\":11533:11574  require(!saleAborted, \"sale was aborted\") */\n    tag_285:\n        /* \"launchpad/contracts/launchpadChild.sol\":11588:11601  saleFinalized */\n      and(0xff, sload(0x1f))\n        /* \"launchpad/contracts/launchpadChild.sol\":11580:11627  require(saleFinalized, \"sale wasn't finalized\") */\n      tag_288\n      jumpi\n      mload(0x40)\n      shl(0xe5, 0x461bcd)\n      dup2\n      mstore\n        /* \"#utility.yul\":12563:12565   */\n      0x20\n        /* \"launchpad/contracts/launchpadChild.sol\":11580:11627  require(saleFinalized, \"sale wasn't finalized\") */\n      0x04\n      dup3\n      add\n        /* \"#utility.yul\":12545:12566   */\n      mstore\n        /* \"#utility.yul\":12602:12604   */\n      0x15\n        /* \"#utility.yul\":12582:12600   */\n      0x24\n      dup3\n      add\n        /* \"#utility.yul\":12575:12605   */\n      mstore\n        /* \"#utility.yul\":12641:12664   */\n      0x73616c65207761736e27742066696e616c697a65640000000000000000000000\n        /* \"#utility.yul\":12621:12639   */\n      0x44\n      dup3\n      add\n        /* \"#utility.yul\":12614:12665   */\n      mstore\n        /* \"#utility.yul\":12682:12700   */\n      0x64\n      add\n        /* \"launchpad/contracts/launchpadChild.sol\":11580:11627  require(saleFinalized, \"sale wasn't finalized\") */\n      tag_268\n        /* \"#utility.yul\":12361:12706   */\n      jump\n        /* \"launchpad/contracts/launchpadChild.sol\":11580:11627  require(saleFinalized, \"sale wasn't finalized\") */\n    tag_288:\n        /* \"launchpad/contracts/launchpadChild.sol\":11655:11662  softcap */\n      sload(0x06)\n        /* \"launchpad/contracts/launchpadChild.sol\":11641:11652  totalBuyEth */\n      sload(0x1e)\n        /* \"launchpad/contracts/launchpadChild.sol\":11641:11662  totalBuyEth > softcap */\n      gt\n        /* \"launchpad/contracts/launchpadChild.sol\":11633:11694  require(totalBuyEth > softcap, \"not enough tokens were sold\") */\n      tag_291\n      jumpi\n      mload(0x40)\n      shl(0xe5, 0x461bcd)\n      dup2\n      mstore\n        /* \"#utility.yul\":14444:14446   */\n      0x20\n        /* \"launchpad/contracts/launchpadChild.sol\":11633:11694  require(totalBuyEth > softcap, \"not enough tokens were sold\") */\n      0x04\n      dup3\n      add\n        /* \"#utility.yul\":14426:14447   */\n      mstore\n        /* \"#utility.yul\":14483:14485   */\n      0x1b\n        /* \"#utility.yul\":14463:14481   */\n      0x24\n      dup3\n      add\n        /* \"#utility.yul\":14456:14486   */\n      mstore\n        /* \"#utility.yul\":14522:14551   */\n      0x6e6f7420656e6f75676820746f6b656e73207765726520736f6c640000000000\n        /* \"#utility.yul\":14502:14520   */\n      0x44\n      dup3\n      add\n        /* \"#utility.yul\":14495:14552   */\n      mstore\n        /* \"#utility.yul\":14569:14587   */\n      0x64\n      add\n        /* \"launchpad/contracts/launchpadChild.sol\":11633:11694  require(totalBuyEth > softcap, \"not enough tokens were sold\") */\n      tag_268\n        /* \"#utility.yul\":14242:14593   */\n      jump\n        /* \"launchpad/contracts/launchpadChild.sol\":11633:11694  require(totalBuyEth > softcap, \"not enough tokens were sold\") */\n    tag_291:\n        /* \"launchpad/contracts/launchpadChild.sol\":11709:11718  saleEnded */\n      sload(0x1f)\n      0x0100\n      swap1\n      div\n      0xff\n      and\n        /* \"launchpad/contracts/launchpadChild.sol\":11708:11718  !saleEnded */\n      iszero\n        /* \"launchpad/contracts/launchpadChild.sol\":11700:11745  require(!saleEnded, \"sale was already ended\") */\n      tag_294\n      jumpi\n      mload(0x40)\n      shl(0xe5, 0x461bcd)\n      dup2\n      mstore\n        /* \"#utility.yul\":10345:10347   */\n      0x20\n        /* \"launchpad/contracts/launchpadChild.sol\":11700:11745  require(!saleEnded, \"sale was already ended\") */\n      0x04\n      dup3\n      add\n        /* \"#utility.yul\":10327:10348   */\n      mstore\n        /* \"#utility.yul\":10384:10386   */\n      0x16\n        /* \"#utility.yul\":10364:10382   */\n      0x24\n      dup3\n      add\n        /* \"#utility.yul\":10357:10387   */\n      mstore\n        /* \"#utility.yul\":10423:10447   */\n      0x73616c652077617320616c726561647920656e64656400000000000000000000\n        /* \"#utility.yul\":10403:10421   */\n      0x44\n      dup3\n      add\n        /* \"#utility.yul\":10396:10448   */\n      mstore\n        /* \"#utility.yul\":10465:10483   */\n      0x64\n      add\n        /* \"launchpad/contracts/launchpadChild.sol\":11700:11745  require(!saleEnded, \"sale was already ended\") */\n      tag_268\n        /* \"#utility.yul\":10143:10489   */\n      jump\n        /* \"launchpad/contracts/launchpadChild.sol\":11700:11745  require(!saleEnded, \"sale was already ended\") */\n    tag_294:\n        /* \"launchpad/contracts/launchpadChild.sol\":11752:11761  saleEnded */\n      0x1f\n        /* \"launchpad/contracts/launchpadChild.sol\":11752:11768  saleEnded = true */\n      dup1\n      sload\n      not(0xff00)\n      and\n      0x0100\n      or\n      swap1\n      sstore\n        /* \"launchpad/contracts/launchpadChild.sol\":11861:11883  listingTokensPerOneEth */\n      sload(0x03)\n        /* \"launchpad/contracts/launchpadChild.sol\":11752:11768  saleEnded = true */\n      0x00\n      swap1\n        /* \"launchpad/contracts/launchpadChild.sol\":11842:11858  totalBuyTokens() */\n      tag_297\n        /* \"launchpad/contracts/launchpadChild.sol\":11842:11856  totalBuyTokens */\n      tag_223\n        /* \"launchpad/contracts/launchpadChild.sol\":11842:11858  totalBuyTokens() */\n      jump\t// in\n    tag_297:\n        /* \"launchpad/contracts/launchpadChild.sol\":11842:11883  totalBuyTokens() / listingTokensPerOneEth */\n      tag_298\n      swap2\n      swap1\n      tag_299\n      jump\t// in\n    tag_298:\n        /* \"launchpad/contracts/launchpadChild.sol\":11810:11883  uint256 ethAmountForLiquidity = totalBuyTokens() / listingTokensPerOneEth */\n      swap1\n      pop\n        /* \"launchpad/contracts/launchpadChild.sol\":11938:11975  uint256 actualTokenAmountForLiquidity */\n      0x00\n        /* \"launchpad/contracts/launchpadChild.sol\":12026:12033  hardcap */\n      sload(0x05)\n        /* \"launchpad/contracts/launchpadChild.sol\":12011:12022  totalBuyEth */\n      sload(0x1e)\n        /* \"launchpad/contracts/launchpadChild.sol\":11979:12002  tokenAmountForLiquidity */\n      sload(0x12)\n        /* \"launchpad/contracts/launchpadChild.sol\":11979:12022  tokenAmountForLiquidity *... */\n      tag_300\n      swap2\n      swap1\n      tag_301\n      jump\t// in\n    tag_300:\n        /* \"launchpad/contracts/launchpadChild.sol\":11978:12033  (tokenAmountForLiquidity *... */\n      tag_302\n      swap2\n      swap1\n      tag_299\n      jump\t// in\n    tag_302:\n        /* \"launchpad/contracts/launchpadChild.sol\":12040:12045  token */\n      sload(0x18)\n        /* \"launchpad/contracts/launchpadChild.sol\":12062:12068  router */\n      sload(0x16)\n        /* \"launchpad/contracts/launchpadChild.sol\":12040:12101  token.approve(address(router), actualTokenAmountForLiquidity) */\n      mload(0x40)\n      shl(0xe0, 0x095ea7b3)\n      dup2\n      mstore\n      sub(shl(0xa0, 0x01), 0x01)\n        /* \"launchpad/contracts/launchpadChild.sol\":12062:12068  router */\n      swap2\n      dup3\n      and\n        /* \"launchpad/contracts/launchpadChild.sol\":12040:12101  token.approve(address(router), actualTokenAmountForLiquidity) */\n      0x04\n      dup3\n      add\n        /* \"#utility.yul\":4196:4270   */\n      mstore\n        /* \"#utility.yul\":4286:4304   */\n      0x24\n      dup2\n      add\n        /* \"#utility.yul\":4279:4313   */\n      dup5\n      swap1\n      mstore\n        /* \"launchpad/contracts/launchpadChild.sol\":11938:12033  uint256 actualTokenAmountForLiquidity = (tokenAmountForLiquidity *... */\n      swap3\n      swap4\n      pop\n        /* \"launchpad/contracts/launchpadChild.sol\":12040:12045  token */\n      and\n      swap1\n        /* \"launchpad/contracts/launchpadChild.sol\":12040:12053  token.approve */\n      0x095ea7b3\n      swap1\n        /* \"#utility.yul\":4169:4187   */\n      0x44\n      add\n        /* \"launchpad/contracts/launchpadChild.sol\":12040:12101  token.approve(address(router), actualTokenAmountForLiquidity) */\n      0x20\n      mload(0x40)\n      dup1\n      dup4\n      sub\n      dup2\n      0x00\n      dup8\n      dup1\n      extcodesize\n      iszero\n      dup1\n      iszero\n      tag_305\n      jumpi\n      0x00\n      dup1\n      revert\n    tag_305:\n      pop\n      gas\n      call\n      iszero\n      dup1\n      iszero\n      tag_307\n      jumpi\n      returndatasize\n      0x00\n      dup1\n      returndatacopy\n      revert(0x00, returndatasize)\n    tag_307:\n      pop\n      pop\n      pop\n      pop\n      mload(0x40)\n      returndatasize\n      not(0x1f)\n      0x1f\n      dup3\n      add\n      and\n      dup3\n      add\n      dup1\n      0x40\n      mstore\n      pop\n      dup2\n      add\n      swap1\n      tag_308\n      swap2\n      swap1\n      tag_309\n      jump\t// in\n    tag_308:\n      pop\n        /* \"launchpad/contracts/launchpadChild.sol\":12107:12113  router */\n      sload(0x16)\n        /* \"launchpad/contracts/launchpadChild.sol\":12175:12180  token */\n      sload(0x18)\n      sub(shl(0xa0, 0x01), 0x01)\n        /* \"launchpad/contracts/launchpadChild.sol\":12107:12113  router */\n      swap2\n      dup3\n      and\n      swap2\n        /* \"launchpad/contracts/launchpadChild.sol\":12107:12129  router.addLiquidityETH */\n      0xf305d719\n      swap2\n        /* \"launchpad/contracts/launchpadChild.sol\":12137:12158  ethAmountForLiquidity */\n      dup6\n      swap2\n        /* \"launchpad/contracts/launchpadChild.sol\":12175:12180  token */\n      and\n        /* \"launchpad/contracts/launchpadChild.sol\":12189:12218  actualTokenAmountForLiquidity */\n      dup5\n        /* \"launchpad/contracts/launchpadChild.sol\":12107:12113  router */\n      0x00\n      dup1\n        /* \"launchpad/contracts/launchpadChild.sol\":12252:12256  this */\n      address\n        /* \"launchpad/contracts/launchpadChild.sol\":12265:12287  block.timestamp + 1000 */\n      tag_310\n        /* \"launchpad/contracts/launchpadChild.sol\":12265:12280  block.timestamp */\n      timestamp\n        /* \"launchpad/contracts/launchpadChild.sol\":12283:12287  1000 */\n      0x03e8\n        /* \"launchpad/contracts/launchpadChild.sol\":12265:12287  block.timestamp + 1000 */\n      tag_311\n      jump\t// in\n    tag_310:\n        /* \"launchpad/contracts/launchpadChild.sol\":12107:12293  router.addLiquidityETH{value: ethAmountForLiquidity}(... */\n      mload(0x40)\n      0xe0\n      dup10\n      swap1\n      shl\n      0xffffffff00000000000000000000000000000000000000000000000000000000\n      and\n      dup2\n      mstore\n      sub(shl(0xa0, 0x01), 0x01)\n        /* \"#utility.yul\":4706:4721   */\n      swap7\n      dup8\n      and\n        /* \"launchpad/contracts/launchpadChild.sol\":12107:12293  router.addLiquidityETH{value: ethAmountForLiquidity}(... */\n      0x04\n      dup3\n      add\n        /* \"#utility.yul\":4688:4722   */\n      mstore\n        /* \"#utility.yul\":4738:4756   */\n      0x24\n      dup2\n      add\n        /* \"#utility.yul\":4731:4765   */\n      swap6\n      swap1\n      swap6\n      mstore\n        /* \"#utility.yul\":4781:4799   */\n      0x44\n      dup6\n      add\n        /* \"#utility.yul\":4774:4808   */\n      swap4\n      swap1\n      swap4\n      mstore\n        /* \"#utility.yul\":4824:4842   */\n      0x64\n      dup5\n      add\n        /* \"#utility.yul\":4817:4851   */\n      swap2\n      swap1\n      swap2\n      mstore\n        /* \"#utility.yul\":4888:4903   */\n      swap1\n      swap3\n      and\n        /* \"#utility.yul\":4867:4886   */\n      0x84\n      dup3\n      add\n        /* \"#utility.yul\":4860:4904   */\n      mstore\n        /* \"#utility.yul\":4920:4939   */\n      0xa4\n      dup2\n      add\n        /* \"#utility.yul\":4913:4948   */\n      swap2\n      swap1\n      swap2\n      mstore\n        /* \"#utility.yul\":4599:4618   */\n      0xc4\n      add\n        /* \"launchpad/contracts/launchpadChild.sol\":12107:12293  router.addLiquidityETH{value: ethAmountForLiquidity}(... */\n      0x60\n      mload(0x40)\n      dup1\n      dup4\n      sub\n      dup2\n      dup6\n      dup9\n      dup1\n      extcodesize\n      iszero\n      dup1\n      iszero\n      tag_314\n      jumpi\n      0x00\n      dup1\n      revert\n    tag_314:\n      pop\n      gas\n      call\n      iszero\n      dup1\n      iszero\n      tag_316\n      jumpi\n      returndatasize\n      0x00\n      dup1\n      returndatacopy\n      revert(0x00, returndatasize)\n    tag_316:\n      pop\n      pop\n      pop\n      pop\n      pop\n      mload(0x40)\n      returndatasize\n      not(0x1f)\n      0x1f\n      dup3\n      add\n      and\n      dup3\n      add\n      dup1\n      0x40\n      mstore\n      pop\n      dup2\n      add\n      swap1\n      tag_317\n      swap2\n      swap1\n      tag_318\n      jump\t// in\n    tag_317:\n      pop\n      pop\n        /* \"launchpad/contracts/launchpadChild.sol\":12299:12305  master */\n      sload(0x15)\n        /* \"launchpad/contracts/launchpadChild.sol\":12299:12318  master.feesWallet() */\n      0x40\n      dup1\n      mload\n      shl(0xe2, 0x1f9134b3)\n      dup2\n      mstore\n      swap1\n      mload\n      sub(shl(0xa0, 0x01), 0x01)\n        /* \"launchpad/contracts/launchpadChild.sol\":12299:12305  master */\n      swap1\n      swap3\n      and\n      swap3\n      pop\n        /* \"launchpad/contracts/launchpadChild.sol\":12299:12316  master.feesWallet */\n      0x7e44d2cc\n      swap2\n        /* \"launchpad/contracts/launchpadChild.sol\":12299:12318  master.feesWallet() */\n      0x04\n      dup1\n      dup4\n      add\n      swap3\n      0x20\n      swap3\n      swap2\n      swap1\n      dup3\n      swap1\n      sub\n      add\n      dup2\n        /* \"launchpad/contracts/launchpadChild.sol\":12299:12305  master */\n      dup7\n        /* \"launchpad/contracts/launchpadChild.sol\":12299:12318  master.feesWallet() */\n      dup1\n      extcodesize\n      iszero\n      dup1\n      iszero\n      tag_319\n      jumpi\n      0x00\n      dup1\n      revert\n    tag_319:\n      pop\n      gas\n      staticcall\n      iszero\n      dup1\n      iszero\n      tag_321\n      jumpi\n      returndatasize\n      0x00\n      dup1\n      returndatacopy\n      revert(0x00, returndatasize)\n    tag_321:\n      pop\n      pop\n      pop\n      pop\n      mload(0x40)\n      returndatasize\n      not(0x1f)\n      0x1f\n      dup3\n      add\n      and\n      dup3\n      add\n      dup1\n      0x40\n      mstore\n      pop\n      dup2\n      add\n      swap1\n      tag_322\n      swap2\n      swap1\n      tag_323\n      jump\t// in\n    tag_322:\n      sub(shl(0xa0, 0x01), 0x01)\n        /* \"launchpad/contracts/launchpadChild.sol\":12299:12323  master.feesWallet().call */\n      and\n        /* \"launchpad/contracts/launchpadChild.sol\":12356:12362  10_000 */\n      0x2710\n        /* \"launchpad/contracts/launchpadChild.sol\":12347:12352  feeBP */\n      sload(0x07)\n        /* \"launchpad/contracts/launchpadChild.sol\":12333:12344  totalBuyEth */\n      sload(0x1e)\n        /* \"launchpad/contracts/launchpadChild.sol\":12333:12352  totalBuyEth * feeBP */\n      tag_324\n      swap2\n      swap1\n      tag_301\n      jump\t// in\n    tag_324:\n        /* \"launchpad/contracts/launchpadChild.sol\":12332:12362  (totalBuyEth * feeBP) / 10_000 */\n      tag_325\n      swap2\n      swap1\n      tag_299\n      jump\t// in\n    tag_325:\n        /* \"launchpad/contracts/launchpadChild.sol\":12299:12368  master.feesWallet().call{value: ((totalBuyEth * feeBP) / 10_000)}(\"\") */\n      mload(0x40)\n      0x00\n      dup2\n      dup2\n      dup2\n      dup6\n      dup8\n      gas\n      call\n      swap3\n      pop\n      pop\n      pop\n      returndatasize\n      dup1\n      0x00\n      dup2\n      eq\n      tag_330\n      jumpi\n      mload(0x40)\n      swap2\n      pop\n      and(add(returndatasize, 0x3f), not(0x1f))\n      dup3\n      add\n      0x40\n      mstore\n      returndatasize\n      dup3\n      mstore\n      returndatasize\n      0x00\n      0x20\n      dup5\n      add\n      returndatacopy\n      jump(tag_329)\n    tag_330:\n      0x60\n      swap2\n      pop\n    tag_329:\n      pop\n      pop\n        /* \"launchpad/contracts/launchpadChild.sol\":12374:12387  saleInitiator */\n      sload(0x1d)\n        /* \"launchpad/contracts/launchpadChild.sol\":12374:12426  saleInitiator.call{value: address(this).balance}(\"\") */\n      mload(0x40)\n      sub(shl(0xa0, 0x01), 0x01)\n        /* \"launchpad/contracts/launchpadChild.sol\":12374:12387  saleInitiator */\n      swap1\n      swap2\n      and\n      swap2\n      pop\n        /* \"launchpad/contracts/launchpadChild.sol\":12400:12421  address(this).balance */\n      selfbalance\n      swap1\n        /* \"launchpad/contracts/launchpadChild.sol\":12374:12426  saleInitiator.call{value: address(this).balance}(\"\") */\n      0x00\n      dup2\n      dup2\n      dup2\n        /* \"launchpad/contracts/launchpadChild.sol\":12400:12421  address(this).balance */\n      dup6\n        /* \"launchpad/contracts/launchpadChild.sol\":12374:12387  saleInitiator */\n      dup8\n        /* \"launchpad/contracts/launchpadChild.sol\":12374:12426  saleInitiator.call{value: address(this).balance}(\"\") */\n      gas\n      call\n      swap3\n      pop\n      pop\n      pop\n      returndatasize\n      dup1\n      0x00\n      dup2\n      eq\n      tag_334\n      jumpi\n      mload(0x40)\n      swap2\n      pop\n      and(add(returndatasize, 0x3f), not(0x1f))\n      dup3\n      add\n      0x40\n      mstore\n      returndatasize\n      dup3\n      mstore\n      returndatasize\n      0x00\n      0x20\n      dup5\n      add\n      returndatacopy\n      jump(tag_333)\n    tag_334:\n      0x60\n      swap2\n      pop\n    tag_333:\n      pop\n      pop\n        /* \"@openzeppelin/contracts/security/ReentrancyGuard.sol\":1701:1702  1 */\n      0x01\n        /* \"@openzeppelin/contracts/security/ReentrancyGuard.sol\":2628:2635  _status */\n      0x00\n        /* \"@openzeppelin/contracts/security/ReentrancyGuard.sol\":2628:2650  _status = _NOT_ENTERED */\n      sstore\n      pop\n      pop\n      pop\n        /* \"launchpad/contracts/launchpadChild.sol\":11462:12431  function endSaleAllowClaim() external onlyInitiator nonReentrant {... */\n      jump\t// out\n        /* \"launchpad/contracts/launchpadChild.sol\":9800:10285  function claimTokens() external nonReentrant {... */\n    tag_109:\n        /* \"@openzeppelin/contracts/security/ReentrancyGuard.sol\":1744:1745  2 */\n      0x02\n        /* \"@openzeppelin/contracts/security/ReentrancyGuard.sol\":2325:2332  _status */\n      sload(0x00)\n        /* \"@openzeppelin/contracts/security/ReentrancyGuard.sol\":2325:2344  _status != _ENTERED */\n      eq\n      iszero\n        /* \"@openzeppelin/contracts/security/ReentrancyGuard.sol\":2317:2380  require(_status != _ENTERED, \"ReentrancyGuard: reentrant call\") */\n      tag_336\n      jumpi\n      mload(0x40)\n      shl(0xe5, 0x461bcd)\n      dup2\n      mstore\n        /* \"#utility.yul\":15204:15206   */\n      0x20\n        /* \"@openzeppelin/contracts/security/ReentrancyGuard.sol\":2317:2380  require(_status != _ENTERED, \"ReentrancyGuard: reentrant call\") */\n      0x04\n      dup3\n      add\n        /* \"#utility.yul\":15186:15207   */\n      mstore\n        /* \"#utility.yul\":15243:15245   */\n      0x1f\n        /* \"#utility.yul\":15223:15241   */\n      0x24\n      dup3\n      add\n        /* \"#utility.yul\":15216:15246   */\n      mstore\n        /* \"#utility.yul\":15282:15315   */\n      0x5265656e7472616e637947756172643a207265656e7472616e742063616c6c00\n        /* \"#utility.yul\":15262:15280   */\n      0x44\n      dup3\n      add\n        /* \"#utility.yul\":15255:15316   */\n      mstore\n        /* \"#utility.yul\":15333:15351   */\n      0x64\n      add\n        /* \"@openzeppelin/contracts/security/ReentrancyGuard.sol\":2317:2380  require(_status != _ENTERED, \"ReentrancyGuard: reentrant call\") */\n      tag_268\n        /* \"#utility.yul\":15002:15357   */\n      jump\n        /* \"@openzeppelin/contracts/security/ReentrancyGuard.sol\":2317:2380  require(_status != _ENTERED, \"ReentrancyGuard: reentrant call\") */\n    tag_336:\n        /* \"@openzeppelin/contracts/security/ReentrancyGuard.sol\":1744:1745  2 */\n      0x02\n        /* \"@openzeppelin/contracts/security/ReentrancyGuard.sol\":2455:2462  _status */\n      0x00\n        /* \"@openzeppelin/contracts/security/ReentrancyGuard.sol\":2455:2473  _status = _ENTERED */\n      sstore\n        /* \"launchpad/contracts/launchpadChild.sol\":9867:9878  saleAborted */\n      sload(0x1f)\n      0x010000\n      swap1\n      div\n      0xff\n      and\n        /* \"launchpad/contracts/launchpadChild.sol\":9866:9878  !saleAborted */\n      iszero\n        /* \"launchpad/contracts/launchpadChild.sol\":9851:9947  require(... */\n      tag_339\n      jumpi\n      mload(0x40)\n      shl(0xe5, 0x461bcd)\n      dup2\n      mstore\n        /* \"#utility.yul\":13677:13679   */\n      0x20\n        /* \"launchpad/contracts/launchpadChild.sol\":9851:9947  require(... */\n      0x04\n      dup3\n      add\n        /* \"#utility.yul\":13659:13680   */\n      mstore\n        /* \"#utility.yul\":13716:13718   */\n      0x35\n        /* \"#utility.yul\":13696:13714   */\n      0x24\n      dup3\n      add\n        /* \"#utility.yul\":13689:13719   */\n      mstore\n        /* \"#utility.yul\":13755:13789   */\n      0x73616c65207761732061626f727465642c20706c656173652075736520636c61\n        /* \"#utility.yul\":13735:13753   */\n      0x44\n      dup3\n      add\n        /* \"#utility.yul\":13728:13790   */\n      mstore\n        /* \"#utility.yul\":13826:13849   */\n      0x696d5374616c6545746828292066756e6374696f6e0000000000000000000000\n        /* \"#utility.yul\":13806:13824   */\n      0x64\n      dup3\n      add\n        /* \"#utility.yul\":13799:13850   */\n      mstore\n        /* \"#utility.yul\":13867:13886   */\n      0x84\n      add\n        /* \"launchpad/contracts/launchpadChild.sol\":9851:9947  require(... */\n      tag_268\n        /* \"#utility.yul\":13475:13892   */\n      jump\n        /* \"launchpad/contracts/launchpadChild.sol\":9851:9947  require(... */\n    tag_339:\n        /* \"launchpad/contracts/launchpadChild.sol\":9975:9985  msg.sender */\n      caller\n        /* \"launchpad/contracts/launchpadChild.sol\":9989:9990  0 */\n      0x00\n        /* \"launchpad/contracts/launchpadChild.sol\":9961:9986  userBuyAmount[msg.sender] */\n      swap1\n      dup2\n      mstore\n        /* \"launchpad/contracts/launchpadChild.sol\":9961:9974  userBuyAmount */\n      0x21\n        /* \"launchpad/contracts/launchpadChild.sol\":9961:9986  userBuyAmount[msg.sender] */\n      0x20\n      mstore\n      0x40\n      swap1\n      keccak256\n      sload\n        /* \"launchpad/contracts/launchpadChild.sol\":9953:10026  require(userBuyAmount[msg.sender] > 0, \"user hasn't any tokens to claim\") */\n      tag_342\n      jumpi\n      mload(0x40)\n      shl(0xe5, 0x461bcd)\n      dup2\n      mstore\n        /* \"#utility.yul\":7747:7749   */\n      0x20\n        /* \"launchpad/contracts/launchpadChild.sol\":9953:10026  require(userBuyAmount[msg.sender] > 0, \"user hasn't any tokens to claim\") */\n      0x04\n      dup3\n      add\n        /* \"#utility.yul\":7729:7750   */\n      mstore\n        /* \"#utility.yul\":7786:7788   */\n      0x1f\n        /* \"#utility.yul\":7766:7784   */\n      0x24\n      dup3\n      add\n        /* \"#utility.yul\":7759:7789   */\n      mstore\n        /* \"#utility.yul\":7825:7858   */\n      0x75736572206861736e277420616e7920746f6b656e7320746f20636c61696d00\n        /* \"#utility.yul\":7805:7823   */\n      0x44\n      dup3\n      add\n        /* \"#utility.yul\":7798:7859   */\n      mstore\n        /* \"#utility.yul\":7876:7894   */\n      0x64\n      add\n        /* \"launchpad/contracts/launchpadChild.sol\":9953:10026  require(userBuyAmount[msg.sender] > 0, \"user hasn't any tokens to claim\") */\n      tag_268\n        /* \"#utility.yul\":7545:7900   */\n      jump\n        /* \"launchpad/contracts/launchpadChild.sol\":9953:10026  require(userBuyAmount[msg.sender] > 0, \"user hasn't any tokens to claim\") */\n    tag_342:\n        /* \"launchpad/contracts/launchpadChild.sol\":10040:10049  saleEnded */\n      sload(0x1f)\n      0x0100\n      swap1\n      div\n      0xff\n      and\n        /* \"launchpad/contracts/launchpadChild.sol\":10032:10089  require(saleEnded, \"initiator hasn't ended the sale yet\") */\n      tag_345\n      jumpi\n      mload(0x40)\n      shl(0xe5, 0x461bcd)\n      dup2\n      mstore\n        /* \"#utility.yul\":14800:14802   */\n      0x20\n        /* \"launchpad/contracts/launchpadChild.sol\":10032:10089  require(saleEnded, \"initiator hasn't ended the sale yet\") */\n      0x04\n      dup3\n      add\n        /* \"#utility.yul\":14782:14803   */\n      mstore\n        /* \"#utility.yul\":14839:14841   */\n      0x23\n        /* \"#utility.yul\":14819:14837   */\n      0x24\n      dup3\n      add\n        /* \"#utility.yul\":14812:14842   */\n      mstore\n        /* \"#utility.yul\":14878:14912   */\n      0x696e69746961746f72206861736e277420656e646564207468652073616c6520\n        /* \"#utility.yul\":14858:14876   */\n      0x44\n      dup3\n      add\n        /* \"#utility.yul\":14851:14913   */\n      mstore\n      shl(0xea, 0x1e595d)\n        /* \"#utility.yul\":14929:14947   */\n      0x64\n      dup3\n      add\n        /* \"#utility.yul\":14922:14955   */\n      mstore\n        /* \"#utility.yul\":14972:14991   */\n      0x84\n      add\n        /* \"launchpad/contracts/launchpadChild.sol\":10032:10089  require(saleEnded, \"initiator hasn't ended the sale yet\") */\n      tag_268\n        /* \"#utility.yul\":14598:14997   */\n      jump\n        /* \"launchpad/contracts/launchpadChild.sol\":10032:10089  require(saleEnded, \"initiator hasn't ended the sale yet\") */\n    tag_345:\n        /* \"launchpad/contracts/launchpadChild.sol\":10148:10167  saleTokensPerOneEth */\n      sload(0x0b)\n        /* \"launchpad/contracts/launchpadChild.sol\":10134:10144  msg.sender */\n      caller\n        /* \"launchpad/contracts/launchpadChild.sol\":10096:10117  uint256 amountToClaim */\n      0x00\n        /* \"launchpad/contracts/launchpadChild.sol\":10120:10145  userBuyAmount[msg.sender] */\n      swap1\n      dup2\n      mstore\n        /* \"launchpad/contracts/launchpadChild.sol\":10120:10133  userBuyAmount */\n      0x21\n        /* \"launchpad/contracts/launchpadChild.sol\":10120:10145  userBuyAmount[msg.sender] */\n      0x20\n      mstore\n      0x40\n      dup2\n      keccak256\n      sload\n        /* \"launchpad/contracts/launchpadChild.sol\":10096:10117  uint256 amountToClaim */\n      swap1\n      swap2\n        /* \"launchpad/contracts/launchpadChild.sol\":10120:10167  userBuyAmount[msg.sender] * saleTokensPerOneEth */\n      tag_348\n      swap2\n      tag_301\n      jump\t// in\n    tag_348:\n        /* \"launchpad/contracts/launchpadChild.sol\":10187:10197  msg.sender */\n      caller\n        /* \"launchpad/contracts/launchpadChild.sol\":10201:10202  0 */\n      0x00\n        /* \"launchpad/contracts/launchpadChild.sol\":10173:10198  userBuyAmount[msg.sender] */\n      swap1\n      dup2\n      mstore\n        /* \"launchpad/contracts/launchpadChild.sol\":10173:10186  userBuyAmount */\n      0x21\n        /* \"launchpad/contracts/launchpadChild.sol\":10173:10198  userBuyAmount[msg.sender] */\n      0x20\n      mstore\n      0x40\n      dup1\n      dup3\n      keccak256\n        /* \"launchpad/contracts/launchpadChild.sol\":10173:10202  userBuyAmount[msg.sender] = 0 */\n      swap2\n      swap1\n      swap2\n      sstore\n        /* \"launchpad/contracts/launchpadChild.sol\":10213:10233  Debug(amountToClaim) */\n      mload\n        /* \"launchpad/contracts/launchpadChild.sol\":10096:10167  uint256 amountToClaim = userBuyAmount[msg.sender] * saleTokensPerOneEth */\n      swap1\n      swap2\n      pop\n        /* \"launchpad/contracts/launchpadChild.sol\":10213:10233  Debug(amountToClaim) */\n      0x8a36f5a234186d446e36a7df36ace663a05a580d9bea2dd899c6dd76a075d5fa\n      swap1\n      tag_349\n      swap1\n        /* \"launchpad/contracts/launchpadChild.sol\":10096:10167  uint256 amountToClaim = userBuyAmount[msg.sender] * saleTokensPerOneEth */\n      dup4\n        /* \"#utility.yul\":15508:15533   */\n      dup2\n      mstore\n        /* \"#utility.yul\":15496:15498   */\n      0x20\n        /* \"#utility.yul\":15481:15499   */\n      add\n      swap1\n        /* \"#utility.yul\":15362:15539   */\n      jump\n        /* \"launchpad/contracts/launchpadChild.sol\":10213:10233  Debug(amountToClaim) */\n    tag_349:\n      mload(0x40)\n      dup1\n      swap2\n      sub\n      swap1\n      log1\n        /* \"launchpad/contracts/launchpadChild.sol\":10239:10244  token */\n      sload(0x18)\n        /* \"launchpad/contracts/launchpadChild.sol\":10239:10280  token.transfer(msg.sender, amountToClaim) */\n      mload(0x40)\n      shl(0xe0, 0xa9059cbb)\n      dup2\n      mstore\n        /* \"launchpad/contracts/launchpadChild.sol\":10254:10264  msg.sender */\n      caller\n        /* \"launchpad/contracts/launchpadChild.sol\":10239:10280  token.transfer(msg.sender, amountToClaim) */\n      0x04\n      dup3\n      add\n        /* \"#utility.yul\":4196:4270   */\n      mstore\n        /* \"#utility.yul\":4286:4304   */\n      0x24\n      dup2\n      add\n        /* \"#utility.yul\":4279:4313   */\n      dup4\n      swap1\n      mstore\n      sub(shl(0xa0, 0x01), 0x01)\n        /* \"launchpad/contracts/launchpadChild.sol\":10239:10244  token */\n      swap1\n      swap2\n      and\n      swap1\n        /* \"launchpad/contracts/launchpadChild.sol\":10239:10253  token.transfer */\n      0xa9059cbb\n      swap1\n        /* \"#utility.yul\":4169:4187   */\n      0x44\n      add\n        /* \"launchpad/contracts/launchpadChild.sol\":10239:10280  token.transfer(msg.sender, amountToClaim) */\n      0x20\n      mload(0x40)\n      dup1\n      dup4\n      sub\n      dup2\n      0x00\n      dup8\n      dup1\n      extcodesize\n      iszero\n      dup1\n      iszero\n      tag_351\n      jumpi\n      0x00\n      dup1\n      revert\n    tag_351:\n      pop\n      gas\n      call\n      iszero\n      dup1\n      iszero\n      tag_353\n      jumpi\n      returndatasize\n      0x00\n      dup1\n      returndatacopy\n      revert(0x00, returndatasize)\n    tag_353:\n      pop\n      pop\n      pop\n      pop\n      mload(0x40)\n      returndatasize\n      not(0x1f)\n      0x1f\n      dup3\n      add\n      and\n      dup3\n      add\n      dup1\n      0x40\n      mstore\n      pop\n      dup2\n      add\n      swap1\n      tag_354\n      swap2\n      swap1\n      tag_309\n      jump\t// in\n    tag_354:\n      pop\n      pop\n        /* \"@openzeppelin/contracts/security/ReentrancyGuard.sol\":1701:1702  1 */\n      0x01\n        /* \"@openzeppelin/contracts/security/ReentrancyGuard.sol\":2628:2635  _status */\n      0x00\n        /* \"@openzeppelin/contracts/security/ReentrancyGuard.sol\":2628:2650  _status = _NOT_ENTERED */\n      sstore\n        /* \"launchpad/contracts/launchpadChild.sol\":9800:10285  function claimTokens() external nonReentrant {... */\n      jump\t// out\n        /* \"launchpad/contracts/launchpadChild.sol\":6617:6920  function finalizeSale() external onlyInitiator {... */\n    tag_121:\n        /* \"launchpad/contracts/launchpadChild.sol\":6052:6065  saleInitiator */\n      and(sub(shl(0xa0, 0x01), 0x01), sload(0x1d))\n        /* \"launchpad/contracts/launchpadChild.sol\":6069:6079  msg.sender */\n      caller\n        /* \"launchpad/contracts/launchpadChild.sol\":6052:6079  saleInitiator == msg.sender */\n      eq\n        /* \"launchpad/contracts/launchpadChild.sol\":6044:6111  require(saleInitiator == msg.sender, \"caller is not the initiator\") */\n      tag_356\n      jumpi\n      mload(0x40)\n      shl(0xe5, 0x461bcd)\n      dup2\n      mstore\n        /* \"#utility.yul\":11803:11805   */\n      0x20\n        /* \"launchpad/contracts/launchpadChild.sol\":6044:6111  require(saleInitiator == msg.sender, \"caller is not the initiator\") */\n      0x04\n      dup3\n      add\n        /* \"#utility.yul\":11785:11806   */\n      mstore\n        /* \"#utility.yul\":11842:11844   */\n      0x1b\n        /* \"#utility.yul\":11822:11840   */\n      0x24\n      dup3\n      add\n        /* \"#utility.yul\":11815:11845   */\n      mstore\n        /* \"#utility.yul\":11881:11910   */\n      0x63616c6c6572206973206e6f742074686520696e69746961746f720000000000\n        /* \"#utility.yul\":11861:11879   */\n      0x44\n      dup3\n      add\n        /* \"#utility.yul\":11854:11911   */\n      mstore\n        /* \"#utility.yul\":11928:11946   */\n      0x64\n      add\n        /* \"launchpad/contracts/launchpadChild.sol\":6044:6111  require(saleInitiator == msg.sender, \"caller is not the initiator\") */\n      tag_268\n        /* \"#utility.yul\":11601:11952   */\n      jump\n        /* \"launchpad/contracts/launchpadChild.sol\":6044:6111  require(saleInitiator == msg.sender, \"caller is not the initiator\") */\n    tag_356:\n        /* \"launchpad/contracts/launchpadChild.sol\":6721:6732  saleAborted */\n      sload(0x1f)\n      0x010000\n      swap1\n      div\n      0xff\n      and\n        /* \"launchpad/contracts/launchpadChild.sol\":6720:6732  !saleAborted */\n      iszero\n        /* \"launchpad/contracts/launchpadChild.sol\":6712:6753  require(!saleAborted, \"sale was aborted\") */\n      tag_359\n      jumpi\n      mload(0x40)\n      shl(0xe5, 0x461bcd)\n      dup2\n      mstore\n        /* \"#utility.yul\":14099:14101   */\n      0x20\n        /* \"launchpad/contracts/launchpadChild.sol\":6712:6753  require(!saleAborted, \"sale was aborted\") */\n      0x04\n      dup3\n      add\n        /* \"#utility.yul\":14081:14102   */\n      mstore\n        /* \"#utility.yul\":14138:14140   */\n      0x10\n        /* \"#utility.yul\":14118:14136   */\n      0x24\n      dup3\n      add\n        /* \"#utility.yul\":14111:14141   */\n      mstore\n      shl(0x82, 0x1cd85b19481dd85cc818589bdc9d1959)\n        /* \"#utility.yul\":14157:14175   */\n      0x44\n      dup3\n      add\n        /* \"#utility.yul\":14150:14196   */\n      mstore\n        /* \"#utility.yul\":14213:14231   */\n      0x64\n      add\n        /* \"launchpad/contracts/launchpadChild.sol\":6712:6753  require(!saleAborted, \"sale was aborted\") */\n      tag_268\n        /* \"#utility.yul\":13897:14237   */\n      jump\n        /* \"launchpad/contracts/launchpadChild.sol\":6712:6753  require(!saleAborted, \"sale was aborted\") */\n    tag_359:\n        /* \"launchpad/contracts/launchpadChild.sol\":6808:6824  tokenTotalAmount */\n      sload(0x02)\n        /* \"launchpad/contracts/launchpadChild.sol\":6774:6779  token */\n      sload(0x18)\n        /* \"launchpad/contracts/launchpadChild.sol\":6774:6804  token.balanceOf(address(this)) */\n      mload(0x40)\n      shl(0xe0, 0x70a08231)\n      dup2\n      mstore\n        /* \"launchpad/contracts/launchpadChild.sol\":6798:6802  this */\n      address\n        /* \"launchpad/contracts/launchpadChild.sol\":6774:6804  token.balanceOf(address(this)) */\n      0x04\n      dup3\n      add\n        /* \"#utility.yul\":3690:3764   */\n      mstore\n      sub(shl(0xa0, 0x01), 0x01)\n        /* \"launchpad/contracts/launchpadChild.sol\":6774:6779  token */\n      swap1\n      swap2\n      and\n      swap1\n        /* \"launchpad/contracts/launchpadChild.sol\":6774:6789  token.balanceOf */\n      0x70a08231\n      swap1\n        /* \"#utility.yul\":3663:3681   */\n      0x24\n      add\n        /* \"launchpad/contracts/launchpadChild.sol\":6774:6804  token.balanceOf(address(this)) */\n      0x20\n      mload(0x40)\n      dup1\n      dup4\n      sub\n      dup2\n      dup7\n      dup1\n      extcodesize\n      iszero\n      dup1\n      iszero\n      tag_362\n      jumpi\n      0x00\n      dup1\n      revert\n    tag_362:\n      pop\n      gas\n      staticcall\n      iszero\n      dup1\n      iszero\n      tag_364\n      jumpi\n      returndatasize\n      0x00\n      dup1\n      returndatacopy\n      revert(0x00, returndatasize)\n    tag_364:\n      pop\n      pop\n      pop\n      pop\n      mload(0x40)\n      returndatasize\n      not(0x1f)\n      0x1f\n      dup3\n      add\n      and\n      dup3\n      add\n      dup1\n      0x40\n      mstore\n      pop\n      dup2\n      add\n      swap1\n      tag_365\n      swap2\n      swap1\n      tag_366\n      jump\t// in\n    tag_365:\n        /* \"launchpad/contracts/launchpadChild.sol\":6774:6824  token.balanceOf(address(this)) >= tokenTotalAmount */\n      lt\n      iszero\n        /* \"launchpad/contracts/launchpadChild.sol\":6759:6889  require(... */\n      tag_367\n      jumpi\n      mload(0x40)\n      shl(0xe5, 0x461bcd)\n      dup2\n      mstore\n        /* \"#utility.yul\":9927:9929   */\n      0x20\n        /* \"launchpad/contracts/launchpadChild.sol\":6759:6889  require(... */\n      0x04\n      dup3\n      add\n        /* \"#utility.yul\":9909:9930   */\n      mstore\n        /* \"#utility.yul\":9966:9968   */\n      0x31\n        /* \"#utility.yul\":9946:9964   */\n      0x24\n      dup3\n      add\n        /* \"#utility.yul\":9939:9969   */\n      mstore\n        /* \"#utility.yul\":10005:10039   */\n      0x696e73756666696369656e7420616d6f756e74206f6620746f6b656e73207365\n        /* \"#utility.yul\":9985:10003   */\n      0x44\n      dup3\n      add\n        /* \"#utility.yul\":9978:10040   */\n      mstore\n        /* \"#utility.yul\":10076:10095   */\n      0x6e7420746f207468652061646472657373000000000000000000000000000000\n        /* \"#utility.yul\":10056:10074   */\n      0x64\n      dup3\n      add\n        /* \"#utility.yul\":10049:10096   */\n      mstore\n        /* \"#utility.yul\":10113:10132   */\n      0x84\n      add\n        /* \"launchpad/contracts/launchpadChild.sol\":6759:6889  require(... */\n      tag_268\n        /* \"#utility.yul\":9725:10138   */\n      jump\n        /* \"launchpad/contracts/launchpadChild.sol\":6759:6889  require(... */\n    tag_367:\n        /* \"launchpad/contracts/launchpadChild.sol\":6895:6908  saleFinalized */\n      0x1f\n        /* \"launchpad/contracts/launchpadChild.sol\":6895:6915  saleFinalized = true */\n      dup1\n      sload\n      not(0xff)\n      and\n        /* \"launchpad/contracts/launchpadChild.sol\":6911:6915  true */\n      0x01\n        /* \"launchpad/contracts/launchpadChild.sol\":6895:6915  saleFinalized = true */\n      or\n      swap1\n      sstore\n        /* \"launchpad/contracts/launchpadChild.sol\":6617:6920  function finalizeSale() external onlyInitiator {... */\n      jump\t// out\n        /* \"launchpad/contracts/launchpadChild.sol\":7821:8826  function buyTokensWhitelist(bytes memory signature)... */\n    tag_125:\n        /* \"@openzeppelin/contracts/security/ReentrancyGuard.sol\":1744:1745  2 */\n      0x02\n        /* \"@openzeppelin/contracts/security/ReentrancyGuard.sol\":2325:2332  _status */\n      sload(0x00)\n        /* \"@openzeppelin/contracts/security/ReentrancyGuard.sol\":2325:2344  _status != _ENTERED */\n      eq\n      iszero\n        /* \"@openzeppelin/contracts/security/ReentrancyGuard.sol\":2317:2380  require(_status != _ENTERED, \"ReentrancyGuard: reentrant call\") */\n      tag_371\n      jumpi\n      mload(0x40)\n      shl(0xe5, 0x461bcd)\n      dup2\n      mstore\n        /* \"#utility.yul\":15204:15206   */\n      0x20\n        /* \"@openzeppelin/contracts/security/ReentrancyGuard.sol\":2317:2380  require(_status != _ENTERED, \"ReentrancyGuard: reentrant call\") */\n      0x04\n      dup3\n      add\n        /* \"#utility.yul\":15186:15207   */\n      mstore\n        /* \"#utility.yul\":15243:15245   */\n      0x1f\n        /* \"#utility.yul\":15223:15241   */\n      0x24\n      dup3\n      add\n        /* \"#utility.yul\":15216:15246   */\n      mstore\n        /* \"#utility.yul\":15282:15315   */\n      0x5265656e7472616e637947756172643a207265656e7472616e742063616c6c00\n        /* \"#utility.yul\":15262:15280   */\n      0x44\n      dup3\n      add\n        /* \"#utility.yul\":15255:15316   */\n      mstore\n        /* \"#utility.yul\":15333:15351   */\n      0x64\n      add\n        /* \"@openzeppelin/contracts/security/ReentrancyGuard.sol\":2317:2380  require(_status != _ENTERED, \"ReentrancyGuard: reentrant call\") */\n      tag_268\n        /* \"#utility.yul\":15002:15357   */\n      jump\n        /* \"@openzeppelin/contracts/security/ReentrancyGuard.sol\":2317:2380  require(_status != _ENTERED, \"ReentrancyGuard: reentrant call\") */\n    tag_371:\n        /* \"@openzeppelin/contracts/security/ReentrancyGuard.sol\":1744:1745  2 */\n      0x02\n        /* \"@openzeppelin/contracts/security/ReentrancyGuard.sol\":2455:2462  _status */\n      0x00\n        /* \"@openzeppelin/contracts/security/ReentrancyGuard.sol\":2455:2473  _status = _ENTERED */\n      sstore\n        /* \"@openzeppelin/contracts/security/Pausable.sol\":1168:1175  _paused */\n      and(0xff, sload(0x01))\n        /* \"@openzeppelin/contracts/security/Pausable.sol\":1411:1420  !paused() */\n      iszero\n        /* \"@openzeppelin/contracts/security/Pausable.sol\":1403:1441  require(!paused(), \"Pausable: paused\") */\n      tag_375\n      jumpi\n      mload(0x40)\n      shl(0xe5, 0x461bcd)\n      dup2\n      mstore\n        /* \"#utility.yul\":9582:9584   */\n      0x20\n        /* \"@openzeppelin/contracts/security/Pausable.sol\":1403:1441  require(!paused(), \"Pausable: paused\") */\n      0x04\n      dup3\n      add\n        /* \"#utility.yul\":9564:9585   */\n      mstore\n        /* \"#utility.yul\":9621:9623   */\n      0x10\n        /* \"#utility.yul\":9601:9619   */\n      0x24\n      dup3\n      add\n        /* \"#utility.yul\":9594:9624   */\n      mstore\n      shl(0x82, 0x14185d5cd8589b194e881c185d5cd959)\n        /* \"#utility.yul\":9640:9658   */\n      0x44\n      dup3\n      add\n        /* \"#utility.yul\":9633:9679   */\n      mstore\n        /* \"#utility.yul\":9696:9714   */\n      0x64\n      add\n        /* \"@openzeppelin/contracts/security/Pausable.sol\":1403:1441  require(!paused(), \"Pausable: paused\") */\n      tag_268\n        /* \"#utility.yul\":9380:9720   */\n      jump\n        /* \"@openzeppelin/contracts/security/Pausable.sol\":1403:1441  require(!paused(), \"Pausable: paused\") */\n    tag_375:\n        /* \"launchpad/contracts/launchpadChild.sol\":7949:8001  verify(signature, msg.sender, saleId, block.chainid) */\n      tag_379\n        /* \"launchpad/contracts/launchpadChild.sol\":7956:7965  signature */\n      dup2\n        /* \"launchpad/contracts/launchpadChild.sol\":7967:7977  msg.sender */\n      caller\n        /* \"launchpad/contracts/launchpadChild.sol\":7979:7985  saleId */\n      sload(0x19)\n        /* \"launchpad/contracts/launchpadChild.sol\":7987:8000  block.chainid */\n      chainid\n        /* \"launchpad/contracts/launchpadChild.sol\":7949:7955  verify */\n      tag_241\n        /* \"launchpad/contracts/launchpadChild.sol\":7949:8001  verify(signature, msg.sender, saleId, block.chainid) */\n      jump\t// in\n    tag_379:\n        /* \"launchpad/contracts/launchpadChild.sol\":7941:8002  require(verify(signature, msg.sender, saleId, block.chainid)) */\n      tag_380\n      jumpi\n      0x00\n      dup1\n      revert\n    tag_380:\n        /* \"launchpad/contracts/launchpadChild.sol\":8017:8028  saleAborted */\n      sload(0x1f)\n      0x010000\n      swap1\n      div\n      0xff\n      and\n        /* \"launchpad/contracts/launchpadChild.sol\":8016:8028  !saleAborted */\n      iszero\n        /* \"launchpad/contracts/launchpadChild.sol\":8008:8049  require(!saleAborted, \"sale was aborted\") */\n      tag_381\n      jumpi\n      mload(0x40)\n      shl(0xe5, 0x461bcd)\n      dup2\n      mstore\n        /* \"#utility.yul\":14099:14101   */\n      0x20\n        /* \"launchpad/contracts/launchpadChild.sol\":8008:8049  require(!saleAborted, \"sale was aborted\") */\n      0x04\n      dup3\n      add\n        /* \"#utility.yul\":14081:14102   */\n      mstore\n        /* \"#utility.yul\":14138:14140   */\n      0x10\n        /* \"#utility.yul\":14118:14136   */\n      0x24\n      dup3\n      add\n        /* \"#utility.yul\":14111:14141   */\n      mstore\n      shl(0x82, 0x1cd85b19481dd85cc818589bdc9d1959)\n        /* \"#utility.yul\":14157:14175   */\n      0x44\n      dup3\n      add\n        /* \"#utility.yul\":14150:14196   */\n      mstore\n        /* \"#utility.yul\":14213:14231   */\n      0x64\n      add\n        /* \"launchpad/contracts/launchpadChild.sol\":8008:8049  require(!saleAborted, \"sale was aborted\") */\n      tag_268\n        /* \"#utility.yul\":13897:14237   */\n      jump\n        /* \"launchpad/contracts/launchpadChild.sol\":8008:8049  require(!saleAborted, \"sale was aborted\") */\n    tag_381:\n        /* \"launchpad/contracts/launchpadChild.sol\":8063:8076  saleFinalized */\n      and(0xff, sload(0x1f))\n        /* \"launchpad/contracts/launchpadChild.sol\":8055:8111  require(saleFinalized, \"sale hasn't been finalized yet\") */\n      tag_383\n      jumpi\n      mload(0x40)\n      shl(0xe5, 0x461bcd)\n      dup2\n      mstore\n        /* \"#utility.yul\":11039:11041   */\n      0x20\n        /* \"launchpad/contracts/launchpadChild.sol\":8055:8111  require(saleFinalized, \"sale hasn't been finalized yet\") */\n      0x04\n      dup3\n      add\n        /* \"#utility.yul\":11021:11042   */\n      mstore\n        /* \"#utility.yul\":11078:11080   */\n      0x1e\n        /* \"#utility.yul\":11058:11076   */\n      0x24\n      dup3\n      add\n        /* \"#utility.yul\":11051:11081   */\n      mstore\n        /* \"#utility.yul\":11117:11149   */\n      0x73616c65206861736e2774206265656e2066696e616c697a6564207965740000\n        /* \"#utility.yul\":11097:11115   */\n      0x44\n      dup3\n      add\n        /* \"#utility.yul\":11090:11150   */\n      mstore\n        /* \"#utility.yul\":11167:11185   */\n      0x64\n      add\n        /* \"launchpad/contracts/launchpadChild.sol\":8055:8111  require(saleFinalized, \"sale hasn't been finalized yet\") */\n      tag_268\n        /* \"#utility.yul\":10837:11191   */\n      jump\n        /* \"launchpad/contracts/launchpadChild.sol\":8055:8111  require(saleFinalized, \"sale hasn't been finalized yet\") */\n    tag_383:\n        /* \"launchpad/contracts/launchpadChild.sol\":8143:8150  endTime */\n      sload(0x09)\n        /* \"launchpad/contracts/launchpadChild.sol\":8125:8140  block.timestamp */\n      timestamp\n        /* \"launchpad/contracts/launchpadChild.sol\":8125:8150  block.timestamp < endTime */\n      lt\n        /* \"launchpad/contracts/launchpadChild.sol\":8117:8169  require(block.timestamp < endTime, \"sale has ended\") */\n      tag_386\n      jumpi\n      mload(0x40)\n      shl(0xe5, 0x461bcd)\n      dup2\n      mstore\n        /* \"#utility.yul\":10696:10698   */\n      0x20\n        /* \"launchpad/contracts/launchpadChild.sol\":8117:8169  require(block.timestamp < endTime, \"sale has ended\") */\n      0x04\n      dup3\n      add\n        /* \"#utility.yul\":10678:10699   */\n      mstore\n        /* \"#utility.yul\":10735:10737   */\n      0x0e\n        /* \"#utility.yul\":10715:10733   */\n      0x24\n      dup3\n      add\n        /* \"#utility.yul\":10708:10738   */\n      mstore\n      shl(0x92, 0x1cd85b19481a185cc8195b991959)\n        /* \"#utility.yul\":10754:10772   */\n      0x44\n      dup3\n      add\n        /* \"#utility.yul\":10747:10791   */\n      mstore\n        /* \"#utility.yul\":10808:10826   */\n      0x64\n      add\n        /* \"launchpad/contracts/launchpadChild.sol\":8117:8169  require(block.timestamp < endTime, \"sale has ended\") */\n      tag_268\n        /* \"#utility.yul\":10494:10832   */\n      jump\n        /* \"launchpad/contracts/launchpadChild.sol\":8117:8169  require(block.timestamp < endTime, \"sale has ended\") */\n    tag_386:\n        /* \"launchpad/contracts/launchpadChild.sol\":8201:8212  wlStartTime */\n      sload(0x0a)\n        /* \"launchpad/contracts/launchpadChild.sol\":8183:8198  block.timestamp */\n      timestamp\n        /* \"launchpad/contracts/launchpadChild.sol\":8183:8212  block.timestamp > wlStartTime */\n      gt\n        /* \"launchpad/contracts/launchpadChild.sol\":8175:8240  require(block.timestamp > wlStartTime, \"sale hasn't started yet\") */\n      tag_389\n      jumpi\n      mload(0x40)\n      shl(0xe5, 0x461bcd)\n      dup2\n      mstore\n        /* \"#utility.yul\":9230:9232   */\n      0x20\n        /* \"launchpad/contracts/launchpadChild.sol\":8175:8240  require(block.timestamp > wlStartTime, \"sale hasn't started yet\") */\n      0x04\n      dup3\n      add\n        /* \"#utility.yul\":9212:9233   */\n      mstore\n        /* \"#utility.yul\":9269:9271   */\n      0x17\n        /* \"#utility.yul\":9249:9267   */\n      0x24\n      dup3\n      add\n        /* \"#utility.yul\":9242:9272   */\n      mstore\n        /* \"#utility.yul\":9308:9333   */\n      0x73616c65206861736e2774207374617274656420796574000000000000000000\n        /* \"#utility.yul\":9288:9306   */\n      0x44\n      dup3\n      add\n        /* \"#utility.yul\":9281:9334   */\n      mstore\n        /* \"#utility.yul\":9351:9369   */\n      0x64\n      add\n        /* \"launchpad/contracts/launchpadChild.sol\":8175:8240  require(block.timestamp > wlStartTime, \"sale hasn't started yet\") */\n      tag_268\n        /* \"#utility.yul\":9028:9375   */\n      jump\n        /* \"launchpad/contracts/launchpadChild.sol\":8175:8240  require(block.timestamp > wlStartTime, \"sale hasn't started yet\") */\n    tag_389:\n        /* \"launchpad/contracts/launchpadChild.sol\":8302:8315  maxBuyPerUser */\n      sload(0x0f)\n        /* \"launchpad/contracts/launchpadChild.sol\":8287:8297  msg.sender */\n      caller\n        /* \"launchpad/contracts/launchpadChild.sol\":8273:8298  userBuyAmount[msg.sender] */\n      0x00\n      swap1\n      dup2\n      mstore\n        /* \"launchpad/contracts/launchpadChild.sol\":8273:8286  userBuyAmount */\n      0x21\n        /* \"launchpad/contracts/launchpadChild.sol\":8273:8298  userBuyAmount[msg.sender] */\n      0x20\n      mstore\n      0x40\n      swap1\n      keccak256\n      sload\n        /* \"launchpad/contracts/launchpadChild.sol\":8261:8298  msg.value + userBuyAmount[msg.sender] */\n      tag_392\n      swap1\n        /* \"launchpad/contracts/launchpadChild.sol\":8261:8270  msg.value */\n      callvalue\n        /* \"launchpad/contracts/launchpadChild.sol\":8261:8298  msg.value + userBuyAmount[msg.sender] */\n      tag_311\n      jump\t// in\n    tag_392:\n        /* \"launchpad/contracts/launchpadChild.sol\":8261:8315  msg.value + userBuyAmount[msg.sender] <= maxBuyPerUser */\n      gt\n      iszero\n        /* \"launchpad/contracts/launchpadChild.sol\":8246:8367  require(... */\n      tag_393\n      jumpi\n      mload(0x40)\n      shl(0xe5, 0x461bcd)\n      dup2\n      mstore\n        /* \"#utility.yul\":11398:11400   */\n      0x20\n        /* \"launchpad/contracts/launchpadChild.sol\":8246:8367  require(... */\n      0x04\n      dup3\n      add\n        /* \"#utility.yul\":11380:11401   */\n      mstore\n        /* \"#utility.yul\":11437:11439   */\n      0x24\n        /* \"#utility.yul\":11417:11435   */\n      dup1\n      dup3\n      add\n        /* \"#utility.yul\":11410:11440   */\n      mstore\n        /* \"#utility.yul\":11476:11510   */\n      0x796f7527726520747279696e6720746f2062757920746f6f206d616e7920746f\n        /* \"#utility.yul\":11456:11474   */\n      0x44\n      dup3\n      add\n        /* \"#utility.yul\":11449:11511   */\n      mstore\n      shl(0xe0, 0x6b656e73)\n        /* \"#utility.yul\":11527:11545   */\n      0x64\n      dup3\n      add\n        /* \"#utility.yul\":11520:11554   */\n      mstore\n        /* \"#utility.yul\":11571:11590   */\n      0x84\n      add\n        /* \"launchpad/contracts/launchpadChild.sol\":8246:8367  require(... */\n      tag_268\n        /* \"#utility.yul\":11196:11596   */\n      jump\n        /* \"launchpad/contracts/launchpadChild.sol\":8246:8367  require(... */\n    tag_393:\n        /* \"launchpad/contracts/launchpadChild.sol\":8394:8407  minBuyPerUser */\n      sload(0x10)\n        /* \"launchpad/contracts/launchpadChild.sol\":8381:8390  msg.value */\n      callvalue\n        /* \"launchpad/contracts/launchpadChild.sol\":8381:8407  msg.value >= minBuyPerUser */\n      lt\n      iszero\n        /* \"launchpad/contracts/launchpadChild.sol\":8373:8437  require(msg.value >= minBuyPerUser, \"you're not sending enough\") */\n      tag_396\n      jumpi\n      mload(0x40)\n      shl(0xe5, 0x461bcd)\n      dup2\n      mstore\n        /* \"#utility.yul\":8456:8458   */\n      0x20\n        /* \"launchpad/contracts/launchpadChild.sol\":8373:8437  require(msg.value >= minBuyPerUser, \"you're not sending enough\") */\n      0x04\n      dup3\n      add\n        /* \"#utility.yul\":8438:8459   */\n      mstore\n        /* \"#utility.yul\":8495:8497   */\n      0x19\n        /* \"#utility.yul\":8475:8493   */\n      0x24\n      dup3\n      add\n        /* \"#utility.yul\":8468:8498   */\n      mstore\n        /* \"#utility.yul\":8534:8561   */\n      0x796f75277265206e6f742073656e64696e6720656e6f75676800000000000000\n        /* \"#utility.yul\":8514:8532   */\n      0x44\n      dup3\n      add\n        /* \"#utility.yul\":8507:8562   */\n      mstore\n        /* \"#utility.yul\":8579:8597   */\n      0x64\n      add\n        /* \"launchpad/contracts/launchpadChild.sol\":8373:8437  require(msg.value >= minBuyPerUser, \"you're not sending enough\") */\n      tag_268\n        /* \"#utility.yul\":8254:8603   */\n      jump\n        /* \"launchpad/contracts/launchpadChild.sol\":8373:8437  require(msg.value >= minBuyPerUser, \"you're not sending enough\") */\n    tag_396:\n        /* \"launchpad/contracts/launchpadChild.sol\":8512:8530  tokenAmountForSale */\n      sload(0x11)\n        /* \"launchpad/contracts/launchpadChild.sol\":8492:8508  totalBuyTokens() */\n      tag_399\n        /* \"launchpad/contracts/launchpadChild.sol\":8492:8506  totalBuyTokens */\n      tag_223\n        /* \"launchpad/contracts/launchpadChild.sol\":8492:8508  totalBuyTokens() */\n      jump\t// in\n    tag_399:\n        /* \"launchpad/contracts/launchpadChild.sol\":8470:8489  saleTokensPerOneEth */\n      sload(0x0b)\n        /* \"launchpad/contracts/launchpadChild.sol\":8458:8489  msg.value * saleTokensPerOneEth */\n      tag_400\n      swap1\n        /* \"launchpad/contracts/launchpadChild.sol\":8458:8467  msg.value */\n      callvalue\n        /* \"launchpad/contracts/launchpadChild.sol\":8458:8489  msg.value * saleTokensPerOneEth */\n      tag_301\n      jump\t// in\n    tag_400:\n        /* \"launchpad/contracts/launchpadChild.sol\":8458:8508  msg.value * saleTokensPerOneEth + totalBuyTokens() */\n      tag_401\n      swap2\n      swap1\n      tag_311\n      jump\t// in\n    tag_401:\n        /* \"launchpad/contracts/launchpadChild.sol\":8458:8530  msg.value * saleTokensPerOneEth + totalBuyTokens() <= tokenAmountForSale */\n      gt\n      iszero\n        /* \"launchpad/contracts/launchpadChild.sol\":8443:8597  require(... */\n      tag_402\n      jumpi\n      mload(0x40)\n      shl(0xe5, 0x461bcd)\n      dup2\n      mstore\n        /* \"#utility.yul\":8810:8812   */\n      0x20\n        /* \"launchpad/contracts/launchpadChild.sol\":8443:8597  require(... */\n      0x04\n      dup3\n      add\n        /* \"#utility.yul\":8792:8813   */\n      mstore\n        /* \"#utility.yul\":8849:8851   */\n      0x33\n        /* \"#utility.yul\":8829:8847   */\n      0x24\n      dup3\n      add\n        /* \"#utility.yul\":8822:8852   */\n      mstore\n        /* \"#utility.yul\":8888:8922   */\n      0x7468657265206172656e277420656e6f75676820746f6b656e73206c6566742e\n        /* \"#utility.yul\":8868:8886   */\n      0x44\n      dup3\n      add\n        /* \"#utility.yul\":8861:8923   */\n      mstore\n      shl(0x6a, 0x08151c9e4818481b1bddd95c88185b5bdd5b9d)\n        /* \"#utility.yul\":8939:8957   */\n      0x64\n      dup3\n      add\n        /* \"#utility.yul\":8932:8981   */\n      mstore\n        /* \"#utility.yul\":8998:9017   */\n      0x84\n      add\n        /* \"launchpad/contracts/launchpadChild.sol\":8443:8597  require(... */\n      tag_268\n        /* \"#utility.yul\":8608:9023   */\n      jump\n        /* \"launchpad/contracts/launchpadChild.sol\":8443:8597  require(... */\n    tag_402:\n        /* \"launchpad/contracts/launchpadChild.sol\":8645:8652  hardcap */\n      sload(0x05)\n        /* \"launchpad/contracts/launchpadChild.sol\":8632:8641  msg.value */\n      callvalue\n        /* \"launchpad/contracts/launchpadChild.sol\":8618:8629  totalBuyEth */\n      sload(0x1e)\n        /* \"launchpad/contracts/launchpadChild.sol\":8618:8641  totalBuyEth + msg.value */\n      tag_405\n      swap2\n      swap1\n      tag_311\n      jump\t// in\n    tag_405:\n        /* \"launchpad/contracts/launchpadChild.sol\":8618:8652  totalBuyEth + msg.value <= hardcap */\n      gt\n      iszero\n        /* \"launchpad/contracts/launchpadChild.sol\":8603:8706  require(... */\n      tag_406\n      jumpi\n      mload(0x40)\n      shl(0xe5, 0x461bcd)\n      dup2\n      mstore\n        /* \"#utility.yul\":13270:13272   */\n      0x20\n        /* \"launchpad/contracts/launchpadChild.sol\":8603:8706  require(... */\n      0x04\n      dup3\n      add\n        /* \"#utility.yul\":13252:13273   */\n      mstore\n        /* \"#utility.yul\":13309:13311   */\n      0x26\n        /* \"#utility.yul\":13289:13307   */\n      0x24\n      dup3\n      add\n        /* \"#utility.yul\":13282:13312   */\n      mstore\n        /* \"#utility.yul\":13348:13382   */\n      0x6861726463617020697320726561636865642e205472792061206c6f77657220\n        /* \"#utility.yul\":13328:13346   */\n      0x44\n      dup3\n      add\n        /* \"#utility.yul\":13321:13383   */\n      mstore\n      shl(0xd2, 0x185b5bdd5b9d)\n        /* \"#utility.yul\":13399:13417   */\n      0x64\n      dup3\n      add\n        /* \"#utility.yul\":13392:13428   */\n      mstore\n        /* \"#utility.yul\":13445:13464   */\n      0x84\n      add\n        /* \"launchpad/contracts/launchpadChild.sol\":8603:8706  require(... */\n      tag_268\n        /* \"#utility.yul\":13068:13470   */\n      jump\n        /* \"launchpad/contracts/launchpadChild.sol\":8603:8706  require(... */\n    tag_406:\n        /* \"launchpad/contracts/launchpadChild.sol\":8755:8765  msg.sender */\n      caller\n        /* \"launchpad/contracts/launchpadChild.sol\":8741:8766  userBuyAmount[msg.sender] */\n      0x00\n      swap1\n      dup2\n      mstore\n        /* \"launchpad/contracts/launchpadChild.sol\":8741:8754  userBuyAmount */\n      0x21\n        /* \"launchpad/contracts/launchpadChild.sol\":8741:8766  userBuyAmount[msg.sender] */\n      0x20\n      mstore\n      0x40\n      swap1\n      keccak256\n      sload\n        /* \"launchpad/contracts/launchpadChild.sol\":8741:8778  userBuyAmount[msg.sender] + msg.value */\n      tag_409\n      swap1\n        /* \"launchpad/contracts/launchpadChild.sol\":8769:8778  msg.value */\n      callvalue\n      swap1\n        /* \"launchpad/contracts/launchpadChild.sol\":8741:8778  userBuyAmount[msg.sender] + msg.value */\n      tag_311\n      jump\t// in\n    tag_409:\n        /* \"launchpad/contracts/launchpadChild.sol\":8727:8737  msg.sender */\n      caller\n        /* \"launchpad/contracts/launchpadChild.sol\":8713:8738  userBuyAmount[msg.sender] */\n      0x00\n      swap1\n      dup2\n      mstore\n        /* \"launchpad/contracts/launchpadChild.sol\":8713:8726  userBuyAmount */\n      0x21\n        /* \"launchpad/contracts/launchpadChild.sol\":8713:8738  userBuyAmount[msg.sender] */\n      0x20\n      mstore\n      0x40\n      swap1\n      keccak256\n        /* \"launchpad/contracts/launchpadChild.sol\":8713:8778  userBuyAmount[msg.sender] = userBuyAmount[msg.sender] + msg.value */\n      sstore\n        /* \"launchpad/contracts/launchpadChild.sol\":8798:8809  totalBuyEth */\n      sload(0x1e)\n        /* \"launchpad/contracts/launchpadChild.sol\":8798:8821  totalBuyEth + msg.value */\n      tag_410\n      swap1\n        /* \"launchpad/contracts/launchpadChild.sol\":8812:8821  msg.value */\n      callvalue\n      swap1\n        /* \"launchpad/contracts/launchpadChild.sol\":8798:8821  totalBuyEth + msg.value */\n      tag_311\n      jump\t// in\n    tag_410:\n        /* \"launchpad/contracts/launchpadChild.sol\":8784:8795  totalBuyEth */\n      0x1e\n        /* \"launchpad/contracts/launchpadChild.sol\":8784:8821  totalBuyEth = totalBuyEth + msg.value */\n      sstore\n      pop\n        /* \"@openzeppelin/contracts/security/ReentrancyGuard.sol\":1701:1702  1 */\n      0x01\n        /* \"@openzeppelin/contracts/security/ReentrancyGuard.sol\":2628:2635  _status */\n      0x00\n        /* \"@openzeppelin/contracts/security/ReentrancyGuard.sol\":2628:2650  _status = _NOT_ENTERED */\n      sstore\n        /* \"launchpad/contracts/launchpadChild.sol\":7821:8826  function buyTokensWhitelist(bytes memory signature)... */\n      jump\t// out\n        /* \"launchpad/contracts/launchpadChild.sol\":2646:2671  string public description */\n    tag_150:\n      0x1a\n      dup1\n      sload\n      tag_412\n      swap1\n      tag_413\n      jump\t// in\n    tag_412:\n      dup1\n      0x1f\n      add\n      0x20\n      dup1\n      swap2\n      div\n      mul\n      0x20\n      add\n      mload(0x40)\n      swap1\n      dup2\n      add\n      0x40\n      mstore\n      dup1\n      swap3\n      swap2\n      swap1\n      dup2\n      dup2\n      mstore\n      0x20\n      add\n      dup3\n      dup1\n      sload\n      tag_414\n      swap1\n      tag_413\n      jump\t// in\n    tag_414:\n      dup1\n      iszero\n      tag_415\n      jumpi\n      dup1\n      0x1f\n      lt\n      tag_416\n      jumpi\n      0x0100\n      dup1\n      dup4\n      sload\n      div\n      mul\n      dup4\n      mstore\n      swap2\n      0x20\n      add\n      swap2\n      jump(tag_415)\n    tag_416:\n      dup3\n      add\n      swap2\n      swap1\n      0x00\n      mstore\n      keccak256(0x00, 0x20)\n      swap1\n    tag_417:\n      dup2\n      sload\n      dup2\n      mstore\n      swap1\n      0x01\n      add\n      swap1\n      0x20\n      add\n      dup1\n      dup4\n      gt\n      tag_417\n      jumpi\n      dup3\n      swap1\n      sub\n      0x1f\n      and\n      dup3\n      add\n      swap2\n    tag_415:\n      pop\n      pop\n      pop\n      pop\n      pop\n      dup2\n      jump\t// out\n        /* \"launchpad/contracts/launchpadChild.sol\":10397:10981  function claimStaleEth() external nonReentrant {... */\n    tag_167:\n        /* \"@openzeppelin/contracts/security/ReentrancyGuard.sol\":1744:1745  2 */\n      0x02\n        /* \"@openzeppelin/contracts/security/ReentrancyGuard.sol\":2325:2332  _status */\n      sload(0x00)\n        /* \"@openzeppelin/contracts/security/ReentrancyGuard.sol\":2325:2344  _status != _ENTERED */\n      eq\n      iszero\n        /* \"@openzeppelin/contracts/security/ReentrancyGuard.sol\":2317:2380  require(_status != _ENTERED, \"ReentrancyGuard: reentrant call\") */\n      tag_419\n      jumpi\n      mload(0x40)\n      shl(0xe5, 0x461bcd)\n      dup2\n      mstore\n        /* \"#utility.yul\":15204:15206   */\n      0x20\n        /* \"@openzeppelin/contracts/security/ReentrancyGuard.sol\":2317:2380  require(_status != _ENTERED, \"ReentrancyGuard: reentrant call\") */\n      0x04\n      dup3\n      add\n        /* \"#utility.yul\":15186:15207   */\n      mstore\n        /* \"#utility.yul\":15243:15245   */\n      0x1f\n        /* \"#utility.yul\":15223:15241   */\n      0x24\n      dup3\n      add\n        /* \"#utility.yul\":15216:15246   */\n      mstore\n        /* \"#utility.yul\":15282:15315   */\n      0x5265656e7472616e637947756172643a207265656e7472616e742063616c6c00\n        /* \"#utility.yul\":15262:15280   */\n      0x44\n      dup3\n      add\n        /* \"#utility.yul\":15255:15316   */\n      mstore\n        /* \"#utility.yul\":15333:15351   */\n      0x64\n      add\n        /* \"@openzeppelin/contracts/security/ReentrancyGuard.sol\":2317:2380  require(_status != _ENTERED, \"ReentrancyGuard: reentrant call\") */\n      tag_268\n        /* \"#utility.yul\":15002:15357   */\n      jump\n        /* \"@openzeppelin/contracts/security/ReentrancyGuard.sol\":2317:2380  require(_status != _ENTERED, \"ReentrancyGuard: reentrant call\") */\n    tag_419:\n        /* \"@openzeppelin/contracts/security/ReentrancyGuard.sol\":1744:1745  2 */\n      0x02\n        /* \"@openzeppelin/contracts/security/ReentrancyGuard.sol\":2455:2462  _status */\n      0x00\n        /* \"@openzeppelin/contracts/security/ReentrancyGuard.sol\":2455:2473  _status = _ENTERED */\n      sstore\n        /* \"launchpad/contracts/launchpadChild.sol\":10459:10468  saleEnded */\n      sload(0x1f)\n      0x0100\n      swap1\n      div\n      0xff\n      and\n        /* \"launchpad/contracts/launchpadChild.sol\":10458:10468  !saleEnded */\n      iszero\n        /* \"launchpad/contracts/launchpadChild.sol\":10450:10508  require(!saleEnded, \"sale has been ended : you can claim\") */\n      tag_422\n      jumpi\n      mload(0x40)\n      shl(0xe5, 0x461bcd)\n      dup2\n      mstore\n        /* \"#utility.yul\":12159:12161   */\n      0x20\n        /* \"launchpad/contracts/launchpadChild.sol\":10450:10508  require(!saleEnded, \"sale has been ended : you can claim\") */\n      0x04\n      dup3\n      add\n        /* \"#utility.yul\":12141:12162   */\n      mstore\n        /* \"#utility.yul\":12198:12200   */\n      0x23\n        /* \"#utility.yul\":12178:12196   */\n      0x24\n      dup3\n      add\n        /* \"#utility.yul\":12171:12201   */\n      mstore\n        /* \"#utility.yul\":12237:12271   */\n      0x73616c6520686173206265656e20656e646564203a20796f752063616e20636c\n        /* \"#utility.yul\":12217:12235   */\n      0x44\n      dup3\n      add\n        /* \"#utility.yul\":12210:12272   */\n      mstore\n      shl(0xe8, 0x61696d)\n        /* \"#utility.yul\":12288:12306   */\n      0x64\n      dup3\n      add\n        /* \"#utility.yul\":12281:12314   */\n      mstore\n        /* \"#utility.yul\":12331:12350   */\n      0x84\n      add\n        /* \"launchpad/contracts/launchpadChild.sol\":10450:10508  require(!saleEnded, \"sale has been ended : you can claim\") */\n      tag_268\n        /* \"#utility.yul\":11957:12356   */\n      jump\n        /* \"launchpad/contracts/launchpadChild.sol\":10450:10508  require(!saleEnded, \"sale has been ended : you can claim\") */\n    tag_422:\n        /* \"launchpad/contracts/launchpadChild.sol\":10578:10589  saleAborted */\n      sload(0x1f)\n      0x010000\n      swap1\n      div\n      0xff\n      and\n        /* \"launchpad/contracts/launchpadChild.sol\":10574:10622  if (saleAborted) {... */\n      iszero\n      tag_426\n      jumpi\n        /* \"launchpad/contracts/launchpadChild.sol\":10599:10615  _claimStaleEth() */\n      tag_426\n        /* \"launchpad/contracts/launchpadChild.sol\":10599:10613  _claimStaleEth */\n      tag_427\n        /* \"launchpad/contracts/launchpadChild.sol\":10599:10615  _claimStaleEth() */\n      jump\t// in\n    tag_426:\n        /* \"launchpad/contracts/launchpadChild.sol\":10725:10732  softcap */\n      sload(0x06)\n        /* \"launchpad/contracts/launchpadChild.sol\":10711:10722  totalBuyEth */\n      sload(0x1e)\n        /* \"launchpad/contracts/launchpadChild.sol\":10711:10732  totalBuyEth < softcap */\n      lt\n        /* \"launchpad/contracts/launchpadChild.sol\":10711:10761  totalBuyEth < softcap && block.timestamp > endTime */\n      dup1\n      iszero\n      tag_428\n      jumpi\n      pop\n        /* \"launchpad/contracts/launchpadChild.sol\":10754:10761  endTime */\n      sload(0x09)\n        /* \"launchpad/contracts/launchpadChild.sol\":10736:10751  block.timestamp */\n      timestamp\n        /* \"launchpad/contracts/launchpadChild.sol\":10736:10761  block.timestamp > endTime */\n      gt\n        /* \"launchpad/contracts/launchpadChild.sol\":10711:10761  totalBuyEth < softcap && block.timestamp > endTime */\n    tag_428:\n        /* \"launchpad/contracts/launchpadChild.sol\":10707:10794  if (totalBuyEth < softcap && block.timestamp > endTime) {... */\n      iszero\n      tag_430\n      jumpi\n        /* \"launchpad/contracts/launchpadChild.sol\":10771:10787  _claimStaleEth() */\n      tag_430\n        /* \"launchpad/contracts/launchpadChild.sol\":10771:10785  _claimStaleEth */\n      tag_427\n        /* \"launchpad/contracts/launchpadChild.sol\":10771:10787  _claimStaleEth() */\n      jump\t// in\n    tag_430:\n        /* \"launchpad/contracts/launchpadChild.sol\":10900:10907  softcap */\n      sload(0x06)\n        /* \"launchpad/contracts/launchpadChild.sol\":10886:10897  totalBuyEth */\n      sload(0x1e)\n        /* \"launchpad/contracts/launchpadChild.sol\":10886:10907  totalBuyEth > softcap */\n      gt\n        /* \"launchpad/contracts/launchpadChild.sol\":10886:10944  totalBuyEth > softcap && block.timestamp > endTime + 86400 */\n      dup1\n      iszero\n      tag_431\n      jumpi\n      pop\n        /* \"launchpad/contracts/launchpadChild.sol\":10929:10936  endTime */\n      sload(0x09)\n        /* \"launchpad/contracts/launchpadChild.sol\":10929:10944  endTime + 86400 */\n      tag_432\n      swap1\n        /* \"launchpad/contracts/launchpadChild.sol\":10939:10944  86400 */\n      0x015180\n        /* \"launchpad/contracts/launchpadChild.sol\":10929:10944  endTime + 86400 */\n      tag_311\n      jump\t// in\n    tag_432:\n        /* \"launchpad/contracts/launchpadChild.sol\":10911:10926  block.timestamp */\n      timestamp\n        /* \"launchpad/contracts/launchpadChild.sol\":10911:10944  block.timestamp > endTime + 86400 */\n      gt\n        /* \"launchpad/contracts/launchpadChild.sol\":10886:10944  totalBuyEth > softcap && block.timestamp > endTime + 86400 */\n    tag_431:\n        /* \"launchpad/contracts/launchpadChild.sol\":10882:10977  if (totalBuyEth > softcap && block.timestamp > endTime + 86400) {... */\n      iszero\n      tag_434\n      jumpi\n        /* \"launchpad/contracts/launchpadChild.sol\":10954:10970  _claimStaleEth() */\n      tag_434\n        /* \"launchpad/contracts/launchpadChild.sol\":10954:10968  _claimStaleEth */\n      tag_427\n        /* \"launchpad/contracts/launchpadChild.sol\":10954:10970  _claimStaleEth() */\n      jump\t// in\n    tag_434:\n        /* \"@openzeppelin/contracts/security/ReentrancyGuard.sol\":1701:1702  1 */\n      0x01\n        /* \"@openzeppelin/contracts/security/ReentrancyGuard.sol\":2628:2635  _status */\n      0x00\n        /* \"@openzeppelin/contracts/security/ReentrancyGuard.sol\":2628:2650  _status = _NOT_ENTERED */\n      sstore\n        /* \"launchpad/contracts/launchpadChild.sol\":10397:10981  function claimStaleEth() external nonReentrant {... */\n      jump\t// out\n        /* \"launchpad/contracts/launchpadChild.sol\":6924:7817  function buyTokensPublic() external payable nonReentrant whenNotPaused {... */\n    tag_169:\n        /* \"@openzeppelin/contracts/security/ReentrancyGuard.sol\":1744:1745  2 */\n      0x02\n        /* \"@openzeppelin/contracts/security/ReentrancyGuard.sol\":2325:2332  _status */\n      sload(0x00)\n        /* \"@openzeppelin/contracts/security/ReentrancyGuard.sol\":2325:2344  _status != _ENTERED */\n      eq\n      iszero\n        /* \"@openzeppelin/contracts/security/ReentrancyGuard.sol\":2317:2380  require(_status != _ENTERED, \"ReentrancyGuard: reentrant call\") */\n      tag_436\n      jumpi\n      mload(0x40)\n      shl(0xe5, 0x461bcd)\n      dup2\n      mstore\n        /* \"#utility.yul\":15204:15206   */\n      0x20\n        /* \"@openzeppelin/contracts/security/ReentrancyGuard.sol\":2317:2380  require(_status != _ENTERED, \"ReentrancyGuard: reentrant call\") */\n      0x04\n      dup3\n      add\n        /* \"#utility.yul\":15186:15207   */\n      mstore\n        /* \"#utility.yul\":15243:15245   */\n      0x1f\n        /* \"#utility.yul\":15223:15241   */\n      0x24\n      dup3\n      add\n        /* \"#utility.yul\":15216:15246   */\n      mstore\n        /* \"#utility.yul\":15282:15315   */\n      0x5265656e7472616e637947756172643a207265656e7472616e742063616c6c00\n        /* \"#utility.yul\":15262:15280   */\n      0x44\n      dup3\n      add\n        /* \"#utility.yul\":15255:15316   */\n      mstore\n        /* \"#utility.yul\":15333:15351   */\n      0x64\n      add\n        /* \"@openzeppelin/contracts/security/ReentrancyGuard.sol\":2317:2380  require(_status != _ENTERED, \"ReentrancyGuard: reentrant call\") */\n      tag_268\n        /* \"#utility.yul\":15002:15357   */\n      jump\n        /* \"@openzeppelin/contracts/security/ReentrancyGuard.sol\":2317:2380  require(_status != _ENTERED, \"ReentrancyGuard: reentrant call\") */\n    tag_436:\n        /* \"@openzeppelin/contracts/security/ReentrancyGuard.sol\":1744:1745  2 */\n      0x02\n        /* \"@openzeppelin/contracts/security/ReentrancyGuard.sol\":2455:2462  _status */\n      0x00\n        /* \"@openzeppelin/contracts/security/ReentrancyGuard.sol\":2455:2473  _status = _ENTERED */\n      sstore\n        /* \"@openzeppelin/contracts/security/Pausable.sol\":1168:1175  _paused */\n      and(0xff, sload(0x01))\n        /* \"@openzeppelin/contracts/security/Pausable.sol\":1411:1420  !paused() */\n      iszero\n        /* \"@openzeppelin/contracts/security/Pausable.sol\":1403:1441  require(!paused(), \"Pausable: paused\") */\n      tag_440\n      jumpi\n      mload(0x40)\n      shl(0xe5, 0x461bcd)\n      dup2\n      mstore\n        /* \"#utility.yul\":9582:9584   */\n      0x20\n        /* \"@openzeppelin/contracts/security/Pausable.sol\":1403:1441  require(!paused(), \"Pausable: paused\") */\n      0x04\n      dup3\n      add\n        /* \"#utility.yul\":9564:9585   */\n      mstore\n        /* \"#utility.yul\":9621:9623   */\n      0x10\n        /* \"#utility.yul\":9601:9619   */\n      0x24\n      dup3\n      add\n        /* \"#utility.yul\":9594:9624   */\n      mstore\n      shl(0x82, 0x14185d5cd8589b194e881c185d5cd959)\n        /* \"#utility.yul\":9640:9658   */\n      0x44\n      dup3\n      add\n        /* \"#utility.yul\":9633:9679   */\n      mstore\n        /* \"#utility.yul\":9696:9714   */\n      0x64\n      add\n        /* \"@openzeppelin/contracts/security/Pausable.sol\":1403:1441  require(!paused(), \"Pausable: paused\") */\n      tag_268\n        /* \"#utility.yul\":9380:9720   */\n      jump\n        /* \"@openzeppelin/contracts/security/Pausable.sol\":1403:1441  require(!paused(), \"Pausable: paused\") */\n    tag_440:\n        /* \"launchpad/contracts/launchpadChild.sol\":7010:7021  saleAborted */\n      sload(0x1f)\n      0x010000\n      swap1\n      div\n      0xff\n      and\n        /* \"launchpad/contracts/launchpadChild.sol\":7009:7021  !saleAborted */\n      iszero\n        /* \"launchpad/contracts/launchpadChild.sol\":7001:7042  require(!saleAborted, \"sale was aborted\") */\n      tag_443\n      jumpi\n      mload(0x40)\n      shl(0xe5, 0x461bcd)\n      dup2\n      mstore\n        /* \"#utility.yul\":14099:14101   */\n      0x20\n        /* \"launchpad/contracts/launchpadChild.sol\":7001:7042  require(!saleAborted, \"sale was aborted\") */\n      0x04\n      dup3\n      add\n        /* \"#utility.yul\":14081:14102   */\n      mstore\n        /* \"#utility.yul\":14138:14140   */\n      0x10\n        /* \"#utility.yul\":14118:14136   */\n      0x24\n      dup3\n      add\n        /* \"#utility.yul\":14111:14141   */\n      mstore\n      shl(0x82, 0x1cd85b19481dd85cc818589bdc9d1959)\n        /* \"#utility.yul\":14157:14175   */\n      0x44\n      dup3\n      add\n        /* \"#utility.yul\":14150:14196   */\n      mstore\n        /* \"#utility.yul\":14213:14231   */\n      0x64\n      add\n        /* \"launchpad/contracts/launchpadChild.sol\":7001:7042  require(!saleAborted, \"sale was aborted\") */\n      tag_268\n        /* \"#utility.yul\":13897:14237   */\n      jump\n        /* \"launchpad/contracts/launchpadChild.sol\":7001:7042  require(!saleAborted, \"sale was aborted\") */\n    tag_443:\n        /* \"launchpad/contracts/launchpadChild.sol\":7056:7069  saleFinalized */\n      and(0xff, sload(0x1f))\n        /* \"launchpad/contracts/launchpadChild.sol\":7048:7104  require(saleFinalized, \"sale hasn't been finalized yet\") */\n      tag_445\n      jumpi\n      mload(0x40)\n      shl(0xe5, 0x461bcd)\n      dup2\n      mstore\n        /* \"#utility.yul\":11039:11041   */\n      0x20\n        /* \"launchpad/contracts/launchpadChild.sol\":7048:7104  require(saleFinalized, \"sale hasn't been finalized yet\") */\n      0x04\n      dup3\n      add\n        /* \"#utility.yul\":11021:11042   */\n      mstore\n        /* \"#utility.yul\":11078:11080   */\n      0x1e\n        /* \"#utility.yul\":11058:11076   */\n      0x24\n      dup3\n      add\n        /* \"#utility.yul\":11051:11081   */\n      mstore\n        /* \"#utility.yul\":11117:11149   */\n      0x73616c65206861736e2774206265656e2066696e616c697a6564207965740000\n        /* \"#utility.yul\":11097:11115   */\n      0x44\n      dup3\n      add\n        /* \"#utility.yul\":11090:11150   */\n      mstore\n        /* \"#utility.yul\":11167:11185   */\n      0x64\n      add\n        /* \"launchpad/contracts/launchpadChild.sol\":7048:7104  require(saleFinalized, \"sale hasn't been finalized yet\") */\n      tag_268\n        /* \"#utility.yul\":10837:11191   */\n      jump\n        /* \"launchpad/contracts/launchpadChild.sol\":7048:7104  require(saleFinalized, \"sale hasn't been finalized yet\") */\n    tag_445:\n        /* \"launchpad/contracts/launchpadChild.sol\":7136:7145  startTime */\n      sload(0x08)\n        /* \"launchpad/contracts/launchpadChild.sol\":7118:7133  block.timestamp */\n      timestamp\n        /* \"launchpad/contracts/launchpadChild.sol\":7118:7145  block.timestamp > startTime */\n      gt\n        /* \"launchpad/contracts/launchpadChild.sol\":7110:7173  require(block.timestamp > startTime, \"sale hasn't started yet\") */\n      tag_447\n      jumpi\n      mload(0x40)\n      shl(0xe5, 0x461bcd)\n      dup2\n      mstore\n        /* \"#utility.yul\":9230:9232   */\n      0x20\n        /* \"launchpad/contracts/launchpadChild.sol\":7110:7173  require(block.timestamp > startTime, \"sale hasn't started yet\") */\n      0x04\n      dup3\n      add\n        /* \"#utility.yul\":9212:9233   */\n      mstore\n        /* \"#utility.yul\":9269:9271   */\n      0x17\n        /* \"#utility.yul\":9249:9267   */\n      0x24\n      dup3\n      add\n        /* \"#utility.yul\":9242:9272   */\n      mstore\n        /* \"#utility.yul\":9308:9333   */\n      0x73616c65206861736e2774207374617274656420796574000000000000000000\n        /* \"#utility.yul\":9288:9306   */\n      0x44\n      dup3\n      add\n        /* \"#utility.yul\":9281:9334   */\n      mstore\n        /* \"#utility.yul\":9351:9369   */\n      0x64\n      add\n        /* \"launchpad/contracts/launchpadChild.sol\":7110:7173  require(block.timestamp > startTime, \"sale hasn't started yet\") */\n      tag_268\n        /* \"#utility.yul\":9028:9375   */\n      jump\n        /* \"launchpad/contracts/launchpadChild.sol\":7110:7173  require(block.timestamp > startTime, \"sale hasn't started yet\") */\n    tag_447:\n        /* \"launchpad/contracts/launchpadChild.sol\":7205:7212  endTime */\n      sload(0x09)\n        /* \"launchpad/contracts/launchpadChild.sol\":7187:7202  block.timestamp */\n      timestamp\n        /* \"launchpad/contracts/launchpadChild.sol\":7187:7212  block.timestamp < endTime */\n      lt\n        /* \"launchpad/contracts/launchpadChild.sol\":7179:7231  require(block.timestamp < endTime, \"sale has ended\") */\n      tag_449\n      jumpi\n      mload(0x40)\n      shl(0xe5, 0x461bcd)\n      dup2\n      mstore\n        /* \"#utility.yul\":10696:10698   */\n      0x20\n        /* \"launchpad/contracts/launchpadChild.sol\":7179:7231  require(block.timestamp < endTime, \"sale has ended\") */\n      0x04\n      dup3\n      add\n        /* \"#utility.yul\":10678:10699   */\n      mstore\n        /* \"#utility.yul\":10735:10737   */\n      0x0e\n        /* \"#utility.yul\":10715:10733   */\n      0x24\n      dup3\n      add\n        /* \"#utility.yul\":10708:10738   */\n      mstore\n      shl(0x92, 0x1cd85b19481a185cc8195b991959)\n        /* \"#utility.yul\":10754:10772   */\n      0x44\n      dup3\n      add\n        /* \"#utility.yul\":10747:10791   */\n      mstore\n        /* \"#utility.yul\":10808:10826   */\n      0x64\n      add\n        /* \"launchpad/contracts/launchpadChild.sol\":7179:7231  require(block.timestamp < endTime, \"sale has ended\") */\n      tag_268\n        /* \"#utility.yul\":10494:10832   */\n      jump\n        /* \"launchpad/contracts/launchpadChild.sol\":7179:7231  require(block.timestamp < endTime, \"sale has ended\") */\n    tag_449:\n        /* \"launchpad/contracts/launchpadChild.sol\":7293:7306  maxBuyPerUser */\n      sload(0x0f)\n        /* \"launchpad/contracts/launchpadChild.sol\":7278:7288  msg.sender */\n      caller\n        /* \"launchpad/contracts/launchpadChild.sol\":7264:7289  userBuyAmount[msg.sender] */\n      0x00\n      swap1\n      dup2\n      mstore\n        /* \"launchpad/contracts/launchpadChild.sol\":7264:7277  userBuyAmount */\n      0x21\n        /* \"launchpad/contracts/launchpadChild.sol\":7264:7289  userBuyAmount[msg.sender] */\n      0x20\n      mstore\n      0x40\n      swap1\n      keccak256\n      sload\n        /* \"launchpad/contracts/launchpadChild.sol\":7252:7289  msg.value + userBuyAmount[msg.sender] */\n      tag_451\n      swap1\n        /* \"launchpad/contracts/launchpadChild.sol\":7252:7261  msg.value */\n      callvalue\n        /* \"launchpad/contracts/launchpadChild.sol\":7252:7289  msg.value + userBuyAmount[msg.sender] */\n      tag_311\n      jump\t// in\n    tag_451:\n        /* \"launchpad/contracts/launchpadChild.sol\":7252:7306  msg.value + userBuyAmount[msg.sender] <= maxBuyPerUser */\n      gt\n      iszero\n        /* \"launchpad/contracts/launchpadChild.sol\":7237:7358  require(... */\n      tag_452\n      jumpi\n      mload(0x40)\n      shl(0xe5, 0x461bcd)\n      dup2\n      mstore\n        /* \"#utility.yul\":11398:11400   */\n      0x20\n        /* \"launchpad/contracts/launchpadChild.sol\":7237:7358  require(... */\n      0x04\n      dup3\n      add\n        /* \"#utility.yul\":11380:11401   */\n      mstore\n        /* \"#utility.yul\":11437:11439   */\n      0x24\n        /* \"#utility.yul\":11417:11435   */\n      dup1\n      dup3\n      add\n        /* \"#utility.yul\":11410:11440   */\n      mstore\n        /* \"#utility.yul\":11476:11510   */\n      0x796f7527726520747279696e6720746f2062757920746f6f206d616e7920746f\n        /* \"#utility.yul\":11456:11474   */\n      0x44\n      dup3\n      add\n        /* \"#utility.yul\":11449:11511   */\n      mstore\n      shl(0xe0, 0x6b656e73)\n        /* \"#utility.yul\":11527:11545   */\n      0x64\n      dup3\n      add\n        /* \"#utility.yul\":11520:11554   */\n      mstore\n        /* \"#utility.yul\":11571:11590   */\n      0x84\n      add\n        /* \"launchpad/contracts/launchpadChild.sol\":7237:7358  require(... */\n      tag_268\n        /* \"#utility.yul\":11196:11596   */\n      jump\n        /* \"launchpad/contracts/launchpadChild.sol\":7237:7358  require(... */\n    tag_452:\n        /* \"launchpad/contracts/launchpadChild.sol\":7385:7398  minBuyPerUser */\n      sload(0x10)\n        /* \"launchpad/contracts/launchpadChild.sol\":7372:7381  msg.value */\n      callvalue\n        /* \"launchpad/contracts/launchpadChild.sol\":7372:7398  msg.value >= minBuyPerUser */\n      lt\n      iszero\n        /* \"launchpad/contracts/launchpadChild.sol\":7364:7428  require(msg.value >= minBuyPerUser, \"you're not sending enough\") */\n      tag_454\n      jumpi\n      mload(0x40)\n      shl(0xe5, 0x461bcd)\n      dup2\n      mstore\n        /* \"#utility.yul\":8456:8458   */\n      0x20\n        /* \"launchpad/contracts/launchpadChild.sol\":7364:7428  require(msg.value >= minBuyPerUser, \"you're not sending enough\") */\n      0x04\n      dup3\n      add\n        /* \"#utility.yul\":8438:8459   */\n      mstore\n        /* \"#utility.yul\":8495:8497   */\n      0x19\n        /* \"#utility.yul\":8475:8493   */\n      0x24\n      dup3\n      add\n        /* \"#utility.yul\":8468:8498   */\n      mstore\n        /* \"#utility.yul\":8534:8561   */\n      0x796f75277265206e6f742073656e64696e6720656e6f75676800000000000000\n        /* \"#utility.yul\":8514:8532   */\n      0x44\n      dup3\n      add\n        /* \"#utility.yul\":8507:8562   */\n      mstore\n        /* \"#utility.yul\":8579:8597   */\n      0x64\n      add\n        /* \"launchpad/contracts/launchpadChild.sol\":7364:7428  require(msg.value >= minBuyPerUser, \"you're not sending enough\") */\n      tag_268\n        /* \"#utility.yul\":8254:8603   */\n      jump\n        /* \"launchpad/contracts/launchpadChild.sol\":7364:7428  require(msg.value >= minBuyPerUser, \"you're not sending enough\") */\n    tag_454:\n        /* \"launchpad/contracts/launchpadChild.sol\":7503:7521  tokenAmountForSale */\n      sload(0x11)\n        /* \"launchpad/contracts/launchpadChild.sol\":7483:7499  totalBuyTokens() */\n      tag_456\n        /* \"launchpad/contracts/launchpadChild.sol\":7483:7497  totalBuyTokens */\n      tag_223\n        /* \"launchpad/contracts/launchpadChild.sol\":7483:7499  totalBuyTokens() */\n      jump\t// in\n    tag_456:\n        /* \"launchpad/contracts/launchpadChild.sol\":7461:7480  saleTokensPerOneEth */\n      sload(0x0b)\n        /* \"launchpad/contracts/launchpadChild.sol\":7449:7480  msg.value * saleTokensPerOneEth */\n      tag_457\n      swap1\n        /* \"launchpad/contracts/launchpadChild.sol\":7449:7458  msg.value */\n      callvalue\n        /* \"launchpad/contracts/launchpadChild.sol\":7449:7480  msg.value * saleTokensPerOneEth */\n      tag_301\n      jump\t// in\n    tag_457:\n        /* \"launchpad/contracts/launchpadChild.sol\":7449:7499  msg.value * saleTokensPerOneEth + totalBuyTokens() */\n      tag_458\n      swap2\n      swap1\n      tag_311\n      jump\t// in\n    tag_458:\n        /* \"launchpad/contracts/launchpadChild.sol\":7449:7521  msg.value * saleTokensPerOneEth + totalBuyTokens() <= tokenAmountForSale */\n      gt\n      iszero\n        /* \"launchpad/contracts/launchpadChild.sol\":7434:7588  require(... */\n      tag_459\n      jumpi\n      mload(0x40)\n      shl(0xe5, 0x461bcd)\n      dup2\n      mstore\n        /* \"#utility.yul\":8810:8812   */\n      0x20\n        /* \"launchpad/contracts/launchpadChild.sol\":7434:7588  require(... */\n      0x04\n      dup3\n      add\n        /* \"#utility.yul\":8792:8813   */\n      mstore\n        /* \"#utility.yul\":8849:8851   */\n      0x33\n        /* \"#utility.yul\":8829:8847   */\n      0x24\n      dup3\n      add\n        /* \"#utility.yul\":8822:8852   */\n      mstore\n        /* \"#utility.yul\":8888:8922   */\n      0x7468657265206172656e277420656e6f75676820746f6b656e73206c6566742e\n        /* \"#utility.yul\":8868:8886   */\n      0x44\n      dup3\n      add\n        /* \"#utility.yul\":8861:8923   */\n      mstore\n      shl(0x6a, 0x08151c9e4818481b1bddd95c88185b5bdd5b9d)\n        /* \"#utility.yul\":8939:8957   */\n      0x64\n      dup3\n      add\n        /* \"#utility.yul\":8932:8981   */\n      mstore\n        /* \"#utility.yul\":8998:9017   */\n      0x84\n      add\n        /* \"launchpad/contracts/launchpadChild.sol\":7434:7588  require(... */\n      tag_268\n        /* \"#utility.yul\":8608:9023   */\n      jump\n        /* \"launchpad/contracts/launchpadChild.sol\":7434:7588  require(... */\n    tag_459:\n        /* \"launchpad/contracts/launchpadChild.sol\":7636:7643  hardcap */\n      sload(0x05)\n        /* \"launchpad/contracts/launchpadChild.sol\":7623:7632  msg.value */\n      callvalue\n        /* \"launchpad/contracts/launchpadChild.sol\":7609:7620  totalBuyEth */\n      sload(0x1e)\n        /* \"launchpad/contracts/launchpadChild.sol\":7609:7632  totalBuyEth + msg.value */\n      tag_461\n      swap2\n      swap1\n      tag_311\n      jump\t// in\n    tag_461:\n        /* \"launchpad/contracts/launchpadChild.sol\":7609:7643  totalBuyEth + msg.value <= hardcap */\n      gt\n      iszero\n        /* \"launchpad/contracts/launchpadChild.sol\":7594:7697  require(... */\n      tag_462\n      jumpi\n      mload(0x40)\n      shl(0xe5, 0x461bcd)\n      dup2\n      mstore\n        /* \"#utility.yul\":13270:13272   */\n      0x20\n        /* \"launchpad/contracts/launchpadChild.sol\":7594:7697  require(... */\n      0x04\n      dup3\n      add\n        /* \"#utility.yul\":13252:13273   */\n      mstore\n        /* \"#utility.yul\":13309:13311   */\n      0x26\n        /* \"#utility.yul\":13289:13307   */\n      0x24\n      dup3\n      add\n        /* \"#utility.yul\":13282:13312   */\n      mstore\n        /* \"#utility.yul\":13348:13382   */\n      0x6861726463617020697320726561636865642e205472792061206c6f77657220\n        /* \"#utility.yul\":13328:13346   */\n      0x44\n      dup3\n      add\n        /* \"#utility.yul\":13321:13383   */\n      mstore\n      shl(0xd2, 0x185b5bdd5b9d)\n        /* \"#utility.yul\":13399:13417   */\n      0x64\n      dup3\n      add\n        /* \"#utility.yul\":13392:13428   */\n      mstore\n        /* \"#utility.yul\":13445:13464   */\n      0x84\n      add\n        /* \"launchpad/contracts/launchpadChild.sol\":7594:7697  require(... */\n      tag_268\n        /* \"#utility.yul\":13068:13470   */\n      jump\n        /* \"launchpad/contracts/launchpadChild.sol\":7594:7697  require(... */\n    tag_462:\n        /* \"launchpad/contracts/launchpadChild.sol\":7746:7756  msg.sender */\n      caller\n        /* \"launchpad/contracts/launchpadChild.sol\":7732:7757  userBuyAmount[msg.sender] */\n      0x00\n      swap1\n      dup2\n      mstore\n        /* \"launchpad/contracts/launchpadChild.sol\":7732:7745  userBuyAmount */\n      0x21\n        /* \"launchpad/contracts/launchpadChild.sol\":7732:7757  userBuyAmount[msg.sender] */\n      0x20\n      mstore\n      0x40\n      swap1\n      keccak256\n      sload\n        /* \"launchpad/contracts/launchpadChild.sol\":7732:7769  userBuyAmount[msg.sender] + msg.value */\n      tag_464\n      swap1\n        /* \"launchpad/contracts/launchpadChild.sol\":7760:7769  msg.value */\n      callvalue\n      swap1\n        /* \"launchpad/contracts/launchpadChild.sol\":7732:7769  userBuyAmount[msg.sender] + msg.value */\n      tag_311\n      jump\t// in\n    tag_464:\n        /* \"launchpad/contracts/launchpadChild.sol\":7718:7728  msg.sender */\n      caller\n        /* \"launchpad/contracts/launchpadChild.sol\":7704:7729  userBuyAmount[msg.sender] */\n      0x00\n      swap1\n      dup2\n      mstore\n        /* \"launchpad/contracts/launchpadChild.sol\":7704:7717  userBuyAmount */\n      0x21\n        /* \"launchpad/contracts/launchpadChild.sol\":7704:7729  userBuyAmount[msg.sender] */\n      0x20\n      mstore\n      0x40\n      swap1\n      keccak256\n        /* \"launchpad/contracts/launchpadChild.sol\":7704:7769  userBuyAmount[msg.sender] = userBuyAmount[msg.sender] + msg.value */\n      sstore\n        /* \"launchpad/contracts/launchpadChild.sol\":7789:7800  totalBuyEth */\n      sload(0x1e)\n        /* \"launchpad/contracts/launchpadChild.sol\":7789:7812  totalBuyEth + msg.value */\n      tag_465\n      swap1\n        /* \"launchpad/contracts/launchpadChild.sol\":7803:7812  msg.value */\n      callvalue\n      swap1\n        /* \"launchpad/contracts/launchpadChild.sol\":7789:7812  totalBuyEth + msg.value */\n      tag_311\n      jump\t// in\n    tag_465:\n        /* \"launchpad/contracts/launchpadChild.sol\":7775:7786  totalBuyEth */\n      0x1e\n        /* \"launchpad/contracts/launchpadChild.sol\":7775:7812  totalBuyEth = totalBuyEth + msg.value */\n      sstore\n        /* \"@openzeppelin/contracts/security/ReentrancyGuard.sol\":1701:1702  1 */\n      0x01\n        /* \"@openzeppelin/contracts/security/ReentrancyGuard.sol\":2628:2635  _status */\n      0x00\n        /* \"@openzeppelin/contracts/security/ReentrancyGuard.sol\":2628:2650  _status = _NOT_ENTERED */\n      sstore\n        /* \"launchpad/contracts/launchpadChild.sol\":6924:7817  function buyTokensPublic() external payable nonReentrant whenNotPaused {... */\n      jump\t// out\n        /* \"launchpad/contracts/launchpadChild.sol\":9315:9796  function splitSignature(bytes memory sig)... */\n    tag_189:\n        /* \"launchpad/contracts/launchpadChild.sol\":9397:9402  uint8 */\n      0x00\n        /* \"launchpad/contracts/launchpadChild.sol\":9410:9417  bytes32 */\n      dup1\n        /* \"launchpad/contracts/launchpadChild.sol\":9425:9432  bytes32 */\n      0x00\n        /* \"launchpad/contracts/launchpadChild.sol\":9455:9458  sig */\n      dup4\n        /* \"launchpad/contracts/launchpadChild.sol\":9455:9465  sig.length */\n      mload\n        /* \"launchpad/contracts/launchpadChild.sol\":9469:9471  65 */\n      0x41\n        /* \"launchpad/contracts/launchpadChild.sol\":9455:9471  sig.length == 65 */\n      eq\n        /* \"launchpad/contracts/launchpadChild.sol\":9447:9472  require(sig.length == 65) */\n      tag_467\n      jumpi\n      0x00\n      dup1\n      revert\n    tag_467:\n      pop\n      pop\n      pop\n        /* \"launchpad/contracts/launchpadChild.sol\":9609:9611  32 */\n      0x20\n        /* \"launchpad/contracts/launchpadChild.sol\":9600:9612  add(sig, 32) */\n      dup2\n      add\n        /* \"launchpad/contracts/launchpadChild.sol\":9594:9613  mload(add(sig, 32)) */\n      mload\n        /* \"launchpad/contracts/launchpadChild.sol\":9665:9667  64 */\n      0x40\n        /* \"launchpad/contracts/launchpadChild.sol\":9656:9668  add(sig, 64) */\n      dup3\n      add\n        /* \"launchpad/contracts/launchpadChild.sol\":9650:9669  mload(add(sig, 64)) */\n      mload\n        /* \"launchpad/contracts/launchpadChild.sol\":9758:9760  96 */\n      0x60\n        /* \"launchpad/contracts/launchpadChild.sol\":9749:9761  add(sig, 96) */\n      swap1\n      swap3\n      add\n        /* \"launchpad/contracts/launchpadChild.sol\":9743:9762  mload(add(sig, 96)) */\n      mload\n        /* \"launchpad/contracts/launchpadChild.sol\":9479:9488  bytes32 r */\n      0x00\n        /* \"launchpad/contracts/launchpadChild.sol\":9735:9763  byte(0, mload(add(sig, 96))) */\n      byte\n      swap3\n        /* \"launchpad/contracts/launchpadChild.sol\":9594:9613  mload(add(sig, 32)) */\n      swap1\n      swap2\n        /* \"launchpad/contracts/launchpadChild.sol\":9650:9669  mload(add(sig, 64)) */\n      swap1\n        /* \"launchpad/contracts/launchpadChild.sol\":9315:9796  function splitSignature(bytes memory sig)... */\n      jump\t// out\n        /* \"launchpad/contracts/launchpadChild.sol\":2708:2730  string public imageUrl */\n    tag_194:\n      0x1b\n      dup1\n      sload\n      tag_412\n      swap1\n      tag_413\n      jump\t// in\n        /* \"launchpad/contracts/launchpadChild.sol\":6127:6236  function totalBuyTokens() public view returns (uint256) {... */\n    tag_223:\n        /* \"launchpad/contracts/launchpadChild.sol\":6174:6181  uint256 */\n      0x00\n        /* \"launchpad/contracts/launchpadChild.sol\":6211:6230  saleTokensPerOneEth */\n      sload(0x0b)\n        /* \"launchpad/contracts/launchpadChild.sol\":6197:6208  totalBuyEth */\n      sload(0x1e)\n        /* \"launchpad/contracts/launchpadChild.sol\":6197:6230  totalBuyEth * saleTokensPerOneEth */\n      tag_474\n      swap2\n      swap1\n      tag_301\n      jump\t// in\n    tag_474:\n        /* \"launchpad/contracts/launchpadChild.sol\":6189:6231  return (totalBuyEth * saleTokensPerOneEth) */\n      swap1\n      pop\n        /* \"launchpad/contracts/launchpadChild.sol\":6127:6236  function totalBuyTokens() public view returns (uint256) {... */\n      swap1\n      jump\t// out\n        /* \"launchpad/contracts/launchpadChild.sol\":8830:9311  function verify(... */\n    tag_241:\n        /* \"launchpad/contracts/launchpadChild.sol\":8963:8967  bool */\n      0x00\n        /* \"launchpad/contracts/launchpadChild.sol\":8975:8982  uint8 v */\n      dup1\n        /* \"launchpad/contracts/launchpadChild.sol\":8988:8997  bytes32 r */\n      0x00\n        /* \"launchpad/contracts/launchpadChild.sol\":9003:9012  bytes32 s */\n      dup1\n        /* \"launchpad/contracts/launchpadChild.sol\":9031:9056  splitSignature(signature) */\n      tag_476\n        /* \"launchpad/contracts/launchpadChild.sol\":9046:9055  signature */\n      dup9\n        /* \"launchpad/contracts/launchpadChild.sol\":9031:9045  splitSignature */\n      tag_189\n        /* \"launchpad/contracts/launchpadChild.sol\":9031:9056  splitSignature(signature) */\n      jump\t// in\n    tag_476:\n        /* \"launchpad/contracts/launchpadChild.sol\":9102:9140  abi.encode(_target, _saleId, _chainId) */\n      0x40\n      dup1\n      mload\n      sub(shl(0xa0, 0x01), 0x01)\n        /* \"#utility.yul\":5179:5234   */\n      dup13\n      and\n        /* \"launchpad/contracts/launchpadChild.sol\":9102:9140  abi.encode(_target, _saleId, _chainId) */\n      0x20\n      dup1\n      dup4\n      add\n        /* \"#utility.yul\":5161:5235   */\n      swap2\n      swap1\n      swap2\n      mstore\n        /* \"#utility.yul\":5251:5269   */\n      dup2\n      dup4\n      add\n        /* \"#utility.yul\":5244:5278   */\n      dup13\n      swap1\n      mstore\n        /* \"#utility.yul\":5294:5312   */\n      0x60\n      dup1\n      dup4\n      add\n        /* \"#utility.yul\":5287:5321   */\n      dup13\n      swap1\n      mstore\n        /* \"launchpad/contracts/launchpadChild.sol\":9102:9140  abi.encode(_target, _saleId, _chainId) */\n      dup4\n      mload\n      dup1\n      dup5\n      sub\n      swap1\n      swap2\n      add\n      dup2\n      mstore\n        /* \"#utility.yul\":5134:5152   */\n      0x80\n      dup4\n      add\n        /* \"launchpad/contracts/launchpadChild.sol\":9102:9140  abi.encode(_target, _saleId, _chainId) */\n      swap1\n      swap4\n      mstore\n        /* \"launchpad/contracts/launchpadChild.sol\":9085:9146  keccak256(... */\n      dup3\n      mload\n      swap3\n      add\n      swap2\n      swap1\n      swap2\n      keccak256\n        /* \"#utility.yul\":3191:3257   */\n      0x19457468657265756d205369676e6564204d6573736167653a0a333200000000\n        /* \"launchpad/contracts/launchpadChild.sol\":9185:9250  abi.encodePacked(\"\\x19Ethereum Signed Message:\\n32\", payloadHash) */\n      0xa0\n      dup4\n      add\n        /* \"#utility.yul\":3179:3258   */\n      mstore\n        /* \"#utility.yul\":3274:3286   */\n      0xbc\n      dup3\n      add\n        /* \"#utility.yul\":3267:3295   */\n      dup2\n      swap1\n      mstore\n        /* \"launchpad/contracts/launchpadChild.sol\":9019:9056  (v, r, s) = splitSignature(signature) */\n      swap4\n      swap7\n      pop\n      swap2\n      swap5\n      pop\n      swap3\n      pop\n      0x00\n      swap1\n        /* \"#utility.yul\":3311:3323   */\n      0xdc\n      add\n        /* \"launchpad/contracts/launchpadChild.sol\":9185:9250  abi.encodePacked(\"\\x19Ethereum Signed Message:\\n32\", payloadHash) */\n      0x40\n      dup1\n      mload\n      not(0x1f)\n      dup2\n      dup5\n      sub\n      add\n      dup2\n      mstore\n      dup3\n      dup3\n      mstore\n        /* \"launchpad/contracts/launchpadChild.sol\":9175:9251  keccak256(abi.encodePacked(\"\\x19Ethereum Signed Message:\\n32\", payloadHash)) */\n      dup1\n      mload\n        /* \"launchpad/contracts/launchpadChild.sol\":9185:9250  abi.encodePacked(\"\\x19Ethereum Signed Message:\\n32\", payloadHash) */\n      0x20\n        /* \"launchpad/contracts/launchpadChild.sol\":9175:9251  keccak256(abi.encodePacked(\"\\x19Ethereum Signed Message:\\n32\", payloadHash)) */\n      swap2\n      dup3\n      add\n      keccak256\n        /* \"launchpad/contracts/launchpadChild.sol\":9274:9305  ecrecover(messageHash, v, r, s) */\n      0x00\n      dup5\n      mstore\n      swap1\n      dup4\n      add\n      dup1\n      dup4\n      mstore\n        /* \"#utility.yul\":5751:5776   */\n      dup2\n      swap1\n      mstore\n        /* \"#utility.yul\":5824:5828   */\n      0xff\n        /* \"#utility.yul\":5812:5829   */\n      dup9\n      and\n        /* \"#utility.yul\":5792:5810   */\n      swap2\n      dup4\n      add\n        /* \"#utility.yul\":5785:5830   */\n      swap2\n      swap1\n      swap2\n      mstore\n        /* \"#utility.yul\":5846:5864   */\n      0x60\n      dup3\n      add\n        /* \"#utility.yul\":5839:5873   */\n      dup7\n      swap1\n      mstore\n        /* \"#utility.yul\":5889:5907   */\n      0x80\n      dup3\n      add\n        /* \"#utility.yul\":5882:5916   */\n      dup6\n      swap1\n      mstore\n        /* \"launchpad/contracts/launchpadChild.sol\":9175:9251  keccak256(abi.encodePacked(\"\\x19Ethereum Signed Message:\\n32\", payloadHash)) */\n      swap2\n      pop\n        /* \"launchpad/contracts/launchpadChild.sol\":9274:9305  ecrecover(messageHash, v, r, s) */\n      0x01\n      swap1\n        /* \"#utility.yul\":5723:5742   */\n      0xa0\n      add\n        /* \"launchpad/contracts/launchpadChild.sol\":9274:9305  ecrecover(messageHash, v, r, s) */\n      0x20\n      mload(0x40)\n      0x20\n      dup2\n      sub\n      swap1\n      dup1\n      dup5\n      sub\n      swap1\n      dup6\n      gas\n      staticcall\n      iszero\n      dup1\n      iszero\n      tag_484\n      jumpi\n      returndatasize\n      0x00\n      dup1\n      returndatacopy\n      revert(0x00, returndatasize)\n    tag_484:\n      pop\n      pop\n      mload(add(not(0x1f), mload(0x40)))\n        /* \"launchpad/contracts/launchpadChild.sol\":9264:9270  signer */\n      sload(0x14)\n      sub(shl(0xa0, 0x01), 0x01)\n        /* \"launchpad/contracts/launchpadChild.sol\":9264:9305  signer == ecrecover(messageHash, v, r, s) */\n      swap2\n      dup3\n      and\n        /* \"launchpad/contracts/launchpadChild.sol\":9264:9270  signer */\n      swap2\n      and\n        /* \"launchpad/contracts/launchpadChild.sol\":9264:9305  signer == ecrecover(messageHash, v, r, s) */\n      eq\n      swap12\n        /* \"launchpad/contracts/launchpadChild.sol\":8830:9311  function verify(... */\n      swap11\n      pop\n      pop\n      pop\n      pop\n      pop\n      pop\n      pop\n      pop\n      pop\n      pop\n      pop\n      jump\t// out\n        /* \"launchpad/contracts/launchpadChild.sol\":10985:11240  function _claimStaleEth() private {... */\n    tag_427:\n        /* \"launchpad/contracts/launchpadChild.sol\":11047:11057  msg.sender */\n      caller\n        /* \"launchpad/contracts/launchpadChild.sol\":11061:11062  0 */\n      0x00\n        /* \"launchpad/contracts/launchpadChild.sol\":11033:11058  userBuyAmount[msg.sender] */\n      swap1\n      dup2\n      mstore\n        /* \"launchpad/contracts/launchpadChild.sol\":11033:11046  userBuyAmount */\n      0x21\n        /* \"launchpad/contracts/launchpadChild.sol\":11033:11058  userBuyAmount[msg.sender] */\n      0x20\n      mstore\n      0x40\n      swap1\n      keccak256\n      sload\n        /* \"launchpad/contracts/launchpadChild.sol\":11025:11098  require(userBuyAmount[msg.sender] > 0, \"user hasn't any tokens to claim\") */\n      tag_486\n      jumpi\n      mload(0x40)\n      shl(0xe5, 0x461bcd)\n      dup2\n      mstore\n        /* \"#utility.yul\":7747:7749   */\n      0x20\n        /* \"launchpad/contracts/launchpadChild.sol\":11025:11098  require(userBuyAmount[msg.sender] > 0, \"user hasn't any tokens to claim\") */\n      0x04\n      dup3\n      add\n        /* \"#utility.yul\":7729:7750   */\n      mstore\n        /* \"#utility.yul\":7786:7788   */\n      0x1f\n        /* \"#utility.yul\":7766:7784   */\n      0x24\n      dup3\n      add\n        /* \"#utility.yul\":7759:7789   */\n      mstore\n        /* \"#utility.yul\":7825:7858   */\n      0x75736572206861736e277420616e7920746f6b656e7320746f20636c61696d00\n        /* \"#utility.yul\":7805:7823   */\n      0x44\n      dup3\n      add\n        /* \"#utility.yul\":7798:7859   */\n      mstore\n        /* \"#utility.yul\":7876:7894   */\n      0x64\n      add\n        /* \"launchpad/contracts/launchpadChild.sol\":11025:11098  require(userBuyAmount[msg.sender] > 0, \"user hasn't any tokens to claim\") */\n      tag_268\n        /* \"#utility.yul\":7545:7900   */\n      jump\n        /* \"launchpad/contracts/launchpadChild.sol\":11025:11098  require(userBuyAmount[msg.sender] > 0, \"user hasn't any tokens to claim\") */\n    tag_486:\n        /* \"launchpad/contracts/launchpadChild.sol\":11142:11152  msg.sender */\n      caller\n        /* \"launchpad/contracts/launchpadChild.sol\":11104:11125  uint256 amountToClaim */\n      0x00\n        /* \"launchpad/contracts/launchpadChild.sol\":11128:11153  userBuyAmount[msg.sender] */\n      dup2\n      dup2\n      mstore\n        /* \"launchpad/contracts/launchpadChild.sol\":11128:11141  userBuyAmount */\n      0x21\n        /* \"launchpad/contracts/launchpadChild.sol\":11128:11153  userBuyAmount[msg.sender] */\n      0x20\n      mstore\n      0x40\n      dup1\n      dup3\n      keccak256\n      dup1\n      sload\n        /* \"launchpad/contracts/launchpadChild.sol\":11159:11188  userBuyAmount[msg.sender] = 0 */\n      swap1\n      dup4\n      swap1\n      sstore\n        /* \"launchpad/contracts/launchpadChild.sol\":11194:11235  msg.sender.call{value: amountToClaim}(\"\") */\n      swap1\n      mload\n        /* \"launchpad/contracts/launchpadChild.sol\":11128:11153  userBuyAmount[msg.sender] */\n      swap1\n      swap3\n        /* \"launchpad/contracts/launchpadChild.sol\":11142:11152  msg.sender */\n      swap2\n        /* \"launchpad/contracts/launchpadChild.sol\":11128:11153  userBuyAmount[msg.sender] */\n      dup4\n      swap2\n        /* \"launchpad/contracts/launchpadChild.sol\":11194:11235  msg.sender.call{value: amountToClaim}(\"\") */\n      swap1\n      dup2\n        /* \"launchpad/contracts/launchpadChild.sol\":11104:11125  uint256 amountToClaim */\n      dup2\n        /* \"launchpad/contracts/launchpadChild.sol\":11194:11235  msg.sender.call{value: amountToClaim}(\"\") */\n      dup2\n        /* \"launchpad/contracts/launchpadChild.sol\":11128:11153  userBuyAmount[msg.sender] */\n      dup6\n        /* \"launchpad/contracts/launchpadChild.sol\":11142:11152  msg.sender */\n      dup8\n        /* \"launchpad/contracts/launchpadChild.sol\":11194:11235  msg.sender.call{value: amountToClaim}(\"\") */\n      gas\n      call\n      swap3\n      pop\n      pop\n      pop\n      returndatasize\n      dup1\n      0x00\n      dup2\n      eq\n      tag_491\n      jumpi\n      mload(0x40)\n      swap2\n      pop\n      and(add(returndatasize, 0x3f), not(0x1f))\n      dup3\n      add\n      0x40\n      mstore\n      returndatasize\n      dup3\n      mstore\n      returndatasize\n      0x00\n      0x20\n      dup5\n      add\n      returndatacopy\n      jump(tag_490)\n    tag_491:\n      0x60\n      swap2\n      pop\n    tag_490:\n      pop\n      pop\n      pop\n        /* \"launchpad/contracts/launchpadChild.sol\":11019:11240  {... */\n      pop\n        /* \"launchpad/contracts/launchpadChild.sol\":10985:11240  function _claimStaleEth() private {... */\n      jump\t// out\n        /* \"#utility.yul\":14:732   */\n    tag_493:\n        /* \"#utility.yul\":56:61   */\n      0x00\n        /* \"#utility.yul\":109:112   */\n      dup3\n        /* \"#utility.yul\":102:106   */\n      0x1f\n        /* \"#utility.yul\":94:100   */\n      dup4\n        /* \"#utility.yul\":90:107   */\n      add\n        /* \"#utility.yul\":86:113   */\n      slt\n        /* \"#utility.yul\":76:131   */\n      tag_495\n      jumpi\n        /* \"#utility.yul\":127:128   */\n      0x00\n        /* \"#utility.yul\":124:125   */\n      dup1\n        /* \"#utility.yul\":117:129   */\n      revert\n        /* \"#utility.yul\":76:131   */\n    tag_495:\n        /* \"#utility.yul\":163:169   */\n      dup2\n        /* \"#utility.yul\":150:170   */\n      calldataload\n        /* \"#utility.yul\":189:207   */\n      0xffffffffffffffff\n        /* \"#utility.yul\":226:228   */\n      dup1\n        /* \"#utility.yul\":222:224   */\n      dup3\n        /* \"#utility.yul\":219:229   */\n      gt\n        /* \"#utility.yul\":216:252   */\n      iszero\n      tag_497\n      jumpi\n        /* \"#utility.yul\":232:250   */\n      tag_497\n      tag_498\n      jump\t// in\n    tag_497:\n        /* \"#utility.yul\":307:309   */\n      0x40\n        /* \"#utility.yul\":301:310   */\n      mload\n        /* \"#utility.yul\":275:277   */\n      0x1f\n        /* \"#utility.yul\":361:374   */\n      dup4\n      add\n      not(0x1f)\n        /* \"#utility.yul\":357:379   */\n      swap1\n      dup2\n      and\n        /* \"#utility.yul\":381:383   */\n      0x3f\n        /* \"#utility.yul\":353:384   */\n      add\n        /* \"#utility.yul\":349:389   */\n      and\n        /* \"#utility.yul\":337:390   */\n      dup2\n      add\n      swap1\n        /* \"#utility.yul\":405:423   */\n      dup3\n      dup3\n      gt\n        /* \"#utility.yul\":425:447   */\n      dup2\n      dup4\n      lt\n        /* \"#utility.yul\":402:448   */\n      or\n        /* \"#utility.yul\":399:471   */\n      iszero\n      tag_500\n      jumpi\n        /* \"#utility.yul\":451:469   */\n      tag_500\n      tag_498\n      jump\t// in\n    tag_500:\n        /* \"#utility.yul\":491:501   */\n      dup2\n        /* \"#utility.yul\":487:489   */\n      0x40\n        /* \"#utility.yul\":480:502   */\n      mstore\n        /* \"#utility.yul\":526:528   */\n      dup4\n        /* \"#utility.yul\":518:524   */\n      dup2\n        /* \"#utility.yul\":511:529   */\n      mstore\n        /* \"#utility.yul\":572:575   */\n      dup7\n        /* \"#utility.yul\":565:569   */\n      0x20\n        /* \"#utility.yul\":560:562   */\n      dup6\n        /* \"#utility.yul\":552:558   */\n      dup9\n        /* \"#utility.yul\":548:563   */\n      add\n        /* \"#utility.yul\":544:570   */\n      add\n        /* \"#utility.yul\":541:576   */\n      gt\n        /* \"#utility.yul\":538:593   */\n      iszero\n      tag_501\n      jumpi\n        /* \"#utility.yul\":589:590   */\n      0x00\n        /* \"#utility.yul\":586:587   */\n      dup1\n        /* \"#utility.yul\":579:591   */\n      revert\n        /* \"#utility.yul\":538:593   */\n    tag_501:\n        /* \"#utility.yul\":653:655   */\n      dup4\n        /* \"#utility.yul\":646:650   */\n      0x20\n        /* \"#utility.yul\":638:644   */\n      dup8\n        /* \"#utility.yul\":634:651   */\n      add\n        /* \"#utility.yul\":627:631   */\n      0x20\n        /* \"#utility.yul\":619:625   */\n      dup4\n        /* \"#utility.yul\":615:632   */\n      add\n        /* \"#utility.yul\":602:656   */\n      calldatacopy\n        /* \"#utility.yul\":700:701   */\n      0x00\n        /* \"#utility.yul\":693:697   */\n      0x20\n        /* \"#utility.yul\":688:690   */\n      dup6\n        /* \"#utility.yul\":680:686   */\n      dup4\n        /* \"#utility.yul\":676:691   */\n      add\n        /* \"#utility.yul\":672:698   */\n      add\n        /* \"#utility.yul\":665:702   */\n      mstore\n        /* \"#utility.yul\":720:726   */\n      dup1\n        /* \"#utility.yul\":711:726   */\n      swap5\n      pop\n      pop\n      pop\n      pop\n      pop\n        /* \"#utility.yul\":14:732   */\n      swap3\n      swap2\n      pop\n      pop\n      jump\t// out\n        /* \"#utility.yul\":737:984   */\n    tag_104:\n        /* \"#utility.yul\":796:802   */\n      0x00\n        /* \"#utility.yul\":849:851   */\n      0x20\n        /* \"#utility.yul\":837:846   */\n      dup3\n        /* \"#utility.yul\":828:835   */\n      dup5\n        /* \"#utility.yul\":824:847   */\n      sub\n        /* \"#utility.yul\":820:852   */\n      slt\n        /* \"#utility.yul\":817:869   */\n      iszero\n      tag_503\n      jumpi\n        /* \"#utility.yul\":865:866   */\n      0x00\n        /* \"#utility.yul\":862:863   */\n      dup1\n        /* \"#utility.yul\":855:867   */\n      revert\n        /* \"#utility.yul\":817:869   */\n    tag_503:\n        /* \"#utility.yul\":904:913   */\n      dup2\n        /* \"#utility.yul\":891:914   */\n      calldataload\n        /* \"#utility.yul\":923:954   */\n      tag_504\n        /* \"#utility.yul\":948:953   */\n      dup2\n        /* \"#utility.yul\":923:954   */\n      tag_505\n      jump\t// in\n    tag_504:\n        /* \"#utility.yul\":973:978   */\n      swap4\n        /* \"#utility.yul\":737:984   */\n      swap3\n      pop\n      pop\n      pop\n      jump\t// out\n        /* \"#utility.yul\":989:1240   */\n    tag_323:\n        /* \"#utility.yul\":1059:1065   */\n      0x00\n        /* \"#utility.yul\":1112:1114   */\n      0x20\n        /* \"#utility.yul\":1100:1109   */\n      dup3\n        /* \"#utility.yul\":1091:1098   */\n      dup5\n        /* \"#utility.yul\":1087:1110   */\n      sub\n        /* \"#utility.yul\":1083:1115   */\n      slt\n        /* \"#utility.yul\":1080:1132   */\n      iszero\n      tag_507\n      jumpi\n        /* \"#utility.yul\":1128:1129   */\n      0x00\n        /* \"#utility.yul\":1125:1126   */\n      dup1\n        /* \"#utility.yul\":1118:1130   */\n      revert\n        /* \"#utility.yul\":1080:1132   */\n    tag_507:\n        /* \"#utility.yul\":1160:1169   */\n      dup2\n        /* \"#utility.yul\":1154:1170   */\n      mload\n        /* \"#utility.yul\":1179:1210   */\n      tag_504\n        /* \"#utility.yul\":1204:1209   */\n      dup2\n        /* \"#utility.yul\":1179:1210   */\n      tag_505\n      jump\t// in\n        /* \"#utility.yul\":1245:1522   */\n    tag_309:\n        /* \"#utility.yul\":1312:1318   */\n      0x00\n        /* \"#utility.yul\":1365:1367   */\n      0x20\n        /* \"#utility.yul\":1353:1362   */\n      dup3\n        /* \"#utility.yul\":1344:1351   */\n      dup5\n        /* \"#utility.yul\":1340:1363   */\n      sub\n        /* \"#utility.yul\":1336:1368   */\n      slt\n        /* \"#utility.yul\":1333:1385   */\n      iszero\n      tag_510\n      jumpi\n        /* \"#utility.yul\":1381:1382   */\n      0x00\n        /* \"#utility.yul\":1378:1379   */\n      dup1\n        /* \"#utility.yul\":1371:1383   */\n      revert\n        /* \"#utility.yul\":1333:1385   */\n    tag_510:\n        /* \"#utility.yul\":1413:1422   */\n      dup2\n        /* \"#utility.yul\":1407:1423   */\n      mload\n        /* \"#utility.yul\":1466:1471   */\n      dup1\n        /* \"#utility.yul\":1459:1472   */\n      iszero\n        /* \"#utility.yul\":1452:1473   */\n      iszero\n        /* \"#utility.yul\":1445:1450   */\n      dup2\n        /* \"#utility.yul\":1442:1474   */\n      eq\n        /* \"#utility.yul\":1432:1492   */\n      tag_504\n      jumpi\n        /* \"#utility.yul\":1488:1489   */\n      0x00\n        /* \"#utility.yul\":1485:1486   */\n      dup1\n        /* \"#utility.yul\":1478:1490   */\n      revert\n        /* \"#utility.yul\":1527:1847   */\n    tag_124:\n        /* \"#utility.yul\":1595:1601   */\n      0x00\n        /* \"#utility.yul\":1648:1650   */\n      0x20\n        /* \"#utility.yul\":1636:1645   */\n      dup3\n        /* \"#utility.yul\":1627:1634   */\n      dup5\n        /* \"#utility.yul\":1623:1646   */\n      sub\n        /* \"#utility.yul\":1619:1651   */\n      slt\n        /* \"#utility.yul\":1616:1668   */\n      iszero\n      tag_513\n      jumpi\n        /* \"#utility.yul\":1664:1665   */\n      0x00\n        /* \"#utility.yul\":1661:1662   */\n      dup1\n        /* \"#utility.yul\":1654:1666   */\n      revert\n        /* \"#utility.yul\":1616:1668   */\n    tag_513:\n        /* \"#utility.yul\":1704:1713   */\n      dup2\n        /* \"#utility.yul\":1691:1714   */\n      calldataload\n        /* \"#utility.yul\":1737:1755   */\n      0xffffffffffffffff\n        /* \"#utility.yul\":1729:1735   */\n      dup2\n        /* \"#utility.yul\":1726:1756   */\n      gt\n        /* \"#utility.yul\":1723:1773   */\n      iszero\n      tag_514\n      jumpi\n        /* \"#utility.yul\":1769:1770   */\n      0x00\n        /* \"#utility.yul\":1766:1767   */\n      dup1\n        /* \"#utility.yul\":1759:1771   */\n      revert\n        /* \"#utility.yul\":1723:1773   */\n    tag_514:\n        /* \"#utility.yul\":1792:1841   */\n      tag_515\n        /* \"#utility.yul\":1833:1840   */\n      dup5\n        /* \"#utility.yul\":1824:1830   */\n      dup3\n        /* \"#utility.yul\":1813:1822   */\n      dup6\n        /* \"#utility.yul\":1809:1831   */\n      add\n        /* \"#utility.yul\":1792:1841   */\n      tag_493\n      jump\t// in\n    tag_515:\n        /* \"#utility.yul\":1782:1841   */\n      swap5\n        /* \"#utility.yul\":1527:1847   */\n      swap4\n      pop\n      pop\n      pop\n      pop\n      jump\t// out\n        /* \"#utility.yul\":1852:2444   */\n    tag_240:\n        /* \"#utility.yul\":1947:1953   */\n      0x00\n        /* \"#utility.yul\":1955:1961   */\n      dup1\n        /* \"#utility.yul\":1963:1969   */\n      0x00\n        /* \"#utility.yul\":1971:1977   */\n      dup1\n        /* \"#utility.yul\":2024:2027   */\n      0x80\n        /* \"#utility.yul\":2012:2021   */\n      dup6\n        /* \"#utility.yul\":2003:2010   */\n      dup8\n        /* \"#utility.yul\":1999:2022   */\n      sub\n        /* \"#utility.yul\":1995:2028   */\n      slt\n        /* \"#utility.yul\":1992:2045   */\n      iszero\n      tag_517\n      jumpi\n        /* \"#utility.yul\":2041:2042   */\n      0x00\n        /* \"#utility.yul\":2038:2039   */\n      dup1\n        /* \"#utility.yul\":2031:2043   */\n      revert\n        /* \"#utility.yul\":1992:2045   */\n    tag_517:\n        /* \"#utility.yul\":2081:2090   */\n      dup5\n        /* \"#utility.yul\":2068:2091   */\n      calldataload\n        /* \"#utility.yul\":2114:2132   */\n      0xffffffffffffffff\n        /* \"#utility.yul\":2106:2112   */\n      dup2\n        /* \"#utility.yul\":2103:2133   */\n      gt\n        /* \"#utility.yul\":2100:2150   */\n      iszero\n      tag_518\n      jumpi\n        /* \"#utility.yul\":2146:2147   */\n      0x00\n        /* \"#utility.yul\":2143:2144   */\n      dup1\n        /* \"#utility.yul\":2136:2148   */\n      revert\n        /* \"#utility.yul\":2100:2150   */\n    tag_518:\n        /* \"#utility.yul\":2169:2218   */\n      tag_519\n        /* \"#utility.yul\":2210:2217   */\n      dup8\n        /* \"#utility.yul\":2201:2207   */\n      dup3\n        /* \"#utility.yul\":2190:2199   */\n      dup9\n        /* \"#utility.yul\":2186:2208   */\n      add\n        /* \"#utility.yul\":2169:2218   */\n      tag_493\n      jump\t// in\n    tag_519:\n        /* \"#utility.yul\":2159:2218   */\n      swap5\n      pop\n      pop\n        /* \"#utility.yul\":2268:2270   */\n      0x20\n        /* \"#utility.yul\":2257:2266   */\n      dup6\n        /* \"#utility.yul\":2253:2271   */\n      add\n        /* \"#utility.yul\":2240:2272   */\n      calldataload\n        /* \"#utility.yul\":2281:2312   */\n      tag_520\n        /* \"#utility.yul\":2306:2311   */\n      dup2\n        /* \"#utility.yul\":2281:2312   */\n      tag_505\n      jump\t// in\n    tag_520:\n        /* \"#utility.yul\":1852:2444   */\n      swap4\n      swap7\n        /* \"#utility.yul\":2331:2336   */\n      swap4\n      swap6\n      pop\n      pop\n      pop\n      pop\n        /* \"#utility.yul\":2383:2385   */\n      0x40\n        /* \"#utility.yul\":2368:2386   */\n      dup3\n      add\n        /* \"#utility.yul\":2355:2387   */\n      calldataload\n      swap2\n        /* \"#utility.yul\":2434:2436   */\n      0x60\n        /* \"#utility.yul\":2419:2437   */\n      add\n        /* \"#utility.yul\":2406:2438   */\n      calldataload\n      swap1\n        /* \"#utility.yul\":1852:2444   */\n      jump\t// out\n        /* \"#utility.yul\":2449:2633   */\n    tag_366:\n        /* \"#utility.yul\":2519:2525   */\n      0x00\n        /* \"#utility.yul\":2572:2574   */\n      0x20\n        /* \"#utility.yul\":2560:2569   */\n      dup3\n        /* \"#utility.yul\":2551:2558   */\n      dup5\n        /* \"#utility.yul\":2547:2570   */\n      sub\n        /* \"#utility.yul\":2543:2575   */\n      slt\n        /* \"#utility.yul\":2540:2592   */\n      iszero\n      tag_522\n      jumpi\n        /* \"#utility.yul\":2588:2589   */\n      0x00\n        /* \"#utility.yul\":2585:2586   */\n      dup1\n        /* \"#utility.yul\":2578:2590   */\n      revert\n        /* \"#utility.yul\":2540:2592   */\n    tag_522:\n      pop\n        /* \"#utility.yul\":2611:2627   */\n      mload\n      swap2\n        /* \"#utility.yul\":2449:2633   */\n      swap1\n      pop\n      jump\t// out\n        /* \"#utility.yul\":2638:2944   */\n    tag_318:\n        /* \"#utility.yul\":2726:2732   */\n      0x00\n        /* \"#utility.yul\":2734:2740   */\n      dup1\n        /* \"#utility.yul\":2742:2748   */\n      0x00\n        /* \"#utility.yul\":2795:2797   */\n      0x60\n        /* \"#utility.yul\":2783:2792   */\n      dup5\n        /* \"#utility.yul\":2774:2781   */\n      dup7\n        /* \"#utility.yul\":2770:2793   */\n      sub\n        /* \"#utility.yul\":2766:2798   */\n      slt\n        /* \"#utility.yul\":2763:2815   */\n      iszero\n      tag_524\n      jumpi\n        /* \"#utility.yul\":2811:2812   */\n      0x00\n        /* \"#utility.yul\":2808:2809   */\n      dup1\n        /* \"#utility.yul\":2801:2813   */\n      revert\n        /* \"#utility.yul\":2763:2815   */\n    tag_524:\n        /* \"#utility.yul\":2840:2849   */\n      dup4\n        /* \"#utility.yul\":2834:2850   */\n      mload\n        /* \"#utility.yul\":2824:2850   */\n      swap3\n      pop\n        /* \"#utility.yul\":2890:2892   */\n      0x20\n        /* \"#utility.yul\":2879:2888   */\n      dup5\n        /* \"#utility.yul\":2875:2893   */\n      add\n        /* \"#utility.yul\":2869:2894   */\n      mload\n        /* \"#utility.yul\":2859:2894   */\n      swap2\n      pop\n        /* \"#utility.yul\":2934:2936   */\n      0x40\n        /* \"#utility.yul\":2923:2932   */\n      dup5\n        /* \"#utility.yul\":2919:2937   */\n      add\n        /* \"#utility.yul\":2913:2938   */\n      mload\n        /* \"#utility.yul\":2903:2938   */\n      swap1\n      pop\n        /* \"#utility.yul\":2638:2944   */\n      swap3\n      pop\n      swap3\n      pop\n      swap3\n      jump\t// out\n        /* \"#utility.yul\":6943:7540   */\n    tag_152:\n        /* \"#utility.yul\":7055:7059   */\n      0x00\n        /* \"#utility.yul\":7084:7086   */\n      0x20\n        /* \"#utility.yul\":7113:7115   */\n      dup1\n        /* \"#utility.yul\":7102:7111   */\n      dup4\n        /* \"#utility.yul\":7095:7116   */\n      mstore\n        /* \"#utility.yul\":7145:7151   */\n      dup4\n        /* \"#utility.yul\":7139:7152   */\n      mload\n        /* \"#utility.yul\":7188:7194   */\n      dup1\n        /* \"#utility.yul\":7183:7185   */\n      dup3\n        /* \"#utility.yul\":7172:7181   */\n      dup6\n        /* \"#utility.yul\":7168:7186   */\n      add\n        /* \"#utility.yul\":7161:7195   */\n      mstore\n        /* \"#utility.yul\":7213:7214   */\n      0x00\n        /* \"#utility.yul\":7223:7363   */\n    tag_539:\n        /* \"#utility.yul\":7237:7243   */\n      dup2\n        /* \"#utility.yul\":7234:7235   */\n      dup2\n        /* \"#utility.yul\":7231:7244   */\n      lt\n        /* \"#utility.yul\":7223:7363   */\n      iszero\n      tag_541\n      jumpi\n        /* \"#utility.yul\":7332:7346   */\n      dup6\n      dup2\n      add\n        /* \"#utility.yul\":7328:7351   */\n      dup4\n      add\n        /* \"#utility.yul\":7322:7352   */\n      mload\n        /* \"#utility.yul\":7298:7315   */\n      dup6\n      dup3\n      add\n        /* \"#utility.yul\":7317:7319   */\n      0x40\n        /* \"#utility.yul\":7294:7320   */\n      add\n        /* \"#utility.yul\":7287:7353   */\n      mstore\n        /* \"#utility.yul\":7252:7262   */\n      dup3\n      add\n        /* \"#utility.yul\":7223:7363   */\n      jump(tag_539)\n    tag_541:\n        /* \"#utility.yul\":7381:7387   */\n      dup2\n        /* \"#utility.yul\":7378:7379   */\n      dup2\n        /* \"#utility.yul\":7375:7388   */\n      gt\n        /* \"#utility.yul\":7372:7463   */\n      iszero\n      tag_542\n      jumpi\n        /* \"#utility.yul\":7451:7452   */\n      0x00\n        /* \"#utility.yul\":7446:7448   */\n      0x40\n        /* \"#utility.yul\":7437:7443   */\n      dup4\n        /* \"#utility.yul\":7426:7435   */\n      dup8\n        /* \"#utility.yul\":7422:7444   */\n      add\n        /* \"#utility.yul\":7418:7449   */\n      add\n        /* \"#utility.yul\":7411:7453   */\n      mstore\n        /* \"#utility.yul\":7372:7463   */\n    tag_542:\n      pop\n        /* \"#utility.yul\":7524:7526   */\n      0x1f\n        /* \"#utility.yul\":7503:7518   */\n      add\n      not(0x1f)\n        /* \"#utility.yul\":7499:7528   */\n      and\n        /* \"#utility.yul\":7484:7529   */\n      swap3\n      swap1\n      swap3\n      add\n        /* \"#utility.yul\":7531:7533   */\n      0x40\n        /* \"#utility.yul\":7480:7534   */\n      add\n      swap4\n        /* \"#utility.yul\":6943:7540   */\n      swap3\n      pop\n      pop\n      pop\n      jump\t// out\n        /* \"#utility.yul\":15875:16003   */\n    tag_311:\n        /* \"#utility.yul\":15915:15918   */\n      0x00\n        /* \"#utility.yul\":15946:15947   */\n      dup3\n        /* \"#utility.yul\":15942:15948   */\n      not\n        /* \"#utility.yul\":15939:15940   */\n      dup3\n        /* \"#utility.yul\":15936:15949   */\n      gt\n        /* \"#utility.yul\":15933:15972   */\n      iszero\n      tag_568\n      jumpi\n        /* \"#utility.yul\":15952:15970   */\n      tag_568\n      tag_569\n      jump\t// in\n    tag_568:\n      pop\n        /* \"#utility.yul\":15988:15997   */\n      add\n      swap1\n        /* \"#utility.yul\":15875:16003   */\n      jump\t// out\n        /* \"#utility.yul\":16008:16225   */\n    tag_299:\n        /* \"#utility.yul\":16048:16049   */\n      0x00\n        /* \"#utility.yul\":16074:16075   */\n      dup3\n        /* \"#utility.yul\":16064:16196   */\n      tag_571\n      jumpi\n        /* \"#utility.yul\":16118:16128   */\n      0x4e487b71\n        /* \"#utility.yul\":16113:16116   */\n      0xe0\n        /* \"#utility.yul\":16109:16129   */\n      shl\n        /* \"#utility.yul\":16106:16107   */\n      0x00\n        /* \"#utility.yul\":16099:16130   */\n      mstore\n        /* \"#utility.yul\":16153:16157   */\n      0x12\n        /* \"#utility.yul\":16150:16151   */\n      0x04\n        /* \"#utility.yul\":16143:16158   */\n      mstore\n        /* \"#utility.yul\":16181:16185   */\n      0x24\n        /* \"#utility.yul\":16178:16179   */\n      0x00\n        /* \"#utility.yul\":16171:16186   */\n      revert\n        /* \"#utility.yul\":16064:16196   */\n    tag_571:\n      pop\n        /* \"#utility.yul\":16210:16219   */\n      div\n      swap1\n        /* \"#utility.yul\":16008:16225   */\n      jump\t// out\n        /* \"#utility.yul\":16230:16398   */\n    tag_301:\n        /* \"#utility.yul\":16270:16277   */\n      0x00\n        /* \"#utility.yul\":16336:16337   */\n      dup2\n        /* \"#utility.yul\":16332:16333   */\n      0x00\n        /* \"#utility.yul\":16328:16334   */\n      not\n        /* \"#utility.yul\":16324:16338   */\n      div\n        /* \"#utility.yul\":16321:16322   */\n      dup4\n        /* \"#utility.yul\":16318:16339   */\n      gt\n        /* \"#utility.yul\":16313:16314   */\n      dup3\n        /* \"#utility.yul\":16306:16315   */\n      iszero\n        /* \"#utility.yul\":16299:16316   */\n      iszero\n        /* \"#utility.yul\":16295:16340   */\n      and\n        /* \"#utility.yul\":16292:16363   */\n      iszero\n      tag_574\n      jumpi\n        /* \"#utility.yul\":16343:16361   */\n      tag_574\n      tag_569\n      jump\t// in\n    tag_574:\n      pop\n        /* \"#utility.yul\":16383:16392   */\n      mul\n      swap1\n        /* \"#utility.yul\":16230:16398   */\n      jump\t// out\n        /* \"#utility.yul\":16403:16783   */\n    tag_413:\n        /* \"#utility.yul\":16482:16483   */\n      0x01\n        /* \"#utility.yul\":16478:16490   */\n      dup2\n      dup2\n      shr\n      swap1\n        /* \"#utility.yul\":16525:16537   */\n      dup3\n      and\n      dup1\n        /* \"#utility.yul\":16546:16607   */\n      tag_576\n      jumpi\n        /* \"#utility.yul\":16600:16604   */\n      0x7f\n        /* \"#utility.yul\":16592:16598   */\n      dup3\n        /* \"#utility.yul\":16588:16605   */\n      and\n        /* \"#utility.yul\":16578:16605   */\n      swap2\n      pop\n        /* \"#utility.yul\":16546:16607   */\n    tag_576:\n        /* \"#utility.yul\":16653:16655   */\n      0x20\n        /* \"#utility.yul\":16645:16651   */\n      dup3\n        /* \"#utility.yul\":16642:16656   */\n      lt\n        /* \"#utility.yul\":16622:16640   */\n      dup2\n        /* \"#utility.yul\":16619:16657   */\n      eq\n        /* \"#utility.yul\":16616:16777   */\n      iszero\n      tag_577\n      jumpi\n        /* \"#utility.yul\":16699:16709   */\n      0x4e487b71\n        /* \"#utility.yul\":16694:16697   */\n      0xe0\n        /* \"#utility.yul\":16690:16710   */\n      shl\n        /* \"#utility.yul\":16687:16688   */\n      0x00\n        /* \"#utility.yul\":16680:16711   */\n      mstore\n        /* \"#utility.yul\":16734:16738   */\n      0x22\n        /* \"#utility.yul\":16731:16732   */\n      0x04\n        /* \"#utility.yul\":16724:16739   */\n      mstore\n        /* \"#utility.yul\":16762:16766   */\n      0x24\n        /* \"#utility.yul\":16759:16760   */\n      0x00\n        /* \"#utility.yul\":16752:16767   */\n      revert\n        /* \"#utility.yul\":16616:16777   */\n    tag_577:\n      pop\n        /* \"#utility.yul\":16403:16783   */\n      swap2\n      swap1\n      pop\n      jump\t// out\n        /* \"#utility.yul\":16788:16915   */\n    tag_569:\n        /* \"#utility.yul\":16849:16859   */\n      0x4e487b71\n        /* \"#utility.yul\":16844:16847   */\n      0xe0\n        /* \"#utility.yul\":16840:16860   */\n      shl\n        /* \"#utility.yul\":16837:16838   */\n      0x00\n        /* \"#utility.yul\":16830:16861   */\n      mstore\n        /* \"#utility.yul\":16880:16884   */\n      0x11\n        /* \"#utility.yul\":16877:16878   */\n      0x04\n        /* \"#utility.yul\":16870:16885   */\n      mstore\n        /* \"#utility.yul\":16904:16908   */\n      0x24\n        /* \"#utility.yul\":16901:16902   */\n      0x00\n        /* \"#utility.yul\":16894:16909   */\n      revert\n        /* \"#utility.yul\":16920:17047   */\n    tag_498:\n        /* \"#utility.yul\":16981:16991   */\n      0x4e487b71\n        /* \"#utility.yul\":16976:16979   */\n      0xe0\n        /* \"#utility.yul\":16972:16992   */\n      shl\n        /* \"#utility.yul\":16969:16970   */\n      0x00\n        /* \"#utility.yul\":16962:16993   */\n      mstore\n        /* \"#utility.yul\":17012:17016   */\n      0x41\n        /* \"#utility.yul\":17009:17010   */\n      0x04\n        /* \"#utility.yul\":17002:17017   */\n      mstore\n        /* \"#utility.yul\":17036:17040   */\n      0x24\n        /* \"#utility.yul\":17033:17034   */\n      0x00\n        /* \"#utility.yul\":17026:17041   */\n      revert\n        /* \"#utility.yul\":17052:17206   */\n    tag_505:\n      sub(shl(0xa0, 0x01), 0x01)\n        /* \"#utility.yul\":17131:17136   */\n      dup2\n        /* \"#utility.yul\":17127:17181   */\n      and\n        /* \"#utility.yul\":17120:17125   */\n      dup2\n        /* \"#utility.yul\":17117:17182   */\n      eq\n        /* \"#utility.yul\":17107:17200   */\n      tag_581\n      jumpi\n        /* \"#utility.yul\":17196:17197   */\n      0x00\n        /* \"#utility.yul\":17193:17194   */\n      dup1\n        /* \"#utility.yul\":17186:17198   */\n      revert\n        /* \"#utility.yul\":17107:17200   */\n    tag_581:\n        /* \"#utility.yul\":17052:17206   */\n      pop\n      jump\t// out\n\n    auxdata: 0xa26469706673582212202356639e53b0708b53280f2ee36ddb378f8c0eef7cd0b889757bb38cee43404164736f6c63430008070033\n}\n",
				"bytecode": {
					"linkReferences": {},
					"object": "6080604052601380546301000000600160b81b03191664dead0000001790553480156200002b57600080fd5b5060405162002b0b38038062002b0b8339810160408190526200004e9162000708565b60016000819055805460ff19169055601880546001600160a01b0319166001600160a01b038b1617905587516200008d90601a9060208b01906200057a565b508651620000a390601b9060208a01906200057a565b5085516002556020860151600355604086015160045560608601516005819055608087015160085560a087015160095560c0870151600f5560e0870151601081905510620001485760405162461bcd60e51b815260206004820152602760248201527f6d696e2062757920706572207573657220697320686967686572207468616e206044820152660686172646361760cc1b60648201526084015b60405180910390fd5b601580546001600160a01b03191633908117909155604080516373dc134960e01b815290516373dc134991600480820192602092909190829003018186803b1580156200019457600080fd5b505afa158015620001a9573d6000803e3d6000fd5b505050506040513d601f19601f82011682018060405250810190620001cf919062000833565b60075560055460045461271090620001e89082620008f1565b600254620001f79190620008cf565b620002039190620008ac565b6200020f9190620008ac565b600b556005546200022390600290620008ac565b600655600454600254612710916200023b91620008cf565b620002479190620008ac565b60128190556002546200025b9190620008f1565b60115560075461271090620002719082620008f1565b600554620002809190620008cf565b6200028c9190620008ac565b6003546012546200029e9190620008ac565b106200032c5760405162461bcd60e51b815260206004820152605060248201527f6e6f7420656e6f7567682045544820666f72206c69717569646974792c20696e60448201527f637265617365206c697374696e67207072696365206f7220646563726561736560648201526f206c697175696469747920736861726560801b608482015260a4016200013f565b600c8390556013805462ff000019166201000087151502179055600a84905560085484106200035a57600080fd5b601560009054906101000a90046001600160a01b03166001600160a01b0316632e8498946040518163ffffffff1660e01b815260040160206040518083038186803b158015620003a957600080fd5b505afa158015620003be573d6000803e3d6000fd5b505050506040513d601f19601f82011682018060405250810190620003e4919062000833565b60195560135462010000900460ff1615620004a457601554601954604051630b1d2ef960e41b81526001600160a01b039092169163b1d2ef90916200042f9160040190815260200190565b60206040518083038186803b1580156200044857600080fd5b505afa1580156200045d573d6000803e3d6000fd5b505050506040513d601f19601f82011682018060405250810190620004839190620006e3565b601480546001600160a01b0319166001600160a01b03929092169190911790555b601560009054906101000a90046001600160a01b03166001600160a01b0316637e44d2cc6040518163ffffffff1660e01b815260040160206040518083038186803b158015620004f357600080fd5b505afa15801562000508573d6000803e3d6000fd5b505050506040513d601f19601f820116820180604052508101906200052e9190620006e3565b601c80546001600160a01b03199081166001600160a01b0393841617909155601d8054821693831693909317909255601680549092169216919091179055506200097495505050505050565b82805462000588906200090b565b90600052602060002090601f016020900481019282620005ac5760008555620005f7565b82601f10620005c757805160ff1916838001178555620005f7565b82800160010185558215620005f7579182015b82811115620005f7578251825591602001919060010190620005da565b506200060592915062000609565b5090565b5b808211156200060557600081556001016200060a565b80516001600160a01b03811681146200063857600080fd5b919050565b805180151581146200063857600080fd5b600082601f8301126200066057600080fd5b81516001600160401b038111156200067c576200067c6200095e565b602062000692601f8301601f1916820162000879565b8281528582848701011115620006a757600080fd5b60005b83811015620006c7578581018301518282018401528201620006aa565b83811115620006d95760008385840101525b5095945050505050565b600060208284031215620006f657600080fd5b620007018262000620565b9392505050565b60008060008060008060008060006102008a8c0312156200072857600080fd5b620007338a62000620565b60208b810151919a50906001600160401b03808211156200075357600080fd5b620007618e838f016200064e565b9a5060408d01519150808211156200077857600080fd5b50620007878d828e016200064e565b9850508b607f8c01126200079a57600080fd5b620007a46200084d565b8060608d016101608e018f811115620007bc57600080fd5b60005b6008811015620007de57825185529385019391850191600101620007bf565b50829a50620007ed816200063d565b995050505050506101808a015193506101a08a01519250620008136101c08b0162000620565b9150620008246101e08b0162000620565b90509295985092959850929598565b6000602082840312156200084657600080fd5b5051919050565b60405161010081016001600160401b03811182821017156200087357620008736200095e565b60405290565b604051601f8201601f191681016001600160401b0381118282101715620008a457620008a46200095e565b604052919050565b600082620008ca57634e487b7160e01b600052601260045260246000fd5b500490565b6000816000190483118215151615620008ec57620008ec62000948565b500290565b60008282101562000906576200090662000948565b500390565b600181811c908216806200092057607f821691505b602082108114156200094257634e487b7160e01b600052602260045260246000fd5b50919050565b634e487b7160e01b600052601160045260246000fd5b634e487b7160e01b600052604160045260246000fd5b61218780620009846000396000f3fe6080604052600436106103135760003560e01c80638f5d036b1161019a578063c7bf5166116100e1578063e49dce661161008a578063f887ea4011610064578063f887ea4014610803578063f89be59314610823578063fc0c546a1461083957600080fd5b8063e49dce66146107ad578063ea44c1bc146107cd578063ee97f7f3146107e357600080fd5b8063d4b9de51116100bb578063d4b9de5114610767578063da2cbd5014610781578063de284b3a1461079757600080fd5b8063c7bf516614610726578063c84c03871461073c578063d132a8f41461075257600080fd5b8063a7bb580311610143578063bca1da851161011d578063bca1da85146106d0578063be9feb30146106f0578063c45a01551461070657600080fd5b8063a7bb580314610666578063aba83150146106a5578063b071cbe6146106ba57600080fd5b8063a0f7ab3511610174578063a0f7ab3514610620578063a5f0dea214610636578063a611dc371461065057600080fd5b80638f5d036b146105e4578063957f1474146105f95780639b8906ae1461060157600080fd5b806351fb012d1161025e5780636b7f3df31161020757806378e97925116101e157806378e979251461059957806383b17fdd146105af57806385bf4946146105c557600080fd5b80636b7f3df3146105345780636ef2e4d3146105615780637284e4161461057757600080fd5b80635c975abb116102385780635c975abb146104dc57806364db812e146104f457806366d003ac1461051457600080fd5b806351fb012d1461048457806358a687ec146104b457806359663174146104c957600080fd5b806327a72c96116102c05780633c8760811161029a5780633c8760811461042457806348c54b9d146104595780634ae01d521461046e57600080fd5b806327a72c96146103d157806327c8f835146103e75780633197cbb61461040e57600080fd5b806312e409c5116102f157806312e409c51461036e578063201a341914610384578063238ac9331461039957600080fd5b8063017f6fae14610318578063039ce1571461034157806303bcf11d14610357575b600080fd5b34801561032457600080fd5b5061032e60075481565b6040519081526020015b60405180910390f35b34801561034d57600080fd5b5061032e60115481565b34801561036357600080fd5b5061036c610859565b005b34801561037a57600080fd5b5061032e60105481565b34801561039057600080fd5b5061036c61097c565b3480156103a557600080fd5b506014546103b9906001600160a01b031681565b6040516001600160a01b039091168152602001610338565b3480156103dd57600080fd5b5061032e600e5481565b3480156103f357600080fd5b506013546103b990630100000090046001600160a01b031681565b34801561041a57600080fd5b5061032e60095481565b34801561043057600080fd5b506103b961043f366004611ede565b60208052600090815260409020546001600160a01b031681565b34801561046557600080fd5b5061036c610e76565b34801561047a57600080fd5b5061032e600c5481565b34801561049057600080fd5b506013546104a49062010000900460ff1681565b6040519015158152602001610338565b3480156104c057600080fd5b5061036c611106565b61036c6104d7366004611f41565b6112ad565b3480156104e857600080fd5b5060015460ff166104a4565b34801561050057600080fd5b50601f546104a49062010000900460ff1681565b34801561052057600080fd5b50601c546103b9906001600160a01b031681565b34801561054057600080fd5b5061032e61054f366004611ede565b60216020526000908152604090205481565b34801561056d57600080fd5b5061032e60125481565b34801561058357600080fd5b5061058c61169a565b6040516103389190612024565b3480156105a557600080fd5b5061032e60085481565b3480156105bb57600080fd5b5061032e60025481565b3480156105d157600080fd5b506013546104a490610100900460ff1681565b3480156105f057600080fd5b5061036c611728565b61036c611853565b34801561060d57600080fd5b50601f546104a490610100900460ff1681565b34801561062c57600080fd5b5061032e60035481565b34801561064257600080fd5b50601f546104a49060ff1681565b34801561065c57600080fd5b5061032e60045481565b34801561067257600080fd5b50610686610681366004611f41565b611c28565b6040805160ff9094168452602084019290925290820152606001610338565b3480156106b157600080fd5b5061058c611c57565b3480156106c657600080fd5b5061032e60055481565b3480156106dc57600080fd5b50601d546103b9906001600160a01b031681565b3480156106fc57600080fd5b5061032e600a5481565b34801561071257600080fd5b506017546103b9906001600160a01b031681565b34801561073257600080fd5b5061032e600b5481565b34801561074857600080fd5b5061032e60195481565b34801561075e57600080fd5b5061032e611c64565b34801561077357600080fd5b506013546104a49060ff1681565b34801561078d57600080fd5b5061032e601e5481565b3480156107a357600080fd5b5061032e600f5481565b3480156107b957600080fd5b506104a46107c8366004611f7e565b611c7b565b3480156107d957600080fd5b5061032e600d5481565b3480156107ef57600080fd5b506015546103b9906001600160a01b031681565b34801561080f57600080fd5b506016546103b9906001600160a01b031681565b34801561082f57600080fd5b5061032e60065481565b34801561084557600080fd5b506018546103b9906001600160a01b031681565b601d546001600160a01b031633146108b85760405162461bcd60e51b815260206004820152601b60248201527f63616c6c6572206973206e6f742074686520696e69746961746f72000000000060448201526064015b60405180910390fd5b601f54610100900460ff16156109105760405162461bcd60e51b815260206004820152601c60248201527f636c61696d696e672068617320616c726561647920737461727465640000000060448201526064016108af565b601f5462010000900460ff16156109695760405162461bcd60e51b815260206004820152601460248201527f73616c6520616c72656164792061626f7274656400000000000000000000000060448201526064016108af565b601f805462ff0000191662010000179055565b601d546001600160a01b031633146109d65760405162461bcd60e51b815260206004820152601b60248201527f63616c6c6572206973206e6f742074686520696e69746961746f72000000000060448201526064016108af565b60026000541415610a295760405162461bcd60e51b815260206004820152601f60248201527f5265656e7472616e637947756172643a207265656e7472616e742063616c6c0060448201526064016108af565b6002600055601f5462010000900460ff1615610a7a5760405162461bcd60e51b815260206004820152601060248201526f1cd85b19481dd85cc818589bdc9d195960821b60448201526064016108af565b601f5460ff16610acc5760405162461bcd60e51b815260206004820152601560248201527f73616c65207761736e27742066696e616c697a6564000000000000000000000060448201526064016108af565b600654601e5411610b1f5760405162461bcd60e51b815260206004820152601b60248201527f6e6f7420656e6f75676820746f6b656e73207765726520736f6c64000000000060448201526064016108af565b601f54610100900460ff1615610b775760405162461bcd60e51b815260206004820152601660248201527f73616c652077617320616c726561647920656e6465640000000000000000000060448201526064016108af565b601f805461ff001916610100179055600354600090610b94611c64565b610b9e9190612091565b90506000600554601e54601254610bb591906120b3565b610bbf9190612091565b60185460165460405163095ea7b360e01b81526001600160a01b03918216600482015260248101849052929350169063095ea7b390604401602060405180830381600087803b158015610c1157600080fd5b505af1158015610c25573d6000803e3d6000fd5b505050506040513d601f19601f82011682018060405250810190610c499190611f1f565b506016546018546001600160a01b039182169163f305d719918591168460008030610c76426103e8612079565b60405160e089901b7fffffffff000000000000000000000000000000000000000000000000000000001681526001600160a01b039687166004820152602481019590955260448501939093526064840191909152909216608482015260a481019190915260c4016060604051808303818588803b158015610cf657600080fd5b505af1158015610d0a573d6000803e3d6000fd5b50505050506040513d601f19601f82011682018060405250810190610d2f9190611ff6565b505060155460408051631f9134b360e21b815290516001600160a01b039092169250637e44d2cc916004808301926020929190829003018186803b158015610d7657600080fd5b505afa158015610d8a573d6000803e3d6000fd5b505050506040513d601f19601f82011682018060405250810190610dae9190611f02565b6001600160a01b0316612710600754601e54610dca91906120b3565b610dd49190612091565b604051600081818185875af1925050503d8060008114610e10576040519150601f19603f3d011682016040523d82523d6000602084013e610e15565b606091505b5050601d546040516001600160a01b0390911691504790600081818185875af1925050503d8060008114610e65576040519150601f19603f3d011682016040523d82523d6000602084013e610e6a565b606091505b50506001600055505050565b60026000541415610ec95760405162461bcd60e51b815260206004820152601f60248201527f5265656e7472616e637947756172643a207265656e7472616e742063616c6c0060448201526064016108af565b6002600055601f5462010000900460ff1615610f4d5760405162461bcd60e51b815260206004820152603560248201527f73616c65207761732061626f727465642c20706c656173652075736520636c6160448201527f696d5374616c6545746828292066756e6374696f6e000000000000000000000060648201526084016108af565b33600090815260216020526040902054610fa95760405162461bcd60e51b815260206004820152601f60248201527f75736572206861736e277420616e7920746f6b656e7320746f20636c61696d0060448201526064016108af565b601f54610100900460ff1661100c5760405162461bcd60e51b815260206004820152602360248201527f696e69746961746f72206861736e277420656e646564207468652073616c65206044820152621e595d60ea1b60648201526084016108af565b600b5433600090815260216020526040812054909161102a916120b3565b3360009081526021602052604080822091909155519091507f8a36f5a234186d446e36a7df36ace663a05a580d9bea2dd899c6dd76a075d5fa906110719083815260200190565b60405180910390a160185460405163a9059cbb60e01b8152336004820152602481018390526001600160a01b039091169063a9059cbb90604401602060405180830381600087803b1580156110c557600080fd5b505af11580156110d9573d6000803e3d6000fd5b505050506040513d601f19601f820116820180604052508101906110fd9190611f1f565b50506001600055565b601d546001600160a01b031633146111605760405162461bcd60e51b815260206004820152601b60248201527f63616c6c6572206973206e6f742074686520696e69746961746f72000000000060448201526064016108af565b601f5462010000900460ff16156111ac5760405162461bcd60e51b815260206004820152601060248201526f1cd85b19481dd85cc818589bdc9d195960821b60448201526064016108af565b6002546018546040516370a0823160e01b81523060048201526001600160a01b03909116906370a082319060240160206040518083038186803b1580156111f257600080fd5b505afa158015611206573d6000803e3d6000fd5b505050506040513d601f19601f8201168201806040525081019061122a9190611fdd565b101561129e5760405162461bcd60e51b815260206004820152603160248201527f696e73756666696369656e7420616d6f756e74206f6620746f6b656e7320736560448201527f6e7420746f20746865206164647265737300000000000000000000000000000060648201526084016108af565b601f805460ff19166001179055565b600260005414156113005760405162461bcd60e51b815260206004820152601f60248201527f5265656e7472616e637947756172643a207265656e7472616e742063616c6c0060448201526064016108af565b600260005560015460ff161561134b5760405162461bcd60e51b815260206004820152601060248201526f14185d5cd8589b194e881c185d5cd95960821b60448201526064016108af565b611359813360195446611c7b565b61136257600080fd5b601f5462010000900460ff16156113ae5760405162461bcd60e51b815260206004820152601060248201526f1cd85b19481dd85cc818589bdc9d195960821b60448201526064016108af565b601f5460ff166114005760405162461bcd60e51b815260206004820152601e60248201527f73616c65206861736e2774206265656e2066696e616c697a656420796574000060448201526064016108af565b60095442106114425760405162461bcd60e51b815260206004820152600e60248201526d1cd85b19481a185cc8195b99195960921b60448201526064016108af565b600a5442116114935760405162461bcd60e51b815260206004820152601760248201527f73616c65206861736e277420737461727465642079657400000000000000000060448201526064016108af565b600f54336000908152602160205260409020546114b09034612079565b111561150a5760405162461bcd60e51b8152602060048201526024808201527f796f7527726520747279696e6720746f2062757920746f6f206d616e7920746f6044820152636b656e7360e01b60648201526084016108af565b60105434101561155c5760405162461bcd60e51b815260206004820152601960248201527f796f75277265206e6f742073656e64696e6720656e6f7567680000000000000060448201526064016108af565b601154611567611c64565b600b5461157490346120b3565b61157e9190612079565b11156115e85760405162461bcd60e51b815260206004820152603360248201527f7468657265206172656e277420656e6f75676820746f6b656e73206c6566742e60448201527208151c9e4818481b1bddd95c88185b5bdd5b9d606a1b60648201526084016108af565b60055434601e546115f99190612079565b11156116565760405162461bcd60e51b815260206004820152602660248201527f6861726463617020697320726561636865642e205472792061206c6f77657220604482015265185b5bdd5b9d60d21b60648201526084016108af565b33600090815260216020526040902054611671903490612079565b33600090815260216020526040902055601e5461168f903490612079565b601e55506001600055565b601a80546116a7906120d2565b80601f01602080910402602001604051908101604052809291908181526020018280546116d3906120d2565b80156117205780601f106116f557610100808354040283529160200191611720565b820191906000526020600020905b81548152906001019060200180831161170357829003601f168201915b505050505081565b6002600054141561177b5760405162461bcd60e51b815260206004820152601f60248201527f5265656e7472616e637947756172643a207265656e7472616e742063616c6c0060448201526064016108af565b6002600055601f54610100900460ff16156117e45760405162461bcd60e51b815260206004820152602360248201527f73616c6520686173206265656e20656e646564203a20796f752063616e20636c60448201526261696d60e81b60648201526084016108af565b601f5462010000900460ff16156117fd576117fd611d95565b600654601e54108015611811575060095442115b1561181e5761181e611d95565b600654601e5411801561183f575060095461183c9062015180612079565b42115b1561184c5761184c611d95565b6001600055565b600260005414156118a65760405162461bcd60e51b815260206004820152601f60248201527f5265656e7472616e637947756172643a207265656e7472616e742063616c6c0060448201526064016108af565b600260005560015460ff16156118f15760405162461bcd60e51b815260206004820152601060248201526f14185d5cd8589b194e881c185d5cd95960821b60448201526064016108af565b601f5462010000900460ff161561193d5760405162461bcd60e51b815260206004820152601060248201526f1cd85b19481dd85cc818589bdc9d195960821b60448201526064016108af565b601f5460ff1661198f5760405162461bcd60e51b815260206004820152601e60248201527f73616c65206861736e2774206265656e2066696e616c697a656420796574000060448201526064016108af565b60085442116119e05760405162461bcd60e51b815260206004820152601760248201527f73616c65206861736e277420737461727465642079657400000000000000000060448201526064016108af565b6009544210611a225760405162461bcd60e51b815260206004820152600e60248201526d1cd85b19481a185cc8195b99195960921b60448201526064016108af565b600f5433600090815260216020526040902054611a3f9034612079565b1115611a995760405162461bcd60e51b8152602060048201526024808201527f796f7527726520747279696e6720746f2062757920746f6f206d616e7920746f6044820152636b656e7360e01b60648201526084016108af565b601054341015611aeb5760405162461bcd60e51b815260206004820152601960248201527f796f75277265206e6f742073656e64696e6720656e6f7567680000000000000060448201526064016108af565b601154611af6611c64565b600b54611b0390346120b3565b611b0d9190612079565b1115611b775760405162461bcd60e51b815260206004820152603360248201527f7468657265206172656e277420656e6f75676820746f6b656e73206c6566742e60448201527208151c9e4818481b1bddd95c88185b5bdd5b9d606a1b60648201526084016108af565b60055434601e54611b889190612079565b1115611be55760405162461bcd60e51b815260206004820152602660248201527f6861726463617020697320726561636865642e205472792061206c6f77657220604482015265185b5bdd5b9d60d21b60648201526084016108af565b33600090815260216020526040902054611c00903490612079565b33600090815260216020526040902055601e54611c1e903490612079565b601e556001600055565b60008060008351604114611c3b57600080fd5b5050506020810151604082015160609092015160001a92909190565b601b80546116a7906120d2565b6000600b54601e54611c7691906120b3565b905090565b600080600080611c8a88611c28565b604080516001600160a01b038c166020808301919091528183018c905260608083018c9052835180840390910181526080830190935282519201919091207f19457468657265756d205369676e6564204d6573736167653a0a33320000000060a083015260bc8201819052939650919450925060009060dc0160408051601f1981840301815282825280516020918201206000845290830180835281905260ff8816918301919091526060820186905260808201859052915060019060a0016020604051602081039080840390855afa158015611d6b573d6000803e3d6000fd5b5050604051601f1901516014546001600160a01b039182169116149b9a5050505050505050505050565b33600090815260216020526040902054611df15760405162461bcd60e51b815260206004820152601f60248201527f75736572206861736e277420616e7920746f6b656e7320746f20636c61696d0060448201526064016108af565b33600081815260216020526040808220805490839055905190929183919081818185875af1925050503d8060008114611e46576040519150601f19603f3d011682016040523d82523d6000602084013e611e4b565b606091505b50505050565b600082601f830112611e6257600080fd5b813567ffffffffffffffff80821115611e7d57611e7d612123565b604051601f8301601f19908116603f01168101908282118183101715611ea557611ea5612123565b81604052838152866020858801011115611ebe57600080fd5b836020870160208301376000602085830101528094505050505092915050565b600060208284031215611ef057600080fd5b8135611efb81612139565b9392505050565b600060208284031215611f1457600080fd5b8151611efb81612139565b600060208284031215611f3157600080fd5b81518015158114611efb57600080fd5b600060208284031215611f5357600080fd5b813567ffffffffffffffff811115611f6a57600080fd5b611f7684828501611e51565b949350505050565b60008060008060808587031215611f9457600080fd5b843567ffffffffffffffff811115611fab57600080fd5b611fb787828801611e51565b9450506020850135611fc881612139565b93969395505050506040820135916060013590565b600060208284031215611fef57600080fd5b5051919050565b60008060006060848603121561200b57600080fd5b8351925060208401519150604084015190509250925092565b600060208083528351808285015260005b8181101561205157858101830151858201604001528201612035565b81811115612063576000604083870101525b50601f01601f1916929092016040019392505050565b6000821982111561208c5761208c61210d565b500190565b6000826120ae57634e487b7160e01b600052601260045260246000fd5b500490565b60008160001904831182151516156120cd576120cd61210d565b500290565b600181811c908216806120e657607f821691505b6020821081141561210757634e487b7160e01b600052602260045260246000fd5b50919050565b634e487b7160e01b600052601160045260246000fd5b634e487b7160e01b600052604160045260246000fd5b6001600160a01b038116811461214e57600080fd5b5056fea26469706673582212202356639e53b0708b53280f2ee36ddb378f8c0eef7cd0b889757bb38cee43404164736f6c63430008070033",
					"opcodes": "PUSH1 0x80 PUSH1 0x40 MSTORE PUSH1 0x13 DUP1 SLOAD PUSH4 0x1000000 PUSH1 0x1 PUSH1 0xB8 SHL SUB NOT AND PUSH5 0xDEAD000000 OR SWAP1 SSTORE CALLVALUE DUP1 ISZERO PUSH3 0x2B JUMPI PUSH1 0x0 DUP1 REVERT JUMPDEST POP PUSH1 0x40 MLOAD PUSH3 0x2B0B CODESIZE SUB DUP1 PUSH3 0x2B0B DUP4 CODECOPY DUP2 ADD PUSH1 0x40 DUP2 SWAP1 MSTORE PUSH3 0x4E SWAP2 PUSH3 0x708 JUMP JUMPDEST PUSH1 0x1 PUSH1 0x0 DUP2 SWAP1 SSTORE DUP1 SLOAD PUSH1 0xFF NOT AND SWAP1 SSTORE PUSH1 0x18 DUP1 SLOAD PUSH1 0x1 PUSH1 0x1 PUSH1 0xA0 SHL SUB NOT AND PUSH1 0x1 PUSH1 0x1 PUSH1 0xA0 SHL SUB DUP12 AND OR SWAP1 SSTORE DUP8 MLOAD PUSH3 0x8D SWAP1 PUSH1 0x1A SWAP1 PUSH1 0x20 DUP12 ADD SWAP1 PUSH3 0x57A JUMP JUMPDEST POP DUP7 MLOAD PUSH3 0xA3 SWAP1 PUSH1 0x1B SWAP1 PUSH1 0x20 DUP11 ADD SWAP1 PUSH3 0x57A JUMP JUMPDEST POP DUP6 MLOAD PUSH1 0x2 SSTORE PUSH1 0x20 DUP7 ADD MLOAD PUSH1 0x3 SSTORE PUSH1 0x40 DUP7 ADD MLOAD PUSH1 0x4 SSTORE PUSH1 0x60 DUP7 ADD MLOAD PUSH1 0x5 DUP2 SWAP1 SSTORE PUSH1 0x80 DUP8 ADD MLOAD PUSH1 0x8 SSTORE PUSH1 0xA0 DUP8 ADD MLOAD PUSH1 0x9 SSTORE PUSH1 0xC0 DUP8 ADD MLOAD PUSH1 0xF SSTORE PUSH1 0xE0 DUP8 ADD MLOAD PUSH1 0x10 DUP2 SWAP1 SSTORE LT PUSH3 0x148 JUMPI PUSH1 0x40 MLOAD PUSH3 0x461BCD PUSH1 0xE5 SHL DUP2 MSTORE PUSH1 0x20 PUSH1 0x4 DUP3 ADD MSTORE PUSH1 0x27 PUSH1 0x24 DUP3 ADD MSTORE PUSH32 0x6D696E2062757920706572207573657220697320686967686572207468616E20 PUSH1 0x44 DUP3 ADD MSTORE PUSH7 0x6861726463617 PUSH1 0xCC SHL PUSH1 0x64 DUP3 ADD MSTORE PUSH1 0x84 ADD JUMPDEST PUSH1 0x40 MLOAD DUP1 SWAP2 SUB SWAP1 REVERT JUMPDEST PUSH1 0x15 DUP1 SLOAD PUSH1 0x1 PUSH1 0x1 PUSH1 0xA0 SHL SUB NOT AND CALLER SWAP1 DUP2 OR SWAP1 SWAP2 SSTORE PUSH1 0x40 DUP1 MLOAD PUSH4 0x73DC1349 PUSH1 0xE0 SHL DUP2 MSTORE SWAP1 MLOAD PUSH4 0x73DC1349 SWAP2 PUSH1 0x4 DUP1 DUP3 ADD SWAP3 PUSH1 0x20 SWAP3 SWAP1 SWAP2 SWAP1 DUP3 SWAP1 SUB ADD DUP2 DUP7 DUP1 EXTCODESIZE ISZERO DUP1 ISZERO PUSH3 0x194 JUMPI PUSH1 0x0 DUP1 REVERT JUMPDEST POP GAS STATICCALL ISZERO DUP1 ISZERO PUSH3 0x1A9 JUMPI RETURNDATASIZE PUSH1 0x0 DUP1 RETURNDATACOPY RETURNDATASIZE PUSH1 0x0 REVERT JUMPDEST POP POP POP POP PUSH1 0x40 MLOAD RETURNDATASIZE PUSH1 0x1F NOT PUSH1 0x1F DUP3 ADD AND DUP3 ADD DUP1 PUSH1 0x40 MSTORE POP DUP2 ADD SWAP1 PUSH3 0x1CF SWAP2 SWAP1 PUSH3 0x833 JUMP JUMPDEST PUSH1 0x7 SSTORE PUSH1 0x5 SLOAD PUSH1 0x4 SLOAD PUSH2 0x2710 SWAP1 PUSH3 0x1E8 SWAP1 DUP3 PUSH3 0x8F1 JUMP JUMPDEST PUSH1 0x2 SLOAD PUSH3 0x1F7 SWAP2 SWAP1 PUSH3 0x8CF JUMP JUMPDEST PUSH3 0x203 SWAP2 SWAP1 PUSH3 0x8AC JUMP JUMPDEST PUSH3 0x20F SWAP2 SWAP1 PUSH3 0x8AC JUMP JUMPDEST PUSH1 0xB SSTORE PUSH1 0x5 SLOAD PUSH3 0x223 SWAP1 PUSH1 0x2 SWAP1 PUSH3 0x8AC JUMP JUMPDEST PUSH1 0x6 SSTORE PUSH1 0x4 SLOAD PUSH1 0x2 SLOAD PUSH2 0x2710 SWAP2 PUSH3 0x23B SWAP2 PUSH3 0x8CF JUMP JUMPDEST PUSH3 0x247 SWAP2 SWAP1 PUSH3 0x8AC JUMP JUMPDEST PUSH1 0x12 DUP2 SWAP1 SSTORE PUSH1 0x2 SLOAD PUSH3 0x25B SWAP2 SWAP1 PUSH3 0x8F1 JUMP JUMPDEST PUSH1 0x11 SSTORE PUSH1 0x7 SLOAD PUSH2 0x2710 SWAP1 PUSH3 0x271 SWAP1 DUP3 PUSH3 0x8F1 JUMP JUMPDEST PUSH1 0x5 SLOAD PUSH3 0x280 SWAP2 SWAP1 PUSH3 0x8CF JUMP JUMPDEST PUSH3 0x28C SWAP2 SWAP1 PUSH3 0x8AC JUMP JUMPDEST PUSH1 0x3 SLOAD PUSH1 0x12 SLOAD PUSH3 0x29E SWAP2 SWAP1 PUSH3 0x8AC JUMP JUMPDEST LT PUSH3 0x32C JUMPI PUSH1 0x40 MLOAD PUSH3 0x461BCD PUSH1 0xE5 SHL DUP2 MSTORE PUSH1 0x20 PUSH1 0x4 DUP3 ADD MSTORE PUSH1 0x50 PUSH1 0x24 DUP3 ADD MSTORE PUSH32 0x6E6F7420656E6F7567682045544820666F72206C69717569646974792C20696E PUSH1 0x44 DUP3 ADD MSTORE PUSH32 0x637265617365206C697374696E67207072696365206F72206465637265617365 PUSH1 0x64 DUP3 ADD MSTORE PUSH16 0x206C6971756964697479207368617265 PUSH1 0x80 SHL PUSH1 0x84 DUP3 ADD MSTORE PUSH1 0xA4 ADD PUSH3 0x13F JUMP JUMPDEST PUSH1 0xC DUP4 SWAP1 SSTORE PUSH1 0x13 DUP1 SLOAD PUSH3 0xFF0000 NOT AND PUSH3 0x10000 DUP8 ISZERO ISZERO MUL OR SWAP1 SSTORE PUSH1 0xA DUP5 SWAP1 SSTORE PUSH1 0x8 SLOAD DUP5 LT PUSH3 0x35A JUMPI PUSH1 0x0 DUP1 REVERT JUMPDEST PUSH1 0x15 PUSH1 0x0 SWAP1 SLOAD SWAP1 PUSH2 0x100 EXP SWAP1 DIV PUSH1 0x1 PUSH1 0x1 PUSH1 0xA0 SHL SUB AND PUSH1 0x1 PUSH1 0x1 PUSH1 0xA0 SHL SUB AND PUSH4 0x2E849894 PUSH1 0x40 MLOAD DUP2 PUSH4 0xFFFFFFFF AND PUSH1 0xE0 SHL DUP2 MSTORE PUSH1 0x4 ADD PUSH1 0x20 PUSH1 0x40 MLOAD DUP1 DUP4 SUB DUP2 DUP7 DUP1 EXTCODESIZE ISZERO DUP1 ISZERO PUSH3 0x3A9 JUMPI PUSH1 0x0 DUP1 REVERT JUMPDEST POP GAS STATICCALL ISZERO DUP1 ISZERO PUSH3 0x3BE JUMPI RETURNDATASIZE PUSH1 0x0 DUP1 RETURNDATACOPY RETURNDATASIZE PUSH1 0x0 REVERT JUMPDEST POP POP POP POP PUSH1 0x40 MLOAD RETURNDATASIZE PUSH1 0x1F NOT PUSH1 0x1F DUP3 ADD AND DUP3 ADD DUP1 PUSH1 0x40 MSTORE POP DUP2 ADD SWAP1 PUSH3 0x3E4 SWAP2 SWAP1 PUSH3 0x833 JUMP JUMPDEST PUSH1 0x19 SSTORE PUSH1 0x13 SLOAD PUSH3 0x10000 SWAP1 DIV PUSH1 0xFF AND ISZERO PUSH3 0x4A4 JUMPI PUSH1 0x15 SLOAD PUSH1 0x19 SLOAD PUSH1 0x40 MLOAD PUSH4 0xB1D2EF9 PUSH1 0xE4 SHL DUP2 MSTORE PUSH1 0x1 PUSH1 0x1 PUSH1 0xA0 SHL SUB SWAP1 SWAP3 AND SWAP2 PUSH4 0xB1D2EF90 SWAP2 PUSH3 0x42F SWAP2 PUSH1 0x4 ADD SWAP1 DUP2 MSTORE PUSH1 0x20 ADD SWAP1 JUMP JUMPDEST PUSH1 0x20 PUSH1 0x40 MLOAD DUP1 DUP4 SUB DUP2 DUP7 DUP1 EXTCODESIZE ISZERO DUP1 ISZERO PUSH3 0x448 JUMPI PUSH1 0x0 DUP1 REVERT JUMPDEST POP GAS STATICCALL ISZERO DUP1 ISZERO PUSH3 0x45D JUMPI RETURNDATASIZE PUSH1 0x0 DUP1 RETURNDATACOPY RETURNDATASIZE PUSH1 0x0 REVERT JUMPDEST POP POP POP POP PUSH1 0x40 MLOAD RETURNDATASIZE PUSH1 0x1F NOT PUSH1 0x1F DUP3 ADD AND DUP3 ADD DUP1 PUSH1 0x40 MSTORE POP DUP2 ADD SWAP1 PUSH3 0x483 SWAP2 SWAP1 PUSH3 0x6E3 JUMP JUMPDEST PUSH1 0x14 DUP1 SLOAD PUSH1 0x1 PUSH1 0x1 PUSH1 0xA0 SHL SUB NOT AND PUSH1 0x1 PUSH1 0x1 PUSH1 0xA0 SHL SUB SWAP3 SWAP1 SWAP3 AND SWAP2 SWAP1 SWAP2 OR SWAP1 SSTORE JUMPDEST PUSH1 0x15 PUSH1 0x0 SWAP1 SLOAD SWAP1 PUSH2 0x100 EXP SWAP1 DIV PUSH1 0x1 PUSH1 0x1 PUSH1 0xA0 SHL SUB AND PUSH1 0x1 PUSH1 0x1 PUSH1 0xA0 SHL SUB AND PUSH4 0x7E44D2CC PUSH1 0x40 MLOAD DUP2 PUSH4 0xFFFFFFFF AND PUSH1 0xE0 SHL DUP2 MSTORE PUSH1 0x4 ADD PUSH1 0x20 PUSH1 0x40 MLOAD DUP1 DUP4 SUB DUP2 DUP7 DUP1 EXTCODESIZE ISZERO DUP1 ISZERO PUSH3 0x4F3 JUMPI PUSH1 0x0 DUP1 REVERT JUMPDEST POP GAS STATICCALL ISZERO DUP1 ISZERO PUSH3 0x508 JUMPI RETURNDATASIZE PUSH1 0x0 DUP1 RETURNDATACOPY RETURNDATASIZE PUSH1 0x0 REVERT JUMPDEST POP POP POP POP PUSH1 0x40 MLOAD RETURNDATASIZE PUSH1 0x1F NOT PUSH1 0x1F DUP3 ADD AND DUP3 ADD DUP1 PUSH1 0x40 MSTORE POP DUP2 ADD SWAP1 PUSH3 0x52E SWAP2 SWAP1 PUSH3 0x6E3 JUMP JUMPDEST PUSH1 0x1C DUP1 SLOAD PUSH1 0x1 PUSH1 0x1 PUSH1 0xA0 SHL SUB NOT SWAP1 DUP2 AND PUSH1 0x1 PUSH1 0x1 PUSH1 0xA0 SHL SUB SWAP4 DUP5 AND OR SWAP1 SWAP2 SSTORE PUSH1 0x1D DUP1 SLOAD DUP3 AND SWAP4 DUP4 AND SWAP4 SWAP1 SWAP4 OR SWAP1 SWAP3 SSTORE PUSH1 0x16 DUP1 SLOAD SWAP1 SWAP3 AND SWAP3 AND SWAP2 SWAP1 SWAP2 OR SWAP1 SSTORE POP PUSH3 0x974 SWAP6 POP POP POP POP POP POP JUMP JUMPDEST DUP3 DUP1 SLOAD PUSH3 0x588 SWAP1 PUSH3 0x90B JUMP JUMPDEST SWAP1 PUSH1 0x0 MSTORE PUSH1 0x20 PUSH1 0x0 KECCAK256 SWAP1 PUSH1 0x1F ADD PUSH1 0x20 SWAP1 DIV DUP2 ADD SWAP3 DUP3 PUSH3 0x5AC JUMPI PUSH1 0x0 DUP6 SSTORE PUSH3 0x5F7 JUMP JUMPDEST DUP3 PUSH1 0x1F LT PUSH3 0x5C7 JUMPI DUP1 MLOAD PUSH1 0xFF NOT AND DUP4 DUP1 ADD OR DUP6 SSTORE PUSH3 0x5F7 JUMP JUMPDEST DUP3 DUP1 ADD PUSH1 0x1 ADD DUP6 SSTORE DUP3 ISZERO PUSH3 0x5F7 JUMPI SWAP2 DUP3 ADD JUMPDEST DUP3 DUP2 GT ISZERO PUSH3 0x5F7 JUMPI DUP3 MLOAD DUP3 SSTORE SWAP2 PUSH1 0x20 ADD SWAP2 SWAP1 PUSH1 0x1 ADD SWAP1 PUSH3 0x5DA JUMP JUMPDEST POP PUSH3 0x605 SWAP3 SWAP2 POP PUSH3 0x609 JUMP JUMPDEST POP SWAP1 JUMP JUMPDEST JUMPDEST DUP1 DUP3 GT ISZERO PUSH3 0x605 JUMPI PUSH1 0x0 DUP2 SSTORE PUSH1 0x1 ADD PUSH3 0x60A JUMP JUMPDEST DUP1 MLOAD PUSH1 0x1 PUSH1 0x1 PUSH1 0xA0 SHL SUB DUP2 AND DUP2 EQ PUSH3 0x638 JUMPI PUSH1 0x0 DUP1 REVERT JUMPDEST SWAP2 SWAP1 POP JUMP JUMPDEST DUP1 MLOAD DUP1 ISZERO ISZERO DUP2 EQ PUSH3 0x638 JUMPI PUSH1 0x0 DUP1 REVERT JUMPDEST PUSH1 0x0 DUP3 PUSH1 0x1F DUP4 ADD SLT PUSH3 0x660 JUMPI PUSH1 0x0 DUP1 REVERT JUMPDEST DUP2 MLOAD PUSH1 0x1 PUSH1 0x1 PUSH1 0x40 SHL SUB DUP2 GT ISZERO PUSH3 0x67C JUMPI PUSH3 0x67C PUSH3 0x95E JUMP JUMPDEST PUSH1 0x20 PUSH3 0x692 PUSH1 0x1F DUP4 ADD PUSH1 0x1F NOT AND DUP3 ADD PUSH3 0x879 JUMP JUMPDEST DUP3 DUP2 MSTORE DUP6 DUP3 DUP5 DUP8 ADD ADD GT ISZERO PUSH3 0x6A7 JUMPI PUSH1 0x0 DUP1 REVERT JUMPDEST PUSH1 0x0 JUMPDEST DUP4 DUP2 LT ISZERO PUSH3 0x6C7 JUMPI DUP6 DUP2 ADD DUP4 ADD MLOAD DUP3 DUP3 ADD DUP5 ADD MSTORE DUP3 ADD PUSH3 0x6AA JUMP JUMPDEST DUP4 DUP2 GT ISZERO PUSH3 0x6D9 JUMPI PUSH1 0x0 DUP4 DUP6 DUP5 ADD ADD MSTORE JUMPDEST POP SWAP6 SWAP5 POP POP POP POP POP JUMP JUMPDEST PUSH1 0x0 PUSH1 0x20 DUP3 DUP5 SUB SLT ISZERO PUSH3 0x6F6 JUMPI PUSH1 0x0 DUP1 REVERT JUMPDEST PUSH3 0x701 DUP3 PUSH3 0x620 JUMP JUMPDEST SWAP4 SWAP3 POP POP POP JUMP JUMPDEST PUSH1 0x0 DUP1 PUSH1 0x0 DUP1 PUSH1 0x0 DUP1 PUSH1 0x0 DUP1 PUSH1 0x0 PUSH2 0x200 DUP11 DUP13 SUB SLT ISZERO PUSH3 0x728 JUMPI PUSH1 0x0 DUP1 REVERT JUMPDEST PUSH3 0x733 DUP11 PUSH3 0x620 JUMP JUMPDEST PUSH1 0x20 DUP12 DUP2 ADD MLOAD SWAP2 SWAP11 POP SWAP1 PUSH1 0x1 PUSH1 0x1 PUSH1 0x40 SHL SUB DUP1 DUP3 GT ISZERO PUSH3 0x753 JUMPI PUSH1 0x0 DUP1 REVERT JUMPDEST PUSH3 0x761 DUP15 DUP4 DUP16 ADD PUSH3 0x64E JUMP JUMPDEST SWAP11 POP PUSH1 0x40 DUP14 ADD MLOAD SWAP2 POP DUP1 DUP3 GT ISZERO PUSH3 0x778 JUMPI PUSH1 0x0 DUP1 REVERT JUMPDEST POP PUSH3 0x787 DUP14 DUP3 DUP15 ADD PUSH3 0x64E JUMP JUMPDEST SWAP9 POP POP DUP12 PUSH1 0x7F DUP13 ADD SLT PUSH3 0x79A JUMPI PUSH1 0x0 DUP1 REVERT JUMPDEST PUSH3 0x7A4 PUSH3 0x84D JUMP JUMPDEST DUP1 PUSH1 0x60 DUP14 ADD PUSH2 0x160 DUP15 ADD DUP16 DUP2 GT ISZERO PUSH3 0x7BC JUMPI PUSH1 0x0 DUP1 REVERT JUMPDEST PUSH1 0x0 JUMPDEST PUSH1 0x8 DUP2 LT ISZERO PUSH3 0x7DE JUMPI DUP3 MLOAD DUP6 MSTORE SWAP4 DUP6 ADD SWAP4 SWAP2 DUP6 ADD SWAP2 PUSH1 0x1 ADD PUSH3 0x7BF JUMP JUMPDEST POP DUP3 SWAP11 POP PUSH3 0x7ED DUP2 PUSH3 0x63D JUMP JUMPDEST SWAP10 POP POP POP POP POP POP PUSH2 0x180 DUP11 ADD MLOAD SWAP4 POP PUSH2 0x1A0 DUP11 ADD MLOAD SWAP3 POP PUSH3 0x813 PUSH2 0x1C0 DUP12 ADD PUSH3 0x620 JUMP JUMPDEST SWAP2 POP PUSH3 0x824 PUSH2 0x1E0 DUP12 ADD PUSH3 0x620 JUMP JUMPDEST SWAP1 POP SWAP3 SWAP6 SWAP9 POP SWAP3 SWAP6 SWAP9 POP SWAP3 SWAP6 SWAP9 JUMP JUMPDEST PUSH1 0x0 PUSH1 0x20 DUP3 DUP5 SUB SLT ISZERO PUSH3 0x846 JUMPI PUSH1 0x0 DUP1 REVERT JUMPDEST POP MLOAD SWAP2 SWAP1 POP JUMP JUMPDEST PUSH1 0x40 MLOAD PUSH2 0x100 DUP2 ADD PUSH1 0x1 PUSH1 0x1 PUSH1 0x40 SHL SUB DUP2 GT DUP3 DUP3 LT OR ISZERO PUSH3 0x873 JUMPI PUSH3 0x873 PUSH3 0x95E JUMP JUMPDEST PUSH1 0x40 MSTORE SWAP1 JUMP JUMPDEST PUSH1 0x40 MLOAD PUSH1 0x1F DUP3 ADD PUSH1 0x1F NOT AND DUP2 ADD PUSH1 0x1 PUSH1 0x1 PUSH1 0x40 SHL SUB DUP2 GT DUP3 DUP3 LT OR ISZERO PUSH3 0x8A4 JUMPI PUSH3 0x8A4 PUSH3 0x95E JUMP JUMPDEST PUSH1 0x40 MSTORE SWAP2 SWAP1 POP JUMP JUMPDEST PUSH1 0x0 DUP3 PUSH3 0x8CA JUMPI PUSH4 0x4E487B71 PUSH1 0xE0 SHL PUSH1 0x0 MSTORE PUSH1 0x12 PUSH1 0x4 MSTORE PUSH1 0x24 PUSH1 0x0 REVERT JUMPDEST POP DIV SWAP1 JUMP JUMPDEST PUSH1 0x0 DUP2 PUSH1 0x0 NOT DIV DUP4 GT DUP3 ISZERO ISZERO AND ISZERO PUSH3 0x8EC JUMPI PUSH3 0x8EC PUSH3 0x948 JUMP JUMPDEST POP MUL SWAP1 JUMP JUMPDEST PUSH1 0x0 DUP3 DUP3 LT ISZERO PUSH3 0x906 JUMPI PUSH3 0x906 PUSH3 0x948 JUMP JUMPDEST POP SUB SWAP1 JUMP JUMPDEST PUSH1 0x1 DUP2 DUP2 SHR SWAP1 DUP3 AND DUP1 PUSH3 0x920 JUMPI PUSH1 0x7F DUP3 AND SWAP2 POP JUMPDEST PUSH1 0x20 DUP3 LT DUP2 EQ ISZERO PUSH3 0x942 JUMPI PUSH4 0x4E487B71 PUSH1 0xE0 SHL PUSH1 0x0 MSTORE PUSH1 0x22 PUSH1 0x4 MSTORE PUSH1 0x24 PUSH1 0x0 REVERT JUMPDEST POP SWAP2 SWAP1 POP JUMP JUMPDEST PUSH4 0x4E487B71 PUSH1 0xE0 SHL PUSH1 0x0 MSTORE PUSH1 0x11 PUSH1 0x4 MSTORE PUSH1 0x24 PUSH1 0x0 REVERT JUMPDEST PUSH4 0x4E487B71 PUSH1 0xE0 SHL PUSH1 0x0 MSTORE PUSH1 0x41 PUSH1 0x4 MSTORE PUSH1 0x24 PUSH1 0x0 REVERT JUMPDEST PUSH2 0x2187 DUP1 PUSH3 0x984 PUSH1 0x0 CODECOPY PUSH1 0x0 RETURN INVALID PUSH1 0x80 PUSH1 0x40 MSTORE PUSH1 0x4 CALLDATASIZE LT PUSH2 0x313 JUMPI PUSH1 0x0 CALLDATALOAD PUSH1 0xE0 SHR DUP1 PUSH4 0x8F5D036B GT PUSH2 0x19A JUMPI DUP1 PUSH4 0xC7BF5166 GT PUSH2 0xE1 JUMPI DUP1 PUSH4 0xE49DCE66 GT PUSH2 0x8A JUMPI DUP1 PUSH4 0xF887EA40 GT PUSH2 0x64 JUMPI DUP1 PUSH4 0xF887EA40 EQ PUSH2 0x803 JUMPI DUP1 PUSH4 0xF89BE593 EQ PUSH2 0x823 JUMPI DUP1 PUSH4 0xFC0C546A EQ PUSH2 0x839 JUMPI PUSH1 0x0 DUP1 REVERT JUMPDEST DUP1 PUSH4 0xE49DCE66 EQ PUSH2 0x7AD JUMPI DUP1 PUSH4 0xEA44C1BC EQ PUSH2 0x7CD JUMPI DUP1 PUSH4 0xEE97F7F3 EQ PUSH2 0x7E3 JUMPI PUSH1 0x0 DUP1 REVERT JUMPDEST DUP1 PUSH4 0xD4B9DE51 GT PUSH2 0xBB JUMPI DUP1 PUSH4 0xD4B9DE51 EQ PUSH2 0x767 JUMPI DUP1 PUSH4 0xDA2CBD50 EQ PUSH2 0x781 JUMPI DUP1 PUSH4 0xDE284B3A EQ PUSH2 0x797 JUMPI PUSH1 0x0 DUP1 REVERT JUMPDEST DUP1 PUSH4 0xC7BF5166 EQ PUSH2 0x726 JUMPI DUP1 PUSH4 0xC84C0387 EQ PUSH2 0x73C JUMPI DUP1 PUSH4 0xD132A8F4 EQ PUSH2 0x752 JUMPI PUSH1 0x0 DUP1 REVERT JUMPDEST DUP1 PUSH4 0xA7BB5803 GT PUSH2 0x143 JUMPI DUP1 PUSH4 0xBCA1DA85 GT PUSH2 0x11D JUMPI DUP1 PUSH4 0xBCA1DA85 EQ PUSH2 0x6D0 JUMPI DUP1 PUSH4 0xBE9FEB30 EQ PUSH2 0x6F0 JUMPI DUP1 PUSH4 0xC45A0155 EQ PUSH2 0x706 JUMPI PUSH1 0x0 DUP1 REVERT JUMPDEST DUP1 PUSH4 0xA7BB5803 EQ PUSH2 0x666 JUMPI DUP1 PUSH4 0xABA83150 EQ PUSH2 0x6A5 JUMPI DUP1 PUSH4 0xB071CBE6 EQ PUSH2 0x6BA JUMPI PUSH1 0x0 DUP1 REVERT JUMPDEST DUP1 PUSH4 0xA0F7AB35 GT PUSH2 0x174 JUMPI DUP1 PUSH4 0xA0F7AB35 EQ PUSH2 0x620 JUMPI DUP1 PUSH4 0xA5F0DEA2 EQ PUSH2 0x636 JUMPI DUP1 PUSH4 0xA611DC37 EQ PUSH2 0x650 JUMPI PUSH1 0x0 DUP1 REVERT JUMPDEST DUP1 PUSH4 0x8F5D036B EQ PUSH2 0x5E4 JUMPI DUP1 PUSH4 0x957F1474 EQ PUSH2 0x5F9 JUMPI DUP1 PUSH4 0x9B8906AE EQ PUSH2 0x601 JUMPI PUSH1 0x0 DUP1 REVERT JUMPDEST DUP1 PUSH4 0x51FB012D GT PUSH2 0x25E JUMPI DUP1 PUSH4 0x6B7F3DF3 GT PUSH2 0x207 JUMPI DUP1 PUSH4 0x78E97925 GT PUSH2 0x1E1 JUMPI DUP1 PUSH4 0x78E97925 EQ PUSH2 0x599 JUMPI DUP1 PUSH4 0x83B17FDD EQ PUSH2 0x5AF JUMPI DUP1 PUSH4 0x85BF4946 EQ PUSH2 0x5C5 JUMPI PUSH1 0x0 DUP1 REVERT JUMPDEST DUP1 PUSH4 0x6B7F3DF3 EQ PUSH2 0x534 JUMPI DUP1 PUSH4 0x6EF2E4D3 EQ PUSH2 0x561 JUMPI DUP1 PUSH4 0x7284E416 EQ PUSH2 0x577 JUMPI PUSH1 0x0 DUP1 REVERT JUMPDEST DUP1 PUSH4 0x5C975ABB GT PUSH2 0x238 JUMPI DUP1 PUSH4 0x5C975ABB EQ PUSH2 0x4DC JUMPI DUP1 PUSH4 0x64DB812E EQ PUSH2 0x4F4 JUMPI DUP1 PUSH4 0x66D003AC EQ PUSH2 0x514 JUMPI PUSH1 0x0 DUP1 REVERT JUMPDEST DUP1 PUSH4 0x51FB012D EQ PUSH2 0x484 JUMPI DUP1 PUSH4 0x58A687EC EQ PUSH2 0x4B4 JUMPI DUP1 PUSH4 0x59663174 EQ PUSH2 0x4C9 JUMPI PUSH1 0x0 DUP1 REVERT JUMPDEST DUP1 PUSH4 0x27A72C96 GT PUSH2 0x2C0 JUMPI DUP1 PUSH4 0x3C876081 GT PUSH2 0x29A JUMPI DUP1 PUSH4 0x3C876081 EQ PUSH2 0x424 JUMPI DUP1 PUSH4 0x48C54B9D EQ PUSH2 0x459 JUMPI DUP1 PUSH4 0x4AE01D52 EQ PUSH2 0x46E JUMPI PUSH1 0x0 DUP1 REVERT JUMPDEST DUP1 PUSH4 0x27A72C96 EQ PUSH2 0x3D1 JUMPI DUP1 PUSH4 0x27C8F835 EQ PUSH2 0x3E7 JUMPI DUP1 PUSH4 0x3197CBB6 EQ PUSH2 0x40E JUMPI PUSH1 0x0 DUP1 REVERT JUMPDEST DUP1 PUSH4 0x12E409C5 GT PUSH2 0x2F1 JUMPI DUP1 PUSH4 0x12E409C5 EQ PUSH2 0x36E JUMPI DUP1 PUSH4 0x201A3419 EQ PUSH2 0x384 JUMPI DUP1 PUSH4 0x238AC933 EQ PUSH2 0x399 JUMPI PUSH1 0x0 DUP1 REVERT JUMPDEST DUP1 PUSH4 0x17F6FAE EQ PUSH2 0x318 JUMPI DUP1 PUSH4 0x39CE157 EQ PUSH2 0x341 JUMPI DUP1 PUSH4 0x3BCF11D EQ PUSH2 0x357 JUMPI JUMPDEST PUSH1 0x0 DUP1 REVERT JUMPDEST CALLVALUE DUP1 ISZERO PUSH2 0x324 JUMPI PUSH1 0x0 DUP1 REVERT JUMPDEST POP PUSH2 0x32E PUSH1 0x7 SLOAD DUP2 JUMP JUMPDEST PUSH1 0x40 MLOAD SWAP1 DUP2 MSTORE PUSH1 0x20 ADD JUMPDEST PUSH1 0x40 MLOAD DUP1 SWAP2 SUB SWAP1 RETURN JUMPDEST CALLVALUE DUP1 ISZERO PUSH2 0x34D JUMPI PUSH1 0x0 DUP1 REVERT JUMPDEST POP PUSH2 0x32E PUSH1 0x11 SLOAD DUP2 JUMP JUMPDEST CALLVALUE DUP1 ISZERO PUSH2 0x363 JUMPI PUSH1 0x0 DUP1 REVERT JUMPDEST POP PUSH2 0x36C PUSH2 0x859 JUMP JUMPDEST STOP JUMPDEST CALLVALUE DUP1 ISZERO PUSH2 0x37A JUMPI PUSH1 0x0 DUP1 REVERT JUMPDEST POP PUSH2 0x32E PUSH1 0x10 SLOAD DUP2 JUMP JUMPDEST CALLVALUE DUP1 ISZERO PUSH2 0x390 JUMPI PUSH1 0x0 DUP1 REVERT JUMPDEST POP PUSH2 0x36C PUSH2 0x97C JUMP JUMPDEST CALLVALUE DUP1 ISZERO PUSH2 0x3A5 JUMPI PUSH1 0x0 DUP1 REVERT JUMPDEST POP PUSH1 0x14 SLOAD PUSH2 0x3B9 SWAP1 PUSH1 0x1 PUSH1 0x1 PUSH1 0xA0 SHL SUB AND DUP2 JUMP JUMPDEST PUSH1 0x40 MLOAD PUSH1 0x1 PUSH1 0x1 PUSH1 0xA0 SHL SUB SWAP1 SWAP2 AND DUP2 MSTORE PUSH1 0x20 ADD PUSH2 0x338 JUMP JUMPDEST CALLVALUE DUP1 ISZERO PUSH2 0x3DD JUMPI PUSH1 0x0 DUP1 REVERT JUMPDEST POP PUSH2 0x32E PUSH1 0xE SLOAD DUP2 JUMP JUMPDEST CALLVALUE DUP1 ISZERO PUSH2 0x3F3 JUMPI PUSH1 0x0 DUP1 REVERT JUMPDEST POP PUSH1 0x13 SLOAD PUSH2 0x3B9 SWAP1 PUSH4 0x1000000 SWAP1 DIV PUSH1 0x1 PUSH1 0x1 PUSH1 0xA0 SHL SUB AND DUP2 JUMP JUMPDEST CALLVALUE DUP1 ISZERO PUSH2 0x41A JUMPI PUSH1 0x0 DUP1 REVERT JUMPDEST POP PUSH2 0x32E PUSH1 0x9 SLOAD DUP2 JUMP JUMPDEST CALLVALUE DUP1 ISZERO PUSH2 0x430 JUMPI PUSH1 0x0 DUP1 REVERT JUMPDEST POP PUSH2 0x3B9 PUSH2 0x43F CALLDATASIZE PUSH1 0x4 PUSH2 0x1EDE JUMP JUMPDEST PUSH1 0x20 DUP1 MSTORE PUSH1 0x0 SWAP1 DUP2 MSTORE PUSH1 0x40 SWAP1 KECCAK256 SLOAD PUSH1 0x1 PUSH1 0x1 PUSH1 0xA0 SHL SUB AND DUP2 JUMP JUMPDEST CALLVALUE DUP1 ISZERO PUSH2 0x465 JUMPI PUSH1 0x0 DUP1 REVERT JUMPDEST POP PUSH2 0x36C PUSH2 0xE76 JUMP JUMPDEST CALLVALUE DUP1 ISZERO PUSH2 0x47A JUMPI PUSH1 0x0 DUP1 REVERT JUMPDEST POP PUSH2 0x32E PUSH1 0xC SLOAD DUP2 JUMP JUMPDEST CALLVALUE DUP1 ISZERO PUSH2 0x490 JUMPI PUSH1 0x0 DUP1 REVERT JUMPDEST POP PUSH1 0x13 SLOAD PUSH2 0x4A4 SWAP1 PUSH3 0x10000 SWAP1 DIV PUSH1 0xFF AND DUP2 JUMP JUMPDEST PUSH1 0x40 MLOAD SWAP1 ISZERO ISZERO DUP2 MSTORE PUSH1 0x20 ADD PUSH2 0x338 JUMP JUMPDEST CALLVALUE DUP1 ISZERO PUSH2 0x4C0 JUMPI PUSH1 0x0 DUP1 REVERT JUMPDEST POP PUSH2 0x36C PUSH2 0x1106 JUMP JUMPDEST PUSH2 0x36C PUSH2 0x4D7 CALLDATASIZE PUSH1 0x4 PUSH2 0x1F41 JUMP JUMPDEST PUSH2 0x12AD JUMP JUMPDEST CALLVALUE DUP1 ISZERO PUSH2 0x4E8 JUMPI PUSH1 0x0 DUP1 REVERT JUMPDEST POP PUSH1 0x1 SLOAD PUSH1 0xFF AND PUSH2 0x4A4 JUMP JUMPDEST CALLVALUE DUP1 ISZERO PUSH2 0x500 JUMPI PUSH1 0x0 DUP1 REVERT JUMPDEST POP PUSH1 0x1F SLOAD PUSH2 0x4A4 SWAP1 PUSH3 0x10000 SWAP1 DIV PUSH1 0xFF AND DUP2 JUMP JUMPDEST CALLVALUE DUP1 ISZERO PUSH2 0x520 JUMPI PUSH1 0x0 DUP1 REVERT JUMPDEST POP PUSH1 0x1C SLOAD PUSH2 0x3B9 SWAP1 PUSH1 0x1 PUSH1 0x1 PUSH1 0xA0 SHL SUB AND DUP2 JUMP JUMPDEST CALLVALUE DUP1 ISZERO PUSH2 0x540 JUMPI PUSH1 0x0 DUP1 REVERT JUMPDEST POP PUSH2 0x32E PUSH2 0x54F CALLDATASIZE PUSH1 0x4 PUSH2 0x1EDE JUMP JUMPDEST PUSH1 0x21 PUSH1 0x20 MSTORE PUSH1 0x0 SWAP1 DUP2 MSTORE PUSH1 0x40 SWAP1 KECCAK256 SLOAD DUP2 JUMP JUMPDEST CALLVALUE DUP1 ISZERO PUSH2 0x56D JUMPI PUSH1 0x0 DUP1 REVERT JUMPDEST POP PUSH2 0x32E PUSH1 0x12 SLOAD DUP2 JUMP JUMPDEST CALLVALUE DUP1 ISZERO PUSH2 0x583 JUMPI PUSH1 0x0 DUP1 REVERT JUMPDEST POP PUSH2 0x58C PUSH2 0x169A JUMP JUMPDEST PUSH1 0x40 MLOAD PUSH2 0x338 SWAP2 SWAP1 PUSH2 0x2024 JUMP JUMPDEST CALLVALUE DUP1 ISZERO PUSH2 0x5A5 JUMPI PUSH1 0x0 DUP1 REVERT JUMPDEST POP PUSH2 0x32E PUSH1 0x8 SLOAD DUP2 JUMP JUMPDEST CALLVALUE DUP1 ISZERO PUSH2 0x5BB JUMPI PUSH1 0x0 DUP1 REVERT JUMPDEST POP PUSH2 0x32E PUSH1 0x2 SLOAD DUP2 JUMP JUMPDEST CALLVALUE DUP1 ISZERO PUSH2 0x5D1 JUMPI PUSH1 0x0 DUP1 REVERT JUMPDEST POP PUSH1 0x13 SLOAD PUSH2 0x4A4 SWAP1 PUSH2 0x100 SWAP1 DIV PUSH1 0xFF AND DUP2 JUMP JUMPDEST CALLVALUE DUP1 ISZERO PUSH2 0x5F0 JUMPI PUSH1 0x0 DUP1 REVERT JUMPDEST POP PUSH2 0x36C PUSH2 0x1728 JUMP JUMPDEST PUSH2 0x36C PUSH2 0x1853 JUMP JUMPDEST CALLVALUE DUP1 ISZERO PUSH2 0x60D JUMPI PUSH1 0x0 DUP1 REVERT JUMPDEST POP PUSH1 0x1F SLOAD PUSH2 0x4A4 SWAP1 PUSH2 0x100 SWAP1 DIV PUSH1 0xFF AND DUP2 JUMP JUMPDEST CALLVALUE DUP1 ISZERO PUSH2 0x62C JUMPI PUSH1 0x0 DUP1 REVERT JUMPDEST POP PUSH2 0x32E PUSH1 0x3 SLOAD DUP2 JUMP JUMPDEST CALLVALUE DUP1 ISZERO PUSH2 0x642 JUMPI PUSH1 0x0 DUP1 REVERT JUMPDEST POP PUSH1 0x1F SLOAD PUSH2 0x4A4 SWAP1 PUSH1 0xFF AND DUP2 JUMP JUMPDEST CALLVALUE DUP1 ISZERO PUSH2 0x65C JUMPI PUSH1 0x0 DUP1 REVERT JUMPDEST POP PUSH2 0x32E PUSH1 0x4 SLOAD DUP2 JUMP JUMPDEST CALLVALUE DUP1 ISZERO PUSH2 0x672 JUMPI PUSH1 0x0 DUP1 REVERT JUMPDEST POP PUSH2 0x686 PUSH2 0x681 CALLDATASIZE PUSH1 0x4 PUSH2 0x1F41 JUMP JUMPDEST PUSH2 0x1C28 JUMP JUMPDEST PUSH1 0x40 DUP1 MLOAD PUSH1 0xFF SWAP1 SWAP5 AND DUP5 MSTORE PUSH1 0x20 DUP5 ADD SWAP3 SWAP1 SWAP3 MSTORE SWAP1 DUP3 ADD MSTORE PUSH1 0x60 ADD PUSH2 0x338 JUMP JUMPDEST CALLVALUE DUP1 ISZERO PUSH2 0x6B1 JUMPI PUSH1 0x0 DUP1 REVERT JUMPDEST POP PUSH2 0x58C PUSH2 0x1C57 JUMP JUMPDEST CALLVALUE DUP1 ISZERO PUSH2 0x6C6 JUMPI PUSH1 0x0 DUP1 REVERT JUMPDEST POP PUSH2 0x32E PUSH1 0x5 SLOAD DUP2 JUMP JUMPDEST CALLVALUE DUP1 ISZERO PUSH2 0x6DC JUMPI PUSH1 0x0 DUP1 REVERT JUMPDEST POP PUSH1 0x1D SLOAD PUSH2 0x3B9 SWAP1 PUSH1 0x1 PUSH1 0x1 PUSH1 0xA0 SHL SUB AND DUP2 JUMP JUMPDEST CALLVALUE DUP1 ISZERO PUSH2 0x6FC JUMPI PUSH1 0x0 DUP1 REVERT JUMPDEST POP PUSH2 0x32E PUSH1 0xA SLOAD DUP2 JUMP JUMPDEST CALLVALUE DUP1 ISZERO PUSH2 0x712 JUMPI PUSH1 0x0 DUP1 REVERT JUMPDEST POP PUSH1 0x17 SLOAD PUSH2 0x3B9 SWAP1 PUSH1 0x1 PUSH1 0x1 PUSH1 0xA0 SHL SUB AND DUP2 JUMP JUMPDEST CALLVALUE DUP1 ISZERO PUSH2 0x732 JUMPI PUSH1 0x0 DUP1 REVERT JUMPDEST POP PUSH2 0x32E PUSH1 0xB SLOAD DUP2 JUMP JUMPDEST CALLVALUE DUP1 ISZERO PUSH2 0x748 JUMPI PUSH1 0x0 DUP1 REVERT JUMPDEST POP PUSH2 0x32E PUSH1 0x19 SLOAD DUP2 JUMP JUMPDEST CALLVALUE DUP1 ISZERO PUSH2 0x75E JUMPI PUSH1 0x0 DUP1 REVERT JUMPDEST POP PUSH2 0x32E PUSH2 0x1C64 JUMP JUMPDEST CALLVALUE DUP1 ISZERO PUSH2 0x773 JUMPI PUSH1 0x0 DUP1 REVERT JUMPDEST POP PUSH1 0x13 SLOAD PUSH2 0x4A4 SWAP1 PUSH1 0xFF AND DUP2 JUMP JUMPDEST CALLVALUE DUP1 ISZERO PUSH2 0x78D JUMPI PUSH1 0x0 DUP1 REVERT JUMPDEST POP PUSH2 0x32E PUSH1 0x1E SLOAD DUP2 JUMP JUMPDEST CALLVALUE DUP1 ISZERO PUSH2 0x7A3 JUMPI PUSH1 0x0 DUP1 REVERT JUMPDEST POP PUSH2 0x32E PUSH1 0xF SLOAD DUP2 JUMP JUMPDEST CALLVALUE DUP1 ISZERO PUSH2 0x7B9 JUMPI PUSH1 0x0 DUP1 REVERT JUMPDEST POP PUSH2 0x4A4 PUSH2 0x7C8 CALLDATASIZE PUSH1 0x4 PUSH2 0x1F7E JUMP JUMPDEST PUSH2 0x1C7B JUMP JUMPDEST CALLVALUE DUP1 ISZERO PUSH2 0x7D9 JUMPI PUSH1 0x0 DUP1 REVERT JUMPDEST POP PUSH2 0x32E PUSH1 0xD SLOAD DUP2 JUMP JUMPDEST CALLVALUE DUP1 ISZERO PUSH2 0x7EF JUMPI PUSH1 0x0 DUP1 REVERT JUMPDEST POP PUSH1 0x15 SLOAD PUSH2 0x3B9 SWAP1 PUSH1 0x1 PUSH1 0x1 PUSH1 0xA0 SHL SUB AND DUP2 JUMP JUMPDEST CALLVALUE DUP1 ISZERO PUSH2 0x80F JUMPI PUSH1 0x0 DUP1 REVERT JUMPDEST POP PUSH1 0x16 SLOAD PUSH2 0x3B9 SWAP1 PUSH1 0x1 PUSH1 0x1 PUSH1 0xA0 SHL SUB AND DUP2 JUMP JUMPDEST CALLVALUE DUP1 ISZERO PUSH2 0x82F JUMPI PUSH1 0x0 DUP1 REVERT JUMPDEST POP PUSH2 0x32E PUSH1 0x6 SLOAD DUP2 JUMP JUMPDEST CALLVALUE DUP1 ISZERO PUSH2 0x845 JUMPI PUSH1 0x0 DUP1 REVERT JUMPDEST POP PUSH1 0x18 SLOAD PUSH2 0x3B9 SWAP1 PUSH1 0x1 PUSH1 0x1 PUSH1 0xA0 SHL SUB AND DUP2 JUMP JUMPDEST PUSH1 0x1D SLOAD PUSH1 0x1 PUSH1 0x1 PUSH1 0xA0 SHL SUB AND CALLER EQ PUSH2 0x8B8 JUMPI PUSH1 0x40 MLOAD PUSH3 0x461BCD PUSH1 0xE5 SHL DUP2 MSTORE PUSH1 0x20 PUSH1 0x4 DUP3 ADD MSTORE PUSH1 0x1B PUSH1 0x24 DUP3 ADD MSTORE PUSH32 0x63616C6C6572206973206E6F742074686520696E69746961746F720000000000 PUSH1 0x44 DUP3 ADD MSTORE PUSH1 0x64 ADD JUMPDEST PUSH1 0x40 MLOAD DUP1 SWAP2 SUB SWAP1 REVERT JUMPDEST PUSH1 0x1F SLOAD PUSH2 0x100 SWAP1 DIV PUSH1 0xFF AND ISZERO PUSH2 0x910 JUMPI PUSH1 0x40 MLOAD PUSH3 0x461BCD PUSH1 0xE5 SHL DUP2 MSTORE PUSH1 0x20 PUSH1 0x4 DUP3 ADD MSTORE PUSH1 0x1C PUSH1 0x24 DUP3 ADD MSTORE PUSH32 0x636C61696D696E672068617320616C7265616479207374617274656400000000 PUSH1 0x44 DUP3 ADD MSTORE PUSH1 0x64 ADD PUSH2 0x8AF JUMP JUMPDEST PUSH1 0x1F SLOAD PUSH3 0x10000 SWAP1 DIV PUSH1 0xFF AND ISZERO PUSH2 0x969 JUMPI PUSH1 0x40 MLOAD PUSH3 0x461BCD PUSH1 0xE5 SHL DUP2 MSTORE PUSH1 0x20 PUSH1 0x4 DUP3 ADD MSTORE PUSH1 0x14 PUSH1 0x24 DUP3 ADD MSTORE PUSH32 0x73616C6520616C72656164792061626F72746564000000000000000000000000 PUSH1 0x44 DUP3 ADD MSTORE PUSH1 0x64 ADD PUSH2 0x8AF JUMP JUMPDEST PUSH1 0x1F DUP1 SLOAD PUSH3 0xFF0000 NOT AND PUSH3 0x10000 OR SWAP1 SSTORE JUMP JUMPDEST PUSH1 0x1D SLOAD PUSH1 0x1 PUSH1 0x1 PUSH1 0xA0 SHL SUB AND CALLER EQ PUSH2 0x9D6 JUMPI PUSH1 0x40 MLOAD PUSH3 0x461BCD PUSH1 0xE5 SHL DUP2 MSTORE PUSH1 0x20 PUSH1 0x4 DUP3 ADD MSTORE PUSH1 0x1B PUSH1 0x24 DUP3 ADD MSTORE PUSH32 0x63616C6C6572206973206E6F742074686520696E69746961746F720000000000 PUSH1 0x44 DUP3 ADD MSTORE PUSH1 0x64 ADD PUSH2 0x8AF JUMP JUMPDEST PUSH1 0x2 PUSH1 0x0 SLOAD EQ ISZERO PUSH2 0xA29 JUMPI PUSH1 0x40 MLOAD PUSH3 0x461BCD PUSH1 0xE5 SHL DUP2 MSTORE PUSH1 0x20 PUSH1 0x4 DUP3 ADD MSTORE PUSH1 0x1F PUSH1 0x24 DUP3 ADD MSTORE PUSH32 0x5265656E7472616E637947756172643A207265656E7472616E742063616C6C00 PUSH1 0x44 DUP3 ADD MSTORE PUSH1 0x64 ADD PUSH2 0x8AF JUMP JUMPDEST PUSH1 0x2 PUSH1 0x0 SSTORE PUSH1 0x1F SLOAD PUSH3 0x10000 SWAP1 DIV PUSH1 0xFF AND ISZERO PUSH2 0xA7A JUMPI PUSH1 0x40 MLOAD PUSH3 0x461BCD PUSH1 0xE5 SHL DUP2 MSTORE PUSH1 0x20 PUSH1 0x4 DUP3 ADD MSTORE PUSH1 0x10 PUSH1 0x24 DUP3 ADD MSTORE PUSH16 0x1CD85B19481DD85CC818589BDC9D1959 PUSH1 0x82 SHL PUSH1 0x44 DUP3 ADD MSTORE PUSH1 0x64 ADD PUSH2 0x8AF JUMP JUMPDEST PUSH1 0x1F SLOAD PUSH1 0xFF AND PUSH2 0xACC JUMPI PUSH1 0x40 MLOAD PUSH3 0x461BCD PUSH1 0xE5 SHL DUP2 MSTORE PUSH1 0x20 PUSH1 0x4 DUP3 ADD MSTORE PUSH1 0x15 PUSH1 0x24 DUP3 ADD MSTORE PUSH32 0x73616C65207761736E27742066696E616C697A65640000000000000000000000 PUSH1 0x44 DUP3 ADD MSTORE PUSH1 0x64 ADD PUSH2 0x8AF JUMP JUMPDEST PUSH1 0x6 SLOAD PUSH1 0x1E SLOAD GT PUSH2 0xB1F JUMPI PUSH1 0x40 MLOAD PUSH3 0x461BCD PUSH1 0xE5 SHL DUP2 MSTORE PUSH1 0x20 PUSH1 0x4 DUP3 ADD MSTORE PUSH1 0x1B PUSH1 0x24 DUP3 ADD MSTORE PUSH32 0x6E6F7420656E6F75676820746F6B656E73207765726520736F6C640000000000 PUSH1 0x44 DUP3 ADD MSTORE PUSH1 0x64 ADD PUSH2 0x8AF JUMP JUMPDEST PUSH1 0x1F SLOAD PUSH2 0x100 SWAP1 DIV PUSH1 0xFF AND ISZERO PUSH2 0xB77 JUMPI PUSH1 0x40 MLOAD PUSH3 0x461BCD PUSH1 0xE5 SHL DUP2 MSTORE PUSH1 0x20 PUSH1 0x4 DUP3 ADD MSTORE PUSH1 0x16 PUSH1 0x24 DUP3 ADD MSTORE PUSH32 0x73616C652077617320616C726561647920656E64656400000000000000000000 PUSH1 0x44 DUP3 ADD MSTORE PUSH1 0x64 ADD PUSH2 0x8AF JUMP JUMPDEST PUSH1 0x1F DUP1 SLOAD PUSH2 0xFF00 NOT AND PUSH2 0x100 OR SWAP1 SSTORE PUSH1 0x3 SLOAD PUSH1 0x0 SWAP1 PUSH2 0xB94 PUSH2 0x1C64 JUMP JUMPDEST PUSH2 0xB9E SWAP2 SWAP1 PUSH2 0x2091 JUMP JUMPDEST SWAP1 POP PUSH1 0x0 PUSH1 0x5 SLOAD PUSH1 0x1E SLOAD PUSH1 0x12 SLOAD PUSH2 0xBB5 SWAP2 SWAP1 PUSH2 0x20B3 JUMP JUMPDEST PUSH2 0xBBF SWAP2 SWAP1 PUSH2 0x2091 JUMP JUMPDEST PUSH1 0x18 SLOAD PUSH1 0x16 SLOAD PUSH1 0x40 MLOAD PUSH4 0x95EA7B3 PUSH1 0xE0 SHL DUP2 MSTORE PUSH1 0x1 PUSH1 0x1 PUSH1 0xA0 SHL SUB SWAP2 DUP3 AND PUSH1 0x4 DUP3 ADD MSTORE PUSH1 0x24 DUP2 ADD DUP5 SWAP1 MSTORE SWAP3 SWAP4 POP AND SWAP1 PUSH4 0x95EA7B3 SWAP1 PUSH1 0x44 ADD PUSH1 0x20 PUSH1 0x40 MLOAD DUP1 DUP4 SUB DUP2 PUSH1 0x0 DUP8 DUP1 EXTCODESIZE ISZERO DUP1 ISZERO PUSH2 0xC11 JUMPI PUSH1 0x0 DUP1 REVERT JUMPDEST POP GAS CALL ISZERO DUP1 ISZERO PUSH2 0xC25 JUMPI RETURNDATASIZE PUSH1 0x0 DUP1 RETURNDATACOPY RETURNDATASIZE PUSH1 0x0 REVERT JUMPDEST POP POP POP POP PUSH1 0x40 MLOAD RETURNDATASIZE PUSH1 0x1F NOT PUSH1 0x1F DUP3 ADD AND DUP3 ADD DUP1 PUSH1 0x40 MSTORE POP DUP2 ADD SWAP1 PUSH2 0xC49 SWAP2 SWAP1 PUSH2 0x1F1F JUMP JUMPDEST POP PUSH1 0x16 SLOAD PUSH1 0x18 SLOAD PUSH1 0x1 PUSH1 0x1 PUSH1 0xA0 SHL SUB SWAP2 DUP3 AND SWAP2 PUSH4 0xF305D719 SWAP2 DUP6 SWAP2 AND DUP5 PUSH1 0x0 DUP1 ADDRESS PUSH2 0xC76 TIMESTAMP PUSH2 0x3E8 PUSH2 0x2079 JUMP JUMPDEST PUSH1 0x40 MLOAD PUSH1 0xE0 DUP10 SWAP1 SHL PUSH32 0xFFFFFFFF00000000000000000000000000000000000000000000000000000000 AND DUP2 MSTORE PUSH1 0x1 PUSH1 0x1 PUSH1 0xA0 SHL SUB SWAP7 DUP8 AND PUSH1 0x4 DUP3 ADD MSTORE PUSH1 0x24 DUP2 ADD SWAP6 SWAP1 SWAP6 MSTORE PUSH1 0x44 DUP6 ADD SWAP4 SWAP1 SWAP4 MSTORE PUSH1 0x64 DUP5 ADD SWAP2 SWAP1 SWAP2 MSTORE SWAP1 SWAP3 AND PUSH1 0x84 DUP3 ADD MSTORE PUSH1 0xA4 DUP2 ADD SWAP2 SWAP1 SWAP2 MSTORE PUSH1 0xC4 ADD PUSH1 0x60 PUSH1 0x40 MLOAD DUP1 DUP4 SUB DUP2 DUP6 DUP9 DUP1 EXTCODESIZE ISZERO DUP1 ISZERO PUSH2 0xCF6 JUMPI PUSH1 0x0 DUP1 REVERT JUMPDEST POP GAS CALL ISZERO DUP1 ISZERO PUSH2 0xD0A JUMPI RETURNDATASIZE PUSH1 0x0 DUP1 RETURNDATACOPY RETURNDATASIZE PUSH1 0x0 REVERT JUMPDEST POP POP POP POP POP PUSH1 0x40 MLOAD RETURNDATASIZE PUSH1 0x1F NOT PUSH1 0x1F DUP3 ADD AND DUP3 ADD DUP1 PUSH1 0x40 MSTORE POP DUP2 ADD SWAP1 PUSH2 0xD2F SWAP2 SWAP1 PUSH2 0x1FF6 JUMP JUMPDEST POP POP PUSH1 0x15 SLOAD PUSH1 0x40 DUP1 MLOAD PUSH4 0x1F9134B3 PUSH1 0xE2 SHL DUP2 MSTORE SWAP1 MLOAD PUSH1 0x1 PUSH1 0x1 PUSH1 0xA0 SHL SUB SWAP1 SWAP3 AND SWAP3 POP PUSH4 0x7E44D2CC SWAP2 PUSH1 0x4 DUP1 DUP4 ADD SWAP3 PUSH1 0x20 SWAP3 SWAP2 SWAP1 DUP3 SWAP1 SUB ADD DUP2 DUP7 DUP1 EXTCODESIZE ISZERO DUP1 ISZERO PUSH2 0xD76 JUMPI PUSH1 0x0 DUP1 REVERT JUMPDEST POP GAS STATICCALL ISZERO DUP1 ISZERO PUSH2 0xD8A JUMPI RETURNDATASIZE PUSH1 0x0 DUP1 RETURNDATACOPY RETURNDATASIZE PUSH1 0x0 REVERT JUMPDEST POP POP POP POP PUSH1 0x40 MLOAD RETURNDATASIZE PUSH1 0x1F NOT PUSH1 0x1F DUP3 ADD AND DUP3 ADD DUP1 PUSH1 0x40 MSTORE POP DUP2 ADD SWAP1 PUSH2 0xDAE SWAP2 SWAP1 PUSH2 0x1F02 JUMP JUMPDEST PUSH1 0x1 PUSH1 0x1 PUSH1 0xA0 SHL SUB AND PUSH2 0x2710 PUSH1 0x7 SLOAD PUSH1 0x1E SLOAD PUSH2 0xDCA SWAP2 SWAP1 PUSH2 0x20B3 JUMP JUMPDEST PUSH2 0xDD4 SWAP2 SWAP1 PUSH2 0x2091 JUMP JUMPDEST PUSH1 0x40 MLOAD PUSH1 0x0 DUP2 DUP2 DUP2 DUP6 DUP8 GAS CALL SWAP3 POP POP POP RETURNDATASIZE DUP1 PUSH1 0x0 DUP2 EQ PUSH2 0xE10 JUMPI PUSH1 0x40 MLOAD SWAP2 POP PUSH1 0x1F NOT PUSH1 0x3F RETURNDATASIZE ADD AND DUP3 ADD PUSH1 0x40 MSTORE RETURNDATASIZE DUP3 MSTORE RETURNDATASIZE PUSH1 0x0 PUSH1 0x20 DUP5 ADD RETURNDATACOPY PUSH2 0xE15 JUMP JUMPDEST PUSH1 0x60 SWAP2 POP JUMPDEST POP POP PUSH1 0x1D SLOAD PUSH1 0x40 MLOAD PUSH1 0x1 PUSH1 0x1 PUSH1 0xA0 SHL SUB SWAP1 SWAP2 AND SWAP2 POP SELFBALANCE SWAP1 PUSH1 0x0 DUP2 DUP2 DUP2 DUP6 DUP8 GAS CALL SWAP3 POP POP POP RETURNDATASIZE DUP1 PUSH1 0x0 DUP2 EQ PUSH2 0xE65 JUMPI PUSH1 0x40 MLOAD SWAP2 POP PUSH1 0x1F NOT PUSH1 0x3F RETURNDATASIZE ADD AND DUP3 ADD PUSH1 0x40 MSTORE RETURNDATASIZE DUP3 MSTORE RETURNDATASIZE PUSH1 0x0 PUSH1 0x20 DUP5 ADD RETURNDATACOPY PUSH2 0xE6A JUMP JUMPDEST PUSH1 0x60 SWAP2 POP JUMPDEST POP POP PUSH1 0x1 PUSH1 0x0 SSTORE POP POP POP JUMP JUMPDEST PUSH1 0x2 PUSH1 0x0 SLOAD EQ ISZERO PUSH2 0xEC9 JUMPI PUSH1 0x40 MLOAD PUSH3 0x461BCD PUSH1 0xE5 SHL DUP2 MSTORE PUSH1 0x20 PUSH1 0x4 DUP3 ADD MSTORE PUSH1 0x1F PUSH1 0x24 DUP3 ADD MSTORE PUSH32 0x5265656E7472616E637947756172643A207265656E7472616E742063616C6C00 PUSH1 0x44 DUP3 ADD MSTORE PUSH1 0x64 ADD PUSH2 0x8AF JUMP JUMPDEST PUSH1 0x2 PUSH1 0x0 SSTORE PUSH1 0x1F SLOAD PUSH3 0x10000 SWAP1 DIV PUSH1 0xFF AND ISZERO PUSH2 0xF4D JUMPI PUSH1 0x40 MLOAD PUSH3 0x461BCD PUSH1 0xE5 SHL DUP2 MSTORE PUSH1 0x20 PUSH1 0x4 DUP3 ADD MSTORE PUSH1 0x35 PUSH1 0x24 DUP3 ADD MSTORE PUSH32 0x73616C65207761732061626F727465642C20706C656173652075736520636C61 PUSH1 0x44 DUP3 ADD MSTORE PUSH32 0x696D5374616C6545746828292066756E6374696F6E0000000000000000000000 PUSH1 0x64 DUP3 ADD MSTORE PUSH1 0x84 ADD PUSH2 0x8AF JUMP JUMPDEST CALLER PUSH1 0x0 SWAP1 DUP2 MSTORE PUSH1 0x21 PUSH1 0x20 MSTORE PUSH1 0x40 SWAP1 KECCAK256 SLOAD PUSH2 0xFA9 JUMPI PUSH1 0x40 MLOAD PUSH3 0x461BCD PUSH1 0xE5 SHL DUP2 MSTORE PUSH1 0x20 PUSH1 0x4 DUP3 ADD MSTORE PUSH1 0x1F PUSH1 0x24 DUP3 ADD MSTORE PUSH32 0x75736572206861736E277420616E7920746F6B656E7320746F20636C61696D00 PUSH1 0x44 DUP3 ADD MSTORE PUSH1 0x64 ADD PUSH2 0x8AF JUMP JUMPDEST PUSH1 0x1F SLOAD PUSH2 0x100 SWAP1 DIV PUSH1 0xFF AND PUSH2 0x100C JUMPI PUSH1 0x40 MLOAD PUSH3 0x461BCD PUSH1 0xE5 SHL DUP2 MSTORE PUSH1 0x20 PUSH1 0x4 DUP3 ADD MSTORE PUSH1 0x23 PUSH1 0x24 DUP3 ADD MSTORE PUSH32 0x696E69746961746F72206861736E277420656E646564207468652073616C6520 PUSH1 0x44 DUP3 ADD MSTORE PUSH3 0x1E595D PUSH1 0xEA SHL PUSH1 0x64 DUP3 ADD MSTORE PUSH1 0x84 ADD PUSH2 0x8AF JUMP JUMPDEST PUSH1 0xB SLOAD CALLER PUSH1 0x0 SWAP1 DUP2 MSTORE PUSH1 0x21 PUSH1 0x20 MSTORE PUSH1 0x40 DUP2 KECCAK256 SLOAD SWAP1 SWAP2 PUSH2 0x102A SWAP2 PUSH2 0x20B3 JUMP JUMPDEST CALLER PUSH1 0x0 SWAP1 DUP2 MSTORE PUSH1 0x21 PUSH1 0x20 MSTORE PUSH1 0x40 DUP1 DUP3 KECCAK256 SWAP2 SWAP1 SWAP2 SSTORE MLOAD SWAP1 SWAP2 POP PUSH32 0x8A36F5A234186D446E36A7DF36ACE663A05A580D9BEA2DD899C6DD76A075D5FA SWAP1 PUSH2 0x1071 SWAP1 DUP4 DUP2 MSTORE PUSH1 0x20 ADD SWAP1 JUMP JUMPDEST PUSH1 0x40 MLOAD DUP1 SWAP2 SUB SWAP1 LOG1 PUSH1 0x18 SLOAD PUSH1 0x40 MLOAD PUSH4 0xA9059CBB PUSH1 0xE0 SHL DUP2 MSTORE CALLER PUSH1 0x4 DUP3 ADD MSTORE PUSH1 0x24 DUP2 ADD DUP4 SWAP1 MSTORE PUSH1 0x1 PUSH1 0x1 PUSH1 0xA0 SHL SUB SWAP1 SWAP2 AND SWAP1 PUSH4 0xA9059CBB SWAP1 PUSH1 0x44 ADD PUSH1 0x20 PUSH1 0x40 MLOAD DUP1 DUP4 SUB DUP2 PUSH1 0x0 DUP8 DUP1 EXTCODESIZE ISZERO DUP1 ISZERO PUSH2 0x10C5 JUMPI PUSH1 0x0 DUP1 REVERT JUMPDEST POP GAS CALL ISZERO DUP1 ISZERO PUSH2 0x10D9 JUMPI RETURNDATASIZE PUSH1 0x0 DUP1 RETURNDATACOPY RETURNDATASIZE PUSH1 0x0 REVERT JUMPDEST POP POP POP POP PUSH1 0x40 MLOAD RETURNDATASIZE PUSH1 0x1F NOT PUSH1 0x1F DUP3 ADD AND DUP3 ADD DUP1 PUSH1 0x40 MSTORE POP DUP2 ADD SWAP1 PUSH2 0x10FD SWAP2 SWAP1 PUSH2 0x1F1F JUMP JUMPDEST POP POP PUSH1 0x1 PUSH1 0x0 SSTORE JUMP JUMPDEST PUSH1 0x1D SLOAD PUSH1 0x1 PUSH1 0x1 PUSH1 0xA0 SHL SUB AND CALLER EQ PUSH2 0x1160 JUMPI PUSH1 0x40 MLOAD PUSH3 0x461BCD PUSH1 0xE5 SHL DUP2 MSTORE PUSH1 0x20 PUSH1 0x4 DUP3 ADD MSTORE PUSH1 0x1B PUSH1 0x24 DUP3 ADD MSTORE PUSH32 0x63616C6C6572206973206E6F742074686520696E69746961746F720000000000 PUSH1 0x44 DUP3 ADD MSTORE PUSH1 0x64 ADD PUSH2 0x8AF JUMP JUMPDEST PUSH1 0x1F SLOAD PUSH3 0x10000 SWAP1 DIV PUSH1 0xFF AND ISZERO PUSH2 0x11AC JUMPI PUSH1 0x40 MLOAD PUSH3 0x461BCD PUSH1 0xE5 SHL DUP2 MSTORE PUSH1 0x20 PUSH1 0x4 DUP3 ADD MSTORE PUSH1 0x10 PUSH1 0x24 DUP3 ADD MSTORE PUSH16 0x1CD85B19481DD85CC818589BDC9D1959 PUSH1 0x82 SHL PUSH1 0x44 DUP3 ADD MSTORE PUSH1 0x64 ADD PUSH2 0x8AF JUMP JUMPDEST PUSH1 0x2 SLOAD PUSH1 0x18 SLOAD PUSH1 0x40 MLOAD PUSH4 0x70A08231 PUSH1 0xE0 SHL DUP2 MSTORE ADDRESS PUSH1 0x4 DUP3 ADD MSTORE PUSH1 0x1 PUSH1 0x1 PUSH1 0xA0 SHL SUB SWAP1 SWAP2 AND SWAP1 PUSH4 0x70A08231 SWAP1 PUSH1 0x24 ADD PUSH1 0x20 PUSH1 0x40 MLOAD DUP1 DUP4 SUB DUP2 DUP7 DUP1 EXTCODESIZE ISZERO DUP1 ISZERO PUSH2 0x11F2 JUMPI PUSH1 0x0 DUP1 REVERT JUMPDEST POP GAS STATICCALL ISZERO DUP1 ISZERO PUSH2 0x1206 JUMPI RETURNDATASIZE PUSH1 0x0 DUP1 RETURNDATACOPY RETURNDATASIZE PUSH1 0x0 REVERT JUMPDEST POP POP POP POP PUSH1 0x40 MLOAD RETURNDATASIZE PUSH1 0x1F NOT PUSH1 0x1F DUP3 ADD AND DUP3 ADD DUP1 PUSH1 0x40 MSTORE POP DUP2 ADD SWAP1 PUSH2 0x122A SWAP2 SWAP1 PUSH2 0x1FDD JUMP JUMPDEST LT ISZERO PUSH2 0x129E JUMPI PUSH1 0x40 MLOAD PUSH3 0x461BCD PUSH1 0xE5 SHL DUP2 MSTORE PUSH1 0x20 PUSH1 0x4 DUP3 ADD MSTORE PUSH1 0x31 PUSH1 0x24 DUP3 ADD MSTORE PUSH32 0x696E73756666696369656E7420616D6F756E74206F6620746F6B656E73207365 PUSH1 0x44 DUP3 ADD MSTORE PUSH32 0x6E7420746F207468652061646472657373000000000000000000000000000000 PUSH1 0x64 DUP3 ADD MSTORE PUSH1 0x84 ADD PUSH2 0x8AF JUMP JUMPDEST PUSH1 0x1F DUP1 SLOAD PUSH1 0xFF NOT AND PUSH1 0x1 OR SWAP1 SSTORE JUMP JUMPDEST PUSH1 0x2 PUSH1 0x0 SLOAD EQ ISZERO PUSH2 0x1300 JUMPI PUSH1 0x40 MLOAD PUSH3 0x461BCD PUSH1 0xE5 SHL DUP2 MSTORE PUSH1 0x20 PUSH1 0x4 DUP3 ADD MSTORE PUSH1 0x1F PUSH1 0x24 DUP3 ADD MSTORE PUSH32 0x5265656E7472616E637947756172643A207265656E7472616E742063616C6C00 PUSH1 0x44 DUP3 ADD MSTORE PUSH1 0x64 ADD PUSH2 0x8AF JUMP JUMPDEST PUSH1 0x2 PUSH1 0x0 SSTORE PUSH1 0x1 SLOAD PUSH1 0xFF AND ISZERO PUSH2 0x134B JUMPI PUSH1 0x40 MLOAD PUSH3 0x461BCD PUSH1 0xE5 SHL DUP2 MSTORE PUSH1 0x20 PUSH1 0x4 DUP3 ADD MSTORE PUSH1 0x10 PUSH1 0x24 DUP3 ADD MSTORE PUSH16 0x14185D5CD8589B194E881C185D5CD959 PUSH1 0x82 SHL PUSH1 0x44 DUP3 ADD MSTORE PUSH1 0x64 ADD PUSH2 0x8AF JUMP JUMPDEST PUSH2 0x1359 DUP2 CALLER PUSH1 0x19 SLOAD CHAINID PUSH2 0x1C7B JUMP JUMPDEST PUSH2 0x1362 JUMPI PUSH1 0x0 DUP1 REVERT JUMPDEST PUSH1 0x1F SLOAD PUSH3 0x10000 SWAP1 DIV PUSH1 0xFF AND ISZERO PUSH2 0x13AE JUMPI PUSH1 0x40 MLOAD PUSH3 0x461BCD PUSH1 0xE5 SHL DUP2 MSTORE PUSH1 0x20 PUSH1 0x4 DUP3 ADD MSTORE PUSH1 0x10 PUSH1 0x24 DUP3 ADD MSTORE PUSH16 0x1CD85B19481DD85CC818589BDC9D1959 PUSH1 0x82 SHL PUSH1 0x44 DUP3 ADD MSTORE PUSH1 0x64 ADD PUSH2 0x8AF JUMP JUMPDEST PUSH1 0x1F SLOAD PUSH1 0xFF AND PUSH2 0x1400 JUMPI PUSH1 0x40 MLOAD PUSH3 0x461BCD PUSH1 0xE5 SHL DUP2 MSTORE PUSH1 0x20 PUSH1 0x4 DUP3 ADD MSTORE PUSH1 0x1E PUSH1 0x24 DUP3 ADD MSTORE PUSH32 0x73616C65206861736E2774206265656E2066696E616C697A6564207965740000 PUSH1 0x44 DUP3 ADD MSTORE PUSH1 0x64 ADD PUSH2 0x8AF JUMP JUMPDEST PUSH1 0x9 SLOAD TIMESTAMP LT PUSH2 0x1442 JUMPI PUSH1 0x40 MLOAD PUSH3 0x461BCD PUSH1 0xE5 SHL DUP2 MSTORE PUSH1 0x20 PUSH1 0x4 DUP3 ADD MSTORE PUSH1 0xE PUSH1 0x24 DUP3 ADD MSTORE PUSH14 0x1CD85B19481A185CC8195B991959 PUSH1 0x92 SHL PUSH1 0x44 DUP3 ADD MSTORE PUSH1 0x64 ADD PUSH2 0x8AF JUMP JUMPDEST PUSH1 0xA SLOAD TIMESTAMP GT PUSH2 0x1493 JUMPI PUSH1 0x40 MLOAD PUSH3 0x461BCD PUSH1 0xE5 SHL DUP2 MSTORE PUSH1 0x20 PUSH1 0x4 DUP3 ADD MSTORE PUSH1 0x17 PUSH1 0x24 DUP3 ADD MSTORE PUSH32 0x73616C65206861736E2774207374617274656420796574000000000000000000 PUSH1 0x44 DUP3 ADD MSTORE PUSH1 0x64 ADD PUSH2 0x8AF JUMP JUMPDEST PUSH1 0xF SLOAD CALLER PUSH1 0x0 SWAP1 DUP2 MSTORE PUSH1 0x21 PUSH1 0x20 MSTORE PUSH1 0x40 SWAP1 KECCAK256 SLOAD PUSH2 0x14B0 SWAP1 CALLVALUE PUSH2 0x2079 JUMP JUMPDEST GT ISZERO PUSH2 0x150A JUMPI PUSH1 0x40 MLOAD PUSH3 0x461BCD PUSH1 0xE5 SHL DUP2 MSTORE PUSH1 0x20 PUSH1 0x4 DUP3 ADD MSTORE PUSH1 0x24 DUP1 DUP3 ADD MSTORE PUSH32 0x796F7527726520747279696E6720746F2062757920746F6F206D616E7920746F PUSH1 0x44 DUP3 ADD MSTORE PUSH4 0x6B656E73 PUSH1 0xE0 SHL PUSH1 0x64 DUP3 ADD MSTORE PUSH1 0x84 ADD PUSH2 0x8AF JUMP JUMPDEST PUSH1 0x10 SLOAD CALLVALUE LT ISZERO PUSH2 0x155C JUMPI PUSH1 0x40 MLOAD PUSH3 0x461BCD PUSH1 0xE5 SHL DUP2 MSTORE PUSH1 0x20 PUSH1 0x4 DUP3 ADD MSTORE PUSH1 0x19 PUSH1 0x24 DUP3 ADD MSTORE PUSH32 0x796F75277265206E6F742073656E64696E6720656E6F75676800000000000000 PUSH1 0x44 DUP3 ADD MSTORE PUSH1 0x64 ADD PUSH2 0x8AF JUMP JUMPDEST PUSH1 0x11 SLOAD PUSH2 0x1567 PUSH2 0x1C64 JUMP JUMPDEST PUSH1 0xB SLOAD PUSH2 0x1574 SWAP1 CALLVALUE PUSH2 0x20B3 JUMP JUMPDEST PUSH2 0x157E SWAP2 SWAP1 PUSH2 0x2079 JUMP JUMPDEST GT ISZERO PUSH2 0x15E8 JUMPI PUSH1 0x40 MLOAD PUSH3 0x461BCD PUSH1 0xE5 SHL DUP2 MSTORE PUSH1 0x20 PUSH1 0x4 DUP3 ADD MSTORE PUSH1 0x33 PUSH1 0x24 DUP3 ADD MSTORE PUSH32 0x7468657265206172656E277420656E6F75676820746F6B656E73206C6566742E PUSH1 0x44 DUP3 ADD MSTORE PUSH19 0x8151C9E4818481B1BDDD95C88185B5BDD5B9D PUSH1 0x6A SHL PUSH1 0x64 DUP3 ADD MSTORE PUSH1 0x84 ADD PUSH2 0x8AF JUMP JUMPDEST PUSH1 0x5 SLOAD CALLVALUE PUSH1 0x1E SLOAD PUSH2 0x15F9 SWAP2 SWAP1 PUSH2 0x2079 JUMP JUMPDEST GT ISZERO PUSH2 0x1656 JUMPI PUSH1 0x40 MLOAD PUSH3 0x461BCD PUSH1 0xE5 SHL DUP2 MSTORE PUSH1 0x20 PUSH1 0x4 DUP3 ADD MSTORE PUSH1 0x26 PUSH1 0x24 DUP3 ADD MSTORE PUSH32 0x6861726463617020697320726561636865642E205472792061206C6F77657220 PUSH1 0x44 DUP3 ADD MSTORE PUSH6 0x185B5BDD5B9D PUSH1 0xD2 SHL PUSH1 0x64 DUP3 ADD MSTORE PUSH1 0x84 ADD PUSH2 0x8AF JUMP JUMPDEST CALLER PUSH1 0x0 SWAP1 DUP2 MSTORE PUSH1 0x21 PUSH1 0x20 MSTORE PUSH1 0x40 SWAP1 KECCAK256 SLOAD PUSH2 0x1671 SWAP1 CALLVALUE SWAP1 PUSH2 0x2079 JUMP JUMPDEST CALLER PUSH1 0x0 SWAP1 DUP2 MSTORE PUSH1 0x21 PUSH1 0x20 MSTORE PUSH1 0x40 SWAP1 KECCAK256 SSTORE PUSH1 0x1E SLOAD PUSH2 0x168F SWAP1 CALLVALUE SWAP1 PUSH2 0x2079 JUMP JUMPDEST PUSH1 0x1E SSTORE POP PUSH1 0x1 PUSH1 0x0 SSTORE JUMP JUMPDEST PUSH1 0x1A DUP1 SLOAD PUSH2 0x16A7 SWAP1 PUSH2 0x20D2 JUMP JUMPDEST DUP1 PUSH1 0x1F ADD PUSH1 0x20 DUP1 SWAP2 DIV MUL PUSH1 0x20 ADD PUSH1 0x40 MLOAD SWAP1 DUP2 ADD PUSH1 0x40 MSTORE DUP1 SWAP3 SWAP2 SWAP1 DUP2 DUP2 MSTORE PUSH1 0x20 ADD DUP3 DUP1 SLOAD PUSH2 0x16D3 SWAP1 PUSH2 0x20D2 JUMP JUMPDEST DUP1 ISZERO PUSH2 0x1720 JUMPI DUP1 PUSH1 0x1F LT PUSH2 0x16F5 JUMPI PUSH2 0x100 DUP1 DUP4 SLOAD DIV MUL DUP4 MSTORE SWAP2 PUSH1 0x20 ADD SWAP2 PUSH2 0x1720 JUMP JUMPDEST DUP3 ADD SWAP2 SWAP1 PUSH1 0x0 MSTORE PUSH1 0x20 PUSH1 0x0 KECCAK256 SWAP1 JUMPDEST DUP2 SLOAD DUP2 MSTORE SWAP1 PUSH1 0x1 ADD SWAP1 PUSH1 0x20 ADD DUP1 DUP4 GT PUSH2 0x1703 JUMPI DUP3 SWAP1 SUB PUSH1 0x1F AND DUP3 ADD SWAP2 JUMPDEST POP POP POP POP POP DUP2 JUMP JUMPDEST PUSH1 0x2 PUSH1 0x0 SLOAD EQ ISZERO PUSH2 0x177B JUMPI PUSH1 0x40 MLOAD PUSH3 0x461BCD PUSH1 0xE5 SHL DUP2 MSTORE PUSH1 0x20 PUSH1 0x4 DUP3 ADD MSTORE PUSH1 0x1F PUSH1 0x24 DUP3 ADD MSTORE PUSH32 0x5265656E7472616E637947756172643A207265656E7472616E742063616C6C00 PUSH1 0x44 DUP3 ADD MSTORE PUSH1 0x64 ADD PUSH2 0x8AF JUMP JUMPDEST PUSH1 0x2 PUSH1 0x0 SSTORE PUSH1 0x1F SLOAD PUSH2 0x100 SWAP1 DIV PUSH1 0xFF AND ISZERO PUSH2 0x17E4 JUMPI PUSH1 0x40 MLOAD PUSH3 0x461BCD PUSH1 0xE5 SHL DUP2 MSTORE PUSH1 0x20 PUSH1 0x4 DUP3 ADD MSTORE PUSH1 0x23 PUSH1 0x24 DUP3 ADD MSTORE PUSH32 0x73616C6520686173206265656E20656E646564203A20796F752063616E20636C PUSH1 0x44 DUP3 ADD MSTORE PUSH3 0x61696D PUSH1 0xE8 SHL PUSH1 0x64 DUP3 ADD MSTORE PUSH1 0x84 ADD PUSH2 0x8AF JUMP JUMPDEST PUSH1 0x1F SLOAD PUSH3 0x10000 SWAP1 DIV PUSH1 0xFF AND ISZERO PUSH2 0x17FD JUMPI PUSH2 0x17FD PUSH2 0x1D95 JUMP JUMPDEST PUSH1 0x6 SLOAD PUSH1 0x1E SLOAD LT DUP1 ISZERO PUSH2 0x1811 JUMPI POP PUSH1 0x9 SLOAD TIMESTAMP GT JUMPDEST ISZERO PUSH2 0x181E JUMPI PUSH2 0x181E PUSH2 0x1D95 JUMP JUMPDEST PUSH1 0x6 SLOAD PUSH1 0x1E SLOAD GT DUP1 ISZERO PUSH2 0x183F JUMPI POP PUSH1 0x9 SLOAD PUSH2 0x183C SWAP1 PUSH3 0x15180 PUSH2 0x2079 JUMP JUMPDEST TIMESTAMP GT JUMPDEST ISZERO PUSH2 0x184C JUMPI PUSH2 0x184C PUSH2 0x1D95 JUMP JUMPDEST PUSH1 0x1 PUSH1 0x0 SSTORE JUMP JUMPDEST PUSH1 0x2 PUSH1 0x0 SLOAD EQ ISZERO PUSH2 0x18A6 JUMPI PUSH1 0x40 MLOAD PUSH3 0x461BCD PUSH1 0xE5 SHL DUP2 MSTORE PUSH1 0x20 PUSH1 0x4 DUP3 ADD MSTORE PUSH1 0x1F PUSH1 0x24 DUP3 ADD MSTORE PUSH32 0x5265656E7472616E637947756172643A207265656E7472616E742063616C6C00 PUSH1 0x44 DUP3 ADD MSTORE PUSH1 0x64 ADD PUSH2 0x8AF JUMP JUMPDEST PUSH1 0x2 PUSH1 0x0 SSTORE PUSH1 0x1 SLOAD PUSH1 0xFF AND ISZERO PUSH2 0x18F1 JUMPI PUSH1 0x40 MLOAD PUSH3 0x461BCD PUSH1 0xE5 SHL DUP2 MSTORE PUSH1 0x20 PUSH1 0x4 DUP3 ADD MSTORE PUSH1 0x10 PUSH1 0x24 DUP3 ADD MSTORE PUSH16 0x14185D5CD8589B194E881C185D5CD959 PUSH1 0x82 SHL PUSH1 0x44 DUP3 ADD MSTORE PUSH1 0x64 ADD PUSH2 0x8AF JUMP JUMPDEST PUSH1 0x1F SLOAD PUSH3 0x10000 SWAP1 DIV PUSH1 0xFF AND ISZERO PUSH2 0x193D JUMPI PUSH1 0x40 MLOAD PUSH3 0x461BCD PUSH1 0xE5 SHL DUP2 MSTORE PUSH1 0x20 PUSH1 0x4 DUP3 ADD MSTORE PUSH1 0x10 PUSH1 0x24 DUP3 ADD MSTORE PUSH16 0x1CD85B19481DD85CC818589BDC9D1959 PUSH1 0x82 SHL PUSH1 0x44 DUP3 ADD MSTORE PUSH1 0x64 ADD PUSH2 0x8AF JUMP JUMPDEST PUSH1 0x1F SLOAD PUSH1 0xFF AND PUSH2 0x198F JUMPI PUSH1 0x40 MLOAD PUSH3 0x461BCD PUSH1 0xE5 SHL DUP2 MSTORE PUSH1 0x20 PUSH1 0x4 DUP3 ADD MSTORE PUSH1 0x1E PUSH1 0x24 DUP3 ADD MSTORE PUSH32 0x73616C65206861736E2774206265656E2066696E616C697A6564207965740000 PUSH1 0x44 DUP3 ADD MSTORE PUSH1 0x64 ADD PUSH2 0x8AF JUMP JUMPDEST PUSH1 0x8 SLOAD TIMESTAMP GT PUSH2 0x19E0 JUMPI PUSH1 0x40 MLOAD PUSH3 0x461BCD PUSH1 0xE5 SHL DUP2 MSTORE PUSH1 0x20 PUSH1 0x4 DUP3 ADD MSTORE PUSH1 0x17 PUSH1 0x24 DUP3 ADD MSTORE PUSH32 0x73616C65206861736E2774207374617274656420796574000000000000000000 PUSH1 0x44 DUP3 ADD MSTORE PUSH1 0x64 ADD PUSH2 0x8AF JUMP JUMPDEST PUSH1 0x9 SLOAD TIMESTAMP LT PUSH2 0x1A22 JUMPI PUSH1 0x40 MLOAD PUSH3 0x461BCD PUSH1 0xE5 SHL DUP2 MSTORE PUSH1 0x20 PUSH1 0x4 DUP3 ADD MSTORE PUSH1 0xE PUSH1 0x24 DUP3 ADD MSTORE PUSH14 0x1CD85B19481A185CC8195B991959 PUSH1 0x92 SHL PUSH1 0x44 DUP3 ADD MSTORE PUSH1 0x64 ADD PUSH2 0x8AF JUMP JUMPDEST PUSH1 0xF SLOAD CALLER PUSH1 0x0 SWAP1 DUP2 MSTORE PUSH1 0x21 PUSH1 0x20 MSTORE PUSH1 0x40 SWAP1 KECCAK256 SLOAD PUSH2 0x1A3F SWAP1 CALLVALUE PUSH2 0x2079 JUMP JUMPDEST GT ISZERO PUSH2 0x1A99 JUMPI PUSH1 0x40 MLOAD PUSH3 0x461BCD PUSH1 0xE5 SHL DUP2 MSTORE PUSH1 0x20 PUSH1 0x4 DUP3 ADD MSTORE PUSH1 0x24 DUP1 DUP3 ADD MSTORE PUSH32 0x796F7527726520747279696E6720746F2062757920746F6F206D616E7920746F PUSH1 0x44 DUP3 ADD MSTORE PUSH4 0x6B656E73 PUSH1 0xE0 SHL PUSH1 0x64 DUP3 ADD MSTORE PUSH1 0x84 ADD PUSH2 0x8AF JUMP JUMPDEST PUSH1 0x10 SLOAD CALLVALUE LT ISZERO PUSH2 0x1AEB JUMPI PUSH1 0x40 MLOAD PUSH3 0x461BCD PUSH1 0xE5 SHL DUP2 MSTORE PUSH1 0x20 PUSH1 0x4 DUP3 ADD MSTORE PUSH1 0x19 PUSH1 0x24 DUP3 ADD MSTORE PUSH32 0x796F75277265206E6F742073656E64696E6720656E6F75676800000000000000 PUSH1 0x44 DUP3 ADD MSTORE PUSH1 0x64 ADD PUSH2 0x8AF JUMP JUMPDEST PUSH1 0x11 SLOAD PUSH2 0x1AF6 PUSH2 0x1C64 JUMP JUMPDEST PUSH1 0xB SLOAD PUSH2 0x1B03 SWAP1 CALLVALUE PUSH2 0x20B3 JUMP JUMPDEST PUSH2 0x1B0D SWAP2 SWAP1 PUSH2 0x2079 JUMP JUMPDEST GT ISZERO PUSH2 0x1B77 JUMPI PUSH1 0x40 MLOAD PUSH3 0x461BCD PUSH1 0xE5 SHL DUP2 MSTORE PUSH1 0x20 PUSH1 0x4 DUP3 ADD MSTORE PUSH1 0x33 PUSH1 0x24 DUP3 ADD MSTORE PUSH32 0x7468657265206172656E277420656E6F75676820746F6B656E73206C6566742E PUSH1 0x44 DUP3 ADD MSTORE PUSH19 0x8151C9E4818481B1BDDD95C88185B5BDD5B9D PUSH1 0x6A SHL PUSH1 0x64 DUP3 ADD MSTORE PUSH1 0x84 ADD PUSH2 0x8AF JUMP JUMPDEST PUSH1 0x5 SLOAD CALLVALUE PUSH1 0x1E SLOAD PUSH2 0x1B88 SWAP2 SWAP1 PUSH2 0x2079 JUMP JUMPDEST GT ISZERO PUSH2 0x1BE5 JUMPI PUSH1 0x40 MLOAD PUSH3 0x461BCD PUSH1 0xE5 SHL DUP2 MSTORE PUSH1 0x20 PUSH1 0x4 DUP3 ADD MSTORE PUSH1 0x26 PUSH1 0x24 DUP3 ADD MSTORE PUSH32 0x6861726463617020697320726561636865642E205472792061206C6F77657220 PUSH1 0x44 DUP3 ADD MSTORE PUSH6 0x185B5BDD5B9D PUSH1 0xD2 SHL PUSH1 0x64 DUP3 ADD MSTORE PUSH1 0x84 ADD PUSH2 0x8AF JUMP JUMPDEST CALLER PUSH1 0x0 SWAP1 DUP2 MSTORE PUSH1 0x21 PUSH1 0x20 MSTORE PUSH1 0x40 SWAP1 KECCAK256 SLOAD PUSH2 0x1C00 SWAP1 CALLVALUE SWAP1 PUSH2 0x2079 JUMP JUMPDEST CALLER PUSH1 0x0 SWAP1 DUP2 MSTORE PUSH1 0x21 PUSH1 0x20 MSTORE PUSH1 0x40 SWAP1 KECCAK256 SSTORE PUSH1 0x1E SLOAD PUSH2 0x1C1E SWAP1 CALLVALUE SWAP1 PUSH2 0x2079 JUMP JUMPDEST PUSH1 0x1E SSTORE PUSH1 0x1 PUSH1 0x0 SSTORE JUMP JUMPDEST PUSH1 0x0 DUP1 PUSH1 0x0 DUP4 MLOAD PUSH1 0x41 EQ PUSH2 0x1C3B JUMPI PUSH1 0x0 DUP1 REVERT JUMPDEST POP POP POP PUSH1 0x20 DUP2 ADD MLOAD PUSH1 0x40 DUP3 ADD MLOAD PUSH1 0x60 SWAP1 SWAP3 ADD MLOAD PUSH1 0x0 BYTE SWAP3 SWAP1 SWAP2 SWAP1 JUMP JUMPDEST PUSH1 0x1B DUP1 SLOAD PUSH2 0x16A7 SWAP1 PUSH2 0x20D2 JUMP JUMPDEST PUSH1 0x0 PUSH1 0xB SLOAD PUSH1 0x1E SLOAD PUSH2 0x1C76 SWAP2 SWAP1 PUSH2 0x20B3 JUMP JUMPDEST SWAP1 POP SWAP1 JUMP JUMPDEST PUSH1 0x0 DUP1 PUSH1 0x0 DUP1 PUSH2 0x1C8A DUP9 PUSH2 0x1C28 JUMP JUMPDEST PUSH1 0x40 DUP1 MLOAD PUSH1 0x1 PUSH1 0x1 PUSH1 0xA0 SHL SUB DUP13 AND PUSH1 0x20 DUP1 DUP4 ADD SWAP2 SWAP1 SWAP2 MSTORE DUP2 DUP4 ADD DUP13 SWAP1 MSTORE PUSH1 0x60 DUP1 DUP4 ADD DUP13 SWAP1 MSTORE DUP4 MLOAD DUP1 DUP5 SUB SWAP1 SWAP2 ADD DUP2 MSTORE PUSH1 0x80 DUP4 ADD SWAP1 SWAP4 MSTORE DUP3 MLOAD SWAP3 ADD SWAP2 SWAP1 SWAP2 KECCAK256 PUSH32 0x19457468657265756D205369676E6564204D6573736167653A0A333200000000 PUSH1 0xA0 DUP4 ADD MSTORE PUSH1 0xBC DUP3 ADD DUP2 SWAP1 MSTORE SWAP4 SWAP7 POP SWAP2 SWAP5 POP SWAP3 POP PUSH1 0x0 SWAP1 PUSH1 0xDC ADD PUSH1 0x40 DUP1 MLOAD PUSH1 0x1F NOT DUP2 DUP5 SUB ADD DUP2 MSTORE DUP3 DUP3 MSTORE DUP1 MLOAD PUSH1 0x20 SWAP2 DUP3 ADD KECCAK256 PUSH1 0x0 DUP5 MSTORE SWAP1 DUP4 ADD DUP1 DUP4 MSTORE DUP2 SWAP1 MSTORE PUSH1 0xFF DUP9 AND SWAP2 DUP4 ADD SWAP2 SWAP1 SWAP2 MSTORE PUSH1 0x60 DUP3 ADD DUP7 SWAP1 MSTORE PUSH1 0x80 DUP3 ADD DUP6 SWAP1 MSTORE SWAP2 POP PUSH1 0x1 SWAP1 PUSH1 0xA0 ADD PUSH1 0x20 PUSH1 0x40 MLOAD PUSH1 0x20 DUP2 SUB SWAP1 DUP1 DUP5 SUB SWAP1 DUP6 GAS STATICCALL ISZERO DUP1 ISZERO PUSH2 0x1D6B JUMPI RETURNDATASIZE PUSH1 0x0 DUP1 RETURNDATACOPY RETURNDATASIZE PUSH1 0x0 REVERT JUMPDEST POP POP PUSH1 0x40 MLOAD PUSH1 0x1F NOT ADD MLOAD PUSH1 0x14 SLOAD PUSH1 0x1 PUSH1 0x1 PUSH1 0xA0 SHL SUB SWAP2 DUP3 AND SWAP2 AND EQ SWAP12 SWAP11 POP POP POP POP POP POP POP POP POP POP POP JUMP JUMPDEST CALLER PUSH1 0x0 SWAP1 DUP2 MSTORE PUSH1 0x21 PUSH1 0x20 MSTORE PUSH1 0x40 SWAP1 KECCAK256 SLOAD PUSH2 0x1DF1 JUMPI PUSH1 0x40 MLOAD PUSH3 0x461BCD PUSH1 0xE5 SHL DUP2 MSTORE PUSH1 0x20 PUSH1 0x4 DUP3 ADD MSTORE PUSH1 0x1F PUSH1 0x24 DUP3 ADD MSTORE PUSH32 0x75736572206861736E277420616E7920746F6B656E7320746F20636C61696D00 PUSH1 0x44 DUP3 ADD MSTORE PUSH1 0x64 ADD PUSH2 0x8AF JUMP JUMPDEST CALLER PUSH1 0x0 DUP2 DUP2 MSTORE PUSH1 0x21 PUSH1 0x20 MSTORE PUSH1 0x40 DUP1 DUP3 KECCAK256 DUP1 SLOAD SWAP1 DUP4 SWAP1 SSTORE SWAP1 MLOAD SWAP1 SWAP3 SWAP2 DUP4 SWAP2 SWAP1 DUP2 DUP2 DUP2 DUP6 DUP8 GAS CALL SWAP3 POP POP POP RETURNDATASIZE DUP1 PUSH1 0x0 DUP2 EQ PUSH2 0x1E46 JUMPI PUSH1 0x40 MLOAD SWAP2 POP PUSH1 0x1F NOT PUSH1 0x3F RETURNDATASIZE ADD AND DUP3 ADD PUSH1 0x40 MSTORE RETURNDATASIZE DUP3 MSTORE RETURNDATASIZE PUSH1 0x0 PUSH1 0x20 DUP5 ADD RETURNDATACOPY PUSH2 0x1E4B JUMP JUMPDEST PUSH1 0x60 SWAP2 POP JUMPDEST POP POP POP POP JUMP JUMPDEST PUSH1 0x0 DUP3 PUSH1 0x1F DUP4 ADD SLT PUSH2 0x1E62 JUMPI PUSH1 0x0 DUP1 REVERT JUMPDEST DUP2 CALLDATALOAD PUSH8 0xFFFFFFFFFFFFFFFF DUP1 DUP3 GT ISZERO PUSH2 0x1E7D JUMPI PUSH2 0x1E7D PUSH2 0x2123 JUMP JUMPDEST PUSH1 0x40 MLOAD PUSH1 0x1F DUP4 ADD PUSH1 0x1F NOT SWAP1 DUP2 AND PUSH1 0x3F ADD AND DUP2 ADD SWAP1 DUP3 DUP3 GT DUP2 DUP4 LT OR ISZERO PUSH2 0x1EA5 JUMPI PUSH2 0x1EA5 PUSH2 0x2123 JUMP JUMPDEST DUP2 PUSH1 0x40 MSTORE DUP4 DUP2 MSTORE DUP7 PUSH1 0x20 DUP6 DUP9 ADD ADD GT ISZERO PUSH2 0x1EBE JUMPI PUSH1 0x0 DUP1 REVERT JUMPDEST DUP4 PUSH1 0x20 DUP8 ADD PUSH1 0x20 DUP4 ADD CALLDATACOPY PUSH1 0x0 PUSH1 0x20 DUP6 DUP4 ADD ADD MSTORE DUP1 SWAP5 POP POP POP POP POP SWAP3 SWAP2 POP POP JUMP JUMPDEST PUSH1 0x0 PUSH1 0x20 DUP3 DUP5 SUB SLT ISZERO PUSH2 0x1EF0 JUMPI PUSH1 0x0 DUP1 REVERT JUMPDEST DUP2 CALLDATALOAD PUSH2 0x1EFB DUP2 PUSH2 0x2139 JUMP JUMPDEST SWAP4 SWAP3 POP POP POP JUMP JUMPDEST PUSH1 0x0 PUSH1 0x20 DUP3 DUP5 SUB SLT ISZERO PUSH2 0x1F14 JUMPI PUSH1 0x0 DUP1 REVERT JUMPDEST DUP2 MLOAD PUSH2 0x1EFB DUP2 PUSH2 0x2139 JUMP JUMPDEST PUSH1 0x0 PUSH1 0x20 DUP3 DUP5 SUB SLT ISZERO PUSH2 0x1F31 JUMPI PUSH1 0x0 DUP1 REVERT JUMPDEST DUP2 MLOAD DUP1 ISZERO ISZERO DUP2 EQ PUSH2 0x1EFB JUMPI PUSH1 0x0 DUP1 REVERT JUMPDEST PUSH1 0x0 PUSH1 0x20 DUP3 DUP5 SUB SLT ISZERO PUSH2 0x1F53 JUMPI PUSH1 0x0 DUP1 REVERT JUMPDEST DUP2 CALLDATALOAD PUSH8 0xFFFFFFFFFFFFFFFF DUP2 GT ISZERO PUSH2 0x1F6A JUMPI PUSH1 0x0 DUP1 REVERT JUMPDEST PUSH2 0x1F76 DUP5 DUP3 DUP6 ADD PUSH2 0x1E51 JUMP JUMPDEST SWAP5 SWAP4 POP POP POP POP JUMP JUMPDEST PUSH1 0x0 DUP1 PUSH1 0x0 DUP1 PUSH1 0x80 DUP6 DUP8 SUB SLT ISZERO PUSH2 0x1F94 JUMPI PUSH1 0x0 DUP1 REVERT JUMPDEST DUP5 CALLDATALOAD PUSH8 0xFFFFFFFFFFFFFFFF DUP2 GT ISZERO PUSH2 0x1FAB JUMPI PUSH1 0x0 DUP1 REVERT JUMPDEST PUSH2 0x1FB7 DUP8 DUP3 DUP9 ADD PUSH2 0x1E51 JUMP JUMPDEST SWAP5 POP POP PUSH1 0x20 DUP6 ADD CALLDATALOAD PUSH2 0x1FC8 DUP2 PUSH2 0x2139 JUMP JUMPDEST SWAP4 SWAP7 SWAP4 SWAP6 POP POP POP POP PUSH1 0x40 DUP3 ADD CALLDATALOAD SWAP2 PUSH1 0x60 ADD CALLDATALOAD SWAP1 JUMP JUMPDEST PUSH1 0x0 PUSH1 0x20 DUP3 DUP5 SUB SLT ISZERO PUSH2 0x1FEF JUMPI PUSH1 0x0 DUP1 REVERT JUMPDEST POP MLOAD SWAP2 SWAP1 POP JUMP JUMPDEST PUSH1 0x0 DUP1 PUSH1 0x0 PUSH1 0x60 DUP5 DUP7 SUB SLT ISZERO PUSH2 0x200B JUMPI PUSH1 0x0 DUP1 REVERT JUMPDEST DUP4 MLOAD SWAP3 POP PUSH1 0x20 DUP5 ADD MLOAD SWAP2 POP PUSH1 0x40 DUP5 ADD MLOAD SWAP1 POP SWAP3 POP SWAP3 POP SWAP3 JUMP JUMPDEST PUSH1 0x0 PUSH1 0x20 DUP1 DUP4 MSTORE DUP4 MLOAD DUP1 DUP3 DUP6 ADD MSTORE PUSH1 0x0 JUMPDEST DUP2 DUP2 LT ISZERO PUSH2 0x2051 JUMPI DUP6 DUP2 ADD DUP4 ADD MLOAD DUP6 DUP3 ADD PUSH1 0x40 ADD MSTORE DUP3 ADD PUSH2 0x2035 JUMP JUMPDEST DUP2 DUP2 GT ISZERO PUSH2 0x2063 JUMPI PUSH1 0x0 PUSH1 0x40 DUP4 DUP8 ADD ADD MSTORE JUMPDEST POP PUSH1 0x1F ADD PUSH1 0x1F NOT AND SWAP3 SWAP1 SWAP3 ADD PUSH1 0x40 ADD SWAP4 SWAP3 POP POP POP JUMP JUMPDEST PUSH1 0x0 DUP3 NOT DUP3 GT ISZERO PUSH2 0x208C JUMPI PUSH2 0x208C PUSH2 0x210D JUMP JUMPDEST POP ADD SWAP1 JUMP JUMPDEST PUSH1 0x0 DUP3 PUSH2 0x20AE JUMPI PUSH4 0x4E487B71 PUSH1 0xE0 SHL PUSH1 0x0 MSTORE PUSH1 0x12 PUSH1 0x4 MSTORE PUSH1 0x24 PUSH1 0x0 REVERT JUMPDEST POP DIV SWAP1 JUMP JUMPDEST PUSH1 0x0 DUP2 PUSH1 0x0 NOT DIV DUP4 GT DUP3 ISZERO ISZERO AND ISZERO PUSH2 0x20CD JUMPI PUSH2 0x20CD PUSH2 0x210D JUMP JUMPDEST POP MUL SWAP1 JUMP JUMPDEST PUSH1 0x1 DUP2 DUP2 SHR SWAP1 DUP3 AND DUP1 PUSH2 0x20E6 JUMPI PUSH1 0x7F DUP3 AND SWAP2 POP JUMPDEST PUSH1 0x20 DUP3 LT DUP2 EQ ISZERO PUSH2 0x2107 JUMPI PUSH4 0x4E487B71 PUSH1 0xE0 SHL PUSH1 0x0 MSTORE PUSH1 0x22 PUSH1 0x4 MSTORE PUSH1 0x24 PUSH1 0x0 REVERT JUMPDEST POP SWAP2 SWAP1 POP JUMP JUMPDEST PUSH4 0x4E487B71 PUSH1 0xE0 SHL PUSH1 0x0 MSTORE PUSH1 0x11 PUSH1 0x4 MSTORE PUSH1 0x24 PUSH1 0x0 REVERT JUMPDEST PUSH4 0x4E487B71 PUSH1 0xE0 SHL PUSH1 0x0 MSTORE PUSH1 0x41 PUSH1 0x4 MSTORE PUSH1 0x24 PUSH1 0x0 REVERT JUMPDEST PUSH1 0x1 PUSH1 0x1 PUSH1 0xA0 SHL SUB DUP2 AND DUP2 EQ PUSH2 0x214E JUMPI PUSH1 0x0 DUP1 REVERT JUMPDEST POP JUMP INVALID LOG2 PUSH5 0x6970667358 0x22 SLT KECCAK256 0x23 JUMP PUSH4 0x9E53B070 DUP12 MSTORE8 0x28 0xF 0x2E 0xE3 PUSH14 0xDB378F8C0EEF7CD0B889757BB38C 0xEE NUMBER BLOCKHASH COINBASE PUSH5 0x736F6C6343 STOP ADDMOD SMOD STOP CALLER "
				},
				"gasEstimates": {
					"creation": {
						"codeDepositCost": "1716600",
						"executionCost": "infinite",
						"totalCost": "infinite"
					},
					"external": {
						"abortSale()": "30896",
						"buyTokensPublic()": "infinite",
						"buyTokensWhitelist(bytes)": "infinite",
						"claimStaleEth()": "infinite",
						"claimTokens()": "infinite",
						"deadAddress()": "2439",
						"description()": "infinite",
						"endSaleAllowClaim()": "infinite",
						"endTime()": "2397",
						"factory()": "2448",
						"feeBP()": "2354",
						"finalizeSale()": "infinite",
						"hardcap()": "2396",
						"imageUrl()": "infinite",
						"liquidityLockDuration()": "2396",
						"liquidityShareBP()": "2396",
						"listingTokensPerOneEth()": "2352",
						"master()": "2448",
						"maxBuyPerUser()": "2395",
						"minBuyPerUser()": "2353",
						"paused()": "2372",
						"recipient()": "2449",
						"router()": "2403",
						"saleAborted()": "2411",
						"saleEnded()": "2434",
						"saleFinalized()": "2400",
						"saleId()": "2374",
						"saleInitiator()": "2404",
						"saleTokensPerOneEth()": "2352",
						"signer()": "2450",
						"softcap()": "2372",
						"splitSignature(bytes)": "infinite",
						"startTime()": "2351",
						"teamVestDuration()": "2353",
						"teamVestEnabled()": "2432",
						"token()": "2447",
						"tokenAmountForLiquidity()": "2374",
						"tokenAmountForSale()": "2376",
						"tokenTotalAmount()": "2373",
						"totalBuyEth()": "2373",
						"totalBuyTokens()": "4611",
						"userBuyAmount(address)": "2570",
						"userVestDuration()": "2373",
						"userVestEnabled()": "2377",
						"usersVestingWallets(address)": "2620",
						"verify(bytes,address,uint256,uint256)": "infinite",
						"whitelistEnabled()": "2390",
						"wlStartTime()": "2373"
					},
					"internal": {
						"_claimStaleEth()": "infinite"
					}
				},
				"methodIdentifiers": {
					"abortSale()": "03bcf11d",
					"buyTokensPublic()": "957f1474",
					"buyTokensWhitelist(bytes)": "59663174",
					"claimStaleEth()": "8f5d036b",
					"claimTokens()": "48c54b9d",
					"deadAddress()": "27c8f835",
					"description()": "7284e416",
					"endSaleAllowClaim()": "201a3419",
					"endTime()": "3197cbb6",
					"factory()": "c45a0155",
					"feeBP()": "017f6fae",
					"finalizeSale()": "58a687ec",
					"hardcap()": "b071cbe6",
					"imageUrl()": "aba83150",
					"liquidityLockDuration()": "4ae01d52",
					"liquidityShareBP()": "a611dc37",
					"listingTokensPerOneEth()": "a0f7ab35",
					"master()": "ee97f7f3",
					"maxBuyPerUser()": "de284b3a",
					"minBuyPerUser()": "12e409c5",
					"paused()": "5c975abb",
					"recipient()": "66d003ac",
					"router()": "f887ea40",
					"saleAborted()": "64db812e",
					"saleEnded()": "9b8906ae",
					"saleFinalized()": "a5f0dea2",
					"saleId()": "c84c0387",
					"saleInitiator()": "bca1da85",
					"saleTokensPerOneEth()": "c7bf5166",
					"signer()": "238ac933",
					"softcap()": "f89be593",
					"splitSignature(bytes)": "a7bb5803",
					"startTime()": "78e97925",
					"teamVestDuration()": "27a72c96",
					"teamVestEnabled()": "85bf4946",
					"token()": "fc0c546a",
					"tokenAmountForLiquidity()": "6ef2e4d3",
					"tokenAmountForSale()": "039ce157",
					"tokenTotalAmount()": "83b17fdd",
					"totalBuyEth()": "da2cbd50",
					"totalBuyTokens()": "d132a8f4",
					"userBuyAmount(address)": "6b7f3df3",
					"userVestDuration()": "ea44c1bc",
					"userVestEnabled()": "d4b9de51",
					"usersVestingWallets(address)": "3c876081",
					"verify(bytes,address,uint256,uint256)": "e49dce66",
					"whitelistEnabled()": "51fb012d",
					"wlStartTime()": "be9feb30"
				}
			},
			"userdoc": {
				"kind": "user",
				"methods": {},
				"version": 1
			}
		}
	}
}