{
	"launchpad/contracts/testVerify.sol": {
		"verifySignature": {
			"abi": [
				{
					"anonymous": false,
					"inputs": [
						{
							"indexed": false,
							"internalType": "address",
							"name": "account",
							"type": "address"
						}
					],
					"name": "Paused",
					"type": "event"
				},
				{
					"anonymous": false,
					"inputs": [
						{
							"indexed": false,
							"internalType": "address",
							"name": "account",
							"type": "address"
						}
					],
					"name": "Unpaused",
					"type": "event"
				},
				{
					"inputs": [],
					"name": "paused",
					"outputs": [
						{
							"internalType": "bool",
							"name": "",
							"type": "bool"
						}
					],
					"stateMutability": "view",
					"type": "function"
				},
				{
					"inputs": [
						{
							"internalType": "address",
							"name": "_target",
							"type": "address"
						},
						{
							"internalType": "uint256",
							"name": "_saleId",
							"type": "uint256"
						},
						{
							"internalType": "uint256",
							"name": "_chainId",
							"type": "uint256"
						}
					],
					"name": "sign",
					"outputs": [
						{
							"internalType": "bytes32",
							"name": "",
							"type": "bytes32"
						},
						{
							"internalType": "bytes32",
							"name": "",
							"type": "bytes32"
						}
					],
					"stateMutability": "pure",
					"type": "function"
				},
				{
					"inputs": [
						{
							"internalType": "bytes",
							"name": "sig",
							"type": "bytes"
						}
					],
					"name": "splitSignature",
					"outputs": [
						{
							"internalType": "uint8",
							"name": "",
							"type": "uint8"
						},
						{
							"internalType": "bytes32",
							"name": "",
							"type": "bytes32"
						},
						{
							"internalType": "bytes32",
							"name": "",
							"type": "bytes32"
						}
					],
					"stateMutability": "pure",
					"type": "function"
				}
			],
			"devdoc": {
				"kind": "dev",
				"methods": {
					"paused()": {
						"details": "Returns true if the contract is paused, and false otherwise."
					}
				},
				"version": 1
			},
			"evm": {
				"assembly": "    /* \"launchpad/contracts/testVerify.sol\":314:1224  contract verifySignature is ReentrancyGuard, Pausable {... */\n  mstore(0x40, 0x80)\n  callvalue\n  dup1\n  iszero\n  tag_1\n  jumpi\n  0x00\n  dup1\n  revert\ntag_1:\n  pop\n    /* \"@openzeppelin/contracts/security/ReentrancyGuard.sol\":1701:1702  1 */\n  0x01\n    /* \"@openzeppelin/contracts/security/ReentrancyGuard.sol\":1806:1813  _status */\n  0x00\n    /* \"@openzeppelin/contracts/security/ReentrancyGuard.sol\":1806:1828  _status = _NOT_ENTERED */\n  dup2\n  swap1\n  sstore\n    /* \"@openzeppelin/contracts/security/Pausable.sol\":981:996  _paused = false */\n  dup1\n  sload\n  not(0xff)\n  and\n  swap1\n  sstore\n    /* \"launchpad/contracts/testVerify.sol\":314:1224  contract verifySignature is ReentrancyGuard, Pausable {... */\n  dataSize(sub_0)\n  dup1\n  dataOffset(sub_0)\n  0x00\n  codecopy\n  0x00\n  return\nstop\n\nsub_0: assembly {\n        /* \"launchpad/contracts/testVerify.sol\":314:1224  contract verifySignature is ReentrancyGuard, Pausable {... */\n      mstore(0x40, 0x80)\n      callvalue\n      dup1\n      iszero\n      tag_1\n      jumpi\n      0x00\n      dup1\n      revert\n    tag_1:\n      pop\n      jumpi(tag_2, lt(calldatasize, 0x04))\n      shr(0xe0, calldataload(0x00))\n      dup1\n      0x53596840\n      eq\n      tag_3\n      jumpi\n      dup1\n      0x5c975abb\n      eq\n      tag_4\n      jumpi\n      dup1\n      0xa7bb5803\n      eq\n      tag_5\n      jumpi\n    tag_2:\n      0x00\n      dup1\n      revert\n        /* \"launchpad/contracts/testVerify.sol\":376:736  function sign(... */\n    tag_3:\n      tag_6\n      tag_7\n      calldatasize\n      0x04\n      tag_8\n      jump\t// in\n    tag_7:\n      tag_9\n      jump\t// in\n    tag_6:\n      0x40\n      dup1\n      mload\n        /* \"#utility.yul\":638:663   */\n      swap3\n      dup4\n      mstore\n        /* \"#utility.yul\":694:696   */\n      0x20\n        /* \"#utility.yul\":679:697   */\n      dup4\n      add\n        /* \"#utility.yul\":672:706   */\n      swap2\n      swap1\n      swap2\n      mstore\n        /* \"#utility.yul\":611:629   */\n      add\n        /* \"launchpad/contracts/testVerify.sol\":376:736  function sign(... */\n    tag_10:\n      mload(0x40)\n      dup1\n      swap2\n      sub\n      swap1\n      return\n        /* \"@openzeppelin/contracts/security/Pausable.sol\":1098:1182  function paused() public view virtual returns (bool) {... */\n    tag_4:\n        /* \"@openzeppelin/contracts/security/Pausable.sol\":1168:1175  _paused */\n      and(0xff, sload(0x01))\n        /* \"@openzeppelin/contracts/security/Pausable.sol\":1098:1182  function paused() public view virtual returns (bool) {... */\n      mload(0x40)\n        /* \"#utility.yul\":882:896   */\n      swap1\n      iszero\n        /* \"#utility.yul\":875:897   */\n      iszero\n        /* \"#utility.yul\":857:898   */\n      dup2\n      mstore\n        /* \"#utility.yul\":845:847   */\n      0x20\n        /* \"#utility.yul\":830:848   */\n      add\n        /* \"@openzeppelin/contracts/security/Pausable.sol\":1098:1182  function paused() public view virtual returns (bool) {... */\n      tag_10\n        /* \"#utility.yul\":717:904   */\n      jump\n        /* \"launchpad/contracts/testVerify.sol\":740:1221  function splitSignature(bytes memory sig)... */\n    tag_5:\n      tag_16\n      tag_17\n      calldatasize\n      0x04\n      tag_18\n      jump\t// in\n    tag_17:\n      tag_19\n      jump\t// in\n    tag_16:\n      0x40\n      dup1\n      mload\n        /* \"#utility.yul\":2195:2199   */\n      0xff\n        /* \"#utility.yul\":2183:2200   */\n      swap1\n      swap5\n      and\n        /* \"#utility.yul\":2165:2201   */\n      dup5\n      mstore\n        /* \"#utility.yul\":2232:2234   */\n      0x20\n        /* \"#utility.yul\":2217:2235   */\n      dup5\n      add\n        /* \"#utility.yul\":2210:2244   */\n      swap3\n      swap1\n      swap3\n      mstore\n        /* \"#utility.yul\":2260:2278   */\n      swap1\n      dup3\n      add\n        /* \"#utility.yul\":2253:2287   */\n      mstore\n        /* \"#utility.yul\":2153:2155   */\n      0x60\n        /* \"#utility.yul\":2138:2156   */\n      add\n        /* \"launchpad/contracts/testVerify.sol\":740:1221  function splitSignature(bytes memory sig)... */\n      tag_10\n        /* \"#utility.yul\":1967:2293   */\n      jump\n        /* \"launchpad/contracts/testVerify.sol\":376:736  function sign(... */\n    tag_9:\n        /* \"launchpad/contracts/testVerify.sol\":542:580  abi.encode(_target, _saleId, _chainId) */\n      0x40\n      dup1\n      mload\n      sub(shl(0xa0, 0x01), 0x01)\n        /* \"#utility.yul\":2518:2573   */\n      dup6\n      and\n        /* \"launchpad/contracts/testVerify.sol\":542:580  abi.encode(_target, _saleId, _chainId) */\n      0x20\n      dup3\n      add\n        /* \"#utility.yul\":2500:2574   */\n      mstore\n        /* \"#utility.yul\":2590:2608   */\n      swap1\n      dup2\n      add\n        /* \"#utility.yul\":2583:2617   */\n      dup4\n      swap1\n      mstore\n        /* \"#utility.yul\":2633:2651   */\n      0x60\n      dup2\n      add\n        /* \"#utility.yul\":2626:2660   */\n      dup3\n      swap1\n      mstore\n        /* \"launchpad/contracts/testVerify.sol\":479:486  bytes32 */\n      0x00\n      swap1\n      dup2\n      swap1\n      dup2\n      swap1\n        /* \"#utility.yul\":2473:2491   */\n      0x80\n      add\n        /* \"launchpad/contracts/testVerify.sol\":542:580  abi.encode(_target, _saleId, _chainId) */\n      mload(0x40)\n      0x20\n      dup2\n      dup4\n      sub\n      sub\n      dup2\n      mstore\n      swap1\n      0x40\n      mstore\n        /* \"launchpad/contracts/testVerify.sol\":525:586  keccak256(... */\n      dup1\n      mload\n      swap1\n      0x20\n      add\n      keccak256\n        /* \"launchpad/contracts/testVerify.sol\":503:586  bytes32 payloadHash = keccak256(... */\n      swap1\n      pop\n        /* \"launchpad/contracts/testVerify.sol\":593:612  bytes32 messageHash */\n      0x00\n        /* \"launchpad/contracts/testVerify.sol\":678:689  payloadHash */\n      dup2\n        /* \"launchpad/contracts/testVerify.sol\":625:690  abi.encodePacked(\"\\x19Ethereum Signed Message:\\n32\", payloadHash) */\n      add(0x20, mload(0x40))\n      tag_25\n      swap2\n      swap1\n        /* \"#utility.yul\":2913:2979   */\n      0x19457468657265756d205369676e6564204d6573736167653a0a333200000000\n        /* \"#utility.yul\":2901:2980   */\n      dup2\n      mstore\n        /* \"#utility.yul\":3005:3007   */\n      0x1c\n        /* \"#utility.yul\":2996:3008   */\n      dup2\n      add\n        /* \"#utility.yul\":2989:3017   */\n      swap2\n      swap1\n      swap2\n      mstore\n        /* \"#utility.yul\":3042:3044   */\n      0x3c\n        /* \"#utility.yul\":3033:3045   */\n      add\n      swap1\n        /* \"#utility.yul\":2671:3051   */\n      jump\n        /* \"launchpad/contracts/testVerify.sol\":625:690  abi.encodePacked(\"\\x19Ethereum Signed Message:\\n32\", payloadHash) */\n    tag_25:\n      0x40\n      dup1\n      mload\n      dup1\n      dup4\n      sub\n      not(0x1f)\n      add\n      dup2\n      mstore\n      swap2\n      swap1\n      mstore\n        /* \"launchpad/contracts/testVerify.sol\":615:691  keccak256(abi.encodePacked(\"\\x19Ethereum Signed Message:\\n32\", payloadHash)) */\n      dup1\n      mload\n        /* \"launchpad/contracts/testVerify.sol\":625:690  abi.encodePacked(\"\\x19Ethereum Signed Message:\\n32\", payloadHash) */\n      0x20\n        /* \"launchpad/contracts/testVerify.sol\":615:691  keccak256(abi.encodePacked(\"\\x19Ethereum Signed Message:\\n32\", payloadHash)) */\n      swap1\n      swap2\n      add\n      keccak256\n        /* \"launchpad/contracts/testVerify.sol\":706:717  payloadHash */\n      swap2\n      swap8\n        /* \"launchpad/contracts/testVerify.sol\":615:691  keccak256(abi.encodePacked(\"\\x19Ethereum Signed Message:\\n32\", payloadHash)) */\n      swap2\n      swap7\n      pop\n        /* \"launchpad/contracts/testVerify.sol\":376:736  function sign(... */\n      swap1\n      swap5\n      pop\n      pop\n      pop\n      pop\n      pop\n      jump\t// out\n        /* \"launchpad/contracts/testVerify.sol\":740:1221  function splitSignature(bytes memory sig)... */\n    tag_19:\n        /* \"launchpad/contracts/testVerify.sol\":822:827  uint8 */\n      0x00\n        /* \"launchpad/contracts/testVerify.sol\":835:842  bytes32 */\n      dup1\n        /* \"launchpad/contracts/testVerify.sol\":850:857  bytes32 */\n      0x00\n        /* \"launchpad/contracts/testVerify.sol\":880:883  sig */\n      dup4\n        /* \"launchpad/contracts/testVerify.sol\":880:890  sig.length */\n      mload\n        /* \"launchpad/contracts/testVerify.sol\":894:896  65 */\n      0x41\n        /* \"launchpad/contracts/testVerify.sol\":880:896  sig.length == 65 */\n      eq\n        /* \"launchpad/contracts/testVerify.sol\":872:897  require(sig.length == 65) */\n      tag_29\n      jumpi\n      0x00\n      dup1\n      revert\n    tag_29:\n      pop\n      pop\n      pop\n        /* \"launchpad/contracts/testVerify.sol\":1034:1036  32 */\n      0x20\n        /* \"launchpad/contracts/testVerify.sol\":1025:1037  add(sig, 32) */\n      dup2\n      add\n        /* \"launchpad/contracts/testVerify.sol\":1019:1038  mload(add(sig, 32)) */\n      mload\n        /* \"launchpad/contracts/testVerify.sol\":1090:1092  64 */\n      0x40\n        /* \"launchpad/contracts/testVerify.sol\":1081:1093  add(sig, 64) */\n      dup3\n      add\n        /* \"launchpad/contracts/testVerify.sol\":1075:1094  mload(add(sig, 64)) */\n      mload\n        /* \"launchpad/contracts/testVerify.sol\":1183:1185  96 */\n      0x60\n        /* \"launchpad/contracts/testVerify.sol\":1174:1186  add(sig, 96) */\n      swap1\n      swap3\n      add\n        /* \"launchpad/contracts/testVerify.sol\":1168:1187  mload(add(sig, 96)) */\n      mload\n        /* \"launchpad/contracts/testVerify.sol\":904:913  bytes32 r */\n      0x00\n        /* \"launchpad/contracts/testVerify.sol\":1160:1188  byte(0, mload(add(sig, 96))) */\n      byte\n      swap3\n        /* \"launchpad/contracts/testVerify.sol\":1019:1038  mload(add(sig, 32)) */\n      swap1\n      swap2\n        /* \"launchpad/contracts/testVerify.sol\":1075:1094  mload(add(sig, 64)) */\n      swap1\n        /* \"launchpad/contracts/testVerify.sol\":740:1221  function splitSignature(bytes memory sig)... */\n      jump\t// out\n        /* \"#utility.yul\":14:459   */\n    tag_8:\n        /* \"#utility.yul\":91:97   */\n      0x00\n        /* \"#utility.yul\":99:105   */\n      dup1\n        /* \"#utility.yul\":107:113   */\n      0x00\n        /* \"#utility.yul\":160:162   */\n      0x60\n        /* \"#utility.yul\":148:157   */\n      dup5\n        /* \"#utility.yul\":139:146   */\n      dup7\n        /* \"#utility.yul\":135:158   */\n      sub\n        /* \"#utility.yul\":131:163   */\n      slt\n        /* \"#utility.yul\":128:180   */\n      iszero\n      tag_33\n      jumpi\n        /* \"#utility.yul\":176:177   */\n      0x00\n        /* \"#utility.yul\":173:174   */\n      dup1\n        /* \"#utility.yul\":166:178   */\n      revert\n        /* \"#utility.yul\":128:180   */\n    tag_33:\n        /* \"#utility.yul\":215:224   */\n      dup4\n        /* \"#utility.yul\":202:225   */\n      calldataload\n      sub(shl(0xa0, 0x01), 0x01)\n        /* \"#utility.yul\":258:263   */\n      dup2\n        /* \"#utility.yul\":254:308   */\n      and\n        /* \"#utility.yul\":247:252   */\n      dup2\n        /* \"#utility.yul\":244:309   */\n      eq\n        /* \"#utility.yul\":234:327   */\n      tag_34\n      jumpi\n        /* \"#utility.yul\":323:324   */\n      0x00\n        /* \"#utility.yul\":320:321   */\n      dup1\n        /* \"#utility.yul\":313:325   */\n      revert\n        /* \"#utility.yul\":234:327   */\n    tag_34:\n        /* \"#utility.yul\":346:351   */\n      swap6\n        /* \"#utility.yul\":398:400   */\n      0x20\n        /* \"#utility.yul\":383:401   */\n      dup6\n      add\n        /* \"#utility.yul\":370:402   */\n      calldataload\n      swap6\n      pop\n        /* \"#utility.yul\":449:451   */\n      0x40\n        /* \"#utility.yul\":434:452   */\n      swap1\n      swap5\n      add\n        /* \"#utility.yul\":421:453   */\n      calldataload\n      swap4\n        /* \"#utility.yul\":14:459   */\n      swap3\n      pop\n      pop\n      pop\n      jump\t// out\n        /* \"#utility.yul\":909:1036   */\n    tag_30:\n        /* \"#utility.yul\":970:980   */\n      0x4e487b71\n        /* \"#utility.yul\":965:968   */\n      0xe0\n        /* \"#utility.yul\":961:981   */\n      shl\n        /* \"#utility.yul\":958:959   */\n      0x00\n        /* \"#utility.yul\":951:982   */\n      mstore\n        /* \"#utility.yul\":1001:1005   */\n      0x41\n        /* \"#utility.yul\":998:999   */\n      0x04\n        /* \"#utility.yul\":991:1006   */\n      mstore\n        /* \"#utility.yul\":1025:1029   */\n      0x24\n        /* \"#utility.yul\":1022:1023   */\n      0x00\n        /* \"#utility.yul\":1015:1030   */\n      revert\n        /* \"#utility.yul\":1041:1962   */\n    tag_18:\n        /* \"#utility.yul\":1109:1115   */\n      0x00\n        /* \"#utility.yul\":1162:1164   */\n      0x20\n        /* \"#utility.yul\":1150:1159   */\n      dup3\n        /* \"#utility.yul\":1141:1148   */\n      dup5\n        /* \"#utility.yul\":1137:1160   */\n      sub\n        /* \"#utility.yul\":1133:1165   */\n      slt\n        /* \"#utility.yul\":1130:1182   */\n      iszero\n      tag_39\n      jumpi\n        /* \"#utility.yul\":1178:1179   */\n      0x00\n        /* \"#utility.yul\":1175:1176   */\n      dup1\n        /* \"#utility.yul\":1168:1180   */\n      revert\n        /* \"#utility.yul\":1130:1182   */\n    tag_39:\n        /* \"#utility.yul\":1218:1227   */\n      dup2\n        /* \"#utility.yul\":1205:1228   */\n      calldataload\n        /* \"#utility.yul\":1247:1265   */\n      0xffffffffffffffff\n        /* \"#utility.yul\":1288:1290   */\n      dup1\n        /* \"#utility.yul\":1280:1286   */\n      dup3\n        /* \"#utility.yul\":1277:1291   */\n      gt\n        /* \"#utility.yul\":1274:1308   */\n      iszero\n      tag_40\n      jumpi\n        /* \"#utility.yul\":1304:1305   */\n      0x00\n        /* \"#utility.yul\":1301:1302   */\n      dup1\n        /* \"#utility.yul\":1294:1306   */\n      revert\n        /* \"#utility.yul\":1274:1308   */\n    tag_40:\n        /* \"#utility.yul\":1342:1348   */\n      dup2\n        /* \"#utility.yul\":1331:1340   */\n      dup5\n        /* \"#utility.yul\":1327:1349   */\n      add\n        /* \"#utility.yul\":1317:1349   */\n      swap2\n      pop\n        /* \"#utility.yul\":1387:1394   */\n      dup5\n        /* \"#utility.yul\":1380:1384   */\n      0x1f\n        /* \"#utility.yul\":1376:1378   */\n      dup4\n        /* \"#utility.yul\":1372:1385   */\n      add\n        /* \"#utility.yul\":1368:1395   */\n      slt\n        /* \"#utility.yul\":1358:1413   */\n      tag_41\n      jumpi\n        /* \"#utility.yul\":1409:1410   */\n      0x00\n        /* \"#utility.yul\":1406:1407   */\n      dup1\n        /* \"#utility.yul\":1399:1411   */\n      revert\n        /* \"#utility.yul\":1358:1413   */\n    tag_41:\n        /* \"#utility.yul\":1445:1447   */\n      dup2\n        /* \"#utility.yul\":1432:1448   */\n      calldataload\n        /* \"#utility.yul\":1467:1469   */\n      dup2\n        /* \"#utility.yul\":1463:1465   */\n      dup2\n        /* \"#utility.yul\":1460:1470   */\n      gt\n        /* \"#utility.yul\":1457:1493   */\n      iszero\n      tag_43\n      jumpi\n        /* \"#utility.yul\":1473:1491   */\n      tag_43\n      tag_30\n      jump\t// in\n    tag_43:\n        /* \"#utility.yul\":1548:1550   */\n      0x40\n        /* \"#utility.yul\":1542:1551   */\n      mload\n        /* \"#utility.yul\":1516:1518   */\n      0x1f\n        /* \"#utility.yul\":1602:1615   */\n      dup3\n      add\n      not(0x1f)\n        /* \"#utility.yul\":1598:1620   */\n      swap1\n      dup2\n      and\n        /* \"#utility.yul\":1622:1624   */\n      0x3f\n        /* \"#utility.yul\":1594:1625   */\n      add\n        /* \"#utility.yul\":1590:1630   */\n      and\n        /* \"#utility.yul\":1578:1631   */\n      dup2\n      add\n      swap1\n        /* \"#utility.yul\":1646:1664   */\n      dup4\n      dup3\n      gt\n        /* \"#utility.yul\":1666:1688   */\n      dup2\n      dup4\n      lt\n        /* \"#utility.yul\":1643:1689   */\n      or\n        /* \"#utility.yul\":1640:1712   */\n      iszero\n      tag_45\n      jumpi\n        /* \"#utility.yul\":1692:1710   */\n      tag_45\n      tag_30\n      jump\t// in\n    tag_45:\n        /* \"#utility.yul\":1732:1742   */\n      dup2\n        /* \"#utility.yul\":1728:1730   */\n      0x40\n        /* \"#utility.yul\":1721:1743   */\n      mstore\n        /* \"#utility.yul\":1767:1769   */\n      dup3\n        /* \"#utility.yul\":1759:1765   */\n      dup2\n        /* \"#utility.yul\":1752:1770   */\n      mstore\n        /* \"#utility.yul\":1807:1814   */\n      dup8\n        /* \"#utility.yul\":1802:1804   */\n      0x20\n        /* \"#utility.yul\":1797:1799   */\n      dup5\n        /* \"#utility.yul\":1793:1795   */\n      dup8\n        /* \"#utility.yul\":1789:1800   */\n      add\n        /* \"#utility.yul\":1785:1805   */\n      add\n        /* \"#utility.yul\":1782:1815   */\n      gt\n        /* \"#utility.yul\":1779:1832   */\n      iszero\n      tag_46\n      jumpi\n        /* \"#utility.yul\":1828:1829   */\n      0x00\n        /* \"#utility.yul\":1825:1826   */\n      dup1\n        /* \"#utility.yul\":1818:1830   */\n      revert\n        /* \"#utility.yul\":1779:1832   */\n    tag_46:\n        /* \"#utility.yul\":1884:1886   */\n      dup3\n        /* \"#utility.yul\":1879:1881   */\n      0x20\n        /* \"#utility.yul\":1875:1877   */\n      dup7\n        /* \"#utility.yul\":1871:1882   */\n      add\n        /* \"#utility.yul\":1866:1868   */\n      0x20\n        /* \"#utility.yul\":1858:1864   */\n      dup4\n        /* \"#utility.yul\":1854:1869   */\n      add\n        /* \"#utility.yul\":1841:1887   */\n      calldatacopy\n        /* \"#utility.yul\":1929:1930   */\n      0x00\n        /* \"#utility.yul\":1907:1922   */\n      swap3\n      dup2\n      add\n        /* \"#utility.yul\":1924:1926   */\n      0x20\n        /* \"#utility.yul\":1903:1927   */\n      add\n        /* \"#utility.yul\":1896:1931   */\n      swap3\n      swap1\n      swap3\n      mstore\n      pop\n        /* \"#utility.yul\":1911:1917   */\n      swap6\n        /* \"#utility.yul\":1041:1962   */\n      swap5\n      pop\n      pop\n      pop\n      pop\n      pop\n      jump\t// out\n\n    auxdata: 0xa2646970667358221220eb31ed0720153e199db3e2b279a067e82f553ad466729d80632c2506b4062bdb64736f6c634300080d0033\n}\n",
				"bytecode": {
					"linkReferences": {},
					"object": "608060405234801561001057600080fd5b5060016000819055805460ff191690556102cf8061002f6000396000f3fe608060405234801561001057600080fd5b50600436106100415760003560e01c806353596840146100465780635c975abb14610073578063a7bb580314610089575b600080fd5b610059610054366004610191565b6100bb565b604080519283526020830191909152015b60405180910390f35b60015460ff16604051901515815260200161006a565b61009c6100973660046101e8565b610162565b6040805160ff909416845260208401929092529082015260600161006a565b604080516001600160a01b0385166020820152908101839052606081018290526000908190819060800160405160208183030381529060405280519060200120905060008160405160200161013c91907f19457468657265756d205369676e6564204d6573736167653a0a3332000000008152601c810191909152603c0190565b60408051808303601f190181529190528051602090910120919791965090945050505050565b6000806000835160411461017557600080fd5b5050506020810151604082015160609092015160001a92909190565b6000806000606084860312156101a657600080fd5b83356001600160a01b03811681146101bd57600080fd5b95602085013595506040909401359392505050565b634e487b7160e01b600052604160045260246000fd5b6000602082840312156101fa57600080fd5b813567ffffffffffffffff8082111561021257600080fd5b818401915084601f83011261022657600080fd5b813581811115610238576102386101d2565b604051601f8201601f19908116603f01168101908382118183101715610260576102606101d2565b8160405282815287602084870101111561027957600080fd5b82602086016020830137600092810160200192909252509594505050505056fea2646970667358221220eb31ed0720153e199db3e2b279a067e82f553ad466729d80632c2506b4062bdb64736f6c634300080d0033",
					"opcodes": "PUSH1 0x80 PUSH1 0x40 MSTORE CALLVALUE DUP1 ISZERO PUSH2 0x10 JUMPI PUSH1 0x0 DUP1 REVERT JUMPDEST POP PUSH1 0x1 PUSH1 0x0 DUP2 SWAP1 SSTORE DUP1 SLOAD PUSH1 0xFF NOT AND SWAP1 SSTORE PUSH2 0x2CF DUP1 PUSH2 0x2F PUSH1 0x0 CODECOPY PUSH1 0x0 RETURN INVALID PUSH1 0x80 PUSH1 0x40 MSTORE CALLVALUE DUP1 ISZERO PUSH2 0x10 JUMPI PUSH1 0x0 DUP1 REVERT JUMPDEST POP PUSH1 0x4 CALLDATASIZE LT PUSH2 0x41 JUMPI PUSH1 0x0 CALLDATALOAD PUSH1 0xE0 SHR DUP1 PUSH4 0x53596840 EQ PUSH2 0x46 JUMPI DUP1 PUSH4 0x5C975ABB EQ PUSH2 0x73 JUMPI DUP1 PUSH4 0xA7BB5803 EQ PUSH2 0x89 JUMPI JUMPDEST PUSH1 0x0 DUP1 REVERT JUMPDEST PUSH2 0x59 PUSH2 0x54 CALLDATASIZE PUSH1 0x4 PUSH2 0x191 JUMP JUMPDEST PUSH2 0xBB JUMP JUMPDEST PUSH1 0x40 DUP1 MLOAD SWAP3 DUP4 MSTORE PUSH1 0x20 DUP4 ADD SWAP2 SWAP1 SWAP2 MSTORE ADD JUMPDEST PUSH1 0x40 MLOAD DUP1 SWAP2 SUB SWAP1 RETURN JUMPDEST PUSH1 0x1 SLOAD PUSH1 0xFF AND PUSH1 0x40 MLOAD SWAP1 ISZERO ISZERO DUP2 MSTORE PUSH1 0x20 ADD PUSH2 0x6A JUMP JUMPDEST PUSH2 0x9C PUSH2 0x97 CALLDATASIZE PUSH1 0x4 PUSH2 0x1E8 JUMP JUMPDEST PUSH2 0x162 JUMP JUMPDEST PUSH1 0x40 DUP1 MLOAD PUSH1 0xFF SWAP1 SWAP5 AND DUP5 MSTORE PUSH1 0x20 DUP5 ADD SWAP3 SWAP1 SWAP3 MSTORE SWAP1 DUP3 ADD MSTORE PUSH1 0x60 ADD PUSH2 0x6A JUMP JUMPDEST PUSH1 0x40 DUP1 MLOAD PUSH1 0x1 PUSH1 0x1 PUSH1 0xA0 SHL SUB DUP6 AND PUSH1 0x20 DUP3 ADD MSTORE SWAP1 DUP2 ADD DUP4 SWAP1 MSTORE PUSH1 0x60 DUP2 ADD DUP3 SWAP1 MSTORE PUSH1 0x0 SWAP1 DUP2 SWAP1 DUP2 SWAP1 PUSH1 0x80 ADD PUSH1 0x40 MLOAD PUSH1 0x20 DUP2 DUP4 SUB SUB DUP2 MSTORE SWAP1 PUSH1 0x40 MSTORE DUP1 MLOAD SWAP1 PUSH1 0x20 ADD KECCAK256 SWAP1 POP PUSH1 0x0 DUP2 PUSH1 0x40 MLOAD PUSH1 0x20 ADD PUSH2 0x13C SWAP2 SWAP1 PUSH32 0x19457468657265756D205369676E6564204D6573736167653A0A333200000000 DUP2 MSTORE PUSH1 0x1C DUP2 ADD SWAP2 SWAP1 SWAP2 MSTORE PUSH1 0x3C ADD SWAP1 JUMP JUMPDEST PUSH1 0x40 DUP1 MLOAD DUP1 DUP4 SUB PUSH1 0x1F NOT ADD DUP2 MSTORE SWAP2 SWAP1 MSTORE DUP1 MLOAD PUSH1 0x20 SWAP1 SWAP2 ADD KECCAK256 SWAP2 SWAP8 SWAP2 SWAP7 POP SWAP1 SWAP5 POP POP POP POP POP JUMP JUMPDEST PUSH1 0x0 DUP1 PUSH1 0x0 DUP4 MLOAD PUSH1 0x41 EQ PUSH2 0x175 JUMPI PUSH1 0x0 DUP1 REVERT JUMPDEST POP POP POP PUSH1 0x20 DUP2 ADD MLOAD PUSH1 0x40 DUP3 ADD MLOAD PUSH1 0x60 SWAP1 SWAP3 ADD MLOAD PUSH1 0x0 BYTE SWAP3 SWAP1 SWAP2 SWAP1 JUMP JUMPDEST PUSH1 0x0 DUP1 PUSH1 0x0 PUSH1 0x60 DUP5 DUP7 SUB SLT ISZERO PUSH2 0x1A6 JUMPI PUSH1 0x0 DUP1 REVERT JUMPDEST DUP4 CALLDATALOAD PUSH1 0x1 PUSH1 0x1 PUSH1 0xA0 SHL SUB DUP2 AND DUP2 EQ PUSH2 0x1BD JUMPI PUSH1 0x0 DUP1 REVERT JUMPDEST SWAP6 PUSH1 0x20 DUP6 ADD CALLDATALOAD SWAP6 POP PUSH1 0x40 SWAP1 SWAP5 ADD CALLDATALOAD SWAP4 SWAP3 POP POP POP JUMP JUMPDEST PUSH4 0x4E487B71 PUSH1 0xE0 SHL PUSH1 0x0 MSTORE PUSH1 0x41 PUSH1 0x4 MSTORE PUSH1 0x24 PUSH1 0x0 REVERT JUMPDEST PUSH1 0x0 PUSH1 0x20 DUP3 DUP5 SUB SLT ISZERO PUSH2 0x1FA JUMPI PUSH1 0x0 DUP1 REVERT JUMPDEST DUP2 CALLDATALOAD PUSH8 0xFFFFFFFFFFFFFFFF DUP1 DUP3 GT ISZERO PUSH2 0x212 JUMPI PUSH1 0x0 DUP1 REVERT JUMPDEST DUP2 DUP5 ADD SWAP2 POP DUP5 PUSH1 0x1F DUP4 ADD SLT PUSH2 0x226 JUMPI PUSH1 0x0 DUP1 REVERT JUMPDEST DUP2 CALLDATALOAD DUP2 DUP2 GT ISZERO PUSH2 0x238 JUMPI PUSH2 0x238 PUSH2 0x1D2 JUMP JUMPDEST PUSH1 0x40 MLOAD PUSH1 0x1F DUP3 ADD PUSH1 0x1F NOT SWAP1 DUP2 AND PUSH1 0x3F ADD AND DUP2 ADD SWAP1 DUP4 DUP3 GT DUP2 DUP4 LT OR ISZERO PUSH2 0x260 JUMPI PUSH2 0x260 PUSH2 0x1D2 JUMP JUMPDEST DUP2 PUSH1 0x40 MSTORE DUP3 DUP2 MSTORE DUP8 PUSH1 0x20 DUP5 DUP8 ADD ADD GT ISZERO PUSH2 0x279 JUMPI PUSH1 0x0 DUP1 REVERT JUMPDEST DUP3 PUSH1 0x20 DUP7 ADD PUSH1 0x20 DUP4 ADD CALLDATACOPY PUSH1 0x0 SWAP3 DUP2 ADD PUSH1 0x20 ADD SWAP3 SWAP1 SWAP3 MSTORE POP SWAP6 SWAP5 POP POP POP POP POP JUMP INVALID LOG2 PUSH5 0x6970667358 0x22 SLT KECCAK256 0xEB BALANCE 0xED SMOD KECCAK256 ISZERO RETURNDATACOPY NOT SWAP14 0xB3 0xE2 0xB2 PUSH26 0xA067E82F553AD466729D80632C2506B4062BDB64736F6C634300 ADDMOD 0xD STOP CALLER "
				},
				"gasEstimates": {
					"creation": {
						"codeDepositCost": "143800",
						"executionCost": "46517",
						"totalCost": "190317"
					},
					"external": {
						"paused()": "2292",
						"sign(address,uint256,uint256)": "790",
						"splitSignature(bytes)": "infinite"
					}
				},
				"methodIdentifiers": {
					"paused()": "5c975abb",
					"sign(address,uint256,uint256)": "53596840",
					"splitSignature(bytes)": "a7bb5803"
				}
			},
			"userdoc": {
				"kind": "user",
				"methods": {},
				"version": 1
			}
		}
	}
}