{
	"data": {
		"bytecode": {
			"linkReferences": {},
			"object": "6080604052601380546301000000600160b81b03191664dead0000001790553480156200002b57600080fd5b5060405162002b0b38038062002b0b8339810160408190526200004e9162000708565b60016000819055805460ff19169055601880546001600160a01b0319166001600160a01b038b1617905587516200008d90601a9060208b01906200057a565b508651620000a390601b9060208a01906200057a565b5085516002556020860151600355604086015160045560608601516005819055608087015160085560a087015160095560c0870151600f5560e0870151601081905510620001485760405162461bcd60e51b815260206004820152602760248201527f6d696e2062757920706572207573657220697320686967686572207468616e206044820152660686172646361760cc1b60648201526084015b60405180910390fd5b601580546001600160a01b03191633908117909155604080516373dc134960e01b815290516373dc134991600480820192602092909190829003018186803b1580156200019457600080fd5b505afa158015620001a9573d6000803e3d6000fd5b505050506040513d601f19601f82011682018060405250810190620001cf919062000833565b60075560055460045461271090620001e89082620008f1565b600254620001f79190620008cf565b620002039190620008ac565b6200020f9190620008ac565b600b556005546200022390600290620008ac565b600655600454600254612710916200023b91620008cf565b620002479190620008ac565b60128190556002546200025b9190620008f1565b60115560075461271090620002719082620008f1565b600554620002809190620008cf565b6200028c9190620008ac565b6003546012546200029e9190620008ac565b106200032c5760405162461bcd60e51b815260206004820152605060248201527f6e6f7420656e6f7567682045544820666f72206c69717569646974792c20696e60448201527f637265617365206c697374696e67207072696365206f7220646563726561736560648201526f206c697175696469747920736861726560801b608482015260a4016200013f565b600c8390556013805462ff000019166201000087151502179055600a84905560085484106200035a57600080fd5b601560009054906101000a90046001600160a01b03166001600160a01b0316632e8498946040518163ffffffff1660e01b815260040160206040518083038186803b158015620003a957600080fd5b505afa158015620003be573d6000803e3d6000fd5b505050506040513d601f19601f82011682018060405250810190620003e4919062000833565b60195560135462010000900460ff1615620004a457601554601954604051630b1d2ef960e41b81526001600160a01b039092169163b1d2ef90916200042f9160040190815260200190565b60206040518083038186803b1580156200044857600080fd5b505afa1580156200045d573d6000803e3d6000fd5b505050506040513d601f19601f82011682018060405250810190620004839190620006e3565b601480546001600160a01b0319166001600160a01b03929092169190911790555b601560009054906101000a90046001600160a01b03166001600160a01b0316637e44d2cc6040518163ffffffff1660e01b815260040160206040518083038186803b158015620004f357600080fd5b505afa15801562000508573d6000803e3d6000fd5b505050506040513d601f19601f820116820180604052508101906200052e9190620006e3565b601c80546001600160a01b03199081166001600160a01b0393841617909155601d8054821693831693909317909255601680549092169216919091179055506200097495505050505050565b82805462000588906200090b565b90600052602060002090601f016020900481019282620005ac5760008555620005f7565b82601f10620005c757805160ff1916838001178555620005f7565b82800160010185558215620005f7579182015b82811115620005f7578251825591602001919060010190620005da565b506200060592915062000609565b5090565b5b808211156200060557600081556001016200060a565b80516001600160a01b03811681146200063857600080fd5b919050565b805180151581146200063857600080fd5b600082601f8301126200066057600080fd5b81516001600160401b038111156200067c576200067c6200095e565b602062000692601f8301601f1916820162000879565b8281528582848701011115620006a757600080fd5b60005b83811015620006c7578581018301518282018401528201620006aa565b83811115620006d95760008385840101525b5095945050505050565b600060208284031215620006f657600080fd5b620007018262000620565b9392505050565b60008060008060008060008060006102008a8c0312156200072857600080fd5b620007338a62000620565b60208b810151919a50906001600160401b03808211156200075357600080fd5b620007618e838f016200064e565b9a5060408d01519150808211156200077857600080fd5b50620007878d828e016200064e565b9850508b607f8c01126200079a57600080fd5b620007a46200084d565b8060608d016101608e018f811115620007bc57600080fd5b60005b6008811015620007de57825185529385019391850191600101620007bf565b50829a50620007ed816200063d565b995050505050506101808a015193506101a08a01519250620008136101c08b0162000620565b9150620008246101e08b0162000620565b90509295985092959850929598565b6000602082840312156200084657600080fd5b5051919050565b60405161010081016001600160401b03811182821017156200087357620008736200095e565b60405290565b604051601f8201601f191681016001600160401b0381118282101715620008a457620008a46200095e565b604052919050565b600082620008ca57634e487b7160e01b600052601260045260246000fd5b500490565b6000816000190483118215151615620008ec57620008ec62000948565b500290565b60008282101562000906576200090662000948565b500390565b600181811c908216806200092057607f821691505b602082108114156200094257634e487b7160e01b600052602260045260246000fd5b50919050565b634e487b7160e01b600052601160045260246000fd5b634e487b7160e01b600052604160045260246000fd5b61218780620009846000396000f3fe6080604052600436106103135760003560e01c80638f5d036b1161019a578063c7bf5166116100e1578063e49dce661161008a578063f887ea4011610064578063f887ea4014610803578063f89be59314610823578063fc0c546a1461083957600080fd5b8063e49dce66146107ad578063ea44c1bc146107cd578063ee97f7f3146107e357600080fd5b8063d4b9de51116100bb578063d4b9de5114610767578063da2cbd5014610781578063de284b3a1461079757600080fd5b8063c7bf516614610726578063c84c03871461073c578063d132a8f41461075257600080fd5b8063a7bb580311610143578063bca1da851161011d578063bca1da85146106d0578063be9feb30146106f0578063c45a01551461070657600080fd5b8063a7bb580314610666578063aba83150146106a5578063b071cbe6146106ba57600080fd5b8063a0f7ab3511610174578063a0f7ab3514610620578063a5f0dea214610636578063a611dc371461065057600080fd5b80638f5d036b146105e4578063957f1474146105f95780639b8906ae1461060157600080fd5b806351fb012d1161025e5780636b7f3df31161020757806378e97925116101e157806378e979251461059957806383b17fdd146105af57806385bf4946146105c557600080fd5b80636b7f3df3146105345780636ef2e4d3146105615780637284e4161461057757600080fd5b80635c975abb116102385780635c975abb146104dc57806364db812e146104f457806366d003ac1461051457600080fd5b806351fb012d1461048457806358a687ec146104b457806359663174146104c957600080fd5b806327a72c96116102c05780633c8760811161029a5780633c8760811461042457806348c54b9d146104595780634ae01d521461046e57600080fd5b806327a72c96146103d157806327c8f835146103e75780633197cbb61461040e57600080fd5b806312e409c5116102f157806312e409c51461036e578063201a341914610384578063238ac9331461039957600080fd5b8063017f6fae14610318578063039ce1571461034157806303bcf11d14610357575b600080fd5b34801561032457600080fd5b5061032e60075481565b6040519081526020015b60405180910390f35b34801561034d57600080fd5b5061032e60115481565b34801561036357600080fd5b5061036c610859565b005b34801561037a57600080fd5b5061032e60105481565b34801561039057600080fd5b5061036c61097c565b3480156103a557600080fd5b506014546103b9906001600160a01b031681565b6040516001600160a01b039091168152602001610338565b3480156103dd57600080fd5b5061032e600e5481565b3480156103f357600080fd5b506013546103b990630100000090046001600160a01b031681565b34801561041a57600080fd5b5061032e60095481565b34801561043057600080fd5b506103b961043f366004611ede565b60208052600090815260409020546001600160a01b031681565b34801561046557600080fd5b5061036c610e76565b34801561047a57600080fd5b5061032e600c5481565b34801561049057600080fd5b506013546104a49062010000900460ff1681565b6040519015158152602001610338565b3480156104c057600080fd5b5061036c611106565b61036c6104d7366004611f41565b6112ad565b3480156104e857600080fd5b5060015460ff166104a4565b34801561050057600080fd5b50601f546104a49062010000900460ff1681565b34801561052057600080fd5b50601c546103b9906001600160a01b031681565b34801561054057600080fd5b5061032e61054f366004611ede565b60216020526000908152604090205481565b34801561056d57600080fd5b5061032e60125481565b34801561058357600080fd5b5061058c61169a565b6040516103389190612024565b3480156105a557600080fd5b5061032e60085481565b3480156105bb57600080fd5b5061032e60025481565b3480156105d157600080fd5b506013546104a490610100900460ff1681565b3480156105f057600080fd5b5061036c611728565b61036c611853565b34801561060d57600080fd5b50601f546104a490610100900460ff1681565b34801561062c57600080fd5b5061032e60035481565b34801561064257600080fd5b50601f546104a49060ff1681565b34801561065c57600080fd5b5061032e60045481565b34801561067257600080fd5b50610686610681366004611f41565b611c28565b6040805160ff9094168452602084019290925290820152606001610338565b3480156106b157600080fd5b5061058c611c57565b3480156106c657600080fd5b5061032e60055481565b3480156106dc57600080fd5b50601d546103b9906001600160a01b031681565b3480156106fc57600080fd5b5061032e600a5481565b34801561071257600080fd5b506017546103b9906001600160a01b031681565b34801561073257600080fd5b5061032e600b5481565b34801561074857600080fd5b5061032e60195481565b34801561075e57600080fd5b5061032e611c64565b34801561077357600080fd5b506013546104a49060ff1681565b34801561078d57600080fd5b5061032e601e5481565b3480156107a357600080fd5b5061032e600f5481565b3480156107b957600080fd5b506104a46107c8366004611f7e565b611c7b565b3480156107d957600080fd5b5061032e600d5481565b3480156107ef57600080fd5b506015546103b9906001600160a01b031681565b34801561080f57600080fd5b506016546103b9906001600160a01b031681565b34801561082f57600080fd5b5061032e60065481565b34801561084557600080fd5b506018546103b9906001600160a01b031681565b601d546001600160a01b031633146108b85760405162461bcd60e51b815260206004820152601b60248201527f63616c6c6572206973206e6f742074686520696e69746961746f72000000000060448201526064015b60405180910390fd5b601f54610100900460ff16156109105760405162461bcd60e51b815260206004820152601c60248201527f636c61696d696e672068617320616c726561647920737461727465640000000060448201526064016108af565b601f5462010000900460ff16156109695760405162461bcd60e51b815260206004820152601460248201527f73616c6520616c72656164792061626f7274656400000000000000000000000060448201526064016108af565b601f805462ff0000191662010000179055565b601d546001600160a01b031633146109d65760405162461bcd60e51b815260206004820152601b60248201527f63616c6c6572206973206e6f742074686520696e69746961746f72000000000060448201526064016108af565b60026000541415610a295760405162461bcd60e51b815260206004820152601f60248201527f5265656e7472616e637947756172643a207265656e7472616e742063616c6c0060448201526064016108af565b6002600055601f5462010000900460ff1615610a7a5760405162461bcd60e51b815260206004820152601060248201526f1cd85b19481dd85cc818589bdc9d195960821b60448201526064016108af565b601f5460ff16610acc5760405162461bcd60e51b815260206004820152601560248201527f73616c65207761736e27742066696e616c697a6564000000000000000000000060448201526064016108af565b600654601e5411610b1f5760405162461bcd60e51b815260206004820152601b60248201527f6e6f7420656e6f75676820746f6b656e73207765726520736f6c64000000000060448201526064016108af565b601f54610100900460ff1615610b775760405162461bcd60e51b815260206004820152601660248201527f73616c652077617320616c726561647920656e6465640000000000000000000060448201526064016108af565b601f805461ff001916610100179055600354600090610b94611c64565b610b9e9190612091565b90506000600554601e54601254610bb591906120b3565b610bbf9190612091565b60185460165460405163095ea7b360e01b81526001600160a01b03918216600482015260248101849052929350169063095ea7b390604401602060405180830381600087803b158015610c1157600080fd5b505af1158015610c25573d6000803e3d6000fd5b505050506040513d601f19601f82011682018060405250810190610c499190611f1f565b506016546018546001600160a01b039182169163f305d719918591168460008030610c76426103e8612079565b60405160e089901b7fffffffff000000000000000000000000000000000000000000000000000000001681526001600160a01b039687166004820152602481019590955260448501939093526064840191909152909216608482015260a481019190915260c4016060604051808303818588803b158015610cf657600080fd5b505af1158015610d0a573d6000803e3d6000fd5b50505050506040513d601f19601f82011682018060405250810190610d2f9190611ff6565b505060155460408051631f9134b360e21b815290516001600160a01b039092169250637e44d2cc916004808301926020929190829003018186803b158015610d7657600080fd5b505afa158015610d8a573d6000803e3d6000fd5b505050506040513d601f19601f82011682018060405250810190610dae9190611f02565b6001600160a01b0316612710600754601e54610dca91906120b3565b610dd49190612091565b604051600081818185875af1925050503d8060008114610e10576040519150601f19603f3d011682016040523d82523d6000602084013e610e15565b606091505b5050601d546040516001600160a01b0390911691504790600081818185875af1925050503d8060008114610e65576040519150601f19603f3d011682016040523d82523d6000602084013e610e6a565b606091505b50506001600055505050565b60026000541415610ec95760405162461bcd60e51b815260206004820152601f60248201527f5265656e7472616e637947756172643a207265656e7472616e742063616c6c0060448201526064016108af565b6002600055601f5462010000900460ff1615610f4d5760405162461bcd60e51b815260206004820152603560248201527f73616c65207761732061626f727465642c20706c656173652075736520636c6160448201527f696d5374616c6545746828292066756e6374696f6e000000000000000000000060648201526084016108af565b33600090815260216020526040902054610fa95760405162461bcd60e51b815260206004820152601f60248201527f75736572206861736e277420616e7920746f6b656e7320746f20636c61696d0060448201526064016108af565b601f54610100900460ff1661100c5760405162461bcd60e51b815260206004820152602360248201527f696e69746961746f72206861736e277420656e646564207468652073616c65206044820152621e595d60ea1b60648201526084016108af565b600b5433600090815260216020526040812054909161102a916120b3565b3360009081526021602052604080822091909155519091507f8a36f5a234186d446e36a7df36ace663a05a580d9bea2dd899c6dd76a075d5fa906110719083815260200190565b60405180910390a160185460405163a9059cbb60e01b8152336004820152602481018390526001600160a01b039091169063a9059cbb90604401602060405180830381600087803b1580156110c557600080fd5b505af11580156110d9573d6000803e3d6000fd5b505050506040513d601f19601f820116820180604052508101906110fd9190611f1f565b50506001600055565b601d546001600160a01b031633146111605760405162461bcd60e51b815260206004820152601b60248201527f63616c6c6572206973206e6f742074686520696e69746961746f72000000000060448201526064016108af565b601f5462010000900460ff16156111ac5760405162461bcd60e51b815260206004820152601060248201526f1cd85b19481dd85cc818589bdc9d195960821b60448201526064016108af565b6002546018546040516370a0823160e01b81523060048201526001600160a01b03909116906370a082319060240160206040518083038186803b1580156111f257600080fd5b505afa158015611206573d6000803e3d6000fd5b505050506040513d601f19601f8201168201806040525081019061122a9190611fdd565b101561129e5760405162461bcd60e51b815260206004820152603160248201527f696e73756666696369656e7420616d6f756e74206f6620746f6b656e7320736560448201527f6e7420746f20746865206164647265737300000000000000000000000000000060648201526084016108af565b601f805460ff19166001179055565b600260005414156113005760405162461bcd60e51b815260206004820152601f60248201527f5265656e7472616e637947756172643a207265656e7472616e742063616c6c0060448201526064016108af565b600260005560015460ff161561134b5760405162461bcd60e51b815260206004820152601060248201526f14185d5cd8589b194e881c185d5cd95960821b60448201526064016108af565b611359813360195446611c7b565b61136257600080fd5b601f5462010000900460ff16156113ae5760405162461bcd60e51b815260206004820152601060248201526f1cd85b19481dd85cc818589bdc9d195960821b60448201526064016108af565b601f5460ff166114005760405162461bcd60e51b815260206004820152601e60248201527f73616c65206861736e2774206265656e2066696e616c697a656420796574000060448201526064016108af565b60095442106114425760405162461bcd60e51b815260206004820152600e60248201526d1cd85b19481a185cc8195b99195960921b60448201526064016108af565b600a5442116114935760405162461bcd60e51b815260206004820152601760248201527f73616c65206861736e277420737461727465642079657400000000000000000060448201526064016108af565b600f54336000908152602160205260409020546114b09034612079565b111561150a5760405162461bcd60e51b8152602060048201526024808201527f796f7527726520747279696e6720746f2062757920746f6f206d616e7920746f6044820152636b656e7360e01b60648201526084016108af565b60105434101561155c5760405162461bcd60e51b815260206004820152601960248201527f796f75277265206e6f742073656e64696e6720656e6f7567680000000000000060448201526064016108af565b601154611567611c64565b600b5461157490346120b3565b61157e9190612079565b11156115e85760405162461bcd60e51b815260206004820152603360248201527f7468657265206172656e277420656e6f75676820746f6b656e73206c6566742e60448201527208151c9e4818481b1bddd95c88185b5bdd5b9d606a1b60648201526084016108af565b60055434601e546115f99190612079565b11156116565760405162461bcd60e51b815260206004820152602660248201527f6861726463617020697320726561636865642e205472792061206c6f77657220604482015265185b5bdd5b9d60d21b60648201526084016108af565b33600090815260216020526040902054611671903490612079565b33600090815260216020526040902055601e5461168f903490612079565b601e55506001600055565b601a80546116a7906120d2565b80601f01602080910402602001604051908101604052809291908181526020018280546116d3906120d2565b80156117205780601f106116f557610100808354040283529160200191611720565b820191906000526020600020905b81548152906001019060200180831161170357829003601f168201915b505050505081565b6002600054141561177b5760405162461bcd60e51b815260206004820152601f60248201527f5265656e7472616e637947756172643a207265656e7472616e742063616c6c0060448201526064016108af565b6002600055601f54610100900460ff16156117e45760405162461bcd60e51b815260206004820152602360248201527f73616c6520686173206265656e20656e646564203a20796f752063616e20636c60448201526261696d60e81b60648201526084016108af565b601f5462010000900460ff16156117fd576117fd611d95565b600654601e54108015611811575060095442115b1561181e5761181e611d95565b600654601e5411801561183f575060095461183c9062015180612079565b42115b1561184c5761184c611d95565b6001600055565b600260005414156118a65760405162461bcd60e51b815260206004820152601f60248201527f5265656e7472616e637947756172643a207265656e7472616e742063616c6c0060448201526064016108af565b600260005560015460ff16156118f15760405162461bcd60e51b815260206004820152601060248201526f14185d5cd8589b194e881c185d5cd95960821b60448201526064016108af565b601f5462010000900460ff161561193d5760405162461bcd60e51b815260206004820152601060248201526f1cd85b19481dd85cc818589bdc9d195960821b60448201526064016108af565b601f5460ff1661198f5760405162461bcd60e51b815260206004820152601e60248201527f73616c65206861736e2774206265656e2066696e616c697a656420796574000060448201526064016108af565b60085442116119e05760405162461bcd60e51b815260206004820152601760248201527f73616c65206861736e277420737461727465642079657400000000000000000060448201526064016108af565b6009544210611a225760405162461bcd60e51b815260206004820152600e60248201526d1cd85b19481a185cc8195b99195960921b60448201526064016108af565b600f5433600090815260216020526040902054611a3f9034612079565b1115611a995760405162461bcd60e51b8152602060048201526024808201527f796f7527726520747279696e6720746f2062757920746f6f206d616e7920746f6044820152636b656e7360e01b60648201526084016108af565b601054341015611aeb5760405162461bcd60e51b815260206004820152601960248201527f796f75277265206e6f742073656e64696e6720656e6f7567680000000000000060448201526064016108af565b601154611af6611c64565b600b54611b0390346120b3565b611b0d9190612079565b1115611b775760405162461bcd60e51b815260206004820152603360248201527f7468657265206172656e277420656e6f75676820746f6b656e73206c6566742e60448201527208151c9e4818481b1bddd95c88185b5bdd5b9d606a1b60648201526084016108af565b60055434601e54611b889190612079565b1115611be55760405162461bcd60e51b815260206004820152602660248201527f6861726463617020697320726561636865642e205472792061206c6f77657220604482015265185b5bdd5b9d60d21b60648201526084016108af565b33600090815260216020526040902054611c00903490612079565b33600090815260216020526040902055601e54611c1e903490612079565b601e556001600055565b60008060008351604114611c3b57600080fd5b5050506020810151604082015160609092015160001a92909190565b601b80546116a7906120d2565b6000600b54601e54611c7691906120b3565b905090565b600080600080611c8a88611c28565b604080516001600160a01b038c166020808301919091528183018c905260608083018c9052835180840390910181526080830190935282519201919091207f19457468657265756d205369676e6564204d6573736167653a0a33320000000060a083015260bc8201819052939650919450925060009060dc0160408051601f1981840301815282825280516020918201206000845290830180835281905260ff8816918301919091526060820186905260808201859052915060019060a0016020604051602081039080840390855afa158015611d6b573d6000803e3d6000fd5b5050604051601f1901516014546001600160a01b039182169116149b9a5050505050505050505050565b33600090815260216020526040902054611df15760405162461bcd60e51b815260206004820152601f60248201527f75736572206861736e277420616e7920746f6b656e7320746f20636c61696d0060448201526064016108af565b33600081815260216020526040808220805490839055905190929183919081818185875af1925050503d8060008114611e46576040519150601f19603f3d011682016040523d82523d6000602084013e611e4b565b606091505b50505050565b600082601f830112611e6257600080fd5b813567ffffffffffffffff80821115611e7d57611e7d612123565b604051601f8301601f19908116603f01168101908282118183101715611ea557611ea5612123565b81604052838152866020858801011115611ebe57600080fd5b836020870160208301376000602085830101528094505050505092915050565b600060208284031215611ef057600080fd5b8135611efb81612139565b9392505050565b600060208284031215611f1457600080fd5b8151611efb81612139565b600060208284031215611f3157600080fd5b81518015158114611efb57600080fd5b600060208284031215611f5357600080fd5b813567ffffffffffffffff811115611f6a57600080fd5b611f7684828501611e51565b949350505050565b60008060008060808587031215611f9457600080fd5b843567ffffffffffffffff811115611fab57600080fd5b611fb787828801611e51565b9450506020850135611fc881612139565b93969395505050506040820135916060013590565b600060208284031215611fef57600080fd5b5051919050565b60008060006060848603121561200b57600080fd5b8351925060208401519150604084015190509250925092565b600060208083528351808285015260005b8181101561205157858101830151858201604001528201612035565b81811115612063576000604083870101525b50601f01601f1916929092016040019392505050565b6000821982111561208c5761208c61210d565b500190565b6000826120ae57634e487b7160e01b600052601260045260246000fd5b500490565b60008160001904831182151516156120cd576120cd61210d565b500290565b600181811c908216806120e657607f821691505b6020821081141561210757634e487b7160e01b600052602260045260246000fd5b50919050565b634e487b7160e01b600052601160045260246000fd5b634e487b7160e01b600052604160045260246000fd5b6001600160a01b038116811461214e57600080fd5b5056fea26469706673582212202356639e53b0708b53280f2ee36ddb378f8c0eef7cd0b889757bb38cee43404164736f6c63430008070033",
			"opcodes": "PUSH1 0x80 PUSH1 0x40 MSTORE PUSH1 0x13 DUP1 SLOAD PUSH4 0x1000000 PUSH1 0x1 PUSH1 0xB8 SHL SUB NOT AND PUSH5 0xDEAD000000 OR SWAP1 SSTORE CALLVALUE DUP1 ISZERO PUSH3 0x2B JUMPI PUSH1 0x0 DUP1 REVERT JUMPDEST POP PUSH1 0x40 MLOAD PUSH3 0x2B0B CODESIZE SUB DUP1 PUSH3 0x2B0B DUP4 CODECOPY DUP2 ADD PUSH1 0x40 DUP2 SWAP1 MSTORE PUSH3 0x4E SWAP2 PUSH3 0x708 JUMP JUMPDEST PUSH1 0x1 PUSH1 0x0 DUP2 SWAP1 SSTORE DUP1 SLOAD PUSH1 0xFF NOT AND SWAP1 SSTORE PUSH1 0x18 DUP1 SLOAD PUSH1 0x1 PUSH1 0x1 PUSH1 0xA0 SHL SUB NOT AND PUSH1 0x1 PUSH1 0x1 PUSH1 0xA0 SHL SUB DUP12 AND OR SWAP1 SSTORE DUP8 MLOAD PUSH3 0x8D SWAP1 PUSH1 0x1A SWAP1 PUSH1 0x20 DUP12 ADD SWAP1 PUSH3 0x57A JUMP JUMPDEST POP DUP7 MLOAD PUSH3 0xA3 SWAP1 PUSH1 0x1B SWAP1 PUSH1 0x20 DUP11 ADD SWAP1 PUSH3 0x57A JUMP JUMPDEST POP DUP6 MLOAD PUSH1 0x2 SSTORE PUSH1 0x20 DUP7 ADD MLOAD PUSH1 0x3 SSTORE PUSH1 0x40 DUP7 ADD MLOAD PUSH1 0x4 SSTORE PUSH1 0x60 DUP7 ADD MLOAD PUSH1 0x5 DUP2 SWAP1 SSTORE PUSH1 0x80 DUP8 ADD MLOAD PUSH1 0x8 SSTORE PUSH1 0xA0 DUP8 ADD MLOAD PUSH1 0x9 SSTORE PUSH1 0xC0 DUP8 ADD MLOAD PUSH1 0xF SSTORE PUSH1 0xE0 DUP8 ADD MLOAD PUSH1 0x10 DUP2 SWAP1 SSTORE LT PUSH3 0x148 JUMPI PUSH1 0x40 MLOAD PUSH3 0x461BCD PUSH1 0xE5 SHL DUP2 MSTORE PUSH1 0x20 PUSH1 0x4 DUP3 ADD MSTORE PUSH1 0x27 PUSH1 0x24 DUP3 ADD MSTORE PUSH32 0x6D696E2062757920706572207573657220697320686967686572207468616E20 PUSH1 0x44 DUP3 ADD MSTORE PUSH7 0x6861726463617 PUSH1 0xCC SHL PUSH1 0x64 DUP3 ADD MSTORE PUSH1 0x84 ADD JUMPDEST PUSH1 0x40 MLOAD DUP1 SWAP2 SUB SWAP1 REVERT JUMPDEST PUSH1 0x15 DUP1 SLOAD PUSH1 0x1 PUSH1 0x1 PUSH1 0xA0 SHL SUB NOT AND CALLER SWAP1 DUP2 OR SWAP1 SWAP2 SSTORE PUSH1 0x40 DUP1 MLOAD PUSH4 0x73DC1349 PUSH1 0xE0 SHL DUP2 MSTORE SWAP1 MLOAD PUSH4 0x73DC1349 SWAP2 PUSH1 0x4 DUP1 DUP3 ADD SWAP3 PUSH1 0x20 SWAP3 SWAP1 SWAP2 SWAP1 DUP3 SWAP1 SUB ADD DUP2 DUP7 DUP1 EXTCODESIZE ISZERO DUP1 ISZERO PUSH3 0x194 JUMPI PUSH1 0x0 DUP1 REVERT JUMPDEST POP GAS STATICCALL ISZERO DUP1 ISZERO PUSH3 0x1A9 JUMPI RETURNDATASIZE PUSH1 0x0 DUP1 RETURNDATACOPY RETURNDATASIZE PUSH1 0x0 REVERT JUMPDEST POP POP POP POP PUSH1 0x40 MLOAD RETURNDATASIZE PUSH1 0x1F NOT PUSH1 0x1F DUP3 ADD AND DUP3 ADD DUP1 PUSH1 0x40 MSTORE POP DUP2 ADD SWAP1 PUSH3 0x1CF SWAP2 SWAP1 PUSH3 0x833 JUMP JUMPDEST PUSH1 0x7 SSTORE PUSH1 0x5 SLOAD PUSH1 0x4 SLOAD PUSH2 0x2710 SWAP1 PUSH3 0x1E8 SWAP1 DUP3 PUSH3 0x8F1 JUMP JUMPDEST PUSH1 0x2 SLOAD PUSH3 0x1F7 SWAP2 SWAP1 PUSH3 0x8CF JUMP JUMPDEST PUSH3 0x203 SWAP2 SWAP1 PUSH3 0x8AC JUMP JUMPDEST PUSH3 0x20F SWAP2 SWAP1 PUSH3 0x8AC JUMP JUMPDEST PUSH1 0xB SSTORE PUSH1 0x5 SLOAD PUSH3 0x223 SWAP1 PUSH1 0x2 SWAP1 PUSH3 0x8AC JUMP JUMPDEST PUSH1 0x6 SSTORE PUSH1 0x4 SLOAD PUSH1 0x2 SLOAD PUSH2 0x2710 SWAP2 PUSH3 0x23B SWAP2 PUSH3 0x8CF JUMP JUMPDEST PUSH3 0x247 SWAP2 SWAP1 PUSH3 0x8AC JUMP JUMPDEST PUSH1 0x12 DUP2 SWAP1 SSTORE PUSH1 0x2 SLOAD PUSH3 0x25B SWAP2 SWAP1 PUSH3 0x8F1 JUMP JUMPDEST PUSH1 0x11 SSTORE PUSH1 0x7 SLOAD PUSH2 0x2710 SWAP1 PUSH3 0x271 SWAP1 DUP3 PUSH3 0x8F1 JUMP JUMPDEST PUSH1 0x5 SLOAD PUSH3 0x280 SWAP2 SWAP1 PUSH3 0x8CF JUMP JUMPDEST PUSH3 0x28C SWAP2 SWAP1 PUSH3 0x8AC JUMP JUMPDEST PUSH1 0x3 SLOAD PUSH1 0x12 SLOAD PUSH3 0x29E SWAP2 SWAP1 PUSH3 0x8AC JUMP JUMPDEST LT PUSH3 0x32C JUMPI PUSH1 0x40 MLOAD PUSH3 0x461BCD PUSH1 0xE5 SHL DUP2 MSTORE PUSH1 0x20 PUSH1 0x4 DUP3 ADD MSTORE PUSH1 0x50 PUSH1 0x24 DUP3 ADD MSTORE PUSH32 0x6E6F7420656E6F7567682045544820666F72206C69717569646974792C20696E PUSH1 0x44 DUP3 ADD MSTORE PUSH32 0x637265617365206C697374696E67207072696365206F72206465637265617365 PUSH1 0x64 DUP3 ADD MSTORE PUSH16 0x206C6971756964697479207368617265 PUSH1 0x80 SHL PUSH1 0x84 DUP3 ADD MSTORE PUSH1 0xA4 ADD PUSH3 0x13F JUMP JUMPDEST PUSH1 0xC DUP4 SWAP1 SSTORE PUSH1 0x13 DUP1 SLOAD PUSH3 0xFF0000 NOT AND PUSH3 0x10000 DUP8 ISZERO ISZERO MUL OR SWAP1 SSTORE PUSH1 0xA DUP5 SWAP1 SSTORE PUSH1 0x8 SLOAD DUP5 LT PUSH3 0x35A JUMPI PUSH1 0x0 DUP1 REVERT JUMPDEST PUSH1 0x15 PUSH1 0x0 SWAP1 SLOAD SWAP1 PUSH2 0x100 EXP SWAP1 DIV PUSH1 0x1 PUSH1 0x1 PUSH1 0xA0 SHL SUB AND PUSH1 0x1 PUSH1 0x1 PUSH1 0xA0 SHL SUB AND PUSH4 0x2E849894 PUSH1 0x40 MLOAD DUP2 PUSH4 0xFFFFFFFF AND PUSH1 0xE0 SHL DUP2 MSTORE PUSH1 0x4 ADD PUSH1 0x20 PUSH1 0x40 MLOAD DUP1 DUP4 SUB DUP2 DUP7 DUP1 EXTCODESIZE ISZERO DUP1 ISZERO PUSH3 0x3A9 JUMPI PUSH1 0x0 DUP1 REVERT JUMPDEST POP GAS STATICCALL ISZERO DUP1 ISZERO PUSH3 0x3BE JUMPI RETURNDATASIZE PUSH1 0x0 DUP1 RETURNDATACOPY RETURNDATASIZE PUSH1 0x0 REVERT JUMPDEST POP POP POP POP PUSH1 0x40 MLOAD RETURNDATASIZE PUSH1 0x1F NOT PUSH1 0x1F DUP3 ADD AND DUP3 ADD DUP1 PUSH1 0x40 MSTORE POP DUP2 ADD SWAP1 PUSH3 0x3E4 SWAP2 SWAP1 PUSH3 0x833 JUMP JUMPDEST PUSH1 0x19 SSTORE PUSH1 0x13 SLOAD PUSH3 0x10000 SWAP1 DIV PUSH1 0xFF AND ISZERO PUSH3 0x4A4 JUMPI PUSH1 0x15 SLOAD PUSH1 0x19 SLOAD PUSH1 0x40 MLOAD PUSH4 0xB1D2EF9 PUSH1 0xE4 SHL DUP2 MSTORE PUSH1 0x1 PUSH1 0x1 PUSH1 0xA0 SHL SUB SWAP1 SWAP3 AND SWAP2 PUSH4 0xB1D2EF90 SWAP2 PUSH3 0x42F SWAP2 PUSH1 0x4 ADD SWAP1 DUP2 MSTORE PUSH1 0x20 ADD SWAP1 JUMP JUMPDEST PUSH1 0x20 PUSH1 0x40 MLOAD DUP1 DUP4 SUB DUP2 DUP7 DUP1 EXTCODESIZE ISZERO DUP1 ISZERO PUSH3 0x448 JUMPI PUSH1 0x0 DUP1 REVERT JUMPDEST POP GAS STATICCALL ISZERO DUP1 ISZERO PUSH3 0x45D JUMPI RETURNDATASIZE PUSH1 0x0 DUP1 RETURNDATACOPY RETURNDATASIZE PUSH1 0x0 REVERT JUMPDEST POP POP POP POP PUSH1 0x40 MLOAD RETURNDATASIZE PUSH1 0x1F NOT PUSH1 0x1F DUP3 ADD AND DUP3 ADD DUP1 PUSH1 0x40 MSTORE POP DUP2 ADD SWAP1 PUSH3 0x483 SWAP2 SWAP1 PUSH3 0x6E3 JUMP JUMPDEST PUSH1 0x14 DUP1 SLOAD PUSH1 0x1 PUSH1 0x1 PUSH1 0xA0 SHL SUB NOT AND PUSH1 0x1 PUSH1 0x1 PUSH1 0xA0 SHL SUB SWAP3 SWAP1 SWAP3 AND SWAP2 SWAP1 SWAP2 OR SWAP1 SSTORE JUMPDEST PUSH1 0x15 PUSH1 0x0 SWAP1 SLOAD SWAP1 PUSH2 0x100 EXP SWAP1 DIV PUSH1 0x1 PUSH1 0x1 PUSH1 0xA0 SHL SUB AND PUSH1 0x1 PUSH1 0x1 PUSH1 0xA0 SHL SUB AND PUSH4 0x7E44D2CC PUSH1 0x40 MLOAD DUP2 PUSH4 0xFFFFFFFF AND PUSH1 0xE0 SHL DUP2 MSTORE PUSH1 0x4 ADD PUSH1 0x20 PUSH1 0x40 MLOAD DUP1 DUP4 SUB DUP2 DUP7 DUP1 EXTCODESIZE ISZERO DUP1 ISZERO PUSH3 0x4F3 JUMPI PUSH1 0x0 DUP1 REVERT JUMPDEST POP GAS STATICCALL ISZERO DUP1 ISZERO PUSH3 0x508 JUMPI RETURNDATASIZE PUSH1 0x0 DUP1 RETURNDATACOPY RETURNDATASIZE PUSH1 0x0 REVERT JUMPDEST POP POP POP POP PUSH1 0x40 MLOAD RETURNDATASIZE PUSH1 0x1F NOT PUSH1 0x1F DUP3 ADD AND DUP3 ADD DUP1 PUSH1 0x40 MSTORE POP DUP2 ADD SWAP1 PUSH3 0x52E SWAP2 SWAP1 PUSH3 0x6E3 JUMP JUMPDEST PUSH1 0x1C DUP1 SLOAD PUSH1 0x1 PUSH1 0x1 PUSH1 0xA0 SHL SUB NOT SWAP1 DUP2 AND PUSH1 0x1 PUSH1 0x1 PUSH1 0xA0 SHL SUB SWAP4 DUP5 AND OR SWAP1 SWAP2 SSTORE PUSH1 0x1D DUP1 SLOAD DUP3 AND SWAP4 DUP4 AND SWAP4 SWAP1 SWAP4 OR SWAP1 SWAP3 SSTORE PUSH1 0x16 DUP1 SLOAD SWAP1 SWAP3 AND SWAP3 AND SWAP2 SWAP1 SWAP2 OR SWAP1 SSTORE POP PUSH3 0x974 SWAP6 POP POP POP POP POP POP JUMP JUMPDEST DUP3 DUP1 SLOAD PUSH3 0x588 SWAP1 PUSH3 0x90B JUMP JUMPDEST SWAP1 PUSH1 0x0 MSTORE PUSH1 0x20 PUSH1 0x0 KECCAK256 SWAP1 PUSH1 0x1F ADD PUSH1 0x20 SWAP1 DIV DUP2 ADD SWAP3 DUP3 PUSH3 0x5AC JUMPI PUSH1 0x0 DUP6 SSTORE PUSH3 0x5F7 JUMP JUMPDEST DUP3 PUSH1 0x1F LT PUSH3 0x5C7 JUMPI DUP1 MLOAD PUSH1 0xFF NOT AND DUP4 DUP1 ADD OR DUP6 SSTORE PUSH3 0x5F7 JUMP JUMPDEST DUP3 DUP1 ADD PUSH1 0x1 ADD DUP6 SSTORE DUP3 ISZERO PUSH3 0x5F7 JUMPI SWAP2 DUP3 ADD JUMPDEST DUP3 DUP2 GT ISZERO PUSH3 0x5F7 JUMPI DUP3 MLOAD DUP3 SSTORE SWAP2 PUSH1 0x20 ADD SWAP2 SWAP1 PUSH1 0x1 ADD SWAP1 PUSH3 0x5DA JUMP JUMPDEST POP PUSH3 0x605 SWAP3 SWAP2 POP PUSH3 0x609 JUMP JUMPDEST POP SWAP1 JUMP JUMPDEST JUMPDEST DUP1 DUP3 GT ISZERO PUSH3 0x605 JUMPI PUSH1 0x0 DUP2 SSTORE PUSH1 0x1 ADD PUSH3 0x60A JUMP JUMPDEST DUP1 MLOAD PUSH1 0x1 PUSH1 0x1 PUSH1 0xA0 SHL SUB DUP2 AND DUP2 EQ PUSH3 0x638 JUMPI PUSH1 0x0 DUP1 REVERT JUMPDEST SWAP2 SWAP1 POP JUMP JUMPDEST DUP1 MLOAD DUP1 ISZERO ISZERO DUP2 EQ PUSH3 0x638 JUMPI PUSH1 0x0 DUP1 REVERT JUMPDEST PUSH1 0x0 DUP3 PUSH1 0x1F DUP4 ADD SLT PUSH3 0x660 JUMPI PUSH1 0x0 DUP1 REVERT JUMPDEST DUP2 MLOAD PUSH1 0x1 PUSH1 0x1 PUSH1 0x40 SHL SUB DUP2 GT ISZERO PUSH3 0x67C JUMPI PUSH3 0x67C PUSH3 0x95E JUMP JUMPDEST PUSH1 0x20 PUSH3 0x692 PUSH1 0x1F DUP4 ADD PUSH1 0x1F NOT AND DUP3 ADD PUSH3 0x879 JUMP JUMPDEST DUP3 DUP2 MSTORE DUP6 DUP3 DUP5 DUP8 ADD ADD GT ISZERO PUSH3 0x6A7 JUMPI PUSH1 0x0 DUP1 REVERT JUMPDEST PUSH1 0x0 JUMPDEST DUP4 DUP2 LT ISZERO PUSH3 0x6C7 JUMPI DUP6 DUP2 ADD DUP4 ADD MLOAD DUP3 DUP3 ADD DUP5 ADD MSTORE DUP3 ADD PUSH3 0x6AA JUMP JUMPDEST DUP4 DUP2 GT ISZERO PUSH3 0x6D9 JUMPI PUSH1 0x0 DUP4 DUP6 DUP5 ADD ADD MSTORE JUMPDEST POP SWAP6 SWAP5 POP POP POP POP POP JUMP JUMPDEST PUSH1 0x0 PUSH1 0x20 DUP3 DUP5 SUB SLT ISZERO PUSH3 0x6F6 JUMPI PUSH1 0x0 DUP1 REVERT JUMPDEST PUSH3 0x701 DUP3 PUSH3 0x620 JUMP JUMPDEST SWAP4 SWAP3 POP POP POP JUMP JUMPDEST PUSH1 0x0 DUP1 PUSH1 0x0 DUP1 PUSH1 0x0 DUP1 PUSH1 0x0 DUP1 PUSH1 0x0 PUSH2 0x200 DUP11 DUP13 SUB SLT ISZERO PUSH3 0x728 JUMPI PUSH1 0x0 DUP1 REVERT JUMPDEST PUSH3 0x733 DUP11 PUSH3 0x620 JUMP JUMPDEST PUSH1 0x20 DUP12 DUP2 ADD MLOAD SWAP2 SWAP11 POP SWAP1 PUSH1 0x1 PUSH1 0x1 PUSH1 0x40 SHL SUB DUP1 DUP3 GT ISZERO PUSH3 0x753 JUMPI PUSH1 0x0 DUP1 REVERT JUMPDEST PUSH3 0x761 DUP15 DUP4 DUP16 ADD PUSH3 0x64E JUMP JUMPDEST SWAP11 POP PUSH1 0x40 DUP14 ADD MLOAD SWAP2 POP DUP1 DUP3 GT ISZERO PUSH3 0x778 JUMPI PUSH1 0x0 DUP1 REVERT JUMPDEST POP PUSH3 0x787 DUP14 DUP3 DUP15 ADD PUSH3 0x64E JUMP JUMPDEST SWAP9 POP POP DUP12 PUSH1 0x7F DUP13 ADD SLT PUSH3 0x79A JUMPI PUSH1 0x0 DUP1 REVERT JUMPDEST PUSH3 0x7A4 PUSH3 0x84D JUMP JUMPDEST DUP1 PUSH1 0x60 DUP14 ADD PUSH2 0x160 DUP15 ADD DUP16 DUP2 GT ISZERO PUSH3 0x7BC JUMPI PUSH1 0x0 DUP1 REVERT JUMPDEST PUSH1 0x0 JUMPDEST PUSH1 0x8 DUP2 LT ISZERO PUSH3 0x7DE JUMPI DUP3 MLOAD DUP6 MSTORE SWAP4 DUP6 ADD SWAP4 SWAP2 DUP6 ADD SWAP2 PUSH1 0x1 ADD PUSH3 0x7BF JUMP JUMPDEST POP DUP3 SWAP11 POP PUSH3 0x7ED DUP2 PUSH3 0x63D JUMP JUMPDEST SWAP10 POP POP POP POP POP POP PUSH2 0x180 DUP11 ADD MLOAD SWAP4 POP PUSH2 0x1A0 DUP11 ADD MLOAD SWAP3 POP PUSH3 0x813 PUSH2 0x1C0 DUP12 ADD PUSH3 0x620 JUMP JUMPDEST SWAP2 POP PUSH3 0x824 PUSH2 0x1E0 DUP12 ADD PUSH3 0x620 JUMP JUMPDEST SWAP1 POP SWAP3 SWAP6 SWAP9 POP SWAP3 SWAP6 SWAP9 POP SWAP3 SWAP6 SWAP9 JUMP JUMPDEST PUSH1 0x0 PUSH1 0x20 DUP3 DUP5 SUB SLT ISZERO PUSH3 0x846 JUMPI PUSH1 0x0 DUP1 REVERT JUMPDEST POP MLOAD SWAP2 SWAP1 POP JUMP JUMPDEST PUSH1 0x40 MLOAD PUSH2 0x100 DUP2 ADD PUSH1 0x1 PUSH1 0x1 PUSH1 0x40 SHL SUB DUP2 GT DUP3 DUP3 LT OR ISZERO PUSH3 0x873 JUMPI PUSH3 0x873 PUSH3 0x95E JUMP JUMPDEST PUSH1 0x40 MSTORE SWAP1 JUMP JUMPDEST PUSH1 0x40 MLOAD PUSH1 0x1F DUP3 ADD PUSH1 0x1F NOT AND DUP2 ADD PUSH1 0x1 PUSH1 0x1 PUSH1 0x40 SHL SUB DUP2 GT DUP3 DUP3 LT OR ISZERO PUSH3 0x8A4 JUMPI PUSH3 0x8A4 PUSH3 0x95E JUMP JUMPDEST PUSH1 0x40 MSTORE SWAP2 SWAP1 POP JUMP JUMPDEST PUSH1 0x0 DUP3 PUSH3 0x8CA JUMPI PUSH4 0x4E487B71 PUSH1 0xE0 SHL PUSH1 0x0 MSTORE PUSH1 0x12 PUSH1 0x4 MSTORE PUSH1 0x24 PUSH1 0x0 REVERT JUMPDEST POP DIV SWAP1 JUMP JUMPDEST PUSH1 0x0 DUP2 PUSH1 0x0 NOT DIV DUP4 GT DUP3 ISZERO ISZERO AND ISZERO PUSH3 0x8EC JUMPI PUSH3 0x8EC PUSH3 0x948 JUMP JUMPDEST POP MUL SWAP1 JUMP JUMPDEST PUSH1 0x0 DUP3 DUP3 LT ISZERO PUSH3 0x906 JUMPI PUSH3 0x906 PUSH3 0x948 JUMP JUMPDEST POP SUB SWAP1 JUMP JUMPDEST PUSH1 0x1 DUP2 DUP2 SHR SWAP1 DUP3 AND DUP1 PUSH3 0x920 JUMPI PUSH1 0x7F DUP3 AND SWAP2 POP JUMPDEST PUSH1 0x20 DUP3 LT DUP2 EQ ISZERO PUSH3 0x942 JUMPI PUSH4 0x4E487B71 PUSH1 0xE0 SHL PUSH1 0x0 MSTORE PUSH1 0x22 PUSH1 0x4 MSTORE PUSH1 0x24 PUSH1 0x0 REVERT JUMPDEST POP SWAP2 SWAP1 POP JUMP JUMPDEST PUSH4 0x4E487B71 PUSH1 0xE0 SHL PUSH1 0x0 MSTORE PUSH1 0x11 PUSH1 0x4 MSTORE PUSH1 0x24 PUSH1 0x0 REVERT JUMPDEST PUSH4 0x4E487B71 PUSH1 0xE0 SHL PUSH1 0x0 MSTORE PUSH1 0x41 PUSH1 0x4 MSTORE PUSH1 0x24 PUSH1 0x0 REVERT JUMPDEST PUSH2 0x2187 DUP1 PUSH3 0x984 PUSH1 0x0 CODECOPY PUSH1 0x0 RETURN INVALID PUSH1 0x80 PUSH1 0x40 MSTORE PUSH1 0x4 CALLDATASIZE LT PUSH2 0x313 JUMPI PUSH1 0x0 CALLDATALOAD PUSH1 0xE0 SHR DUP1 PUSH4 0x8F5D036B GT PUSH2 0x19A JUMPI DUP1 PUSH4 0xC7BF5166 GT PUSH2 0xE1 JUMPI DUP1 PUSH4 0xE49DCE66 GT PUSH2 0x8A JUMPI DUP1 PUSH4 0xF887EA40 GT PUSH2 0x64 JUMPI DUP1 PUSH4 0xF887EA40 EQ PUSH2 0x803 JUMPI DUP1 PUSH4 0xF89BE593 EQ PUSH2 0x823 JUMPI DUP1 PUSH4 0xFC0C546A EQ PUSH2 0x839 JUMPI PUSH1 0x0 DUP1 REVERT JUMPDEST DUP1 PUSH4 0xE49DCE66 EQ PUSH2 0x7AD JUMPI DUP1 PUSH4 0xEA44C1BC EQ PUSH2 0x7CD JUMPI DUP1 PUSH4 0xEE97F7F3 EQ PUSH2 0x7E3 JUMPI PUSH1 0x0 DUP1 REVERT JUMPDEST DUP1 PUSH4 0xD4B9DE51 GT PUSH2 0xBB JUMPI DUP1 PUSH4 0xD4B9DE51 EQ PUSH2 0x767 JUMPI DUP1 PUSH4 0xDA2CBD50 EQ PUSH2 0x781 JUMPI DUP1 PUSH4 0xDE284B3A EQ PUSH2 0x797 JUMPI PUSH1 0x0 DUP1 REVERT JUMPDEST DUP1 PUSH4 0xC7BF5166 EQ PUSH2 0x726 JUMPI DUP1 PUSH4 0xC84C0387 EQ PUSH2 0x73C JUMPI DUP1 PUSH4 0xD132A8F4 EQ PUSH2 0x752 JUMPI PUSH1 0x0 DUP1 REVERT JUMPDEST DUP1 PUSH4 0xA7BB5803 GT PUSH2 0x143 JUMPI DUP1 PUSH4 0xBCA1DA85 GT PUSH2 0x11D JUMPI DUP1 PUSH4 0xBCA1DA85 EQ PUSH2 0x6D0 JUMPI DUP1 PUSH4 0xBE9FEB30 EQ PUSH2 0x6F0 JUMPI DUP1 PUSH4 0xC45A0155 EQ PUSH2 0x706 JUMPI PUSH1 0x0 DUP1 REVERT JUMPDEST DUP1 PUSH4 0xA7BB5803 EQ PUSH2 0x666 JUMPI DUP1 PUSH4 0xABA83150 EQ PUSH2 0x6A5 JUMPI DUP1 PUSH4 0xB071CBE6 EQ PUSH2 0x6BA JUMPI PUSH1 0x0 DUP1 REVERT JUMPDEST DUP1 PUSH4 0xA0F7AB35 GT PUSH2 0x174 JUMPI DUP1 PUSH4 0xA0F7AB35 EQ PUSH2 0x620 JUMPI DUP1 PUSH4 0xA5F0DEA2 EQ PUSH2 0x636 JUMPI DUP1 PUSH4 0xA611DC37 EQ PUSH2 0x650 JUMPI PUSH1 0x0 DUP1 REVERT JUMPDEST DUP1 PUSH4 0x8F5D036B EQ PUSH2 0x5E4 JUMPI DUP1 PUSH4 0x957F1474 EQ PUSH2 0x5F9 JUMPI DUP1 PUSH4 0x9B8906AE EQ PUSH2 0x601 JUMPI PUSH1 0x0 DUP1 REVERT JUMPDEST DUP1 PUSH4 0x51FB012D GT PUSH2 0x25E JUMPI DUP1 PUSH4 0x6B7F3DF3 GT PUSH2 0x207 JUMPI DUP1 PUSH4 0x78E97925 GT PUSH2 0x1E1 JUMPI DUP1 PUSH4 0x78E97925 EQ PUSH2 0x599 JUMPI DUP1 PUSH4 0x83B17FDD EQ PUSH2 0x5AF JUMPI DUP1 PUSH4 0x85BF4946 EQ PUSH2 0x5C5 JUMPI PUSH1 0x0 DUP1 REVERT JUMPDEST DUP1 PUSH4 0x6B7F3DF3 EQ PUSH2 0x534 JUMPI DUP1 PUSH4 0x6EF2E4D3 EQ PUSH2 0x561 JUMPI DUP1 PUSH4 0x7284E416 EQ PUSH2 0x577 JUMPI PUSH1 0x0 DUP1 REVERT JUMPDEST DUP1 PUSH4 0x5C975ABB GT PUSH2 0x238 JUMPI DUP1 PUSH4 0x5C975ABB EQ PUSH2 0x4DC JUMPI DUP1 PUSH4 0x64DB812E EQ PUSH2 0x4F4 JUMPI DUP1 PUSH4 0x66D003AC EQ PUSH2 0x514 JUMPI PUSH1 0x0 DUP1 REVERT JUMPDEST DUP1 PUSH4 0x51FB012D EQ PUSH2 0x484 JUMPI DUP1 PUSH4 0x58A687EC EQ PUSH2 0x4B4 JUMPI DUP1 PUSH4 0x59663174 EQ PUSH2 0x4C9 JUMPI PUSH1 0x0 DUP1 REVERT JUMPDEST DUP1 PUSH4 0x27A72C96 GT PUSH2 0x2C0 JUMPI DUP1 PUSH4 0x3C876081 GT PUSH2 0x29A JUMPI DUP1 PUSH4 0x3C876081 EQ PUSH2 0x424 JUMPI DUP1 PUSH4 0x48C54B9D EQ PUSH2 0x459 JUMPI DUP1 PUSH4 0x4AE01D52 EQ PUSH2 0x46E JUMPI PUSH1 0x0 DUP1 REVERT JUMPDEST DUP1 PUSH4 0x27A72C96 EQ PUSH2 0x3D1 JUMPI DUP1 PUSH4 0x27C8F835 EQ PUSH2 0x3E7 JUMPI DUP1 PUSH4 0x3197CBB6 EQ PUSH2 0x40E JUMPI PUSH1 0x0 DUP1 REVERT JUMPDEST DUP1 PUSH4 0x12E409C5 GT PUSH2 0x2F1 JUMPI DUP1 PUSH4 0x12E409C5 EQ PUSH2 0x36E JUMPI DUP1 PUSH4 0x201A3419 EQ PUSH2 0x384 JUMPI DUP1 PUSH4 0x238AC933 EQ PUSH2 0x399 JUMPI PUSH1 0x0 DUP1 REVERT JUMPDEST DUP1 PUSH4 0x17F6FAE EQ PUSH2 0x318 JUMPI DUP1 PUSH4 0x39CE157 EQ PUSH2 0x341 JUMPI DUP1 PUSH4 0x3BCF11D EQ PUSH2 0x357 JUMPI JUMPDEST PUSH1 0x0 DUP1 REVERT JUMPDEST CALLVALUE DUP1 ISZERO PUSH2 0x324 JUMPI PUSH1 0x0 DUP1 REVERT JUMPDEST POP PUSH2 0x32E PUSH1 0x7 SLOAD DUP2 JUMP JUMPDEST PUSH1 0x40 MLOAD SWAP1 DUP2 MSTORE PUSH1 0x20 ADD JUMPDEST PUSH1 0x40 MLOAD DUP1 SWAP2 SUB SWAP1 RETURN JUMPDEST CALLVALUE DUP1 ISZERO PUSH2 0x34D JUMPI PUSH1 0x0 DUP1 REVERT JUMPDEST POP PUSH2 0x32E PUSH1 0x11 SLOAD DUP2 JUMP JUMPDEST CALLVALUE DUP1 ISZERO PUSH2 0x363 JUMPI PUSH1 0x0 DUP1 REVERT JUMPDEST POP PUSH2 0x36C PUSH2 0x859 JUMP JUMPDEST STOP JUMPDEST CALLVALUE DUP1 ISZERO PUSH2 0x37A JUMPI PUSH1 0x0 DUP1 REVERT JUMPDEST POP PUSH2 0x32E PUSH1 0x10 SLOAD DUP2 JUMP JUMPDEST CALLVALUE DUP1 ISZERO PUSH2 0x390 JUMPI PUSH1 0x0 DUP1 REVERT JUMPDEST POP PUSH2 0x36C PUSH2 0x97C JUMP JUMPDEST CALLVALUE DUP1 ISZERO PUSH2 0x3A5 JUMPI PUSH1 0x0 DUP1 REVERT JUMPDEST POP PUSH1 0x14 SLOAD PUSH2 0x3B9 SWAP1 PUSH1 0x1 PUSH1 0x1 PUSH1 0xA0 SHL SUB AND DUP2 JUMP JUMPDEST PUSH1 0x40 MLOAD PUSH1 0x1 PUSH1 0x1 PUSH1 0xA0 SHL SUB SWAP1 SWAP2 AND DUP2 MSTORE PUSH1 0x20 ADD PUSH2 0x338 JUMP JUMPDEST CALLVALUE DUP1 ISZERO PUSH2 0x3DD JUMPI PUSH1 0x0 DUP1 REVERT JUMPDEST POP PUSH2 0x32E PUSH1 0xE SLOAD DUP2 JUMP JUMPDEST CALLVALUE DUP1 ISZERO PUSH2 0x3F3 JUMPI PUSH1 0x0 DUP1 REVERT JUMPDEST POP PUSH1 0x13 SLOAD PUSH2 0x3B9 SWAP1 PUSH4 0x1000000 SWAP1 DIV PUSH1 0x1 PUSH1 0x1 PUSH1 0xA0 SHL SUB AND DUP2 JUMP JUMPDEST CALLVALUE DUP1 ISZERO PUSH2 0x41A JUMPI PUSH1 0x0 DUP1 REVERT JUMPDEST POP PUSH2 0x32E PUSH1 0x9 SLOAD DUP2 JUMP JUMPDEST CALLVALUE DUP1 ISZERO PUSH2 0x430 JUMPI PUSH1 0x0 DUP1 REVERT JUMPDEST POP PUSH2 0x3B9 PUSH2 0x43F CALLDATASIZE PUSH1 0x4 PUSH2 0x1EDE JUMP JUMPDEST PUSH1 0x20 DUP1 MSTORE PUSH1 0x0 SWAP1 DUP2 MSTORE PUSH1 0x40 SWAP1 KECCAK256 SLOAD PUSH1 0x1 PUSH1 0x1 PUSH1 0xA0 SHL SUB AND DUP2 JUMP JUMPDEST CALLVALUE DUP1 ISZERO PUSH2 0x465 JUMPI PUSH1 0x0 DUP1 REVERT JUMPDEST POP PUSH2 0x36C PUSH2 0xE76 JUMP JUMPDEST CALLVALUE DUP1 ISZERO PUSH2 0x47A JUMPI PUSH1 0x0 DUP1 REVERT JUMPDEST POP PUSH2 0x32E PUSH1 0xC SLOAD DUP2 JUMP JUMPDEST CALLVALUE DUP1 ISZERO PUSH2 0x490 JUMPI PUSH1 0x0 DUP1 REVERT JUMPDEST POP PUSH1 0x13 SLOAD PUSH2 0x4A4 SWAP1 PUSH3 0x10000 SWAP1 DIV PUSH1 0xFF AND DUP2 JUMP JUMPDEST PUSH1 0x40 MLOAD SWAP1 ISZERO ISZERO DUP2 MSTORE PUSH1 0x20 ADD PUSH2 0x338 JUMP JUMPDEST CALLVALUE DUP1 ISZERO PUSH2 0x4C0 JUMPI PUSH1 0x0 DUP1 REVERT JUMPDEST POP PUSH2 0x36C PUSH2 0x1106 JUMP JUMPDEST PUSH2 0x36C PUSH2 0x4D7 CALLDATASIZE PUSH1 0x4 PUSH2 0x1F41 JUMP JUMPDEST PUSH2 0x12AD JUMP JUMPDEST CALLVALUE DUP1 ISZERO PUSH2 0x4E8 JUMPI PUSH1 0x0 DUP1 REVERT JUMPDEST POP PUSH1 0x1 SLOAD PUSH1 0xFF AND PUSH2 0x4A4 JUMP JUMPDEST CALLVALUE DUP1 ISZERO PUSH2 0x500 JUMPI PUSH1 0x0 DUP1 REVERT JUMPDEST POP PUSH1 0x1F SLOAD PUSH2 0x4A4 SWAP1 PUSH3 0x10000 SWAP1 DIV PUSH1 0xFF AND DUP2 JUMP JUMPDEST CALLVALUE DUP1 ISZERO PUSH2 0x520 JUMPI PUSH1 0x0 DUP1 REVERT JUMPDEST POP PUSH1 0x1C SLOAD PUSH2 0x3B9 SWAP1 PUSH1 0x1 PUSH1 0x1 PUSH1 0xA0 SHL SUB AND DUP2 JUMP JUMPDEST CALLVALUE DUP1 ISZERO PUSH2 0x540 JUMPI PUSH1 0x0 DUP1 REVERT JUMPDEST POP PUSH2 0x32E PUSH2 0x54F CALLDATASIZE PUSH1 0x4 PUSH2 0x1EDE JUMP JUMPDEST PUSH1 0x21 PUSH1 0x20 MSTORE PUSH1 0x0 SWAP1 DUP2 MSTORE PUSH1 0x40 SWAP1 KECCAK256 SLOAD DUP2 JUMP JUMPDEST CALLVALUE DUP1 ISZERO PUSH2 0x56D JUMPI PUSH1 0x0 DUP1 REVERT JUMPDEST POP PUSH2 0x32E PUSH1 0x12 SLOAD DUP2 JUMP JUMPDEST CALLVALUE DUP1 ISZERO PUSH2 0x583 JUMPI PUSH1 0x0 DUP1 REVERT JUMPDEST POP PUSH2 0x58C PUSH2 0x169A JUMP JUMPDEST PUSH1 0x40 MLOAD PUSH2 0x338 SWAP2 SWAP1 PUSH2 0x2024 JUMP JUMPDEST CALLVALUE DUP1 ISZERO PUSH2 0x5A5 JUMPI PUSH1 0x0 DUP1 REVERT JUMPDEST POP PUSH2 0x32E PUSH1 0x8 SLOAD DUP2 JUMP JUMPDEST CALLVALUE DUP1 ISZERO PUSH2 0x5BB JUMPI PUSH1 0x0 DUP1 REVERT JUMPDEST POP PUSH2 0x32E PUSH1 0x2 SLOAD DUP2 JUMP JUMPDEST CALLVALUE DUP1 ISZERO PUSH2 0x5D1 JUMPI PUSH1 0x0 DUP1 REVERT JUMPDEST POP PUSH1 0x13 SLOAD PUSH2 0x4A4 SWAP1 PUSH2 0x100 SWAP1 DIV PUSH1 0xFF AND DUP2 JUMP JUMPDEST CALLVALUE DUP1 ISZERO PUSH2 0x5F0 JUMPI PUSH1 0x0 DUP1 REVERT JUMPDEST POP PUSH2 0x36C PUSH2 0x1728 JUMP JUMPDEST PUSH2 0x36C PUSH2 0x1853 JUMP JUMPDEST CALLVALUE DUP1 ISZERO PUSH2 0x60D JUMPI PUSH1 0x0 DUP1 REVERT JUMPDEST POP PUSH1 0x1F SLOAD PUSH2 0x4A4 SWAP1 PUSH2 0x100 SWAP1 DIV PUSH1 0xFF AND DUP2 JUMP JUMPDEST CALLVALUE DUP1 ISZERO PUSH2 0x62C JUMPI PUSH1 0x0 DUP1 REVERT JUMPDEST POP PUSH2 0x32E PUSH1 0x3 SLOAD DUP2 JUMP JUMPDEST CALLVALUE DUP1 ISZERO PUSH2 0x642 JUMPI PUSH1 0x0 DUP1 REVERT JUMPDEST POP PUSH1 0x1F SLOAD PUSH2 0x4A4 SWAP1 PUSH1 0xFF AND DUP2 JUMP JUMPDEST CALLVALUE DUP1 ISZERO PUSH2 0x65C JUMPI PUSH1 0x0 DUP1 REVERT JUMPDEST POP PUSH2 0x32E PUSH1 0x4 SLOAD DUP2 JUMP JUMPDEST CALLVALUE DUP1 ISZERO PUSH2 0x672 JUMPI PUSH1 0x0 DUP1 REVERT JUMPDEST POP PUSH2 0x686 PUSH2 0x681 CALLDATASIZE PUSH1 0x4 PUSH2 0x1F41 JUMP JUMPDEST PUSH2 0x1C28 JUMP JUMPDEST PUSH1 0x40 DUP1 MLOAD PUSH1 0xFF SWAP1 SWAP5 AND DUP5 MSTORE PUSH1 0x20 DUP5 ADD SWAP3 SWAP1 SWAP3 MSTORE SWAP1 DUP3 ADD MSTORE PUSH1 0x60 ADD PUSH2 0x338 JUMP JUMPDEST CALLVALUE DUP1 ISZERO PUSH2 0x6B1 JUMPI PUSH1 0x0 DUP1 REVERT JUMPDEST POP PUSH2 0x58C PUSH2 0x1C57 JUMP JUMPDEST CALLVALUE DUP1 ISZERO PUSH2 0x6C6 JUMPI PUSH1 0x0 DUP1 REVERT JUMPDEST POP PUSH2 0x32E PUSH1 0x5 SLOAD DUP2 JUMP JUMPDEST CALLVALUE DUP1 ISZERO PUSH2 0x6DC JUMPI PUSH1 0x0 DUP1 REVERT JUMPDEST POP PUSH1 0x1D SLOAD PUSH2 0x3B9 SWAP1 PUSH1 0x1 PUSH1 0x1 PUSH1 0xA0 SHL SUB AND DUP2 JUMP JUMPDEST CALLVALUE DUP1 ISZERO PUSH2 0x6FC JUMPI PUSH1 0x0 DUP1 REVERT JUMPDEST POP PUSH2 0x32E PUSH1 0xA SLOAD DUP2 JUMP JUMPDEST CALLVALUE DUP1 ISZERO PUSH2 0x712 JUMPI PUSH1 0x0 DUP1 REVERT JUMPDEST POP PUSH1 0x17 SLOAD PUSH2 0x3B9 SWAP1 PUSH1 0x1 PUSH1 0x1 PUSH1 0xA0 SHL SUB AND DUP2 JUMP JUMPDEST CALLVALUE DUP1 ISZERO PUSH2 0x732 JUMPI PUSH1 0x0 DUP1 REVERT JUMPDEST POP PUSH2 0x32E PUSH1 0xB SLOAD DUP2 JUMP JUMPDEST CALLVALUE DUP1 ISZERO PUSH2 0x748 JUMPI PUSH1 0x0 DUP1 REVERT JUMPDEST POP PUSH2 0x32E PUSH1 0x19 SLOAD DUP2 JUMP JUMPDEST CALLVALUE DUP1 ISZERO PUSH2 0x75E JUMPI PUSH1 0x0 DUP1 REVERT JUMPDEST POP PUSH2 0x32E PUSH2 0x1C64 JUMP JUMPDEST CALLVALUE DUP1 ISZERO PUSH2 0x773 JUMPI PUSH1 0x0 DUP1 REVERT JUMPDEST POP PUSH1 0x13 SLOAD PUSH2 0x4A4 SWAP1 PUSH1 0xFF AND DUP2 JUMP JUMPDEST CALLVALUE DUP1 ISZERO PUSH2 0x78D JUMPI PUSH1 0x0 DUP1 REVERT JUMPDEST POP PUSH2 0x32E PUSH1 0x1E SLOAD DUP2 JUMP JUMPDEST CALLVALUE DUP1 ISZERO PUSH2 0x7A3 JUMPI PUSH1 0x0 DUP1 REVERT JUMPDEST POP PUSH2 0x32E PUSH1 0xF SLOAD DUP2 JUMP JUMPDEST CALLVALUE DUP1 ISZERO PUSH2 0x7B9 JUMPI PUSH1 0x0 DUP1 REVERT JUMPDEST POP PUSH2 0x4A4 PUSH2 0x7C8 CALLDATASIZE PUSH1 0x4 PUSH2 0x1F7E JUMP JUMPDEST PUSH2 0x1C7B JUMP JUMPDEST CALLVALUE DUP1 ISZERO PUSH2 0x7D9 JUMPI PUSH1 0x0 DUP1 REVERT JUMPDEST POP PUSH2 0x32E PUSH1 0xD SLOAD DUP2 JUMP JUMPDEST CALLVALUE DUP1 ISZERO PUSH2 0x7EF JUMPI PUSH1 0x0 DUP1 REVERT JUMPDEST POP PUSH1 0x15 SLOAD PUSH2 0x3B9 SWAP1 PUSH1 0x1 PUSH1 0x1 PUSH1 0xA0 SHL SUB AND DUP2 JUMP JUMPDEST CALLVALUE DUP1 ISZERO PUSH2 0x80F JUMPI PUSH1 0x0 DUP1 REVERT JUMPDEST POP PUSH1 0x16 SLOAD PUSH2 0x3B9 SWAP1 PUSH1 0x1 PUSH1 0x1 PUSH1 0xA0 SHL SUB AND DUP2 JUMP JUMPDEST CALLVALUE DUP1 ISZERO PUSH2 0x82F JUMPI PUSH1 0x0 DUP1 REVERT JUMPDEST POP PUSH2 0x32E PUSH1 0x6 SLOAD DUP2 JUMP JUMPDEST CALLVALUE DUP1 ISZERO PUSH2 0x845 JUMPI PUSH1 0x0 DUP1 REVERT JUMPDEST POP PUSH1 0x18 SLOAD PUSH2 0x3B9 SWAP1 PUSH1 0x1 PUSH1 0x1 PUSH1 0xA0 SHL SUB AND DUP2 JUMP JUMPDEST PUSH1 0x1D SLOAD PUSH1 0x1 PUSH1 0x1 PUSH1 0xA0 SHL SUB AND CALLER EQ PUSH2 0x8B8 JUMPI PUSH1 0x40 MLOAD PUSH3 0x461BCD PUSH1 0xE5 SHL DUP2 MSTORE PUSH1 0x20 PUSH1 0x4 DUP3 ADD MSTORE PUSH1 0x1B PUSH1 0x24 DUP3 ADD MSTORE PUSH32 0x63616C6C6572206973206E6F742074686520696E69746961746F720000000000 PUSH1 0x44 DUP3 ADD MSTORE PUSH1 0x64 ADD JUMPDEST PUSH1 0x40 MLOAD DUP1 SWAP2 SUB SWAP1 REVERT JUMPDEST PUSH1 0x1F SLOAD PUSH2 0x100 SWAP1 DIV PUSH1 0xFF AND ISZERO PUSH2 0x910 JUMPI PUSH1 0x40 MLOAD PUSH3 0x461BCD PUSH1 0xE5 SHL DUP2 MSTORE PUSH1 0x20 PUSH1 0x4 DUP3 ADD MSTORE PUSH1 0x1C PUSH1 0x24 DUP3 ADD MSTORE PUSH32 0x636C61696D696E672068617320616C7265616479207374617274656400000000 PUSH1 0x44 DUP3 ADD MSTORE PUSH1 0x64 ADD PUSH2 0x8AF JUMP JUMPDEST PUSH1 0x1F SLOAD PUSH3 0x10000 SWAP1 DIV PUSH1 0xFF AND ISZERO PUSH2 0x969 JUMPI PUSH1 0x40 MLOAD PUSH3 0x461BCD PUSH1 0xE5 SHL DUP2 MSTORE PUSH1 0x20 PUSH1 0x4 DUP3 ADD MSTORE PUSH1 0x14 PUSH1 0x24 DUP3 ADD MSTORE PUSH32 0x73616C6520616C72656164792061626F72746564000000000000000000000000 PUSH1 0x44 DUP3 ADD MSTORE PUSH1 0x64 ADD PUSH2 0x8AF JUMP JUMPDEST PUSH1 0x1F DUP1 SLOAD PUSH3 0xFF0000 NOT AND PUSH3 0x10000 OR SWAP1 SSTORE JUMP JUMPDEST PUSH1 0x1D SLOAD PUSH1 0x1 PUSH1 0x1 PUSH1 0xA0 SHL SUB AND CALLER EQ PUSH2 0x9D6 JUMPI PUSH1 0x40 MLOAD PUSH3 0x461BCD PUSH1 0xE5 SHL DUP2 MSTORE PUSH1 0x20 PUSH1 0x4 DUP3 ADD MSTORE PUSH1 0x1B PUSH1 0x24 DUP3 ADD MSTORE PUSH32 0x63616C6C6572206973206E6F742074686520696E69746961746F720000000000 PUSH1 0x44 DUP3 ADD MSTORE PUSH1 0x64 ADD PUSH2 0x8AF JUMP JUMPDEST PUSH1 0x2 PUSH1 0x0 SLOAD EQ ISZERO PUSH2 0xA29 JUMPI PUSH1 0x40 MLOAD PUSH3 0x461BCD PUSH1 0xE5 SHL DUP2 MSTORE PUSH1 0x20 PUSH1 0x4 DUP3 ADD MSTORE PUSH1 0x1F PUSH1 0x24 DUP3 ADD MSTORE PUSH32 0x5265656E7472616E637947756172643A207265656E7472616E742063616C6C00 PUSH1 0x44 DUP3 ADD MSTORE PUSH1 0x64 ADD PUSH2 0x8AF JUMP JUMPDEST PUSH1 0x2 PUSH1 0x0 SSTORE PUSH1 0x1F SLOAD PUSH3 0x10000 SWAP1 DIV PUSH1 0xFF AND ISZERO PUSH2 0xA7A JUMPI PUSH1 0x40 MLOAD PUSH3 0x461BCD PUSH1 0xE5 SHL DUP2 MSTORE PUSH1 0x20 PUSH1 0x4 DUP3 ADD MSTORE PUSH1 0x10 PUSH1 0x24 DUP3 ADD MSTORE PUSH16 0x1CD85B19481DD85CC818589BDC9D1959 PUSH1 0x82 SHL PUSH1 0x44 DUP3 ADD MSTORE PUSH1 0x64 ADD PUSH2 0x8AF JUMP JUMPDEST PUSH1 0x1F SLOAD PUSH1 0xFF AND PUSH2 0xACC JUMPI PUSH1 0x40 MLOAD PUSH3 0x461BCD PUSH1 0xE5 SHL DUP2 MSTORE PUSH1 0x20 PUSH1 0x4 DUP3 ADD MSTORE PUSH1 0x15 PUSH1 0x24 DUP3 ADD MSTORE PUSH32 0x73616C65207761736E27742066696E616C697A65640000000000000000000000 PUSH1 0x44 DUP3 ADD MSTORE PUSH1 0x64 ADD PUSH2 0x8AF JUMP JUMPDEST PUSH1 0x6 SLOAD PUSH1 0x1E SLOAD GT PUSH2 0xB1F JUMPI PUSH1 0x40 MLOAD PUSH3 0x461BCD PUSH1 0xE5 SHL DUP2 MSTORE PUSH1 0x20 PUSH1 0x4 DUP3 ADD MSTORE PUSH1 0x1B PUSH1 0x24 DUP3 ADD MSTORE PUSH32 0x6E6F7420656E6F75676820746F6B656E73207765726520736F6C640000000000 PUSH1 0x44 DUP3 ADD MSTORE PUSH1 0x64 ADD PUSH2 0x8AF JUMP JUMPDEST PUSH1 0x1F SLOAD PUSH2 0x100 SWAP1 DIV PUSH1 0xFF AND ISZERO PUSH2 0xB77 JUMPI PUSH1 0x40 MLOAD PUSH3 0x461BCD PUSH1 0xE5 SHL DUP2 MSTORE PUSH1 0x20 PUSH1 0x4 DUP3 ADD MSTORE PUSH1 0x16 PUSH1 0x24 DUP3 ADD MSTORE PUSH32 0x73616C652077617320616C726561647920656E64656400000000000000000000 PUSH1 0x44 DUP3 ADD MSTORE PUSH1 0x64 ADD PUSH2 0x8AF JUMP JUMPDEST PUSH1 0x1F DUP1 SLOAD PUSH2 0xFF00 NOT AND PUSH2 0x100 OR SWAP1 SSTORE PUSH1 0x3 SLOAD PUSH1 0x0 SWAP1 PUSH2 0xB94 PUSH2 0x1C64 JUMP JUMPDEST PUSH2 0xB9E SWAP2 SWAP1 PUSH2 0x2091 JUMP JUMPDEST SWAP1 POP PUSH1 0x0 PUSH1 0x5 SLOAD PUSH1 0x1E SLOAD PUSH1 0x12 SLOAD PUSH2 0xBB5 SWAP2 SWAP1 PUSH2 0x20B3 JUMP JUMPDEST PUSH2 0xBBF SWAP2 SWAP1 PUSH2 0x2091 JUMP JUMPDEST PUSH1 0x18 SLOAD PUSH1 0x16 SLOAD PUSH1 0x40 MLOAD PUSH4 0x95EA7B3 PUSH1 0xE0 SHL DUP2 MSTORE PUSH1 0x1 PUSH1 0x1 PUSH1 0xA0 SHL SUB SWAP2 DUP3 AND PUSH1 0x4 DUP3 ADD MSTORE PUSH1 0x24 DUP2 ADD DUP5 SWAP1 MSTORE SWAP3 SWAP4 POP AND SWAP1 PUSH4 0x95EA7B3 SWAP1 PUSH1 0x44 ADD PUSH1 0x20 PUSH1 0x40 MLOAD DUP1 DUP4 SUB DUP2 PUSH1 0x0 DUP8 DUP1 EXTCODESIZE ISZERO DUP1 ISZERO PUSH2 0xC11 JUMPI PUSH1 0x0 DUP1 REVERT JUMPDEST POP GAS CALL ISZERO DUP1 ISZERO PUSH2 0xC25 JUMPI RETURNDATASIZE PUSH1 0x0 DUP1 RETURNDATACOPY RETURNDATASIZE PUSH1 0x0 REVERT JUMPDEST POP POP POP POP PUSH1 0x40 MLOAD RETURNDATASIZE PUSH1 0x1F NOT PUSH1 0x1F DUP3 ADD AND DUP3 ADD DUP1 PUSH1 0x40 MSTORE POP DUP2 ADD SWAP1 PUSH2 0xC49 SWAP2 SWAP1 PUSH2 0x1F1F JUMP JUMPDEST POP PUSH1 0x16 SLOAD PUSH1 0x18 SLOAD PUSH1 0x1 PUSH1 0x1 PUSH1 0xA0 SHL SUB SWAP2 DUP3 AND SWAP2 PUSH4 0xF305D719 SWAP2 DUP6 SWAP2 AND DUP5 PUSH1 0x0 DUP1 ADDRESS PUSH2 0xC76 TIMESTAMP PUSH2 0x3E8 PUSH2 0x2079 JUMP JUMPDEST PUSH1 0x40 MLOAD PUSH1 0xE0 DUP10 SWAP1 SHL PUSH32 0xFFFFFFFF00000000000000000000000000000000000000000000000000000000 AND DUP2 MSTORE PUSH1 0x1 PUSH1 0x1 PUSH1 0xA0 SHL SUB SWAP7 DUP8 AND PUSH1 0x4 DUP3 ADD MSTORE PUSH1 0x24 DUP2 ADD SWAP6 SWAP1 SWAP6 MSTORE PUSH1 0x44 DUP6 ADD SWAP4 SWAP1 SWAP4 MSTORE PUSH1 0x64 DUP5 ADD SWAP2 SWAP1 SWAP2 MSTORE SWAP1 SWAP3 AND PUSH1 0x84 DUP3 ADD MSTORE PUSH1 0xA4 DUP2 ADD SWAP2 SWAP1 SWAP2 MSTORE PUSH1 0xC4 ADD PUSH1 0x60 PUSH1 0x40 MLOAD DUP1 DUP4 SUB DUP2 DUP6 DUP9 DUP1 EXTCODESIZE ISZERO DUP1 ISZERO PUSH2 0xCF6 JUMPI PUSH1 0x0 DUP1 REVERT JUMPDEST POP GAS CALL ISZERO DUP1 ISZERO PUSH2 0xD0A JUMPI RETURNDATASIZE PUSH1 0x0 DUP1 RETURNDATACOPY RETURNDATASIZE PUSH1 0x0 REVERT JUMPDEST POP POP POP POP POP PUSH1 0x40 MLOAD RETURNDATASIZE PUSH1 0x1F NOT PUSH1 0x1F DUP3 ADD AND DUP3 ADD DUP1 PUSH1 0x40 MSTORE POP DUP2 ADD SWAP1 PUSH2 0xD2F SWAP2 SWAP1 PUSH2 0x1FF6 JUMP JUMPDEST POP POP PUSH1 0x15 SLOAD PUSH1 0x40 DUP1 MLOAD PUSH4 0x1F9134B3 PUSH1 0xE2 SHL DUP2 MSTORE SWAP1 MLOAD PUSH1 0x1 PUSH1 0x1 PUSH1 0xA0 SHL SUB SWAP1 SWAP3 AND SWAP3 POP PUSH4 0x7E44D2CC SWAP2 PUSH1 0x4 DUP1 DUP4 ADD SWAP3 PUSH1 0x20 SWAP3 SWAP2 SWAP1 DUP3 SWAP1 SUB ADD DUP2 DUP7 DUP1 EXTCODESIZE ISZERO DUP1 ISZERO PUSH2 0xD76 JUMPI PUSH1 0x0 DUP1 REVERT JUMPDEST POP GAS STATICCALL ISZERO DUP1 ISZERO PUSH2 0xD8A JUMPI RETURNDATASIZE PUSH1 0x0 DUP1 RETURNDATACOPY RETURNDATASIZE PUSH1 0x0 REVERT JUMPDEST POP POP POP POP PUSH1 0x40 MLOAD RETURNDATASIZE PUSH1 0x1F NOT PUSH1 0x1F DUP3 ADD AND DUP3 ADD DUP1 PUSH1 0x40 MSTORE POP DUP2 ADD SWAP1 PUSH2 0xDAE SWAP2 SWAP1 PUSH2 0x1F02 JUMP JUMPDEST PUSH1 0x1 PUSH1 0x1 PUSH1 0xA0 SHL SUB AND PUSH2 0x2710 PUSH1 0x7 SLOAD PUSH1 0x1E SLOAD PUSH2 0xDCA SWAP2 SWAP1 PUSH2 0x20B3 JUMP JUMPDEST PUSH2 0xDD4 SWAP2 SWAP1 PUSH2 0x2091 JUMP JUMPDEST PUSH1 0x40 MLOAD PUSH1 0x0 DUP2 DUP2 DUP2 DUP6 DUP8 GAS CALL SWAP3 POP POP POP RETURNDATASIZE DUP1 PUSH1 0x0 DUP2 EQ PUSH2 0xE10 JUMPI PUSH1 0x40 MLOAD SWAP2 POP PUSH1 0x1F NOT PUSH1 0x3F RETURNDATASIZE ADD AND DUP3 ADD PUSH1 0x40 MSTORE RETURNDATASIZE DUP3 MSTORE RETURNDATASIZE PUSH1 0x0 PUSH1 0x20 DUP5 ADD RETURNDATACOPY PUSH2 0xE15 JUMP JUMPDEST PUSH1 0x60 SWAP2 POP JUMPDEST POP POP PUSH1 0x1D SLOAD PUSH1 0x40 MLOAD PUSH1 0x1 PUSH1 0x1 PUSH1 0xA0 SHL SUB SWAP1 SWAP2 AND SWAP2 POP SELFBALANCE SWAP1 PUSH1 0x0 DUP2 DUP2 DUP2 DUP6 DUP8 GAS CALL SWAP3 POP POP POP RETURNDATASIZE DUP1 PUSH1 0x0 DUP2 EQ PUSH2 0xE65 JUMPI PUSH1 0x40 MLOAD SWAP2 POP PUSH1 0x1F NOT PUSH1 0x3F RETURNDATASIZE ADD AND DUP3 ADD PUSH1 0x40 MSTORE RETURNDATASIZE DUP3 MSTORE RETURNDATASIZE PUSH1 0x0 PUSH1 0x20 DUP5 ADD RETURNDATACOPY PUSH2 0xE6A JUMP JUMPDEST PUSH1 0x60 SWAP2 POP JUMPDEST POP POP PUSH1 0x1 PUSH1 0x0 SSTORE POP POP POP JUMP JUMPDEST PUSH1 0x2 PUSH1 0x0 SLOAD EQ ISZERO PUSH2 0xEC9 JUMPI PUSH1 0x40 MLOAD PUSH3 0x461BCD PUSH1 0xE5 SHL DUP2 MSTORE PUSH1 0x20 PUSH1 0x4 DUP3 ADD MSTORE PUSH1 0x1F PUSH1 0x24 DUP3 ADD MSTORE PUSH32 0x5265656E7472616E637947756172643A207265656E7472616E742063616C6C00 PUSH1 0x44 DUP3 ADD MSTORE PUSH1 0x64 ADD PUSH2 0x8AF JUMP JUMPDEST PUSH1 0x2 PUSH1 0x0 SSTORE PUSH1 0x1F SLOAD PUSH3 0x10000 SWAP1 DIV PUSH1 0xFF AND ISZERO PUSH2 0xF4D JUMPI PUSH1 0x40 MLOAD PUSH3 0x461BCD PUSH1 0xE5 SHL DUP2 MSTORE PUSH1 0x20 PUSH1 0x4 DUP3 ADD MSTORE PUSH1 0x35 PUSH1 0x24 DUP3 ADD MSTORE PUSH32 0x73616C65207761732061626F727465642C20706C656173652075736520636C61 PUSH1 0x44 DUP3 ADD MSTORE PUSH32 0x696D5374616C6545746828292066756E6374696F6E0000000000000000000000 PUSH1 0x64 DUP3 ADD MSTORE PUSH1 0x84 ADD PUSH2 0x8AF JUMP JUMPDEST CALLER PUSH1 0x0 SWAP1 DUP2 MSTORE PUSH1 0x21 PUSH1 0x20 MSTORE PUSH1 0x40 SWAP1 KECCAK256 SLOAD PUSH2 0xFA9 JUMPI PUSH1 0x40 MLOAD PUSH3 0x461BCD PUSH1 0xE5 SHL DUP2 MSTORE PUSH1 0x20 PUSH1 0x4 DUP3 ADD MSTORE PUSH1 0x1F PUSH1 0x24 DUP3 ADD MSTORE PUSH32 0x75736572206861736E277420616E7920746F6B656E7320746F20636C61696D00 PUSH1 0x44 DUP3 ADD MSTORE PUSH1 0x64 ADD PUSH2 0x8AF JUMP JUMPDEST PUSH1 0x1F SLOAD PUSH2 0x100 SWAP1 DIV PUSH1 0xFF AND PUSH2 0x100C JUMPI PUSH1 0x40 MLOAD PUSH3 0x461BCD PUSH1 0xE5 SHL DUP2 MSTORE PUSH1 0x20 PUSH1 0x4 DUP3 ADD MSTORE PUSH1 0x23 PUSH1 0x24 DUP3 ADD MSTORE PUSH32 0x696E69746961746F72206861736E277420656E646564207468652073616C6520 PUSH1 0x44 DUP3 ADD MSTORE PUSH3 0x1E595D PUSH1 0xEA SHL PUSH1 0x64 DUP3 ADD MSTORE PUSH1 0x84 ADD PUSH2 0x8AF JUMP JUMPDEST PUSH1 0xB SLOAD CALLER PUSH1 0x0 SWAP1 DUP2 MSTORE PUSH1 0x21 PUSH1 0x20 MSTORE PUSH1 0x40 DUP2 KECCAK256 SLOAD SWAP1 SWAP2 PUSH2 0x102A SWAP2 PUSH2 0x20B3 JUMP JUMPDEST CALLER PUSH1 0x0 SWAP1 DUP2 MSTORE PUSH1 0x21 PUSH1 0x20 MSTORE PUSH1 0x40 DUP1 DUP3 KECCAK256 SWAP2 SWAP1 SWAP2 SSTORE MLOAD SWAP1 SWAP2 POP PUSH32 0x8A36F5A234186D446E36A7DF36ACE663A05A580D9BEA2DD899C6DD76A075D5FA SWAP1 PUSH2 0x1071 SWAP1 DUP4 DUP2 MSTORE PUSH1 0x20 ADD SWAP1 JUMP JUMPDEST PUSH1 0x40 MLOAD DUP1 SWAP2 SUB SWAP1 LOG1 PUSH1 0x18 SLOAD PUSH1 0x40 MLOAD PUSH4 0xA9059CBB PUSH1 0xE0 SHL DUP2 MSTORE CALLER PUSH1 0x4 DUP3 ADD MSTORE PUSH1 0x24 DUP2 ADD DUP4 SWAP1 MSTORE PUSH1 0x1 PUSH1 0x1 PUSH1 0xA0 SHL SUB SWAP1 SWAP2 AND SWAP1 PUSH4 0xA9059CBB SWAP1 PUSH1 0x44 ADD PUSH1 0x20 PUSH1 0x40 MLOAD DUP1 DUP4 SUB DUP2 PUSH1 0x0 DUP8 DUP1 EXTCODESIZE ISZERO DUP1 ISZERO PUSH2 0x10C5 JUMPI PUSH1 0x0 DUP1 REVERT JUMPDEST POP GAS CALL ISZERO DUP1 ISZERO PUSH2 0x10D9 JUMPI RETURNDATASIZE PUSH1 0x0 DUP1 RETURNDATACOPY RETURNDATASIZE PUSH1 0x0 REVERT JUMPDEST POP POP POP POP PUSH1 0x40 MLOAD RETURNDATASIZE PUSH1 0x1F NOT PUSH1 0x1F DUP3 ADD AND DUP3 ADD DUP1 PUSH1 0x40 MSTORE POP DUP2 ADD SWAP1 PUSH2 0x10FD SWAP2 SWAP1 PUSH2 0x1F1F JUMP JUMPDEST POP POP PUSH1 0x1 PUSH1 0x0 SSTORE JUMP JUMPDEST PUSH1 0x1D SLOAD PUSH1 0x1 PUSH1 0x1 PUSH1 0xA0 SHL SUB AND CALLER EQ PUSH2 0x1160 JUMPI PUSH1 0x40 MLOAD PUSH3 0x461BCD PUSH1 0xE5 SHL DUP2 MSTORE PUSH1 0x20 PUSH1 0x4 DUP3 ADD MSTORE PUSH1 0x1B PUSH1 0x24 DUP3 ADD MSTORE PUSH32 0x63616C6C6572206973206E6F742074686520696E69746961746F720000000000 PUSH1 0x44 DUP3 ADD MSTORE PUSH1 0x64 ADD PUSH2 0x8AF JUMP JUMPDEST PUSH1 0x1F SLOAD PUSH3 0x10000 SWAP1 DIV PUSH1 0xFF AND ISZERO PUSH2 0x11AC JUMPI PUSH1 0x40 MLOAD PUSH3 0x461BCD PUSH1 0xE5 SHL DUP2 MSTORE PUSH1 0x20 PUSH1 0x4 DUP3 ADD MSTORE PUSH1 0x10 PUSH1 0x24 DUP3 ADD MSTORE PUSH16 0x1CD85B19481DD85CC818589BDC9D1959 PUSH1 0x82 SHL PUSH1 0x44 DUP3 ADD MSTORE PUSH1 0x64 ADD PUSH2 0x8AF JUMP JUMPDEST PUSH1 0x2 SLOAD PUSH1 0x18 SLOAD PUSH1 0x40 MLOAD PUSH4 0x70A08231 PUSH1 0xE0 SHL DUP2 MSTORE ADDRESS PUSH1 0x4 DUP3 ADD MSTORE PUSH1 0x1 PUSH1 0x1 PUSH1 0xA0 SHL SUB SWAP1 SWAP2 AND SWAP1 PUSH4 0x70A08231 SWAP1 PUSH1 0x24 ADD PUSH1 0x20 PUSH1 0x40 MLOAD DUP1 DUP4 SUB DUP2 DUP7 DUP1 EXTCODESIZE ISZERO DUP1 ISZERO PUSH2 0x11F2 JUMPI PUSH1 0x0 DUP1 REVERT JUMPDEST POP GAS STATICCALL ISZERO DUP1 ISZERO PUSH2 0x1206 JUMPI RETURNDATASIZE PUSH1 0x0 DUP1 RETURNDATACOPY RETURNDATASIZE PUSH1 0x0 REVERT JUMPDEST POP POP POP POP PUSH1 0x40 MLOAD RETURNDATASIZE PUSH1 0x1F NOT PUSH1 0x1F DUP3 ADD AND DUP3 ADD DUP1 PUSH1 0x40 MSTORE POP DUP2 ADD SWAP1 PUSH2 0x122A SWAP2 SWAP1 PUSH2 0x1FDD JUMP JUMPDEST LT ISZERO PUSH2 0x129E JUMPI PUSH1 0x40 MLOAD PUSH3 0x461BCD PUSH1 0xE5 SHL DUP2 MSTORE PUSH1 0x20 PUSH1 0x4 DUP3 ADD MSTORE PUSH1 0x31 PUSH1 0x24 DUP3 ADD MSTORE PUSH32 0x696E73756666696369656E7420616D6F756E74206F6620746F6B656E73207365 PUSH1 0x44 DUP3 ADD MSTORE PUSH32 0x6E7420746F207468652061646472657373000000000000000000000000000000 PUSH1 0x64 DUP3 ADD MSTORE PUSH1 0x84 ADD PUSH2 0x8AF JUMP JUMPDEST PUSH1 0x1F DUP1 SLOAD PUSH1 0xFF NOT AND PUSH1 0x1 OR SWAP1 SSTORE JUMP JUMPDEST PUSH1 0x2 PUSH1 0x0 SLOAD EQ ISZERO PUSH2 0x1300 JUMPI PUSH1 0x40 MLOAD PUSH3 0x461BCD PUSH1 0xE5 SHL DUP2 MSTORE PUSH1 0x20 PUSH1 0x4 DUP3 ADD MSTORE PUSH1 0x1F PUSH1 0x24 DUP3 ADD MSTORE PUSH32 0x5265656E7472616E637947756172643A207265656E7472616E742063616C6C00 PUSH1 0x44 DUP3 ADD MSTORE PUSH1 0x64 ADD PUSH2 0x8AF JUMP JUMPDEST PUSH1 0x2 PUSH1 0x0 SSTORE PUSH1 0x1 SLOAD PUSH1 0xFF AND ISZERO PUSH2 0x134B JUMPI PUSH1 0x40 MLOAD PUSH3 0x461BCD PUSH1 0xE5 SHL DUP2 MSTORE PUSH1 0x20 PUSH1 0x4 DUP3 ADD MSTORE PUSH1 0x10 PUSH1 0x24 DUP3 ADD MSTORE PUSH16 0x14185D5CD8589B194E881C185D5CD959 PUSH1 0x82 SHL PUSH1 0x44 DUP3 ADD MSTORE PUSH1 0x64 ADD PUSH2 0x8AF JUMP JUMPDEST PUSH2 0x1359 DUP2 CALLER PUSH1 0x19 SLOAD CHAINID PUSH2 0x1C7B JUMP JUMPDEST PUSH2 0x1362 JUMPI PUSH1 0x0 DUP1 REVERT JUMPDEST PUSH1 0x1F SLOAD PUSH3 0x10000 SWAP1 DIV PUSH1 0xFF AND ISZERO PUSH2 0x13AE JUMPI PUSH1 0x40 MLOAD PUSH3 0x461BCD PUSH1 0xE5 SHL DUP2 MSTORE PUSH1 0x20 PUSH1 0x4 DUP3 ADD MSTORE PUSH1 0x10 PUSH1 0x24 DUP3 ADD MSTORE PUSH16 0x1CD85B19481DD85CC818589BDC9D1959 PUSH1 0x82 SHL PUSH1 0x44 DUP3 ADD MSTORE PUSH1 0x64 ADD PUSH2 0x8AF JUMP JUMPDEST PUSH1 0x1F SLOAD PUSH1 0xFF AND PUSH2 0x1400 JUMPI PUSH1 0x40 MLOAD PUSH3 0x461BCD PUSH1 0xE5 SHL DUP2 MSTORE PUSH1 0x20 PUSH1 0x4 DUP3 ADD MSTORE PUSH1 0x1E PUSH1 0x24 DUP3 ADD MSTORE PUSH32 0x73616C65206861736E2774206265656E2066696E616C697A6564207965740000 PUSH1 0x44 DUP3 ADD MSTORE PUSH1 0x64 ADD PUSH2 0x8AF JUMP JUMPDEST PUSH1 0x9 SLOAD TIMESTAMP LT PUSH2 0x1442 JUMPI PUSH1 0x40 MLOAD PUSH3 0x461BCD PUSH1 0xE5 SHL DUP2 MSTORE PUSH1 0x20 PUSH1 0x4 DUP3 ADD MSTORE PUSH1 0xE PUSH1 0x24 DUP3 ADD MSTORE PUSH14 0x1CD85B19481A185CC8195B991959 PUSH1 0x92 SHL PUSH1 0x44 DUP3 ADD MSTORE PUSH1 0x64 ADD PUSH2 0x8AF JUMP JUMPDEST PUSH1 0xA SLOAD TIMESTAMP GT PUSH2 0x1493 JUMPI PUSH1 0x40 MLOAD PUSH3 0x461BCD PUSH1 0xE5 SHL DUP2 MSTORE PUSH1 0x20 PUSH1 0x4 DUP3 ADD MSTORE PUSH1 0x17 PUSH1 0x24 DUP3 ADD MSTORE PUSH32 0x73616C65206861736E2774207374617274656420796574000000000000000000 PUSH1 0x44 DUP3 ADD MSTORE PUSH1 0x64 ADD PUSH2 0x8AF JUMP JUMPDEST PUSH1 0xF SLOAD CALLER PUSH1 0x0 SWAP1 DUP2 MSTORE PUSH1 0x21 PUSH1 0x20 MSTORE PUSH1 0x40 SWAP1 KECCAK256 SLOAD PUSH2 0x14B0 SWAP1 CALLVALUE PUSH2 0x2079 JUMP JUMPDEST GT ISZERO PUSH2 0x150A JUMPI PUSH1 0x40 MLOAD PUSH3 0x461BCD PUSH1 0xE5 SHL DUP2 MSTORE PUSH1 0x20 PUSH1 0x4 DUP3 ADD MSTORE PUSH1 0x24 DUP1 DUP3 ADD MSTORE PUSH32 0x796F7527726520747279696E6720746F2062757920746F6F206D616E7920746F PUSH1 0x44 DUP3 ADD MSTORE PUSH4 0x6B656E73 PUSH1 0xE0 SHL PUSH1 0x64 DUP3 ADD MSTORE PUSH1 0x84 ADD PUSH2 0x8AF JUMP JUMPDEST PUSH1 0x10 SLOAD CALLVALUE LT ISZERO PUSH2 0x155C JUMPI PUSH1 0x40 MLOAD PUSH3 0x461BCD PUSH1 0xE5 SHL DUP2 MSTORE PUSH1 0x20 PUSH1 0x4 DUP3 ADD MSTORE PUSH1 0x19 PUSH1 0x24 DUP3 ADD MSTORE PUSH32 0x796F75277265206E6F742073656E64696E6720656E6F75676800000000000000 PUSH1 0x44 DUP3 ADD MSTORE PUSH1 0x64 ADD PUSH2 0x8AF JUMP JUMPDEST PUSH1 0x11 SLOAD PUSH2 0x1567 PUSH2 0x1C64 JUMP JUMPDEST PUSH1 0xB SLOAD PUSH2 0x1574 SWAP1 CALLVALUE PUSH2 0x20B3 JUMP JUMPDEST PUSH2 0x157E SWAP2 SWAP1 PUSH2 0x2079 JUMP JUMPDEST GT ISZERO PUSH2 0x15E8 JUMPI PUSH1 0x40 MLOAD PUSH3 0x461BCD PUSH1 0xE5 SHL DUP2 MSTORE PUSH1 0x20 PUSH1 0x4 DUP3 ADD MSTORE PUSH1 0x33 PUSH1 0x24 DUP3 ADD MSTORE PUSH32 0x7468657265206172656E277420656E6F75676820746F6B656E73206C6566742E PUSH1 0x44 DUP3 ADD MSTORE PUSH19 0x8151C9E4818481B1BDDD95C88185B5BDD5B9D PUSH1 0x6A SHL PUSH1 0x64 DUP3 ADD MSTORE PUSH1 0x84 ADD PUSH2 0x8AF JUMP JUMPDEST PUSH1 0x5 SLOAD CALLVALUE PUSH1 0x1E SLOAD PUSH2 0x15F9 SWAP2 SWAP1 PUSH2 0x2079 JUMP JUMPDEST GT ISZERO PUSH2 0x1656 JUMPI PUSH1 0x40 MLOAD PUSH3 0x461BCD PUSH1 0xE5 SHL DUP2 MSTORE PUSH1 0x20 PUSH1 0x4 DUP3 ADD MSTORE PUSH1 0x26 PUSH1 0x24 DUP3 ADD MSTORE PUSH32 0x6861726463617020697320726561636865642E205472792061206C6F77657220 PUSH1 0x44 DUP3 ADD MSTORE PUSH6 0x185B5BDD5B9D PUSH1 0xD2 SHL PUSH1 0x64 DUP3 ADD MSTORE PUSH1 0x84 ADD PUSH2 0x8AF JUMP JUMPDEST CALLER PUSH1 0x0 SWAP1 DUP2 MSTORE PUSH1 0x21 PUSH1 0x20 MSTORE PUSH1 0x40 SWAP1 KECCAK256 SLOAD PUSH2 0x1671 SWAP1 CALLVALUE SWAP1 PUSH2 0x2079 JUMP JUMPDEST CALLER PUSH1 0x0 SWAP1 DUP2 MSTORE PUSH1 0x21 PUSH1 0x20 MSTORE PUSH1 0x40 SWAP1 KECCAK256 SSTORE PUSH1 0x1E SLOAD PUSH2 0x168F SWAP1 CALLVALUE SWAP1 PUSH2 0x2079 JUMP JUMPDEST PUSH1 0x1E SSTORE POP PUSH1 0x1 PUSH1 0x0 SSTORE JUMP JUMPDEST PUSH1 0x1A DUP1 SLOAD PUSH2 0x16A7 SWAP1 PUSH2 0x20D2 JUMP JUMPDEST DUP1 PUSH1 0x1F ADD PUSH1 0x20 DUP1 SWAP2 DIV MUL PUSH1 0x20 ADD PUSH1 0x40 MLOAD SWAP1 DUP2 ADD PUSH1 0x40 MSTORE DUP1 SWAP3 SWAP2 SWAP1 DUP2 DUP2 MSTORE PUSH1 0x20 ADD DUP3 DUP1 SLOAD PUSH2 0x16D3 SWAP1 PUSH2 0x20D2 JUMP JUMPDEST DUP1 ISZERO PUSH2 0x1720 JUMPI DUP1 PUSH1 0x1F LT PUSH2 0x16F5 JUMPI PUSH2 0x100 DUP1 DUP4 SLOAD DIV MUL DUP4 MSTORE SWAP2 PUSH1 0x20 ADD SWAP2 PUSH2 0x1720 JUMP JUMPDEST DUP3 ADD SWAP2 SWAP1 PUSH1 0x0 MSTORE PUSH1 0x20 PUSH1 0x0 KECCAK256 SWAP1 JUMPDEST DUP2 SLOAD DUP2 MSTORE SWAP1 PUSH1 0x1 ADD SWAP1 PUSH1 0x20 ADD DUP1 DUP4 GT PUSH2 0x1703 JUMPI DUP3 SWAP1 SUB PUSH1 0x1F AND DUP3 ADD SWAP2 JUMPDEST POP POP POP POP POP DUP2 JUMP JUMPDEST PUSH1 0x2 PUSH1 0x0 SLOAD EQ ISZERO PUSH2 0x177B JUMPI PUSH1 0x40 MLOAD PUSH3 0x461BCD PUSH1 0xE5 SHL DUP2 MSTORE PUSH1 0x20 PUSH1 0x4 DUP3 ADD MSTORE PUSH1 0x1F PUSH1 0x24 DUP3 ADD MSTORE PUSH32 0x5265656E7472616E637947756172643A207265656E7472616E742063616C6C00 PUSH1 0x44 DUP3 ADD MSTORE PUSH1 0x64 ADD PUSH2 0x8AF JUMP JUMPDEST PUSH1 0x2 PUSH1 0x0 SSTORE PUSH1 0x1F SLOAD PUSH2 0x100 SWAP1 DIV PUSH1 0xFF AND ISZERO PUSH2 0x17E4 JUMPI PUSH1 0x40 MLOAD PUSH3 0x461BCD PUSH1 0xE5 SHL DUP2 MSTORE PUSH1 0x20 PUSH1 0x4 DUP3 ADD MSTORE PUSH1 0x23 PUSH1 0x24 DUP3 ADD MSTORE PUSH32 0x73616C6520686173206265656E20656E646564203A20796F752063616E20636C PUSH1 0x44 DUP3 ADD MSTORE PUSH3 0x61696D PUSH1 0xE8 SHL PUSH1 0x64 DUP3 ADD MSTORE PUSH1 0x84 ADD PUSH2 0x8AF JUMP JUMPDEST PUSH1 0x1F SLOAD PUSH3 0x10000 SWAP1 DIV PUSH1 0xFF AND ISZERO PUSH2 0x17FD JUMPI PUSH2 0x17FD PUSH2 0x1D95 JUMP JUMPDEST PUSH1 0x6 SLOAD PUSH1 0x1E SLOAD LT DUP1 ISZERO PUSH2 0x1811 JUMPI POP PUSH1 0x9 SLOAD TIMESTAMP GT JUMPDEST ISZERO PUSH2 0x181E JUMPI PUSH2 0x181E PUSH2 0x1D95 JUMP JUMPDEST PUSH1 0x6 SLOAD PUSH1 0x1E SLOAD GT DUP1 ISZERO PUSH2 0x183F JUMPI POP PUSH1 0x9 SLOAD PUSH2 0x183C SWAP1 PUSH3 0x15180 PUSH2 0x2079 JUMP JUMPDEST TIMESTAMP GT JUMPDEST ISZERO PUSH2 0x184C JUMPI PUSH2 0x184C PUSH2 0x1D95 JUMP JUMPDEST PUSH1 0x1 PUSH1 0x0 SSTORE JUMP JUMPDEST PUSH1 0x2 PUSH1 0x0 SLOAD EQ ISZERO PUSH2 0x18A6 JUMPI PUSH1 0x40 MLOAD PUSH3 0x461BCD PUSH1 0xE5 SHL DUP2 MSTORE PUSH1 0x20 PUSH1 0x4 DUP3 ADD MSTORE PUSH1 0x1F PUSH1 0x24 DUP3 ADD MSTORE PUSH32 0x5265656E7472616E637947756172643A207265656E7472616E742063616C6C00 PUSH1 0x44 DUP3 ADD MSTORE PUSH1 0x64 ADD PUSH2 0x8AF JUMP JUMPDEST PUSH1 0x2 PUSH1 0x0 SSTORE PUSH1 0x1 SLOAD PUSH1 0xFF AND ISZERO PUSH2 0x18F1 JUMPI PUSH1 0x40 MLOAD PUSH3 0x461BCD PUSH1 0xE5 SHL DUP2 MSTORE PUSH1 0x20 PUSH1 0x4 DUP3 ADD MSTORE PUSH1 0x10 PUSH1 0x24 DUP3 ADD MSTORE PUSH16 0x14185D5CD8589B194E881C185D5CD959 PUSH1 0x82 SHL PUSH1 0x44 DUP3 ADD MSTORE PUSH1 0x64 ADD PUSH2 0x8AF JUMP JUMPDEST PUSH1 0x1F SLOAD PUSH3 0x10000 SWAP1 DIV PUSH1 0xFF AND ISZERO PUSH2 0x193D JUMPI PUSH1 0x40 MLOAD PUSH3 0x461BCD PUSH1 0xE5 SHL DUP2 MSTORE PUSH1 0x20 PUSH1 0x4 DUP3 ADD MSTORE PUSH1 0x10 PUSH1 0x24 DUP3 ADD MSTORE PUSH16 0x1CD85B19481DD85CC818589BDC9D1959 PUSH1 0x82 SHL PUSH1 0x44 DUP3 ADD MSTORE PUSH1 0x64 ADD PUSH2 0x8AF JUMP JUMPDEST PUSH1 0x1F SLOAD PUSH1 0xFF AND PUSH2 0x198F JUMPI PUSH1 0x40 MLOAD PUSH3 0x461BCD PUSH1 0xE5 SHL DUP2 MSTORE PUSH1 0x20 PUSH1 0x4 DUP3 ADD MSTORE PUSH1 0x1E PUSH1 0x24 DUP3 ADD MSTORE PUSH32 0x73616C65206861736E2774206265656E2066696E616C697A6564207965740000 PUSH1 0x44 DUP3 ADD MSTORE PUSH1 0x64 ADD PUSH2 0x8AF JUMP JUMPDEST PUSH1 0x8 SLOAD TIMESTAMP GT PUSH2 0x19E0 JUMPI PUSH1 0x40 MLOAD PUSH3 0x461BCD PUSH1 0xE5 SHL DUP2 MSTORE PUSH1 0x20 PUSH1 0x4 DUP3 ADD MSTORE PUSH1 0x17 PUSH1 0x24 DUP3 ADD MSTORE PUSH32 0x73616C65206861736E2774207374617274656420796574000000000000000000 PUSH1 0x44 DUP3 ADD MSTORE PUSH1 0x64 ADD PUSH2 0x8AF JUMP JUMPDEST PUSH1 0x9 SLOAD TIMESTAMP LT PUSH2 0x1A22 JUMPI PUSH1 0x40 MLOAD PUSH3 0x461BCD PUSH1 0xE5 SHL DUP2 MSTORE PUSH1 0x20 PUSH1 0x4 DUP3 ADD MSTORE PUSH1 0xE PUSH1 0x24 DUP3 ADD MSTORE PUSH14 0x1CD85B19481A185CC8195B991959 PUSH1 0x92 SHL PUSH1 0x44 DUP3 ADD MSTORE PUSH1 0x64 ADD PUSH2 0x8AF JUMP JUMPDEST PUSH1 0xF SLOAD CALLER PUSH1 0x0 SWAP1 DUP2 MSTORE PUSH1 0x21 PUSH1 0x20 MSTORE PUSH1 0x40 SWAP1 KECCAK256 SLOAD PUSH2 0x1A3F SWAP1 CALLVALUE PUSH2 0x2079 JUMP JUMPDEST GT ISZERO PUSH2 0x1A99 JUMPI PUSH1 0x40 MLOAD PUSH3 0x461BCD PUSH1 0xE5 SHL DUP2 MSTORE PUSH1 0x20 PUSH1 0x4 DUP3 ADD MSTORE PUSH1 0x24 DUP1 DUP3 ADD MSTORE PUSH32 0x796F7527726520747279696E6720746F2062757920746F6F206D616E7920746F PUSH1 0x44 DUP3 ADD MSTORE PUSH4 0x6B656E73 PUSH1 0xE0 SHL PUSH1 0x64 DUP3 ADD MSTORE PUSH1 0x84 ADD PUSH2 0x8AF JUMP JUMPDEST PUSH1 0x10 SLOAD CALLVALUE LT ISZERO PUSH2 0x1AEB JUMPI PUSH1 0x40 MLOAD PUSH3 0x461BCD PUSH1 0xE5 SHL DUP2 MSTORE PUSH1 0x20 PUSH1 0x4 DUP3 ADD MSTORE PUSH1 0x19 PUSH1 0x24 DUP3 ADD MSTORE PUSH32 0x796F75277265206E6F742073656E64696E6720656E6F75676800000000000000 PUSH1 0x44 DUP3 ADD MSTORE PUSH1 0x64 ADD PUSH2 0x8AF JUMP JUMPDEST PUSH1 0x11 SLOAD PUSH2 0x1AF6 PUSH2 0x1C64 JUMP JUMPDEST PUSH1 0xB SLOAD PUSH2 0x1B03 SWAP1 CALLVALUE PUSH2 0x20B3 JUMP JUMPDEST PUSH2 0x1B0D SWAP2 SWAP1 PUSH2 0x2079 JUMP JUMPDEST GT ISZERO PUSH2 0x1B77 JUMPI PUSH1 0x40 MLOAD PUSH3 0x461BCD PUSH1 0xE5 SHL DUP2 MSTORE PUSH1 0x20 PUSH1 0x4 DUP3 ADD MSTORE PUSH1 0x33 PUSH1 0x24 DUP3 ADD MSTORE PUSH32 0x7468657265206172656E277420656E6F75676820746F6B656E73206C6566742E PUSH1 0x44 DUP3 ADD MSTORE PUSH19 0x8151C9E4818481B1BDDD95C88185B5BDD5B9D PUSH1 0x6A SHL PUSH1 0x64 DUP3 ADD MSTORE PUSH1 0x84 ADD PUSH2 0x8AF JUMP JUMPDEST PUSH1 0x5 SLOAD CALLVALUE PUSH1 0x1E SLOAD PUSH2 0x1B88 SWAP2 SWAP1 PUSH2 0x2079 JUMP JUMPDEST GT ISZERO PUSH2 0x1BE5 JUMPI PUSH1 0x40 MLOAD PUSH3 0x461BCD PUSH1 0xE5 SHL DUP2 MSTORE PUSH1 0x20 PUSH1 0x4 DUP3 ADD MSTORE PUSH1 0x26 PUSH1 0x24 DUP3 ADD MSTORE PUSH32 0x6861726463617020697320726561636865642E205472792061206C6F77657220 PUSH1 0x44 DUP3 ADD MSTORE PUSH6 0x185B5BDD5B9D PUSH1 0xD2 SHL PUSH1 0x64 DUP3 ADD MSTORE PUSH1 0x84 ADD PUSH2 0x8AF JUMP JUMPDEST CALLER PUSH1 0x0 SWAP1 DUP2 MSTORE PUSH1 0x21 PUSH1 0x20 MSTORE PUSH1 0x40 SWAP1 KECCAK256 SLOAD PUSH2 0x1C00 SWAP1 CALLVALUE SWAP1 PUSH2 0x2079 JUMP JUMPDEST CALLER PUSH1 0x0 SWAP1 DUP2 MSTORE PUSH1 0x21 PUSH1 0x20 MSTORE PUSH1 0x40 SWAP1 KECCAK256 SSTORE PUSH1 0x1E SLOAD PUSH2 0x1C1E SWAP1 CALLVALUE SWAP1 PUSH2 0x2079 JUMP JUMPDEST PUSH1 0x1E SSTORE PUSH1 0x1 PUSH1 0x0 SSTORE JUMP JUMPDEST PUSH1 0x0 DUP1 PUSH1 0x0 DUP4 MLOAD PUSH1 0x41 EQ PUSH2 0x1C3B JUMPI PUSH1 0x0 DUP1 REVERT JUMPDEST POP POP POP PUSH1 0x20 DUP2 ADD MLOAD PUSH1 0x40 DUP3 ADD MLOAD PUSH1 0x60 SWAP1 SWAP3 ADD MLOAD PUSH1 0x0 BYTE SWAP3 SWAP1 SWAP2 SWAP1 JUMP JUMPDEST PUSH1 0x1B DUP1 SLOAD PUSH2 0x16A7 SWAP1 PUSH2 0x20D2 JUMP JUMPDEST PUSH1 0x0 PUSH1 0xB SLOAD PUSH1 0x1E SLOAD PUSH2 0x1C76 SWAP2 SWAP1 PUSH2 0x20B3 JUMP JUMPDEST SWAP1 POP SWAP1 JUMP JUMPDEST PUSH1 0x0 DUP1 PUSH1 0x0 DUP1 PUSH2 0x1C8A DUP9 PUSH2 0x1C28 JUMP JUMPDEST PUSH1 0x40 DUP1 MLOAD PUSH1 0x1 PUSH1 0x1 PUSH1 0xA0 SHL SUB DUP13 AND PUSH1 0x20 DUP1 DUP4 ADD SWAP2 SWAP1 SWAP2 MSTORE DUP2 DUP4 ADD DUP13 SWAP1 MSTORE PUSH1 0x60 DUP1 DUP4 ADD DUP13 SWAP1 MSTORE DUP4 MLOAD DUP1 DUP5 SUB SWAP1 SWAP2 ADD DUP2 MSTORE PUSH1 0x80 DUP4 ADD SWAP1 SWAP4 MSTORE DUP3 MLOAD SWAP3 ADD SWAP2 SWAP1 SWAP2 KECCAK256 PUSH32 0x19457468657265756D205369676E6564204D6573736167653A0A333200000000 PUSH1 0xA0 DUP4 ADD MSTORE PUSH1 0xBC DUP3 ADD DUP2 SWAP1 MSTORE SWAP4 SWAP7 POP SWAP2 SWAP5 POP SWAP3 POP PUSH1 0x0 SWAP1 PUSH1 0xDC ADD PUSH1 0x40 DUP1 MLOAD PUSH1 0x1F NOT DUP2 DUP5 SUB ADD DUP2 MSTORE DUP3 DUP3 MSTORE DUP1 MLOAD PUSH1 0x20 SWAP2 DUP3 ADD KECCAK256 PUSH1 0x0 DUP5 MSTORE SWAP1 DUP4 ADD DUP1 DUP4 MSTORE DUP2 SWAP1 MSTORE PUSH1 0xFF DUP9 AND SWAP2 DUP4 ADD SWAP2 SWAP1 SWAP2 MSTORE PUSH1 0x60 DUP3 ADD DUP7 SWAP1 MSTORE PUSH1 0x80 DUP3 ADD DUP6 SWAP1 MSTORE SWAP2 POP PUSH1 0x1 SWAP1 PUSH1 0xA0 ADD PUSH1 0x20 PUSH1 0x40 MLOAD PUSH1 0x20 DUP2 SUB SWAP1 DUP1 DUP5 SUB SWAP1 DUP6 GAS STATICCALL ISZERO DUP1 ISZERO PUSH2 0x1D6B JUMPI RETURNDATASIZE PUSH1 0x0 DUP1 RETURNDATACOPY RETURNDATASIZE PUSH1 0x0 REVERT JUMPDEST POP POP PUSH1 0x40 MLOAD PUSH1 0x1F NOT ADD MLOAD PUSH1 0x14 SLOAD PUSH1 0x1 PUSH1 0x1 PUSH1 0xA0 SHL SUB SWAP2 DUP3 AND SWAP2 AND EQ SWAP12 SWAP11 POP POP POP POP POP POP POP POP POP POP POP JUMP JUMPDEST CALLER PUSH1 0x0 SWAP1 DUP2 MSTORE PUSH1 0x21 PUSH1 0x20 MSTORE PUSH1 0x40 SWAP1 KECCAK256 SLOAD PUSH2 0x1DF1 JUMPI PUSH1 0x40 MLOAD PUSH3 0x461BCD PUSH1 0xE5 SHL DUP2 MSTORE PUSH1 0x20 PUSH1 0x4 DUP3 ADD MSTORE PUSH1 0x1F PUSH1 0x24 DUP3 ADD MSTORE PUSH32 0x75736572206861736E277420616E7920746F6B656E7320746F20636C61696D00 PUSH1 0x44 DUP3 ADD MSTORE PUSH1 0x64 ADD PUSH2 0x8AF JUMP JUMPDEST CALLER PUSH1 0x0 DUP2 DUP2 MSTORE PUSH1 0x21 PUSH1 0x20 MSTORE PUSH1 0x40 DUP1 DUP3 KECCAK256 DUP1 SLOAD SWAP1 DUP4 SWAP1 SSTORE SWAP1 MLOAD SWAP1 SWAP3 SWAP2 DUP4 SWAP2 SWAP1 DUP2 DUP2 DUP2 DUP6 DUP8 GAS CALL SWAP3 POP POP POP RETURNDATASIZE DUP1 PUSH1 0x0 DUP2 EQ PUSH2 0x1E46 JUMPI PUSH1 0x40 MLOAD SWAP2 POP PUSH1 0x1F NOT PUSH1 0x3F RETURNDATASIZE ADD AND DUP3 ADD PUSH1 0x40 MSTORE RETURNDATASIZE DUP3 MSTORE RETURNDATASIZE PUSH1 0x0 PUSH1 0x20 DUP5 ADD RETURNDATACOPY PUSH2 0x1E4B JUMP JUMPDEST PUSH1 0x60 SWAP2 POP JUMPDEST POP POP POP POP JUMP JUMPDEST PUSH1 0x0 DUP3 PUSH1 0x1F DUP4 ADD SLT PUSH2 0x1E62 JUMPI PUSH1 0x0 DUP1 REVERT JUMPDEST DUP2 CALLDATALOAD PUSH8 0xFFFFFFFFFFFFFFFF DUP1 DUP3 GT ISZERO PUSH2 0x1E7D JUMPI PUSH2 0x1E7D PUSH2 0x2123 JUMP JUMPDEST PUSH1 0x40 MLOAD PUSH1 0x1F DUP4 ADD PUSH1 0x1F NOT SWAP1 DUP2 AND PUSH1 0x3F ADD AND DUP2 ADD SWAP1 DUP3 DUP3 GT DUP2 DUP4 LT OR ISZERO PUSH2 0x1EA5 JUMPI PUSH2 0x1EA5 PUSH2 0x2123 JUMP JUMPDEST DUP2 PUSH1 0x40 MSTORE DUP4 DUP2 MSTORE DUP7 PUSH1 0x20 DUP6 DUP9 ADD ADD GT ISZERO PUSH2 0x1EBE JUMPI PUSH1 0x0 DUP1 REVERT JUMPDEST DUP4 PUSH1 0x20 DUP8 ADD PUSH1 0x20 DUP4 ADD CALLDATACOPY PUSH1 0x0 PUSH1 0x20 DUP6 DUP4 ADD ADD MSTORE DUP1 SWAP5 POP POP POP POP POP SWAP3 SWAP2 POP POP JUMP JUMPDEST PUSH1 0x0 PUSH1 0x20 DUP3 DUP5 SUB SLT ISZERO PUSH2 0x1EF0 JUMPI PUSH1 0x0 DUP1 REVERT JUMPDEST DUP2 CALLDATALOAD PUSH2 0x1EFB DUP2 PUSH2 0x2139 JUMP JUMPDEST SWAP4 SWAP3 POP POP POP JUMP JUMPDEST PUSH1 0x0 PUSH1 0x20 DUP3 DUP5 SUB SLT ISZERO PUSH2 0x1F14 JUMPI PUSH1 0x0 DUP1 REVERT JUMPDEST DUP2 MLOAD PUSH2 0x1EFB DUP2 PUSH2 0x2139 JUMP JUMPDEST PUSH1 0x0 PUSH1 0x20 DUP3 DUP5 SUB SLT ISZERO PUSH2 0x1F31 JUMPI PUSH1 0x0 DUP1 REVERT JUMPDEST DUP2 MLOAD DUP1 ISZERO ISZERO DUP2 EQ PUSH2 0x1EFB JUMPI PUSH1 0x0 DUP1 REVERT JUMPDEST PUSH1 0x0 PUSH1 0x20 DUP3 DUP5 SUB SLT ISZERO PUSH2 0x1F53 JUMPI PUSH1 0x0 DUP1 REVERT JUMPDEST DUP2 CALLDATALOAD PUSH8 0xFFFFFFFFFFFFFFFF DUP2 GT ISZERO PUSH2 0x1F6A JUMPI PUSH1 0x0 DUP1 REVERT JUMPDEST PUSH2 0x1F76 DUP5 DUP3 DUP6 ADD PUSH2 0x1E51 JUMP JUMPDEST SWAP5 SWAP4 POP POP POP POP JUMP JUMPDEST PUSH1 0x0 DUP1 PUSH1 0x0 DUP1 PUSH1 0x80 DUP6 DUP8 SUB SLT ISZERO PUSH2 0x1F94 JUMPI PUSH1 0x0 DUP1 REVERT JUMPDEST DUP5 CALLDATALOAD PUSH8 0xFFFFFFFFFFFFFFFF DUP2 GT ISZERO PUSH2 0x1FAB JUMPI PUSH1 0x0 DUP1 REVERT JUMPDEST PUSH2 0x1FB7 DUP8 DUP3 DUP9 ADD PUSH2 0x1E51 JUMP JUMPDEST SWAP5 POP POP PUSH1 0x20 DUP6 ADD CALLDATALOAD PUSH2 0x1FC8 DUP2 PUSH2 0x2139 JUMP JUMPDEST SWAP4 SWAP7 SWAP4 SWAP6 POP POP POP POP PUSH1 0x40 DUP3 ADD CALLDATALOAD SWAP2 PUSH1 0x60 ADD CALLDATALOAD SWAP1 JUMP JUMPDEST PUSH1 0x0 PUSH1 0x20 DUP3 DUP5 SUB SLT ISZERO PUSH2 0x1FEF JUMPI PUSH1 0x0 DUP1 REVERT JUMPDEST POP MLOAD SWAP2 SWAP1 POP JUMP JUMPDEST PUSH1 0x0 DUP1 PUSH1 0x0 PUSH1 0x60 DUP5 DUP7 SUB SLT ISZERO PUSH2 0x200B JUMPI PUSH1 0x0 DUP1 REVERT JUMPDEST DUP4 MLOAD SWAP3 POP PUSH1 0x20 DUP5 ADD MLOAD SWAP2 POP PUSH1 0x40 DUP5 ADD MLOAD SWAP1 POP SWAP3 POP SWAP3 POP SWAP3 JUMP JUMPDEST PUSH1 0x0 PUSH1 0x20 DUP1 DUP4 MSTORE DUP4 MLOAD DUP1 DUP3 DUP6 ADD MSTORE PUSH1 0x0 JUMPDEST DUP2 DUP2 LT ISZERO PUSH2 0x2051 JUMPI DUP6 DUP2 ADD DUP4 ADD MLOAD DUP6 DUP3 ADD PUSH1 0x40 ADD MSTORE DUP3 ADD PUSH2 0x2035 JUMP JUMPDEST DUP2 DUP2 GT ISZERO PUSH2 0x2063 JUMPI PUSH1 0x0 PUSH1 0x40 DUP4 DUP8 ADD ADD MSTORE JUMPDEST POP PUSH1 0x1F ADD PUSH1 0x1F NOT AND SWAP3 SWAP1 SWAP3 ADD PUSH1 0x40 ADD SWAP4 SWAP3 POP POP POP JUMP JUMPDEST PUSH1 0x0 DUP3 NOT DUP3 GT ISZERO PUSH2 0x208C JUMPI PUSH2 0x208C PUSH2 0x210D JUMP JUMPDEST POP ADD SWAP1 JUMP JUMPDEST PUSH1 0x0 DUP3 PUSH2 0x20AE JUMPI PUSH4 0x4E487B71 PUSH1 0xE0 SHL PUSH1 0x0 MSTORE PUSH1 0x12 PUSH1 0x4 MSTORE PUSH1 0x24 PUSH1 0x0 REVERT JUMPDEST POP DIV SWAP1 JUMP JUMPDEST PUSH1 0x0 DUP2 PUSH1 0x0 NOT DIV DUP4 GT DUP3 ISZERO ISZERO AND ISZERO PUSH2 0x20CD JUMPI PUSH2 0x20CD PUSH2 0x210D JUMP JUMPDEST POP MUL SWAP1 JUMP JUMPDEST PUSH1 0x1 DUP2 DUP2 SHR SWAP1 DUP3 AND DUP1 PUSH2 0x20E6 JUMPI PUSH1 0x7F DUP3 AND SWAP2 POP JUMPDEST PUSH1 0x20 DUP3 LT DUP2 EQ ISZERO PUSH2 0x2107 JUMPI PUSH4 0x4E487B71 PUSH1 0xE0 SHL PUSH1 0x0 MSTORE PUSH1 0x22 PUSH1 0x4 MSTORE PUSH1 0x24 PUSH1 0x0 REVERT JUMPDEST POP SWAP2 SWAP1 POP JUMP JUMPDEST PUSH4 0x4E487B71 PUSH1 0xE0 SHL PUSH1 0x0 MSTORE PUSH1 0x11 PUSH1 0x4 MSTORE PUSH1 0x24 PUSH1 0x0 REVERT JUMPDEST PUSH4 0x4E487B71 PUSH1 0xE0 SHL PUSH1 0x0 MSTORE PUSH1 0x41 PUSH1 0x4 MSTORE PUSH1 0x24 PUSH1 0x0 REVERT JUMPDEST PUSH1 0x1 PUSH1 0x1 PUSH1 0xA0 SHL SUB DUP2 AND DUP2 EQ PUSH2 0x214E JUMPI PUSH1 0x0 DUP1 REVERT JUMPDEST POP JUMP INVALID LOG2 PUSH5 0x6970667358 0x22 SLT KECCAK256 0x23 JUMP PUSH4 0x9E53B070 DUP12 MSTORE8 0x28 0xF 0x2E 0xE3 PUSH14 0xDB378F8C0EEF7CD0B889757BB38C 0xEE NUMBER BLOCKHASH COINBASE PUSH5 0x736F6C6343 STOP ADDMOD SMOD STOP CALLER "
		},
		"gasEstimates": {
			"creation": {
				"codeDepositCost": "1716600",
				"executionCost": "infinite",
				"totalCost": "infinite"
			},
			"external": {
				"abortSale()": "30896",
				"buyTokensPublic()": "infinite",
				"buyTokensWhitelist(bytes)": "infinite",
				"claimStaleEth()": "infinite",
				"claimTokens()": "infinite",
				"deadAddress()": "2439",
				"description()": "infinite",
				"endSaleAllowClaim()": "infinite",
				"endTime()": "2397",
				"factory()": "2448",
				"feeBP()": "2354",
				"finalizeSale()": "infinite",
				"hardcap()": "2396",
				"imageUrl()": "infinite",
				"liquidityLockDuration()": "2396",
				"liquidityShareBP()": "2396",
				"listingTokensPerOneEth()": "2352",
				"master()": "2448",
				"maxBuyPerUser()": "2395",
				"minBuyPerUser()": "2353",
				"paused()": "2372",
				"recipient()": "2449",
				"router()": "2403",
				"saleAborted()": "2411",
				"saleEnded()": "2434",
				"saleFinalized()": "2400",
				"saleId()": "2374",
				"saleInitiator()": "2404",
				"saleTokensPerOneEth()": "2352",
				"signer()": "2450",
				"softcap()": "2372",
				"splitSignature(bytes)": "infinite",
				"startTime()": "2351",
				"teamVestDuration()": "2353",
				"teamVestEnabled()": "2432",
				"token()": "2447",
				"tokenAmountForLiquidity()": "2374",
				"tokenAmountForSale()": "2376",
				"tokenTotalAmount()": "2373",
				"totalBuyEth()": "2373",
				"totalBuyTokens()": "4611",
				"userBuyAmount(address)": "2570",
				"userVestDuration()": "2373",
				"userVestEnabled()": "2377",
				"usersVestingWallets(address)": "2620",
				"verify(bytes,address,uint256,uint256)": "infinite",
				"whitelistEnabled()": "2390",
				"wlStartTime()": "2373"
			},
			"internal": {
				"_claimStaleEth()": "infinite"
			}
		},
		"methodIdentifiers": {
			"abortSale()": "03bcf11d",
			"buyTokensPublic()": "957f1474",
			"buyTokensWhitelist(bytes)": "59663174",
			"claimStaleEth()": "8f5d036b",
			"claimTokens()": "48c54b9d",
			"deadAddress()": "27c8f835",
			"description()": "7284e416",
			"endSaleAllowClaim()": "201a3419",
			"endTime()": "3197cbb6",
			"factory()": "c45a0155",
			"feeBP()": "017f6fae",
			"finalizeSale()": "58a687ec",
			"hardcap()": "b071cbe6",
			"imageUrl()": "aba83150",
			"liquidityLockDuration()": "4ae01d52",
			"liquidityShareBP()": "a611dc37",
			"listingTokensPerOneEth()": "a0f7ab35",
			"master()": "ee97f7f3",
			"maxBuyPerUser()": "de284b3a",
			"minBuyPerUser()": "12e409c5",
			"paused()": "5c975abb",
			"recipient()": "66d003ac",
			"router()": "f887ea40",
			"saleAborted()": "64db812e",
			"saleEnded()": "9b8906ae",
			"saleFinalized()": "a5f0dea2",
			"saleId()": "c84c0387",
			"saleInitiator()": "bca1da85",
			"saleTokensPerOneEth()": "c7bf5166",
			"signer()": "238ac933",
			"softcap()": "f89be593",
			"splitSignature(bytes)": "a7bb5803",
			"startTime()": "78e97925",
			"teamVestDuration()": "27a72c96",
			"teamVestEnabled()": "85bf4946",
			"token()": "fc0c546a",
			"tokenAmountForLiquidity()": "6ef2e4d3",
			"tokenAmountForSale()": "039ce157",
			"tokenTotalAmount()": "83b17fdd",
			"totalBuyEth()": "da2cbd50",
			"totalBuyTokens()": "d132a8f4",
			"userBuyAmount(address)": "6b7f3df3",
			"userVestDuration()": "ea44c1bc",
			"userVestEnabled()": "d4b9de51",
			"usersVestingWallets(address)": "3c876081",
			"verify(bytes,address,uint256,uint256)": "e49dce66",
			"whitelistEnabled()": "51fb012d",
			"wlStartTime()": "be9feb30"
		}
	},
	"abi": [
		{
			"inputs": [
				{
					"internalType": "address",
					"name": "_token",
					"type": "address"
				},
				{
					"internalType": "string",
					"name": "_description",
					"type": "string"
				},
				{
					"internalType": "string",
					"name": "_imageUrl",
					"type": "string"
				},
				{
					"internalType": "uint256[8]",
					"name": "_saleInputs",
					"type": "uint256[8]"
				},
				{
					"internalType": "bool",
					"name": "_whitelistEnabled",
					"type": "bool"
				},
				{
					"internalType": "uint256",
					"name": "_wlStartTime",
					"type": "uint256"
				},
				{
					"internalType": "uint256",
					"name": "_liquidityLockDuration",
					"type": "uint256"
				},
				{
					"internalType": "address",
					"name": "_router",
					"type": "address"
				},
				{
					"internalType": "address",
					"name": "_saleInitiator",
					"type": "address"
				}
			],
			"stateMutability": "nonpayable",
			"type": "constructor"
		},
		{
			"anonymous": false,
			"inputs": [
				{
					"indexed": false,
					"internalType": "uint256",
					"name": "amount",
					"type": "uint256"
				}
			],
			"name": "Debug",
			"type": "event"
		},
		{
			"anonymous": false,
			"inputs": [
				{
					"indexed": false,
					"internalType": "address",
					"name": "account",
					"type": "address"
				}
			],
			"name": "Paused",
			"type": "event"
		},
		{
			"anonymous": false,
			"inputs": [
				{
					"indexed": false,
					"internalType": "address",
					"name": "account",
					"type": "address"
				}
			],
			"name": "Unpaused",
			"type": "event"
		},
		{
			"inputs": [],
			"name": "abortSale",
			"outputs": [],
			"stateMutability": "nonpayable",
			"type": "function"
		},
		{
			"inputs": [],
			"name": "buyTokensPublic",
			"outputs": [],
			"stateMutability": "payable",
			"type": "function"
		},
		{
			"inputs": [
				{
					"internalType": "bytes",
					"name": "signature",
					"type": "bytes"
				}
			],
			"name": "buyTokensWhitelist",
			"outputs": [],
			"stateMutability": "payable",
			"type": "function"
		},
		{
			"inputs": [],
			"name": "claimStaleEth",
			"outputs": [],
			"stateMutability": "nonpayable",
			"type": "function"
		},
		{
			"inputs": [],
			"name": "claimTokens",
			"outputs": [],
			"stateMutability": "nonpayable",
			"type": "function"
		},
		{
			"inputs": [],
			"name": "deadAddress",
			"outputs": [
				{
					"internalType": "address",
					"name": "",
					"type": "address"
				}
			],
			"stateMutability": "view",
			"type": "function"
		},
		{
			"inputs": [],
			"name": "description",
			"outputs": [
				{
					"internalType": "string",
					"name": "",
					"type": "string"
				}
			],
			"stateMutability": "view",
			"type": "function"
		},
		{
			"inputs": [],
			"name": "endSaleAllowClaim",
			"outputs": [],
			"stateMutability": "nonpayable",
			"type": "function"
		},
		{
			"inputs": [],
			"name": "endTime",
			"outputs": [
				{
					"internalType": "uint256",
					"name": "",
					"type": "uint256"
				}
			],
			"stateMutability": "view",
			"type": "function"
		},
		{
			"inputs": [],
			"name": "factory",
			"outputs": [
				{
					"internalType": "contract IUniswapV2Factory",
					"name": "",
					"type": "address"
				}
			],
			"stateMutability": "view",
			"type": "function"
		},
		{
			"inputs": [],
			"name": "feeBP",
			"outputs": [
				{
					"internalType": "uint256",
					"name": "",
					"type": "uint256"
				}
			],
			"stateMutability": "view",
			"type": "function"
		},
		{
			"inputs": [],
			"name": "finalizeSale",
			"outputs": [],
			"stateMutability": "nonpayable",
			"type": "function"
		},
		{
			"inputs": [],
			"name": "hardcap",
			"outputs": [
				{
					"internalType": "uint256",
					"name": "",
					"type": "uint256"
				}
			],
			"stateMutability": "view",
			"type": "function"
		},
		{
			"inputs": [],
			"name": "imageUrl",
			"outputs": [
				{
					"internalType": "string",
					"name": "",
					"type": "string"
				}
			],
			"stateMutability": "view",
			"type": "function"
		},
		{
			"inputs": [],
			"name": "liquidityLockDuration",
			"outputs": [
				{
					"internalType": "uint256",
					"name": "",
					"type": "uint256"
				}
			],
			"stateMutability": "view",
			"type": "function"
		},
		{
			"inputs": [],
			"name": "liquidityShareBP",
			"outputs": [
				{
					"internalType": "uint256",
					"name": "",
					"type": "uint256"
				}
			],
			"stateMutability": "view",
			"type": "function"
		},
		{
			"inputs": [],
			"name": "listingTokensPerOneEth",
			"outputs": [
				{
					"internalType": "uint256",
					"name": "",
					"type": "uint256"
				}
			],
			"stateMutability": "view",
			"type": "function"
		},
		{
			"inputs": [],
			"name": "master",
			"outputs": [
				{
					"internalType": "contract ILaunchpadMaster",
					"name": "",
					"type": "address"
				}
			],
			"stateMutability": "view",
			"type": "function"
		},
		{
			"inputs": [],
			"name": "maxBuyPerUser",
			"outputs": [
				{
					"internalType": "uint256",
					"name": "",
					"type": "uint256"
				}
			],
			"stateMutability": "view",
			"type": "function"
		},
		{
			"inputs": [],
			"name": "minBuyPerUser",
			"outputs": [
				{
					"internalType": "uint256",
					"name": "",
					"type": "uint256"
				}
			],
			"stateMutability": "view",
			"type": "function"
		},
		{
			"inputs": [],
			"name": "paused",
			"outputs": [
				{
					"internalType": "bool",
					"name": "",
					"type": "bool"
				}
			],
			"stateMutability": "view",
			"type": "function"
		},
		{
			"inputs": [],
			"name": "recipient",
			"outputs": [
				{
					"internalType": "address payable",
					"name": "",
					"type": "address"
				}
			],
			"stateMutability": "view",
			"type": "function"
		},
		{
			"inputs": [],
			"name": "router",
			"outputs": [
				{
					"internalType": "contract IUniswapV2Router02",
					"name": "",
					"type": "address"
				}
			],
			"stateMutability": "view",
			"type": "function"
		},
		{
			"inputs": [],
			"name": "saleAborted",
			"outputs": [
				{
					"internalType": "bool",
					"name": "",
					"type": "bool"
				}
			],
			"stateMutability": "view",
			"type": "function"
		},
		{
			"inputs": [],
			"name": "saleEnded",
			"outputs": [
				{
					"internalType": "bool",
					"name": "",
					"type": "bool"
				}
			],
			"stateMutability": "view",
			"type": "function"
		},
		{
			"inputs": [],
			"name": "saleFinalized",
			"outputs": [
				{
					"internalType": "bool",
					"name": "",
					"type": "bool"
				}
			],
			"stateMutability": "view",
			"type": "function"
		},
		{
			"inputs": [],
			"name": "saleId",
			"outputs": [
				{
					"internalType": "uint256",
					"name": "",
					"type": "uint256"
				}
			],
			"stateMutability": "view",
			"type": "function"
		},
		{
			"inputs": [],
			"name": "saleInitiator",
			"outputs": [
				{
					"internalType": "address payable",
					"name": "",
					"type": "address"
				}
			],
			"stateMutability": "view",
			"type": "function"
		},
		{
			"inputs": [],
			"name": "saleTokensPerOneEth",
			"outputs": [
				{
					"internalType": "uint256",
					"name": "",
					"type": "uint256"
				}
			],
			"stateMutability": "view",
			"type": "function"
		},
		{
			"inputs": [],
			"name": "signer",
			"outputs": [
				{
					"internalType": "address",
					"name": "",
					"type": "address"
				}
			],
			"stateMutability": "view",
			"type": "function"
		},
		{
			"inputs": [],
			"name": "softcap",
			"outputs": [
				{
					"internalType": "uint256",
					"name": "",
					"type": "uint256"
				}
			],
			"stateMutability": "view",
			"type": "function"
		},
		{
			"inputs": [
				{
					"internalType": "bytes",
					"name": "sig",
					"type": "bytes"
				}
			],
			"name": "splitSignature",
			"outputs": [
				{
					"internalType": "uint8",
					"name": "",
					"type": "uint8"
				},
				{
					"internalType": "bytes32",
					"name": "",
					"type": "bytes32"
				},
				{
					"internalType": "bytes32",
					"name": "",
					"type": "bytes32"
				}
			],
			"stateMutability": "pure",
			"type": "function"
		},
		{
			"inputs": [],
			"name": "startTime",
			"outputs": [
				{
					"internalType": "uint256",
					"name": "",
					"type": "uint256"
				}
			],
			"stateMutability": "view",
			"type": "function"
		},
		{
			"inputs": [],
			"name": "teamVestDuration",
			"outputs": [
				{
					"internalType": "uint256",
					"name": "",
					"type": "uint256"
				}
			],
			"stateMutability": "view",
			"type": "function"
		},
		{
			"inputs": [],
			"name": "teamVestEnabled",
			"outputs": [
				{
					"internalType": "bool",
					"name": "",
					"type": "bool"
				}
			],
			"stateMutability": "view",
			"type": "function"
		},
		{
			"inputs": [],
			"name": "token",
			"outputs": [
				{
					"internalType": "contract IERC20",
					"name": "",
					"type": "address"
				}
			],
			"stateMutability": "view",
			"type": "function"
		},
		{
			"inputs": [],
			"name": "tokenAmountForLiquidity",
			"outputs": [
				{
					"internalType": "uint256",
					"name": "",
					"type": "uint256"
				}
			],
			"stateMutability": "view",
			"type": "function"
		},
		{
			"inputs": [],
			"name": "tokenAmountForSale",
			"outputs": [
				{
					"internalType": "uint256",
					"name": "",
					"type": "uint256"
				}
			],
			"stateMutability": "view",
			"type": "function"
		},
		{
			"inputs": [],
			"name": "tokenTotalAmount",
			"outputs": [
				{
					"internalType": "uint256",
					"name": "",
					"type": "uint256"
				}
			],
			"stateMutability": "view",
			"type": "function"
		},
		{
			"inputs": [],
			"name": "totalBuyEth",
			"outputs": [
				{
					"internalType": "uint256",
					"name": "",
					"type": "uint256"
				}
			],
			"stateMutability": "view",
			"type": "function"
		},
		{
			"inputs": [],
			"name": "totalBuyTokens",
			"outputs": [
				{
					"internalType": "uint256",
					"name": "",
					"type": "uint256"
				}
			],
			"stateMutability": "view",
			"type": "function"
		},
		{
			"inputs": [
				{
					"internalType": "address",
					"name": "",
					"type": "address"
				}
			],
			"name": "userBuyAmount",
			"outputs": [
				{
					"internalType": "uint256",
					"name": "",
					"type": "uint256"
				}
			],
			"stateMutability": "view",
			"type": "function"
		},
		{
			"inputs": [],
			"name": "userVestDuration",
			"outputs": [
				{
					"internalType": "uint256",
					"name": "",
					"type": "uint256"
				}
			],
			"stateMutability": "view",
			"type": "function"
		},
		{
			"inputs": [],
			"name": "userVestEnabled",
			"outputs": [
				{
					"internalType": "bool",
					"name": "",
					"type": "bool"
				}
			],
			"stateMutability": "view",
			"type": "function"
		},
		{
			"inputs": [
				{
					"internalType": "address",
					"name": "",
					"type": "address"
				}
			],
			"name": "usersVestingWallets",
			"outputs": [
				{
					"internalType": "address",
					"name": "",
					"type": "address"
				}
			],
			"stateMutability": "view",
			"type": "function"
		},
		{
			"inputs": [
				{
					"internalType": "bytes",
					"name": "signature",
					"type": "bytes"
				},
				{
					"internalType": "address",
					"name": "_target",
					"type": "address"
				},
				{
					"internalType": "uint256",
					"name": "_saleId",
					"type": "uint256"
				},
				{
					"internalType": "uint256",
					"name": "_chainId",
					"type": "uint256"
				}
			],
			"name": "verify",
			"outputs": [
				{
					"internalType": "bool",
					"name": "",
					"type": "bool"
				}
			],
			"stateMutability": "view",
			"type": "function"
		},
		{
			"inputs": [],
			"name": "whitelistEnabled",
			"outputs": [
				{
					"internalType": "bool",
					"name": "",
					"type": "bool"
				}
			],
			"stateMutability": "view",
			"type": "function"
		},
		{
			"inputs": [],
			"name": "wlStartTime",
			"outputs": [
				{
					"internalType": "uint256",
					"name": "",
					"type": "uint256"
				}
			],
			"stateMutability": "view",
			"type": "function"
		}
	]
}