{
  "abi": [
    {
      "inputs": [
        {
          "internalType": "uint256",
          "name": "_feesBP",
          "type": "uint256"
        },
        {
          "internalType": "uint256",
          "name": "_startSaleId",
          "type": "uint256"
        },
        {
          "internalType": "address",
          "name": "_signer",
          "type": "address"
        },
        {
          "internalType": "address",
          "name": "_feesWallet",
          "type": "address"
        },
        {
          "internalType": "uint256",
          "name": "_deployFee",
          "type": "uint256"
        }
      ],
      "stateMutability": "nonpayable",
      "type": "constructor"
    },
    {
      "anonymous": false,
      "inputs": [
        {
          "indexed": false,
          "internalType": "address",
          "name": "addr",
          "type": "address"
        },
        {
          "indexed": false,
          "internalType": "uint256",
          "name": "salt",
          "type": "uint256"
        }
      ],
      "name": "Deployed",
      "type": "event"
    },
    {
      "anonymous": false,
      "inputs": [
        {
          "indexed": true,
          "internalType": "address",
          "name": "previousOwner",
          "type": "address"
        },
        {
          "indexed": true,
          "internalType": "address",
          "name": "newOwner",
          "type": "address"
        }
      ],
      "name": "OwnershipTransferred",
      "type": "event"
    },
    {
      "anonymous": false,
      "inputs": [
        {
          "indexed": false,
          "internalType": "address",
          "name": "account",
          "type": "address"
        }
      ],
      "name": "Paused",
      "type": "event"
    },
    {
      "anonymous": false,
      "inputs": [
        {
          "indexed": false,
          "internalType": "address",
          "name": "account",
          "type": "address"
        }
      ],
      "name": "Unpaused",
      "type": "event"
    },
    {
      "inputs": [
        {
          "internalType": "address",
          "name": "",
          "type": "address"
        }
      ],
      "name": "addressToSaleId",
      "outputs": [
        {
          "internalType": "uint256",
          "name": "",
          "type": "uint256"
        }
      ],
      "stateMutability": "view",
      "type": "function"
    },
    {
      "inputs": [],
      "name": "claimFees",
      "outputs": [],
      "stateMutability": "nonpayable",
      "type": "function"
    },
    {
      "inputs": [
        {
          "internalType": "address",
          "name": "_token",
          "type": "address"
        },
        {
          "internalType": "string",
          "name": "_description",
          "type": "string"
        },
        {
          "internalType": "string",
          "name": "_imageUrl",
          "type": "string"
        },
        {
          "internalType": "uint256[9]",
          "name": "_saleInputs",
          "type": "uint256[9]"
        },
        {
          "internalType": "bool",
          "name": "_whitelistEnabled",
          "type": "bool"
        },
        {
          "internalType": "uint256",
          "name": "_wlStartTime",
          "type": "uint256"
        },
        {
          "internalType": "uint256",
          "name": "_liquidityLockDuration",
          "type": "uint256"
        },
        {
          "internalType": "address",
          "name": "_router",
          "type": "address"
        }
      ],
      "name": "createPresale",
      "outputs": [
        {
          "internalType": "address",
          "name": "presaleAddress",
          "type": "address"
        }
      ],
      "stateMutability": "payable",
      "type": "function"
    },
    {
      "inputs": [],
      "name": "currentSaleId",
      "outputs": [
        {
          "internalType": "uint256",
          "name": "",
          "type": "uint256"
        }
      ],
      "stateMutability": "view",
      "type": "function"
    },
    {
      "inputs": [
        {
          "internalType": "bytes",
          "name": "bytecode",
          "type": "bytes"
        },
        {
          "internalType": "uint256",
          "name": "_salt",
          "type": "uint256"
        }
      ],
      "name": "deploy",
      "outputs": [
        {
          "internalType": "address",
          "name": "",
          "type": "address"
        }
      ],
      "stateMutability": "payable",
      "type": "function"
    },
    {
      "inputs": [],
      "name": "deployFee",
      "outputs": [
        {
          "internalType": "uint256",
          "name": "",
          "type": "uint256"
        }
      ],
      "stateMutability": "view",
      "type": "function"
    },
    {
      "inputs": [],
      "name": "feesBP",
      "outputs": [
        {
          "internalType": "uint256",
          "name": "",
          "type": "uint256"
        }
      ],
      "stateMutability": "view",
      "type": "function"
    },
    {
      "inputs": [],
      "name": "feesWallet",
      "outputs": [
        {
          "internalType": "address payable",
          "name": "",
          "type": "address"
        }
      ],
      "stateMutability": "view",
      "type": "function"
    },
    {
      "inputs": [
        {
          "internalType": "bytes",
          "name": "bytecode",
          "type": "bytes"
        },
        {
          "internalType": "uint256",
          "name": "_salt",
          "type": "uint256"
        }
      ],
      "name": "getAddress",
      "outputs": [
        {
          "internalType": "address",
          "name": "",
          "type": "address"
        }
      ],
      "stateMutability": "view",
      "type": "function"
    },
    {
      "inputs": [],
      "name": "inDeploy",
      "outputs": [
        {
          "internalType": "bool",
          "name": "",
          "type": "bool"
        }
      ],
      "stateMutability": "view",
      "type": "function"
    },
    {
      "inputs": [],
      "name": "owner",
      "outputs": [
        {
          "internalType": "address",
          "name": "",
          "type": "address"
        }
      ],
      "stateMutability": "view",
      "type": "function"
    },
    {
      "inputs": [],
      "name": "paused",
      "outputs": [
        {
          "internalType": "bool",
          "name": "",
          "type": "bool"
        }
      ],
      "stateMutability": "view",
      "type": "function"
    },
    {
      "inputs": [],
      "name": "renounceOwnership",
      "outputs": [],
      "stateMutability": "nonpayable",
      "type": "function"
    },
    {
      "inputs": [
        {
          "internalType": "uint256",
          "name": "",
          "type": "uint256"
        }
      ],
      "name": "saleIdToAddress",
      "outputs": [
        {
          "internalType": "address",
          "name": "",
          "type": "address"
        }
      ],
      "stateMutability": "view",
      "type": "function"
    },
    {
      "inputs": [
        {
          "internalType": "uint256",
          "name": "",
          "type": "uint256"
        }
      ],
      "name": "saleToSigner",
      "outputs": [
        {
          "internalType": "address",
          "name": "",
          "type": "address"
        }
      ],
      "stateMutability": "view",
      "type": "function"
    },
    {
      "inputs": [],
      "name": "signer",
      "outputs": [
        {
          "internalType": "address",
          "name": "",
          "type": "address"
        }
      ],
      "stateMutability": "view",
      "type": "function"
    },
    {
      "inputs": [],
      "name": "startSaleId",
      "outputs": [
        {
          "internalType": "uint256",
          "name": "",
          "type": "uint256"
        }
      ],
      "stateMutability": "view",
      "type": "function"
    },
    {
      "inputs": [
        {
          "internalType": "address",
          "name": "newOwner",
          "type": "address"
        }
      ],
      "name": "transferOwnership",
      "outputs": [],
      "stateMutability": "nonpayable",
      "type": "function"
    }
  ],
  "bytecode": "608060405234801561001057600080fd5b506040516200368a3803806200368a833981016040819052610031916100f3565b61003a33610087565b600180556002805460ff19169055600794909455600b80546001600160a01b03199081166001600160a01b0393841617909155600693909355600a80549093169116179055600955610143565b600080546001600160a01b038381166001600160a01b0319831681178455604051919092169283917f8be0079c531659141344cd1fd0a4f28419497f9722a3daafe3b4186f6b6457e09190a35050565b80516001600160a01b03811681146100ee57600080fd5b919050565b600080600080600060a0868803121561010b57600080fd5b8551945060208601519350610122604087016100d7565b9250610130606087016100d7565b9150608086015190509295509295909350565b61353780620001536000396000f3fe6080604052600436106200011f5760003560e01c80638da5cb5b11620000a1578063d294f093116200006c578063d294f09314620002f1578063dafdeb1a1462000309578063e7689193146200033a578063eb2a5d2c1462000374578063f2fde38b146200038c57600080fd5b80638da5cb5b146200025b57806394ca2cb5146200027b5780639c4ae2d014620002a0578063b1d2ef9014620002b757600080fd5b80635c975abb11620000ee5780635c975abb14620001d5578063715018a614620001ef57806373dc1349146200020957806374a5f8d214620002215780637e44d2cc146200023957600080fd5b80630562c2641462000124578063238ac933146200015c5780632e8498941462000197578063553b3bd414620001be575b600080fd5b3480156200013157600080fd5b50600b546200014790600160a01b900460ff1681565b60405190151581526020015b60405180910390f35b3480156200016957600080fd5b50600a546200017e906001600160a01b031681565b6040516001600160a01b03909116815260200162000153565b348015620001a457600080fd5b50620001af60065481565b60405190815260200162000153565b6200017e620001cf36600462000cad565b620003b1565b348015620001e257600080fd5b5060025460ff1662000147565b348015620001fc57600080fd5b5062000207620007eb565b005b3480156200021657600080fd5b50620001af60075481565b3480156200022e57600080fd5b50620001af60085481565b3480156200024657600080fd5b50600b546200017e906001600160a01b031681565b3480156200026857600080fd5b506000546001600160a01b03166200017e565b3480156200028857600080fd5b506200017e6200029a36600462000de4565b62000826565b6200017e620002b136600462000de4565b62000882565b348015620002c457600080fd5b506200017e620002d636600462000e42565b6005602052600090815260409020546001600160a01b031681565b348015620002fe57600080fd5b5062000207620009d1565b3480156200031657600080fd5b50620001af6200032836600462000c8f565b60046020526000908152604090205481565b3480156200034757600080fd5b506200017e6200035936600462000e42565b6003602052600090815260409020546001600160a01b031681565b3480156200038157600080fd5b50620001af60095481565b3480156200039957600080fd5b5062000207620003ab36600462000c8f565b62000abe565b6000620003c060025460ff1690565b15620004065760405162461bcd60e51b815260206004820152601060248201526f14185d5cd8589b194e881c185d5cd95960821b60448201526064015b60405180910390fd5b600260015414156200045b5760405162461bcd60e51b815260206004820152601f60248201527f5265656e7472616e637947756172643a207265656e7472616e742063616c6c006044820152606401620003fd565b6002600155600954341015620004aa5760405162461bcd60e51b81526020600482015260136024820152721b9bdd08195b9bdd59da08195d1a081cd95b9d606a1b6044820152606401620003fd565b600654620004ba90600162000fe2565b6006819055600a54600091825260056020908152604080842080546001600160a01b0319166001600160a01b03909416939093179092559051906200050190820162000bb0565b601f1982820381018352601f90910116604081905262000534908c908c908c908c908c908c908c908c9060200162000ed7565b60408051601f198184030181529082905262000554929160200162000ea4565b60405160208183030381529060405290506000620005758260065462000826565b88516040516323b872dd60e01b81523360048201526001600160a01b03808416602483015260448201929092529192508c16906323b872dd90606401602060405180830381600087803b158015620005cc57600080fd5b505af1158015620005e1573d6000803e3d6000fd5b505050506040513d601f19601f8201168201806040525081019062000607919062000dc4565b5087516040516370a0823160e01b81526001600160a01b0383811660048301528d16906370a082319060240160206040518083038186803b1580156200064c57600080fd5b505afa15801562000661573d6000803e3d6000fd5b505050506040513d601f19601f8201168201806040525081019062000687919062000e5c565b14620006e45760405162461bcd60e51b815260206004820152602560248201527f796f75206469646e27742077686974656c697374207468652073616c65206164604482015264647265737360d81b6064820152608401620003fd565b600b805460ff60a01b1916600160a01b1790556006546000906200070a90849062000882565b600b805460ff60a01b1916905590506001600160a01b03828116908216146200079c5760405162461bcd60e51b815260206004820152603860248201527f636f6d7075746564206164647265737320616e642061637475616c206465706c60448201527f6f79206164647265737320617265206e6f7420657175616c00000000000000006064820152608401620003fd565b5060068054600090815260036020908152604080832080546001600160a01b039096166001600160a01b0319909616861790559254938252600490522055506001805598975050505050505050565b6000546001600160a01b03163314620008185760405162461bcd60e51b8152600401620003fd9062000f80565b62000824600062000b60565b565b8151602092830120604080516001600160f81b0319818601523060601b6bffffffffffffffffffffffff191660218201526035810193909352605580840192909252805180840390920182526075909201909152805191012090565b60006200089160025460ff1690565b15620008d35760405162461bcd60e51b815260206004820152601060248201526f14185d5cd8589b194e881c185d5cd95960821b6044820152606401620003fd565b6009543410156200091d5760405162461bcd60e51b81526020600482015260136024820152721b9bdd08195b9bdd59da08195d1a081cd95b9d606a1b6044820152606401620003fd565b600b54600160a01b900460ff166200096e5760405162461bcd60e51b8152602060048201526013602482015272756e617574686f72697a6564206465706c6f7960681b6044820152606401620003fd565b6000828451602086016000f59050803b6200098857600080fd5b604080516001600160a01b0383168152602081018590527fb03c53b28e78a88e31607a27e1fa48234dce28d5d9d9ec7b295aeb02e674a1e1910160405180910390a19392505050565b6000546001600160a01b03163314620009fe5760405162461bcd60e51b8152600401620003fd9062000f80565b6002600154141562000a535760405162461bcd60e51b815260206004820152601f60248201527f5265656e7472616e637947756172643a207265656e7472616e742063616c6c006044820152606401620003fd565b60026001556000546001600160a01b03166001600160a01b03164760405160006040518083038185875af1925050503d806000811462000ab0576040519150601f19603f3d011682016040523d82523d6000602084013e62000ab5565b606091505b50506001805550565b6000546001600160a01b0316331462000aeb5760405162461bcd60e51b8152600401620003fd9062000f80565b6001600160a01b03811662000b525760405162461bcd60e51b815260206004820152602660248201527f4f776e61626c653a206e6577206f776e657220697320746865207a65726f206160448201526564647265737360d01b6064820152608401620003fd565b62000b5d8162000b60565b50565b600080546001600160a01b038381166001600160a01b0319831681178455604051919092169283917f8be0079c531659141344cd1fd0a4f28419497f9722a3daafe3b4186f6b6457e09190a35050565b6124a0806200106283390190565b600067ffffffffffffffff8084111562000bdc5762000bdc6200103c565b604051601f8501601f19908116603f0116810190828211818310171562000c075762000c076200103c565b8160405280935085815286868601111562000c2157600080fd5b858560208301376000602087830101525050509392505050565b80356001600160a01b038116811462000c5357600080fd5b919050565b803562000c538162001052565b600082601f83011262000c7757600080fd5b62000c888383356020850162000bbe565b9392505050565b60006020828403121562000ca257600080fd5b62000c888262000c3b565b600080600080600080600080610200898b03121562000ccb57600080fd5b62000cd68962000c3b565b97506020808a013567ffffffffffffffff8082111562000cf557600080fd5b62000d038d838e0162000c65565b995060408c013591508082111562000d1a57600080fd5b5062000d298c828d0162000c65565b9750508a607f8b011262000d3c57600080fd5b62000d4662000fb5565b8060608c016101808d018e81111562000d5e57600080fd5b60005b600981101562000d805782358552938501939185019160010162000d61565b5082995062000d8f8162000c58565b985050505050506101a089013592506101c0890135915062000db56101e08a0162000c3b565b90509295985092959890939650565b60006020828403121562000dd757600080fd5b815162000c888162001052565b6000806040838503121562000df857600080fd5b823567ffffffffffffffff81111562000e1057600080fd5b8301601f8101851362000e2257600080fd5b62000e338582356020840162000bbe565b95602094909401359450505050565b60006020828403121562000e5557600080fd5b5035919050565b60006020828403121562000e6f57600080fd5b5051919050565b6000815180845262000e9081602086016020860162001009565b601f01601f19169290920160200192915050565b6000835162000eb881846020880162001009565b83519083019062000ece81836020880162001009565b01949350505050565b6001600160a01b038916815261020060208083018290526000919062000f008483018c62000e76565b9150838203604085015262000f16828b62000e76565b92506060840191508860005b600981101562000f415781518452928201929082019060010162000f22565b50505050851515610180830152846101a0830152836101c083015262000f736101e08301846001600160a01b03169052565b9998505050505050505050565b6020808252818101527f4f776e61626c653a2063616c6c6572206973206e6f7420746865206f776e6572604082015260600190565b604051610120810167ffffffffffffffff8111828210171562000fdc5762000fdc6200103c565b60405290565b600082198211156200100457634e487b7160e01b600052601160045260246000fd5b500190565b60005b83811015620010265781810151838201526020016200100c565b8381111562001036576000848401525b50505050565b634e487b7160e01b600052604160045260246000fd5b801515811462000b5d57600080fdfe6080604052601380546301000000600160b81b03191664dead0000001790553480156200002b57600080fd5b50604051620024a0380380620024a08339810160408190526200004e91620006d5565b60016000819055805460ff19169055601880546001600160a01b0319166001600160a01b038b1617905587516200008d90601a9060208b019062000547565b508651620000a390601b9060208a019062000547565b50855160025560208601516003556040860151600481905560608701516005819055608088015160075560a088015160085560c088015160095560e0880151600f556101008801516010559061271090620000ff9082620008be565b6002546200010e91906200089c565b6200011a919062000879565b62000126919062000879565b600b556005546200013a9060029062000879565b6006556004546002546127109162000152916200089c565b6200015e919062000879565b6012819055600254620001729190620008be565b60115560075461271090620001889082620008be565b6005546200019791906200089c565b620001a3919062000879565b600354601254620001b5919062000879565b11620002475760405162461bcd60e51b815260206004820152605060248201527f6e6f7420656e6f7567682045544820666f72206c69717569646974792c20696e60448201527f637265617365206c697374696e67207072696365206f7220646563726561736560648201526f206c697175696469747920736861726560801b608482015260a4015b60405180910390fd5b6002546018546040516370a0823160e01b81523060048201526001600160a01b03909116906370a082319060240160206040518083038186803b1580156200028e57600080fd5b505afa158015620002a3573d6000803e3d6000fd5b505050506040513d601f19601f82011682018060405250810190620002c9919062000800565b146200032f5760405162461bcd60e51b815260206004820152602e60248201527f696e636f727265637420616d6f756e74206f6620746f6b656e732073656e742060448201526d746f20746865206164647265737360901b60648201526084016200023e565b600c8390556013805462ff000019166201000087151502179055600a84905560085484106200035d57600080fd5b601580546001600160a01b03191633908117909155604051636d7ef58d60e11b815230600482015263dafdeb1a9060240160206040518083038186803b158015620003a757600080fd5b505afa158015620003bc573d6000803e3d6000fd5b505050506040513d601f19601f82011682018060405250810190620003e2919062000800565b6019819055601554604051630b1d2ef960e41b815260048101929092526001600160a01b03169063b1d2ef909060240160206040518083038186803b1580156200042b57600080fd5b505afa15801562000440573d6000803e3d6000fd5b505050506040513d601f19601f82011682018060405250810190620004669190620006b0565b601480546001600160a01b0319166001600160a01b0392831617905560155460408051631f9134b360e21b815290519190921691637e44d2cc916004808301926020929190829003018186803b158015620004c057600080fd5b505afa158015620004d5573d6000803e3d6000fd5b505050506040513d601f19601f82011682018060405250810190620004fb9190620006b0565b601c80546001600160a01b03199081166001600160a01b0393841617909155601d8054821693831693909317909255601680549092169216919091179055506200094195505050505050565b8280546200055590620008d8565b90600052602060002090601f016020900481019282620005795760008555620005c4565b82601f106200059457805160ff1916838001178555620005c4565b82800160010185558215620005c4579182015b82811115620005c4578251825591602001919060010190620005a7565b50620005d2929150620005d6565b5090565b5b80821115620005d25760008155600101620005d7565b80516001600160a01b03811681146200060557600080fd5b919050565b805180151581146200060557600080fd5b600082601f8301126200062d57600080fd5b81516001600160401b038111156200064957620006496200092b565b60206200065f601f8301601f1916820162000846565b82815285828487010111156200067457600080fd5b60005b838110156200069457858101830151828201840152820162000677565b83811115620006a65760008385840101525b5095945050505050565b600060208284031215620006c357600080fd5b620006ce82620005ed565b9392505050565b60008060008060008060008060006102208a8c031215620006f557600080fd5b620007008a620005ed565b60208b810151919a50906001600160401b03808211156200072057600080fd5b6200072e8e838f016200061b565b9a5060408d01519150808211156200074557600080fd5b50620007548d828e016200061b565b9850508b607f8c01126200076757600080fd5b620007716200081a565b8060608d016101808e018f8111156200078957600080fd5b60005b6009811015620007ab578251855293850193918501916001016200078c565b50829a50620007ba816200060a565b995050505050506101a08a015193506101c08a01519250620007e06101e08b01620005ed565b9150620007f16102008b01620005ed565b90509295985092959850929598565b6000602082840312156200081357600080fd5b5051919050565b60405161012081016001600160401b03811182821017156200084057620008406200092b565b60405290565b604051601f8201601f191681016001600160401b03811182821017156200087157620008716200092b565b604052919050565b6000826200089757634e487b7160e01b600052601260045260246000fd5b500490565b6000816000190483118215151615620008b957620008b962000915565b500290565b600082821015620008d357620008d362000915565b500390565b600181811c90821680620008ed57607f821691505b602082108114156200090f57634e487b7160e01b600052602260045260246000fd5b50919050565b634e487b7160e01b600052601160045260246000fd5b634e487b7160e01b600052604160045260246000fd5b611b4f80620009516000396000f3fe6080604052600436106102725760003560e01c806385bf49461161014f578063bca1da85116100c1578063de284b3a1161007a578063de284b3a146106c1578063e49dce66146106d7578063ea44c1bc146106f7578063f887ea401461070d578063f89be5931461072d578063fc0c546a1461074357600080fd5b8063bca1da8514610625578063be9feb3014610645578063c45a01551461065b578063c7bf51661461067b578063c84c038714610691578063d4b9de51146106a757600080fd5b8063a5f0dea211610113578063a5f0dea214610575578063a611dc371461058f578063a7bb5803146105a5578063aba83150146105e4578063b071cbe6146105f9578063b1c09b2a1461060f57600080fd5b806385bf4946146105045780638f5d036b14610523578063957f1474146105385780639b8906ae14610540578063a0f7ab351461055f57600080fd5b806351fb012d116101e857806366d003ac116101ac57806366d003ac146104535780636b7f3df3146104735780636ef2e4d3146104a05780637284e416146104b657806378e97925146104d857806383b17fdd146104ee57600080fd5b806351fb012d146103c357806358a687ec146103f357806359663174146104085780635c975abb1461041b57806364db812e1461043357600080fd5b806327a72c961161023a57806327a72c96146102f857806327c8f8351461030e5780633197cbb61461034d5780633c8760811461036357806348c54b9d146103985780634ae01d52146103ad57600080fd5b8063017f6fae14610277578063039ce157146102a057806303bcf11d146102b657806312e409c5146102cd578063201a3419146102e3575b600080fd5b34801561028357600080fd5b5061028d60075481565b6040519081526020015b60405180910390f35b3480156102ac57600080fd5b5061028d60115481565b3480156102c257600080fd5b506102cb610763565b005b3480156102d957600080fd5b5061028d60105481565b3480156102ef57600080fd5b506102cb610851565b34801561030457600080fd5b5061028d600e5481565b34801561031a57600080fd5b5060135461033590630100000090046001600160a01b031681565b6040516001600160a01b039091168152602001610297565b34801561035957600080fd5b5061028d60095481565b34801561036f57600080fd5b5061033561037e366004611794565b60208052600090815260409020546001600160a01b031681565b3480156103a457600080fd5b506102cb610b5a565b3480156103b957600080fd5b5061028d600c5481565b3480156103cf57600080fd5b506013546103e39062010000900460ff1681565b6040519015158152602001610297565b3480156103ff57600080fd5b506102cb610d4f565b6102cb6104163660046117d8565b610eba565b34801561042757600080fd5b5060015460ff166103e3565b34801561043f57600080fd5b50601f546103e39062010000900460ff1681565b34801561045f57600080fd5b50601c54610335906001600160a01b031681565b34801561047f57600080fd5b5061028d61048e366004611794565b60216020526000908152604090205481565b3480156104ac57600080fd5b5061028d60125481565b3480156104c257600080fd5b506104cb611123565b60405161029791906118b9565b3480156104e457600080fd5b5061028d60085481565b3480156104fa57600080fd5b5061028d60025481565b34801561051057600080fd5b506013546103e390610100900460ff1681565b34801561052f57600080fd5b506102cb6111b1565b6102cb611386565b34801561054c57600080fd5b50601f546103e390610100900460ff1681565b34801561056b57600080fd5b5061028d60035481565b34801561058157600080fd5b50601f546103e39060ff1681565b34801561059b57600080fd5b5061028d60045481565b3480156105b157600080fd5b506105c56105c03660046117d8565b6115d7565b6040805160ff9094168452602084019290925290820152606001610297565b3480156105f057600080fd5b506104cb611606565b34801561060557600080fd5b5061028d60055481565b34801561061b57600080fd5b5061028d601e5481565b34801561063157600080fd5b50601d54610335906001600160a01b031681565b34801561065157600080fd5b5061028d600a5481565b34801561066757600080fd5b50601754610335906001600160a01b031681565b34801561068757600080fd5b5061028d600b5481565b34801561069d57600080fd5b5061028d60195481565b3480156106b357600080fd5b506013546103e39060ff1681565b3480156106cd57600080fd5b5061028d600f5481565b3480156106e357600080fd5b506103e36106f2366004611815565b611613565b34801561070357600080fd5b5061028d600d5481565b34801561071957600080fd5b50601654610335906001600160a01b031681565b34801561073957600080fd5b5061028d60065481565b34801561074f57600080fd5b50601854610335906001600160a01b031681565b601d546001600160a01b031633146107965760405162461bcd60e51b815260040161078d906119a5565b60405180910390fd5b601f54610100900460ff16156107ee5760405162461bcd60e51b815260206004820152601c60248201527f636c61696d696e672068617320616c7265616479207374617274656400000000604482015260640161078d565b601f5462010000900460ff161561083e5760405162461bcd60e51b81526020600482015260146024820152731cd85b1948185b1c9958591e4818589bdc9d195960621b604482015260640161078d565b601f805462ff0000191662010000179055565b601d546001600160a01b0316331461087b5760405162461bcd60e51b815260040161078d906119a5565b6002600054141561089e5760405162461bcd60e51b815260040161078d90611a22565b6002600055601f5462010000900460ff16156108ef5760405162461bcd60e51b815260206004820152601060248201526f1cd85b19481dd85cc818589bdc9d195960821b604482015260640161078d565b601f5460ff166109395760405162461bcd60e51b81526020600482015260156024820152741cd85b19481dd85cdb89dd08199a5b985b1a5e9959605a1b604482015260640161078d565b60095442101561094857600080fd5b60055460065460025461095b9190611a93565b6109659190611a71565b601e54116109b55760405162461bcd60e51b815260206004820152601b60248201527f6e6f7420656e6f75676820746f6b656e73207765726520736f6c640000000000604482015260640161078d565b601f805461ff001916610100179055600354601e546000916109d691611a71565b90506000600254601e546012546109ed9190611a93565b6109f79190611a71565b60185460165460405163095ea7b360e01b81526001600160a01b03918216600482015260248101849052929350169063095ea7b390604401602060405180830381600087803b158015610a4957600080fd5b505af1158015610a5d573d6000803e3d6000fd5b505050506040513d601f19601f82011682018060405250810190610a8191906117b6565b506016546018546001600160a01b039182169163f305d719918591168460008030610aad426064611a59565b60405160e089901b6001600160e01b03191681526001600160a01b039687166004820152602481019590955260448501939093526064840191909152909216608482015260a481019190915260c4016060604051808303818588803b158015610b1557600080fd5b505af1158015610b29573d6000803e3d6000fd5b50505050506040513d601f19601f82011682018060405250810190610b4e919061188b565b50506001600055505050565b60026000541415610b7d5760405162461bcd60e51b815260040161078d90611a22565b60026000556009544211610bc75760405162461bcd60e51b81526020600482015260116024820152701cd85b19481a185cdb89dd08195b991959607a1b604482015260640161078d565b33600090815260216020526040902054610c235760405162461bcd60e51b815260206004820152601f60248201527f75736572206861736e277420616e7920746f6b656e7320746f20636c61696d00604482015260640161078d565b601f54610100900460ff16610c865760405162461bcd60e51b815260206004820152602360248201527f696e69746961746f72206861736e277420656e646564207468652073616c65206044820152621e595d60ea1b606482015260840161078d565b600b54336000908152602160205260408120549091610ca491611a93565b336000818152602160205260408082209190915560185490516323b872dd60e01b81523060048201526024810192909252604482018390529192506001600160a01b03909116906323b872dd90606401602060405180830381600087803b158015610d0e57600080fd5b505af1158015610d22573d6000803e3d6000fd5b505050506040513d601f19601f82011682018060405250810190610d4691906117b6565b50506001600055565b601d546001600160a01b03163314610d795760405162461bcd60e51b815260040161078d906119a5565b601f5462010000900460ff1615610dc55760405162461bcd60e51b815260206004820152601060248201526f1cd85b19481dd85cc818589bdc9d195960821b604482015260640161078d565b6002546018546040516370a0823160e01b81523060048201526001600160a01b03909116906370a082319060240160206040518083038186803b158015610e0b57600080fd5b505afa158015610e1f573d6000803e3d6000fd5b505050506040513d601f19601f82011682018060405250810190610e439190611872565b1015610eab5760405162461bcd60e51b815260206004820152603160248201527f696e73756666696369656e7420616d6f756e74206f6620746f6b656e732073656044820152706e7420746f20746865206164647265737360781b606482015260840161078d565b601f805460ff19166001179055565b60026000541415610edd5760405162461bcd60e51b815260040161078d90611a22565b600260005560015460ff1615610f285760405162461bcd60e51b815260206004820152601060248201526f14185d5cd8589b194e881c185d5cd95960821b604482015260640161078d565b610f36813360195446611613565b610f3f57600080fd5b600f54341115610f615760405162461bcd60e51b815260040161078d90611961565b601054341015610faf5760405162461bcd60e51b81526020600482015260196024820152780f2deea4ee4ca40dcdee840e6cadcc8d2dcce40cadcdeeaced603b1b604482015260640161078d565b601154601e54600b54610fc29034611a93565b610fcc9190611a59565b1115610fea5760405162461bcd60e51b815260040161078d9061190e565b60055447111561100c5760405162461bcd60e51b815260040161078d906119dc565b600a5442116110575760405162461bcd60e51b81526020600482015260176024820152761cd85b19481a185cdb89dd081cdd185c9d1959081e595d604a1b604482015260640161078d565b60095442106110995760405162461bcd60e51b815260206004820152600e60248201526d1cd85b19481a185cc8195b99195960921b604482015260640161078d565b601f5460ff166110eb5760405162461bcd60e51b815260206004820152601e60248201527f73616c65206861736e2774206265656e2066696e616c697a6564207965740000604482015260640161078d565b3360009081526021602052604090203490819055600b5461110b91611a93565b601e546111189190611a59565b601e55506001600055565b601a805461113090611ab2565b80601f016020809104026020016040519081016040528092919081815260200182805461115c90611ab2565b80156111a95780601f1061117e576101008083540402835291602001916111a9565b820191906000526020600020905b81548152906001019060200180831161118c57829003601f168201915b505050505081565b600260005414156111d45760405162461bcd60e51b815260040161078d90611a22565b6002600055601f54610100900460ff161561123d5760405162461bcd60e51b815260206004820152602360248201527f73616c6520686173206265656e20656e646564203a20796f752063616e20636c60448201526261696d60e81b606482015260840161078d565b601f5462010000900460ff166112c25760095461125d9062015180611a59565b42116112c25760405162461bcd60e51b815260206004820152602e60248201527f796f75206e65656420746f20776169742032346820616674657220746865206560448201526d6e64206f66207468652073616c6560901b606482015260840161078d565b3360009081526021602052604090205461131e5760405162461bcd60e51b815260206004820152601f60248201527f75736572206861736e277420616e7920746f6b656e7320746f20636c61696d00604482015260640161078d565b3360008181526021602052604080822080549083905590519092829184908381818185875af1925050503d8060008114611374576040519150601f19603f3d011682016040523d82523d6000602084013e611379565b606091505b5050600160005550505050565b600260005414156113a95760405162461bcd60e51b815260040161078d90611a22565b600260005560015460ff16156113f45760405162461bcd60e51b815260206004820152601060248201526f14185d5cd8589b194e881c185d5cd95960821b604482015260640161078d565b600f543411156114165760405162461bcd60e51b815260040161078d90611961565b6010543410156114645760405162461bcd60e51b81526020600482015260196024820152780f2deea4ee4ca40dcdee840e6cadcc8d2dcce40cadcdeeaced603b1b604482015260640161078d565b601154601e54600b546114779034611a93565b6114819190611a59565b111561149f5760405162461bcd60e51b815260040161078d9061190e565b6005544711156114c15760405162461bcd60e51b815260040161078d906119dc565b600854421161150c5760405162461bcd60e51b81526020600482015260176024820152761cd85b19481a185cdb89dd081cdd185c9d1959081e595d604a1b604482015260640161078d565b600954421061154e5760405162461bcd60e51b815260206004820152600e60248201526d1cd85b19481a185cc8195b99195960921b604482015260640161078d565b601f5460ff166115a05760405162461bcd60e51b815260206004820152601e60248201527f73616c65206861736e2774206265656e2066696e616c697a6564207965740000604482015260640161078d565b3360009081526021602052604090203490819055600b546115c091611a93565b601e546115cd9190611a59565b601e556001600055565b600080600083516041146115ea57600080fd5b5050506020810151604082015160609092015160001a92909190565b601b805461113090611ab2565b600080600080611622886115d7565b6040516bffffffffffffffffffffffff1960608c901b166020820152603481018a905260548101899052929550909350915060009060740160408051601f1981840301815282825280516020918201206000845290830180835281905260ff8716918301919091526060820185905260808201849052915060019060a0016020604051602081039080840390855afa1580156116c2573d6000803e3d6000fd5b5050604051601f1901516014546001600160a01b039182169116149a9950505050505050505050565b80356001600160a01b038116811461170257600080fd5b919050565b600082601f83011261171857600080fd5b813567ffffffffffffffff8082111561173357611733611b03565b604051601f8301601f19908116603f0116810190828211818310171561175b5761175b611b03565b8160405283815286602085880101111561177457600080fd5b836020870160208301376000602085830101528094505050505092915050565b6000602082840312156117a657600080fd5b6117af826116eb565b9392505050565b6000602082840312156117c857600080fd5b815180151581146117af57600080fd5b6000602082840312156117ea57600080fd5b813567ffffffffffffffff81111561180157600080fd5b61180d84828501611707565b949350505050565b6000806000806080858703121561182b57600080fd5b843567ffffffffffffffff81111561184257600080fd5b61184e87828801611707565b94505061185d602086016116eb565b93969395505050506040820135916060013590565b60006020828403121561188457600080fd5b5051919050565b6000806000606084860312156118a057600080fd5b8351925060208401519150604084015190509250925092565b600060208083528351808285015260005b818110156118e6578581018301518582016040015282016118ca565b818111156118f8576000604083870101525b50601f01601f1916929092016040019392505050565b60208082526033908201527f7468657265206172656e277420656e6f75676820746f6b656e73206c6566742e60408201527208151c9e4818481b1bddd95c88185b5bdd5b9d606a1b606082015260800190565b60208082526024908201527f796f7527726520747279696e6720746f2062757920746f6f206d616e7920746f6040820152636b656e7360e01b606082015260800190565b6020808252601b908201527f63616c6c6572206973206e6f742074686520696e69746961746f720000000000604082015260600190565b60208082526026908201527f6861726463617020697320726561636865642e205472792061206c6f77657220604082015265185b5bdd5b9d60d21b606082015260800190565b6020808252601f908201527f5265656e7472616e637947756172643a207265656e7472616e742063616c6c00604082015260600190565b60008219821115611a6c57611a6c611aed565b500190565b600082611a8e57634e487b7160e01b600052601260045260246000fd5b500490565b6000816000190483118215151615611aad57611aad611aed565b500290565b600181811c90821680611ac657607f821691505b60208210811415611ae757634e487b7160e01b600052602260045260246000fd5b50919050565b634e487b7160e01b600052601160045260246000fd5b634e487b7160e01b600052604160045260246000fdfea2646970667358221220815fe58fd332726e298274a118707183be1e4343579eaf185fa081744cfec69164736f6c63430008070033a26469706673582212200438606f2679dd747cf3efc9b46be0803ee47b176a0890079f386772807c7dc564736f6c63430008070033",
  "bytecodeSha1": "9045cfce3a4ea4ceeb5d3fdde48bb11960f4d374",
  "compiler": {
    "evm_version": "istanbul",
    "optimizer": {
      "enabled": true,
      "runs": 200
    },
    "version": "0.8.7+commit.e28d00a7"
  },
  "contractName": "LaunchpadMaster",
  "language": "Solidity",
  "natspec": {
    "kind": "dev",
    "methods": {
      "owner()": {
        "details": "Returns the address of the current owner."
      },
      "paused()": {
        "details": "Returns true if the contract is paused, and false otherwise."
      },
      "renounceOwnership()": {
        "details": "Leaves the contract without owner. It will not be possible to call `onlyOwner` functions anymore. Can only be called by the current owner. NOTE: Renouncing ownership will leave the contract without an owner, thereby removing any functionality that is only available to the owner."
      },
      "transferOwnership(address)": {
        "details": "Transfers ownership of the contract to a new account (`newOwner`). Can only be called by the current owner."
      }
    },
    "version": 1
  },
  "opcodes": "PUSH1 0x80 PUSH1 0x40 MSTORE PUSH1 0x4 CALLDATASIZE LT PUSH3 0x11F JUMPI PUSH1 0x0 CALLDATALOAD PUSH1 0xE0 SHR DUP1 PUSH4 0x8DA5CB5B GT PUSH3 0xA1 JUMPI DUP1 PUSH4 0xD294F093 GT PUSH3 0x6C JUMPI DUP1 PUSH4 0xD294F093 EQ PUSH3 0x2F1 JUMPI DUP1 PUSH4 0xDAFDEB1A EQ PUSH3 0x309 JUMPI DUP1 PUSH4 0xE7689193 EQ PUSH3 0x33A JUMPI DUP1 PUSH4 0xEB2A5D2C EQ PUSH3 0x374 JUMPI DUP1 PUSH4 0xF2FDE38B EQ PUSH3 0x38C JUMPI PUSH1 0x0 DUP1 REVERT JUMPDEST DUP1 PUSH4 0x8DA5CB5B EQ PUSH3 0x25B JUMPI DUP1 PUSH4 0x94CA2CB5 EQ PUSH3 0x27B JUMPI DUP1 PUSH4 0x9C4AE2D0 EQ PUSH3 0x2A0 JUMPI DUP1 PUSH4 0xB1D2EF90 EQ PUSH3 0x2B7 JUMPI PUSH1 0x0 DUP1 REVERT JUMPDEST DUP1 PUSH4 0x5C975ABB GT PUSH3 0xEE JUMPI DUP1 PUSH4 0x5C975ABB EQ PUSH3 0x1D5 JUMPI DUP1 PUSH4 0x715018A6 EQ PUSH3 0x1EF JUMPI DUP1 PUSH4 0x73DC1349 EQ PUSH3 0x209 JUMPI DUP1 PUSH4 0x74A5F8D2 EQ PUSH3 0x221 JUMPI DUP1 PUSH4 0x7E44D2CC EQ PUSH3 0x239 JUMPI PUSH1 0x0 DUP1 REVERT JUMPDEST DUP1 PUSH4 0x562C264 EQ PUSH3 0x124 JUMPI DUP1 PUSH4 0x238AC933 EQ PUSH3 0x15C JUMPI DUP1 PUSH4 0x2E849894 EQ PUSH3 0x197 JUMPI DUP1 PUSH4 0x553B3BD4 EQ PUSH3 0x1BE JUMPI JUMPDEST PUSH1 0x0 DUP1 REVERT JUMPDEST CALLVALUE DUP1 ISZERO PUSH3 0x131 JUMPI PUSH1 0x0 DUP1 REVERT JUMPDEST POP PUSH1 0xB SLOAD PUSH3 0x147 SWAP1 PUSH1 0x1 PUSH1 0xA0 SHL SWAP1 DIV PUSH1 0xFF AND DUP2 JUMP JUMPDEST PUSH1 0x40 MLOAD SWAP1 ISZERO ISZERO DUP2 MSTORE PUSH1 0x20 ADD JUMPDEST PUSH1 0x40 MLOAD DUP1 SWAP2 SUB SWAP1 RETURN JUMPDEST CALLVALUE DUP1 ISZERO PUSH3 0x169 JUMPI PUSH1 0x0 DUP1 REVERT JUMPDEST POP PUSH1 0xA SLOAD PUSH3 0x17E SWAP1 PUSH1 0x1 PUSH1 0x1 PUSH1 0xA0 SHL SUB AND DUP2 JUMP JUMPDEST PUSH1 0x40 MLOAD PUSH1 0x1 PUSH1 0x1 PUSH1 0xA0 SHL SUB SWAP1 SWAP2 AND DUP2 MSTORE PUSH1 0x20 ADD PUSH3 0x153 JUMP JUMPDEST CALLVALUE DUP1 ISZERO PUSH3 0x1A4 JUMPI PUSH1 0x0 DUP1 REVERT JUMPDEST POP PUSH3 0x1AF PUSH1 0x6 SLOAD DUP2 JUMP JUMPDEST PUSH1 0x40 MLOAD SWAP1 DUP2 MSTORE PUSH1 0x20 ADD PUSH3 0x153 JUMP JUMPDEST PUSH3 0x17E PUSH3 0x1CF CALLDATASIZE PUSH1 0x4 PUSH3 0xCAD JUMP JUMPDEST PUSH3 0x3B1 JUMP JUMPDEST CALLVALUE DUP1 ISZERO PUSH3 0x1E2 JUMPI PUSH1 0x0 DUP1 REVERT JUMPDEST POP PUSH1 0x2 SLOAD PUSH1 0xFF AND PUSH3 0x147 JUMP JUMPDEST CALLVALUE DUP1 ISZERO PUSH3 0x1FC JUMPI PUSH1 0x0 DUP1 REVERT JUMPDEST POP PUSH3 0x207 PUSH3 0x7EB JUMP JUMPDEST STOP JUMPDEST CALLVALUE DUP1 ISZERO PUSH3 0x216 JUMPI PUSH1 0x0 DUP1 REVERT JUMPDEST POP PUSH3 0x1AF PUSH1 0x7 SLOAD DUP2 JUMP JUMPDEST CALLVALUE DUP1 ISZERO PUSH3 0x22E JUMPI PUSH1 0x0 DUP1 REVERT JUMPDEST POP PUSH3 0x1AF PUSH1 0x8 SLOAD DUP2 JUMP JUMPDEST CALLVALUE DUP1 ISZERO PUSH3 0x246 JUMPI PUSH1 0x0 DUP1 REVERT JUMPDEST POP PUSH1 0xB SLOAD PUSH3 0x17E SWAP1 PUSH1 0x1 PUSH1 0x1 PUSH1 0xA0 SHL SUB AND DUP2 JUMP JUMPDEST CALLVALUE DUP1 ISZERO PUSH3 0x268 JUMPI PUSH1 0x0 DUP1 REVERT JUMPDEST POP PUSH1 0x0 SLOAD PUSH1 0x1 PUSH1 0x1 PUSH1 0xA0 SHL SUB AND PUSH3 0x17E JUMP JUMPDEST CALLVALUE DUP1 ISZERO PUSH3 0x288 JUMPI PUSH1 0x0 DUP1 REVERT JUMPDEST POP PUSH3 0x17E PUSH3 0x29A CALLDATASIZE PUSH1 0x4 PUSH3 0xDE4 JUMP JUMPDEST PUSH3 0x826 JUMP JUMPDEST PUSH3 0x17E PUSH3 0x2B1 CALLDATASIZE PUSH1 0x4 PUSH3 0xDE4 JUMP JUMPDEST PUSH3 0x882 JUMP JUMPDEST CALLVALUE DUP1 ISZERO PUSH3 0x2C4 JUMPI PUSH1 0x0 DUP1 REVERT JUMPDEST POP PUSH3 0x17E PUSH3 0x2D6 CALLDATASIZE PUSH1 0x4 PUSH3 0xE42 JUMP JUMPDEST PUSH1 0x5 PUSH1 0x20 MSTORE PUSH1 0x0 SWAP1 DUP2 MSTORE PUSH1 0x40 SWAP1 KECCAK256 SLOAD PUSH1 0x1 PUSH1 0x1 PUSH1 0xA0 SHL SUB AND DUP2 JUMP JUMPDEST CALLVALUE DUP1 ISZERO PUSH3 0x2FE JUMPI PUSH1 0x0 DUP1 REVERT JUMPDEST POP PUSH3 0x207 PUSH3 0x9D1 JUMP JUMPDEST CALLVALUE DUP1 ISZERO PUSH3 0x316 JUMPI PUSH1 0x0 DUP1 REVERT JUMPDEST POP PUSH3 0x1AF PUSH3 0x328 CALLDATASIZE PUSH1 0x4 PUSH3 0xC8F JUMP JUMPDEST PUSH1 0x4 PUSH1 0x20 MSTORE PUSH1 0x0 SWAP1 DUP2 MSTORE PUSH1 0x40 SWAP1 KECCAK256 SLOAD DUP2 JUMP JUMPDEST CALLVALUE DUP1 ISZERO PUSH3 0x347 JUMPI PUSH1 0x0 DUP1 REVERT JUMPDEST POP PUSH3 0x17E PUSH3 0x359 CALLDATASIZE PUSH1 0x4 PUSH3 0xE42 JUMP JUMPDEST PUSH1 0x3 PUSH1 0x20 MSTORE PUSH1 0x0 SWAP1 DUP2 MSTORE PUSH1 0x40 SWAP1 KECCAK256 SLOAD PUSH1 0x1 PUSH1 0x1 PUSH1 0xA0 SHL SUB AND DUP2 JUMP JUMPDEST CALLVALUE DUP1 ISZERO PUSH3 0x381 JUMPI PUSH1 0x0 DUP1 REVERT JUMPDEST POP PUSH3 0x1AF PUSH1 0x9 SLOAD DUP2 JUMP JUMPDEST CALLVALUE DUP1 ISZERO PUSH3 0x399 JUMPI PUSH1 0x0 DUP1 REVERT JUMPDEST POP PUSH3 0x207 PUSH3 0x3AB CALLDATASIZE PUSH1 0x4 PUSH3 0xC8F JUMP JUMPDEST PUSH3 0xABE JUMP JUMPDEST PUSH1 0x0 PUSH3 0x3C0 PUSH1 0x2 SLOAD PUSH1 0xFF AND SWAP1 JUMP JUMPDEST ISZERO PUSH3 0x406 JUMPI PUSH1 0x40 MLOAD PUSH3 0x461BCD PUSH1 0xE5 SHL DUP2 MSTORE PUSH1 0x20 PUSH1 0x4 DUP3 ADD MSTORE PUSH1 0x10 PUSH1 0x24 DUP3 ADD MSTORE PUSH16 0x14185D5CD8589B194E881C185D5CD959 PUSH1 0x82 SHL PUSH1 0x44 DUP3 ADD MSTORE PUSH1 0x64 ADD JUMPDEST PUSH1 0x40 MLOAD DUP1 SWAP2 SUB SWAP1 REVERT JUMPDEST PUSH1 0x2 PUSH1 0x1 SLOAD EQ ISZERO PUSH3 0x45B JUMPI PUSH1 0x40 MLOAD PUSH3 0x461BCD PUSH1 0xE5 SHL DUP2 MSTORE PUSH1 0x20 PUSH1 0x4 DUP3 ADD MSTORE PUSH1 0x1F PUSH1 0x24 DUP3 ADD MSTORE PUSH32 0x5265656E7472616E637947756172643A207265656E7472616E742063616C6C00 PUSH1 0x44 DUP3 ADD MSTORE PUSH1 0x64 ADD PUSH3 0x3FD JUMP JUMPDEST PUSH1 0x2 PUSH1 0x1 SSTORE PUSH1 0x9 SLOAD CALLVALUE LT ISZERO PUSH3 0x4AA JUMPI PUSH1 0x40 MLOAD PUSH3 0x461BCD PUSH1 0xE5 SHL DUP2 MSTORE PUSH1 0x20 PUSH1 0x4 DUP3 ADD MSTORE PUSH1 0x13 PUSH1 0x24 DUP3 ADD MSTORE PUSH19 0x1B9BDD08195B9BDD59DA08195D1A081CD95B9D PUSH1 0x6A SHL PUSH1 0x44 DUP3 ADD MSTORE PUSH1 0x64 ADD PUSH3 0x3FD JUMP JUMPDEST PUSH1 0x6 SLOAD PUSH3 0x4BA SWAP1 PUSH1 0x1 PUSH3 0xFE2 JUMP JUMPDEST PUSH1 0x6 DUP2 SWAP1 SSTORE PUSH1 0xA SLOAD PUSH1 0x0 SWAP2 DUP3 MSTORE PUSH1 0x5 PUSH1 0x20 SWAP1 DUP2 MSTORE PUSH1 0x40 DUP1 DUP5 KECCAK256 DUP1 SLOAD PUSH1 0x1 PUSH1 0x1 PUSH1 0xA0 SHL SUB NOT AND PUSH1 0x1 PUSH1 0x1 PUSH1 0xA0 SHL SUB SWAP1 SWAP5 AND SWAP4 SWAP1 SWAP4 OR SWAP1 SWAP3 SSTORE SWAP1 MLOAD SWAP1 PUSH3 0x501 SWAP1 DUP3 ADD PUSH3 0xBB0 JUMP JUMPDEST PUSH1 0x1F NOT DUP3 DUP3 SUB DUP2 ADD DUP4 MSTORE PUSH1 0x1F SWAP1 SWAP2 ADD AND PUSH1 0x40 DUP2 SWAP1 MSTORE PUSH3 0x534 SWAP1 DUP13 SWAP1 DUP13 SWAP1 DUP13 SWAP1 DUP13 SWAP1 DUP13 SWAP1 DUP13 SWAP1 DUP13 SWAP1 DUP13 SWAP1 PUSH1 0x20 ADD PUSH3 0xED7 JUMP JUMPDEST PUSH1 0x40 DUP1 MLOAD PUSH1 0x1F NOT DUP2 DUP5 SUB ADD DUP2 MSTORE SWAP1 DUP3 SWAP1 MSTORE PUSH3 0x554 SWAP3 SWAP2 PUSH1 0x20 ADD PUSH3 0xEA4 JUMP JUMPDEST PUSH1 0x40 MLOAD PUSH1 0x20 DUP2 DUP4 SUB SUB DUP2 MSTORE SWAP1 PUSH1 0x40 MSTORE SWAP1 POP PUSH1 0x0 PUSH3 0x575 DUP3 PUSH1 0x6 SLOAD PUSH3 0x826 JUMP JUMPDEST DUP9 MLOAD PUSH1 0x40 MLOAD PUSH4 0x23B872DD PUSH1 0xE0 SHL DUP2 MSTORE CALLER PUSH1 0x4 DUP3 ADD MSTORE PUSH1 0x1 PUSH1 0x1 PUSH1 0xA0 SHL SUB DUP1 DUP5 AND PUSH1 0x24 DUP4 ADD MSTORE PUSH1 0x44 DUP3 ADD SWAP3 SWAP1 SWAP3 MSTORE SWAP2 SWAP3 POP DUP13 AND SWAP1 PUSH4 0x23B872DD SWAP1 PUSH1 0x64 ADD PUSH1 0x20 PUSH1 0x40 MLOAD DUP1 DUP4 SUB DUP2 PUSH1 0x0 DUP8 DUP1 EXTCODESIZE ISZERO DUP1 ISZERO PUSH3 0x5CC JUMPI PUSH1 0x0 DUP1 REVERT JUMPDEST POP GAS CALL ISZERO DUP1 ISZERO PUSH3 0x5E1 JUMPI RETURNDATASIZE PUSH1 0x0 DUP1 RETURNDATACOPY RETURNDATASIZE PUSH1 0x0 REVERT JUMPDEST POP POP POP POP PUSH1 0x40 MLOAD RETURNDATASIZE PUSH1 0x1F NOT PUSH1 0x1F DUP3 ADD AND DUP3 ADD DUP1 PUSH1 0x40 MSTORE POP DUP2 ADD SWAP1 PUSH3 0x607 SWAP2 SWAP1 PUSH3 0xDC4 JUMP JUMPDEST POP DUP8 MLOAD PUSH1 0x40 MLOAD PUSH4 0x70A08231 PUSH1 0xE0 SHL DUP2 MSTORE PUSH1 0x1 PUSH1 0x1 PUSH1 0xA0 SHL SUB DUP4 DUP2 AND PUSH1 0x4 DUP4 ADD MSTORE DUP14 AND SWAP1 PUSH4 0x70A08231 SWAP1 PUSH1 0x24 ADD PUSH1 0x20 PUSH1 0x40 MLOAD DUP1 DUP4 SUB DUP2 DUP7 DUP1 EXTCODESIZE ISZERO DUP1 ISZERO PUSH3 0x64C JUMPI PUSH1 0x0 DUP1 REVERT JUMPDEST POP GAS STATICCALL ISZERO DUP1 ISZERO PUSH3 0x661 JUMPI RETURNDATASIZE PUSH1 0x0 DUP1 RETURNDATACOPY RETURNDATASIZE PUSH1 0x0 REVERT JUMPDEST POP POP POP POP PUSH1 0x40 MLOAD RETURNDATASIZE PUSH1 0x1F NOT PUSH1 0x1F DUP3 ADD AND DUP3 ADD DUP1 PUSH1 0x40 MSTORE POP DUP2 ADD SWAP1 PUSH3 0x687 SWAP2 SWAP1 PUSH3 0xE5C JUMP JUMPDEST EQ PUSH3 0x6E4 JUMPI PUSH1 0x40 MLOAD PUSH3 0x461BCD PUSH1 0xE5 SHL DUP2 MSTORE PUSH1 0x20 PUSH1 0x4 DUP3 ADD MSTORE PUSH1 0x25 PUSH1 0x24 DUP3 ADD MSTORE PUSH32 0x796F75206469646E27742077686974656C697374207468652073616C65206164 PUSH1 0x44 DUP3 ADD MSTORE PUSH5 0x6472657373 PUSH1 0xD8 SHL PUSH1 0x64 DUP3 ADD MSTORE PUSH1 0x84 ADD PUSH3 0x3FD JUMP JUMPDEST PUSH1 0xB DUP1 SLOAD PUSH1 0xFF PUSH1 0xA0 SHL NOT AND PUSH1 0x1 PUSH1 0xA0 SHL OR SWAP1 SSTORE PUSH1 0x6 SLOAD PUSH1 0x0 SWAP1 PUSH3 0x70A SWAP1 DUP5 SWAP1 PUSH3 0x882 JUMP JUMPDEST PUSH1 0xB DUP1 SLOAD PUSH1 0xFF PUSH1 0xA0 SHL NOT AND SWAP1 SSTORE SWAP1 POP PUSH1 0x1 PUSH1 0x1 PUSH1 0xA0 SHL SUB DUP3 DUP2 AND SWAP1 DUP3 AND EQ PUSH3 0x79C JUMPI PUSH1 0x40 MLOAD PUSH3 0x461BCD PUSH1 0xE5 SHL DUP2 MSTORE PUSH1 0x20 PUSH1 0x4 DUP3 ADD MSTORE PUSH1 0x38 PUSH1 0x24 DUP3 ADD MSTORE PUSH32 0x636F6D7075746564206164647265737320616E642061637475616C206465706C PUSH1 0x44 DUP3 ADD MSTORE PUSH32 0x6F79206164647265737320617265206E6F7420657175616C0000000000000000 PUSH1 0x64 DUP3 ADD MSTORE PUSH1 0x84 ADD PUSH3 0x3FD JUMP JUMPDEST POP PUSH1 0x6 DUP1 SLOAD PUSH1 0x0 SWAP1 DUP2 MSTORE PUSH1 0x3 PUSH1 0x20 SWAP1 DUP2 MSTORE PUSH1 0x40 DUP1 DUP4 KECCAK256 DUP1 SLOAD PUSH1 0x1 PUSH1 0x1 PUSH1 0xA0 SHL SUB SWAP1 SWAP7 AND PUSH1 0x1 PUSH1 0x1 PUSH1 0xA0 SHL SUB NOT SWAP1 SWAP7 AND DUP7 OR SWAP1 SSTORE SWAP3 SLOAD SWAP4 DUP3 MSTORE PUSH1 0x4 SWAP1 MSTORE KECCAK256 SSTORE POP PUSH1 0x1 DUP1 SSTORE SWAP9 SWAP8 POP POP POP POP POP POP POP POP JUMP JUMPDEST PUSH1 0x0 SLOAD PUSH1 0x1 PUSH1 0x1 PUSH1 0xA0 SHL SUB AND CALLER EQ PUSH3 0x818 JUMPI PUSH1 0x40 MLOAD PUSH3 0x461BCD PUSH1 0xE5 SHL DUP2 MSTORE PUSH1 0x4 ADD PUSH3 0x3FD SWAP1 PUSH3 0xF80 JUMP JUMPDEST PUSH3 0x824 PUSH1 0x0 PUSH3 0xB60 JUMP JUMPDEST JUMP JUMPDEST DUP2 MLOAD PUSH1 0x20 SWAP3 DUP4 ADD KECCAK256 PUSH1 0x40 DUP1 MLOAD PUSH1 0x1 PUSH1 0x1 PUSH1 0xF8 SHL SUB NOT DUP2 DUP7 ADD MSTORE ADDRESS PUSH1 0x60 SHL PUSH12 0xFFFFFFFFFFFFFFFFFFFFFFFF NOT AND PUSH1 0x21 DUP3 ADD MSTORE PUSH1 0x35 DUP2 ADD SWAP4 SWAP1 SWAP4 MSTORE PUSH1 0x55 DUP1 DUP5 ADD SWAP3 SWAP1 SWAP3 MSTORE DUP1 MLOAD DUP1 DUP5 SUB SWAP1 SWAP3 ADD DUP3 MSTORE PUSH1 0x75 SWAP1 SWAP3 ADD SWAP1 SWAP2 MSTORE DUP1 MLOAD SWAP2 ADD KECCAK256 SWAP1 JUMP JUMPDEST PUSH1 0x0 PUSH3 0x891 PUSH1 0x2 SLOAD PUSH1 0xFF AND SWAP1 JUMP JUMPDEST ISZERO PUSH3 0x8D3 JUMPI PUSH1 0x40 MLOAD PUSH3 0x461BCD PUSH1 0xE5 SHL DUP2 MSTORE PUSH1 0x20 PUSH1 0x4 DUP3 ADD MSTORE PUSH1 0x10 PUSH1 0x24 DUP3 ADD MSTORE PUSH16 0x14185D5CD8589B194E881C185D5CD959 PUSH1 0x82 SHL PUSH1 0x44 DUP3 ADD MSTORE PUSH1 0x64 ADD PUSH3 0x3FD JUMP JUMPDEST PUSH1 0x9 SLOAD CALLVALUE LT ISZERO PUSH3 0x91D JUMPI PUSH1 0x40 MLOAD PUSH3 0x461BCD PUSH1 0xE5 SHL DUP2 MSTORE PUSH1 0x20 PUSH1 0x4 DUP3 ADD MSTORE PUSH1 0x13 PUSH1 0x24 DUP3 ADD MSTORE PUSH19 0x1B9BDD08195B9BDD59DA08195D1A081CD95B9D PUSH1 0x6A SHL PUSH1 0x44 DUP3 ADD MSTORE PUSH1 0x64 ADD PUSH3 0x3FD JUMP JUMPDEST PUSH1 0xB SLOAD PUSH1 0x1 PUSH1 0xA0 SHL SWAP1 DIV PUSH1 0xFF AND PUSH3 0x96E JUMPI PUSH1 0x40 MLOAD PUSH3 0x461BCD PUSH1 0xE5 SHL DUP2 MSTORE PUSH1 0x20 PUSH1 0x4 DUP3 ADD MSTORE PUSH1 0x13 PUSH1 0x24 DUP3 ADD MSTORE PUSH19 0x756E617574686F72697A6564206465706C6F79 PUSH1 0x68 SHL PUSH1 0x44 DUP3 ADD MSTORE PUSH1 0x64 ADD PUSH3 0x3FD JUMP JUMPDEST PUSH1 0x0 DUP3 DUP5 MLOAD PUSH1 0x20 DUP7 ADD PUSH1 0x0 CREATE2 SWAP1 POP DUP1 EXTCODESIZE PUSH3 0x988 JUMPI PUSH1 0x0 DUP1 REVERT JUMPDEST PUSH1 0x40 DUP1 MLOAD PUSH1 0x1 PUSH1 0x1 PUSH1 0xA0 SHL SUB DUP4 AND DUP2 MSTORE PUSH1 0x20 DUP2 ADD DUP6 SWAP1 MSTORE PUSH32 0xB03C53B28E78A88E31607A27E1FA48234DCE28D5D9D9EC7B295AEB02E674A1E1 SWAP2 ADD PUSH1 0x40 MLOAD DUP1 SWAP2 SUB SWAP1 LOG1 SWAP4 SWAP3 POP POP POP JUMP JUMPDEST PUSH1 0x0 SLOAD PUSH1 0x1 PUSH1 0x1 PUSH1 0xA0 SHL SUB AND CALLER EQ PUSH3 0x9FE JUMPI PUSH1 0x40 MLOAD PUSH3 0x461BCD PUSH1 0xE5 SHL DUP2 MSTORE PUSH1 0x4 ADD PUSH3 0x3FD SWAP1 PUSH3 0xF80 JUMP JUMPDEST PUSH1 0x2 PUSH1 0x1 SLOAD EQ ISZERO PUSH3 0xA53 JUMPI PUSH1 0x40 MLOAD PUSH3 0x461BCD PUSH1 0xE5 SHL DUP2 MSTORE PUSH1 0x20 PUSH1 0x4 DUP3 ADD MSTORE PUSH1 0x1F PUSH1 0x24 DUP3 ADD MSTORE PUSH32 0x5265656E7472616E637947756172643A207265656E7472616E742063616C6C00 PUSH1 0x44 DUP3 ADD MSTORE PUSH1 0x64 ADD PUSH3 0x3FD JUMP JUMPDEST PUSH1 0x2 PUSH1 0x1 SSTORE PUSH1 0x0 SLOAD PUSH1 0x1 PUSH1 0x1 PUSH1 0xA0 SHL SUB AND PUSH1 0x1 PUSH1 0x1 PUSH1 0xA0 SHL SUB AND SELFBALANCE PUSH1 0x40 MLOAD PUSH1 0x0 PUSH1 0x40 MLOAD DUP1 DUP4 SUB DUP2 DUP6 DUP8 GAS CALL SWAP3 POP POP POP RETURNDATASIZE DUP1 PUSH1 0x0 DUP2 EQ PUSH3 0xAB0 JUMPI PUSH1 0x40 MLOAD SWAP2 POP PUSH1 0x1F NOT PUSH1 0x3F RETURNDATASIZE ADD AND DUP3 ADD PUSH1 0x40 MSTORE RETURNDATASIZE DUP3 MSTORE RETURNDATASIZE PUSH1 0x0 PUSH1 0x20 DUP5 ADD RETURNDATACOPY PUSH3 0xAB5 JUMP JUMPDEST PUSH1 0x60 SWAP2 POP JUMPDEST POP POP PUSH1 0x1 DUP1 SSTORE POP JUMP JUMPDEST PUSH1 0x0 SLOAD PUSH1 0x1 PUSH1 0x1 PUSH1 0xA0 SHL SUB AND CALLER EQ PUSH3 0xAEB JUMPI PUSH1 0x40 MLOAD PUSH3 0x461BCD PUSH1 0xE5 SHL DUP2 MSTORE PUSH1 0x4 ADD PUSH3 0x3FD SWAP1 PUSH3 0xF80 JUMP JUMPDEST PUSH1 0x1 PUSH1 0x1 PUSH1 0xA0 SHL SUB DUP2 AND PUSH3 0xB52 JUMPI PUSH1 0x40 MLOAD PUSH3 0x461BCD PUSH1 0xE5 SHL DUP2 MSTORE PUSH1 0x20 PUSH1 0x4 DUP3 ADD MSTORE PUSH1 0x26 PUSH1 0x24 DUP3 ADD MSTORE PUSH32 0x4F776E61626C653A206E6577206F776E657220697320746865207A65726F2061 PUSH1 0x44 DUP3 ADD MSTORE PUSH6 0x646472657373 PUSH1 0xD0 SHL PUSH1 0x64 DUP3 ADD MSTORE PUSH1 0x84 ADD PUSH3 0x3FD JUMP JUMPDEST PUSH3 0xB5D DUP2 PUSH3 0xB60 JUMP JUMPDEST POP JUMP JUMPDEST PUSH1 0x0 DUP1 SLOAD PUSH1 0x1 PUSH1 0x1 PUSH1 0xA0 SHL SUB DUP4 DUP2 AND PUSH1 0x1 PUSH1 0x1 PUSH1 0xA0 SHL SUB NOT DUP4 AND DUP2 OR DUP5 SSTORE PUSH1 0x40 MLOAD SWAP2 SWAP1 SWAP3 AND SWAP3 DUP4 SWAP2 PUSH32 0x8BE0079C531659141344CD1FD0A4F28419497F9722A3DAAFE3B4186F6B6457E0 SWAP2 SWAP1 LOG3 POP POP JUMP JUMPDEST PUSH2 0x24A0 DUP1 PUSH3 0x1062 DUP4 CODECOPY ADD SWAP1 JUMP JUMPDEST PUSH1 0x0 PUSH8 0xFFFFFFFFFFFFFFFF DUP1 DUP5 GT ISZERO PUSH3 0xBDC JUMPI PUSH3 0xBDC PUSH3 0x103C JUMP JUMPDEST PUSH1 0x40 MLOAD PUSH1 0x1F DUP6 ADD PUSH1 0x1F NOT SWAP1 DUP2 AND PUSH1 0x3F ADD AND DUP2 ADD SWAP1 DUP3 DUP3 GT DUP2 DUP4 LT OR ISZERO PUSH3 0xC07 JUMPI PUSH3 0xC07 PUSH3 0x103C JUMP JUMPDEST DUP2 PUSH1 0x40 MSTORE DUP1 SWAP4 POP DUP6 DUP2 MSTORE DUP7 DUP7 DUP7 ADD GT ISZERO PUSH3 0xC21 JUMPI PUSH1 0x0 DUP1 REVERT JUMPDEST DUP6 DUP6 PUSH1 0x20 DUP4 ADD CALLDATACOPY PUSH1 0x0 PUSH1 0x20 DUP8 DUP4 ADD ADD MSTORE POP POP POP SWAP4 SWAP3 POP POP POP JUMP JUMPDEST DUP1 CALLDATALOAD PUSH1 0x1 PUSH1 0x1 PUSH1 0xA0 SHL SUB DUP2 AND DUP2 EQ PUSH3 0xC53 JUMPI PUSH1 0x0 DUP1 REVERT JUMPDEST SWAP2 SWAP1 POP JUMP JUMPDEST DUP1 CALLDATALOAD PUSH3 0xC53 DUP2 PUSH3 0x1052 JUMP JUMPDEST PUSH1 0x0 DUP3 PUSH1 0x1F DUP4 ADD SLT PUSH3 0xC77 JUMPI PUSH1 0x0 DUP1 REVERT JUMPDEST PUSH3 0xC88 DUP4 DUP4 CALLDATALOAD PUSH1 0x20 DUP6 ADD PUSH3 0xBBE JUMP JUMPDEST SWAP4 SWAP3 POP POP POP JUMP JUMPDEST PUSH1 0x0 PUSH1 0x20 DUP3 DUP5 SUB SLT ISZERO PUSH3 0xCA2 JUMPI PUSH1 0x0 DUP1 REVERT JUMPDEST PUSH3 0xC88 DUP3 PUSH3 0xC3B JUMP JUMPDEST PUSH1 0x0 DUP1 PUSH1 0x0 DUP1 PUSH1 0x0 DUP1 PUSH1 0x0 DUP1 PUSH2 0x200 DUP10 DUP12 SUB SLT ISZERO PUSH3 0xCCB JUMPI PUSH1 0x0 DUP1 REVERT JUMPDEST PUSH3 0xCD6 DUP10 PUSH3 0xC3B JUMP JUMPDEST SWAP8 POP PUSH1 0x20 DUP1 DUP11 ADD CALLDATALOAD PUSH8 0xFFFFFFFFFFFFFFFF DUP1 DUP3 GT ISZERO PUSH3 0xCF5 JUMPI PUSH1 0x0 DUP1 REVERT JUMPDEST PUSH3 0xD03 DUP14 DUP4 DUP15 ADD PUSH3 0xC65 JUMP JUMPDEST SWAP10 POP PUSH1 0x40 DUP13 ADD CALLDATALOAD SWAP2 POP DUP1 DUP3 GT ISZERO PUSH3 0xD1A JUMPI PUSH1 0x0 DUP1 REVERT JUMPDEST POP PUSH3 0xD29 DUP13 DUP3 DUP14 ADD PUSH3 0xC65 JUMP JUMPDEST SWAP8 POP POP DUP11 PUSH1 0x7F DUP12 ADD SLT PUSH3 0xD3C JUMPI PUSH1 0x0 DUP1 REVERT JUMPDEST PUSH3 0xD46 PUSH3 0xFB5 JUMP JUMPDEST DUP1 PUSH1 0x60 DUP13 ADD PUSH2 0x180 DUP14 ADD DUP15 DUP2 GT ISZERO PUSH3 0xD5E JUMPI PUSH1 0x0 DUP1 REVERT JUMPDEST PUSH1 0x0 JUMPDEST PUSH1 0x9 DUP2 LT ISZERO PUSH3 0xD80 JUMPI DUP3 CALLDATALOAD DUP6 MSTORE SWAP4 DUP6 ADD SWAP4 SWAP2 DUP6 ADD SWAP2 PUSH1 0x1 ADD PUSH3 0xD61 JUMP JUMPDEST POP DUP3 SWAP10 POP PUSH3 0xD8F DUP2 PUSH3 0xC58 JUMP JUMPDEST SWAP9 POP POP POP POP POP POP PUSH2 0x1A0 DUP10 ADD CALLDATALOAD SWAP3 POP PUSH2 0x1C0 DUP10 ADD CALLDATALOAD SWAP2 POP PUSH3 0xDB5 PUSH2 0x1E0 DUP11 ADD PUSH3 0xC3B JUMP JUMPDEST SWAP1 POP SWAP3 SWAP6 SWAP9 POP SWAP3 SWAP6 SWAP9 SWAP1 SWAP4 SWAP7 POP JUMP JUMPDEST PUSH1 0x0 PUSH1 0x20 DUP3 DUP5 SUB SLT ISZERO PUSH3 0xDD7 JUMPI PUSH1 0x0 DUP1 REVERT JUMPDEST DUP2 MLOAD PUSH3 0xC88 DUP2 PUSH3 0x1052 JUMP JUMPDEST PUSH1 0x0 DUP1 PUSH1 0x40 DUP4 DUP6 SUB SLT ISZERO PUSH3 0xDF8 JUMPI PUSH1 0x0 DUP1 REVERT JUMPDEST DUP3 CALLDATALOAD PUSH8 0xFFFFFFFFFFFFFFFF DUP2 GT ISZERO PUSH3 0xE10 JUMPI PUSH1 0x0 DUP1 REVERT JUMPDEST DUP4 ADD PUSH1 0x1F DUP2 ADD DUP6 SGT PUSH3 0xE22 JUMPI PUSH1 0x0 DUP1 REVERT JUMPDEST PUSH3 0xE33 DUP6 DUP3 CALLDATALOAD PUSH1 0x20 DUP5 ADD PUSH3 0xBBE JUMP JUMPDEST SWAP6 PUSH1 0x20 SWAP5 SWAP1 SWAP5 ADD CALLDATALOAD SWAP5 POP POP POP POP JUMP JUMPDEST PUSH1 0x0 PUSH1 0x20 DUP3 DUP5 SUB SLT ISZERO PUSH3 0xE55 JUMPI PUSH1 0x0 DUP1 REVERT JUMPDEST POP CALLDATALOAD SWAP2 SWAP1 POP JUMP JUMPDEST PUSH1 0x0 PUSH1 0x20 DUP3 DUP5 SUB SLT ISZERO PUSH3 0xE6F JUMPI PUSH1 0x0 DUP1 REVERT JUMPDEST POP MLOAD SWAP2 SWAP1 POP JUMP JUMPDEST PUSH1 0x0 DUP2 MLOAD DUP1 DUP5 MSTORE PUSH3 0xE90 DUP2 PUSH1 0x20 DUP7 ADD PUSH1 0x20 DUP7 ADD PUSH3 0x1009 JUMP JUMPDEST PUSH1 0x1F ADD PUSH1 0x1F NOT AND SWAP3 SWAP1 SWAP3 ADD PUSH1 0x20 ADD SWAP3 SWAP2 POP POP JUMP JUMPDEST PUSH1 0x0 DUP4 MLOAD PUSH3 0xEB8 DUP2 DUP5 PUSH1 0x20 DUP9 ADD PUSH3 0x1009 JUMP JUMPDEST DUP4 MLOAD SWAP1 DUP4 ADD SWAP1 PUSH3 0xECE DUP2 DUP4 PUSH1 0x20 DUP9 ADD PUSH3 0x1009 JUMP JUMPDEST ADD SWAP5 SWAP4 POP POP POP POP JUMP JUMPDEST PUSH1 0x1 PUSH1 0x1 PUSH1 0xA0 SHL SUB DUP10 AND DUP2 MSTORE PUSH2 0x200 PUSH1 0x20 DUP1 DUP4 ADD DUP3 SWAP1 MSTORE PUSH1 0x0 SWAP2 SWAP1 PUSH3 0xF00 DUP5 DUP4 ADD DUP13 PUSH3 0xE76 JUMP JUMPDEST SWAP2 POP DUP4 DUP3 SUB PUSH1 0x40 DUP6 ADD MSTORE PUSH3 0xF16 DUP3 DUP12 PUSH3 0xE76 JUMP JUMPDEST SWAP3 POP PUSH1 0x60 DUP5 ADD SWAP2 POP DUP9 PUSH1 0x0 JUMPDEST PUSH1 0x9 DUP2 LT ISZERO PUSH3 0xF41 JUMPI DUP2 MLOAD DUP5 MSTORE SWAP3 DUP3 ADD SWAP3 SWAP1 DUP3 ADD SWAP1 PUSH1 0x1 ADD PUSH3 0xF22 JUMP JUMPDEST POP POP POP POP DUP6 ISZERO ISZERO PUSH2 0x180 DUP4 ADD MSTORE DUP5 PUSH2 0x1A0 DUP4 ADD MSTORE DUP4 PUSH2 0x1C0 DUP4 ADD MSTORE PUSH3 0xF73 PUSH2 0x1E0 DUP4 ADD DUP5 PUSH1 0x1 PUSH1 0x1 PUSH1 0xA0 SHL SUB AND SWAP1 MSTORE JUMP JUMPDEST SWAP10 SWAP9 POP POP POP POP POP POP POP POP POP JUMP JUMPDEST PUSH1 0x20 DUP1 DUP3 MSTORE DUP2 DUP2 ADD MSTORE PUSH32 0x4F776E61626C653A2063616C6C6572206973206E6F7420746865206F776E6572 PUSH1 0x40 DUP3 ADD MSTORE PUSH1 0x60 ADD SWAP1 JUMP JUMPDEST PUSH1 0x40 MLOAD PUSH2 0x120 DUP2 ADD PUSH8 0xFFFFFFFFFFFFFFFF DUP2 GT DUP3 DUP3 LT OR ISZERO PUSH3 0xFDC JUMPI PUSH3 0xFDC PUSH3 0x103C JUMP JUMPDEST PUSH1 0x40 MSTORE SWAP1 JUMP JUMPDEST PUSH1 0x0 DUP3 NOT DUP3 GT ISZERO PUSH3 0x1004 JUMPI PUSH4 0x4E487B71 PUSH1 0xE0 SHL PUSH1 0x0 MSTORE PUSH1 0x11 PUSH1 0x4 MSTORE PUSH1 0x24 PUSH1 0x0 REVERT JUMPDEST POP ADD SWAP1 JUMP JUMPDEST PUSH1 0x0 JUMPDEST DUP4 DUP2 LT ISZERO PUSH3 0x1026 JUMPI DUP2 DUP2 ADD MLOAD DUP4 DUP3 ADD MSTORE PUSH1 0x20 ADD PUSH3 0x100C JUMP JUMPDEST DUP4 DUP2 GT ISZERO PUSH3 0x1036 JUMPI PUSH1 0x0 DUP5 DUP5 ADD MSTORE JUMPDEST POP POP POP POP JUMP JUMPDEST PUSH4 0x4E487B71 PUSH1 0xE0 SHL PUSH1 0x0 MSTORE PUSH1 0x41 PUSH1 0x4 MSTORE PUSH1 0x24 PUSH1 0x0 REVERT JUMPDEST DUP1 ISZERO ISZERO DUP2 EQ PUSH3 0xB5D JUMPI PUSH1 0x0 DUP1 REVERT INVALID PUSH1 0x80 PUSH1 0x40 MSTORE PUSH1 0x13 DUP1 SLOAD PUSH4 0x1000000 PUSH1 0x1 PUSH1 0xB8 SHL SUB NOT AND PUSH5 0xDEAD000000 OR SWAP1 SSTORE CALLVALUE DUP1 ISZERO PUSH3 0x2B JUMPI PUSH1 0x0 DUP1 REVERT JUMPDEST POP PUSH1 0x40 MLOAD PUSH3 0x24A0 CODESIZE SUB DUP1 PUSH3 0x24A0 DUP4 CODECOPY DUP2 ADD PUSH1 0x40 DUP2 SWAP1 MSTORE PUSH3 0x4E SWAP2 PUSH3 0x6D5 JUMP JUMPDEST PUSH1 0x1 PUSH1 0x0 DUP2 SWAP1 SSTORE DUP1 SLOAD PUSH1 0xFF NOT AND SWAP1 SSTORE PUSH1 0x18 DUP1 SLOAD PUSH1 0x1 PUSH1 0x1 PUSH1 0xA0 SHL SUB NOT AND PUSH1 0x1 PUSH1 0x1 PUSH1 0xA0 SHL SUB DUP12 AND OR SWAP1 SSTORE DUP8 MLOAD PUSH3 0x8D SWAP1 PUSH1 0x1A SWAP1 PUSH1 0x20 DUP12 ADD SWAP1 PUSH3 0x547 JUMP JUMPDEST POP DUP7 MLOAD PUSH3 0xA3 SWAP1 PUSH1 0x1B SWAP1 PUSH1 0x20 DUP11 ADD SWAP1 PUSH3 0x547 JUMP JUMPDEST POP DUP6 MLOAD PUSH1 0x2 SSTORE PUSH1 0x20 DUP7 ADD MLOAD PUSH1 0x3 SSTORE PUSH1 0x40 DUP7 ADD MLOAD PUSH1 0x4 DUP2 SWAP1 SSTORE PUSH1 0x60 DUP8 ADD MLOAD PUSH1 0x5 DUP2 SWAP1 SSTORE PUSH1 0x80 DUP9 ADD MLOAD PUSH1 0x7 SSTORE PUSH1 0xA0 DUP9 ADD MLOAD PUSH1 0x8 SSTORE PUSH1 0xC0 DUP9 ADD MLOAD PUSH1 0x9 SSTORE PUSH1 0xE0 DUP9 ADD MLOAD PUSH1 0xF SSTORE PUSH2 0x100 DUP9 ADD MLOAD PUSH1 0x10 SSTORE SWAP1 PUSH2 0x2710 SWAP1 PUSH3 0xFF SWAP1 DUP3 PUSH3 0x8BE JUMP JUMPDEST PUSH1 0x2 SLOAD PUSH3 0x10E SWAP2 SWAP1 PUSH3 0x89C JUMP JUMPDEST PUSH3 0x11A SWAP2 SWAP1 PUSH3 0x879 JUMP JUMPDEST PUSH3 0x126 SWAP2 SWAP1 PUSH3 0x879 JUMP JUMPDEST PUSH1 0xB SSTORE PUSH1 0x5 SLOAD PUSH3 0x13A SWAP1 PUSH1 0x2 SWAP1 PUSH3 0x879 JUMP JUMPDEST PUSH1 0x6 SSTORE PUSH1 0x4 SLOAD PUSH1 0x2 SLOAD PUSH2 0x2710 SWAP2 PUSH3 0x152 SWAP2 PUSH3 0x89C JUMP JUMPDEST PUSH3 0x15E SWAP2 SWAP1 PUSH3 0x879 JUMP JUMPDEST PUSH1 0x12 DUP2 SWAP1 SSTORE PUSH1 0x2 SLOAD PUSH3 0x172 SWAP2 SWAP1 PUSH3 0x8BE JUMP JUMPDEST PUSH1 0x11 SSTORE PUSH1 0x7 SLOAD PUSH2 0x2710 SWAP1 PUSH3 0x188 SWAP1 DUP3 PUSH3 0x8BE JUMP JUMPDEST PUSH1 0x5 SLOAD PUSH3 0x197 SWAP2 SWAP1 PUSH3 0x89C JUMP JUMPDEST PUSH3 0x1A3 SWAP2 SWAP1 PUSH3 0x879 JUMP JUMPDEST PUSH1 0x3 SLOAD PUSH1 0x12 SLOAD PUSH3 0x1B5 SWAP2 SWAP1 PUSH3 0x879 JUMP JUMPDEST GT PUSH3 0x247 JUMPI PUSH1 0x40 MLOAD PUSH3 0x461BCD PUSH1 0xE5 SHL DUP2 MSTORE PUSH1 0x20 PUSH1 0x4 DUP3 ADD MSTORE PUSH1 0x50 PUSH1 0x24 DUP3 ADD MSTORE PUSH32 0x6E6F7420656E6F7567682045544820666F72206C69717569646974792C20696E PUSH1 0x44 DUP3 ADD MSTORE PUSH32 0x637265617365206C697374696E67207072696365206F72206465637265617365 PUSH1 0x64 DUP3 ADD MSTORE PUSH16 0x206C6971756964697479207368617265 PUSH1 0x80 SHL PUSH1 0x84 DUP3 ADD MSTORE PUSH1 0xA4 ADD JUMPDEST PUSH1 0x40 MLOAD DUP1 SWAP2 SUB SWAP1 REVERT JUMPDEST PUSH1 0x2 SLOAD PUSH1 0x18 SLOAD PUSH1 0x40 MLOAD PUSH4 0x70A08231 PUSH1 0xE0 SHL DUP2 MSTORE ADDRESS PUSH1 0x4 DUP3 ADD MSTORE PUSH1 0x1 PUSH1 0x1 PUSH1 0xA0 SHL SUB SWAP1 SWAP2 AND SWAP1 PUSH4 0x70A08231 SWAP1 PUSH1 0x24 ADD PUSH1 0x20 PUSH1 0x40 MLOAD DUP1 DUP4 SUB DUP2 DUP7 DUP1 EXTCODESIZE ISZERO DUP1 ISZERO PUSH3 0x28E JUMPI PUSH1 0x0 DUP1 REVERT JUMPDEST POP GAS STATICCALL ISZERO DUP1 ISZERO PUSH3 0x2A3 JUMPI RETURNDATASIZE PUSH1 0x0 DUP1 RETURNDATACOPY RETURNDATASIZE PUSH1 0x0 REVERT JUMPDEST POP POP POP POP PUSH1 0x40 MLOAD RETURNDATASIZE PUSH1 0x1F NOT PUSH1 0x1F DUP3 ADD AND DUP3 ADD DUP1 PUSH1 0x40 MSTORE POP DUP2 ADD SWAP1 PUSH3 0x2C9 SWAP2 SWAP1 PUSH3 0x800 JUMP JUMPDEST EQ PUSH3 0x32F JUMPI PUSH1 0x40 MLOAD PUSH3 0x461BCD PUSH1 0xE5 SHL DUP2 MSTORE PUSH1 0x20 PUSH1 0x4 DUP3 ADD MSTORE PUSH1 0x2E PUSH1 0x24 DUP3 ADD MSTORE PUSH32 0x696E636F727265637420616D6F756E74206F6620746F6B656E732073656E7420 PUSH1 0x44 DUP3 ADD MSTORE PUSH14 0x746F207468652061646472657373 PUSH1 0x90 SHL PUSH1 0x64 DUP3 ADD MSTORE PUSH1 0x84 ADD PUSH3 0x23E JUMP JUMPDEST PUSH1 0xC DUP4 SWAP1 SSTORE PUSH1 0x13 DUP1 SLOAD PUSH3 0xFF0000 NOT AND PUSH3 0x10000 DUP8 ISZERO ISZERO MUL OR SWAP1 SSTORE PUSH1 0xA DUP5 SWAP1 SSTORE PUSH1 0x8 SLOAD DUP5 LT PUSH3 0x35D JUMPI PUSH1 0x0 DUP1 REVERT JUMPDEST PUSH1 0x15 DUP1 SLOAD PUSH1 0x1 PUSH1 0x1 PUSH1 0xA0 SHL SUB NOT AND CALLER SWAP1 DUP2 OR SWAP1 SWAP2 SSTORE PUSH1 0x40 MLOAD PUSH4 0x6D7EF58D PUSH1 0xE1 SHL DUP2 MSTORE ADDRESS PUSH1 0x4 DUP3 ADD MSTORE PUSH4 0xDAFDEB1A SWAP1 PUSH1 0x24 ADD PUSH1 0x20 PUSH1 0x40 MLOAD DUP1 DUP4 SUB DUP2 DUP7 DUP1 EXTCODESIZE ISZERO DUP1 ISZERO PUSH3 0x3A7 JUMPI PUSH1 0x0 DUP1 REVERT JUMPDEST POP GAS STATICCALL ISZERO DUP1 ISZERO PUSH3 0x3BC JUMPI RETURNDATASIZE PUSH1 0x0 DUP1 RETURNDATACOPY RETURNDATASIZE PUSH1 0x0 REVERT JUMPDEST POP POP POP POP PUSH1 0x40 MLOAD RETURNDATASIZE PUSH1 0x1F NOT PUSH1 0x1F DUP3 ADD AND DUP3 ADD DUP1 PUSH1 0x40 MSTORE POP DUP2 ADD SWAP1 PUSH3 0x3E2 SWAP2 SWAP1 PUSH3 0x800 JUMP JUMPDEST PUSH1 0x19 DUP2 SWAP1 SSTORE PUSH1 0x15 SLOAD PUSH1 0x40 MLOAD PUSH4 0xB1D2EF9 PUSH1 0xE4 SHL DUP2 MSTORE PUSH1 0x4 DUP2 ADD SWAP3 SWAP1 SWAP3 MSTORE PUSH1 0x1 PUSH1 0x1 PUSH1 0xA0 SHL SUB AND SWAP1 PUSH4 0xB1D2EF90 SWAP1 PUSH1 0x24 ADD PUSH1 0x20 PUSH1 0x40 MLOAD DUP1 DUP4 SUB DUP2 DUP7 DUP1 EXTCODESIZE ISZERO DUP1 ISZERO PUSH3 0x42B JUMPI PUSH1 0x0 DUP1 REVERT JUMPDEST POP GAS STATICCALL ISZERO DUP1 ISZERO PUSH3 0x440 JUMPI RETURNDATASIZE PUSH1 0x0 DUP1 RETURNDATACOPY RETURNDATASIZE PUSH1 0x0 REVERT JUMPDEST POP POP POP POP PUSH1 0x40 MLOAD RETURNDATASIZE PUSH1 0x1F NOT PUSH1 0x1F DUP3 ADD AND DUP3 ADD DUP1 PUSH1 0x40 MSTORE POP DUP2 ADD SWAP1 PUSH3 0x466 SWAP2 SWAP1 PUSH3 0x6B0 JUMP JUMPDEST PUSH1 0x14 DUP1 SLOAD PUSH1 0x1 PUSH1 0x1 PUSH1 0xA0 SHL SUB NOT AND PUSH1 0x1 PUSH1 0x1 PUSH1 0xA0 SHL SUB SWAP3 DUP4 AND OR SWAP1 SSTORE PUSH1 0x15 SLOAD PUSH1 0x40 DUP1 MLOAD PUSH4 0x1F9134B3 PUSH1 0xE2 SHL DUP2 MSTORE SWAP1 MLOAD SWAP2 SWAP1 SWAP3 AND SWAP2 PUSH4 0x7E44D2CC SWAP2 PUSH1 0x4 DUP1 DUP4 ADD SWAP3 PUSH1 0x20 SWAP3 SWAP2 SWAP1 DUP3 SWAP1 SUB ADD DUP2 DUP7 DUP1 EXTCODESIZE ISZERO DUP1 ISZERO PUSH3 0x4C0 JUMPI PUSH1 0x0 DUP1 REVERT JUMPDEST POP GAS STATICCALL ISZERO DUP1 ISZERO PUSH3 0x4D5 JUMPI RETURNDATASIZE PUSH1 0x0 DUP1 RETURNDATACOPY RETURNDATASIZE PUSH1 0x0 REVERT JUMPDEST POP POP POP POP PUSH1 0x40 MLOAD RETURNDATASIZE PUSH1 0x1F NOT PUSH1 0x1F DUP3 ADD AND DUP3 ADD DUP1 PUSH1 0x40 MSTORE POP DUP2 ADD SWAP1 PUSH3 0x4FB SWAP2 SWAP1 PUSH3 0x6B0 JUMP JUMPDEST PUSH1 0x1C DUP1 SLOAD PUSH1 0x1 PUSH1 0x1 PUSH1 0xA0 SHL SUB NOT SWAP1 DUP2 AND PUSH1 0x1 PUSH1 0x1 PUSH1 0xA0 SHL SUB SWAP4 DUP5 AND OR SWAP1 SWAP2 SSTORE PUSH1 0x1D DUP1 SLOAD DUP3 AND SWAP4 DUP4 AND SWAP4 SWAP1 SWAP4 OR SWAP1 SWAP3 SSTORE PUSH1 0x16 DUP1 SLOAD SWAP1 SWAP3 AND SWAP3 AND SWAP2 SWAP1 SWAP2 OR SWAP1 SSTORE POP PUSH3 0x941 SWAP6 POP POP POP POP POP POP JUMP JUMPDEST DUP3 DUP1 SLOAD PUSH3 0x555 SWAP1 PUSH3 0x8D8 JUMP JUMPDEST SWAP1 PUSH1 0x0 MSTORE PUSH1 0x20 PUSH1 0x0 KECCAK256 SWAP1 PUSH1 0x1F ADD PUSH1 0x20 SWAP1 DIV DUP2 ADD SWAP3 DUP3 PUSH3 0x579 JUMPI PUSH1 0x0 DUP6 SSTORE PUSH3 0x5C4 JUMP JUMPDEST DUP3 PUSH1 0x1F LT PUSH3 0x594 JUMPI DUP1 MLOAD PUSH1 0xFF NOT AND DUP4 DUP1 ADD OR DUP6 SSTORE PUSH3 0x5C4 JUMP JUMPDEST DUP3 DUP1 ADD PUSH1 0x1 ADD DUP6 SSTORE DUP3 ISZERO PUSH3 0x5C4 JUMPI SWAP2 DUP3 ADD JUMPDEST DUP3 DUP2 GT ISZERO PUSH3 0x5C4 JUMPI DUP3 MLOAD DUP3 SSTORE SWAP2 PUSH1 0x20 ADD SWAP2 SWAP1 PUSH1 0x1 ADD SWAP1 PUSH3 0x5A7 JUMP JUMPDEST POP PUSH3 0x5D2 SWAP3 SWAP2 POP PUSH3 0x5D6 JUMP JUMPDEST POP SWAP1 JUMP JUMPDEST JUMPDEST DUP1 DUP3 GT ISZERO PUSH3 0x5D2 JUMPI PUSH1 0x0 DUP2 SSTORE PUSH1 0x1 ADD PUSH3 0x5D7 JUMP JUMPDEST DUP1 MLOAD PUSH1 0x1 PUSH1 0x1 PUSH1 0xA0 SHL SUB DUP2 AND DUP2 EQ PUSH3 0x605 JUMPI PUSH1 0x0 DUP1 REVERT JUMPDEST SWAP2 SWAP1 POP JUMP JUMPDEST DUP1 MLOAD DUP1 ISZERO ISZERO DUP2 EQ PUSH3 0x605 JUMPI PUSH1 0x0 DUP1 REVERT JUMPDEST PUSH1 0x0 DUP3 PUSH1 0x1F DUP4 ADD SLT PUSH3 0x62D JUMPI PUSH1 0x0 DUP1 REVERT JUMPDEST DUP2 MLOAD PUSH1 0x1 PUSH1 0x1 PUSH1 0x40 SHL SUB DUP2 GT ISZERO PUSH3 0x649 JUMPI PUSH3 0x649 PUSH3 0x92B JUMP JUMPDEST PUSH1 0x20 PUSH3 0x65F PUSH1 0x1F DUP4 ADD PUSH1 0x1F NOT AND DUP3 ADD PUSH3 0x846 JUMP JUMPDEST DUP3 DUP2 MSTORE DUP6 DUP3 DUP5 DUP8 ADD ADD GT ISZERO PUSH3 0x674 JUMPI PUSH1 0x0 DUP1 REVERT JUMPDEST PUSH1 0x0 JUMPDEST DUP4 DUP2 LT ISZERO PUSH3 0x694 JUMPI DUP6 DUP2 ADD DUP4 ADD MLOAD DUP3 DUP3 ADD DUP5 ADD MSTORE DUP3 ADD PUSH3 0x677 JUMP JUMPDEST DUP4 DUP2 GT ISZERO PUSH3 0x6A6 JUMPI PUSH1 0x0 DUP4 DUP6 DUP5 ADD ADD MSTORE JUMPDEST POP SWAP6 SWAP5 POP POP POP POP POP JUMP JUMPDEST PUSH1 0x0 PUSH1 0x20 DUP3 DUP5 SUB SLT ISZERO PUSH3 0x6C3 JUMPI PUSH1 0x0 DUP1 REVERT JUMPDEST PUSH3 0x6CE DUP3 PUSH3 0x5ED JUMP JUMPDEST SWAP4 SWAP3 POP POP POP JUMP JUMPDEST PUSH1 0x0 DUP1 PUSH1 0x0 DUP1 PUSH1 0x0 DUP1 PUSH1 0x0 DUP1 PUSH1 0x0 PUSH2 0x220 DUP11 DUP13 SUB SLT ISZERO PUSH3 0x6F5 JUMPI PUSH1 0x0 DUP1 REVERT JUMPDEST PUSH3 0x700 DUP11 PUSH3 0x5ED JUMP JUMPDEST PUSH1 0x20 DUP12 DUP2 ADD MLOAD SWAP2 SWAP11 POP SWAP1 PUSH1 0x1 PUSH1 0x1 PUSH1 0x40 SHL SUB DUP1 DUP3 GT ISZERO PUSH3 0x720 JUMPI PUSH1 0x0 DUP1 REVERT JUMPDEST PUSH3 0x72E DUP15 DUP4 DUP16 ADD PUSH3 0x61B JUMP JUMPDEST SWAP11 POP PUSH1 0x40 DUP14 ADD MLOAD SWAP2 POP DUP1 DUP3 GT ISZERO PUSH3 0x745 JUMPI PUSH1 0x0 DUP1 REVERT JUMPDEST POP PUSH3 0x754 DUP14 DUP3 DUP15 ADD PUSH3 0x61B JUMP JUMPDEST SWAP9 POP POP DUP12 PUSH1 0x7F DUP13 ADD SLT PUSH3 0x767 JUMPI PUSH1 0x0 DUP1 REVERT JUMPDEST PUSH3 0x771 PUSH3 0x81A JUMP JUMPDEST DUP1 PUSH1 0x60 DUP14 ADD PUSH2 0x180 DUP15 ADD DUP16 DUP2 GT ISZERO PUSH3 0x789 JUMPI PUSH1 0x0 DUP1 REVERT JUMPDEST PUSH1 0x0 JUMPDEST PUSH1 0x9 DUP2 LT ISZERO PUSH3 0x7AB JUMPI DUP3 MLOAD DUP6 MSTORE SWAP4 DUP6 ADD SWAP4 SWAP2 DUP6 ADD SWAP2 PUSH1 0x1 ADD PUSH3 0x78C JUMP JUMPDEST POP DUP3 SWAP11 POP PUSH3 0x7BA DUP2 PUSH3 0x60A JUMP JUMPDEST SWAP10 POP POP POP POP POP POP PUSH2 0x1A0 DUP11 ADD MLOAD SWAP4 POP PUSH2 0x1C0 DUP11 ADD MLOAD SWAP3 POP PUSH3 0x7E0 PUSH2 0x1E0 DUP12 ADD PUSH3 0x5ED JUMP JUMPDEST SWAP2 POP PUSH3 0x7F1 PUSH2 0x200 DUP12 ADD PUSH3 0x5ED JUMP JUMPDEST SWAP1 POP SWAP3 SWAP6 SWAP9 POP SWAP3 SWAP6 SWAP9 POP SWAP3 SWAP6 SWAP9 JUMP JUMPDEST PUSH1 0x0 PUSH1 0x20 DUP3 DUP5 SUB SLT ISZERO PUSH3 0x813 JUMPI PUSH1 0x0 DUP1 REVERT JUMPDEST POP MLOAD SWAP2 SWAP1 POP JUMP JUMPDEST PUSH1 0x40 MLOAD PUSH2 0x120 DUP2 ADD PUSH1 0x1 PUSH1 0x1 PUSH1 0x40 SHL SUB DUP2 GT DUP3 DUP3 LT OR ISZERO PUSH3 0x840 JUMPI PUSH3 0x840 PUSH3 0x92B JUMP JUMPDEST PUSH1 0x40 MSTORE SWAP1 JUMP JUMPDEST PUSH1 0x40 MLOAD PUSH1 0x1F DUP3 ADD PUSH1 0x1F NOT AND DUP2 ADD PUSH1 0x1 PUSH1 0x1 PUSH1 0x40 SHL SUB DUP2 GT DUP3 DUP3 LT OR ISZERO PUSH3 0x871 JUMPI PUSH3 0x871 PUSH3 0x92B JUMP JUMPDEST PUSH1 0x40 MSTORE SWAP2 SWAP1 POP JUMP JUMPDEST PUSH1 0x0 DUP3 PUSH3 0x897 JUMPI PUSH4 0x4E487B71 PUSH1 0xE0 SHL PUSH1 0x0 MSTORE PUSH1 0x12 PUSH1 0x4 MSTORE PUSH1 0x24 PUSH1 0x0 REVERT JUMPDEST POP DIV SWAP1 JUMP JUMPDEST PUSH1 0x0 DUP2 PUSH1 0x0 NOT DIV DUP4 GT DUP3 ISZERO ISZERO AND ISZERO PUSH3 0x8B9 JUMPI PUSH3 0x8B9 PUSH3 0x915 JUMP JUMPDEST POP MUL SWAP1 JUMP JUMPDEST PUSH1 0x0 DUP3 DUP3 LT ISZERO PUSH3 0x8D3 JUMPI PUSH3 0x8D3 PUSH3 0x915 JUMP JUMPDEST POP SUB SWAP1 JUMP JUMPDEST PUSH1 0x1 DUP2 DUP2 SHR SWAP1 DUP3 AND DUP1 PUSH3 0x8ED JUMPI PUSH1 0x7F DUP3 AND SWAP2 POP JUMPDEST PUSH1 0x20 DUP3 LT DUP2 EQ ISZERO PUSH3 0x90F JUMPI PUSH4 0x4E487B71 PUSH1 0xE0 SHL PUSH1 0x0 MSTORE PUSH1 0x22 PUSH1 0x4 MSTORE PUSH1 0x24 PUSH1 0x0 REVERT JUMPDEST POP SWAP2 SWAP1 POP JUMP JUMPDEST PUSH4 0x4E487B71 PUSH1 0xE0 SHL PUSH1 0x0 MSTORE PUSH1 0x11 PUSH1 0x4 MSTORE PUSH1 0x24 PUSH1 0x0 REVERT JUMPDEST PUSH4 0x4E487B71 PUSH1 0xE0 SHL PUSH1 0x0 MSTORE PUSH1 0x41 PUSH1 0x4 MSTORE PUSH1 0x24 PUSH1 0x0 REVERT JUMPDEST PUSH2 0x1B4F DUP1 PUSH3 0x951 PUSH1 0x0 CODECOPY PUSH1 0x0 RETURN INVALID PUSH1 0x80 PUSH1 0x40 MSTORE PUSH1 0x4 CALLDATASIZE LT PUSH2 0x272 JUMPI PUSH1 0x0 CALLDATALOAD PUSH1 0xE0 SHR DUP1 PUSH4 0x85BF4946 GT PUSH2 0x14F JUMPI DUP1 PUSH4 0xBCA1DA85 GT PUSH2 0xC1 JUMPI DUP1 PUSH4 0xDE284B3A GT PUSH2 0x7A JUMPI DUP1 PUSH4 0xDE284B3A EQ PUSH2 0x6C1 JUMPI DUP1 PUSH4 0xE49DCE66 EQ PUSH2 0x6D7 JUMPI DUP1 PUSH4 0xEA44C1BC EQ PUSH2 0x6F7 JUMPI DUP1 PUSH4 0xF887EA40 EQ PUSH2 0x70D JUMPI DUP1 PUSH4 0xF89BE593 EQ PUSH2 0x72D JUMPI DUP1 PUSH4 0xFC0C546A EQ PUSH2 0x743 JUMPI PUSH1 0x0 DUP1 REVERT JUMPDEST DUP1 PUSH4 0xBCA1DA85 EQ PUSH2 0x625 JUMPI DUP1 PUSH4 0xBE9FEB30 EQ PUSH2 0x645 JUMPI DUP1 PUSH4 0xC45A0155 EQ PUSH2 0x65B JUMPI DUP1 PUSH4 0xC7BF5166 EQ PUSH2 0x67B JUMPI DUP1 PUSH4 0xC84C0387 EQ PUSH2 0x691 JUMPI DUP1 PUSH4 0xD4B9DE51 EQ PUSH2 0x6A7 JUMPI PUSH1 0x0 DUP1 REVERT JUMPDEST DUP1 PUSH4 0xA5F0DEA2 GT PUSH2 0x113 JUMPI DUP1 PUSH4 0xA5F0DEA2 EQ PUSH2 0x575 JUMPI DUP1 PUSH4 0xA611DC37 EQ PUSH2 0x58F JUMPI DUP1 PUSH4 0xA7BB5803 EQ PUSH2 0x5A5 JUMPI DUP1 PUSH4 0xABA83150 EQ PUSH2 0x5E4 JUMPI DUP1 PUSH4 0xB071CBE6 EQ PUSH2 0x5F9 JUMPI DUP1 PUSH4 0xB1C09B2A EQ PUSH2 0x60F JUMPI PUSH1 0x0 DUP1 REVERT JUMPDEST DUP1 PUSH4 0x85BF4946 EQ PUSH2 0x504 JUMPI DUP1 PUSH4 0x8F5D036B EQ PUSH2 0x523 JUMPI DUP1 PUSH4 0x957F1474 EQ PUSH2 0x538 JUMPI DUP1 PUSH4 0x9B8906AE EQ PUSH2 0x540 JUMPI DUP1 PUSH4 0xA0F7AB35 EQ PUSH2 0x55F JUMPI PUSH1 0x0 DUP1 REVERT JUMPDEST DUP1 PUSH4 0x51FB012D GT PUSH2 0x1E8 JUMPI DUP1 PUSH4 0x66D003AC GT PUSH2 0x1AC JUMPI DUP1 PUSH4 0x66D003AC EQ PUSH2 0x453 JUMPI DUP1 PUSH4 0x6B7F3DF3 EQ PUSH2 0x473 JUMPI DUP1 PUSH4 0x6EF2E4D3 EQ PUSH2 0x4A0 JUMPI DUP1 PUSH4 0x7284E416 EQ PUSH2 0x4B6 JUMPI DUP1 PUSH4 0x78E97925 EQ PUSH2 0x4D8 JUMPI DUP1 PUSH4 0x83B17FDD EQ PUSH2 0x4EE JUMPI PUSH1 0x0 DUP1 REVERT JUMPDEST DUP1 PUSH4 0x51FB012D EQ PUSH2 0x3C3 JUMPI DUP1 PUSH4 0x58A687EC EQ PUSH2 0x3F3 JUMPI DUP1 PUSH4 0x59663174 EQ PUSH2 0x408 JUMPI DUP1 PUSH4 0x5C975ABB EQ PUSH2 0x41B JUMPI DUP1 PUSH4 0x64DB812E EQ PUSH2 0x433 JUMPI PUSH1 0x0 DUP1 REVERT JUMPDEST DUP1 PUSH4 0x27A72C96 GT PUSH2 0x23A JUMPI DUP1 PUSH4 0x27A72C96 EQ PUSH2 0x2F8 JUMPI DUP1 PUSH4 0x27C8F835 EQ PUSH2 0x30E JUMPI DUP1 PUSH4 0x3197CBB6 EQ PUSH2 0x34D JUMPI DUP1 PUSH4 0x3C876081 EQ PUSH2 0x363 JUMPI DUP1 PUSH4 0x48C54B9D EQ PUSH2 0x398 JUMPI DUP1 PUSH4 0x4AE01D52 EQ PUSH2 0x3AD JUMPI PUSH1 0x0 DUP1 REVERT JUMPDEST DUP1 PUSH4 0x17F6FAE EQ PUSH2 0x277 JUMPI DUP1 PUSH4 0x39CE157 EQ PUSH2 0x2A0 JUMPI DUP1 PUSH4 0x3BCF11D EQ PUSH2 0x2B6 JUMPI DUP1 PUSH4 0x12E409C5 EQ PUSH2 0x2CD JUMPI DUP1 PUSH4 0x201A3419 EQ PUSH2 0x2E3 JUMPI JUMPDEST PUSH1 0x0 DUP1 REVERT JUMPDEST CALLVALUE DUP1 ISZERO PUSH2 0x283 JUMPI PUSH1 0x0 DUP1 REVERT JUMPDEST POP PUSH2 0x28D PUSH1 0x7 SLOAD DUP2 JUMP JUMPDEST PUSH1 0x40 MLOAD SWAP1 DUP2 MSTORE PUSH1 0x20 ADD JUMPDEST PUSH1 0x40 MLOAD DUP1 SWAP2 SUB SWAP1 RETURN JUMPDEST CALLVALUE DUP1 ISZERO PUSH2 0x2AC JUMPI PUSH1 0x0 DUP1 REVERT JUMPDEST POP PUSH2 0x28D PUSH1 0x11 SLOAD DUP2 JUMP JUMPDEST CALLVALUE DUP1 ISZERO PUSH2 0x2C2 JUMPI PUSH1 0x0 DUP1 REVERT JUMPDEST POP PUSH2 0x2CB PUSH2 0x763 JUMP JUMPDEST STOP JUMPDEST CALLVALUE DUP1 ISZERO PUSH2 0x2D9 JUMPI PUSH1 0x0 DUP1 REVERT JUMPDEST POP PUSH2 0x28D PUSH1 0x10 SLOAD DUP2 JUMP JUMPDEST CALLVALUE DUP1 ISZERO PUSH2 0x2EF JUMPI PUSH1 0x0 DUP1 REVERT JUMPDEST POP PUSH2 0x2CB PUSH2 0x851 JUMP JUMPDEST CALLVALUE DUP1 ISZERO PUSH2 0x304 JUMPI PUSH1 0x0 DUP1 REVERT JUMPDEST POP PUSH2 0x28D PUSH1 0xE SLOAD DUP2 JUMP JUMPDEST CALLVALUE DUP1 ISZERO PUSH2 0x31A JUMPI PUSH1 0x0 DUP1 REVERT JUMPDEST POP PUSH1 0x13 SLOAD PUSH2 0x335 SWAP1 PUSH4 0x1000000 SWAP1 DIV PUSH1 0x1 PUSH1 0x1 PUSH1 0xA0 SHL SUB AND DUP2 JUMP JUMPDEST PUSH1 0x40 MLOAD PUSH1 0x1 PUSH1 0x1 PUSH1 0xA0 SHL SUB SWAP1 SWAP2 AND DUP2 MSTORE PUSH1 0x20 ADD PUSH2 0x297 JUMP JUMPDEST CALLVALUE DUP1 ISZERO PUSH2 0x359 JUMPI PUSH1 0x0 DUP1 REVERT JUMPDEST POP PUSH2 0x28D PUSH1 0x9 SLOAD DUP2 JUMP JUMPDEST CALLVALUE DUP1 ISZERO PUSH2 0x36F JUMPI PUSH1 0x0 DUP1 REVERT JUMPDEST POP PUSH2 0x335 PUSH2 0x37E CALLDATASIZE PUSH1 0x4 PUSH2 0x1794 JUMP JUMPDEST PUSH1 0x20 DUP1 MSTORE PUSH1 0x0 SWAP1 DUP2 MSTORE PUSH1 0x40 SWAP1 KECCAK256 SLOAD PUSH1 0x1 PUSH1 0x1 PUSH1 0xA0 SHL SUB AND DUP2 JUMP JUMPDEST CALLVALUE DUP1 ISZERO PUSH2 0x3A4 JUMPI PUSH1 0x0 DUP1 REVERT JUMPDEST POP PUSH2 0x2CB PUSH2 0xB5A JUMP JUMPDEST CALLVALUE DUP1 ISZERO PUSH2 0x3B9 JUMPI PUSH1 0x0 DUP1 REVERT JUMPDEST POP PUSH2 0x28D PUSH1 0xC SLOAD DUP2 JUMP JUMPDEST CALLVALUE DUP1 ISZERO PUSH2 0x3CF JUMPI PUSH1 0x0 DUP1 REVERT JUMPDEST POP PUSH1 0x13 SLOAD PUSH2 0x3E3 SWAP1 PUSH3 0x10000 SWAP1 DIV PUSH1 0xFF AND DUP2 JUMP JUMPDEST PUSH1 0x40 MLOAD SWAP1 ISZERO ISZERO DUP2 MSTORE PUSH1 0x20 ADD PUSH2 0x297 JUMP JUMPDEST CALLVALUE DUP1 ISZERO PUSH2 0x3FF JUMPI PUSH1 0x0 DUP1 REVERT JUMPDEST POP PUSH2 0x2CB PUSH2 0xD4F JUMP JUMPDEST PUSH2 0x2CB PUSH2 0x416 CALLDATASIZE PUSH1 0x4 PUSH2 0x17D8 JUMP JUMPDEST PUSH2 0xEBA JUMP JUMPDEST CALLVALUE DUP1 ISZERO PUSH2 0x427 JUMPI PUSH1 0x0 DUP1 REVERT JUMPDEST POP PUSH1 0x1 SLOAD PUSH1 0xFF AND PUSH2 0x3E3 JUMP JUMPDEST CALLVALUE DUP1 ISZERO PUSH2 0x43F JUMPI PUSH1 0x0 DUP1 REVERT JUMPDEST POP PUSH1 0x1F SLOAD PUSH2 0x3E3 SWAP1 PUSH3 0x10000 SWAP1 DIV PUSH1 0xFF AND DUP2 JUMP JUMPDEST CALLVALUE DUP1 ISZERO PUSH2 0x45F JUMPI PUSH1 0x0 DUP1 REVERT JUMPDEST POP PUSH1 0x1C SLOAD PUSH2 0x335 SWAP1 PUSH1 0x1 PUSH1 0x1 PUSH1 0xA0 SHL SUB AND DUP2 JUMP JUMPDEST CALLVALUE DUP1 ISZERO PUSH2 0x47F JUMPI PUSH1 0x0 DUP1 REVERT JUMPDEST POP PUSH2 0x28D PUSH2 0x48E CALLDATASIZE PUSH1 0x4 PUSH2 0x1794 JUMP JUMPDEST PUSH1 0x21 PUSH1 0x20 MSTORE PUSH1 0x0 SWAP1 DUP2 MSTORE PUSH1 0x40 SWAP1 KECCAK256 SLOAD DUP2 JUMP JUMPDEST CALLVALUE DUP1 ISZERO PUSH2 0x4AC JUMPI PUSH1 0x0 DUP1 REVERT JUMPDEST POP PUSH2 0x28D PUSH1 0x12 SLOAD DUP2 JUMP JUMPDEST CALLVALUE DUP1 ISZERO PUSH2 0x4C2 JUMPI PUSH1 0x0 DUP1 REVERT JUMPDEST POP PUSH2 0x4CB PUSH2 0x1123 JUMP JUMPDEST PUSH1 0x40 MLOAD PUSH2 0x297 SWAP2 SWAP1 PUSH2 0x18B9 JUMP JUMPDEST CALLVALUE DUP1 ISZERO PUSH2 0x4E4 JUMPI PUSH1 0x0 DUP1 REVERT JUMPDEST POP PUSH2 0x28D PUSH1 0x8 SLOAD DUP2 JUMP JUMPDEST CALLVALUE DUP1 ISZERO PUSH2 0x4FA JUMPI PUSH1 0x0 DUP1 REVERT JUMPDEST POP PUSH2 0x28D PUSH1 0x2 SLOAD DUP2 JUMP JUMPDEST CALLVALUE DUP1 ISZERO PUSH2 0x510 JUMPI PUSH1 0x0 DUP1 REVERT JUMPDEST POP PUSH1 0x13 SLOAD PUSH2 0x3E3 SWAP1 PUSH2 0x100 SWAP1 DIV PUSH1 0xFF AND DUP2 JUMP JUMPDEST CALLVALUE DUP1 ISZERO PUSH2 0x52F JUMPI PUSH1 0x0 DUP1 REVERT JUMPDEST POP PUSH2 0x2CB PUSH2 0x11B1 JUMP JUMPDEST PUSH2 0x2CB PUSH2 0x1386 JUMP JUMPDEST CALLVALUE DUP1 ISZERO PUSH2 0x54C JUMPI PUSH1 0x0 DUP1 REVERT JUMPDEST POP PUSH1 0x1F SLOAD PUSH2 0x3E3 SWAP1 PUSH2 0x100 SWAP1 DIV PUSH1 0xFF AND DUP2 JUMP JUMPDEST CALLVALUE DUP1 ISZERO PUSH2 0x56B JUMPI PUSH1 0x0 DUP1 REVERT JUMPDEST POP PUSH2 0x28D PUSH1 0x3 SLOAD DUP2 JUMP JUMPDEST CALLVALUE DUP1 ISZERO PUSH2 0x581 JUMPI PUSH1 0x0 DUP1 REVERT JUMPDEST POP PUSH1 0x1F SLOAD PUSH2 0x3E3 SWAP1 PUSH1 0xFF AND DUP2 JUMP JUMPDEST CALLVALUE DUP1 ISZERO PUSH2 0x59B JUMPI PUSH1 0x0 DUP1 REVERT JUMPDEST POP PUSH2 0x28D PUSH1 0x4 SLOAD DUP2 JUMP JUMPDEST CALLVALUE DUP1 ISZERO PUSH2 0x5B1 JUMPI PUSH1 0x0 DUP1 REVERT JUMPDEST POP PUSH2 0x5C5 PUSH2 0x5C0 CALLDATASIZE PUSH1 0x4 PUSH2 0x17D8 JUMP JUMPDEST PUSH2 0x15D7 JUMP JUMPDEST PUSH1 0x40 DUP1 MLOAD PUSH1 0xFF SWAP1 SWAP5 AND DUP5 MSTORE PUSH1 0x20 DUP5 ADD SWAP3 SWAP1 SWAP3 MSTORE SWAP1 DUP3 ADD MSTORE PUSH1 0x60 ADD PUSH2 0x297 JUMP JUMPDEST CALLVALUE DUP1 ISZERO PUSH2 0x5F0 JUMPI PUSH1 0x0 DUP1 REVERT JUMPDEST POP PUSH2 0x4CB PUSH2 0x1606 JUMP JUMPDEST CALLVALUE DUP1 ISZERO PUSH2 0x605 JUMPI PUSH1 0x0 DUP1 REVERT JUMPDEST POP PUSH2 0x28D PUSH1 0x5 SLOAD DUP2 JUMP JUMPDEST CALLVALUE DUP1 ISZERO PUSH2 0x61B JUMPI PUSH1 0x0 DUP1 REVERT JUMPDEST POP PUSH2 0x28D PUSH1 0x1E SLOAD DUP2 JUMP JUMPDEST CALLVALUE DUP1 ISZERO PUSH2 0x631 JUMPI PUSH1 0x0 DUP1 REVERT JUMPDEST POP PUSH1 0x1D SLOAD PUSH2 0x335 SWAP1 PUSH1 0x1 PUSH1 0x1 PUSH1 0xA0 SHL SUB AND DUP2 JUMP JUMPDEST CALLVALUE DUP1 ISZERO PUSH2 0x651 JUMPI PUSH1 0x0 DUP1 REVERT JUMPDEST POP PUSH2 0x28D PUSH1 0xA SLOAD DUP2 JUMP JUMPDEST CALLVALUE DUP1 ISZERO PUSH2 0x667 JUMPI PUSH1 0x0 DUP1 REVERT JUMPDEST POP PUSH1 0x17 SLOAD PUSH2 0x335 SWAP1 PUSH1 0x1 PUSH1 0x1 PUSH1 0xA0 SHL SUB AND DUP2 JUMP JUMPDEST CALLVALUE DUP1 ISZERO PUSH2 0x687 JUMPI PUSH1 0x0 DUP1 REVERT JUMPDEST POP PUSH2 0x28D PUSH1 0xB SLOAD DUP2 JUMP JUMPDEST CALLVALUE DUP1 ISZERO PUSH2 0x69D JUMPI PUSH1 0x0 DUP1 REVERT JUMPDEST POP PUSH2 0x28D PUSH1 0x19 SLOAD DUP2 JUMP JUMPDEST CALLVALUE DUP1 ISZERO PUSH2 0x6B3 JUMPI PUSH1 0x0 DUP1 REVERT JUMPDEST POP PUSH1 0x13 SLOAD PUSH2 0x3E3 SWAP1 PUSH1 0xFF AND DUP2 JUMP JUMPDEST CALLVALUE DUP1 ISZERO PUSH2 0x6CD JUMPI PUSH1 0x0 DUP1 REVERT JUMPDEST POP PUSH2 0x28D PUSH1 0xF SLOAD DUP2 JUMP JUMPDEST CALLVALUE DUP1 ISZERO PUSH2 0x6E3 JUMPI PUSH1 0x0 DUP1 REVERT JUMPDEST POP PUSH2 0x3E3 PUSH2 0x6F2 CALLDATASIZE PUSH1 0x4 PUSH2 0x1815 JUMP JUMPDEST PUSH2 0x1613 JUMP JUMPDEST CALLVALUE DUP1 ISZERO PUSH2 0x703 JUMPI PUSH1 0x0 DUP1 REVERT JUMPDEST POP PUSH2 0x28D PUSH1 0xD SLOAD DUP2 JUMP JUMPDEST CALLVALUE DUP1 ISZERO PUSH2 0x719 JUMPI PUSH1 0x0 DUP1 REVERT JUMPDEST POP PUSH1 0x16 SLOAD PUSH2 0x335 SWAP1 PUSH1 0x1 PUSH1 0x1 PUSH1 0xA0 SHL SUB AND DUP2 JUMP JUMPDEST CALLVALUE DUP1 ISZERO PUSH2 0x739 JUMPI PUSH1 0x0 DUP1 REVERT JUMPDEST POP PUSH2 0x28D PUSH1 0x6 SLOAD DUP2 JUMP JUMPDEST CALLVALUE DUP1 ISZERO PUSH2 0x74F JUMPI PUSH1 0x0 DUP1 REVERT JUMPDEST POP PUSH1 0x18 SLOAD PUSH2 0x335 SWAP1 PUSH1 0x1 PUSH1 0x1 PUSH1 0xA0 SHL SUB AND DUP2 JUMP JUMPDEST PUSH1 0x1D SLOAD PUSH1 0x1 PUSH1 0x1 PUSH1 0xA0 SHL SUB AND CALLER EQ PUSH2 0x796 JUMPI PUSH1 0x40 MLOAD PUSH3 0x461BCD PUSH1 0xE5 SHL DUP2 MSTORE PUSH1 0x4 ADD PUSH2 0x78D SWAP1 PUSH2 0x19A5 JUMP JUMPDEST PUSH1 0x40 MLOAD DUP1 SWAP2 SUB SWAP1 REVERT JUMPDEST PUSH1 0x1F SLOAD PUSH2 0x100 SWAP1 DIV PUSH1 0xFF AND ISZERO PUSH2 0x7EE JUMPI PUSH1 0x40 MLOAD PUSH3 0x461BCD PUSH1 0xE5 SHL DUP2 MSTORE PUSH1 0x20 PUSH1 0x4 DUP3 ADD MSTORE PUSH1 0x1C PUSH1 0x24 DUP3 ADD MSTORE PUSH32 0x636C61696D696E672068617320616C7265616479207374617274656400000000 PUSH1 0x44 DUP3 ADD MSTORE PUSH1 0x64 ADD PUSH2 0x78D JUMP JUMPDEST PUSH1 0x1F SLOAD PUSH3 0x10000 SWAP1 DIV PUSH1 0xFF AND ISZERO PUSH2 0x83E JUMPI PUSH1 0x40 MLOAD PUSH3 0x461BCD PUSH1 0xE5 SHL DUP2 MSTORE PUSH1 0x20 PUSH1 0x4 DUP3 ADD MSTORE PUSH1 0x14 PUSH1 0x24 DUP3 ADD MSTORE PUSH20 0x1CD85B1948185B1C9958591E4818589BDC9D1959 PUSH1 0x62 SHL PUSH1 0x44 DUP3 ADD MSTORE PUSH1 0x64 ADD PUSH2 0x78D JUMP JUMPDEST PUSH1 0x1F DUP1 SLOAD PUSH3 0xFF0000 NOT AND PUSH3 0x10000 OR SWAP1 SSTORE JUMP JUMPDEST PUSH1 0x1D SLOAD PUSH1 0x1 PUSH1 0x1 PUSH1 0xA0 SHL SUB AND CALLER EQ PUSH2 0x87B JUMPI PUSH1 0x40 MLOAD PUSH3 0x461BCD PUSH1 0xE5 SHL DUP2 MSTORE PUSH1 0x4 ADD PUSH2 0x78D SWAP1 PUSH2 0x19A5 JUMP JUMPDEST PUSH1 0x2 PUSH1 0x0 SLOAD EQ ISZERO PUSH2 0x89E JUMPI PUSH1 0x40 MLOAD PUSH3 0x461BCD PUSH1 0xE5 SHL DUP2 MSTORE PUSH1 0x4 ADD PUSH2 0x78D SWAP1 PUSH2 0x1A22 JUMP JUMPDEST PUSH1 0x2 PUSH1 0x0 SSTORE PUSH1 0x1F SLOAD PUSH3 0x10000 SWAP1 DIV PUSH1 0xFF AND ISZERO PUSH2 0x8EF JUMPI PUSH1 0x40 MLOAD PUSH3 0x461BCD PUSH1 0xE5 SHL DUP2 MSTORE PUSH1 0x20 PUSH1 0x4 DUP3 ADD MSTORE PUSH1 0x10 PUSH1 0x24 DUP3 ADD MSTORE PUSH16 0x1CD85B19481DD85CC818589BDC9D1959 PUSH1 0x82 SHL PUSH1 0x44 DUP3 ADD MSTORE PUSH1 0x64 ADD PUSH2 0x78D JUMP JUMPDEST PUSH1 0x1F SLOAD PUSH1 0xFF AND PUSH2 0x939 JUMPI PUSH1 0x40 MLOAD PUSH3 0x461BCD PUSH1 0xE5 SHL DUP2 MSTORE PUSH1 0x20 PUSH1 0x4 DUP3 ADD MSTORE PUSH1 0x15 PUSH1 0x24 DUP3 ADD MSTORE PUSH21 0x1CD85B19481DD85CDB89DD08199A5B985B1A5E9959 PUSH1 0x5A SHL PUSH1 0x44 DUP3 ADD MSTORE PUSH1 0x64 ADD PUSH2 0x78D JUMP JUMPDEST PUSH1 0x9 SLOAD TIMESTAMP LT ISZERO PUSH2 0x948 JUMPI PUSH1 0x0 DUP1 REVERT JUMPDEST PUSH1 0x5 SLOAD PUSH1 0x6 SLOAD PUSH1 0x2 SLOAD PUSH2 0x95B SWAP2 SWAP1 PUSH2 0x1A93 JUMP JUMPDEST PUSH2 0x965 SWAP2 SWAP1 PUSH2 0x1A71 JUMP JUMPDEST PUSH1 0x1E SLOAD GT PUSH2 0x9B5 JUMPI PUSH1 0x40 MLOAD PUSH3 0x461BCD PUSH1 0xE5 SHL DUP2 MSTORE PUSH1 0x20 PUSH1 0x4 DUP3 ADD MSTORE PUSH1 0x1B PUSH1 0x24 DUP3 ADD MSTORE PUSH32 0x6E6F7420656E6F75676820746F6B656E73207765726520736F6C640000000000 PUSH1 0x44 DUP3 ADD MSTORE PUSH1 0x64 ADD PUSH2 0x78D JUMP JUMPDEST PUSH1 0x1F DUP1 SLOAD PUSH2 0xFF00 NOT AND PUSH2 0x100 OR SWAP1 SSTORE PUSH1 0x3 SLOAD PUSH1 0x1E SLOAD PUSH1 0x0 SWAP2 PUSH2 0x9D6 SWAP2 PUSH2 0x1A71 JUMP JUMPDEST SWAP1 POP PUSH1 0x0 PUSH1 0x2 SLOAD PUSH1 0x1E SLOAD PUSH1 0x12 SLOAD PUSH2 0x9ED SWAP2 SWAP1 PUSH2 0x1A93 JUMP JUMPDEST PUSH2 0x9F7 SWAP2 SWAP1 PUSH2 0x1A71 JUMP JUMPDEST PUSH1 0x18 SLOAD PUSH1 0x16 SLOAD PUSH1 0x40 MLOAD PUSH4 0x95EA7B3 PUSH1 0xE0 SHL DUP2 MSTORE PUSH1 0x1 PUSH1 0x1 PUSH1 0xA0 SHL SUB SWAP2 DUP3 AND PUSH1 0x4 DUP3 ADD MSTORE PUSH1 0x24 DUP2 ADD DUP5 SWAP1 MSTORE SWAP3 SWAP4 POP AND SWAP1 PUSH4 0x95EA7B3 SWAP1 PUSH1 0x44 ADD PUSH1 0x20 PUSH1 0x40 MLOAD DUP1 DUP4 SUB DUP2 PUSH1 0x0 DUP8 DUP1 EXTCODESIZE ISZERO DUP1 ISZERO PUSH2 0xA49 JUMPI PUSH1 0x0 DUP1 REVERT JUMPDEST POP GAS CALL ISZERO DUP1 ISZERO PUSH2 0xA5D JUMPI RETURNDATASIZE PUSH1 0x0 DUP1 RETURNDATACOPY RETURNDATASIZE PUSH1 0x0 REVERT JUMPDEST POP POP POP POP PUSH1 0x40 MLOAD RETURNDATASIZE PUSH1 0x1F NOT PUSH1 0x1F DUP3 ADD AND DUP3 ADD DUP1 PUSH1 0x40 MSTORE POP DUP2 ADD SWAP1 PUSH2 0xA81 SWAP2 SWAP1 PUSH2 0x17B6 JUMP JUMPDEST POP PUSH1 0x16 SLOAD PUSH1 0x18 SLOAD PUSH1 0x1 PUSH1 0x1 PUSH1 0xA0 SHL SUB SWAP2 DUP3 AND SWAP2 PUSH4 0xF305D719 SWAP2 DUP6 SWAP2 AND DUP5 PUSH1 0x0 DUP1 ADDRESS PUSH2 0xAAD TIMESTAMP PUSH1 0x64 PUSH2 0x1A59 JUMP JUMPDEST PUSH1 0x40 MLOAD PUSH1 0xE0 DUP10 SWAP1 SHL PUSH1 0x1 PUSH1 0x1 PUSH1 0xE0 SHL SUB NOT AND DUP2 MSTORE PUSH1 0x1 PUSH1 0x1 PUSH1 0xA0 SHL SUB SWAP7 DUP8 AND PUSH1 0x4 DUP3 ADD MSTORE PUSH1 0x24 DUP2 ADD SWAP6 SWAP1 SWAP6 MSTORE PUSH1 0x44 DUP6 ADD SWAP4 SWAP1 SWAP4 MSTORE PUSH1 0x64 DUP5 ADD SWAP2 SWAP1 SWAP2 MSTORE SWAP1 SWAP3 AND PUSH1 0x84 DUP3 ADD MSTORE PUSH1 0xA4 DUP2 ADD SWAP2 SWAP1 SWAP2 MSTORE PUSH1 0xC4 ADD PUSH1 0x60 PUSH1 0x40 MLOAD DUP1 DUP4 SUB DUP2 DUP6 DUP9 DUP1 EXTCODESIZE ISZERO DUP1 ISZERO PUSH2 0xB15 JUMPI PUSH1 0x0 DUP1 REVERT JUMPDEST POP GAS CALL ISZERO DUP1 ISZERO PUSH2 0xB29 JUMPI RETURNDATASIZE PUSH1 0x0 DUP1 RETURNDATACOPY RETURNDATASIZE PUSH1 0x0 REVERT JUMPDEST POP POP POP POP POP PUSH1 0x40 MLOAD RETURNDATASIZE PUSH1 0x1F NOT PUSH1 0x1F DUP3 ADD AND DUP3 ADD DUP1 PUSH1 0x40 MSTORE POP DUP2 ADD SWAP1 PUSH2 0xB4E SWAP2 SWAP1 PUSH2 0x188B JUMP JUMPDEST POP POP PUSH1 0x1 PUSH1 0x0 SSTORE POP POP POP JUMP JUMPDEST PUSH1 0x2 PUSH1 0x0 SLOAD EQ ISZERO PUSH2 0xB7D JUMPI PUSH1 0x40 MLOAD PUSH3 0x461BCD PUSH1 0xE5 SHL DUP2 MSTORE PUSH1 0x4 ADD PUSH2 0x78D SWAP1 PUSH2 0x1A22 JUMP JUMPDEST PUSH1 0x2 PUSH1 0x0 SSTORE PUSH1 0x9 SLOAD TIMESTAMP GT PUSH2 0xBC7 JUMPI PUSH1 0x40 MLOAD PUSH3 0x461BCD PUSH1 0xE5 SHL DUP2 MSTORE PUSH1 0x20 PUSH1 0x4 DUP3 ADD MSTORE PUSH1 0x11 PUSH1 0x24 DUP3 ADD MSTORE PUSH17 0x1CD85B19481A185CDB89DD08195B991959 PUSH1 0x7A SHL PUSH1 0x44 DUP3 ADD MSTORE PUSH1 0x64 ADD PUSH2 0x78D JUMP JUMPDEST CALLER PUSH1 0x0 SWAP1 DUP2 MSTORE PUSH1 0x21 PUSH1 0x20 MSTORE PUSH1 0x40 SWAP1 KECCAK256 SLOAD PUSH2 0xC23 JUMPI PUSH1 0x40 MLOAD PUSH3 0x461BCD PUSH1 0xE5 SHL DUP2 MSTORE PUSH1 0x20 PUSH1 0x4 DUP3 ADD MSTORE PUSH1 0x1F PUSH1 0x24 DUP3 ADD MSTORE PUSH32 0x75736572206861736E277420616E7920746F6B656E7320746F20636C61696D00 PUSH1 0x44 DUP3 ADD MSTORE PUSH1 0x64 ADD PUSH2 0x78D JUMP JUMPDEST PUSH1 0x1F SLOAD PUSH2 0x100 SWAP1 DIV PUSH1 0xFF AND PUSH2 0xC86 JUMPI PUSH1 0x40 MLOAD PUSH3 0x461BCD PUSH1 0xE5 SHL DUP2 MSTORE PUSH1 0x20 PUSH1 0x4 DUP3 ADD MSTORE PUSH1 0x23 PUSH1 0x24 DUP3 ADD MSTORE PUSH32 0x696E69746961746F72206861736E277420656E646564207468652073616C6520 PUSH1 0x44 DUP3 ADD MSTORE PUSH3 0x1E595D PUSH1 0xEA SHL PUSH1 0x64 DUP3 ADD MSTORE PUSH1 0x84 ADD PUSH2 0x78D JUMP JUMPDEST PUSH1 0xB SLOAD CALLER PUSH1 0x0 SWAP1 DUP2 MSTORE PUSH1 0x21 PUSH1 0x20 MSTORE PUSH1 0x40 DUP2 KECCAK256 SLOAD SWAP1 SWAP2 PUSH2 0xCA4 SWAP2 PUSH2 0x1A93 JUMP JUMPDEST CALLER PUSH1 0x0 DUP2 DUP2 MSTORE PUSH1 0x21 PUSH1 0x20 MSTORE PUSH1 0x40 DUP1 DUP3 KECCAK256 SWAP2 SWAP1 SWAP2 SSTORE PUSH1 0x18 SLOAD SWAP1 MLOAD PUSH4 0x23B872DD PUSH1 0xE0 SHL DUP2 MSTORE ADDRESS PUSH1 0x4 DUP3 ADD MSTORE PUSH1 0x24 DUP2 ADD SWAP3 SWAP1 SWAP3 MSTORE PUSH1 0x44 DUP3 ADD DUP4 SWAP1 MSTORE SWAP2 SWAP3 POP PUSH1 0x1 PUSH1 0x1 PUSH1 0xA0 SHL SUB SWAP1 SWAP2 AND SWAP1 PUSH4 0x23B872DD SWAP1 PUSH1 0x64 ADD PUSH1 0x20 PUSH1 0x40 MLOAD DUP1 DUP4 SUB DUP2 PUSH1 0x0 DUP8 DUP1 EXTCODESIZE ISZERO DUP1 ISZERO PUSH2 0xD0E JUMPI PUSH1 0x0 DUP1 REVERT JUMPDEST POP GAS CALL ISZERO DUP1 ISZERO PUSH2 0xD22 JUMPI RETURNDATASIZE PUSH1 0x0 DUP1 RETURNDATACOPY RETURNDATASIZE PUSH1 0x0 REVERT JUMPDEST POP POP POP POP PUSH1 0x40 MLOAD RETURNDATASIZE PUSH1 0x1F NOT PUSH1 0x1F DUP3 ADD AND DUP3 ADD DUP1 PUSH1 0x40 MSTORE POP DUP2 ADD SWAP1 PUSH2 0xD46 SWAP2 SWAP1 PUSH2 0x17B6 JUMP JUMPDEST POP POP PUSH1 0x1 PUSH1 0x0 SSTORE JUMP JUMPDEST PUSH1 0x1D SLOAD PUSH1 0x1 PUSH1 0x1 PUSH1 0xA0 SHL SUB AND CALLER EQ PUSH2 0xD79 JUMPI PUSH1 0x40 MLOAD PUSH3 0x461BCD PUSH1 0xE5 SHL DUP2 MSTORE PUSH1 0x4 ADD PUSH2 0x78D SWAP1 PUSH2 0x19A5 JUMP JUMPDEST PUSH1 0x1F SLOAD PUSH3 0x10000 SWAP1 DIV PUSH1 0xFF AND ISZERO PUSH2 0xDC5 JUMPI PUSH1 0x40 MLOAD PUSH3 0x461BCD PUSH1 0xE5 SHL DUP2 MSTORE PUSH1 0x20 PUSH1 0x4 DUP3 ADD MSTORE PUSH1 0x10 PUSH1 0x24 DUP3 ADD MSTORE PUSH16 0x1CD85B19481DD85CC818589BDC9D1959 PUSH1 0x82 SHL PUSH1 0x44 DUP3 ADD MSTORE PUSH1 0x64 ADD PUSH2 0x78D JUMP JUMPDEST PUSH1 0x2 SLOAD PUSH1 0x18 SLOAD PUSH1 0x40 MLOAD PUSH4 0x70A08231 PUSH1 0xE0 SHL DUP2 MSTORE ADDRESS PUSH1 0x4 DUP3 ADD MSTORE PUSH1 0x1 PUSH1 0x1 PUSH1 0xA0 SHL SUB SWAP1 SWAP2 AND SWAP1 PUSH4 0x70A08231 SWAP1 PUSH1 0x24 ADD PUSH1 0x20 PUSH1 0x40 MLOAD DUP1 DUP4 SUB DUP2 DUP7 DUP1 EXTCODESIZE ISZERO DUP1 ISZERO PUSH2 0xE0B JUMPI PUSH1 0x0 DUP1 REVERT JUMPDEST POP GAS STATICCALL ISZERO DUP1 ISZERO PUSH2 0xE1F JUMPI RETURNDATASIZE PUSH1 0x0 DUP1 RETURNDATACOPY RETURNDATASIZE PUSH1 0x0 REVERT JUMPDEST POP POP POP POP PUSH1 0x40 MLOAD RETURNDATASIZE PUSH1 0x1F NOT PUSH1 0x1F DUP3 ADD AND DUP3 ADD DUP1 PUSH1 0x40 MSTORE POP DUP2 ADD SWAP1 PUSH2 0xE43 SWAP2 SWAP1 PUSH2 0x1872 JUMP JUMPDEST LT ISZERO PUSH2 0xEAB JUMPI PUSH1 0x40 MLOAD PUSH3 0x461BCD PUSH1 0xE5 SHL DUP2 MSTORE PUSH1 0x20 PUSH1 0x4 DUP3 ADD MSTORE PUSH1 0x31 PUSH1 0x24 DUP3 ADD MSTORE PUSH32 0x696E73756666696369656E7420616D6F756E74206F6620746F6B656E73207365 PUSH1 0x44 DUP3 ADD MSTORE PUSH17 0x6E7420746F207468652061646472657373 PUSH1 0x78 SHL PUSH1 0x64 DUP3 ADD MSTORE PUSH1 0x84 ADD PUSH2 0x78D JUMP JUMPDEST PUSH1 0x1F DUP1 SLOAD PUSH1 0xFF NOT AND PUSH1 0x1 OR SWAP1 SSTORE JUMP JUMPDEST PUSH1 0x2 PUSH1 0x0 SLOAD EQ ISZERO PUSH2 0xEDD JUMPI PUSH1 0x40 MLOAD PUSH3 0x461BCD PUSH1 0xE5 SHL DUP2 MSTORE PUSH1 0x4 ADD PUSH2 0x78D SWAP1 PUSH2 0x1A22 JUMP JUMPDEST PUSH1 0x2 PUSH1 0x0 SSTORE PUSH1 0x1 SLOAD PUSH1 0xFF AND ISZERO PUSH2 0xF28 JUMPI PUSH1 0x40 MLOAD PUSH3 0x461BCD PUSH1 0xE5 SHL DUP2 MSTORE PUSH1 0x20 PUSH1 0x4 DUP3 ADD MSTORE PUSH1 0x10 PUSH1 0x24 DUP3 ADD MSTORE PUSH16 0x14185D5CD8589B194E881C185D5CD959 PUSH1 0x82 SHL PUSH1 0x44 DUP3 ADD MSTORE PUSH1 0x64 ADD PUSH2 0x78D JUMP JUMPDEST PUSH2 0xF36 DUP2 CALLER PUSH1 0x19 SLOAD CHAINID PUSH2 0x1613 JUMP JUMPDEST PUSH2 0xF3F JUMPI PUSH1 0x0 DUP1 REVERT JUMPDEST PUSH1 0xF SLOAD CALLVALUE GT ISZERO PUSH2 0xF61 JUMPI PUSH1 0x40 MLOAD PUSH3 0x461BCD PUSH1 0xE5 SHL DUP2 MSTORE PUSH1 0x4 ADD PUSH2 0x78D SWAP1 PUSH2 0x1961 JUMP JUMPDEST PUSH1 0x10 SLOAD CALLVALUE LT ISZERO PUSH2 0xFAF JUMPI PUSH1 0x40 MLOAD PUSH3 0x461BCD PUSH1 0xE5 SHL DUP2 MSTORE PUSH1 0x20 PUSH1 0x4 DUP3 ADD MSTORE PUSH1 0x19 PUSH1 0x24 DUP3 ADD MSTORE PUSH25 0xF2DEEA4EE4CA40DCDEE840E6CADCC8D2DCCE40CADCDEEACED PUSH1 0x3B SHL PUSH1 0x44 DUP3 ADD MSTORE PUSH1 0x64 ADD PUSH2 0x78D JUMP JUMPDEST PUSH1 0x11 SLOAD PUSH1 0x1E SLOAD PUSH1 0xB SLOAD PUSH2 0xFC2 SWAP1 CALLVALUE PUSH2 0x1A93 JUMP JUMPDEST PUSH2 0xFCC SWAP2 SWAP1 PUSH2 0x1A59 JUMP JUMPDEST GT ISZERO PUSH2 0xFEA JUMPI PUSH1 0x40 MLOAD PUSH3 0x461BCD PUSH1 0xE5 SHL DUP2 MSTORE PUSH1 0x4 ADD PUSH2 0x78D SWAP1 PUSH2 0x190E JUMP JUMPDEST PUSH1 0x5 SLOAD SELFBALANCE GT ISZERO PUSH2 0x100C JUMPI PUSH1 0x40 MLOAD PUSH3 0x461BCD PUSH1 0xE5 SHL DUP2 MSTORE PUSH1 0x4 ADD PUSH2 0x78D SWAP1 PUSH2 0x19DC JUMP JUMPDEST PUSH1 0xA SLOAD TIMESTAMP GT PUSH2 0x1057 JUMPI PUSH1 0x40 MLOAD PUSH3 0x461BCD PUSH1 0xE5 SHL DUP2 MSTORE PUSH1 0x20 PUSH1 0x4 DUP3 ADD MSTORE PUSH1 0x17 PUSH1 0x24 DUP3 ADD MSTORE PUSH23 0x1CD85B19481A185CDB89DD081CDD185C9D1959081E595D PUSH1 0x4A SHL PUSH1 0x44 DUP3 ADD MSTORE PUSH1 0x64 ADD PUSH2 0x78D JUMP JUMPDEST PUSH1 0x9 SLOAD TIMESTAMP LT PUSH2 0x1099 JUMPI PUSH1 0x40 MLOAD PUSH3 0x461BCD PUSH1 0xE5 SHL DUP2 MSTORE PUSH1 0x20 PUSH1 0x4 DUP3 ADD MSTORE PUSH1 0xE PUSH1 0x24 DUP3 ADD MSTORE PUSH14 0x1CD85B19481A185CC8195B991959 PUSH1 0x92 SHL PUSH1 0x44 DUP3 ADD MSTORE PUSH1 0x64 ADD PUSH2 0x78D JUMP JUMPDEST PUSH1 0x1F SLOAD PUSH1 0xFF AND PUSH2 0x10EB JUMPI PUSH1 0x40 MLOAD PUSH3 0x461BCD PUSH1 0xE5 SHL DUP2 MSTORE PUSH1 0x20 PUSH1 0x4 DUP3 ADD MSTORE PUSH1 0x1E PUSH1 0x24 DUP3 ADD MSTORE PUSH32 0x73616C65206861736E2774206265656E2066696E616C697A6564207965740000 PUSH1 0x44 DUP3 ADD MSTORE PUSH1 0x64 ADD PUSH2 0x78D JUMP JUMPDEST CALLER PUSH1 0x0 SWAP1 DUP2 MSTORE PUSH1 0x21 PUSH1 0x20 MSTORE PUSH1 0x40 SWAP1 KECCAK256 CALLVALUE SWAP1 DUP2 SWAP1 SSTORE PUSH1 0xB SLOAD PUSH2 0x110B SWAP2 PUSH2 0x1A93 JUMP JUMPDEST PUSH1 0x1E SLOAD PUSH2 0x1118 SWAP2 SWAP1 PUSH2 0x1A59 JUMP JUMPDEST PUSH1 0x1E SSTORE POP PUSH1 0x1 PUSH1 0x0 SSTORE JUMP JUMPDEST PUSH1 0x1A DUP1 SLOAD PUSH2 0x1130 SWAP1 PUSH2 0x1AB2 JUMP JUMPDEST DUP1 PUSH1 0x1F ADD PUSH1 0x20 DUP1 SWAP2 DIV MUL PUSH1 0x20 ADD PUSH1 0x40 MLOAD SWAP1 DUP2 ADD PUSH1 0x40 MSTORE DUP1 SWAP3 SWAP2 SWAP1 DUP2 DUP2 MSTORE PUSH1 0x20 ADD DUP3 DUP1 SLOAD PUSH2 0x115C SWAP1 PUSH2 0x1AB2 JUMP JUMPDEST DUP1 ISZERO PUSH2 0x11A9 JUMPI DUP1 PUSH1 0x1F LT PUSH2 0x117E JUMPI PUSH2 0x100 DUP1 DUP4 SLOAD DIV MUL DUP4 MSTORE SWAP2 PUSH1 0x20 ADD SWAP2 PUSH2 0x11A9 JUMP JUMPDEST DUP3 ADD SWAP2 SWAP1 PUSH1 0x0 MSTORE PUSH1 0x20 PUSH1 0x0 KECCAK256 SWAP1 JUMPDEST DUP2 SLOAD DUP2 MSTORE SWAP1 PUSH1 0x1 ADD SWAP1 PUSH1 0x20 ADD DUP1 DUP4 GT PUSH2 0x118C JUMPI DUP3 SWAP1 SUB PUSH1 0x1F AND DUP3 ADD SWAP2 JUMPDEST POP POP POP POP POP DUP2 JUMP JUMPDEST PUSH1 0x2 PUSH1 0x0 SLOAD EQ ISZERO PUSH2 0x11D4 JUMPI PUSH1 0x40 MLOAD PUSH3 0x461BCD PUSH1 0xE5 SHL DUP2 MSTORE PUSH1 0x4 ADD PUSH2 0x78D SWAP1 PUSH2 0x1A22 JUMP JUMPDEST PUSH1 0x2 PUSH1 0x0 SSTORE PUSH1 0x1F SLOAD PUSH2 0x100 SWAP1 DIV PUSH1 0xFF AND ISZERO PUSH2 0x123D JUMPI PUSH1 0x40 MLOAD PUSH3 0x461BCD PUSH1 0xE5 SHL DUP2 MSTORE PUSH1 0x20 PUSH1 0x4 DUP3 ADD MSTORE PUSH1 0x23 PUSH1 0x24 DUP3 ADD MSTORE PUSH32 0x73616C6520686173206265656E20656E646564203A20796F752063616E20636C PUSH1 0x44 DUP3 ADD MSTORE PUSH3 0x61696D PUSH1 0xE8 SHL PUSH1 0x64 DUP3 ADD MSTORE PUSH1 0x84 ADD PUSH2 0x78D JUMP JUMPDEST PUSH1 0x1F SLOAD PUSH3 0x10000 SWAP1 DIV PUSH1 0xFF AND PUSH2 0x12C2 JUMPI PUSH1 0x9 SLOAD PUSH2 0x125D SWAP1 PUSH3 0x15180 PUSH2 0x1A59 JUMP JUMPDEST TIMESTAMP GT PUSH2 0x12C2 JUMPI PUSH1 0x40 MLOAD PUSH3 0x461BCD PUSH1 0xE5 SHL DUP2 MSTORE PUSH1 0x20 PUSH1 0x4 DUP3 ADD MSTORE PUSH1 0x2E PUSH1 0x24 DUP3 ADD MSTORE PUSH32 0x796F75206E65656420746F207761697420323468206166746572207468652065 PUSH1 0x44 DUP3 ADD MSTORE PUSH14 0x6E64206F66207468652073616C65 PUSH1 0x90 SHL PUSH1 0x64 DUP3 ADD MSTORE PUSH1 0x84 ADD PUSH2 0x78D JUMP JUMPDEST CALLER PUSH1 0x0 SWAP1 DUP2 MSTORE PUSH1 0x21 PUSH1 0x20 MSTORE PUSH1 0x40 SWAP1 KECCAK256 SLOAD PUSH2 0x131E JUMPI PUSH1 0x40 MLOAD PUSH3 0x461BCD PUSH1 0xE5 SHL DUP2 MSTORE PUSH1 0x20 PUSH1 0x4 DUP3 ADD MSTORE PUSH1 0x1F PUSH1 0x24 DUP3 ADD MSTORE PUSH32 0x75736572206861736E277420616E7920746F6B656E7320746F20636C61696D00 PUSH1 0x44 DUP3 ADD MSTORE PUSH1 0x64 ADD PUSH2 0x78D JUMP JUMPDEST CALLER PUSH1 0x0 DUP2 DUP2 MSTORE PUSH1 0x21 PUSH1 0x20 MSTORE PUSH1 0x40 DUP1 DUP3 KECCAK256 DUP1 SLOAD SWAP1 DUP4 SWAP1 SSTORE SWAP1 MLOAD SWAP1 SWAP3 DUP3 SWAP2 DUP5 SWAP1 DUP4 DUP2 DUP2 DUP2 DUP6 DUP8 GAS CALL SWAP3 POP POP POP RETURNDATASIZE DUP1 PUSH1 0x0 DUP2 EQ PUSH2 0x1374 JUMPI PUSH1 0x40 MLOAD SWAP2 POP PUSH1 0x1F NOT PUSH1 0x3F RETURNDATASIZE ADD AND DUP3 ADD PUSH1 0x40 MSTORE RETURNDATASIZE DUP3 MSTORE RETURNDATASIZE PUSH1 0x0 PUSH1 0x20 DUP5 ADD RETURNDATACOPY PUSH2 0x1379 JUMP JUMPDEST PUSH1 0x60 SWAP2 POP JUMPDEST POP POP PUSH1 0x1 PUSH1 0x0 SSTORE POP POP POP POP JUMP JUMPDEST PUSH1 0x2 PUSH1 0x0 SLOAD EQ ISZERO PUSH2 0x13A9 JUMPI PUSH1 0x40 MLOAD PUSH3 0x461BCD PUSH1 0xE5 SHL DUP2 MSTORE PUSH1 0x4 ADD PUSH2 0x78D SWAP1 PUSH2 0x1A22 JUMP JUMPDEST PUSH1 0x2 PUSH1 0x0 SSTORE PUSH1 0x1 SLOAD PUSH1 0xFF AND ISZERO PUSH2 0x13F4 JUMPI PUSH1 0x40 MLOAD PUSH3 0x461BCD PUSH1 0xE5 SHL DUP2 MSTORE PUSH1 0x20 PUSH1 0x4 DUP3 ADD MSTORE PUSH1 0x10 PUSH1 0x24 DUP3 ADD MSTORE PUSH16 0x14185D5CD8589B194E881C185D5CD959 PUSH1 0x82 SHL PUSH1 0x44 DUP3 ADD MSTORE PUSH1 0x64 ADD PUSH2 0x78D JUMP JUMPDEST PUSH1 0xF SLOAD CALLVALUE GT ISZERO PUSH2 0x1416 JUMPI PUSH1 0x40 MLOAD PUSH3 0x461BCD PUSH1 0xE5 SHL DUP2 MSTORE PUSH1 0x4 ADD PUSH2 0x78D SWAP1 PUSH2 0x1961 JUMP JUMPDEST PUSH1 0x10 SLOAD CALLVALUE LT ISZERO PUSH2 0x1464 JUMPI PUSH1 0x40 MLOAD PUSH3 0x461BCD PUSH1 0xE5 SHL DUP2 MSTORE PUSH1 0x20 PUSH1 0x4 DUP3 ADD MSTORE PUSH1 0x19 PUSH1 0x24 DUP3 ADD MSTORE PUSH25 0xF2DEEA4EE4CA40DCDEE840E6CADCC8D2DCCE40CADCDEEACED PUSH1 0x3B SHL PUSH1 0x44 DUP3 ADD MSTORE PUSH1 0x64 ADD PUSH2 0x78D JUMP JUMPDEST PUSH1 0x11 SLOAD PUSH1 0x1E SLOAD PUSH1 0xB SLOAD PUSH2 0x1477 SWAP1 CALLVALUE PUSH2 0x1A93 JUMP JUMPDEST PUSH2 0x1481 SWAP2 SWAP1 PUSH2 0x1A59 JUMP JUMPDEST GT ISZERO PUSH2 0x149F JUMPI PUSH1 0x40 MLOAD PUSH3 0x461BCD PUSH1 0xE5 SHL DUP2 MSTORE PUSH1 0x4 ADD PUSH2 0x78D SWAP1 PUSH2 0x190E JUMP JUMPDEST PUSH1 0x5 SLOAD SELFBALANCE GT ISZERO PUSH2 0x14C1 JUMPI PUSH1 0x40 MLOAD PUSH3 0x461BCD PUSH1 0xE5 SHL DUP2 MSTORE PUSH1 0x4 ADD PUSH2 0x78D SWAP1 PUSH2 0x19DC JUMP JUMPDEST PUSH1 0x8 SLOAD TIMESTAMP GT PUSH2 0x150C JUMPI PUSH1 0x40 MLOAD PUSH3 0x461BCD PUSH1 0xE5 SHL DUP2 MSTORE PUSH1 0x20 PUSH1 0x4 DUP3 ADD MSTORE PUSH1 0x17 PUSH1 0x24 DUP3 ADD MSTORE PUSH23 0x1CD85B19481A185CDB89DD081CDD185C9D1959081E595D PUSH1 0x4A SHL PUSH1 0x44 DUP3 ADD MSTORE PUSH1 0x64 ADD PUSH2 0x78D JUMP JUMPDEST PUSH1 0x9 SLOAD TIMESTAMP LT PUSH2 0x154E JUMPI PUSH1 0x40 MLOAD PUSH3 0x461BCD PUSH1 0xE5 SHL DUP2 MSTORE PUSH1 0x20 PUSH1 0x4 DUP3 ADD MSTORE PUSH1 0xE PUSH1 0x24 DUP3 ADD MSTORE PUSH14 0x1CD85B19481A185CC8195B991959 PUSH1 0x92 SHL PUSH1 0x44 DUP3 ADD MSTORE PUSH1 0x64 ADD PUSH2 0x78D JUMP JUMPDEST PUSH1 0x1F SLOAD PUSH1 0xFF AND PUSH2 0x15A0 JUMPI PUSH1 0x40 MLOAD PUSH3 0x461BCD PUSH1 0xE5 SHL DUP2 MSTORE PUSH1 0x20 PUSH1 0x4 DUP3 ADD MSTORE PUSH1 0x1E PUSH1 0x24 DUP3 ADD MSTORE PUSH32 0x73616C65206861736E2774206265656E2066696E616C697A6564207965740000 PUSH1 0x44 DUP3 ADD MSTORE PUSH1 0x64 ADD PUSH2 0x78D JUMP JUMPDEST CALLER PUSH1 0x0 SWAP1 DUP2 MSTORE PUSH1 0x21 PUSH1 0x20 MSTORE PUSH1 0x40 SWAP1 KECCAK256 CALLVALUE SWAP1 DUP2 SWAP1 SSTORE PUSH1 0xB SLOAD PUSH2 0x15C0 SWAP2 PUSH2 0x1A93 JUMP JUMPDEST PUSH1 0x1E SLOAD PUSH2 0x15CD SWAP2 SWAP1 PUSH2 0x1A59 JUMP JUMPDEST PUSH1 0x1E SSTORE PUSH1 0x1 PUSH1 0x0 SSTORE JUMP JUMPDEST PUSH1 0x0 DUP1 PUSH1 0x0 DUP4 MLOAD PUSH1 0x41 EQ PUSH2 0x15EA JUMPI PUSH1 0x0 DUP1 REVERT JUMPDEST POP POP POP PUSH1 0x20 DUP2 ADD MLOAD PUSH1 0x40 DUP3 ADD MLOAD PUSH1 0x60 SWAP1 SWAP3 ADD MLOAD PUSH1 0x0 BYTE SWAP3 SWAP1 SWAP2 SWAP1 JUMP JUMPDEST PUSH1 0x1B DUP1 SLOAD PUSH2 0x1130 SWAP1 PUSH2 0x1AB2 JUMP JUMPDEST PUSH1 0x0 DUP1 PUSH1 0x0 DUP1 PUSH2 0x1622 DUP9 PUSH2 0x15D7 JUMP JUMPDEST PUSH1 0x40 MLOAD PUSH12 0xFFFFFFFFFFFFFFFFFFFFFFFF NOT PUSH1 0x60 DUP13 SWAP1 SHL AND PUSH1 0x20 DUP3 ADD MSTORE PUSH1 0x34 DUP2 ADD DUP11 SWAP1 MSTORE PUSH1 0x54 DUP2 ADD DUP10 SWAP1 MSTORE SWAP3 SWAP6 POP SWAP1 SWAP4 POP SWAP2 POP PUSH1 0x0 SWAP1 PUSH1 0x74 ADD PUSH1 0x40 DUP1 MLOAD PUSH1 0x1F NOT DUP2 DUP5 SUB ADD DUP2 MSTORE DUP3 DUP3 MSTORE DUP1 MLOAD PUSH1 0x20 SWAP2 DUP3 ADD KECCAK256 PUSH1 0x0 DUP5 MSTORE SWAP1 DUP4 ADD DUP1 DUP4 MSTORE DUP2 SWAP1 MSTORE PUSH1 0xFF DUP8 AND SWAP2 DUP4 ADD SWAP2 SWAP1 SWAP2 MSTORE PUSH1 0x60 DUP3 ADD DUP6 SWAP1 MSTORE PUSH1 0x80 DUP3 ADD DUP5 SWAP1 MSTORE SWAP2 POP PUSH1 0x1 SWAP1 PUSH1 0xA0 ADD PUSH1 0x20 PUSH1 0x40 MLOAD PUSH1 0x20 DUP2 SUB SWAP1 DUP1 DUP5 SUB SWAP1 DUP6 GAS STATICCALL ISZERO DUP1 ISZERO PUSH2 0x16C2 JUMPI RETURNDATASIZE PUSH1 0x0 DUP1 RETURNDATACOPY RETURNDATASIZE PUSH1 0x0 REVERT JUMPDEST POP POP PUSH1 0x40 MLOAD PUSH1 0x1F NOT ADD MLOAD PUSH1 0x14 SLOAD PUSH1 0x1 PUSH1 0x1 PUSH1 0xA0 SHL SUB SWAP2 DUP3 AND SWAP2 AND EQ SWAP11 SWAP10 POP POP POP POP POP POP POP POP POP POP JUMP JUMPDEST DUP1 CALLDATALOAD PUSH1 0x1 PUSH1 0x1 PUSH1 0xA0 SHL SUB DUP2 AND DUP2 EQ PUSH2 0x1702 JUMPI PUSH1 0x0 DUP1 REVERT JUMPDEST SWAP2 SWAP1 POP JUMP JUMPDEST PUSH1 0x0 DUP3 PUSH1 0x1F DUP4 ADD SLT PUSH2 0x1718 JUMPI PUSH1 0x0 DUP1 REVERT JUMPDEST DUP2 CALLDATALOAD PUSH8 0xFFFFFFFFFFFFFFFF DUP1 DUP3 GT ISZERO PUSH2 0x1733 JUMPI PUSH2 0x1733 PUSH2 0x1B03 JUMP JUMPDEST PUSH1 0x40 MLOAD PUSH1 0x1F DUP4 ADD PUSH1 0x1F NOT SWAP1 DUP2 AND PUSH1 0x3F ADD AND DUP2 ADD SWAP1 DUP3 DUP3 GT DUP2 DUP4 LT OR ISZERO PUSH2 0x175B JUMPI PUSH2 0x175B PUSH2 0x1B03 JUMP JUMPDEST DUP2 PUSH1 0x40 MSTORE DUP4 DUP2 MSTORE DUP7 PUSH1 0x20 DUP6 DUP9 ADD ADD GT ISZERO PUSH2 0x1774 JUMPI PUSH1 0x0 DUP1 REVERT JUMPDEST DUP4 PUSH1 0x20 DUP8 ADD PUSH1 0x20 DUP4 ADD CALLDATACOPY PUSH1 0x0 PUSH1 0x20 DUP6 DUP4 ADD ADD MSTORE DUP1 SWAP5 POP POP POP POP POP SWAP3 SWAP2 POP POP JUMP JUMPDEST PUSH1 0x0 PUSH1 0x20 DUP3 DUP5 SUB SLT ISZERO PUSH2 0x17A6 JUMPI PUSH1 0x0 DUP1 REVERT JUMPDEST PUSH2 0x17AF DUP3 PUSH2 0x16EB JUMP JUMPDEST SWAP4 SWAP3 POP POP POP JUMP JUMPDEST PUSH1 0x0 PUSH1 0x20 DUP3 DUP5 SUB SLT ISZERO PUSH2 0x17C8 JUMPI PUSH1 0x0 DUP1 REVERT JUMPDEST DUP2 MLOAD DUP1 ISZERO ISZERO DUP2 EQ PUSH2 0x17AF JUMPI PUSH1 0x0 DUP1 REVERT JUMPDEST PUSH1 0x0 PUSH1 0x20 DUP3 DUP5 SUB SLT ISZERO PUSH2 0x17EA JUMPI PUSH1 0x0 DUP1 REVERT JUMPDEST DUP2 CALLDATALOAD PUSH8 0xFFFFFFFFFFFFFFFF DUP2 GT ISZERO PUSH2 0x1801 JUMPI PUSH1 0x0 DUP1 REVERT JUMPDEST PUSH2 0x180D DUP5 DUP3 DUP6 ADD PUSH2 0x1707 JUMP JUMPDEST SWAP5 SWAP4 POP POP POP POP JUMP JUMPDEST PUSH1 0x0 DUP1 PUSH1 0x0 DUP1 PUSH1 0x80 DUP6 DUP8 SUB SLT ISZERO PUSH2 0x182B JUMPI PUSH1 0x0 DUP1 REVERT JUMPDEST DUP5 CALLDATALOAD PUSH8 0xFFFFFFFFFFFFFFFF DUP2 GT ISZERO PUSH2 0x1842 JUMPI PUSH1 0x0 DUP1 REVERT JUMPDEST PUSH2 0x184E DUP8 DUP3 DUP9 ADD PUSH2 0x1707 JUMP JUMPDEST SWAP5 POP POP PUSH2 0x185D PUSH1 0x20 DUP7 ADD PUSH2 0x16EB JUMP JUMPDEST SWAP4 SWAP7 SWAP4 SWAP6 POP POP POP POP PUSH1 0x40 DUP3 ADD CALLDATALOAD SWAP2 PUSH1 0x60 ADD CALLDATALOAD SWAP1 JUMP JUMPDEST PUSH1 0x0 PUSH1 0x20 DUP3 DUP5 SUB SLT ISZERO PUSH2 0x1884 JUMPI PUSH1 0x0 DUP1 REVERT JUMPDEST POP MLOAD SWAP2 SWAP1 POP JUMP JUMPDEST PUSH1 0x0 DUP1 PUSH1 0x0 PUSH1 0x60 DUP5 DUP7 SUB SLT ISZERO PUSH2 0x18A0 JUMPI PUSH1 0x0 DUP1 REVERT JUMPDEST DUP4 MLOAD SWAP3 POP PUSH1 0x20 DUP5 ADD MLOAD SWAP2 POP PUSH1 0x40 DUP5 ADD MLOAD SWAP1 POP SWAP3 POP SWAP3 POP SWAP3 JUMP JUMPDEST PUSH1 0x0 PUSH1 0x20 DUP1 DUP4 MSTORE DUP4 MLOAD DUP1 DUP3 DUP6 ADD MSTORE PUSH1 0x0 JUMPDEST DUP2 DUP2 LT ISZERO PUSH2 0x18E6 JUMPI DUP6 DUP2 ADD DUP4 ADD MLOAD DUP6 DUP3 ADD PUSH1 0x40 ADD MSTORE DUP3 ADD PUSH2 0x18CA JUMP JUMPDEST DUP2 DUP2 GT ISZERO PUSH2 0x18F8 JUMPI PUSH1 0x0 PUSH1 0x40 DUP4 DUP8 ADD ADD MSTORE JUMPDEST POP PUSH1 0x1F ADD PUSH1 0x1F NOT AND SWAP3 SWAP1 SWAP3 ADD PUSH1 0x40 ADD SWAP4 SWAP3 POP POP POP JUMP JUMPDEST PUSH1 0x20 DUP1 DUP3 MSTORE PUSH1 0x33 SWAP1 DUP3 ADD MSTORE PUSH32 0x7468657265206172656E277420656E6F75676820746F6B656E73206C6566742E PUSH1 0x40 DUP3 ADD MSTORE PUSH19 0x8151C9E4818481B1BDDD95C88185B5BDD5B9D PUSH1 0x6A SHL PUSH1 0x60 DUP3 ADD MSTORE PUSH1 0x80 ADD SWAP1 JUMP JUMPDEST PUSH1 0x20 DUP1 DUP3 MSTORE PUSH1 0x24 SWAP1 DUP3 ADD MSTORE PUSH32 0x796F7527726520747279696E6720746F2062757920746F6F206D616E7920746F PUSH1 0x40 DUP3 ADD MSTORE PUSH4 0x6B656E73 PUSH1 0xE0 SHL PUSH1 0x60 DUP3 ADD MSTORE PUSH1 0x80 ADD SWAP1 JUMP JUMPDEST PUSH1 0x20 DUP1 DUP3 MSTORE PUSH1 0x1B SWAP1 DUP3 ADD MSTORE PUSH32 0x63616C6C6572206973206E6F742074686520696E69746961746F720000000000 PUSH1 0x40 DUP3 ADD MSTORE PUSH1 0x60 ADD SWAP1 JUMP JUMPDEST PUSH1 0x20 DUP1 DUP3 MSTORE PUSH1 0x26 SWAP1 DUP3 ADD MSTORE PUSH32 0x6861726463617020697320726561636865642E205472792061206C6F77657220 PUSH1 0x40 DUP3 ADD MSTORE PUSH6 0x185B5BDD5B9D PUSH1 0xD2 SHL PUSH1 0x60 DUP3 ADD MSTORE PUSH1 0x80 ADD SWAP1 JUMP JUMPDEST PUSH1 0x20 DUP1 DUP3 MSTORE PUSH1 0x1F SWAP1 DUP3 ADD MSTORE PUSH32 0x5265656E7472616E637947756172643A207265656E7472616E742063616C6C00 PUSH1 0x40 DUP3 ADD MSTORE PUSH1 0x60 ADD SWAP1 JUMP JUMPDEST PUSH1 0x0 DUP3 NOT DUP3 GT ISZERO PUSH2 0x1A6C JUMPI PUSH2 0x1A6C PUSH2 0x1AED JUMP JUMPDEST POP ADD SWAP1 JUMP JUMPDEST PUSH1 0x0 DUP3 PUSH2 0x1A8E JUMPI PUSH4 0x4E487B71 PUSH1 0xE0 SHL PUSH1 0x0 MSTORE PUSH1 0x12 PUSH1 0x4 MSTORE PUSH1 0x24 PUSH1 0x0 REVERT JUMPDEST POP DIV SWAP1 JUMP JUMPDEST PUSH1 0x0 DUP2 PUSH1 0x0 NOT DIV DUP4 GT DUP3 ISZERO ISZERO AND ISZERO PUSH2 0x1AAD JUMPI PUSH2 0x1AAD PUSH2 0x1AED JUMP JUMPDEST POP MUL SWAP1 JUMP JUMPDEST PUSH1 0x1 DUP2 DUP2 SHR SWAP1 DUP3 AND DUP1 PUSH2 0x1AC6 JUMPI PUSH1 0x7F DUP3 AND SWAP2 POP JUMPDEST PUSH1 0x20 DUP3 LT DUP2 EQ ISZERO PUSH2 0x1AE7 JUMPI PUSH4 0x4E487B71 PUSH1 0xE0 SHL PUSH1 0x0 MSTORE PUSH1 0x22 PUSH1 0x4 MSTORE PUSH1 0x24 PUSH1 0x0 REVERT JUMPDEST POP SWAP2 SWAP1 POP JUMP JUMPDEST PUSH4 0x4E487B71 PUSH1 0xE0 SHL PUSH1 0x0 MSTORE PUSH1 0x11 PUSH1 0x4 MSTORE PUSH1 0x24 PUSH1 0x0 REVERT JUMPDEST PUSH4 0x4E487B71 PUSH1 0xE0 SHL PUSH1 0x0 MSTORE PUSH1 0x41 PUSH1 0x4 MSTORE PUSH1 0x24 PUSH1 0x0 REVERT INVALID LOG2 PUSH5 0x6970667358 0x22 SLT KECCAK256 DUP2 0x5F 0xE5 DUP16 0xD3 ORIGIN PUSH19 0x6E298274A118707183BE1E4343579EAF185FA0 DUP2 PUSH21 0x4CFEC69164736F6C63430008070033A26469706673 PC 0x22 SLT KECCAK256 DIV CODESIZE PUSH1 0x6F 0x26 PUSH26 0xDD747CF3EFC9B46BE0803EE47B176A0890079F386772807C7DC5 PUSH5 0x736F6C6343 STOP ADDMOD SMOD STOP CALLER ",
  "sha1": "5ff40ab7234d1654081036734b75a87176b5cf5f",
  "source": "pragma solidity =0.8.7;\n\nimport \"@openzeppelin/contracts/access/Ownable.sol\";\nimport \"@openzeppelin/contracts/security/ReentrancyGuard.sol\";\nimport \"@openzeppelin/contracts/security/Pausable.sol\";\nimport \"@openzeppelin/contracts/token/ERC20/IERC20.sol\";\nimport \"@openzeppelin/contracts/utils/Address.sol\";\nimport \"./launchpadChild.sol\";\n\n// V 0.1\n// TODO: add pauser\n// TODO: add setters\n// TODO: add blacklist\n\ncontract LaunchpadMaster is Ownable, ReentrancyGuard, Pausable {\n  event Deployed(address addr, uint256 salt);\n\n  mapping(uint256 => address) public saleIdToAddress;\n  mapping(address => uint256) public addressToSaleId;\n  mapping(uint256 => address) public saleToSigner;\n  uint256 public currentSaleId;\n  uint256 public feesBP; // Fees in basis points (100 = 1%)\n  uint256 public startSaleId; // Start of the sale count\n  uint256 public deployFee; // Amount to pay to deploy a sale\n  address public signer; // who signs for presales\n  address payable public feesWallet; // Who gets the fees\n  bool public inDeploy; // util var\n\n  constructor(\n    uint256 _feesBP,\n    uint256 _startSaleId,\n    address _signer,\n    address _feesWallet,\n    uint256 _deployFee\n  ) {\n    feesBP = _feesBP;\n    feesWallet = payable(_feesWallet);\n    currentSaleId = _startSaleId;\n    signer = _signer;\n    deployFee = _deployFee;\n  }\n\n  function createPresale(\n    address _token,\n    string memory _description,\n    string memory _imageUrl,\n    // Sale inputs\n    // We use an array to solve stackTooDeep error\n    uint256[9] memory _saleInputs,\n    // uint _tokenTotalAmount,\n    // uint _listingTokensPerOneEth,\n    // uint _liquidityShareBP,\n    // uint _hardcap,\n    // uint _feeBP, -- use master interface\n    // uint _startTime,\n    // uint _endTime,\n    // Miscellaneous\n    bool _whitelistEnabled,\n    uint256 _wlStartTime,\n    uint256 _liquidityLockDuration,\n    address _router\n  ) external payable whenNotPaused nonReentrant returns (address presaleAddress) {\n    // Basic checks\n    require(msg.value >= deployFee, \"not enough eth sent\");\n    require(\n      _saleInputs.length == 9,\n      \"not enough parameters in saleInputs array\"\n    );\n\n    // New index\n    currentSaleId = currentSaleId + 1;\n    saleToSigner[currentSaleId] = signer;\n\n    // Generating the deploy code\n    bytes memory bytecode = abi.encodePacked(\n      type(LaunchpadChild).creationCode,\n      abi.encode(\n        _token,\n        _description,\n        _imageUrl,\n        _saleInputs,\n        _whitelistEnabled,\n        _wlStartTime,\n        _liquidityLockDuration,\n        _router\n      )\n    );\n\n    // Prepping the deploy\n    address saleAddress = getAddress(bytecode, currentSaleId);\n    IERC20(_token).transferFrom(msg.sender, saleAddress, _saleInputs[0]);\n    require(\n      IERC20(_token).balanceOf(saleAddress) == _saleInputs[0],\n      \"you didn't whitelist the sale address\"\n    );\n\n    // Deploy the contract\n    inDeploy = true;\n    address deployedAddress = deploy(bytecode, currentSaleId);\n    inDeploy = false;\n    require(\n      saleAddress == deployedAddress,\n      \"computed address and actual deploy address are not equal\"\n    );\n\n    // Update the registry\n    saleIdToAddress[currentSaleId] = saleAddress;\n    addressToSaleId[saleAddress] = currentSaleId;\n  }\n\n  function claimFees() external onlyOwner nonReentrant {\n    payable(owner()).call{value: address(this).balance}(\"\");\n  }\n\n  function getAddress(bytes memory bytecode, uint256 _salt)\n    public\n    view\n    returns (address)\n  {\n    bytes32 hash = keccak256(\n      abi.encodePacked(bytes1(0xff), address(this), _salt, keccak256(bytecode))\n    );\n\n    // NOTE: cast last 20 bytes of hash to address\n    return address(uint160(uint256(hash)));\n  }\n\n  function deploy(bytes memory bytecode, uint256 _salt)\n    public\n    payable\n    whenNotPaused\n    returns (address)\n  {\n    require(msg.value >= deployFee, \"not enough eth sent\");\n    require(inDeploy, \"unauthorized deploy\");\n    address addr;\n\n    /*\n        NOTE: How to call create2\n\n        create2(v, p, n, s)\n        create new contract with code at memory p to p + n\n        and send v wei\n        and return the new address\n        where new address = first 20 bytes of keccak256(0xff + address(this) + s + keccak256(mem[p…(p+n)))\n              s = big-endian 256-bit value\n        */\n    assembly {\n      addr := create2(\n        0, // wei sent with current call\n        // Actual code starts after skipping the first 32 bytes\n        add(bytecode, 0x20),\n        mload(bytecode), // Load the size of code contained in the first 32 bytes\n        _salt // Salt from function arguments\n      )\n\n      if iszero(extcodesize(addr)) {\n        revert(0, 0)\n      }\n    }\n\n    emit Deployed(addr, _salt);\n    return (addr);\n  }\n}\n",
  "sourcePath": "contracts/launchpadMaster.sol",
  "type": "contract"
}