{
  "abi": [
    {
      "inputs": [
        {
          "internalType": "uint256",
          "name": "_feesBP",
          "type": "uint256"
        },
        {
          "internalType": "uint256",
          "name": "_startSaleId",
          "type": "uint256"
        },
        {
          "internalType": "address",
          "name": "_signer",
          "type": "address"
        },
        {
          "internalType": "address",
          "name": "_feesWallet",
          "type": "address"
        },
        {
          "internalType": "uint256",
          "name": "_deployFee",
          "type": "uint256"
        }
      ],
      "stateMutability": "nonpayable",
      "type": "constructor"
    },
    {
      "anonymous": false,
      "inputs": [
        {
          "indexed": false,
          "internalType": "address",
          "name": "addr",
          "type": "address"
        },
        {
          "indexed": false,
          "internalType": "uint256",
          "name": "salt",
          "type": "uint256"
        }
      ],
      "name": "Deployed",
      "type": "event"
    },
    {
      "anonymous": false,
      "inputs": [
        {
          "indexed": true,
          "internalType": "address",
          "name": "previousOwner",
          "type": "address"
        },
        {
          "indexed": true,
          "internalType": "address",
          "name": "newOwner",
          "type": "address"
        }
      ],
      "name": "OwnershipTransferred",
      "type": "event"
    },
    {
      "anonymous": false,
      "inputs": [
        {
          "indexed": false,
          "internalType": "address",
          "name": "account",
          "type": "address"
        }
      ],
      "name": "Paused",
      "type": "event"
    },
    {
      "anonymous": false,
      "inputs": [
        {
          "indexed": false,
          "internalType": "address",
          "name": "account",
          "type": "address"
        }
      ],
      "name": "Unpaused",
      "type": "event"
    },
    {
      "inputs": [
        {
          "internalType": "address",
          "name": "",
          "type": "address"
        }
      ],
      "name": "addressToSaleId",
      "outputs": [
        {
          "internalType": "uint256",
          "name": "",
          "type": "uint256"
        }
      ],
      "stateMutability": "view",
      "type": "function"
    },
    {
      "inputs": [],
      "name": "claimFees",
      "outputs": [],
      "stateMutability": "nonpayable",
      "type": "function"
    },
    {
      "inputs": [
        {
          "internalType": "address",
          "name": "_token",
          "type": "address"
        },
        {
          "internalType": "string",
          "name": "_description",
          "type": "string"
        },
        {
          "internalType": "string",
          "name": "_imageUrl",
          "type": "string"
        },
        {
          "internalType": "uint256[8]",
          "name": "_saleInputs",
          "type": "uint256[8]"
        },
        {
          "internalType": "bool",
          "name": "_whitelistEnabled",
          "type": "bool"
        },
        {
          "internalType": "uint256",
          "name": "_wlStartTime",
          "type": "uint256"
        },
        {
          "internalType": "uint256",
          "name": "_liquidityLockDuration",
          "type": "uint256"
        },
        {
          "internalType": "address",
          "name": "_router",
          "type": "address"
        }
      ],
      "name": "createPresale",
      "outputs": [
        {
          "internalType": "address",
          "name": "saleAddress",
          "type": "address"
        }
      ],
      "stateMutability": "payable",
      "type": "function"
    },
    {
      "inputs": [],
      "name": "currentSaleId",
      "outputs": [
        {
          "internalType": "uint256",
          "name": "",
          "type": "uint256"
        }
      ],
      "stateMutability": "view",
      "type": "function"
    },
    {
      "inputs": [],
      "name": "deployFee",
      "outputs": [
        {
          "internalType": "uint256",
          "name": "",
          "type": "uint256"
        }
      ],
      "stateMutability": "view",
      "type": "function"
    },
    {
      "inputs": [],
      "name": "feesBP",
      "outputs": [
        {
          "internalType": "uint256",
          "name": "",
          "type": "uint256"
        }
      ],
      "stateMutability": "view",
      "type": "function"
    },
    {
      "inputs": [],
      "name": "feesWallet",
      "outputs": [
        {
          "internalType": "address payable",
          "name": "",
          "type": "address"
        }
      ],
      "stateMutability": "view",
      "type": "function"
    },
    {
      "inputs": [],
      "name": "owner",
      "outputs": [
        {
          "internalType": "address",
          "name": "",
          "type": "address"
        }
      ],
      "stateMutability": "view",
      "type": "function"
    },
    {
      "inputs": [],
      "name": "paused",
      "outputs": [
        {
          "internalType": "bool",
          "name": "",
          "type": "bool"
        }
      ],
      "stateMutability": "view",
      "type": "function"
    },
    {
      "inputs": [],
      "name": "renounceOwnership",
      "outputs": [],
      "stateMutability": "nonpayable",
      "type": "function"
    },
    {
      "inputs": [
        {
          "internalType": "uint256",
          "name": "",
          "type": "uint256"
        }
      ],
      "name": "saleIdToAddress",
      "outputs": [
        {
          "internalType": "address",
          "name": "",
          "type": "address"
        }
      ],
      "stateMutability": "view",
      "type": "function"
    },
    {
      "inputs": [
        {
          "internalType": "uint256",
          "name": "",
          "type": "uint256"
        }
      ],
      "name": "saleToSigner",
      "outputs": [
        {
          "internalType": "address",
          "name": "",
          "type": "address"
        }
      ],
      "stateMutability": "view",
      "type": "function"
    },
    {
      "inputs": [
        {
          "internalType": "uint256",
          "name": "_deployFee",
          "type": "uint256"
        }
      ],
      "name": "setDeployFee",
      "outputs": [],
      "stateMutability": "nonpayable",
      "type": "function"
    },
    {
      "inputs": [
        {
          "internalType": "uint256",
          "name": "_feesBP",
          "type": "uint256"
        }
      ],
      "name": "setFeesBP",
      "outputs": [],
      "stateMutability": "nonpayable",
      "type": "function"
    },
    {
      "inputs": [
        {
          "internalType": "address",
          "name": "_signer",
          "type": "address"
        }
      ],
      "name": "setSigner",
      "outputs": [],
      "stateMutability": "nonpayable",
      "type": "function"
    },
    {
      "inputs": [],
      "name": "signer",
      "outputs": [
        {
          "internalType": "address",
          "name": "",
          "type": "address"
        }
      ],
      "stateMutability": "view",
      "type": "function"
    },
    {
      "inputs": [],
      "name": "startSaleId",
      "outputs": [
        {
          "internalType": "uint256",
          "name": "",
          "type": "uint256"
        }
      ],
      "stateMutability": "view",
      "type": "function"
    },
    {
      "inputs": [
        {
          "internalType": "address",
          "name": "newOwner",
          "type": "address"
        }
      ],
      "name": "transferOwnership",
      "outputs": [],
      "stateMutability": "nonpayable",
      "type": "function"
    },
    {
      "stateMutability": "payable",
      "type": "receive"
    }
  ],
  "bytecode": "608060405234801561001057600080fd5b50604051613a69380380613a6983398101604081905261002f916100f1565b61003833610085565b600180556002805460ff19169055600794909455600b80546001600160a01b03199081166001600160a01b0393841617909155600693909355600a80549093169116179055600955610141565b600080546001600160a01b038381166001600160a01b0319831681178455604051919092169283917f8be0079c531659141344cd1fd0a4f28419497f9722a3daafe3b4186f6b6457e09190a35050565b80516001600160a01b03811681146100ec57600080fd5b919050565b600080600080600060a0868803121561010957600080fd5b8551945060208601519350610120604087016100d5565b925061012e606087016100d5565b9150608086015190509295509295909350565b613919806101506000396000f3fe608060405260043610620001455760003560e01c80638da5cb5b11620000b2578063dafdeb1a116200007d578063eb2a5d2c1162000060578063eb2a5d2c1462000395578063f2fde38b14620003ad578063f497e93a14620003d257600080fd5b8063dafdeb1a146200032a578063e7689193146200035b57600080fd5b80638da5cb5b1462000293578063a9e5298714620002b3578063b1d2ef9014620002d8578063d294f093146200031257600080fd5b80636e25f7c0116200011057806373dc134911620000f357806373dc1349146200024157806374a5f8d214620002595780637e44d2cc146200027157600080fd5b80636e25f7c01462000204578063715018a6146200022957600080fd5b8063238ac93314620001525780632e84989414620001915780635c975abb14620001b85780636c19e78314620001dd57600080fd5b366200014d57005b600080fd5b3480156200015f57600080fd5b50600a5462000174906001600160a01b031681565b6040516001600160a01b0390911681526020015b60405180910390f35b3480156200019e57600080fd5b50620001a960065481565b60405190815260200162000188565b348015620001c557600080fd5b5060025460ff16604051901515815260200162000188565b348015620001ea57600080fd5b5062000202620001fc36600462000afd565b620003e9565b005b3480156200021157600080fd5b50620002026200022336600462000c39565b6200046b565b3480156200023657600080fd5b50620002026200051f565b3480156200024e57600080fd5b50620001a960075481565b3480156200026657600080fd5b50620001a960085481565b3480156200027e57600080fd5b50600b5462000174906001600160a01b031681565b348015620002a057600080fd5b506000546001600160a01b031662000174565b348015620002c057600080fd5b5062000202620002d236600462000c39565b62000589565b348015620002e557600080fd5b5062000174620002f736600462000c39565b6005602052600090815260409020546001600160a01b031681565b3480156200031f57600080fd5b5062000202620005ea565b3480156200033757600080fd5b50620001a96200034936600462000afd565b60046020526000908152604090205481565b3480156200036857600080fd5b50620001746200037a36600462000c39565b6003602052600090815260409020546001600160a01b031681565b348015620003a257600080fd5b50620001a960095481565b348015620003ba57600080fd5b5062000202620003cc36600462000afd565b620006fd565b62000174620003e336600462000b22565b620007e5565b6000546001600160a01b03163314620004495760405162461bcd60e51b815260206004820181905260248201527f4f776e61626c653a2063616c6c6572206973206e6f7420746865206f776e657260448201526064015b60405180910390fd5b600a80546001600160a01b0319166001600160a01b0392909216919091179055565b6000546001600160a01b03163314620004c75760405162461bcd60e51b815260206004820181905260248201527f4f776e61626c653a2063616c6c6572206973206e6f7420746865206f776e6572604482015260640162000440565b61271081106200051a5760405162461bcd60e51b815260206004820152600860248201527f746f6f2068696768000000000000000000000000000000000000000000000000604482015260640162000440565b600755565b6000546001600160a01b031633146200057b5760405162461bcd60e51b815260206004820181905260248201527f4f776e61626c653a2063616c6c6572206973206e6f7420746865206f776e6572604482015260640162000440565b620005876000620009dc565b565b6000546001600160a01b03163314620005e55760405162461bcd60e51b815260206004820181905260248201527f4f776e61626c653a2063616c6c6572206973206e6f7420746865206f776e6572604482015260640162000440565b600955565b600260015414156200063f5760405162461bcd60e51b815260206004820152601f60248201527f5265656e7472616e637947756172643a207265656e7472616e742063616c6c00604482015260640162000440565b6002600155600b546001600160a01b03163314620006a05760405162461bcd60e51b815260206004820152600e60248201527f6e6f7420617574686f72697a6564000000000000000000000000000000000000604482015260640162000440565b600b546040516001600160a01b03909116904790600081818185875af1925050503d8060008114620006ef576040519150601f19603f3d011682016040523d82523d6000602084013e620006f4565b606091505b50506001805550565b6000546001600160a01b03163314620007595760405162461bcd60e51b815260206004820181905260248201527f4f776e61626c653a2063616c6c6572206973206e6f7420746865206f776e6572604482015260640162000440565b6001600160a01b038116620007d75760405162461bcd60e51b815260206004820152602660248201527f4f776e61626c653a206e6577206f776e657220697320746865207a65726f206160448201527f6464726573730000000000000000000000000000000000000000000000000000606482015260840162000440565b620007e281620009dc565b50565b6000620007f460025460ff1690565b15620008435760405162461bcd60e51b815260206004820152601060248201527f5061757361626c653a2070617573656400000000000000000000000000000000604482015260640162000440565b60026001541415620008985760405162461bcd60e51b815260206004820152601f60248201527f5265656e7472616e637947756172643a207265656e7472616e742063616c6c00604482015260640162000440565b6002600155600954341015620008f15760405162461bcd60e51b815260206004820152601360248201527f6e6f7420656e6f756768206574682073656e7400000000000000000000000000604482015260640162000440565b600a5460065460009081526005602052604080822080546001600160a01b0319166001600160a01b039094169390931790925590518a908a908a908a908a908a908a908a903390620009439062000a2c565b620009579998979695949392919062000ca3565b604051809103906000f08015801562000974573d6000803e3d6000fd5b5060068054600090815260036020908152604080832080546001600160a01b0319166001600160a01b038716908117909155935493835260049091529020819055909250829150620009c890600162000d87565b600655506001805598975050505050505050565b600080546001600160a01b038381166001600160a01b0319831681178455604051919092169283917f8be0079c531659141344cd1fd0a4f28419497f9722a3daafe3b4186f6b6457e09190a35050565b612b1f8062000dc583390190565b80356001600160a01b038116811462000a5257600080fd5b919050565b8035801515811462000a5257600080fd5b600082601f83011262000a7a57600080fd5b813567ffffffffffffffff8082111562000a985762000a9862000dae565b604051601f8301601f19908116603f0116810190828211818310171562000ac35762000ac362000dae565b8160405283815286602085880101111562000add57600080fd5b836020870160208301376000602085830101528094505050505092915050565b60006020828403121562000b1057600080fd5b62000b1b8262000a3a565b9392505050565b6000806000806000806000806101e0898b03121562000b4057600080fd5b62000b4b8962000a3a565b97506020808a013567ffffffffffffffff8082111562000b6a57600080fd5b62000b788d838e0162000a68565b995060408c013591508082111562000b8f57600080fd5b5062000b9e8c828d0162000a68565b9750508a607f8b011262000bb157600080fd5b62000bbb62000d5a565b8060608c016101608d018e81111562000bd357600080fd5b60005b600881101562000bf55782358552938501939185019160010162000bd6565b5082995062000c048162000a57565b9850505050505061018089013592506101a0890135915062000c2a6101c08a0162000a3a565b90509295985092959890939650565b60006020828403121562000c4c57600080fd5b5035919050565b6000815180845260005b8181101562000c7b5760208185018101518683018201520162000c5d565b8181111562000c8e576000602083870101525b50601f01601f19169290920160200192915050565b60006102006001600160a01b038c1683526020818185015262000cc98285018d62000c53565b9150838203604085015262000cdf828c62000c53565b92506060840191508960005b600881101562000d0a5781518452928201929082019060010162000ceb565b5050505086151561016083015285610180830152846101a083015262000d3c6101c08301856001600160a01b03169052565b6001600160a01b0383166101e08301529a9950505050505050505050565b604051610100810167ffffffffffffffff8111828210171562000d815762000d8162000dae565b60405290565b6000821982111562000da957634e487b7160e01b600052601160045260246000fd5b500190565b634e487b7160e01b600052604160045260246000fdfe6080604052601380546301000000600160b81b03191664dead0000001790553480156200002b57600080fd5b5060405162002b1f38038062002b1f8339810160408190526200004e9162000708565b60016000819055805460ff19169055601880546001600160a01b0319166001600160a01b038b1617905587516200008d90601a9060208b01906200057a565b508651620000a390601b9060208a01906200057a565b5085516002556020860151600355604086015160045560608601516005819055608087015160085560a087015160095560c0870151600f5560e0870151601081905510620001485760405162461bcd60e51b815260206004820152602760248201527f6d696e2062757920706572207573657220697320686967686572207468616e206044820152660686172646361760cc1b60648201526084015b60405180910390fd5b601580546001600160a01b03191633908117909155604080516373dc134960e01b815290516373dc134991600480820192602092909190829003018186803b1580156200019457600080fd5b505afa158015620001a9573d6000803e3d6000fd5b505050506040513d601f19601f82011682018060405250810190620001cf919062000833565b60075560055460045461271090620001e89082620008f1565b600254620001f79190620008cf565b620002039190620008ac565b6200020f9190620008ac565b600b556005546200022390600290620008ac565b600655600454600254612710916200023b91620008cf565b620002479190620008ac565b60128190556002546200025b9190620008f1565b60115560075461271090620002719082620008f1565b600554620002809190620008cf565b6200028c9190620008ac565b6003546012546200029e9190620008ac565b106200032c5760405162461bcd60e51b815260206004820152605060248201527f6e6f7420656e6f7567682045544820666f72206c69717569646974792c20696e60448201527f637265617365206c697374696e67207072696365206f7220646563726561736560648201526f206c697175696469747920736861726560801b608482015260a4016200013f565b600c8390556013805462ff000019166201000087151502179055600a84905560085484106200035a57600080fd5b601560009054906101000a90046001600160a01b03166001600160a01b0316632e8498946040518163ffffffff1660e01b815260040160206040518083038186803b158015620003a957600080fd5b505afa158015620003be573d6000803e3d6000fd5b505050506040513d601f19601f82011682018060405250810190620003e4919062000833565b60195560135462010000900460ff1615620004a457601554601954604051630b1d2ef960e41b81526001600160a01b039092169163b1d2ef90916200042f9160040190815260200190565b60206040518083038186803b1580156200044857600080fd5b505afa1580156200045d573d6000803e3d6000fd5b505050506040513d601f19601f82011682018060405250810190620004839190620006e3565b601480546001600160a01b0319166001600160a01b03929092169190911790555b601560009054906101000a90046001600160a01b03166001600160a01b0316637e44d2cc6040518163ffffffff1660e01b815260040160206040518083038186803b158015620004f357600080fd5b505afa15801562000508573d6000803e3d6000fd5b505050506040513d601f19601f820116820180604052508101906200052e9190620006e3565b601c80546001600160a01b03199081166001600160a01b0393841617909155601d8054821693831693909317909255601680549092169216919091179055506200097495505050505050565b82805462000588906200090b565b90600052602060002090601f016020900481019282620005ac5760008555620005f7565b82601f10620005c757805160ff1916838001178555620005f7565b82800160010185558215620005f7579182015b82811115620005f7578251825591602001919060010190620005da565b506200060592915062000609565b5090565b5b808211156200060557600081556001016200060a565b80516001600160a01b03811681146200063857600080fd5b919050565b805180151581146200063857600080fd5b600082601f8301126200066057600080fd5b81516001600160401b038111156200067c576200067c6200095e565b602062000692601f8301601f1916820162000879565b8281528582848701011115620006a757600080fd5b60005b83811015620006c7578581018301518282018401528201620006aa565b83811115620006d95760008385840101525b5095945050505050565b600060208284031215620006f657600080fd5b620007018262000620565b9392505050565b60008060008060008060008060006102008a8c0312156200072857600080fd5b620007338a62000620565b60208b810151919a50906001600160401b03808211156200075357600080fd5b620007618e838f016200064e565b9a5060408d01519150808211156200077857600080fd5b50620007878d828e016200064e565b9850508b607f8c01126200079a57600080fd5b620007a46200084d565b8060608d016101608e018f811115620007bc57600080fd5b60005b6008811015620007de57825185529385019391850191600101620007bf565b50829a50620007ed816200063d565b995050505050506101808a015193506101a08a01519250620008136101c08b0162000620565b9150620008246101e08b0162000620565b90509295985092959850929598565b6000602082840312156200084657600080fd5b5051919050565b60405161010081016001600160401b03811182821017156200087357620008736200095e565b60405290565b604051601f8201601f191681016001600160401b0381118282101715620008a457620008a46200095e565b604052919050565b600082620008ca57634e487b7160e01b600052601260045260246000fd5b500490565b6000816000190483118215151615620008ec57620008ec62000948565b500290565b60008282101562000906576200090662000948565b500390565b600181811c908216806200092057607f821691505b602082108114156200094257634e487b7160e01b600052602260045260246000fd5b50919050565b634e487b7160e01b600052601160045260246000fd5b634e487b7160e01b600052604160045260246000fd5b61219b80620009846000396000f3fe6080604052600436106103135760003560e01c80638f5d036b1161019a578063c7bf5166116100e1578063e49dce661161008a578063f887ea4011610064578063f887ea4014610803578063f89be59314610823578063fc0c546a1461083957600080fd5b8063e49dce66146107ad578063ea44c1bc146107cd578063ee97f7f3146107e357600080fd5b8063d4b9de51116100bb578063d4b9de5114610767578063da2cbd5014610781578063de284b3a1461079757600080fd5b8063c7bf516614610726578063c84c03871461073c578063d132a8f41461075257600080fd5b8063a7bb580311610143578063bca1da851161011d578063bca1da85146106d0578063be9feb30146106f0578063c45a01551461070657600080fd5b8063a7bb580314610666578063aba83150146106a5578063b071cbe6146106ba57600080fd5b8063a0f7ab3511610174578063a0f7ab3514610620578063a5f0dea214610636578063a611dc371461065057600080fd5b80638f5d036b146105e4578063957f1474146105f95780639b8906ae1461060157600080fd5b806351fb012d1161025e5780636b7f3df31161020757806378e97925116101e157806378e979251461059957806383b17fdd146105af57806385bf4946146105c557600080fd5b80636b7f3df3146105345780636ef2e4d3146105615780637284e4161461057757600080fd5b80635c975abb116102385780635c975abb146104dc57806364db812e146104f457806366d003ac1461051457600080fd5b806351fb012d1461048457806358a687ec146104b457806359663174146104c957600080fd5b806327a72c96116102c05780633c8760811161029a5780633c8760811461042457806348c54b9d146104595780634ae01d521461046e57600080fd5b806327a72c96146103d157806327c8f835146103e75780633197cbb61461040e57600080fd5b806312e409c5116102f157806312e409c51461036e578063201a341914610384578063238ac9331461039957600080fd5b8063017f6fae14610318578063039ce1571461034157806303bcf11d14610357575b600080fd5b34801561032457600080fd5b5061032e60075481565b6040519081526020015b60405180910390f35b34801561034d57600080fd5b5061032e60115481565b34801561036357600080fd5b5061036c610859565b005b34801561037a57600080fd5b5061032e60105481565b34801561039057600080fd5b5061036c61097c565b3480156103a557600080fd5b506014546103b9906001600160a01b031681565b6040516001600160a01b039091168152602001610338565b3480156103dd57600080fd5b5061032e600e5481565b3480156103f357600080fd5b506013546103b990630100000090046001600160a01b031681565b34801561041a57600080fd5b5061032e60095481565b34801561043057600080fd5b506103b961043f366004611ef2565b60208052600090815260409020546001600160a01b031681565b34801561046557600080fd5b5061036c610e76565b34801561047a57600080fd5b5061032e600c5481565b34801561049057600080fd5b506013546104a49062010000900460ff1681565b6040519015158152602001610338565b3480156104c057600080fd5b5061036c611106565b61036c6104d7366004611f55565b6112ad565b3480156104e857600080fd5b5060015460ff166104a4565b34801561050057600080fd5b50601f546104a49062010000900460ff1681565b34801561052057600080fd5b50601c546103b9906001600160a01b031681565b34801561054057600080fd5b5061032e61054f366004611ef2565b60216020526000908152604090205481565b34801561056d57600080fd5b5061032e60125481565b34801561058357600080fd5b5061058c6116a4565b6040516103389190612038565b3480156105a557600080fd5b5061032e60085481565b3480156105bb57600080fd5b5061032e60025481565b3480156105d157600080fd5b506013546104a490610100900460ff1681565b3480156105f057600080fd5b5061036c611732565b61036c61185d565b34801561060d57600080fd5b50601f546104a490610100900460ff1681565b34801561062c57600080fd5b5061032e60035481565b34801561064257600080fd5b50601f546104a49060ff1681565b34801561065c57600080fd5b5061032e60045481565b34801561067257600080fd5b50610686610681366004611f55565b611c3c565b6040805160ff9094168452602084019290925290820152606001610338565b3480156106b157600080fd5b5061058c611c6b565b3480156106c657600080fd5b5061032e60055481565b3480156106dc57600080fd5b50601d546103b9906001600160a01b031681565b3480156106fc57600080fd5b5061032e600a5481565b34801561071257600080fd5b506017546103b9906001600160a01b031681565b34801561073257600080fd5b5061032e600b5481565b34801561074857600080fd5b5061032e60195481565b34801561075e57600080fd5b5061032e611c78565b34801561077357600080fd5b506013546104a49060ff1681565b34801561078d57600080fd5b5061032e601e5481565b3480156107a357600080fd5b5061032e600f5481565b3480156107b957600080fd5b506104a46107c8366004611f92565b611c8f565b3480156107d957600080fd5b5061032e600d5481565b3480156107ef57600080fd5b506015546103b9906001600160a01b031681565b34801561080f57600080fd5b506016546103b9906001600160a01b031681565b34801561082f57600080fd5b5061032e60065481565b34801561084557600080fd5b506018546103b9906001600160a01b031681565b601d546001600160a01b031633146108b85760405162461bcd60e51b815260206004820152601b60248201527f63616c6c6572206973206e6f742074686520696e69746961746f72000000000060448201526064015b60405180910390fd5b601f54610100900460ff16156109105760405162461bcd60e51b815260206004820152601c60248201527f636c61696d696e672068617320616c726561647920737461727465640000000060448201526064016108af565b601f5462010000900460ff16156109695760405162461bcd60e51b815260206004820152601460248201527f73616c6520616c72656164792061626f7274656400000000000000000000000060448201526064016108af565b601f805462ff0000191662010000179055565b601d546001600160a01b031633146109d65760405162461bcd60e51b815260206004820152601b60248201527f63616c6c6572206973206e6f742074686520696e69746961746f72000000000060448201526064016108af565b60026000541415610a295760405162461bcd60e51b815260206004820152601f60248201527f5265656e7472616e637947756172643a207265656e7472616e742063616c6c0060448201526064016108af565b6002600055601f5462010000900460ff1615610a7a5760405162461bcd60e51b815260206004820152601060248201526f1cd85b19481dd85cc818589bdc9d195960821b60448201526064016108af565b601f5460ff16610acc5760405162461bcd60e51b815260206004820152601560248201527f73616c65207761736e27742066696e616c697a6564000000000000000000000060448201526064016108af565b600654601e5411610b1f5760405162461bcd60e51b815260206004820152601b60248201527f6e6f7420656e6f75676820746f6b656e73207765726520736f6c64000000000060448201526064016108af565b601f54610100900460ff1615610b775760405162461bcd60e51b815260206004820152601660248201527f73616c652077617320616c726561647920656e6465640000000000000000000060448201526064016108af565b601f805461ff001916610100179055600354600090610b94611c78565b610b9e91906120a5565b90506000600554601e54601254610bb591906120c7565b610bbf91906120a5565b60185460165460405163095ea7b360e01b81526001600160a01b03918216600482015260248101849052929350169063095ea7b390604401602060405180830381600087803b158015610c1157600080fd5b505af1158015610c25573d6000803e3d6000fd5b505050506040513d601f19601f82011682018060405250810190610c499190611f33565b506016546018546001600160a01b039182169163f305d719918591168460008030610c76426103e861208d565b60405160e089901b7fffffffff000000000000000000000000000000000000000000000000000000001681526001600160a01b039687166004820152602481019590955260448501939093526064840191909152909216608482015260a481019190915260c4016060604051808303818588803b158015610cf657600080fd5b505af1158015610d0a573d6000803e3d6000fd5b50505050506040513d601f19601f82011682018060405250810190610d2f919061200a565b505060155460408051631f9134b360e21b815290516001600160a01b039092169250637e44d2cc916004808301926020929190829003018186803b158015610d7657600080fd5b505afa158015610d8a573d6000803e3d6000fd5b505050506040513d601f19601f82011682018060405250810190610dae9190611f16565b6001600160a01b0316612710600754601e54610dca91906120c7565b610dd491906120a5565b604051600081818185875af1925050503d8060008114610e10576040519150601f19603f3d011682016040523d82523d6000602084013e610e15565b606091505b5050601d546040516001600160a01b0390911691504790600081818185875af1925050503d8060008114610e65576040519150601f19603f3d011682016040523d82523d6000602084013e610e6a565b606091505b50506001600055505050565b60026000541415610ec95760405162461bcd60e51b815260206004820152601f60248201527f5265656e7472616e637947756172643a207265656e7472616e742063616c6c0060448201526064016108af565b6002600055601f5462010000900460ff1615610f4d5760405162461bcd60e51b815260206004820152603560248201527f73616c65207761732061626f727465642c20706c656173652075736520636c6160448201527f696d5374616c6545746828292066756e6374696f6e000000000000000000000060648201526084016108af565b33600090815260216020526040902054610fa95760405162461bcd60e51b815260206004820152601f60248201527f75736572206861736e277420616e7920746f6b656e7320746f20636c61696d0060448201526064016108af565b601f54610100900460ff1661100c5760405162461bcd60e51b815260206004820152602360248201527f696e69746961746f72206861736e277420656e646564207468652073616c65206044820152621e595d60ea1b60648201526084016108af565b600b5433600090815260216020526040812054909161102a916120c7565b3360009081526021602052604080822091909155519091507f8a36f5a234186d446e36a7df36ace663a05a580d9bea2dd899c6dd76a075d5fa906110719083815260200190565b60405180910390a160185460405163a9059cbb60e01b8152336004820152602481018390526001600160a01b039091169063a9059cbb90604401602060405180830381600087803b1580156110c557600080fd5b505af11580156110d9573d6000803e3d6000fd5b505050506040513d601f19601f820116820180604052508101906110fd9190611f33565b50506001600055565b601d546001600160a01b031633146111605760405162461bcd60e51b815260206004820152601b60248201527f63616c6c6572206973206e6f742074686520696e69746961746f72000000000060448201526064016108af565b601f5462010000900460ff16156111ac5760405162461bcd60e51b815260206004820152601060248201526f1cd85b19481dd85cc818589bdc9d195960821b60448201526064016108af565b6002546018546040516370a0823160e01b81523060048201526001600160a01b03909116906370a082319060240160206040518083038186803b1580156111f257600080fd5b505afa158015611206573d6000803e3d6000fd5b505050506040513d601f19601f8201168201806040525081019061122a9190611ff1565b101561129e5760405162461bcd60e51b815260206004820152603160248201527f696e73756666696369656e7420616d6f756e74206f6620746f6b656e7320736560448201527f6e7420746f20746865206164647265737300000000000000000000000000000060648201526084016108af565b601f805460ff19166001179055565b600260005414156113005760405162461bcd60e51b815260206004820152601f60248201527f5265656e7472616e637947756172643a207265656e7472616e742063616c6c0060448201526064016108af565b600260005560015460ff161561134b5760405162461bcd60e51b815260206004820152601060248201526f14185d5cd8589b194e881c185d5cd95960821b60448201526064016108af565b611359813360195446611c8f565b61136257600080fd5b601f5462010000900460ff16156113ae5760405162461bcd60e51b815260206004820152601060248201526f1cd85b19481dd85cc818589bdc9d195960821b60448201526064016108af565b601f5460ff166114005760405162461bcd60e51b815260206004820152601e60248201527f73616c65206861736e2774206265656e2066696e616c697a656420796574000060448201526064016108af565b60095442106114425760405162461bcd60e51b815260206004820152600e60248201526d1cd85b19481a185cc8195b99195960921b60448201526064016108af565b600a5442116114935760405162461bcd60e51b815260206004820152601760248201527f73616c65206861736e277420737461727465642079657400000000000000000060448201526064016108af565b600f54336000908152602160205260409020546114b0903461208d565b111561150a5760405162461bcd60e51b8152602060048201526024808201527f796f7527726520747279696e6720746f2062757920746f6f206d616e7920746f6044820152636b656e7360e01b60648201526084016108af565b60105434101561155c5760405162461bcd60e51b815260206004820152601960248201527f796f75277265206e6f742073656e64696e6720656e6f7567680000000000000060448201526064016108af565b601154611567611c78565b600b5461157490346120c7565b61157e919061208d565b11156115f25760405162461bcd60e51b815260206004820152603360248201527f7468657265206172656e277420656e6f75676820746f6b656e73206c6566742e60448201527f205472792061206c6f77657220616d6f756e740000000000000000000000000060648201526084016108af565b60055434601e54611603919061208d565b11156116605760405162461bcd60e51b815260206004820152602660248201527f6861726463617020697320726561636865642e205472792061206c6f77657220604482015265185b5bdd5b9d60d21b60648201526084016108af565b3360009081526021602052604090205461167b90349061208d565b33600090815260216020526040902055601e5461169990349061208d565b601e55506001600055565b601a80546116b1906120e6565b80601f01602080910402602001604051908101604052809291908181526020018280546116dd906120e6565b801561172a5780601f106116ff5761010080835404028352916020019161172a565b820191906000526020600020905b81548152906001019060200180831161170d57829003601f168201915b505050505081565b600260005414156117855760405162461bcd60e51b815260206004820152601f60248201527f5265656e7472616e637947756172643a207265656e7472616e742063616c6c0060448201526064016108af565b6002600055601f54610100900460ff16156117ee5760405162461bcd60e51b815260206004820152602360248201527f73616c6520686173206265656e20656e646564203a20796f752063616e20636c60448201526261696d60e81b60648201526084016108af565b601f5462010000900460ff161561180757611807611da9565b600654601e5410801561181b575060095442115b1561182857611828611da9565b600654601e541180156118495750600954611846906201518061208d565b42115b1561185657611856611da9565b6001600055565b600260005414156118b05760405162461bcd60e51b815260206004820152601f60248201527f5265656e7472616e637947756172643a207265656e7472616e742063616c6c0060448201526064016108af565b600260005560015460ff16156118fb5760405162461bcd60e51b815260206004820152601060248201526f14185d5cd8589b194e881c185d5cd95960821b60448201526064016108af565b601f5462010000900460ff16156119475760405162461bcd60e51b815260206004820152601060248201526f1cd85b19481dd85cc818589bdc9d195960821b60448201526064016108af565b601f5460ff166119995760405162461bcd60e51b815260206004820152601e60248201527f73616c65206861736e2774206265656e2066696e616c697a656420796574000060448201526064016108af565b60085442116119ea5760405162461bcd60e51b815260206004820152601760248201527f73616c65206861736e277420737461727465642079657400000000000000000060448201526064016108af565b6009544210611a2c5760405162461bcd60e51b815260206004820152600e60248201526d1cd85b19481a185cc8195b99195960921b60448201526064016108af565b600f5433600090815260216020526040902054611a49903461208d565b1115611aa35760405162461bcd60e51b8152602060048201526024808201527f796f7527726520747279696e6720746f2062757920746f6f206d616e7920746f6044820152636b656e7360e01b60648201526084016108af565b601054341015611af55760405162461bcd60e51b815260206004820152601960248201527f796f75277265206e6f742073656e64696e6720656e6f7567680000000000000060448201526064016108af565b601154611b00611c78565b600b54611b0d90346120c7565b611b17919061208d565b1115611b8b5760405162461bcd60e51b815260206004820152603360248201527f7468657265206172656e277420656e6f75676820746f6b656e73206c6566742e60448201527f205472792061206c6f77657220616d6f756e740000000000000000000000000060648201526084016108af565b60055434601e54611b9c919061208d565b1115611bf95760405162461bcd60e51b815260206004820152602660248201527f6861726463617020697320726561636865642e205472792061206c6f77657220604482015265185b5bdd5b9d60d21b60648201526084016108af565b33600090815260216020526040902054611c1490349061208d565b33600090815260216020526040902055601e54611c3290349061208d565b601e556001600055565b60008060008351604114611c4f57600080fd5b5050506020810151604082015160609092015160001a92909190565b601b80546116b1906120e6565b6000600b54601e54611c8a91906120c7565b905090565b600080600080611c9e88611c3c565b604080516001600160a01b038c166020808301919091528183018c905260608083018c9052835180840390910181526080830190935282519201919091207f19457468657265756d205369676e6564204d6573736167653a0a33320000000060a083015260bc8201819052939650919450925060009060dc0160408051601f1981840301815282825280516020918201206000845290830180835281905260ff8816918301919091526060820186905260808201859052915060019060a0016020604051602081039080840390855afa158015611d7f573d6000803e3d6000fd5b5050604051601f1901516014546001600160a01b039182169116149b9a5050505050505050505050565b33600090815260216020526040902054611e055760405162461bcd60e51b815260206004820152601f60248201527f75736572206861736e277420616e7920746f6b656e7320746f20636c61696d0060448201526064016108af565b33600081815260216020526040808220805490839055905190929183919081818185875af1925050503d8060008114611e5a576040519150601f19603f3d011682016040523d82523d6000602084013e611e5f565b606091505b50505050565b600082601f830112611e7657600080fd5b813567ffffffffffffffff80821115611e9157611e91612137565b604051601f8301601f19908116603f01168101908282118183101715611eb957611eb9612137565b81604052838152866020858801011115611ed257600080fd5b836020870160208301376000602085830101528094505050505092915050565b600060208284031215611f0457600080fd5b8135611f0f8161214d565b9392505050565b600060208284031215611f2857600080fd5b8151611f0f8161214d565b600060208284031215611f4557600080fd5b81518015158114611f0f57600080fd5b600060208284031215611f6757600080fd5b813567ffffffffffffffff811115611f7e57600080fd5b611f8a84828501611e65565b949350505050565b60008060008060808587031215611fa857600080fd5b843567ffffffffffffffff811115611fbf57600080fd5b611fcb87828801611e65565b9450506020850135611fdc8161214d565b93969395505050506040820135916060013590565b60006020828403121561200357600080fd5b5051919050565b60008060006060848603121561201f57600080fd5b8351925060208401519150604084015190509250925092565b600060208083528351808285015260005b8181101561206557858101830151858201604001528201612049565b81811115612077576000604083870101525b50601f01601f1916929092016040019392505050565b600082198211156120a0576120a0612121565b500190565b6000826120c257634e487b7160e01b600052601260045260246000fd5b500490565b60008160001904831182151516156120e1576120e1612121565b500290565b600181811c908216806120fa57607f821691505b6020821081141561211b57634e487b7160e01b600052602260045260246000fd5b50919050565b634e487b7160e01b600052601160045260246000fd5b634e487b7160e01b600052604160045260246000fd5b6001600160a01b038116811461216257600080fd5b5056fea2646970667358221220009ee60af1423f7b0d6458ef46c916c3110a1393c7b5227f7b9150bdc6c39e9c64736f6c63430008070033a26469706673582212204d04cbaecd5d3a528cd42d36627bab4683f362a2f5bd39a0e290ca8ae634622e64736f6c63430008070033",
  "bytecodeSha1": "b2e96247bbb30200d87c37f1387367f098cfeda3",
  "compiler": {
    "evm_version": "istanbul",
    "optimizer": {
      "enabled": true,
      "runs": 800
    },
    "version": "0.8.7+commit.e28d00a7"
  },
  "contractName": "LaunchpadMaster",
  "language": "Solidity",
  "natspec": {
    "kind": "dev",
    "methods": {
      "owner()": {
        "details": "Returns the address of the current owner."
      },
      "paused()": {
        "details": "Returns true if the contract is paused, and false otherwise."
      },
      "renounceOwnership()": {
        "details": "Leaves the contract without owner. It will not be possible to call `onlyOwner` functions anymore. Can only be called by the current owner. NOTE: Renouncing ownership will leave the contract without an owner, thereby removing any functionality that is only available to the owner."
      },
      "transferOwnership(address)": {
        "details": "Transfers ownership of the contract to a new account (`newOwner`). Can only be called by the current owner."
      }
    },
    "version": 1
  },
  "opcodes": "PUSH1 0x80 PUSH1 0x40 MSTORE PUSH1 0x4 CALLDATASIZE LT PUSH3 0x145 JUMPI PUSH1 0x0 CALLDATALOAD PUSH1 0xE0 SHR DUP1 PUSH4 0x8DA5CB5B GT PUSH3 0xB2 JUMPI DUP1 PUSH4 0xDAFDEB1A GT PUSH3 0x7D JUMPI DUP1 PUSH4 0xEB2A5D2C GT PUSH3 0x60 JUMPI DUP1 PUSH4 0xEB2A5D2C EQ PUSH3 0x395 JUMPI DUP1 PUSH4 0xF2FDE38B EQ PUSH3 0x3AD JUMPI DUP1 PUSH4 0xF497E93A EQ PUSH3 0x3D2 JUMPI PUSH1 0x0 DUP1 REVERT JUMPDEST DUP1 PUSH4 0xDAFDEB1A EQ PUSH3 0x32A JUMPI DUP1 PUSH4 0xE7689193 EQ PUSH3 0x35B JUMPI PUSH1 0x0 DUP1 REVERT JUMPDEST DUP1 PUSH4 0x8DA5CB5B EQ PUSH3 0x293 JUMPI DUP1 PUSH4 0xA9E52987 EQ PUSH3 0x2B3 JUMPI DUP1 PUSH4 0xB1D2EF90 EQ PUSH3 0x2D8 JUMPI DUP1 PUSH4 0xD294F093 EQ PUSH3 0x312 JUMPI PUSH1 0x0 DUP1 REVERT JUMPDEST DUP1 PUSH4 0x6E25F7C0 GT PUSH3 0x110 JUMPI DUP1 PUSH4 0x73DC1349 GT PUSH3 0xF3 JUMPI DUP1 PUSH4 0x73DC1349 EQ PUSH3 0x241 JUMPI DUP1 PUSH4 0x74A5F8D2 EQ PUSH3 0x259 JUMPI DUP1 PUSH4 0x7E44D2CC EQ PUSH3 0x271 JUMPI PUSH1 0x0 DUP1 REVERT JUMPDEST DUP1 PUSH4 0x6E25F7C0 EQ PUSH3 0x204 JUMPI DUP1 PUSH4 0x715018A6 EQ PUSH3 0x229 JUMPI PUSH1 0x0 DUP1 REVERT JUMPDEST DUP1 PUSH4 0x238AC933 EQ PUSH3 0x152 JUMPI DUP1 PUSH4 0x2E849894 EQ PUSH3 0x191 JUMPI DUP1 PUSH4 0x5C975ABB EQ PUSH3 0x1B8 JUMPI DUP1 PUSH4 0x6C19E783 EQ PUSH3 0x1DD JUMPI PUSH1 0x0 DUP1 REVERT JUMPDEST CALLDATASIZE PUSH3 0x14D JUMPI STOP JUMPDEST PUSH1 0x0 DUP1 REVERT JUMPDEST CALLVALUE DUP1 ISZERO PUSH3 0x15F JUMPI PUSH1 0x0 DUP1 REVERT JUMPDEST POP PUSH1 0xA SLOAD PUSH3 0x174 SWAP1 PUSH1 0x1 PUSH1 0x1 PUSH1 0xA0 SHL SUB AND DUP2 JUMP JUMPDEST PUSH1 0x40 MLOAD PUSH1 0x1 PUSH1 0x1 PUSH1 0xA0 SHL SUB SWAP1 SWAP2 AND DUP2 MSTORE PUSH1 0x20 ADD JUMPDEST PUSH1 0x40 MLOAD DUP1 SWAP2 SUB SWAP1 RETURN JUMPDEST CALLVALUE DUP1 ISZERO PUSH3 0x19E JUMPI PUSH1 0x0 DUP1 REVERT JUMPDEST POP PUSH3 0x1A9 PUSH1 0x6 SLOAD DUP2 JUMP JUMPDEST PUSH1 0x40 MLOAD SWAP1 DUP2 MSTORE PUSH1 0x20 ADD PUSH3 0x188 JUMP JUMPDEST CALLVALUE DUP1 ISZERO PUSH3 0x1C5 JUMPI PUSH1 0x0 DUP1 REVERT JUMPDEST POP PUSH1 0x2 SLOAD PUSH1 0xFF AND PUSH1 0x40 MLOAD SWAP1 ISZERO ISZERO DUP2 MSTORE PUSH1 0x20 ADD PUSH3 0x188 JUMP JUMPDEST CALLVALUE DUP1 ISZERO PUSH3 0x1EA JUMPI PUSH1 0x0 DUP1 REVERT JUMPDEST POP PUSH3 0x202 PUSH3 0x1FC CALLDATASIZE PUSH1 0x4 PUSH3 0xAFD JUMP JUMPDEST PUSH3 0x3E9 JUMP JUMPDEST STOP JUMPDEST CALLVALUE DUP1 ISZERO PUSH3 0x211 JUMPI PUSH1 0x0 DUP1 REVERT JUMPDEST POP PUSH3 0x202 PUSH3 0x223 CALLDATASIZE PUSH1 0x4 PUSH3 0xC39 JUMP JUMPDEST PUSH3 0x46B JUMP JUMPDEST CALLVALUE DUP1 ISZERO PUSH3 0x236 JUMPI PUSH1 0x0 DUP1 REVERT JUMPDEST POP PUSH3 0x202 PUSH3 0x51F JUMP JUMPDEST CALLVALUE DUP1 ISZERO PUSH3 0x24E JUMPI PUSH1 0x0 DUP1 REVERT JUMPDEST POP PUSH3 0x1A9 PUSH1 0x7 SLOAD DUP2 JUMP JUMPDEST CALLVALUE DUP1 ISZERO PUSH3 0x266 JUMPI PUSH1 0x0 DUP1 REVERT JUMPDEST POP PUSH3 0x1A9 PUSH1 0x8 SLOAD DUP2 JUMP JUMPDEST CALLVALUE DUP1 ISZERO PUSH3 0x27E JUMPI PUSH1 0x0 DUP1 REVERT JUMPDEST POP PUSH1 0xB SLOAD PUSH3 0x174 SWAP1 PUSH1 0x1 PUSH1 0x1 PUSH1 0xA0 SHL SUB AND DUP2 JUMP JUMPDEST CALLVALUE DUP1 ISZERO PUSH3 0x2A0 JUMPI PUSH1 0x0 DUP1 REVERT JUMPDEST POP PUSH1 0x0 SLOAD PUSH1 0x1 PUSH1 0x1 PUSH1 0xA0 SHL SUB AND PUSH3 0x174 JUMP JUMPDEST CALLVALUE DUP1 ISZERO PUSH3 0x2C0 JUMPI PUSH1 0x0 DUP1 REVERT JUMPDEST POP PUSH3 0x202 PUSH3 0x2D2 CALLDATASIZE PUSH1 0x4 PUSH3 0xC39 JUMP JUMPDEST PUSH3 0x589 JUMP JUMPDEST CALLVALUE DUP1 ISZERO PUSH3 0x2E5 JUMPI PUSH1 0x0 DUP1 REVERT JUMPDEST POP PUSH3 0x174 PUSH3 0x2F7 CALLDATASIZE PUSH1 0x4 PUSH3 0xC39 JUMP JUMPDEST PUSH1 0x5 PUSH1 0x20 MSTORE PUSH1 0x0 SWAP1 DUP2 MSTORE PUSH1 0x40 SWAP1 KECCAK256 SLOAD PUSH1 0x1 PUSH1 0x1 PUSH1 0xA0 SHL SUB AND DUP2 JUMP JUMPDEST CALLVALUE DUP1 ISZERO PUSH3 0x31F JUMPI PUSH1 0x0 DUP1 REVERT JUMPDEST POP PUSH3 0x202 PUSH3 0x5EA JUMP JUMPDEST CALLVALUE DUP1 ISZERO PUSH3 0x337 JUMPI PUSH1 0x0 DUP1 REVERT JUMPDEST POP PUSH3 0x1A9 PUSH3 0x349 CALLDATASIZE PUSH1 0x4 PUSH3 0xAFD JUMP JUMPDEST PUSH1 0x4 PUSH1 0x20 MSTORE PUSH1 0x0 SWAP1 DUP2 MSTORE PUSH1 0x40 SWAP1 KECCAK256 SLOAD DUP2 JUMP JUMPDEST CALLVALUE DUP1 ISZERO PUSH3 0x368 JUMPI PUSH1 0x0 DUP1 REVERT JUMPDEST POP PUSH3 0x174 PUSH3 0x37A CALLDATASIZE PUSH1 0x4 PUSH3 0xC39 JUMP JUMPDEST PUSH1 0x3 PUSH1 0x20 MSTORE PUSH1 0x0 SWAP1 DUP2 MSTORE PUSH1 0x40 SWAP1 KECCAK256 SLOAD PUSH1 0x1 PUSH1 0x1 PUSH1 0xA0 SHL SUB AND DUP2 JUMP JUMPDEST CALLVALUE DUP1 ISZERO PUSH3 0x3A2 JUMPI PUSH1 0x0 DUP1 REVERT JUMPDEST POP PUSH3 0x1A9 PUSH1 0x9 SLOAD DUP2 JUMP JUMPDEST CALLVALUE DUP1 ISZERO PUSH3 0x3BA JUMPI PUSH1 0x0 DUP1 REVERT JUMPDEST POP PUSH3 0x202 PUSH3 0x3CC CALLDATASIZE PUSH1 0x4 PUSH3 0xAFD JUMP JUMPDEST PUSH3 0x6FD JUMP JUMPDEST PUSH3 0x174 PUSH3 0x3E3 CALLDATASIZE PUSH1 0x4 PUSH3 0xB22 JUMP JUMPDEST PUSH3 0x7E5 JUMP JUMPDEST PUSH1 0x0 SLOAD PUSH1 0x1 PUSH1 0x1 PUSH1 0xA0 SHL SUB AND CALLER EQ PUSH3 0x449 JUMPI PUSH1 0x40 MLOAD PUSH3 0x461BCD PUSH1 0xE5 SHL DUP2 MSTORE PUSH1 0x20 PUSH1 0x4 DUP3 ADD DUP2 SWAP1 MSTORE PUSH1 0x24 DUP3 ADD MSTORE PUSH32 0x4F776E61626C653A2063616C6C6572206973206E6F7420746865206F776E6572 PUSH1 0x44 DUP3 ADD MSTORE PUSH1 0x64 ADD JUMPDEST PUSH1 0x40 MLOAD DUP1 SWAP2 SUB SWAP1 REVERT JUMPDEST PUSH1 0xA DUP1 SLOAD PUSH1 0x1 PUSH1 0x1 PUSH1 0xA0 SHL SUB NOT AND PUSH1 0x1 PUSH1 0x1 PUSH1 0xA0 SHL SUB SWAP3 SWAP1 SWAP3 AND SWAP2 SWAP1 SWAP2 OR SWAP1 SSTORE JUMP JUMPDEST PUSH1 0x0 SLOAD PUSH1 0x1 PUSH1 0x1 PUSH1 0xA0 SHL SUB AND CALLER EQ PUSH3 0x4C7 JUMPI PUSH1 0x40 MLOAD PUSH3 0x461BCD PUSH1 0xE5 SHL DUP2 MSTORE PUSH1 0x20 PUSH1 0x4 DUP3 ADD DUP2 SWAP1 MSTORE PUSH1 0x24 DUP3 ADD MSTORE PUSH32 0x4F776E61626C653A2063616C6C6572206973206E6F7420746865206F776E6572 PUSH1 0x44 DUP3 ADD MSTORE PUSH1 0x64 ADD PUSH3 0x440 JUMP JUMPDEST PUSH2 0x2710 DUP2 LT PUSH3 0x51A JUMPI PUSH1 0x40 MLOAD PUSH3 0x461BCD PUSH1 0xE5 SHL DUP2 MSTORE PUSH1 0x20 PUSH1 0x4 DUP3 ADD MSTORE PUSH1 0x8 PUSH1 0x24 DUP3 ADD MSTORE PUSH32 0x746F6F2068696768000000000000000000000000000000000000000000000000 PUSH1 0x44 DUP3 ADD MSTORE PUSH1 0x64 ADD PUSH3 0x440 JUMP JUMPDEST PUSH1 0x7 SSTORE JUMP JUMPDEST PUSH1 0x0 SLOAD PUSH1 0x1 PUSH1 0x1 PUSH1 0xA0 SHL SUB AND CALLER EQ PUSH3 0x57B JUMPI PUSH1 0x40 MLOAD PUSH3 0x461BCD PUSH1 0xE5 SHL DUP2 MSTORE PUSH1 0x20 PUSH1 0x4 DUP3 ADD DUP2 SWAP1 MSTORE PUSH1 0x24 DUP3 ADD MSTORE PUSH32 0x4F776E61626C653A2063616C6C6572206973206E6F7420746865206F776E6572 PUSH1 0x44 DUP3 ADD MSTORE PUSH1 0x64 ADD PUSH3 0x440 JUMP JUMPDEST PUSH3 0x587 PUSH1 0x0 PUSH3 0x9DC JUMP JUMPDEST JUMP JUMPDEST PUSH1 0x0 SLOAD PUSH1 0x1 PUSH1 0x1 PUSH1 0xA0 SHL SUB AND CALLER EQ PUSH3 0x5E5 JUMPI PUSH1 0x40 MLOAD PUSH3 0x461BCD PUSH1 0xE5 SHL DUP2 MSTORE PUSH1 0x20 PUSH1 0x4 DUP3 ADD DUP2 SWAP1 MSTORE PUSH1 0x24 DUP3 ADD MSTORE PUSH32 0x4F776E61626C653A2063616C6C6572206973206E6F7420746865206F776E6572 PUSH1 0x44 DUP3 ADD MSTORE PUSH1 0x64 ADD PUSH3 0x440 JUMP JUMPDEST PUSH1 0x9 SSTORE JUMP JUMPDEST PUSH1 0x2 PUSH1 0x1 SLOAD EQ ISZERO PUSH3 0x63F JUMPI PUSH1 0x40 MLOAD PUSH3 0x461BCD PUSH1 0xE5 SHL DUP2 MSTORE PUSH1 0x20 PUSH1 0x4 DUP3 ADD MSTORE PUSH1 0x1F PUSH1 0x24 DUP3 ADD MSTORE PUSH32 0x5265656E7472616E637947756172643A207265656E7472616E742063616C6C00 PUSH1 0x44 DUP3 ADD MSTORE PUSH1 0x64 ADD PUSH3 0x440 JUMP JUMPDEST PUSH1 0x2 PUSH1 0x1 SSTORE PUSH1 0xB SLOAD PUSH1 0x1 PUSH1 0x1 PUSH1 0xA0 SHL SUB AND CALLER EQ PUSH3 0x6A0 JUMPI PUSH1 0x40 MLOAD PUSH3 0x461BCD PUSH1 0xE5 SHL DUP2 MSTORE PUSH1 0x20 PUSH1 0x4 DUP3 ADD MSTORE PUSH1 0xE PUSH1 0x24 DUP3 ADD MSTORE PUSH32 0x6E6F7420617574686F72697A6564000000000000000000000000000000000000 PUSH1 0x44 DUP3 ADD MSTORE PUSH1 0x64 ADD PUSH3 0x440 JUMP JUMPDEST PUSH1 0xB SLOAD PUSH1 0x40 MLOAD PUSH1 0x1 PUSH1 0x1 PUSH1 0xA0 SHL SUB SWAP1 SWAP2 AND SWAP1 SELFBALANCE SWAP1 PUSH1 0x0 DUP2 DUP2 DUP2 DUP6 DUP8 GAS CALL SWAP3 POP POP POP RETURNDATASIZE DUP1 PUSH1 0x0 DUP2 EQ PUSH3 0x6EF JUMPI PUSH1 0x40 MLOAD SWAP2 POP PUSH1 0x1F NOT PUSH1 0x3F RETURNDATASIZE ADD AND DUP3 ADD PUSH1 0x40 MSTORE RETURNDATASIZE DUP3 MSTORE RETURNDATASIZE PUSH1 0x0 PUSH1 0x20 DUP5 ADD RETURNDATACOPY PUSH3 0x6F4 JUMP JUMPDEST PUSH1 0x60 SWAP2 POP JUMPDEST POP POP PUSH1 0x1 DUP1 SSTORE POP JUMP JUMPDEST PUSH1 0x0 SLOAD PUSH1 0x1 PUSH1 0x1 PUSH1 0xA0 SHL SUB AND CALLER EQ PUSH3 0x759 JUMPI PUSH1 0x40 MLOAD PUSH3 0x461BCD PUSH1 0xE5 SHL DUP2 MSTORE PUSH1 0x20 PUSH1 0x4 DUP3 ADD DUP2 SWAP1 MSTORE PUSH1 0x24 DUP3 ADD MSTORE PUSH32 0x4F776E61626C653A2063616C6C6572206973206E6F7420746865206F776E6572 PUSH1 0x44 DUP3 ADD MSTORE PUSH1 0x64 ADD PUSH3 0x440 JUMP JUMPDEST PUSH1 0x1 PUSH1 0x1 PUSH1 0xA0 SHL SUB DUP2 AND PUSH3 0x7D7 JUMPI PUSH1 0x40 MLOAD PUSH3 0x461BCD PUSH1 0xE5 SHL DUP2 MSTORE PUSH1 0x20 PUSH1 0x4 DUP3 ADD MSTORE PUSH1 0x26 PUSH1 0x24 DUP3 ADD MSTORE PUSH32 0x4F776E61626C653A206E6577206F776E657220697320746865207A65726F2061 PUSH1 0x44 DUP3 ADD MSTORE PUSH32 0x6464726573730000000000000000000000000000000000000000000000000000 PUSH1 0x64 DUP3 ADD MSTORE PUSH1 0x84 ADD PUSH3 0x440 JUMP JUMPDEST PUSH3 0x7E2 DUP2 PUSH3 0x9DC JUMP JUMPDEST POP JUMP JUMPDEST PUSH1 0x0 PUSH3 0x7F4 PUSH1 0x2 SLOAD PUSH1 0xFF AND SWAP1 JUMP JUMPDEST ISZERO PUSH3 0x843 JUMPI PUSH1 0x40 MLOAD PUSH3 0x461BCD PUSH1 0xE5 SHL DUP2 MSTORE PUSH1 0x20 PUSH1 0x4 DUP3 ADD MSTORE PUSH1 0x10 PUSH1 0x24 DUP3 ADD MSTORE PUSH32 0x5061757361626C653A2070617573656400000000000000000000000000000000 PUSH1 0x44 DUP3 ADD MSTORE PUSH1 0x64 ADD PUSH3 0x440 JUMP JUMPDEST PUSH1 0x2 PUSH1 0x1 SLOAD EQ ISZERO PUSH3 0x898 JUMPI PUSH1 0x40 MLOAD PUSH3 0x461BCD PUSH1 0xE5 SHL DUP2 MSTORE PUSH1 0x20 PUSH1 0x4 DUP3 ADD MSTORE PUSH1 0x1F PUSH1 0x24 DUP3 ADD MSTORE PUSH32 0x5265656E7472616E637947756172643A207265656E7472616E742063616C6C00 PUSH1 0x44 DUP3 ADD MSTORE PUSH1 0x64 ADD PUSH3 0x440 JUMP JUMPDEST PUSH1 0x2 PUSH1 0x1 SSTORE PUSH1 0x9 SLOAD CALLVALUE LT ISZERO PUSH3 0x8F1 JUMPI PUSH1 0x40 MLOAD PUSH3 0x461BCD PUSH1 0xE5 SHL DUP2 MSTORE PUSH1 0x20 PUSH1 0x4 DUP3 ADD MSTORE PUSH1 0x13 PUSH1 0x24 DUP3 ADD MSTORE PUSH32 0x6E6F7420656E6F756768206574682073656E7400000000000000000000000000 PUSH1 0x44 DUP3 ADD MSTORE PUSH1 0x64 ADD PUSH3 0x440 JUMP JUMPDEST PUSH1 0xA SLOAD PUSH1 0x6 SLOAD PUSH1 0x0 SWAP1 DUP2 MSTORE PUSH1 0x5 PUSH1 0x20 MSTORE PUSH1 0x40 DUP1 DUP3 KECCAK256 DUP1 SLOAD PUSH1 0x1 PUSH1 0x1 PUSH1 0xA0 SHL SUB NOT AND PUSH1 0x1 PUSH1 0x1 PUSH1 0xA0 SHL SUB SWAP1 SWAP5 AND SWAP4 SWAP1 SWAP4 OR SWAP1 SWAP3 SSTORE SWAP1 MLOAD DUP11 SWAP1 DUP11 SWAP1 DUP11 SWAP1 DUP11 SWAP1 DUP11 SWAP1 DUP11 SWAP1 DUP11 SWAP1 DUP11 SWAP1 CALLER SWAP1 PUSH3 0x943 SWAP1 PUSH3 0xA2C JUMP JUMPDEST PUSH3 0x957 SWAP10 SWAP9 SWAP8 SWAP7 SWAP6 SWAP5 SWAP4 SWAP3 SWAP2 SWAP1 PUSH3 0xCA3 JUMP JUMPDEST PUSH1 0x40 MLOAD DUP1 SWAP2 SUB SWAP1 PUSH1 0x0 CREATE DUP1 ISZERO DUP1 ISZERO PUSH3 0x974 JUMPI RETURNDATASIZE PUSH1 0x0 DUP1 RETURNDATACOPY RETURNDATASIZE PUSH1 0x0 REVERT JUMPDEST POP PUSH1 0x6 DUP1 SLOAD PUSH1 0x0 SWAP1 DUP2 MSTORE PUSH1 0x3 PUSH1 0x20 SWAP1 DUP2 MSTORE PUSH1 0x40 DUP1 DUP4 KECCAK256 DUP1 SLOAD PUSH1 0x1 PUSH1 0x1 PUSH1 0xA0 SHL SUB NOT AND PUSH1 0x1 PUSH1 0x1 PUSH1 0xA0 SHL SUB DUP8 AND SWAP1 DUP2 OR SWAP1 SWAP2 SSTORE SWAP4 SLOAD SWAP4 DUP4 MSTORE PUSH1 0x4 SWAP1 SWAP2 MSTORE SWAP1 KECCAK256 DUP2 SWAP1 SSTORE SWAP1 SWAP3 POP DUP3 SWAP2 POP PUSH3 0x9C8 SWAP1 PUSH1 0x1 PUSH3 0xD87 JUMP JUMPDEST PUSH1 0x6 SSTORE POP PUSH1 0x1 DUP1 SSTORE SWAP9 SWAP8 POP POP POP POP POP POP POP POP JUMP JUMPDEST PUSH1 0x0 DUP1 SLOAD PUSH1 0x1 PUSH1 0x1 PUSH1 0xA0 SHL SUB DUP4 DUP2 AND PUSH1 0x1 PUSH1 0x1 PUSH1 0xA0 SHL SUB NOT DUP4 AND DUP2 OR DUP5 SSTORE PUSH1 0x40 MLOAD SWAP2 SWAP1 SWAP3 AND SWAP3 DUP4 SWAP2 PUSH32 0x8BE0079C531659141344CD1FD0A4F28419497F9722A3DAAFE3B4186F6B6457E0 SWAP2 SWAP1 LOG3 POP POP JUMP JUMPDEST PUSH2 0x2B1F DUP1 PUSH3 0xDC5 DUP4 CODECOPY ADD SWAP1 JUMP JUMPDEST DUP1 CALLDATALOAD PUSH1 0x1 PUSH1 0x1 PUSH1 0xA0 SHL SUB DUP2 AND DUP2 EQ PUSH3 0xA52 JUMPI PUSH1 0x0 DUP1 REVERT JUMPDEST SWAP2 SWAP1 POP JUMP JUMPDEST DUP1 CALLDATALOAD DUP1 ISZERO ISZERO DUP2 EQ PUSH3 0xA52 JUMPI PUSH1 0x0 DUP1 REVERT JUMPDEST PUSH1 0x0 DUP3 PUSH1 0x1F DUP4 ADD SLT PUSH3 0xA7A JUMPI PUSH1 0x0 DUP1 REVERT JUMPDEST DUP2 CALLDATALOAD PUSH8 0xFFFFFFFFFFFFFFFF DUP1 DUP3 GT ISZERO PUSH3 0xA98 JUMPI PUSH3 0xA98 PUSH3 0xDAE JUMP JUMPDEST PUSH1 0x40 MLOAD PUSH1 0x1F DUP4 ADD PUSH1 0x1F NOT SWAP1 DUP2 AND PUSH1 0x3F ADD AND DUP2 ADD SWAP1 DUP3 DUP3 GT DUP2 DUP4 LT OR ISZERO PUSH3 0xAC3 JUMPI PUSH3 0xAC3 PUSH3 0xDAE JUMP JUMPDEST DUP2 PUSH1 0x40 MSTORE DUP4 DUP2 MSTORE DUP7 PUSH1 0x20 DUP6 DUP9 ADD ADD GT ISZERO PUSH3 0xADD JUMPI PUSH1 0x0 DUP1 REVERT JUMPDEST DUP4 PUSH1 0x20 DUP8 ADD PUSH1 0x20 DUP4 ADD CALLDATACOPY PUSH1 0x0 PUSH1 0x20 DUP6 DUP4 ADD ADD MSTORE DUP1 SWAP5 POP POP POP POP POP SWAP3 SWAP2 POP POP JUMP JUMPDEST PUSH1 0x0 PUSH1 0x20 DUP3 DUP5 SUB SLT ISZERO PUSH3 0xB10 JUMPI PUSH1 0x0 DUP1 REVERT JUMPDEST PUSH3 0xB1B DUP3 PUSH3 0xA3A JUMP JUMPDEST SWAP4 SWAP3 POP POP POP JUMP JUMPDEST PUSH1 0x0 DUP1 PUSH1 0x0 DUP1 PUSH1 0x0 DUP1 PUSH1 0x0 DUP1 PUSH2 0x1E0 DUP10 DUP12 SUB SLT ISZERO PUSH3 0xB40 JUMPI PUSH1 0x0 DUP1 REVERT JUMPDEST PUSH3 0xB4B DUP10 PUSH3 0xA3A JUMP JUMPDEST SWAP8 POP PUSH1 0x20 DUP1 DUP11 ADD CALLDATALOAD PUSH8 0xFFFFFFFFFFFFFFFF DUP1 DUP3 GT ISZERO PUSH3 0xB6A JUMPI PUSH1 0x0 DUP1 REVERT JUMPDEST PUSH3 0xB78 DUP14 DUP4 DUP15 ADD PUSH3 0xA68 JUMP JUMPDEST SWAP10 POP PUSH1 0x40 DUP13 ADD CALLDATALOAD SWAP2 POP DUP1 DUP3 GT ISZERO PUSH3 0xB8F JUMPI PUSH1 0x0 DUP1 REVERT JUMPDEST POP PUSH3 0xB9E DUP13 DUP3 DUP14 ADD PUSH3 0xA68 JUMP JUMPDEST SWAP8 POP POP DUP11 PUSH1 0x7F DUP12 ADD SLT PUSH3 0xBB1 JUMPI PUSH1 0x0 DUP1 REVERT JUMPDEST PUSH3 0xBBB PUSH3 0xD5A JUMP JUMPDEST DUP1 PUSH1 0x60 DUP13 ADD PUSH2 0x160 DUP14 ADD DUP15 DUP2 GT ISZERO PUSH3 0xBD3 JUMPI PUSH1 0x0 DUP1 REVERT JUMPDEST PUSH1 0x0 JUMPDEST PUSH1 0x8 DUP2 LT ISZERO PUSH3 0xBF5 JUMPI DUP3 CALLDATALOAD DUP6 MSTORE SWAP4 DUP6 ADD SWAP4 SWAP2 DUP6 ADD SWAP2 PUSH1 0x1 ADD PUSH3 0xBD6 JUMP JUMPDEST POP DUP3 SWAP10 POP PUSH3 0xC04 DUP2 PUSH3 0xA57 JUMP JUMPDEST SWAP9 POP POP POP POP POP POP PUSH2 0x180 DUP10 ADD CALLDATALOAD SWAP3 POP PUSH2 0x1A0 DUP10 ADD CALLDATALOAD SWAP2 POP PUSH3 0xC2A PUSH2 0x1C0 DUP11 ADD PUSH3 0xA3A JUMP JUMPDEST SWAP1 POP SWAP3 SWAP6 SWAP9 POP SWAP3 SWAP6 SWAP9 SWAP1 SWAP4 SWAP7 POP JUMP JUMPDEST PUSH1 0x0 PUSH1 0x20 DUP3 DUP5 SUB SLT ISZERO PUSH3 0xC4C JUMPI PUSH1 0x0 DUP1 REVERT JUMPDEST POP CALLDATALOAD SWAP2 SWAP1 POP JUMP JUMPDEST PUSH1 0x0 DUP2 MLOAD DUP1 DUP5 MSTORE PUSH1 0x0 JUMPDEST DUP2 DUP2 LT ISZERO PUSH3 0xC7B JUMPI PUSH1 0x20 DUP2 DUP6 ADD DUP2 ADD MLOAD DUP7 DUP4 ADD DUP3 ADD MSTORE ADD PUSH3 0xC5D JUMP JUMPDEST DUP2 DUP2 GT ISZERO PUSH3 0xC8E JUMPI PUSH1 0x0 PUSH1 0x20 DUP4 DUP8 ADD ADD MSTORE JUMPDEST POP PUSH1 0x1F ADD PUSH1 0x1F NOT AND SWAP3 SWAP1 SWAP3 ADD PUSH1 0x20 ADD SWAP3 SWAP2 POP POP JUMP JUMPDEST PUSH1 0x0 PUSH2 0x200 PUSH1 0x1 PUSH1 0x1 PUSH1 0xA0 SHL SUB DUP13 AND DUP4 MSTORE PUSH1 0x20 DUP2 DUP2 DUP6 ADD MSTORE PUSH3 0xCC9 DUP3 DUP6 ADD DUP14 PUSH3 0xC53 JUMP JUMPDEST SWAP2 POP DUP4 DUP3 SUB PUSH1 0x40 DUP6 ADD MSTORE PUSH3 0xCDF DUP3 DUP13 PUSH3 0xC53 JUMP JUMPDEST SWAP3 POP PUSH1 0x60 DUP5 ADD SWAP2 POP DUP10 PUSH1 0x0 JUMPDEST PUSH1 0x8 DUP2 LT ISZERO PUSH3 0xD0A JUMPI DUP2 MLOAD DUP5 MSTORE SWAP3 DUP3 ADD SWAP3 SWAP1 DUP3 ADD SWAP1 PUSH1 0x1 ADD PUSH3 0xCEB JUMP JUMPDEST POP POP POP POP DUP7 ISZERO ISZERO PUSH2 0x160 DUP4 ADD MSTORE DUP6 PUSH2 0x180 DUP4 ADD MSTORE DUP5 PUSH2 0x1A0 DUP4 ADD MSTORE PUSH3 0xD3C PUSH2 0x1C0 DUP4 ADD DUP6 PUSH1 0x1 PUSH1 0x1 PUSH1 0xA0 SHL SUB AND SWAP1 MSTORE JUMP JUMPDEST PUSH1 0x1 PUSH1 0x1 PUSH1 0xA0 SHL SUB DUP4 AND PUSH2 0x1E0 DUP4 ADD MSTORE SWAP11 SWAP10 POP POP POP POP POP POP POP POP POP POP JUMP JUMPDEST PUSH1 0x40 MLOAD PUSH2 0x100 DUP2 ADD PUSH8 0xFFFFFFFFFFFFFFFF DUP2 GT DUP3 DUP3 LT OR ISZERO PUSH3 0xD81 JUMPI PUSH3 0xD81 PUSH3 0xDAE JUMP JUMPDEST PUSH1 0x40 MSTORE SWAP1 JUMP JUMPDEST PUSH1 0x0 DUP3 NOT DUP3 GT ISZERO PUSH3 0xDA9 JUMPI PUSH4 0x4E487B71 PUSH1 0xE0 SHL PUSH1 0x0 MSTORE PUSH1 0x11 PUSH1 0x4 MSTORE PUSH1 0x24 PUSH1 0x0 REVERT JUMPDEST POP ADD SWAP1 JUMP JUMPDEST PUSH4 0x4E487B71 PUSH1 0xE0 SHL PUSH1 0x0 MSTORE PUSH1 0x41 PUSH1 0x4 MSTORE PUSH1 0x24 PUSH1 0x0 REVERT INVALID PUSH1 0x80 PUSH1 0x40 MSTORE PUSH1 0x13 DUP1 SLOAD PUSH4 0x1000000 PUSH1 0x1 PUSH1 0xB8 SHL SUB NOT AND PUSH5 0xDEAD000000 OR SWAP1 SSTORE CALLVALUE DUP1 ISZERO PUSH3 0x2B JUMPI PUSH1 0x0 DUP1 REVERT JUMPDEST POP PUSH1 0x40 MLOAD PUSH3 0x2B1F CODESIZE SUB DUP1 PUSH3 0x2B1F DUP4 CODECOPY DUP2 ADD PUSH1 0x40 DUP2 SWAP1 MSTORE PUSH3 0x4E SWAP2 PUSH3 0x708 JUMP JUMPDEST PUSH1 0x1 PUSH1 0x0 DUP2 SWAP1 SSTORE DUP1 SLOAD PUSH1 0xFF NOT AND SWAP1 SSTORE PUSH1 0x18 DUP1 SLOAD PUSH1 0x1 PUSH1 0x1 PUSH1 0xA0 SHL SUB NOT AND PUSH1 0x1 PUSH1 0x1 PUSH1 0xA0 SHL SUB DUP12 AND OR SWAP1 SSTORE DUP8 MLOAD PUSH3 0x8D SWAP1 PUSH1 0x1A SWAP1 PUSH1 0x20 DUP12 ADD SWAP1 PUSH3 0x57A JUMP JUMPDEST POP DUP7 MLOAD PUSH3 0xA3 SWAP1 PUSH1 0x1B SWAP1 PUSH1 0x20 DUP11 ADD SWAP1 PUSH3 0x57A JUMP JUMPDEST POP DUP6 MLOAD PUSH1 0x2 SSTORE PUSH1 0x20 DUP7 ADD MLOAD PUSH1 0x3 SSTORE PUSH1 0x40 DUP7 ADD MLOAD PUSH1 0x4 SSTORE PUSH1 0x60 DUP7 ADD MLOAD PUSH1 0x5 DUP2 SWAP1 SSTORE PUSH1 0x80 DUP8 ADD MLOAD PUSH1 0x8 SSTORE PUSH1 0xA0 DUP8 ADD MLOAD PUSH1 0x9 SSTORE PUSH1 0xC0 DUP8 ADD MLOAD PUSH1 0xF SSTORE PUSH1 0xE0 DUP8 ADD MLOAD PUSH1 0x10 DUP2 SWAP1 SSTORE LT PUSH3 0x148 JUMPI PUSH1 0x40 MLOAD PUSH3 0x461BCD PUSH1 0xE5 SHL DUP2 MSTORE PUSH1 0x20 PUSH1 0x4 DUP3 ADD MSTORE PUSH1 0x27 PUSH1 0x24 DUP3 ADD MSTORE PUSH32 0x6D696E2062757920706572207573657220697320686967686572207468616E20 PUSH1 0x44 DUP3 ADD MSTORE PUSH7 0x6861726463617 PUSH1 0xCC SHL PUSH1 0x64 DUP3 ADD MSTORE PUSH1 0x84 ADD JUMPDEST PUSH1 0x40 MLOAD DUP1 SWAP2 SUB SWAP1 REVERT JUMPDEST PUSH1 0x15 DUP1 SLOAD PUSH1 0x1 PUSH1 0x1 PUSH1 0xA0 SHL SUB NOT AND CALLER SWAP1 DUP2 OR SWAP1 SWAP2 SSTORE PUSH1 0x40 DUP1 MLOAD PUSH4 0x73DC1349 PUSH1 0xE0 SHL DUP2 MSTORE SWAP1 MLOAD PUSH4 0x73DC1349 SWAP2 PUSH1 0x4 DUP1 DUP3 ADD SWAP3 PUSH1 0x20 SWAP3 SWAP1 SWAP2 SWAP1 DUP3 SWAP1 SUB ADD DUP2 DUP7 DUP1 EXTCODESIZE ISZERO DUP1 ISZERO PUSH3 0x194 JUMPI PUSH1 0x0 DUP1 REVERT JUMPDEST POP GAS STATICCALL ISZERO DUP1 ISZERO PUSH3 0x1A9 JUMPI RETURNDATASIZE PUSH1 0x0 DUP1 RETURNDATACOPY RETURNDATASIZE PUSH1 0x0 REVERT JUMPDEST POP POP POP POP PUSH1 0x40 MLOAD RETURNDATASIZE PUSH1 0x1F NOT PUSH1 0x1F DUP3 ADD AND DUP3 ADD DUP1 PUSH1 0x40 MSTORE POP DUP2 ADD SWAP1 PUSH3 0x1CF SWAP2 SWAP1 PUSH3 0x833 JUMP JUMPDEST PUSH1 0x7 SSTORE PUSH1 0x5 SLOAD PUSH1 0x4 SLOAD PUSH2 0x2710 SWAP1 PUSH3 0x1E8 SWAP1 DUP3 PUSH3 0x8F1 JUMP JUMPDEST PUSH1 0x2 SLOAD PUSH3 0x1F7 SWAP2 SWAP1 PUSH3 0x8CF JUMP JUMPDEST PUSH3 0x203 SWAP2 SWAP1 PUSH3 0x8AC JUMP JUMPDEST PUSH3 0x20F SWAP2 SWAP1 PUSH3 0x8AC JUMP JUMPDEST PUSH1 0xB SSTORE PUSH1 0x5 SLOAD PUSH3 0x223 SWAP1 PUSH1 0x2 SWAP1 PUSH3 0x8AC JUMP JUMPDEST PUSH1 0x6 SSTORE PUSH1 0x4 SLOAD PUSH1 0x2 SLOAD PUSH2 0x2710 SWAP2 PUSH3 0x23B SWAP2 PUSH3 0x8CF JUMP JUMPDEST PUSH3 0x247 SWAP2 SWAP1 PUSH3 0x8AC JUMP JUMPDEST PUSH1 0x12 DUP2 SWAP1 SSTORE PUSH1 0x2 SLOAD PUSH3 0x25B SWAP2 SWAP1 PUSH3 0x8F1 JUMP JUMPDEST PUSH1 0x11 SSTORE PUSH1 0x7 SLOAD PUSH2 0x2710 SWAP1 PUSH3 0x271 SWAP1 DUP3 PUSH3 0x8F1 JUMP JUMPDEST PUSH1 0x5 SLOAD PUSH3 0x280 SWAP2 SWAP1 PUSH3 0x8CF JUMP JUMPDEST PUSH3 0x28C SWAP2 SWAP1 PUSH3 0x8AC JUMP JUMPDEST PUSH1 0x3 SLOAD PUSH1 0x12 SLOAD PUSH3 0x29E SWAP2 SWAP1 PUSH3 0x8AC JUMP JUMPDEST LT PUSH3 0x32C JUMPI PUSH1 0x40 MLOAD PUSH3 0x461BCD PUSH1 0xE5 SHL DUP2 MSTORE PUSH1 0x20 PUSH1 0x4 DUP3 ADD MSTORE PUSH1 0x50 PUSH1 0x24 DUP3 ADD MSTORE PUSH32 0x6E6F7420656E6F7567682045544820666F72206C69717569646974792C20696E PUSH1 0x44 DUP3 ADD MSTORE PUSH32 0x637265617365206C697374696E67207072696365206F72206465637265617365 PUSH1 0x64 DUP3 ADD MSTORE PUSH16 0x206C6971756964697479207368617265 PUSH1 0x80 SHL PUSH1 0x84 DUP3 ADD MSTORE PUSH1 0xA4 ADD PUSH3 0x13F JUMP JUMPDEST PUSH1 0xC DUP4 SWAP1 SSTORE PUSH1 0x13 DUP1 SLOAD PUSH3 0xFF0000 NOT AND PUSH3 0x10000 DUP8 ISZERO ISZERO MUL OR SWAP1 SSTORE PUSH1 0xA DUP5 SWAP1 SSTORE PUSH1 0x8 SLOAD DUP5 LT PUSH3 0x35A JUMPI PUSH1 0x0 DUP1 REVERT JUMPDEST PUSH1 0x15 PUSH1 0x0 SWAP1 SLOAD SWAP1 PUSH2 0x100 EXP SWAP1 DIV PUSH1 0x1 PUSH1 0x1 PUSH1 0xA0 SHL SUB AND PUSH1 0x1 PUSH1 0x1 PUSH1 0xA0 SHL SUB AND PUSH4 0x2E849894 PUSH1 0x40 MLOAD DUP2 PUSH4 0xFFFFFFFF AND PUSH1 0xE0 SHL DUP2 MSTORE PUSH1 0x4 ADD PUSH1 0x20 PUSH1 0x40 MLOAD DUP1 DUP4 SUB DUP2 DUP7 DUP1 EXTCODESIZE ISZERO DUP1 ISZERO PUSH3 0x3A9 JUMPI PUSH1 0x0 DUP1 REVERT JUMPDEST POP GAS STATICCALL ISZERO DUP1 ISZERO PUSH3 0x3BE JUMPI RETURNDATASIZE PUSH1 0x0 DUP1 RETURNDATACOPY RETURNDATASIZE PUSH1 0x0 REVERT JUMPDEST POP POP POP POP PUSH1 0x40 MLOAD RETURNDATASIZE PUSH1 0x1F NOT PUSH1 0x1F DUP3 ADD AND DUP3 ADD DUP1 PUSH1 0x40 MSTORE POP DUP2 ADD SWAP1 PUSH3 0x3E4 SWAP2 SWAP1 PUSH3 0x833 JUMP JUMPDEST PUSH1 0x19 SSTORE PUSH1 0x13 SLOAD PUSH3 0x10000 SWAP1 DIV PUSH1 0xFF AND ISZERO PUSH3 0x4A4 JUMPI PUSH1 0x15 SLOAD PUSH1 0x19 SLOAD PUSH1 0x40 MLOAD PUSH4 0xB1D2EF9 PUSH1 0xE4 SHL DUP2 MSTORE PUSH1 0x1 PUSH1 0x1 PUSH1 0xA0 SHL SUB SWAP1 SWAP3 AND SWAP2 PUSH4 0xB1D2EF90 SWAP2 PUSH3 0x42F SWAP2 PUSH1 0x4 ADD SWAP1 DUP2 MSTORE PUSH1 0x20 ADD SWAP1 JUMP JUMPDEST PUSH1 0x20 PUSH1 0x40 MLOAD DUP1 DUP4 SUB DUP2 DUP7 DUP1 EXTCODESIZE ISZERO DUP1 ISZERO PUSH3 0x448 JUMPI PUSH1 0x0 DUP1 REVERT JUMPDEST POP GAS STATICCALL ISZERO DUP1 ISZERO PUSH3 0x45D JUMPI RETURNDATASIZE PUSH1 0x0 DUP1 RETURNDATACOPY RETURNDATASIZE PUSH1 0x0 REVERT JUMPDEST POP POP POP POP PUSH1 0x40 MLOAD RETURNDATASIZE PUSH1 0x1F NOT PUSH1 0x1F DUP3 ADD AND DUP3 ADD DUP1 PUSH1 0x40 MSTORE POP DUP2 ADD SWAP1 PUSH3 0x483 SWAP2 SWAP1 PUSH3 0x6E3 JUMP JUMPDEST PUSH1 0x14 DUP1 SLOAD PUSH1 0x1 PUSH1 0x1 PUSH1 0xA0 SHL SUB NOT AND PUSH1 0x1 PUSH1 0x1 PUSH1 0xA0 SHL SUB SWAP3 SWAP1 SWAP3 AND SWAP2 SWAP1 SWAP2 OR SWAP1 SSTORE JUMPDEST PUSH1 0x15 PUSH1 0x0 SWAP1 SLOAD SWAP1 PUSH2 0x100 EXP SWAP1 DIV PUSH1 0x1 PUSH1 0x1 PUSH1 0xA0 SHL SUB AND PUSH1 0x1 PUSH1 0x1 PUSH1 0xA0 SHL SUB AND PUSH4 0x7E44D2CC PUSH1 0x40 MLOAD DUP2 PUSH4 0xFFFFFFFF AND PUSH1 0xE0 SHL DUP2 MSTORE PUSH1 0x4 ADD PUSH1 0x20 PUSH1 0x40 MLOAD DUP1 DUP4 SUB DUP2 DUP7 DUP1 EXTCODESIZE ISZERO DUP1 ISZERO PUSH3 0x4F3 JUMPI PUSH1 0x0 DUP1 REVERT JUMPDEST POP GAS STATICCALL ISZERO DUP1 ISZERO PUSH3 0x508 JUMPI RETURNDATASIZE PUSH1 0x0 DUP1 RETURNDATACOPY RETURNDATASIZE PUSH1 0x0 REVERT JUMPDEST POP POP POP POP PUSH1 0x40 MLOAD RETURNDATASIZE PUSH1 0x1F NOT PUSH1 0x1F DUP3 ADD AND DUP3 ADD DUP1 PUSH1 0x40 MSTORE POP DUP2 ADD SWAP1 PUSH3 0x52E SWAP2 SWAP1 PUSH3 0x6E3 JUMP JUMPDEST PUSH1 0x1C DUP1 SLOAD PUSH1 0x1 PUSH1 0x1 PUSH1 0xA0 SHL SUB NOT SWAP1 DUP2 AND PUSH1 0x1 PUSH1 0x1 PUSH1 0xA0 SHL SUB SWAP4 DUP5 AND OR SWAP1 SWAP2 SSTORE PUSH1 0x1D DUP1 SLOAD DUP3 AND SWAP4 DUP4 AND SWAP4 SWAP1 SWAP4 OR SWAP1 SWAP3 SSTORE PUSH1 0x16 DUP1 SLOAD SWAP1 SWAP3 AND SWAP3 AND SWAP2 SWAP1 SWAP2 OR SWAP1 SSTORE POP PUSH3 0x974 SWAP6 POP POP POP POP POP POP JUMP JUMPDEST DUP3 DUP1 SLOAD PUSH3 0x588 SWAP1 PUSH3 0x90B JUMP JUMPDEST SWAP1 PUSH1 0x0 MSTORE PUSH1 0x20 PUSH1 0x0 KECCAK256 SWAP1 PUSH1 0x1F ADD PUSH1 0x20 SWAP1 DIV DUP2 ADD SWAP3 DUP3 PUSH3 0x5AC JUMPI PUSH1 0x0 DUP6 SSTORE PUSH3 0x5F7 JUMP JUMPDEST DUP3 PUSH1 0x1F LT PUSH3 0x5C7 JUMPI DUP1 MLOAD PUSH1 0xFF NOT AND DUP4 DUP1 ADD OR DUP6 SSTORE PUSH3 0x5F7 JUMP JUMPDEST DUP3 DUP1 ADD PUSH1 0x1 ADD DUP6 SSTORE DUP3 ISZERO PUSH3 0x5F7 JUMPI SWAP2 DUP3 ADD JUMPDEST DUP3 DUP2 GT ISZERO PUSH3 0x5F7 JUMPI DUP3 MLOAD DUP3 SSTORE SWAP2 PUSH1 0x20 ADD SWAP2 SWAP1 PUSH1 0x1 ADD SWAP1 PUSH3 0x5DA JUMP JUMPDEST POP PUSH3 0x605 SWAP3 SWAP2 POP PUSH3 0x609 JUMP JUMPDEST POP SWAP1 JUMP JUMPDEST JUMPDEST DUP1 DUP3 GT ISZERO PUSH3 0x605 JUMPI PUSH1 0x0 DUP2 SSTORE PUSH1 0x1 ADD PUSH3 0x60A JUMP JUMPDEST DUP1 MLOAD PUSH1 0x1 PUSH1 0x1 PUSH1 0xA0 SHL SUB DUP2 AND DUP2 EQ PUSH3 0x638 JUMPI PUSH1 0x0 DUP1 REVERT JUMPDEST SWAP2 SWAP1 POP JUMP JUMPDEST DUP1 MLOAD DUP1 ISZERO ISZERO DUP2 EQ PUSH3 0x638 JUMPI PUSH1 0x0 DUP1 REVERT JUMPDEST PUSH1 0x0 DUP3 PUSH1 0x1F DUP4 ADD SLT PUSH3 0x660 JUMPI PUSH1 0x0 DUP1 REVERT JUMPDEST DUP2 MLOAD PUSH1 0x1 PUSH1 0x1 PUSH1 0x40 SHL SUB DUP2 GT ISZERO PUSH3 0x67C JUMPI PUSH3 0x67C PUSH3 0x95E JUMP JUMPDEST PUSH1 0x20 PUSH3 0x692 PUSH1 0x1F DUP4 ADD PUSH1 0x1F NOT AND DUP3 ADD PUSH3 0x879 JUMP JUMPDEST DUP3 DUP2 MSTORE DUP6 DUP3 DUP5 DUP8 ADD ADD GT ISZERO PUSH3 0x6A7 JUMPI PUSH1 0x0 DUP1 REVERT JUMPDEST PUSH1 0x0 JUMPDEST DUP4 DUP2 LT ISZERO PUSH3 0x6C7 JUMPI DUP6 DUP2 ADD DUP4 ADD MLOAD DUP3 DUP3 ADD DUP5 ADD MSTORE DUP3 ADD PUSH3 0x6AA JUMP JUMPDEST DUP4 DUP2 GT ISZERO PUSH3 0x6D9 JUMPI PUSH1 0x0 DUP4 DUP6 DUP5 ADD ADD MSTORE JUMPDEST POP SWAP6 SWAP5 POP POP POP POP POP JUMP JUMPDEST PUSH1 0x0 PUSH1 0x20 DUP3 DUP5 SUB SLT ISZERO PUSH3 0x6F6 JUMPI PUSH1 0x0 DUP1 REVERT JUMPDEST PUSH3 0x701 DUP3 PUSH3 0x620 JUMP JUMPDEST SWAP4 SWAP3 POP POP POP JUMP JUMPDEST PUSH1 0x0 DUP1 PUSH1 0x0 DUP1 PUSH1 0x0 DUP1 PUSH1 0x0 DUP1 PUSH1 0x0 PUSH2 0x200 DUP11 DUP13 SUB SLT ISZERO PUSH3 0x728 JUMPI PUSH1 0x0 DUP1 REVERT JUMPDEST PUSH3 0x733 DUP11 PUSH3 0x620 JUMP JUMPDEST PUSH1 0x20 DUP12 DUP2 ADD MLOAD SWAP2 SWAP11 POP SWAP1 PUSH1 0x1 PUSH1 0x1 PUSH1 0x40 SHL SUB DUP1 DUP3 GT ISZERO PUSH3 0x753 JUMPI PUSH1 0x0 DUP1 REVERT JUMPDEST PUSH3 0x761 DUP15 DUP4 DUP16 ADD PUSH3 0x64E JUMP JUMPDEST SWAP11 POP PUSH1 0x40 DUP14 ADD MLOAD SWAP2 POP DUP1 DUP3 GT ISZERO PUSH3 0x778 JUMPI PUSH1 0x0 DUP1 REVERT JUMPDEST POP PUSH3 0x787 DUP14 DUP3 DUP15 ADD PUSH3 0x64E JUMP JUMPDEST SWAP9 POP POP DUP12 PUSH1 0x7F DUP13 ADD SLT PUSH3 0x79A JUMPI PUSH1 0x0 DUP1 REVERT JUMPDEST PUSH3 0x7A4 PUSH3 0x84D JUMP JUMPDEST DUP1 PUSH1 0x60 DUP14 ADD PUSH2 0x160 DUP15 ADD DUP16 DUP2 GT ISZERO PUSH3 0x7BC JUMPI PUSH1 0x0 DUP1 REVERT JUMPDEST PUSH1 0x0 JUMPDEST PUSH1 0x8 DUP2 LT ISZERO PUSH3 0x7DE JUMPI DUP3 MLOAD DUP6 MSTORE SWAP4 DUP6 ADD SWAP4 SWAP2 DUP6 ADD SWAP2 PUSH1 0x1 ADD PUSH3 0x7BF JUMP JUMPDEST POP DUP3 SWAP11 POP PUSH3 0x7ED DUP2 PUSH3 0x63D JUMP JUMPDEST SWAP10 POP POP POP POP POP POP PUSH2 0x180 DUP11 ADD MLOAD SWAP4 POP PUSH2 0x1A0 DUP11 ADD MLOAD SWAP3 POP PUSH3 0x813 PUSH2 0x1C0 DUP12 ADD PUSH3 0x620 JUMP JUMPDEST SWAP2 POP PUSH3 0x824 PUSH2 0x1E0 DUP12 ADD PUSH3 0x620 JUMP JUMPDEST SWAP1 POP SWAP3 SWAP6 SWAP9 POP SWAP3 SWAP6 SWAP9 POP SWAP3 SWAP6 SWAP9 JUMP JUMPDEST PUSH1 0x0 PUSH1 0x20 DUP3 DUP5 SUB SLT ISZERO PUSH3 0x846 JUMPI PUSH1 0x0 DUP1 REVERT JUMPDEST POP MLOAD SWAP2 SWAP1 POP JUMP JUMPDEST PUSH1 0x40 MLOAD PUSH2 0x100 DUP2 ADD PUSH1 0x1 PUSH1 0x1 PUSH1 0x40 SHL SUB DUP2 GT DUP3 DUP3 LT OR ISZERO PUSH3 0x873 JUMPI PUSH3 0x873 PUSH3 0x95E JUMP JUMPDEST PUSH1 0x40 MSTORE SWAP1 JUMP JUMPDEST PUSH1 0x40 MLOAD PUSH1 0x1F DUP3 ADD PUSH1 0x1F NOT AND DUP2 ADD PUSH1 0x1 PUSH1 0x1 PUSH1 0x40 SHL SUB DUP2 GT DUP3 DUP3 LT OR ISZERO PUSH3 0x8A4 JUMPI PUSH3 0x8A4 PUSH3 0x95E JUMP JUMPDEST PUSH1 0x40 MSTORE SWAP2 SWAP1 POP JUMP JUMPDEST PUSH1 0x0 DUP3 PUSH3 0x8CA JUMPI PUSH4 0x4E487B71 PUSH1 0xE0 SHL PUSH1 0x0 MSTORE PUSH1 0x12 PUSH1 0x4 MSTORE PUSH1 0x24 PUSH1 0x0 REVERT JUMPDEST POP DIV SWAP1 JUMP JUMPDEST PUSH1 0x0 DUP2 PUSH1 0x0 NOT DIV DUP4 GT DUP3 ISZERO ISZERO AND ISZERO PUSH3 0x8EC JUMPI PUSH3 0x8EC PUSH3 0x948 JUMP JUMPDEST POP MUL SWAP1 JUMP JUMPDEST PUSH1 0x0 DUP3 DUP3 LT ISZERO PUSH3 0x906 JUMPI PUSH3 0x906 PUSH3 0x948 JUMP JUMPDEST POP SUB SWAP1 JUMP JUMPDEST PUSH1 0x1 DUP2 DUP2 SHR SWAP1 DUP3 AND DUP1 PUSH3 0x920 JUMPI PUSH1 0x7F DUP3 AND SWAP2 POP JUMPDEST PUSH1 0x20 DUP3 LT DUP2 EQ ISZERO PUSH3 0x942 JUMPI PUSH4 0x4E487B71 PUSH1 0xE0 SHL PUSH1 0x0 MSTORE PUSH1 0x22 PUSH1 0x4 MSTORE PUSH1 0x24 PUSH1 0x0 REVERT JUMPDEST POP SWAP2 SWAP1 POP JUMP JUMPDEST PUSH4 0x4E487B71 PUSH1 0xE0 SHL PUSH1 0x0 MSTORE PUSH1 0x11 PUSH1 0x4 MSTORE PUSH1 0x24 PUSH1 0x0 REVERT JUMPDEST PUSH4 0x4E487B71 PUSH1 0xE0 SHL PUSH1 0x0 MSTORE PUSH1 0x41 PUSH1 0x4 MSTORE PUSH1 0x24 PUSH1 0x0 REVERT JUMPDEST PUSH2 0x219B DUP1 PUSH3 0x984 PUSH1 0x0 CODECOPY PUSH1 0x0 RETURN INVALID PUSH1 0x80 PUSH1 0x40 MSTORE PUSH1 0x4 CALLDATASIZE LT PUSH2 0x313 JUMPI PUSH1 0x0 CALLDATALOAD PUSH1 0xE0 SHR DUP1 PUSH4 0x8F5D036B GT PUSH2 0x19A JUMPI DUP1 PUSH4 0xC7BF5166 GT PUSH2 0xE1 JUMPI DUP1 PUSH4 0xE49DCE66 GT PUSH2 0x8A JUMPI DUP1 PUSH4 0xF887EA40 GT PUSH2 0x64 JUMPI DUP1 PUSH4 0xF887EA40 EQ PUSH2 0x803 JUMPI DUP1 PUSH4 0xF89BE593 EQ PUSH2 0x823 JUMPI DUP1 PUSH4 0xFC0C546A EQ PUSH2 0x839 JUMPI PUSH1 0x0 DUP1 REVERT JUMPDEST DUP1 PUSH4 0xE49DCE66 EQ PUSH2 0x7AD JUMPI DUP1 PUSH4 0xEA44C1BC EQ PUSH2 0x7CD JUMPI DUP1 PUSH4 0xEE97F7F3 EQ PUSH2 0x7E3 JUMPI PUSH1 0x0 DUP1 REVERT JUMPDEST DUP1 PUSH4 0xD4B9DE51 GT PUSH2 0xBB JUMPI DUP1 PUSH4 0xD4B9DE51 EQ PUSH2 0x767 JUMPI DUP1 PUSH4 0xDA2CBD50 EQ PUSH2 0x781 JUMPI DUP1 PUSH4 0xDE284B3A EQ PUSH2 0x797 JUMPI PUSH1 0x0 DUP1 REVERT JUMPDEST DUP1 PUSH4 0xC7BF5166 EQ PUSH2 0x726 JUMPI DUP1 PUSH4 0xC84C0387 EQ PUSH2 0x73C JUMPI DUP1 PUSH4 0xD132A8F4 EQ PUSH2 0x752 JUMPI PUSH1 0x0 DUP1 REVERT JUMPDEST DUP1 PUSH4 0xA7BB5803 GT PUSH2 0x143 JUMPI DUP1 PUSH4 0xBCA1DA85 GT PUSH2 0x11D JUMPI DUP1 PUSH4 0xBCA1DA85 EQ PUSH2 0x6D0 JUMPI DUP1 PUSH4 0xBE9FEB30 EQ PUSH2 0x6F0 JUMPI DUP1 PUSH4 0xC45A0155 EQ PUSH2 0x706 JUMPI PUSH1 0x0 DUP1 REVERT JUMPDEST DUP1 PUSH4 0xA7BB5803 EQ PUSH2 0x666 JUMPI DUP1 PUSH4 0xABA83150 EQ PUSH2 0x6A5 JUMPI DUP1 PUSH4 0xB071CBE6 EQ PUSH2 0x6BA JUMPI PUSH1 0x0 DUP1 REVERT JUMPDEST DUP1 PUSH4 0xA0F7AB35 GT PUSH2 0x174 JUMPI DUP1 PUSH4 0xA0F7AB35 EQ PUSH2 0x620 JUMPI DUP1 PUSH4 0xA5F0DEA2 EQ PUSH2 0x636 JUMPI DUP1 PUSH4 0xA611DC37 EQ PUSH2 0x650 JUMPI PUSH1 0x0 DUP1 REVERT JUMPDEST DUP1 PUSH4 0x8F5D036B EQ PUSH2 0x5E4 JUMPI DUP1 PUSH4 0x957F1474 EQ PUSH2 0x5F9 JUMPI DUP1 PUSH4 0x9B8906AE EQ PUSH2 0x601 JUMPI PUSH1 0x0 DUP1 REVERT JUMPDEST DUP1 PUSH4 0x51FB012D GT PUSH2 0x25E JUMPI DUP1 PUSH4 0x6B7F3DF3 GT PUSH2 0x207 JUMPI DUP1 PUSH4 0x78E97925 GT PUSH2 0x1E1 JUMPI DUP1 PUSH4 0x78E97925 EQ PUSH2 0x599 JUMPI DUP1 PUSH4 0x83B17FDD EQ PUSH2 0x5AF JUMPI DUP1 PUSH4 0x85BF4946 EQ PUSH2 0x5C5 JUMPI PUSH1 0x0 DUP1 REVERT JUMPDEST DUP1 PUSH4 0x6B7F3DF3 EQ PUSH2 0x534 JUMPI DUP1 PUSH4 0x6EF2E4D3 EQ PUSH2 0x561 JUMPI DUP1 PUSH4 0x7284E416 EQ PUSH2 0x577 JUMPI PUSH1 0x0 DUP1 REVERT JUMPDEST DUP1 PUSH4 0x5C975ABB GT PUSH2 0x238 JUMPI DUP1 PUSH4 0x5C975ABB EQ PUSH2 0x4DC JUMPI DUP1 PUSH4 0x64DB812E EQ PUSH2 0x4F4 JUMPI DUP1 PUSH4 0x66D003AC EQ PUSH2 0x514 JUMPI PUSH1 0x0 DUP1 REVERT JUMPDEST DUP1 PUSH4 0x51FB012D EQ PUSH2 0x484 JUMPI DUP1 PUSH4 0x58A687EC EQ PUSH2 0x4B4 JUMPI DUP1 PUSH4 0x59663174 EQ PUSH2 0x4C9 JUMPI PUSH1 0x0 DUP1 REVERT JUMPDEST DUP1 PUSH4 0x27A72C96 GT PUSH2 0x2C0 JUMPI DUP1 PUSH4 0x3C876081 GT PUSH2 0x29A JUMPI DUP1 PUSH4 0x3C876081 EQ PUSH2 0x424 JUMPI DUP1 PUSH4 0x48C54B9D EQ PUSH2 0x459 JUMPI DUP1 PUSH4 0x4AE01D52 EQ PUSH2 0x46E JUMPI PUSH1 0x0 DUP1 REVERT JUMPDEST DUP1 PUSH4 0x27A72C96 EQ PUSH2 0x3D1 JUMPI DUP1 PUSH4 0x27C8F835 EQ PUSH2 0x3E7 JUMPI DUP1 PUSH4 0x3197CBB6 EQ PUSH2 0x40E JUMPI PUSH1 0x0 DUP1 REVERT JUMPDEST DUP1 PUSH4 0x12E409C5 GT PUSH2 0x2F1 JUMPI DUP1 PUSH4 0x12E409C5 EQ PUSH2 0x36E JUMPI DUP1 PUSH4 0x201A3419 EQ PUSH2 0x384 JUMPI DUP1 PUSH4 0x238AC933 EQ PUSH2 0x399 JUMPI PUSH1 0x0 DUP1 REVERT JUMPDEST DUP1 PUSH4 0x17F6FAE EQ PUSH2 0x318 JUMPI DUP1 PUSH4 0x39CE157 EQ PUSH2 0x341 JUMPI DUP1 PUSH4 0x3BCF11D EQ PUSH2 0x357 JUMPI JUMPDEST PUSH1 0x0 DUP1 REVERT JUMPDEST CALLVALUE DUP1 ISZERO PUSH2 0x324 JUMPI PUSH1 0x0 DUP1 REVERT JUMPDEST POP PUSH2 0x32E PUSH1 0x7 SLOAD DUP2 JUMP JUMPDEST PUSH1 0x40 MLOAD SWAP1 DUP2 MSTORE PUSH1 0x20 ADD JUMPDEST PUSH1 0x40 MLOAD DUP1 SWAP2 SUB SWAP1 RETURN JUMPDEST CALLVALUE DUP1 ISZERO PUSH2 0x34D JUMPI PUSH1 0x0 DUP1 REVERT JUMPDEST POP PUSH2 0x32E PUSH1 0x11 SLOAD DUP2 JUMP JUMPDEST CALLVALUE DUP1 ISZERO PUSH2 0x363 JUMPI PUSH1 0x0 DUP1 REVERT JUMPDEST POP PUSH2 0x36C PUSH2 0x859 JUMP JUMPDEST STOP JUMPDEST CALLVALUE DUP1 ISZERO PUSH2 0x37A JUMPI PUSH1 0x0 DUP1 REVERT JUMPDEST POP PUSH2 0x32E PUSH1 0x10 SLOAD DUP2 JUMP JUMPDEST CALLVALUE DUP1 ISZERO PUSH2 0x390 JUMPI PUSH1 0x0 DUP1 REVERT JUMPDEST POP PUSH2 0x36C PUSH2 0x97C JUMP JUMPDEST CALLVALUE DUP1 ISZERO PUSH2 0x3A5 JUMPI PUSH1 0x0 DUP1 REVERT JUMPDEST POP PUSH1 0x14 SLOAD PUSH2 0x3B9 SWAP1 PUSH1 0x1 PUSH1 0x1 PUSH1 0xA0 SHL SUB AND DUP2 JUMP JUMPDEST PUSH1 0x40 MLOAD PUSH1 0x1 PUSH1 0x1 PUSH1 0xA0 SHL SUB SWAP1 SWAP2 AND DUP2 MSTORE PUSH1 0x20 ADD PUSH2 0x338 JUMP JUMPDEST CALLVALUE DUP1 ISZERO PUSH2 0x3DD JUMPI PUSH1 0x0 DUP1 REVERT JUMPDEST POP PUSH2 0x32E PUSH1 0xE SLOAD DUP2 JUMP JUMPDEST CALLVALUE DUP1 ISZERO PUSH2 0x3F3 JUMPI PUSH1 0x0 DUP1 REVERT JUMPDEST POP PUSH1 0x13 SLOAD PUSH2 0x3B9 SWAP1 PUSH4 0x1000000 SWAP1 DIV PUSH1 0x1 PUSH1 0x1 PUSH1 0xA0 SHL SUB AND DUP2 JUMP JUMPDEST CALLVALUE DUP1 ISZERO PUSH2 0x41A JUMPI PUSH1 0x0 DUP1 REVERT JUMPDEST POP PUSH2 0x32E PUSH1 0x9 SLOAD DUP2 JUMP JUMPDEST CALLVALUE DUP1 ISZERO PUSH2 0x430 JUMPI PUSH1 0x0 DUP1 REVERT JUMPDEST POP PUSH2 0x3B9 PUSH2 0x43F CALLDATASIZE PUSH1 0x4 PUSH2 0x1EF2 JUMP JUMPDEST PUSH1 0x20 DUP1 MSTORE PUSH1 0x0 SWAP1 DUP2 MSTORE PUSH1 0x40 SWAP1 KECCAK256 SLOAD PUSH1 0x1 PUSH1 0x1 PUSH1 0xA0 SHL SUB AND DUP2 JUMP JUMPDEST CALLVALUE DUP1 ISZERO PUSH2 0x465 JUMPI PUSH1 0x0 DUP1 REVERT JUMPDEST POP PUSH2 0x36C PUSH2 0xE76 JUMP JUMPDEST CALLVALUE DUP1 ISZERO PUSH2 0x47A JUMPI PUSH1 0x0 DUP1 REVERT JUMPDEST POP PUSH2 0x32E PUSH1 0xC SLOAD DUP2 JUMP JUMPDEST CALLVALUE DUP1 ISZERO PUSH2 0x490 JUMPI PUSH1 0x0 DUP1 REVERT JUMPDEST POP PUSH1 0x13 SLOAD PUSH2 0x4A4 SWAP1 PUSH3 0x10000 SWAP1 DIV PUSH1 0xFF AND DUP2 JUMP JUMPDEST PUSH1 0x40 MLOAD SWAP1 ISZERO ISZERO DUP2 MSTORE PUSH1 0x20 ADD PUSH2 0x338 JUMP JUMPDEST CALLVALUE DUP1 ISZERO PUSH2 0x4C0 JUMPI PUSH1 0x0 DUP1 REVERT JUMPDEST POP PUSH2 0x36C PUSH2 0x1106 JUMP JUMPDEST PUSH2 0x36C PUSH2 0x4D7 CALLDATASIZE PUSH1 0x4 PUSH2 0x1F55 JUMP JUMPDEST PUSH2 0x12AD JUMP JUMPDEST CALLVALUE DUP1 ISZERO PUSH2 0x4E8 JUMPI PUSH1 0x0 DUP1 REVERT JUMPDEST POP PUSH1 0x1 SLOAD PUSH1 0xFF AND PUSH2 0x4A4 JUMP JUMPDEST CALLVALUE DUP1 ISZERO PUSH2 0x500 JUMPI PUSH1 0x0 DUP1 REVERT JUMPDEST POP PUSH1 0x1F SLOAD PUSH2 0x4A4 SWAP1 PUSH3 0x10000 SWAP1 DIV PUSH1 0xFF AND DUP2 JUMP JUMPDEST CALLVALUE DUP1 ISZERO PUSH2 0x520 JUMPI PUSH1 0x0 DUP1 REVERT JUMPDEST POP PUSH1 0x1C SLOAD PUSH2 0x3B9 SWAP1 PUSH1 0x1 PUSH1 0x1 PUSH1 0xA0 SHL SUB AND DUP2 JUMP JUMPDEST CALLVALUE DUP1 ISZERO PUSH2 0x540 JUMPI PUSH1 0x0 DUP1 REVERT JUMPDEST POP PUSH2 0x32E PUSH2 0x54F CALLDATASIZE PUSH1 0x4 PUSH2 0x1EF2 JUMP JUMPDEST PUSH1 0x21 PUSH1 0x20 MSTORE PUSH1 0x0 SWAP1 DUP2 MSTORE PUSH1 0x40 SWAP1 KECCAK256 SLOAD DUP2 JUMP JUMPDEST CALLVALUE DUP1 ISZERO PUSH2 0x56D JUMPI PUSH1 0x0 DUP1 REVERT JUMPDEST POP PUSH2 0x32E PUSH1 0x12 SLOAD DUP2 JUMP JUMPDEST CALLVALUE DUP1 ISZERO PUSH2 0x583 JUMPI PUSH1 0x0 DUP1 REVERT JUMPDEST POP PUSH2 0x58C PUSH2 0x16A4 JUMP JUMPDEST PUSH1 0x40 MLOAD PUSH2 0x338 SWAP2 SWAP1 PUSH2 0x2038 JUMP JUMPDEST CALLVALUE DUP1 ISZERO PUSH2 0x5A5 JUMPI PUSH1 0x0 DUP1 REVERT JUMPDEST POP PUSH2 0x32E PUSH1 0x8 SLOAD DUP2 JUMP JUMPDEST CALLVALUE DUP1 ISZERO PUSH2 0x5BB JUMPI PUSH1 0x0 DUP1 REVERT JUMPDEST POP PUSH2 0x32E PUSH1 0x2 SLOAD DUP2 JUMP JUMPDEST CALLVALUE DUP1 ISZERO PUSH2 0x5D1 JUMPI PUSH1 0x0 DUP1 REVERT JUMPDEST POP PUSH1 0x13 SLOAD PUSH2 0x4A4 SWAP1 PUSH2 0x100 SWAP1 DIV PUSH1 0xFF AND DUP2 JUMP JUMPDEST CALLVALUE DUP1 ISZERO PUSH2 0x5F0 JUMPI PUSH1 0x0 DUP1 REVERT JUMPDEST POP PUSH2 0x36C PUSH2 0x1732 JUMP JUMPDEST PUSH2 0x36C PUSH2 0x185D JUMP JUMPDEST CALLVALUE DUP1 ISZERO PUSH2 0x60D JUMPI PUSH1 0x0 DUP1 REVERT JUMPDEST POP PUSH1 0x1F SLOAD PUSH2 0x4A4 SWAP1 PUSH2 0x100 SWAP1 DIV PUSH1 0xFF AND DUP2 JUMP JUMPDEST CALLVALUE DUP1 ISZERO PUSH2 0x62C JUMPI PUSH1 0x0 DUP1 REVERT JUMPDEST POP PUSH2 0x32E PUSH1 0x3 SLOAD DUP2 JUMP JUMPDEST CALLVALUE DUP1 ISZERO PUSH2 0x642 JUMPI PUSH1 0x0 DUP1 REVERT JUMPDEST POP PUSH1 0x1F SLOAD PUSH2 0x4A4 SWAP1 PUSH1 0xFF AND DUP2 JUMP JUMPDEST CALLVALUE DUP1 ISZERO PUSH2 0x65C JUMPI PUSH1 0x0 DUP1 REVERT JUMPDEST POP PUSH2 0x32E PUSH1 0x4 SLOAD DUP2 JUMP JUMPDEST CALLVALUE DUP1 ISZERO PUSH2 0x672 JUMPI PUSH1 0x0 DUP1 REVERT JUMPDEST POP PUSH2 0x686 PUSH2 0x681 CALLDATASIZE PUSH1 0x4 PUSH2 0x1F55 JUMP JUMPDEST PUSH2 0x1C3C JUMP JUMPDEST PUSH1 0x40 DUP1 MLOAD PUSH1 0xFF SWAP1 SWAP5 AND DUP5 MSTORE PUSH1 0x20 DUP5 ADD SWAP3 SWAP1 SWAP3 MSTORE SWAP1 DUP3 ADD MSTORE PUSH1 0x60 ADD PUSH2 0x338 JUMP JUMPDEST CALLVALUE DUP1 ISZERO PUSH2 0x6B1 JUMPI PUSH1 0x0 DUP1 REVERT JUMPDEST POP PUSH2 0x58C PUSH2 0x1C6B JUMP JUMPDEST CALLVALUE DUP1 ISZERO PUSH2 0x6C6 JUMPI PUSH1 0x0 DUP1 REVERT JUMPDEST POP PUSH2 0x32E PUSH1 0x5 SLOAD DUP2 JUMP JUMPDEST CALLVALUE DUP1 ISZERO PUSH2 0x6DC JUMPI PUSH1 0x0 DUP1 REVERT JUMPDEST POP PUSH1 0x1D SLOAD PUSH2 0x3B9 SWAP1 PUSH1 0x1 PUSH1 0x1 PUSH1 0xA0 SHL SUB AND DUP2 JUMP JUMPDEST CALLVALUE DUP1 ISZERO PUSH2 0x6FC JUMPI PUSH1 0x0 DUP1 REVERT JUMPDEST POP PUSH2 0x32E PUSH1 0xA SLOAD DUP2 JUMP JUMPDEST CALLVALUE DUP1 ISZERO PUSH2 0x712 JUMPI PUSH1 0x0 DUP1 REVERT JUMPDEST POP PUSH1 0x17 SLOAD PUSH2 0x3B9 SWAP1 PUSH1 0x1 PUSH1 0x1 PUSH1 0xA0 SHL SUB AND DUP2 JUMP JUMPDEST CALLVALUE DUP1 ISZERO PUSH2 0x732 JUMPI PUSH1 0x0 DUP1 REVERT JUMPDEST POP PUSH2 0x32E PUSH1 0xB SLOAD DUP2 JUMP JUMPDEST CALLVALUE DUP1 ISZERO PUSH2 0x748 JUMPI PUSH1 0x0 DUP1 REVERT JUMPDEST POP PUSH2 0x32E PUSH1 0x19 SLOAD DUP2 JUMP JUMPDEST CALLVALUE DUP1 ISZERO PUSH2 0x75E JUMPI PUSH1 0x0 DUP1 REVERT JUMPDEST POP PUSH2 0x32E PUSH2 0x1C78 JUMP JUMPDEST CALLVALUE DUP1 ISZERO PUSH2 0x773 JUMPI PUSH1 0x0 DUP1 REVERT JUMPDEST POP PUSH1 0x13 SLOAD PUSH2 0x4A4 SWAP1 PUSH1 0xFF AND DUP2 JUMP JUMPDEST CALLVALUE DUP1 ISZERO PUSH2 0x78D JUMPI PUSH1 0x0 DUP1 REVERT JUMPDEST POP PUSH2 0x32E PUSH1 0x1E SLOAD DUP2 JUMP JUMPDEST CALLVALUE DUP1 ISZERO PUSH2 0x7A3 JUMPI PUSH1 0x0 DUP1 REVERT JUMPDEST POP PUSH2 0x32E PUSH1 0xF SLOAD DUP2 JUMP JUMPDEST CALLVALUE DUP1 ISZERO PUSH2 0x7B9 JUMPI PUSH1 0x0 DUP1 REVERT JUMPDEST POP PUSH2 0x4A4 PUSH2 0x7C8 CALLDATASIZE PUSH1 0x4 PUSH2 0x1F92 JUMP JUMPDEST PUSH2 0x1C8F JUMP JUMPDEST CALLVALUE DUP1 ISZERO PUSH2 0x7D9 JUMPI PUSH1 0x0 DUP1 REVERT JUMPDEST POP PUSH2 0x32E PUSH1 0xD SLOAD DUP2 JUMP JUMPDEST CALLVALUE DUP1 ISZERO PUSH2 0x7EF JUMPI PUSH1 0x0 DUP1 REVERT JUMPDEST POP PUSH1 0x15 SLOAD PUSH2 0x3B9 SWAP1 PUSH1 0x1 PUSH1 0x1 PUSH1 0xA0 SHL SUB AND DUP2 JUMP JUMPDEST CALLVALUE DUP1 ISZERO PUSH2 0x80F JUMPI PUSH1 0x0 DUP1 REVERT JUMPDEST POP PUSH1 0x16 SLOAD PUSH2 0x3B9 SWAP1 PUSH1 0x1 PUSH1 0x1 PUSH1 0xA0 SHL SUB AND DUP2 JUMP JUMPDEST CALLVALUE DUP1 ISZERO PUSH2 0x82F JUMPI PUSH1 0x0 DUP1 REVERT JUMPDEST POP PUSH2 0x32E PUSH1 0x6 SLOAD DUP2 JUMP JUMPDEST CALLVALUE DUP1 ISZERO PUSH2 0x845 JUMPI PUSH1 0x0 DUP1 REVERT JUMPDEST POP PUSH1 0x18 SLOAD PUSH2 0x3B9 SWAP1 PUSH1 0x1 PUSH1 0x1 PUSH1 0xA0 SHL SUB AND DUP2 JUMP JUMPDEST PUSH1 0x1D SLOAD PUSH1 0x1 PUSH1 0x1 PUSH1 0xA0 SHL SUB AND CALLER EQ PUSH2 0x8B8 JUMPI PUSH1 0x40 MLOAD PUSH3 0x461BCD PUSH1 0xE5 SHL DUP2 MSTORE PUSH1 0x20 PUSH1 0x4 DUP3 ADD MSTORE PUSH1 0x1B PUSH1 0x24 DUP3 ADD MSTORE PUSH32 0x63616C6C6572206973206E6F742074686520696E69746961746F720000000000 PUSH1 0x44 DUP3 ADD MSTORE PUSH1 0x64 ADD JUMPDEST PUSH1 0x40 MLOAD DUP1 SWAP2 SUB SWAP1 REVERT JUMPDEST PUSH1 0x1F SLOAD PUSH2 0x100 SWAP1 DIV PUSH1 0xFF AND ISZERO PUSH2 0x910 JUMPI PUSH1 0x40 MLOAD PUSH3 0x461BCD PUSH1 0xE5 SHL DUP2 MSTORE PUSH1 0x20 PUSH1 0x4 DUP3 ADD MSTORE PUSH1 0x1C PUSH1 0x24 DUP3 ADD MSTORE PUSH32 0x636C61696D696E672068617320616C7265616479207374617274656400000000 PUSH1 0x44 DUP3 ADD MSTORE PUSH1 0x64 ADD PUSH2 0x8AF JUMP JUMPDEST PUSH1 0x1F SLOAD PUSH3 0x10000 SWAP1 DIV PUSH1 0xFF AND ISZERO PUSH2 0x969 JUMPI PUSH1 0x40 MLOAD PUSH3 0x461BCD PUSH1 0xE5 SHL DUP2 MSTORE PUSH1 0x20 PUSH1 0x4 DUP3 ADD MSTORE PUSH1 0x14 PUSH1 0x24 DUP3 ADD MSTORE PUSH32 0x73616C6520616C72656164792061626F72746564000000000000000000000000 PUSH1 0x44 DUP3 ADD MSTORE PUSH1 0x64 ADD PUSH2 0x8AF JUMP JUMPDEST PUSH1 0x1F DUP1 SLOAD PUSH3 0xFF0000 NOT AND PUSH3 0x10000 OR SWAP1 SSTORE JUMP JUMPDEST PUSH1 0x1D SLOAD PUSH1 0x1 PUSH1 0x1 PUSH1 0xA0 SHL SUB AND CALLER EQ PUSH2 0x9D6 JUMPI PUSH1 0x40 MLOAD PUSH3 0x461BCD PUSH1 0xE5 SHL DUP2 MSTORE PUSH1 0x20 PUSH1 0x4 DUP3 ADD MSTORE PUSH1 0x1B PUSH1 0x24 DUP3 ADD MSTORE PUSH32 0x63616C6C6572206973206E6F742074686520696E69746961746F720000000000 PUSH1 0x44 DUP3 ADD MSTORE PUSH1 0x64 ADD PUSH2 0x8AF JUMP JUMPDEST PUSH1 0x2 PUSH1 0x0 SLOAD EQ ISZERO PUSH2 0xA29 JUMPI PUSH1 0x40 MLOAD PUSH3 0x461BCD PUSH1 0xE5 SHL DUP2 MSTORE PUSH1 0x20 PUSH1 0x4 DUP3 ADD MSTORE PUSH1 0x1F PUSH1 0x24 DUP3 ADD MSTORE PUSH32 0x5265656E7472616E637947756172643A207265656E7472616E742063616C6C00 PUSH1 0x44 DUP3 ADD MSTORE PUSH1 0x64 ADD PUSH2 0x8AF JUMP JUMPDEST PUSH1 0x2 PUSH1 0x0 SSTORE PUSH1 0x1F SLOAD PUSH3 0x10000 SWAP1 DIV PUSH1 0xFF AND ISZERO PUSH2 0xA7A JUMPI PUSH1 0x40 MLOAD PUSH3 0x461BCD PUSH1 0xE5 SHL DUP2 MSTORE PUSH1 0x20 PUSH1 0x4 DUP3 ADD MSTORE PUSH1 0x10 PUSH1 0x24 DUP3 ADD MSTORE PUSH16 0x1CD85B19481DD85CC818589BDC9D1959 PUSH1 0x82 SHL PUSH1 0x44 DUP3 ADD MSTORE PUSH1 0x64 ADD PUSH2 0x8AF JUMP JUMPDEST PUSH1 0x1F SLOAD PUSH1 0xFF AND PUSH2 0xACC JUMPI PUSH1 0x40 MLOAD PUSH3 0x461BCD PUSH1 0xE5 SHL DUP2 MSTORE PUSH1 0x20 PUSH1 0x4 DUP3 ADD MSTORE PUSH1 0x15 PUSH1 0x24 DUP3 ADD MSTORE PUSH32 0x73616C65207761736E27742066696E616C697A65640000000000000000000000 PUSH1 0x44 DUP3 ADD MSTORE PUSH1 0x64 ADD PUSH2 0x8AF JUMP JUMPDEST PUSH1 0x6 SLOAD PUSH1 0x1E SLOAD GT PUSH2 0xB1F JUMPI PUSH1 0x40 MLOAD PUSH3 0x461BCD PUSH1 0xE5 SHL DUP2 MSTORE PUSH1 0x20 PUSH1 0x4 DUP3 ADD MSTORE PUSH1 0x1B PUSH1 0x24 DUP3 ADD MSTORE PUSH32 0x6E6F7420656E6F75676820746F6B656E73207765726520736F6C640000000000 PUSH1 0x44 DUP3 ADD MSTORE PUSH1 0x64 ADD PUSH2 0x8AF JUMP JUMPDEST PUSH1 0x1F SLOAD PUSH2 0x100 SWAP1 DIV PUSH1 0xFF AND ISZERO PUSH2 0xB77 JUMPI PUSH1 0x40 MLOAD PUSH3 0x461BCD PUSH1 0xE5 SHL DUP2 MSTORE PUSH1 0x20 PUSH1 0x4 DUP3 ADD MSTORE PUSH1 0x16 PUSH1 0x24 DUP3 ADD MSTORE PUSH32 0x73616C652077617320616C726561647920656E64656400000000000000000000 PUSH1 0x44 DUP3 ADD MSTORE PUSH1 0x64 ADD PUSH2 0x8AF JUMP JUMPDEST PUSH1 0x1F DUP1 SLOAD PUSH2 0xFF00 NOT AND PUSH2 0x100 OR SWAP1 SSTORE PUSH1 0x3 SLOAD PUSH1 0x0 SWAP1 PUSH2 0xB94 PUSH2 0x1C78 JUMP JUMPDEST PUSH2 0xB9E SWAP2 SWAP1 PUSH2 0x20A5 JUMP JUMPDEST SWAP1 POP PUSH1 0x0 PUSH1 0x5 SLOAD PUSH1 0x1E SLOAD PUSH1 0x12 SLOAD PUSH2 0xBB5 SWAP2 SWAP1 PUSH2 0x20C7 JUMP JUMPDEST PUSH2 0xBBF SWAP2 SWAP1 PUSH2 0x20A5 JUMP JUMPDEST PUSH1 0x18 SLOAD PUSH1 0x16 SLOAD PUSH1 0x40 MLOAD PUSH4 0x95EA7B3 PUSH1 0xE0 SHL DUP2 MSTORE PUSH1 0x1 PUSH1 0x1 PUSH1 0xA0 SHL SUB SWAP2 DUP3 AND PUSH1 0x4 DUP3 ADD MSTORE PUSH1 0x24 DUP2 ADD DUP5 SWAP1 MSTORE SWAP3 SWAP4 POP AND SWAP1 PUSH4 0x95EA7B3 SWAP1 PUSH1 0x44 ADD PUSH1 0x20 PUSH1 0x40 MLOAD DUP1 DUP4 SUB DUP2 PUSH1 0x0 DUP8 DUP1 EXTCODESIZE ISZERO DUP1 ISZERO PUSH2 0xC11 JUMPI PUSH1 0x0 DUP1 REVERT JUMPDEST POP GAS CALL ISZERO DUP1 ISZERO PUSH2 0xC25 JUMPI RETURNDATASIZE PUSH1 0x0 DUP1 RETURNDATACOPY RETURNDATASIZE PUSH1 0x0 REVERT JUMPDEST POP POP POP POP PUSH1 0x40 MLOAD RETURNDATASIZE PUSH1 0x1F NOT PUSH1 0x1F DUP3 ADD AND DUP3 ADD DUP1 PUSH1 0x40 MSTORE POP DUP2 ADD SWAP1 PUSH2 0xC49 SWAP2 SWAP1 PUSH2 0x1F33 JUMP JUMPDEST POP PUSH1 0x16 SLOAD PUSH1 0x18 SLOAD PUSH1 0x1 PUSH1 0x1 PUSH1 0xA0 SHL SUB SWAP2 DUP3 AND SWAP2 PUSH4 0xF305D719 SWAP2 DUP6 SWAP2 AND DUP5 PUSH1 0x0 DUP1 ADDRESS PUSH2 0xC76 TIMESTAMP PUSH2 0x3E8 PUSH2 0x208D JUMP JUMPDEST PUSH1 0x40 MLOAD PUSH1 0xE0 DUP10 SWAP1 SHL PUSH32 0xFFFFFFFF00000000000000000000000000000000000000000000000000000000 AND DUP2 MSTORE PUSH1 0x1 PUSH1 0x1 PUSH1 0xA0 SHL SUB SWAP7 DUP8 AND PUSH1 0x4 DUP3 ADD MSTORE PUSH1 0x24 DUP2 ADD SWAP6 SWAP1 SWAP6 MSTORE PUSH1 0x44 DUP6 ADD SWAP4 SWAP1 SWAP4 MSTORE PUSH1 0x64 DUP5 ADD SWAP2 SWAP1 SWAP2 MSTORE SWAP1 SWAP3 AND PUSH1 0x84 DUP3 ADD MSTORE PUSH1 0xA4 DUP2 ADD SWAP2 SWAP1 SWAP2 MSTORE PUSH1 0xC4 ADD PUSH1 0x60 PUSH1 0x40 MLOAD DUP1 DUP4 SUB DUP2 DUP6 DUP9 DUP1 EXTCODESIZE ISZERO DUP1 ISZERO PUSH2 0xCF6 JUMPI PUSH1 0x0 DUP1 REVERT JUMPDEST POP GAS CALL ISZERO DUP1 ISZERO PUSH2 0xD0A JUMPI RETURNDATASIZE PUSH1 0x0 DUP1 RETURNDATACOPY RETURNDATASIZE PUSH1 0x0 REVERT JUMPDEST POP POP POP POP POP PUSH1 0x40 MLOAD RETURNDATASIZE PUSH1 0x1F NOT PUSH1 0x1F DUP3 ADD AND DUP3 ADD DUP1 PUSH1 0x40 MSTORE POP DUP2 ADD SWAP1 PUSH2 0xD2F SWAP2 SWAP1 PUSH2 0x200A JUMP JUMPDEST POP POP PUSH1 0x15 SLOAD PUSH1 0x40 DUP1 MLOAD PUSH4 0x1F9134B3 PUSH1 0xE2 SHL DUP2 MSTORE SWAP1 MLOAD PUSH1 0x1 PUSH1 0x1 PUSH1 0xA0 SHL SUB SWAP1 SWAP3 AND SWAP3 POP PUSH4 0x7E44D2CC SWAP2 PUSH1 0x4 DUP1 DUP4 ADD SWAP3 PUSH1 0x20 SWAP3 SWAP2 SWAP1 DUP3 SWAP1 SUB ADD DUP2 DUP7 DUP1 EXTCODESIZE ISZERO DUP1 ISZERO PUSH2 0xD76 JUMPI PUSH1 0x0 DUP1 REVERT JUMPDEST POP GAS STATICCALL ISZERO DUP1 ISZERO PUSH2 0xD8A JUMPI RETURNDATASIZE PUSH1 0x0 DUP1 RETURNDATACOPY RETURNDATASIZE PUSH1 0x0 REVERT JUMPDEST POP POP POP POP PUSH1 0x40 MLOAD RETURNDATASIZE PUSH1 0x1F NOT PUSH1 0x1F DUP3 ADD AND DUP3 ADD DUP1 PUSH1 0x40 MSTORE POP DUP2 ADD SWAP1 PUSH2 0xDAE SWAP2 SWAP1 PUSH2 0x1F16 JUMP JUMPDEST PUSH1 0x1 PUSH1 0x1 PUSH1 0xA0 SHL SUB AND PUSH2 0x2710 PUSH1 0x7 SLOAD PUSH1 0x1E SLOAD PUSH2 0xDCA SWAP2 SWAP1 PUSH2 0x20C7 JUMP JUMPDEST PUSH2 0xDD4 SWAP2 SWAP1 PUSH2 0x20A5 JUMP JUMPDEST PUSH1 0x40 MLOAD PUSH1 0x0 DUP2 DUP2 DUP2 DUP6 DUP8 GAS CALL SWAP3 POP POP POP RETURNDATASIZE DUP1 PUSH1 0x0 DUP2 EQ PUSH2 0xE10 JUMPI PUSH1 0x40 MLOAD SWAP2 POP PUSH1 0x1F NOT PUSH1 0x3F RETURNDATASIZE ADD AND DUP3 ADD PUSH1 0x40 MSTORE RETURNDATASIZE DUP3 MSTORE RETURNDATASIZE PUSH1 0x0 PUSH1 0x20 DUP5 ADD RETURNDATACOPY PUSH2 0xE15 JUMP JUMPDEST PUSH1 0x60 SWAP2 POP JUMPDEST POP POP PUSH1 0x1D SLOAD PUSH1 0x40 MLOAD PUSH1 0x1 PUSH1 0x1 PUSH1 0xA0 SHL SUB SWAP1 SWAP2 AND SWAP2 POP SELFBALANCE SWAP1 PUSH1 0x0 DUP2 DUP2 DUP2 DUP6 DUP8 GAS CALL SWAP3 POP POP POP RETURNDATASIZE DUP1 PUSH1 0x0 DUP2 EQ PUSH2 0xE65 JUMPI PUSH1 0x40 MLOAD SWAP2 POP PUSH1 0x1F NOT PUSH1 0x3F RETURNDATASIZE ADD AND DUP3 ADD PUSH1 0x40 MSTORE RETURNDATASIZE DUP3 MSTORE RETURNDATASIZE PUSH1 0x0 PUSH1 0x20 DUP5 ADD RETURNDATACOPY PUSH2 0xE6A JUMP JUMPDEST PUSH1 0x60 SWAP2 POP JUMPDEST POP POP PUSH1 0x1 PUSH1 0x0 SSTORE POP POP POP JUMP JUMPDEST PUSH1 0x2 PUSH1 0x0 SLOAD EQ ISZERO PUSH2 0xEC9 JUMPI PUSH1 0x40 MLOAD PUSH3 0x461BCD PUSH1 0xE5 SHL DUP2 MSTORE PUSH1 0x20 PUSH1 0x4 DUP3 ADD MSTORE PUSH1 0x1F PUSH1 0x24 DUP3 ADD MSTORE PUSH32 0x5265656E7472616E637947756172643A207265656E7472616E742063616C6C00 PUSH1 0x44 DUP3 ADD MSTORE PUSH1 0x64 ADD PUSH2 0x8AF JUMP JUMPDEST PUSH1 0x2 PUSH1 0x0 SSTORE PUSH1 0x1F SLOAD PUSH3 0x10000 SWAP1 DIV PUSH1 0xFF AND ISZERO PUSH2 0xF4D JUMPI PUSH1 0x40 MLOAD PUSH3 0x461BCD PUSH1 0xE5 SHL DUP2 MSTORE PUSH1 0x20 PUSH1 0x4 DUP3 ADD MSTORE PUSH1 0x35 PUSH1 0x24 DUP3 ADD MSTORE PUSH32 0x73616C65207761732061626F727465642C20706C656173652075736520636C61 PUSH1 0x44 DUP3 ADD MSTORE PUSH32 0x696D5374616C6545746828292066756E6374696F6E0000000000000000000000 PUSH1 0x64 DUP3 ADD MSTORE PUSH1 0x84 ADD PUSH2 0x8AF JUMP JUMPDEST CALLER PUSH1 0x0 SWAP1 DUP2 MSTORE PUSH1 0x21 PUSH1 0x20 MSTORE PUSH1 0x40 SWAP1 KECCAK256 SLOAD PUSH2 0xFA9 JUMPI PUSH1 0x40 MLOAD PUSH3 0x461BCD PUSH1 0xE5 SHL DUP2 MSTORE PUSH1 0x20 PUSH1 0x4 DUP3 ADD MSTORE PUSH1 0x1F PUSH1 0x24 DUP3 ADD MSTORE PUSH32 0x75736572206861736E277420616E7920746F6B656E7320746F20636C61696D00 PUSH1 0x44 DUP3 ADD MSTORE PUSH1 0x64 ADD PUSH2 0x8AF JUMP JUMPDEST PUSH1 0x1F SLOAD PUSH2 0x100 SWAP1 DIV PUSH1 0xFF AND PUSH2 0x100C JUMPI PUSH1 0x40 MLOAD PUSH3 0x461BCD PUSH1 0xE5 SHL DUP2 MSTORE PUSH1 0x20 PUSH1 0x4 DUP3 ADD MSTORE PUSH1 0x23 PUSH1 0x24 DUP3 ADD MSTORE PUSH32 0x696E69746961746F72206861736E277420656E646564207468652073616C6520 PUSH1 0x44 DUP3 ADD MSTORE PUSH3 0x1E595D PUSH1 0xEA SHL PUSH1 0x64 DUP3 ADD MSTORE PUSH1 0x84 ADD PUSH2 0x8AF JUMP JUMPDEST PUSH1 0xB SLOAD CALLER PUSH1 0x0 SWAP1 DUP2 MSTORE PUSH1 0x21 PUSH1 0x20 MSTORE PUSH1 0x40 DUP2 KECCAK256 SLOAD SWAP1 SWAP2 PUSH2 0x102A SWAP2 PUSH2 0x20C7 JUMP JUMPDEST CALLER PUSH1 0x0 SWAP1 DUP2 MSTORE PUSH1 0x21 PUSH1 0x20 MSTORE PUSH1 0x40 DUP1 DUP3 KECCAK256 SWAP2 SWAP1 SWAP2 SSTORE MLOAD SWAP1 SWAP2 POP PUSH32 0x8A36F5A234186D446E36A7DF36ACE663A05A580D9BEA2DD899C6DD76A075D5FA SWAP1 PUSH2 0x1071 SWAP1 DUP4 DUP2 MSTORE PUSH1 0x20 ADD SWAP1 JUMP JUMPDEST PUSH1 0x40 MLOAD DUP1 SWAP2 SUB SWAP1 LOG1 PUSH1 0x18 SLOAD PUSH1 0x40 MLOAD PUSH4 0xA9059CBB PUSH1 0xE0 SHL DUP2 MSTORE CALLER PUSH1 0x4 DUP3 ADD MSTORE PUSH1 0x24 DUP2 ADD DUP4 SWAP1 MSTORE PUSH1 0x1 PUSH1 0x1 PUSH1 0xA0 SHL SUB SWAP1 SWAP2 AND SWAP1 PUSH4 0xA9059CBB SWAP1 PUSH1 0x44 ADD PUSH1 0x20 PUSH1 0x40 MLOAD DUP1 DUP4 SUB DUP2 PUSH1 0x0 DUP8 DUP1 EXTCODESIZE ISZERO DUP1 ISZERO PUSH2 0x10C5 JUMPI PUSH1 0x0 DUP1 REVERT JUMPDEST POP GAS CALL ISZERO DUP1 ISZERO PUSH2 0x10D9 JUMPI RETURNDATASIZE PUSH1 0x0 DUP1 RETURNDATACOPY RETURNDATASIZE PUSH1 0x0 REVERT JUMPDEST POP POP POP POP PUSH1 0x40 MLOAD RETURNDATASIZE PUSH1 0x1F NOT PUSH1 0x1F DUP3 ADD AND DUP3 ADD DUP1 PUSH1 0x40 MSTORE POP DUP2 ADD SWAP1 PUSH2 0x10FD SWAP2 SWAP1 PUSH2 0x1F33 JUMP JUMPDEST POP POP PUSH1 0x1 PUSH1 0x0 SSTORE JUMP JUMPDEST PUSH1 0x1D SLOAD PUSH1 0x1 PUSH1 0x1 PUSH1 0xA0 SHL SUB AND CALLER EQ PUSH2 0x1160 JUMPI PUSH1 0x40 MLOAD PUSH3 0x461BCD PUSH1 0xE5 SHL DUP2 MSTORE PUSH1 0x20 PUSH1 0x4 DUP3 ADD MSTORE PUSH1 0x1B PUSH1 0x24 DUP3 ADD MSTORE PUSH32 0x63616C6C6572206973206E6F742074686520696E69746961746F720000000000 PUSH1 0x44 DUP3 ADD MSTORE PUSH1 0x64 ADD PUSH2 0x8AF JUMP JUMPDEST PUSH1 0x1F SLOAD PUSH3 0x10000 SWAP1 DIV PUSH1 0xFF AND ISZERO PUSH2 0x11AC JUMPI PUSH1 0x40 MLOAD PUSH3 0x461BCD PUSH1 0xE5 SHL DUP2 MSTORE PUSH1 0x20 PUSH1 0x4 DUP3 ADD MSTORE PUSH1 0x10 PUSH1 0x24 DUP3 ADD MSTORE PUSH16 0x1CD85B19481DD85CC818589BDC9D1959 PUSH1 0x82 SHL PUSH1 0x44 DUP3 ADD MSTORE PUSH1 0x64 ADD PUSH2 0x8AF JUMP JUMPDEST PUSH1 0x2 SLOAD PUSH1 0x18 SLOAD PUSH1 0x40 MLOAD PUSH4 0x70A08231 PUSH1 0xE0 SHL DUP2 MSTORE ADDRESS PUSH1 0x4 DUP3 ADD MSTORE PUSH1 0x1 PUSH1 0x1 PUSH1 0xA0 SHL SUB SWAP1 SWAP2 AND SWAP1 PUSH4 0x70A08231 SWAP1 PUSH1 0x24 ADD PUSH1 0x20 PUSH1 0x40 MLOAD DUP1 DUP4 SUB DUP2 DUP7 DUP1 EXTCODESIZE ISZERO DUP1 ISZERO PUSH2 0x11F2 JUMPI PUSH1 0x0 DUP1 REVERT JUMPDEST POP GAS STATICCALL ISZERO DUP1 ISZERO PUSH2 0x1206 JUMPI RETURNDATASIZE PUSH1 0x0 DUP1 RETURNDATACOPY RETURNDATASIZE PUSH1 0x0 REVERT JUMPDEST POP POP POP POP PUSH1 0x40 MLOAD RETURNDATASIZE PUSH1 0x1F NOT PUSH1 0x1F DUP3 ADD AND DUP3 ADD DUP1 PUSH1 0x40 MSTORE POP DUP2 ADD SWAP1 PUSH2 0x122A SWAP2 SWAP1 PUSH2 0x1FF1 JUMP JUMPDEST LT ISZERO PUSH2 0x129E JUMPI PUSH1 0x40 MLOAD PUSH3 0x461BCD PUSH1 0xE5 SHL DUP2 MSTORE PUSH1 0x20 PUSH1 0x4 DUP3 ADD MSTORE PUSH1 0x31 PUSH1 0x24 DUP3 ADD MSTORE PUSH32 0x696E73756666696369656E7420616D6F756E74206F6620746F6B656E73207365 PUSH1 0x44 DUP3 ADD MSTORE PUSH32 0x6E7420746F207468652061646472657373000000000000000000000000000000 PUSH1 0x64 DUP3 ADD MSTORE PUSH1 0x84 ADD PUSH2 0x8AF JUMP JUMPDEST PUSH1 0x1F DUP1 SLOAD PUSH1 0xFF NOT AND PUSH1 0x1 OR SWAP1 SSTORE JUMP JUMPDEST PUSH1 0x2 PUSH1 0x0 SLOAD EQ ISZERO PUSH2 0x1300 JUMPI PUSH1 0x40 MLOAD PUSH3 0x461BCD PUSH1 0xE5 SHL DUP2 MSTORE PUSH1 0x20 PUSH1 0x4 DUP3 ADD MSTORE PUSH1 0x1F PUSH1 0x24 DUP3 ADD MSTORE PUSH32 0x5265656E7472616E637947756172643A207265656E7472616E742063616C6C00 PUSH1 0x44 DUP3 ADD MSTORE PUSH1 0x64 ADD PUSH2 0x8AF JUMP JUMPDEST PUSH1 0x2 PUSH1 0x0 SSTORE PUSH1 0x1 SLOAD PUSH1 0xFF AND ISZERO PUSH2 0x134B JUMPI PUSH1 0x40 MLOAD PUSH3 0x461BCD PUSH1 0xE5 SHL DUP2 MSTORE PUSH1 0x20 PUSH1 0x4 DUP3 ADD MSTORE PUSH1 0x10 PUSH1 0x24 DUP3 ADD MSTORE PUSH16 0x14185D5CD8589B194E881C185D5CD959 PUSH1 0x82 SHL PUSH1 0x44 DUP3 ADD MSTORE PUSH1 0x64 ADD PUSH2 0x8AF JUMP JUMPDEST PUSH2 0x1359 DUP2 CALLER PUSH1 0x19 SLOAD CHAINID PUSH2 0x1C8F JUMP JUMPDEST PUSH2 0x1362 JUMPI PUSH1 0x0 DUP1 REVERT JUMPDEST PUSH1 0x1F SLOAD PUSH3 0x10000 SWAP1 DIV PUSH1 0xFF AND ISZERO PUSH2 0x13AE JUMPI PUSH1 0x40 MLOAD PUSH3 0x461BCD PUSH1 0xE5 SHL DUP2 MSTORE PUSH1 0x20 PUSH1 0x4 DUP3 ADD MSTORE PUSH1 0x10 PUSH1 0x24 DUP3 ADD MSTORE PUSH16 0x1CD85B19481DD85CC818589BDC9D1959 PUSH1 0x82 SHL PUSH1 0x44 DUP3 ADD MSTORE PUSH1 0x64 ADD PUSH2 0x8AF JUMP JUMPDEST PUSH1 0x1F SLOAD PUSH1 0xFF AND PUSH2 0x1400 JUMPI PUSH1 0x40 MLOAD PUSH3 0x461BCD PUSH1 0xE5 SHL DUP2 MSTORE PUSH1 0x20 PUSH1 0x4 DUP3 ADD MSTORE PUSH1 0x1E PUSH1 0x24 DUP3 ADD MSTORE PUSH32 0x73616C65206861736E2774206265656E2066696E616C697A6564207965740000 PUSH1 0x44 DUP3 ADD MSTORE PUSH1 0x64 ADD PUSH2 0x8AF JUMP JUMPDEST PUSH1 0x9 SLOAD TIMESTAMP LT PUSH2 0x1442 JUMPI PUSH1 0x40 MLOAD PUSH3 0x461BCD PUSH1 0xE5 SHL DUP2 MSTORE PUSH1 0x20 PUSH1 0x4 DUP3 ADD MSTORE PUSH1 0xE PUSH1 0x24 DUP3 ADD MSTORE PUSH14 0x1CD85B19481A185CC8195B991959 PUSH1 0x92 SHL PUSH1 0x44 DUP3 ADD MSTORE PUSH1 0x64 ADD PUSH2 0x8AF JUMP JUMPDEST PUSH1 0xA SLOAD TIMESTAMP GT PUSH2 0x1493 JUMPI PUSH1 0x40 MLOAD PUSH3 0x461BCD PUSH1 0xE5 SHL DUP2 MSTORE PUSH1 0x20 PUSH1 0x4 DUP3 ADD MSTORE PUSH1 0x17 PUSH1 0x24 DUP3 ADD MSTORE PUSH32 0x73616C65206861736E2774207374617274656420796574000000000000000000 PUSH1 0x44 DUP3 ADD MSTORE PUSH1 0x64 ADD PUSH2 0x8AF JUMP JUMPDEST PUSH1 0xF SLOAD CALLER PUSH1 0x0 SWAP1 DUP2 MSTORE PUSH1 0x21 PUSH1 0x20 MSTORE PUSH1 0x40 SWAP1 KECCAK256 SLOAD PUSH2 0x14B0 SWAP1 CALLVALUE PUSH2 0x208D JUMP JUMPDEST GT ISZERO PUSH2 0x150A JUMPI PUSH1 0x40 MLOAD PUSH3 0x461BCD PUSH1 0xE5 SHL DUP2 MSTORE PUSH1 0x20 PUSH1 0x4 DUP3 ADD MSTORE PUSH1 0x24 DUP1 DUP3 ADD MSTORE PUSH32 0x796F7527726520747279696E6720746F2062757920746F6F206D616E7920746F PUSH1 0x44 DUP3 ADD MSTORE PUSH4 0x6B656E73 PUSH1 0xE0 SHL PUSH1 0x64 DUP3 ADD MSTORE PUSH1 0x84 ADD PUSH2 0x8AF JUMP JUMPDEST PUSH1 0x10 SLOAD CALLVALUE LT ISZERO PUSH2 0x155C JUMPI PUSH1 0x40 MLOAD PUSH3 0x461BCD PUSH1 0xE5 SHL DUP2 MSTORE PUSH1 0x20 PUSH1 0x4 DUP3 ADD MSTORE PUSH1 0x19 PUSH1 0x24 DUP3 ADD MSTORE PUSH32 0x796F75277265206E6F742073656E64696E6720656E6F75676800000000000000 PUSH1 0x44 DUP3 ADD MSTORE PUSH1 0x64 ADD PUSH2 0x8AF JUMP JUMPDEST PUSH1 0x11 SLOAD PUSH2 0x1567 PUSH2 0x1C78 JUMP JUMPDEST PUSH1 0xB SLOAD PUSH2 0x1574 SWAP1 CALLVALUE PUSH2 0x20C7 JUMP JUMPDEST PUSH2 0x157E SWAP2 SWAP1 PUSH2 0x208D JUMP JUMPDEST GT ISZERO PUSH2 0x15F2 JUMPI PUSH1 0x40 MLOAD PUSH3 0x461BCD PUSH1 0xE5 SHL DUP2 MSTORE PUSH1 0x20 PUSH1 0x4 DUP3 ADD MSTORE PUSH1 0x33 PUSH1 0x24 DUP3 ADD MSTORE PUSH32 0x7468657265206172656E277420656E6F75676820746F6B656E73206C6566742E PUSH1 0x44 DUP3 ADD MSTORE PUSH32 0x205472792061206C6F77657220616D6F756E7400000000000000000000000000 PUSH1 0x64 DUP3 ADD MSTORE PUSH1 0x84 ADD PUSH2 0x8AF JUMP JUMPDEST PUSH1 0x5 SLOAD CALLVALUE PUSH1 0x1E SLOAD PUSH2 0x1603 SWAP2 SWAP1 PUSH2 0x208D JUMP JUMPDEST GT ISZERO PUSH2 0x1660 JUMPI PUSH1 0x40 MLOAD PUSH3 0x461BCD PUSH1 0xE5 SHL DUP2 MSTORE PUSH1 0x20 PUSH1 0x4 DUP3 ADD MSTORE PUSH1 0x26 PUSH1 0x24 DUP3 ADD MSTORE PUSH32 0x6861726463617020697320726561636865642E205472792061206C6F77657220 PUSH1 0x44 DUP3 ADD MSTORE PUSH6 0x185B5BDD5B9D PUSH1 0xD2 SHL PUSH1 0x64 DUP3 ADD MSTORE PUSH1 0x84 ADD PUSH2 0x8AF JUMP JUMPDEST CALLER PUSH1 0x0 SWAP1 DUP2 MSTORE PUSH1 0x21 PUSH1 0x20 MSTORE PUSH1 0x40 SWAP1 KECCAK256 SLOAD PUSH2 0x167B SWAP1 CALLVALUE SWAP1 PUSH2 0x208D JUMP JUMPDEST CALLER PUSH1 0x0 SWAP1 DUP2 MSTORE PUSH1 0x21 PUSH1 0x20 MSTORE PUSH1 0x40 SWAP1 KECCAK256 SSTORE PUSH1 0x1E SLOAD PUSH2 0x1699 SWAP1 CALLVALUE SWAP1 PUSH2 0x208D JUMP JUMPDEST PUSH1 0x1E SSTORE POP PUSH1 0x1 PUSH1 0x0 SSTORE JUMP JUMPDEST PUSH1 0x1A DUP1 SLOAD PUSH2 0x16B1 SWAP1 PUSH2 0x20E6 JUMP JUMPDEST DUP1 PUSH1 0x1F ADD PUSH1 0x20 DUP1 SWAP2 DIV MUL PUSH1 0x20 ADD PUSH1 0x40 MLOAD SWAP1 DUP2 ADD PUSH1 0x40 MSTORE DUP1 SWAP3 SWAP2 SWAP1 DUP2 DUP2 MSTORE PUSH1 0x20 ADD DUP3 DUP1 SLOAD PUSH2 0x16DD SWAP1 PUSH2 0x20E6 JUMP JUMPDEST DUP1 ISZERO PUSH2 0x172A JUMPI DUP1 PUSH1 0x1F LT PUSH2 0x16FF JUMPI PUSH2 0x100 DUP1 DUP4 SLOAD DIV MUL DUP4 MSTORE SWAP2 PUSH1 0x20 ADD SWAP2 PUSH2 0x172A JUMP JUMPDEST DUP3 ADD SWAP2 SWAP1 PUSH1 0x0 MSTORE PUSH1 0x20 PUSH1 0x0 KECCAK256 SWAP1 JUMPDEST DUP2 SLOAD DUP2 MSTORE SWAP1 PUSH1 0x1 ADD SWAP1 PUSH1 0x20 ADD DUP1 DUP4 GT PUSH2 0x170D JUMPI DUP3 SWAP1 SUB PUSH1 0x1F AND DUP3 ADD SWAP2 JUMPDEST POP POP POP POP POP DUP2 JUMP JUMPDEST PUSH1 0x2 PUSH1 0x0 SLOAD EQ ISZERO PUSH2 0x1785 JUMPI PUSH1 0x40 MLOAD PUSH3 0x461BCD PUSH1 0xE5 SHL DUP2 MSTORE PUSH1 0x20 PUSH1 0x4 DUP3 ADD MSTORE PUSH1 0x1F PUSH1 0x24 DUP3 ADD MSTORE PUSH32 0x5265656E7472616E637947756172643A207265656E7472616E742063616C6C00 PUSH1 0x44 DUP3 ADD MSTORE PUSH1 0x64 ADD PUSH2 0x8AF JUMP JUMPDEST PUSH1 0x2 PUSH1 0x0 SSTORE PUSH1 0x1F SLOAD PUSH2 0x100 SWAP1 DIV PUSH1 0xFF AND ISZERO PUSH2 0x17EE JUMPI PUSH1 0x40 MLOAD PUSH3 0x461BCD PUSH1 0xE5 SHL DUP2 MSTORE PUSH1 0x20 PUSH1 0x4 DUP3 ADD MSTORE PUSH1 0x23 PUSH1 0x24 DUP3 ADD MSTORE PUSH32 0x73616C6520686173206265656E20656E646564203A20796F752063616E20636C PUSH1 0x44 DUP3 ADD MSTORE PUSH3 0x61696D PUSH1 0xE8 SHL PUSH1 0x64 DUP3 ADD MSTORE PUSH1 0x84 ADD PUSH2 0x8AF JUMP JUMPDEST PUSH1 0x1F SLOAD PUSH3 0x10000 SWAP1 DIV PUSH1 0xFF AND ISZERO PUSH2 0x1807 JUMPI PUSH2 0x1807 PUSH2 0x1DA9 JUMP JUMPDEST PUSH1 0x6 SLOAD PUSH1 0x1E SLOAD LT DUP1 ISZERO PUSH2 0x181B JUMPI POP PUSH1 0x9 SLOAD TIMESTAMP GT JUMPDEST ISZERO PUSH2 0x1828 JUMPI PUSH2 0x1828 PUSH2 0x1DA9 JUMP JUMPDEST PUSH1 0x6 SLOAD PUSH1 0x1E SLOAD GT DUP1 ISZERO PUSH2 0x1849 JUMPI POP PUSH1 0x9 SLOAD PUSH2 0x1846 SWAP1 PUSH3 0x15180 PUSH2 0x208D JUMP JUMPDEST TIMESTAMP GT JUMPDEST ISZERO PUSH2 0x1856 JUMPI PUSH2 0x1856 PUSH2 0x1DA9 JUMP JUMPDEST PUSH1 0x1 PUSH1 0x0 SSTORE JUMP JUMPDEST PUSH1 0x2 PUSH1 0x0 SLOAD EQ ISZERO PUSH2 0x18B0 JUMPI PUSH1 0x40 MLOAD PUSH3 0x461BCD PUSH1 0xE5 SHL DUP2 MSTORE PUSH1 0x20 PUSH1 0x4 DUP3 ADD MSTORE PUSH1 0x1F PUSH1 0x24 DUP3 ADD MSTORE PUSH32 0x5265656E7472616E637947756172643A207265656E7472616E742063616C6C00 PUSH1 0x44 DUP3 ADD MSTORE PUSH1 0x64 ADD PUSH2 0x8AF JUMP JUMPDEST PUSH1 0x2 PUSH1 0x0 SSTORE PUSH1 0x1 SLOAD PUSH1 0xFF AND ISZERO PUSH2 0x18FB JUMPI PUSH1 0x40 MLOAD PUSH3 0x461BCD PUSH1 0xE5 SHL DUP2 MSTORE PUSH1 0x20 PUSH1 0x4 DUP3 ADD MSTORE PUSH1 0x10 PUSH1 0x24 DUP3 ADD MSTORE PUSH16 0x14185D5CD8589B194E881C185D5CD959 PUSH1 0x82 SHL PUSH1 0x44 DUP3 ADD MSTORE PUSH1 0x64 ADD PUSH2 0x8AF JUMP JUMPDEST PUSH1 0x1F SLOAD PUSH3 0x10000 SWAP1 DIV PUSH1 0xFF AND ISZERO PUSH2 0x1947 JUMPI PUSH1 0x40 MLOAD PUSH3 0x461BCD PUSH1 0xE5 SHL DUP2 MSTORE PUSH1 0x20 PUSH1 0x4 DUP3 ADD MSTORE PUSH1 0x10 PUSH1 0x24 DUP3 ADD MSTORE PUSH16 0x1CD85B19481DD85CC818589BDC9D1959 PUSH1 0x82 SHL PUSH1 0x44 DUP3 ADD MSTORE PUSH1 0x64 ADD PUSH2 0x8AF JUMP JUMPDEST PUSH1 0x1F SLOAD PUSH1 0xFF AND PUSH2 0x1999 JUMPI PUSH1 0x40 MLOAD PUSH3 0x461BCD PUSH1 0xE5 SHL DUP2 MSTORE PUSH1 0x20 PUSH1 0x4 DUP3 ADD MSTORE PUSH1 0x1E PUSH1 0x24 DUP3 ADD MSTORE PUSH32 0x73616C65206861736E2774206265656E2066696E616C697A6564207965740000 PUSH1 0x44 DUP3 ADD MSTORE PUSH1 0x64 ADD PUSH2 0x8AF JUMP JUMPDEST PUSH1 0x8 SLOAD TIMESTAMP GT PUSH2 0x19EA JUMPI PUSH1 0x40 MLOAD PUSH3 0x461BCD PUSH1 0xE5 SHL DUP2 MSTORE PUSH1 0x20 PUSH1 0x4 DUP3 ADD MSTORE PUSH1 0x17 PUSH1 0x24 DUP3 ADD MSTORE PUSH32 0x73616C65206861736E2774207374617274656420796574000000000000000000 PUSH1 0x44 DUP3 ADD MSTORE PUSH1 0x64 ADD PUSH2 0x8AF JUMP JUMPDEST PUSH1 0x9 SLOAD TIMESTAMP LT PUSH2 0x1A2C JUMPI PUSH1 0x40 MLOAD PUSH3 0x461BCD PUSH1 0xE5 SHL DUP2 MSTORE PUSH1 0x20 PUSH1 0x4 DUP3 ADD MSTORE PUSH1 0xE PUSH1 0x24 DUP3 ADD MSTORE PUSH14 0x1CD85B19481A185CC8195B991959 PUSH1 0x92 SHL PUSH1 0x44 DUP3 ADD MSTORE PUSH1 0x64 ADD PUSH2 0x8AF JUMP JUMPDEST PUSH1 0xF SLOAD CALLER PUSH1 0x0 SWAP1 DUP2 MSTORE PUSH1 0x21 PUSH1 0x20 MSTORE PUSH1 0x40 SWAP1 KECCAK256 SLOAD PUSH2 0x1A49 SWAP1 CALLVALUE PUSH2 0x208D JUMP JUMPDEST GT ISZERO PUSH2 0x1AA3 JUMPI PUSH1 0x40 MLOAD PUSH3 0x461BCD PUSH1 0xE5 SHL DUP2 MSTORE PUSH1 0x20 PUSH1 0x4 DUP3 ADD MSTORE PUSH1 0x24 DUP1 DUP3 ADD MSTORE PUSH32 0x796F7527726520747279696E6720746F2062757920746F6F206D616E7920746F PUSH1 0x44 DUP3 ADD MSTORE PUSH4 0x6B656E73 PUSH1 0xE0 SHL PUSH1 0x64 DUP3 ADD MSTORE PUSH1 0x84 ADD PUSH2 0x8AF JUMP JUMPDEST PUSH1 0x10 SLOAD CALLVALUE LT ISZERO PUSH2 0x1AF5 JUMPI PUSH1 0x40 MLOAD PUSH3 0x461BCD PUSH1 0xE5 SHL DUP2 MSTORE PUSH1 0x20 PUSH1 0x4 DUP3 ADD MSTORE PUSH1 0x19 PUSH1 0x24 DUP3 ADD MSTORE PUSH32 0x796F75277265206E6F742073656E64696E6720656E6F75676800000000000000 PUSH1 0x44 DUP3 ADD MSTORE PUSH1 0x64 ADD PUSH2 0x8AF JUMP JUMPDEST PUSH1 0x11 SLOAD PUSH2 0x1B00 PUSH2 0x1C78 JUMP JUMPDEST PUSH1 0xB SLOAD PUSH2 0x1B0D SWAP1 CALLVALUE PUSH2 0x20C7 JUMP JUMPDEST PUSH2 0x1B17 SWAP2 SWAP1 PUSH2 0x208D JUMP JUMPDEST GT ISZERO PUSH2 0x1B8B JUMPI PUSH1 0x40 MLOAD PUSH3 0x461BCD PUSH1 0xE5 SHL DUP2 MSTORE PUSH1 0x20 PUSH1 0x4 DUP3 ADD MSTORE PUSH1 0x33 PUSH1 0x24 DUP3 ADD MSTORE PUSH32 0x7468657265206172656E277420656E6F75676820746F6B656E73206C6566742E PUSH1 0x44 DUP3 ADD MSTORE PUSH32 0x205472792061206C6F77657220616D6F756E7400000000000000000000000000 PUSH1 0x64 DUP3 ADD MSTORE PUSH1 0x84 ADD PUSH2 0x8AF JUMP JUMPDEST PUSH1 0x5 SLOAD CALLVALUE PUSH1 0x1E SLOAD PUSH2 0x1B9C SWAP2 SWAP1 PUSH2 0x208D JUMP JUMPDEST GT ISZERO PUSH2 0x1BF9 JUMPI PUSH1 0x40 MLOAD PUSH3 0x461BCD PUSH1 0xE5 SHL DUP2 MSTORE PUSH1 0x20 PUSH1 0x4 DUP3 ADD MSTORE PUSH1 0x26 PUSH1 0x24 DUP3 ADD MSTORE PUSH32 0x6861726463617020697320726561636865642E205472792061206C6F77657220 PUSH1 0x44 DUP3 ADD MSTORE PUSH6 0x185B5BDD5B9D PUSH1 0xD2 SHL PUSH1 0x64 DUP3 ADD MSTORE PUSH1 0x84 ADD PUSH2 0x8AF JUMP JUMPDEST CALLER PUSH1 0x0 SWAP1 DUP2 MSTORE PUSH1 0x21 PUSH1 0x20 MSTORE PUSH1 0x40 SWAP1 KECCAK256 SLOAD PUSH2 0x1C14 SWAP1 CALLVALUE SWAP1 PUSH2 0x208D JUMP JUMPDEST CALLER PUSH1 0x0 SWAP1 DUP2 MSTORE PUSH1 0x21 PUSH1 0x20 MSTORE PUSH1 0x40 SWAP1 KECCAK256 SSTORE PUSH1 0x1E SLOAD PUSH2 0x1C32 SWAP1 CALLVALUE SWAP1 PUSH2 0x208D JUMP JUMPDEST PUSH1 0x1E SSTORE PUSH1 0x1 PUSH1 0x0 SSTORE JUMP JUMPDEST PUSH1 0x0 DUP1 PUSH1 0x0 DUP4 MLOAD PUSH1 0x41 EQ PUSH2 0x1C4F JUMPI PUSH1 0x0 DUP1 REVERT JUMPDEST POP POP POP PUSH1 0x20 DUP2 ADD MLOAD PUSH1 0x40 DUP3 ADD MLOAD PUSH1 0x60 SWAP1 SWAP3 ADD MLOAD PUSH1 0x0 BYTE SWAP3 SWAP1 SWAP2 SWAP1 JUMP JUMPDEST PUSH1 0x1B DUP1 SLOAD PUSH2 0x16B1 SWAP1 PUSH2 0x20E6 JUMP JUMPDEST PUSH1 0x0 PUSH1 0xB SLOAD PUSH1 0x1E SLOAD PUSH2 0x1C8A SWAP2 SWAP1 PUSH2 0x20C7 JUMP JUMPDEST SWAP1 POP SWAP1 JUMP JUMPDEST PUSH1 0x0 DUP1 PUSH1 0x0 DUP1 PUSH2 0x1C9E DUP9 PUSH2 0x1C3C JUMP JUMPDEST PUSH1 0x40 DUP1 MLOAD PUSH1 0x1 PUSH1 0x1 PUSH1 0xA0 SHL SUB DUP13 AND PUSH1 0x20 DUP1 DUP4 ADD SWAP2 SWAP1 SWAP2 MSTORE DUP2 DUP4 ADD DUP13 SWAP1 MSTORE PUSH1 0x60 DUP1 DUP4 ADD DUP13 SWAP1 MSTORE DUP4 MLOAD DUP1 DUP5 SUB SWAP1 SWAP2 ADD DUP2 MSTORE PUSH1 0x80 DUP4 ADD SWAP1 SWAP4 MSTORE DUP3 MLOAD SWAP3 ADD SWAP2 SWAP1 SWAP2 KECCAK256 PUSH32 0x19457468657265756D205369676E6564204D6573736167653A0A333200000000 PUSH1 0xA0 DUP4 ADD MSTORE PUSH1 0xBC DUP3 ADD DUP2 SWAP1 MSTORE SWAP4 SWAP7 POP SWAP2 SWAP5 POP SWAP3 POP PUSH1 0x0 SWAP1 PUSH1 0xDC ADD PUSH1 0x40 DUP1 MLOAD PUSH1 0x1F NOT DUP2 DUP5 SUB ADD DUP2 MSTORE DUP3 DUP3 MSTORE DUP1 MLOAD PUSH1 0x20 SWAP2 DUP3 ADD KECCAK256 PUSH1 0x0 DUP5 MSTORE SWAP1 DUP4 ADD DUP1 DUP4 MSTORE DUP2 SWAP1 MSTORE PUSH1 0xFF DUP9 AND SWAP2 DUP4 ADD SWAP2 SWAP1 SWAP2 MSTORE PUSH1 0x60 DUP3 ADD DUP7 SWAP1 MSTORE PUSH1 0x80 DUP3 ADD DUP6 SWAP1 MSTORE SWAP2 POP PUSH1 0x1 SWAP1 PUSH1 0xA0 ADD PUSH1 0x20 PUSH1 0x40 MLOAD PUSH1 0x20 DUP2 SUB SWAP1 DUP1 DUP5 SUB SWAP1 DUP6 GAS STATICCALL ISZERO DUP1 ISZERO PUSH2 0x1D7F JUMPI RETURNDATASIZE PUSH1 0x0 DUP1 RETURNDATACOPY RETURNDATASIZE PUSH1 0x0 REVERT JUMPDEST POP POP PUSH1 0x40 MLOAD PUSH1 0x1F NOT ADD MLOAD PUSH1 0x14 SLOAD PUSH1 0x1 PUSH1 0x1 PUSH1 0xA0 SHL SUB SWAP2 DUP3 AND SWAP2 AND EQ SWAP12 SWAP11 POP POP POP POP POP POP POP POP POP POP POP JUMP JUMPDEST CALLER PUSH1 0x0 SWAP1 DUP2 MSTORE PUSH1 0x21 PUSH1 0x20 MSTORE PUSH1 0x40 SWAP1 KECCAK256 SLOAD PUSH2 0x1E05 JUMPI PUSH1 0x40 MLOAD PUSH3 0x461BCD PUSH1 0xE5 SHL DUP2 MSTORE PUSH1 0x20 PUSH1 0x4 DUP3 ADD MSTORE PUSH1 0x1F PUSH1 0x24 DUP3 ADD MSTORE PUSH32 0x75736572206861736E277420616E7920746F6B656E7320746F20636C61696D00 PUSH1 0x44 DUP3 ADD MSTORE PUSH1 0x64 ADD PUSH2 0x8AF JUMP JUMPDEST CALLER PUSH1 0x0 DUP2 DUP2 MSTORE PUSH1 0x21 PUSH1 0x20 MSTORE PUSH1 0x40 DUP1 DUP3 KECCAK256 DUP1 SLOAD SWAP1 DUP4 SWAP1 SSTORE SWAP1 MLOAD SWAP1 SWAP3 SWAP2 DUP4 SWAP2 SWAP1 DUP2 DUP2 DUP2 DUP6 DUP8 GAS CALL SWAP3 POP POP POP RETURNDATASIZE DUP1 PUSH1 0x0 DUP2 EQ PUSH2 0x1E5A JUMPI PUSH1 0x40 MLOAD SWAP2 POP PUSH1 0x1F NOT PUSH1 0x3F RETURNDATASIZE ADD AND DUP3 ADD PUSH1 0x40 MSTORE RETURNDATASIZE DUP3 MSTORE RETURNDATASIZE PUSH1 0x0 PUSH1 0x20 DUP5 ADD RETURNDATACOPY PUSH2 0x1E5F JUMP JUMPDEST PUSH1 0x60 SWAP2 POP JUMPDEST POP POP POP POP JUMP JUMPDEST PUSH1 0x0 DUP3 PUSH1 0x1F DUP4 ADD SLT PUSH2 0x1E76 JUMPI PUSH1 0x0 DUP1 REVERT JUMPDEST DUP2 CALLDATALOAD PUSH8 0xFFFFFFFFFFFFFFFF DUP1 DUP3 GT ISZERO PUSH2 0x1E91 JUMPI PUSH2 0x1E91 PUSH2 0x2137 JUMP JUMPDEST PUSH1 0x40 MLOAD PUSH1 0x1F DUP4 ADD PUSH1 0x1F NOT SWAP1 DUP2 AND PUSH1 0x3F ADD AND DUP2 ADD SWAP1 DUP3 DUP3 GT DUP2 DUP4 LT OR ISZERO PUSH2 0x1EB9 JUMPI PUSH2 0x1EB9 PUSH2 0x2137 JUMP JUMPDEST DUP2 PUSH1 0x40 MSTORE DUP4 DUP2 MSTORE DUP7 PUSH1 0x20 DUP6 DUP9 ADD ADD GT ISZERO PUSH2 0x1ED2 JUMPI PUSH1 0x0 DUP1 REVERT JUMPDEST DUP4 PUSH1 0x20 DUP8 ADD PUSH1 0x20 DUP4 ADD CALLDATACOPY PUSH1 0x0 PUSH1 0x20 DUP6 DUP4 ADD ADD MSTORE DUP1 SWAP5 POP POP POP POP POP SWAP3 SWAP2 POP POP JUMP JUMPDEST PUSH1 0x0 PUSH1 0x20 DUP3 DUP5 SUB SLT ISZERO PUSH2 0x1F04 JUMPI PUSH1 0x0 DUP1 REVERT JUMPDEST DUP2 CALLDATALOAD PUSH2 0x1F0F DUP2 PUSH2 0x214D JUMP JUMPDEST SWAP4 SWAP3 POP POP POP JUMP JUMPDEST PUSH1 0x0 PUSH1 0x20 DUP3 DUP5 SUB SLT ISZERO PUSH2 0x1F28 JUMPI PUSH1 0x0 DUP1 REVERT JUMPDEST DUP2 MLOAD PUSH2 0x1F0F DUP2 PUSH2 0x214D JUMP JUMPDEST PUSH1 0x0 PUSH1 0x20 DUP3 DUP5 SUB SLT ISZERO PUSH2 0x1F45 JUMPI PUSH1 0x0 DUP1 REVERT JUMPDEST DUP2 MLOAD DUP1 ISZERO ISZERO DUP2 EQ PUSH2 0x1F0F JUMPI PUSH1 0x0 DUP1 REVERT JUMPDEST PUSH1 0x0 PUSH1 0x20 DUP3 DUP5 SUB SLT ISZERO PUSH2 0x1F67 JUMPI PUSH1 0x0 DUP1 REVERT JUMPDEST DUP2 CALLDATALOAD PUSH8 0xFFFFFFFFFFFFFFFF DUP2 GT ISZERO PUSH2 0x1F7E JUMPI PUSH1 0x0 DUP1 REVERT JUMPDEST PUSH2 0x1F8A DUP5 DUP3 DUP6 ADD PUSH2 0x1E65 JUMP JUMPDEST SWAP5 SWAP4 POP POP POP POP JUMP JUMPDEST PUSH1 0x0 DUP1 PUSH1 0x0 DUP1 PUSH1 0x80 DUP6 DUP8 SUB SLT ISZERO PUSH2 0x1FA8 JUMPI PUSH1 0x0 DUP1 REVERT JUMPDEST DUP5 CALLDATALOAD PUSH8 0xFFFFFFFFFFFFFFFF DUP2 GT ISZERO PUSH2 0x1FBF JUMPI PUSH1 0x0 DUP1 REVERT JUMPDEST PUSH2 0x1FCB DUP8 DUP3 DUP9 ADD PUSH2 0x1E65 JUMP JUMPDEST SWAP5 POP POP PUSH1 0x20 DUP6 ADD CALLDATALOAD PUSH2 0x1FDC DUP2 PUSH2 0x214D JUMP JUMPDEST SWAP4 SWAP7 SWAP4 SWAP6 POP POP POP POP PUSH1 0x40 DUP3 ADD CALLDATALOAD SWAP2 PUSH1 0x60 ADD CALLDATALOAD SWAP1 JUMP JUMPDEST PUSH1 0x0 PUSH1 0x20 DUP3 DUP5 SUB SLT ISZERO PUSH2 0x2003 JUMPI PUSH1 0x0 DUP1 REVERT JUMPDEST POP MLOAD SWAP2 SWAP1 POP JUMP JUMPDEST PUSH1 0x0 DUP1 PUSH1 0x0 PUSH1 0x60 DUP5 DUP7 SUB SLT ISZERO PUSH2 0x201F JUMPI PUSH1 0x0 DUP1 REVERT JUMPDEST DUP4 MLOAD SWAP3 POP PUSH1 0x20 DUP5 ADD MLOAD SWAP2 POP PUSH1 0x40 DUP5 ADD MLOAD SWAP1 POP SWAP3 POP SWAP3 POP SWAP3 JUMP JUMPDEST PUSH1 0x0 PUSH1 0x20 DUP1 DUP4 MSTORE DUP4 MLOAD DUP1 DUP3 DUP6 ADD MSTORE PUSH1 0x0 JUMPDEST DUP2 DUP2 LT ISZERO PUSH2 0x2065 JUMPI DUP6 DUP2 ADD DUP4 ADD MLOAD DUP6 DUP3 ADD PUSH1 0x40 ADD MSTORE DUP3 ADD PUSH2 0x2049 JUMP JUMPDEST DUP2 DUP2 GT ISZERO PUSH2 0x2077 JUMPI PUSH1 0x0 PUSH1 0x40 DUP4 DUP8 ADD ADD MSTORE JUMPDEST POP PUSH1 0x1F ADD PUSH1 0x1F NOT AND SWAP3 SWAP1 SWAP3 ADD PUSH1 0x40 ADD SWAP4 SWAP3 POP POP POP JUMP JUMPDEST PUSH1 0x0 DUP3 NOT DUP3 GT ISZERO PUSH2 0x20A0 JUMPI PUSH2 0x20A0 PUSH2 0x2121 JUMP JUMPDEST POP ADD SWAP1 JUMP JUMPDEST PUSH1 0x0 DUP3 PUSH2 0x20C2 JUMPI PUSH4 0x4E487B71 PUSH1 0xE0 SHL PUSH1 0x0 MSTORE PUSH1 0x12 PUSH1 0x4 MSTORE PUSH1 0x24 PUSH1 0x0 REVERT JUMPDEST POP DIV SWAP1 JUMP JUMPDEST PUSH1 0x0 DUP2 PUSH1 0x0 NOT DIV DUP4 GT DUP3 ISZERO ISZERO AND ISZERO PUSH2 0x20E1 JUMPI PUSH2 0x20E1 PUSH2 0x2121 JUMP JUMPDEST POP MUL SWAP1 JUMP JUMPDEST PUSH1 0x1 DUP2 DUP2 SHR SWAP1 DUP3 AND DUP1 PUSH2 0x20FA JUMPI PUSH1 0x7F DUP3 AND SWAP2 POP JUMPDEST PUSH1 0x20 DUP3 LT DUP2 EQ ISZERO PUSH2 0x211B JUMPI PUSH4 0x4E487B71 PUSH1 0xE0 SHL PUSH1 0x0 MSTORE PUSH1 0x22 PUSH1 0x4 MSTORE PUSH1 0x24 PUSH1 0x0 REVERT JUMPDEST POP SWAP2 SWAP1 POP JUMP JUMPDEST PUSH4 0x4E487B71 PUSH1 0xE0 SHL PUSH1 0x0 MSTORE PUSH1 0x11 PUSH1 0x4 MSTORE PUSH1 0x24 PUSH1 0x0 REVERT JUMPDEST PUSH4 0x4E487B71 PUSH1 0xE0 SHL PUSH1 0x0 MSTORE PUSH1 0x41 PUSH1 0x4 MSTORE PUSH1 0x24 PUSH1 0x0 REVERT JUMPDEST PUSH1 0x1 PUSH1 0x1 PUSH1 0xA0 SHL SUB DUP2 AND DUP2 EQ PUSH2 0x2162 JUMPI PUSH1 0x0 DUP1 REVERT JUMPDEST POP JUMP INVALID LOG2 PUSH5 0x6970667358 0x22 SLT KECCAK256 STOP SWAP15 0xE6 EXP CALL TIMESTAMP EXTCODEHASH PUSH28 0xD6458EF46C916C3110A1393C7B5227F7B9150BDC6C39E9C64736F6C PUSH4 0x43000807 STOP CALLER LOG2 PUSH5 0x6970667358 0x22 SLT KECCAK256 0x4D DIV 0xCB 0xAE 0xCD 0x5D GASPRICE MSTORE DUP13 0xD4 0x2D CALLDATASIZE PUSH3 0x7BAB46 DUP4 RETURN PUSH3 0xA2F5BD CODECOPY LOG0 0xE2 SWAP1 0xCA DUP11 0xE6 CALLVALUE PUSH3 0x2E6473 PUSH16 0x6C634300080700330000000000000000 ",
  "sha1": "97ccac8297abce6f622775bcc66bb198e8528818",
  "source": "// \"SPDX-License-Identifier: MIT\"\npragma solidity =0.8.7;\n\nimport \"@openzeppelin/contracts/access/Ownable.sol\";\nimport \"@openzeppelin/contracts/security/ReentrancyGuard.sol\";\nimport \"@openzeppelin/contracts/security/Pausable.sol\";\nimport \"@openzeppelin/contracts/token/ERC20/IERC20.sol\";\nimport \"@openzeppelin/contracts/utils/Address.sol\";\nimport \"./launchpadChild.sol\";\n\n// V 0.1\n// TODO: add pauser\n// TODO: add setters\n// TODO: add blacklist\n\ncontract LaunchpadMaster is Ownable, ReentrancyGuard, Pausable {\n  event Deployed(address addr, uint256 salt);\n\n  mapping(uint256 => address) public saleIdToAddress;\n  mapping(address => uint256) public addressToSaleId;\n  mapping(uint256 => address) public saleToSigner;\n  uint256 public currentSaleId;\n  uint256 public feesBP; // Fees in basis points (100 = 1%)\n  uint256 public startSaleId; // Start of the sale count\n  uint256 public deployFee; // Amount to pay to deploy a sale\n  address public signer; // who signs for presales\n  address payable public feesWallet; // Who gets the fees\n\n  constructor(\n    uint256 _feesBP,\n    uint256 _startSaleId,\n    address _signer,\n    address _feesWallet,\n    uint256 _deployFee\n  ) {\n    feesBP = _feesBP;\n    feesWallet = payable(_feesWallet);\n    currentSaleId = _startSaleId;\n    signer = _signer;\n    deployFee = _deployFee;\n  }\n\n  function createPresale(\n    address _token,\n    string memory _description,\n    string memory _imageUrl,\n    // Sale inputs\n    // We use an array to solve stackTooDeep error\n    uint256[8] memory _saleInputs,\n    // uint _tokenTotalAmount,\n    // uint _listingTokensPerOneEth,\n    // uint _liquidityShareBP,\n    // uint _hardcap,\n    // uint _startTime,\n    // uint _endTime,\n    // uint _maxBuyPerUser\n    // uint _minBuyPerUser\n    // Miscellaneous\n    bool _whitelistEnabled,\n    uint256 _wlStartTime,\n    uint256 _liquidityLockDuration,\n    address _router\n  ) external payable whenNotPaused nonReentrant returns (address saleAddress) {\n    // Basic checks\n    require(msg.value >= deployFee, \"not enough eth sent\");\n    require(\n      _saleInputs.length == 8,\n      \"not enough parameters in saleInputs array\"\n    );\n\n    // New index\n    saleToSigner[currentSaleId] = signer;\n\n    // Deploy the contract\n    LaunchpadChild deployedSale = new LaunchpadChild(\n      _token,\n      _description,\n      _imageUrl,\n      _saleInputs,\n      _whitelistEnabled,\n      _wlStartTime,\n      _liquidityLockDuration,\n      _router,\n      msg.sender\n    );\n\n    // Update the registry\n    saleAddress = address(deployedSale);\n    saleIdToAddress[currentSaleId] = saleAddress;\n    addressToSaleId[saleAddress] = currentSaleId;\n\n    currentSaleId = currentSaleId + 1;\n\n    return (saleAddress);\n  }\n\n  function claimFees() external nonReentrant {\n    require(msg.sender == feesWallet, \"not authorized\");\n    payable(feesWallet).call{value: address(this).balance}(\"\");\n  }\n\n  function setSigner(address _signer) external onlyOwner {\n    signer = _signer;\n  }\n\n  function setFeesBP(uint _feesBP) external onlyOwner {\n    require(_feesBP < 10_000, \"too high\");\n    feesBP = _feesBP;\n  }\n\n  function setDeployFee(uint _deployFee) external onlyOwner {\n    deployFee = _deployFee;\n  }\n\n  receive() external payable {}\n}\n",
  "sourcePath": "contracts/launchpadMaster.sol",
  "type": "contract"
}